:100000000C946A000C9431080C940A080C94920029
:100010000C9492000C9492000C9492000C94920018
:100020000C9492000C9492000C9492000C94920008
:100030000C9492000C9492000C9492000C949200F8
:100040000C94C0070C9492000C9492000C949200B3
:100050000C9492000C9492000C9492000C949200D8
:100060000C9458080C9492007F05890590059A0518
:10007000A405B105BE0500000000240027002A00E9
:1000800000000000230026002900000000080002F4
:10009000010000030407000000000000000001024E
:1000A0000408102040800102040810200102040806
:1000B000102000000000250028002B000404040488
:1000C0000404040402020202020203030303030302
:1000D000D50D560B11241FBECFEFD8E0DEBFCDBF2C
:1000E00011E0A0E0B1E0E8EEF5E202C005900D926B
:1000F000A832B107D9F722E0A8E2B1E001C01D9211
:10010000A534B207E1F710E0C9E6D0E004C02197BA
:10011000FE010E94A10EC836D107C9F70E94660BE6
:100120000C94E7120C940000E0918001F0918101A1
:10013000309729F010927B0110927A01099408956A
:10014000CF93DF93AC01E0917E01F0917F01309776
:10015000F1F090917D0180917C019817C0F090E0C2
:10016000292F30E02617370754F4D901AA5ABE4F79
:10017000EA01C20FD31F88818C939F5FF1CF109249
:100180007D0160937C01CB01DF91CF910994DF91D8
:10019000CF9108950895E0917D0180917C01E81749
:1001A00030F4F0E0EA5AFE4F808190E008958FEF3E
:1001B0009FEF089590917D0180917C01981750F4F4
:1001C000E92FF0E0EA5AFE4F208130E09F5F9093E4
:1001D0007D0102C02FEF3FEFC901089580917C019E
:1001E00090E020917D01821B91090895089580E09F
:1001F00090E00895CF93DF9300D0CDB7DEB7CB0169
:10020000642F49835A830E9486094981842F5A8129
:10021000952F0F900F90DF91CF910895CF93DF939B
:100220001F92CDB7DEB7698361E0CE0101960E94CF
:10023000860981E090E00F90DF91CF9108950C94B2
:10024000720FCF92DF92EF92FF920F931F93CF9393
:10025000DF938130A1F178F0823009F05DC0C02ECB
:10026000D12CE12CF12CD22AE42A0BE110E0C62F8C
:10027000D0E069964BC0C02ED12CE12CF12CD22AB3
:10028000E42ACDE0D0E00BE010E0061B11090C17CA
:100290001D071CF4B701A60103C040E050E0BA01FD
:1002A000CE010E94920A219790F7DF91CF911F9182
:1002B0000F91FF90EF90DF90CF900C94D209C02E59
:1002C000D12CE12CF12CD22AE42ACAE1D0E08E0113
:1002D000061B11090C171D071CF4B701A60103C06A
:1002E00040E050E0BA01CE010E94920A2197CB3043
:1002F000D10581F7DACF40E050E0BA01C8010E9491
:10030000920A0F5F1F4F0732110579F2C017D1070C
:1003100094F3B701A601F2CFDF91CF911F910F9116
:10032000FF90EF90DF90CF9008950F9300E020E0D2
:1003300040E06FE081E00E9421010F910895CF928B
:10034000DF92EF92FF920F931F93CF93DF93813051
:10035000A1F178F0823009F05DC0C02ED12CE12CE3
:10036000F12CD22AE42AC6E2D0E08E01061B110944
:100370004BC0C02ED12CE12CF12CD22AE42AC0E0B3
:10038000D0E0062F10E0C017D1071CF4B701A6017A
:1003900003C040E050E0BA01CE010E94920A2196CB
:1003A000CC30D10581F7DF91CF911F910F91FF9054
:1003B000EF90DF90CF900C94D209C02ED12CE12C7D
:1003C000F12CD22AE42ACCE0D0E0062F10E0055F21
:1003D0001F4F0C171D071CF0B701A60103C040E01A
:1003E00050E0BA01CE010E94920A2196CB31D1058C
:1003F00081F7D9CF40E050E0BA01CE010E94920AC5
:100400002197CA31D10579F20C171D079CF7B70166
:10041000A601F3CFDF91CF911F910F91FF90EF9045
:10042000DF90CF9008950C94D209CF93DF93809101
:100430004E01882381F0C2E8D1E0699183E192E026
:100440000E940E0181E0C239D807B9F710924E011F
:10045000DF91CF910895EEE2F1E001900020E9F7FD
:100460003197AF014E525140E0911302F0911402C6
:100470000280F381E02D6EE271E083E192E0DF9192
:10048000CF9109940895CF93DF93C0E0D0E040E08E
:1004900050E0BA01CE010E94920A2196C732D105DE
:1004A000B1F7DF91CF910C94D209CF92DF92EF9206
:1004B000FF92CF93DF93C42ED12CE12CF12CD62ABE
:1004C000E82AC0E0D0E0B701A601CE010E94920A5E
:1004D0002196C732D105B9F7DF91CF91FF90EF9008
:1004E000DF90CF900C94D209EF92FF920F931F935D
:1004F000CF93DF932FB7F894809176019091770195
:10050000A0917801B09179012FBF40915201509193
:1005100053016091540170915501841B950BA60BFA
:10052000B70B853F9140A105B105D0F02FB7F894E6
:100530008091760190917701A0917801B091790135
:100540002FBF8093520190935301A0935401B09315
:100550005501109251011092500110924F0122C08A
:100560008091500190915101019690935101809397
:1005700050016AE070E080E090E00E9486072FB7AB
:10058000F8948091760190917701A0917801B091D3
:1005900079012FBF8093520190935301A09354018E
:1005A000B0935501E0905001F090510185E1E816BB
:1005B000F1040CF4C3C080919D01811186C060E0FC
:1005C00088E00E94F5064FEF6FEF8FEF0E94550213
:1005D000CCE064E670E080E090E00E9486070FEFD8
:1005E0002FEF4FEF6C2F82E00E9421012FEF4FEF92
:1005F0006C2F80E00E942101C15058F7CCE0D0E080
:1006000006E210E064E670E080E090E00E94860779
:1006100040E050E0BA01CE010E94920A40E050E072
:10062000BA01C8018C1B9D0B0E94920A0E94130202
:100630002196C331D10531F7C4E1D0E006E210E0E4
:1006400064E670E080E090E00E9486070E9443022A
:100650004FEF5FEF6FEF70E0CE010E94920A4FEF15
:100660005FEF6FEF70E0C8018C1B9D0B0E94920A38
:100670000E9413022196CB31D10511F716E264E6F0
:1006800070E080E090E00E9486070E944302812F84
:100690008C1B4FEF5FEF6FEF70E090E00E94920ACB
:1006A0004FEF5FEF6FEF70E0CE010E94920A0E9461
:1006B00013022196C732D10511F761E081E10E9452
:1006C000F50681E080939D0115C080914F01811155
:1006D00011C060E081E10E94F50664E670E080E010
:1006E00090E00E94860761E081E10E94F50681E0CA
:1006F00080934F012DEDE216F10404F10E944302B4
:1007000010929D0110929F0110929E011092510132
:100710001092500161E088E00E94F50660E081E1FE
:100720000E94F50664EC79E080E090E0DF91CF91E3
:100730001F910F91FF90EF900C948607DF91CF915E
:100740001F910F91FF90EF9008956F927F928F927B
:100750009F92AF92BF92CF92DF92EF92FF920F9350
:100760001F93CF93DF93262F882339F064E10E94F3
:10077000620EBB24B394B80E01C0B12C222341F009
:10078000822F64E10E94620EAA24A394A80E01C0E5
:10079000A12C442341F0842F64E10E94620E99242D
:1007A0009394980E01C0912C812C612C712CC5E181
:1007B000D0E0C62CD12CE12CF12CFE2CED2CDC2C25
:1007C000CC24E728C82800E010E0B701A601C80142
:1007D0000E94920A0F5F1F4F07321105B1F768ECB4
:1007E00070E080E090E00E9486070E94D209219785
:1007F0007B0C6A0C890C2097E1F6DF91CF911F9159
:100800000F91FF90EF90DF90CF90BF90AF909F90AF
:100810008F907F906F9008953F924F925F926F926A
:100820007F928F929F92AF92BF92CF92DF92EF9280
:10083000FF920F931F93CF93DF93262F882331F0DE
:1008400064E10E94620ED1E0D80F01C0D0E0222303
:1008500039F0822F64E10E94620E11E0180F01C08E
:1008600010E0442339F0842F64E10E94620E01E01D
:10087000080F01C000E0C4E10C9F402C11241C9F14
:10088000302C1124DC9FC02D1124712C612C512C93
:1008900095E1A92EB12CC62CC30CD12CE12CF12C46
:1008A000FE2CED2CDC2CCC24852D8C0FE82A872DFA
:1008B000840DC82A812C912CB701A601C4010E9485
:1008C000920A8FEF881A980A87E288169104A1F796
:1008D00068EC70E080E090E00E9486070E94D209F8
:1008E00081E0A81AB1085D1A611A701AA114B10446
:1008F00091F6DF91CF911F910F91FF90EF90DF90D4
:10090000CF90BF90AF909F908F907F906F905F90AF
:100910004F903F900895FF920F931F93CF93DF93D3
:10092000C8E2D1E090917C0180917D01981731F06F
:1009300083E192E00E94DA008993F4CF809128014C
:10094000E0912901982F9E27C0912A019C271091A0
:100950002B019127D0912C019D279C5F20912D0187
:100960009213B3C1803B09F475C108F05DC08E30AD
:1009700009F49CC130F58B3009F47CC190F48A30C5
:1009800009F0A3C1412F50E060E070E0762F652FA1
:10099000542F44276C2B4D2B87E290E08E1B91093E
:1009A00052C18C3009F42EC18D3009F08EC10091F6
:1009B0002C0120912B0140912A016091290182E0B4
:1009C0007AC1803A09F433C150F48C3109F07DC109
:1009D000DF91CF911F910F91FF900C9495018A3A6E
:1009E00009F41EC18F3A09F070C180919C018F9368
:1009F00080919B018F9380919A018F9380919901AF
:100A00008F9384E291E09F938F938EE291E09F9386
:100A10008F930E940F108DB79EB708960FB6F8946B
:100A20009EBF0FBE8DBF51C1803D09F433C1D8F5C3
:100A3000813C09F443C190F4803C09F046C1412F48
:100A400050E060E070E0762F652F542F44276C2B28
:100A50004D2B87E290E08E1B9109E0C08C3C09F49D
:100A60003FC08F3C09F031C1809198018F938091F4
:100A700097018F93809196018F93809195018F9329
:100A800084E291E09F938F938EE291E09F938F9306
:100A90000E940F108DB79EB708960FB6F8949EBFB0
:100AA0000FBE8DBF12C18F3DB9F038F48D3D09F0F6
:100AB0000CC10E949501CCE07AC0803E09F4F0C0E0
:100AC000803F09F002C161E081E1DF91CF911F9188
:100AD0000F91FF900C94F50681E080934E01F5C0D4
:100AE00010929F0110929E018E2F90E08730910509
:100AF00008F0EBC0FC01EC5CFF4F0C94A10E4D2FF5
:100B0000612F8C2FDF91CF911F910F91FF900C944B
:100B10005502DF91CF911F910F91FF900C944302EA
:100B20004D2F612F8C2FDF91CF911F910F91FF904F
:100B30000C94A5034D2F612F8C2FDF91CF911F9126
:100B40000F91FF900C940C04C093920110939301A9
:100B5000D093940190919F0181E0892780939F0118
:100B6000B4C0C093920110939301D09394019091DB
:100B70009E0181E0892780939E01A7C0F12C6AE83D
:100B800072E080E090E00E9486070D2F212F4C2F0D
:100B90006F2D82E00E949F01212F4C2F6F2D80E04E
:100BA0000E949F01F3949DE0F912E9CF88C06CED9B
:100BB00075E080E090E00E94860700912C01209172
:100BC0002B0140912A016C2F82E00E949F0100912D
:100BD0002C0120912B0140912A016C2F80E00E9472
:100BE0009F01C15020F761E088E00E94F50660E0B7
:100BF00081E10E94F50610929D0110929E011092D3
:100C00009F0163C0412F50E060E070E0762F652FB8
:100C1000542F44276C2B4D2B8E2F90E00E94920A6C
:100C2000DF91CF911F910F91FF900C941302412FF0
:100C300050E060E070E0762F652F542F44276C2B36
:100C40004D2B8E2F90E0DF91CF911F910F91FF9050
:100C50000C94920A0D2F212F4C2F6E2F82E00E94B0
:100C6000210100912C0120912B0140912A016091DA
:100C700029011AC00D2F212F4C2F6E2F82E00E94C8
:100C80009F0100912C0120912B0140912A0160913C
:100C9000290110C00D2F212F4C2F6E2F82E013C081
:100CA0000D2F212F4C2F6E2F80E00DC00D2F212FE7
:100CB0004C2F6E2F80E00E949F0107C00D2F212F27
:100CC0004C2F6FE081E00E942101DF91CF911F91B5
:100CD0000F91FF9008950895CF92DF92EF92FF92C7
:100CE0000F931F93CF93DF936C017A018B01C0E0C8
:100CF000D0E0CE15DF0589F0D8016D918D01D601C8
:100D0000ED91FC910190F081E02DC6010995892BB0
:100D100011F47E0102C02196ECCFC701DF91CF9183
:100D20001F910F91FF90EF90DF90CF900895833047
:100D300081F028F4813099F08230A1F00895873055
:100D4000A9F08830B9F08430D1F4809180008F7D93
:100D500003C0809180008F7780938000089584B5D0
:100D60008F7702C084B58F7D84BD08958091B000D7
:100D70008F7703C08091B0008F7D8093B00008957D
:100D800085ED8093BC008091BC0084FDFCCF109267
:100D90000E0208950E940A10CF93DF93282F30E0AF
:100DA000F901E657FF4F8491F901E256FF4FD491C4
:100DB000F901E454FF4FC491CC2391F081110E94BA
:100DC0009706EC2FF0E0EE0FFF1FE058FF4FA591C4
:100DD000B491EC91ED2381E090E021F480E002C039
:100DE00080E090E0DF91CF9108951F93CF93DF9340
:100DF000282F30E0F901E657FF4F8491F901E256C0
:100E0000FF4FD491F901E454FF4FC491CC23C9F0B2
:100E1000162F81110E949706EC2FF0E0EE0FFF1FB6
:100E2000EE54FF4FA591B4918FB7F894111105C0FE
:100E30009C91ED2FE095E92302C0EC91ED2BEC9312
:100E40008FBFDF91CF911F910895CF93DF9390E0F3
:100E5000FC01E256FF4F2491FC01E454FF4F8491C2
:100E6000882361F190E0880F991FFC01EA58FF4F39
:100E7000C591D491FC01EE54FF4FA591B49161113D
:100E800009C09FB7F8948881209582238883EC91CC
:100E90002E230BC0623061F49FB7F8943881822F03
:100EA000809583238883EC912E2B2C939FBF06C0C3
:100EB0008FB7F894E8812E2B28838FBFDF91CF91D5
:100EC00008953FB7F8948091080290910902A0918B
:100ED0000A02B0910B0226B5A89B05C02F3F19F05E
:100EE0000196A11DB11D3FBFBA2FA92F982F8827AA
:100EF000820F911DA11DB11DBC01CD0142E0660F05
:100F0000771F881F991F4A95D1F708958F929F9256
:100F1000AF92BF92CF92DF92EF92FF926B017C0172
:100F20000E9461074B015C01C114D104E104F1048A
:100F3000F1F00E946107DC01CB0188199909AA0927
:100F4000BB09883E9340A105B10570F321E0C21AA8
:100F5000D108E108F10888EE880E83E0981EA11CF4
:100F6000B11CC114D104E104F10419F7DDCFFF90E5
:100F7000EF90DF90CF90BF90AF909F908F900895AB
:100F80001F920F920FB60F9211242F933F938F93BE
:100F90009F93AF93BF938091760190917701A09139
:100FA0007801B09179013091070223E0230F2D37AA
:100FB00020F40196A11DB11D05C026E8230F02965D
:100FC000A11DB11D209307028093760190937701B4
:100FD000A0937801B0937901809108029091090261
:100FE000A0910A02B0910B020196A11DB11D809340
:100FF000080290930902A0930A02B0930B02BF91DA
:10100000AF919F918F913F912F910F900FBE0F90B5
:101010001F9018951F920F920FB60F9211242F93C5
:101020003F934F935F936F937F938F939F93AF9370
:10103000BF93EF93FF93E0910201F09103010995B3
:10104000FF91EF91BF91AF919F918F917F916F91A0
:101050005F914F913F912F910F900FBE0F901F9076
:1010600018951F920F920FB60F9211242F933F9352
:101070004F935F936F937F938F939F93AF93BF93A0
:10108000EF93FF93E0910001F09101010995FF9129
:10109000EF91BF91AF919F918F917F916F915F91F0
:1010A0004F913F912F910F900FBE0F901F90189569
:1010B0001F920F920FB60F9211242F933F934F93CD
:1010C0005F936F937F938F939F93AF93BF93EF93B0
:1010D000FF938091B900887F803609F49CC068F541
:1010E000883209F45BC090F4803109F454C038F4BC
:1010F000882309F4F6C0883009F44DC0F6C0883161
:1011000009F44CC0803209F45DC0EFC0803409F4AA
:1011100068C048F4803309F455C0883309F0E5C04D
:101120008093E301D8C0803509F44FC0883509F4B5
:101130005DC0883409F0D9C0D6C0883909F4C7C069
:10114000A8F4883709F467C038F4883609F463C016
:10115000803709F460C0C9C0883809F4B8C0803944
:1011600009F45FC0803809F0C0C05BC0803B09F45F
:1011700086C038F4803A09F466C0883A09F47FC022
:10118000B4C0803C09F4A7C0883C09F4A4C0883BE3
:1011900009F48AC0AAC08091060210C0909105028D
:1011A00080910402981770F5E091050281E08E0F9E
:1011B00080930502F0E0EC51FE4F80818093BB00EC
:1011C00085EC86C08093E3018EC0E091050281E04A
:1011D0008E0F809305028091BB00F0E0EC51FE4F32
:1011E000808390910502809104026EC0E091050217
:1011F00081E08E0F809305028091BB00F0E0EC51FE
:10120000FE4F808380910D0281116DC081E080933B
:101210000C0284EA61C083E080930E021092E20126
:10122000CFCF8091E201803208F051C0E091E2011D
:1012300081E08E0F8093E2018091BB00F0E0EE53DD
:10124000FE4F8083BDCF85EC8093BC0010920E02D0
:101250008091E201803230F4E091E201F0E0EE535F
:10126000FE4F10826091E20170E0E0910F02F09178
:10127000100282EC91E009951092E20136C084E000
:1012800080930E021092C1011092C001E0911102F0
:10129000F091120209958091C001811105C081E091
:1012A0008093C0011092A001E091C10181E08E0FF6
:1012B0008093C101F0E0E056FE4F80818093BB0037
:1012C0009091C1018091C001981708F479CF85E809
:1012D0008093BC000AC085EC8093BC0010920E0283
:1012E00004C01092E3010E94C006FF91EF91BF91EC
:1012F000AF919F918F917F916F915F914F913F91AE
:101300002F910F900FBE0F901F9018954091C00124
:10131000262F30E0240F311D21323105DCF42091DD
:101320000E022430C9F4FC0180E090E0861758F4E6
:101330003091C0012191DC01A056BE4FA30FB11D19
:101340002C930196F3CF8091C001680F6093C00188
:1013500080E0089581E0089582E00895FF920F9360
:101360001F93CF93DF93F82E062FC7E0D0E010E055
:1013700061E0802F0E94F5068F2D0E94CC060C2E76
:1013800001C0880F0A94EAF7182B60E0802F0E94B2
:10139000F506219768F7812FDF91CF911F910F916B
:1013A000FF9008950F931F93CF93DF93CDB7DEB7D0
:1013B00029970FB6F894DEBF0FBECDBF80912702EC
:1013C00090912802892B09F4A2C00E946107009124
:1013D0002D0210912E0220912F0230913002DC015B
:1013E000CB01801B910BA20BB30B8C329140A1055A
:1013F000B10558F3F89480912302909124029A83C6
:101400008983E0912702F0912802DF011196808103
:10141000898790911F02E0913102F0913202809110
:101420003302992309F42EC09081982B98879081DC
:10143000809589238F838F818C8388E08B83588567
:101440006F8149853B812C8189819A81508347FD39
:10145000252F3A952083262F39F0441F00C0000025
:101460006083000000C0F2CF38E04D91608300003F
:10147000019761F7F0933202E093310249873B8391
:101480002C8338C09081982B9887908180958923F0
:101490008F838F818E8388E08D8358856F81498506
:1014A0003D812E8189819A81508347FD252F00C07F
:1014B00000C0208300C000C000C000C000C0608326
:1014C0000000262F3A9541F0441F000000C000C0E4
:1014D00000C000C000C0E8CF38E04D9100C060837C
:1014E00000C0019709F7F0933202E0933102498777
:1014F0003D832E839A83898378940E946107609349
:101500002D0270932E0280932F0290933002299621
:101510000FB6F894DEBF0FBECDBFDF91CF911F9104
:101520000F9108958F929F92AF92BF92CF92DF92C8
:10153000EF92FF92209121023091220282179307AD
:1015400008F052C04B01AA24BB24E82DC52ED62E8C
:10155000E72EFF24FC2D342F20912602222361F058
:10156000829E40011124E92DC29E60011124FD2DAF
:10157000429FD00111243B2FF0902C02E0902902D1
:10158000A0912702B0912802FE1008C0AC01440FC0
:10159000551F840F951F8A0F9B1F14C0880F991F1A
:1015A000880F991F8A0F9B1F472F5527662777277C
:1015B000DC01AF0DB11D222321F0429FA0011124B7
:1015C000452F4C9320912902DC01A20FB11DEC9311
:1015D00020912A02DC01A20FB11DFC9320912B0265
:1015E000FC01E20FF11D3083FF90EF90DF90CF9070
:1015F000BF90AF909F908F900895FF920F931F938D
:10160000CF93DF93809137020E94CC06892BD1F7CC
:1016100060913602809137020E94AE09C82F609116
:101620003602809137020E94AE09D82F60913602AF
:10163000809137020E94AE09F82E00E010E0209160
:10164000380230E00217130768F461E08091360237
:101650000E94F50660E0809136020E94F5060F5F59
:101660001F4FEDCF8D2F90E0A0E0B0E0BA2FA92F53
:10167000982F8827AC2BAC01BD014F298C2F880FE8
:10168000880B90E0A0E0B0E0B82FAA279927882720
:101690008A019B01082B192B2A2B3B2BC901B8016E
:1016A000DF91CF911F910F91FF90089580912702B4
:1016B00090912802009711F00E94720F80912502EC
:1016C00087FD03C060E00C9425070895CF93DF9356
:1016D000CDB7DEB764970FB6F894DEBF0FBECDBFAF
:1016E000789484B5826084BD84B5816084BD85B5FD
:1016F000826085BD85B5816085BD80916E00816009
:1017000080936E00109281008091810082608093AE
:1017100081008091810081608093810080918000B0
:101720008160809380008091B10084608093B100DB
:101730008091B00081608093B00080917A008460D5
:1017400080937A0080917A00826080937A00809101
:101750007A00816080937A0080917A00806880931B
:101760007A001092C1008091250287FD08C061E0D7
:101770000E94250760E0809125020E94F50611E095
:101780001093200280E18093BA0084E990E0909366
:1017900012028093110280EA90E0909310028093ED
:1017A0000F0210927D0110927C0110927B01109229
:1017B0007A0110920E0210930D0210920C0261E059
:1017C00082E10E94F50661E083E10E94F5068091C6
:1017D000B9008E7F8093B9008091B9008D7F80938E
:1017E000B90088E48093B80085E48093BC008BE85E
:1017F00094E090937F0180937E0185E192E0909345
:101800008101809380018DE08093360289E080938E
:10181000370261E08DE00E94250760E08091370289
:101820000E94250783E08093380260E080913602B1
:101830000E94F5060E94FD0A61E088E00E942507EB
:1018400061E088E00E94F50661E081E10E942507E1
:1018500060E081E10E94F50660E082E00E942507D9
:101860001093820121E030E00FEF10E02F5F3F4F37
:10187000F901EF57FE4F229FC001239F900D900D5D
:101880001124B8010E946E0E80832031310571F75A
:1018900063E0862E912CA12CB12C5BE6252E56E020
:1018A000352E80919F01882311F124E732E0309397
:1018B000010120930001809169008C7F81608093F9
:1018C0006900E89A4091940160919301809192019E
:1018D0000E94A5034091940160919301809192012F
:1018E0000E940C04E898309201012092000180913E
:1018F0009E01882341F184E792E090930101809357
:101900000001809169008C7F816080936900E89A72
:101910004091940160919301809192010E9455023F
:101920006CE271E080E090E00E9486070E94430232
:101930006CE271E080E090E00E948607E8983092C7
:1019400001012092000180919D01882309F41EC1AC
:1019500000E010E043E0D42E82E00E94CC06019724
:1019600011F40E947402809137020E94CC06892BE8
:1019700059F5D092380260E0809136020E94F50657
:101980000E94FD0A0E94FD0A2B013C010E94FD0AF3
:101990007801EE0CFF1CEE0CFF1CE1E0F0E0EC0F18
:1019A000FD1FEE0EFF1E640D751D861D971D22E0A6
:1019B00030E040E050E00E94820EF7012083318346
:1019C000428353830F5F1F4F0530110529F649806D
:1019D0005A806B807C80FE0135967301620120E0A5
:1019E00030E0A0E0B0E081E090E041915191619160
:1019F0007191C416D506E606F7061CF4DC016A01EF
:101A00007B0144155505660577051CF49C012A01E8
:101A10003B0101968530910541F7FE01319640E08A
:101A200050E060E070E0CB014A175B0759F04217C5
:101A3000530741F0C080D180E280F3806C0D7D1DA2
:101A40008E1D9F1D4F5F5F4F34964530510561F7E6
:101A5000A50194010E94820E2093990130939A016E
:101A600040939B0150939C0182E00E94CC06019719
:101A700011F40E94740200E010E082E00E94CC06A3
:101A8000019711F40E947402809137020E94CC06E3
:101A9000892B61F582E08093380260E08091360204
:101AA0000E94F5060E94FD0A0E94FD0A2B013C01DE
:101AB0000E94FD0A7801EE0CFF1CEE0CFF1C21E0D9
:101AC00030E02C0F3D1FE20EF31E640D751D861DC8
:101AD000971D22E030E040E050E00E94820EF701C6
:101AE00020833183428353830F5F1F4F05301105DD
:101AF00021F6C980DA80EB80FC80FE013596260154
:101B0000370120E030E0A0E0B0E081E090E04191DA
:101B1000519161917191C416D506E606F7061CF441
:101B2000DC016A017B0144155505660577051CF447
:101B30009C012A013B0101968530910541F7FE0188
:101B4000319640E050E060E070E0CB014A175B075F
:101B500059F04217530741F0C080D180E280F380F2
:101B60006C0D7D1D8E1D9F1D4F5F5F4F3496453060
:101B7000510561F7A50194010E94820E2093950101
:101B800030939601409397015093980182E00E9410
:101B9000CC06019711F40E94740280E090E0892B3A
:101BA00009F47FCE0E94000078CE109216021092A7
:101BB000150288EE93E0A0E0B0E0809317029093C6
:101BC0001802A0931902B0931A028EE091E090934C
:101BD00014028093130280E291E090933502809387
:101BE00034021092390210923A0210923B02109283
:101BF0003C0280E090E0A0E8BFE380933D02909338
:101C00003E02A0933F02B093400210922002109235
:101C1000260210922D0210922E0210922F02109284
:101C2000300281E080932C028093290210922A02D4
:101C300092E090932B0280931F0285E790E09093AF
:101C40002402809323020E94DD0E90932802809349
:101C50002702009761F025E7FC0111922A95E9F728
:101C600087E290E0909322028093210208C01092B4
:101C7000240210922302109222021092210286E086
:101C80008093250280912002882341F061E086E064
:101C90000E94250760E086E00E94F506E2ECF0E095
:101CA000E491F0E0EE0FFF1FEE54FF4F8591949109
:101CB0009093320280933102E4EAF0E0E491E09301
:101CC00033020895991B79E004C0991F961708F014
:101CD000961B881F7A95C9F78095089597FB072E64
:101CE00016F4009407D077FD09D00E94A70E07FCD8
:101CF00005D03EF4909581959F4F0895709561951C
:101D00007F4F0895052E97FB1EF400940E94990EB4
:101D100057FD07D00E94BB0E07FC03D04EF40C9475
:101D2000990E50954095309521953F4F4F4F5F4FFD
:101D3000089590958095709561957F4F8F4F9F4F37
:101D40000895EE0FFF1F0590F491E02D0994AA1B52
:101D5000BB1B51E107C0AA1FBB1FA617B70710F096
:101D6000A61BB70B881F991F5A95A9F780959095C8
:101D7000BC01CD010895A1E21A2EAA1BBB1BFD01D7
:101D80000DC0AA1FBB1FEE1FFF1FA217B307E4075A
:101D9000F50720F0A21BB30BE40BF50B661F771FB2
:101DA000881F991F1A9469F7609570958095909592
:101DB0009B01AC01BD01CF010895CF93DF93823029
:101DC000910510F482E090E0E0914302F09144022A
:101DD00020E030E0C0E0D0E0309711F14081518147
:101DE00048175907C0F04817590761F48281938159
:101DF000209719F09B838A832BC090934402809391
:101E0000430226C02115310519F04217530718F473
:101E10009A01BE01DF01EF010280F381E02DDCCFEA
:101E20002115310509F1281B390B2430310590F4B7
:101E300012968D919C9113976115710521F0FB010C
:101E40009383828304C09093440280934302FD01F4
:101E5000329644C0FD01E20FF31F8193919322500B
:101E600031092D933C933AC02091410230914202B6
:101E7000232B41F420910601309107013093420257
:101E80002093410220910401309105012115310573
:101E900041F42DB73EB74091080150910901241B30
:101EA000350BE0914102F0914202E217F307A0F4F2
:101EB0002E1B3F0B2817390778F0AC014E5F5F4FA0
:101EC0002417350748F04E0F5F1F5093420240938E
:101ED00041028193919302C0E0E0F0E0CF01DF91F5
:101EE000CF9108950F931F93CF93DF93009709F439
:101EF0008CC0FC0132971382128200914302109130
:101F000044020115110581F420813181820F931F54
:101F100020914102309142022817390779F5F09358
:101F20004202E093410271C0D80140E050E0AE1798
:101F3000BF0750F412962D913C911397AD012115D6
:101F4000310509F1D901F3CF9D01DA0133832283F1
:101F500060817181860F971F8217930769F4EC01E6
:101F600028813981260F371F2E5F3F4F3183208311
:101F70008A819B8193838283452B29F4F0934402C9
:101F8000E093430242C01396FC93EE931297ED0147
:101F9000499159919E01240F351FE217F30771F4FF
:101FA00080819181840F951F029611969C938E9348
:101FB0008281938113969C938E931297E0E0F0E0D8
:101FC000D80112968D919C911397009719F0F80102
:101FD0008C01F6CF8D919C9198012E5F3F4F820F1F
:101FE000931F20914102309142022817390769F46A
:101FF000309729F4109244021092430202C01382D7
:1020000012821093420200934102DF91CF911F91FF
:102010000F91089581E090E0F8940C94E712AEE0FF
:10202000B0E0E5E1F0E10C94BE120D891E8986E076
:102030008C831A8309838FEF9FE79E838D83AE0184
:10204000475E5F4F6F89788DCE0101960E943210F6
:102050002F813885F801E20FF31F10822E96E4E0FD
:102060000C94DA12ACE0B0E0E8E3F0E10C94B012CA
:102070007C016B018A01FC0117821682838181FF3A
:10208000BDC1CE0101964C01F7019381F60193FD8C
:10209000859193FF81916F01882309F4ABC185324B
:1020A00039F493FD859193FF81916F01853229F475
:1020B000B70190E00E941A12E7CF512C312C20E09A
:1020C0002032A0F48B3269F030F4803259F0833240
:1020D00069F420612CC08D3239F0803339F42160ED
:1020E00026C02260246023C0286021C027FD27C0AD
:1020F00030ED380F3A3078F426FF06C0FAE05F9EE4
:10210000300D1124532E13C08AE0389E300D112457
:10211000332E20620CC08E3221F426FD6BC1206468
:1021200006C08C3611F4206802C0883641F4F601EE
:1021300093FD859193FF81916F018111C1CF982FFC
:102140009F7D9554933028F40C5F1F4FFFE3F98374
:102150000DC0833631F0833771F0833509F05BC0F1
:1021600022C0F801808189830E5F1F4F442443946D
:10217000512C540115C03801F2E06F0E711CF801AA
:10218000A080B18026FF03C0652D70E002C06FEF14
:102190007FEFC5012C870E940F122C0183012C8533
:1021A0002F77222E17C03801F2E06F0E711CF80154
:1021B000A080B18026FF03C0652D70E002C06FEFE4
:1021C0007FEFC5012C870E9404122C012C8520680A
:1021D000222E830123FC1BC0832D90E04816590654
:1021E000B0F4B70180E290E00E941A123A94F4CF62
:1021F000F50127FC859127FE81915F01B70190E0F1
:102200000E941A1231103A94F1E04F1A5108411409
:10221000510471F7E5C0843611F0893639F5F801BB
:1022200027FF07C060817181828193810C5F1F4FFE
:1022300008C060817181072E000C880B990B0E5F1E
:102240001F4F2F76722E97FF09C09095809570953D
:1022500061957F4F8F4F9F4F2068722E2AE030E0AC
:10226000A4010E945212A82EA81844C0853729F450
:102270002F7EB22E2AE030E025C0F22FF97FBF2E4C
:102280008F36C1F018F4883579F0B4C0803719F072
:10229000883721F0AFC02F2F2061B22EB4FE0DC0C1
:1022A0008B2D8460B82E09C024FF0AC09F2F966032
:1022B000B92E06C028E030E005C020E130E002C0C1
:1022C00020E132E0F801B7FE07C0608171818281B0
:1022D00093810C5F1F4F06C06081718180E090E0A8
:1022E0000E5F1F4FA4010E945212A82EA818FB2DAA
:1022F000FF777F2E76FE0BC0372D3E7FA51450F45E
:1023000074FE0AC072FC08C0372D3E7E05C0BA2C90
:10231000372D03C0BA2C01C0B52C34FF0DC0FE010F
:10232000EA0DF11D8081803311F4397E09C032FF3E
:1023300006C0B394B39404C0832F867809F0B39495
:1023400033FD13C030FF06C05A2CB31418F4530CDD
:102350005B18B32CB31468F4B70180E290E03C87BB
:102360000E941A12B3943C85F5CFB31410F43B18B5
:1023700001C0312C34FF12C0B70180E390E03C87EC
:102380000E941A123C8532FF17C031FD03C088E756
:1023900090E002C088E590E0B7010CC0832F8678FA
:1023A00059F031FF02C08BE201C080E237FD8DE2BF
:1023B000B70190E00E941A12A51438F4B70180E327
:1023C00090E00E941A125A94F7CFAA94F401EA0DF1
:1023D000F11D8081B70190E00E941A12A110F5CF83
:1023E000332009F451CEB70180E290E00E941A1226
:1023F0003A94F6CFF7018681978102C08FEF9FEF65
:102400002C96E2E10C94CC12FC01059061507040D6
:102410000110D8F7809590958E0F9F1F0895FC01AD
:102420006150704001900110D8F7809590958E0F03
:102430009F1F08950F931F93CF93DF93FB01238179
:1024400021FD03C08FEF9FEF28C022FF16C04681F9
:102450005781248135814217530744F4A081B1810B
:102460009D012F5F3F4F318320838C9326813781DD
:102470002F5F3F4F3783268310C0EB01092F182FA2
:102480000084F185E02D0995892BE1F68E819F81ED
:1024900001969F838E83812F902FDF91CF911F9183
:1024A0000F910895FA01AA27283051F1203181F1C6
:1024B000E8946F936E7F6E5F7F4F8F4F9F4FAF4F4C
:1024C000B1E03ED0B4E03CD0670F781F891F9A1F5F
:1024D000A11D680F791F8A1F911DA11D6A0F711D13
:1024E000811D911DA11D20D009F468943F912AE01F
:1024F000269F11243019305D3193DEF6CF01089507
:10250000462F4770405D4193B3E00FD0C9F7F6CF37
:10251000462F4F70405D4A3318F0495D31FD4052FF
:10252000419302D0A9F7EACFB4E0A6959795879595
:1025300077956795BA95C9F7009761057105089574
:102540009B01AC010A2E0694579547953795279520
:10255000BA95C9F7620F731F841F951FA01D0895B8
:102560002F923F924F925F926F927F928F929F92A3
:10257000AF92BF92CF92DF92EF92FF920F931F9391
:10258000CF93DF93CDB7DEB7CA1BDB0B0FB6F89442
:10259000DEBF0FBECDBF09942A88398848885F8482
:1025A0006E847D848C849B84AA84B984C884DF80F3
:1025B000EE80FD800C811B81AA81B981CE0FD11DD7
:1025C0000FB6F894DEBF0FBECDBFED01089510E049
:1025D000C9E6D0E004C0FE010E94A10E2196CA36D1
:0825E000D107C9F7F894FFCF01
:1025E8006B066B06000045028000000000000E012B
:1025F800FA00F700CA00EE00DA00CB000000000085
:0826080042021F01256C640071
:107E0000112484B714BE81FFF0D085E080938100F7
:107E100082E08093C00088E18093C10086E0809377
:107E2000C20080E18093C4008EE0C9D0259A86E02C
:107E300020E33CEF91E0309385002093840096BBD3
:107E4000B09BFECF1D9AA8958150A9F7CC24DD24C4
:107E500088248394B5E0AB2EA1E19A2EF3E0BF2EE7
:107E6000A2D0813461F49FD0082FAFD0023811F036
:107E7000013811F484E001C083E08DD089C08234E0
:107E800011F484E103C0853419F485E0A6D080C0E4
:107E9000853579F488D0E82EFF2485D0082F10E0AE
:107EA000102F00270E291F29000F111F8ED06801E7
:107EB0006FC0863521F484E090D080E0DECF843638
:107EC00009F040C070D06FD0082F6DD080E0C81688
:107ED00080E7D80618F4F601B7BEE895C0E0D1E017
:107EE00062D089930C17E1F7F0E0CF16F0E7DF06D8
:107EF00018F0F601B7BEE89568D007B600FCFDCFD4
:107F0000A601A0E0B1E02C9130E011968C91119780
:107F100090E0982F8827822B932B1296FA010C0160
:107F200087BEE89511244E5F5F4FF1E0A038BF0790
:107F300051F7F601A7BEE89507B600FCFDCF97BE46
:107F4000E89526C08437B1F42ED02DD0F82E2BD052
:107F50003CD0F601EF2C8F010F5F1F4F84911BD097
:107F6000EA94F801C1F70894C11CD11CFA94CF0C13
:107F7000D11C0EC0853739F428D08EE10CD085E9AC
:107F80000AD08FE07ACF813511F488E018D01DD067
:107F900080E101D065CF982F8091C00085FFFCCF94
:107FA0009093C60008958091C00087FFFCCF809118
:107FB000C00084FD01C0A8958091C6000895E0E648
:107FC000F0E098E1908380830895EDDF803219F02E
:107FD00088E0F5DFFFCF84E1DECF1F93182FE3DFCA
:107FE0001150E9F7F2DF1F91089580E0E8DFEE27F6
:047FF000FF270994CA
:027FFE00040479
:0400000300007E007B
:00000001FF
