:100000000C9471120C94A2120C94A2120C94A212D1
:100010000C94A2120C94A2120C94A2120C94A21290
:100020000C94A2120C94A2120C94A2120C94A21280
:100030000C94A2120C94A2120C94A2120C94A21270
:100040000C94A2120C94E75F0C94A2120C94A212CE
:100050000C94A2120C94A2120C943B740C94F271A6
:100060000C94A2120C94C3380C94A2120C94A212F9
:100070000C94A2120C94A2120C94A2120C94A21230
:100080000C94B8480C94A2120C94A2120C94A212D4
:100090000C94A2120C94A2120C94A2120C94A21210
:1000A0000C94A2120C94A2120C948B480C94A212E1
:1000B0000C94A2120C94A2120C94A2120C945E48FE
:1000C0000C94A2120C94A2120C94A2120C94A212E0
:1000D0000C94A2120C94A2120C94A2120C94A212D0
:1000E0000C94A212F9380039143921392B394539C9
:1000F0003039453935393A3945394239F46FF76F76
:10010000E66FEA6FF06F2E70FB6FFF6F057009707E
:100110000D70137017701B702E7021702570297070
:100120000E711371187122712C71A57136713E71A7
:10013000467150715A71647173717D71A5718771C7
:1001400091719B71E774EC7416751B75FB740775E0
:10015000D174084AD73B3BCE016E84BCBFFDC12F92
:100160003D6C74319ABD56833DDA3D00C77F11BEA8
:10017000D9E4BB4C3E916BAAAABE000000803F05AB
:10018000A84CCDB2D44EB93836A9020C50B99186DC
:1001900088083CA6AAAA2ABE000000803F004E4163
:1001A0004E494E495459494E46CDCCCC3D0AD723F1
:1001B0003C17B7D13877CC2B329595E6241FB14F39
:1001C0000A000020410000C84200401C4620BCBE7E
:1001D0004CCA1B0E5AAEC59D744C4556454C494EF3
:1001E0004700434F4D4D554E49434154494F4E00F2
:1001F00044525952554E004552524F525300494EA7
:10020000464F004543484F003C3C3C2067636F64C9
:10021000655F4732380A00203A203E2028686F6D1B
:10022000655F616C6C207C7C20686F6D655A29204D
:100230003E2066696E616C0A0020206375727265EB
:100240006E745F706F736974696F6E3D00203A2041
:100250003E20686F6D65580A0020206375727265D4
:100260006E745F706F736974696F6E3D00203A2021
:100270003E20686F6D65590A0020206375727265B3
:100280006E745F706F736974696F6E3D005261695F
:100290007365205A20286265666F726520686F6DED
:1002A000696E672920746F20003E20656E64737448
:1002B0006F70732E656E61626C6528747275652946
:1002C0000A003E3E3E2067636F64655F4732380A2E
:1002D00000205A3A200020593A20004265642058F4
:1002E0003A20004D65736820706F696E74206361F9
:1002F0006E6E6F74206265207265736F6C766564D4
:100300000A000302FE01F701F001E201D9016F6664
:10031000660044454255473A0020573A0020573A74
:10032000007A5F6D696E3A2000795F6D696E3A20E0
:1003300000785F6D696E3A20005265706F72746963
:100340006E6720656E6473746F702073746174756A
:10035000730A0053657474696E6720547261766520
:100360006C20416363656C65726174696F6E3A20DD
:100370000053657474696E672052657472616374AA
:1003800020416363656C65726174696F6E3A200029
:1003900053657474696E67205072696E742041638E
:1003A00063656C65726174696F6E3A2000536574A1
:1003B00074696E67205072696E7420616E64205497
:1003C000726176656C20416363656C657261746906
:1003D0006F6E3A2000205A00205900580020204D0E
:1003E00061783A2000205A00205900580020204D02
:1003F000696E3A20004F6E20004F666600536F66AC
:100400007420656E6473746F70733A2000486F7463
:10041000656E64206F6666736574733A000001361A
:10042000372603FF3C3D380EFF2E303E12FFFF0CF7
:100430000809FFFFFF1A1C18FFFF24221EFFFF08F8
:10044000440AFF4307FF45FFFFFFFFFFFF206F75D3
:1004500074206F662072616E67650A00536572765C
:100460006F20003A200020536572766F20002064D0
:100470003A0020693A0020703A0020653A00206472
:100480003A0020693A0020703A0043290A0061626C
:100490006C656420286D696E2074656D7020004362
:1004A0006F6C642065787472756465732061726521
:1004B00020004F66660A00466164652048656967EA
:1004C00068742000426564204C6576656C696E67CF
:1004D00020004661696C656420746F20656E6162FE
:1004E0006C6520426564204C6576656C696E670AB0
:1004F000004D65736820706F696E742063616E6E65
:100500006F74206265207265736F6C7665640A0093
:100510004D34323120696E636F727265637420707E
:100520006172616D657465722075736167650A003B
:10053000546F6F206661722066726F6D20726566FF
:100540006572656E636520706F696E740A003A208B
:10055000007A5F6D696E3A20202D3230207A5F6D0F
:1005600061783A20203230005A204F6666736574F5
:1005700020004E6F2063617365206C696768740AA0
:10058000003C3C3C2067636F64655F540A00203A7E
:100590002041465445520A00202063757272656EF0
:1005A000745F706F736974696F6E3D00203A20420A
:1005B00045464F52450A00202063757272656E747D
:1005C0005F706F736974696F6E3D003E3E3E2067D9
:1005D000636F64655F542800556E6B6E6F776E2095
:1005E000636F6D6D616E643A2022004B494C4C453F
:1005F000442E20002C20002C2000203A2073796EFD
:10060000635F706C616E5F706F736974696F6E0A9F
:1006100000202063757272656E745F706F73697409
:10062000696F6E3D00656E7175657565696E6720F1
:1006300022004E6F204C696E65204E756D626572AA
:10064000207769746820636865636B73756D2C200F
:100650004C617374204C696E653A20005072696E6B
:100660007465722073746F707065642064756520A2
:10067000746F206572726F72732E204669782074D1
:100680006865206572726F7220616E642075736593
:10069000204D39393920746F20726573746172741A
:1006A0002E202854656D70657261747572652069BD
:1006B000732072657365742E2053657420697420ED
:1006C00061667465722072657374617274696E67B5
:1006D000290A004E6F20436865636B73756D207740
:1006E000697468206C696E65206E756D6265722C28
:1006F000204C617374204C696E653A200063686514
:10070000636B73756D206D69736D617463682C2004
:100710004C617374204C696E653A20004C696E65BB
:10072000204E756D626572206973206E6F74204C67
:10073000617374204C696E65204E756D6265722B15
:10074000312C204C617374204C696E653A20004D49
:100750003131300020496E76616C696420657874AF
:100760007275646572200000000000000000000047
:100770000040C00000524300808943000052430AF9
:1007800020736F66745F656E6473746F705F6D6104
:1007900078203D20000A20736F66745F656E647375
:1007A000746F705F6D696E203D20000A20706F735A
:1007B0006974696F6E5F7368696674203D200020FC
:1007C000617869733A0A20686F6D655F6F6666735A
:1007D0006574203D2000466F7220003C3C3C206444
:1007E0006F5F626C6F636B696E675F6D6F76655F7D
:1007F000746F0A003E3E3E20646F5F626C6F636BF5
:10080000696E675F6D6F76655F746F00203A207365
:10081000657475705F666F725F656E6473746F7018
:100820005F6F725F70726F62655F6D6F76650A00F1
:10083000202063757272656E745F706F736974697E
:100840006F6E3D00203A20636C65616E5F75705F6E
:1008500061667465725F656E6473746F705F6F72EA
:100860005F70726F62655F6D6F76650A002020634E
:10087000757272656E745F706F736974696F6E3DC7
:10088000006465706C6F793A2000203A20736574BB
:100890005F70726F62655F6465706C6F7965640A22
:1008A00000202063757272656E745F706F73697477
:1008B000696F6E3D0072657365745F6265645F6C3D
:1008C0006576656C0A002028646F6E65290A00450C
:1008D00078747261706F6C617465205B0042696C42
:1008E000696E656172204C6576656C696E6720473C
:1008F0007269643A0A005375626469766964656472
:100900002077697468204341544D554C4C20524F18
:100910004D204C6576656C696E6720477269643A54
:100920000A003C3C3C20646F5F686F6D696E675FD6
:100930006D6F766528002C20002C20003E3E3E2066
:10094000646F5F686F6D696E675F6D6F76652800B5
:1009500020746F6F206C6F6E67206578747275738A
:10096000696F6E2070726576656E7465640A00202A
:10097000636F6C6420657874727573696F6E207034
:10098000726576656E7465640A00627573793A20E3
:1009900070617573656420666F7220696E7075741E
:1009A0000A00627573793A20706175736564206618
:1009B0006F7220757365720A00627573793A2070E0
:1009C000726F63657373696E670A00005EBCE261F3
:1009D0003FDD83C29C7E20A3FD1F41009D23BE46B8
:1009E000DB65F88C11AF32CA57E9744B494C4C4562
:1009F000442E20004B494C4C206361757365642084
:100A0000627920746F6F206D75636820696E616311
:100A1000746976652074696D65202D206375727226
:100A2000656E7420636F6D6D616E643A2000507264
:100A3000696E7465722068616C7465642E206B69E0
:100A40006C6C28292063616C6C6564210A000000CD
:100A5000000000000000000000003C3C3C207365EA
:100A6000745F617869735F69735F61745F686F6DEC
:100A7000652800203A200A00202063757272656E96
:100A8000745F706F736974696F6E3D005D203D2007
:100A9000003E20686F6D655F6F66667365745B000E
:100AA0003E207A70726F62655F7A6F6666736574F6
:100AB000203D20002A2A2A205A20484F4D45442014
:100AC000574954482050524F424520285A5F4D49BB
:100AD0004E5F50524F42455F555345535F5A5F4DED
:100AE000494E5F454E4453544F505F50494E292064
:100AF0002A2A2A0A003E3E3E207365745F617869A7
:100B0000735F69735F61745F686F6D6528000000D3
:100B100020420000204200002041000000005761F8
:100B2000726E696E673A20486F6D696E6720427514
:100B30006D702044697669736F72203C20310A0021
:100B40000202040000524300808943000055433CE8
:100B50003C3C20686F6D65617869732800203A20FD
:100B60003E204146544552207365745F6178697335
:100B70005F69735F61745F686F6D650A0020206351
:100B8000757272656E745F706F736974696F6E3DB4
:100B900000486F6D65203220536C6F773A0A004D24
:100BA0006F766520417761793A0A00486F6D65205C
:100BB0003120466173743A0A00FFFFFF3E3E3E203B
:100BC000686F6D6561786973280020746F6F206CA1
:100BD0006F6E6720657874727573696F6E207072BE
:100BE0006576656E7465640A0020636F6C642065C9
:100BF0007874727573696F6E2070726576656E7445
:100C000065640A0024F4D43050C38E20C2A2401779
:100C1000828B7011127A910D816CD90AA861E1085A
:100C2000C7586607615143061E4B5D05C145A704C1
:100C30001A411104093D9803713931034036DB0232
:100C400065339102D4305402802E1D02632CEE01D4
:100C5000752AC501B028A001102781018F256401E4
:100C60002B244B01E0223401AC211F018D200D010A
:100C7000801FFC00841EED00971DDF00B81CD20011
:100C8000E61BC600201BBC00641AB200B219A80003
:100C90000A19A0006A189900D117910040178B001B
:100CA000B516840031167E00B31579003A1573002D
:100CB000C7146F0058146A00EE13660088136300AF
:100CC00025135E00C7125B006C125700151254000A
:100CD000C111510070114F0021114B00D610490075
:100CE0008D1047004610440002104200C00F400023
:100CF000800F3E00420F3C00060F3B00CB0E380039
:100D0000930E37005C0E3500270E3400F30D3200D1
:100D1000C10D3100900D3000600D2E00320D2D0000
:100D2000050D2C00D90C2B00AE0C2900850C2900D8
:100D30005C0C2700350C27000E0C2600E80B240065
:100D4000C40B2400A00B23007D0B23005A0B2100B1
:100D5000390B2100180B2000F80A1F00D90A1E00C9
:100D6000BB0A1E009D0A1D00800A1D00630A1C00AC
:100D7000470A1B002C0A1B00110A1A00F7091A0067
:100D8000DD091900C4091900AB09190092091700FF
:100D90007B091800630917004C0916003609160074
:100DA000200916000A091500F5081500E0081400CE
:100DB000CC081400B8081400A4081400900813000C
:100DC0007D0812006B081300580812004608120034
:100DD0003408110023081100120811000108110045
:100DE000F0071000E0071000D0071000C007100047
:100DF000B0070F00A107100091070E0083070F0036
:100E000074070F0065070E0057070E0049070E0014
:100E10003B070D002E070E0020070D0013070D00E5
:100E200006070D00F9060C00ED060D00E0060C00AB
:100E3000D4060C00C8060C00BC060C00B0060C0062
:100E4000A4060B0099060C008D060B0082060B0011
:100E500077060B006C060B0061060A0057060B00B4
:100E60004C060A0042060A0038060A002E060A004E
:100E700024060A001A060A001006090007060A00DE
:100E8000FD050900F4050900EB050900E20509006C
:100E9000D9050900D0050900C7050900BE050900EC
:100EA000B5050800AD050800A50509009C0508006A
:100EB000940508008C050800840508007C050800DE
:100EC000740508006C050700650508005D0507004E
:100ED000560508004E0507004705070040050800B5
:100EE00038050700310507002A050700230507001C
:100EF0001C050600160507000F050700080506007B
:100F000002050700FB040600F5040700EE040600D6
:100F1000E8040600E2040700DB040600D50406002E
:100F2000CF040600C9040600C3040600BD04060081
:100F3000B7040600B1040500AC040600A6040600D0
:100F4000A00405009B04060095040500900406001B
:100F50008A04050085040500800406007A04050063
:100F600075040500700405006B04050066040500A7
:100F7000610405005C0405005704050052040500E7
:100F80004D04050048040500430405003E04040028
:100F90003A04050035040500300404002C04050063
:100FA00027040400230405001E0404001A0404009E
:100FB00016040500110404000D04040009040500D2
:100FC0000404040000040400FC030400F80304000B
:100FD000F4030400F0030400EC030400E80304003D
:100FE000E4030400E0030400DC030400D80304006D
:100FF000D4030400D0030400CC030400C80303009E
:10100000C503030024F404D9201BC40C5C0E98040F
:10101000C4095F0265077101F405F900FB04B30020
:1010200048048700C10369005803550003034500C5
:10103000BE023A008402310053022A002902250030
:1010400004022000E4011C00C8011900AF011700D0
:101050009801140084011300710110006101100057
:1010600051010E0043010D0036010B002B010B0056
:1010700020010B00150109000C0109000301080003
:10108000FB000800F3000800EB000700E400060086
:10109000DE000600D8000600D2000600CC000500E5
:1010A000C7000500C2000500BD000400B90004002F
:1010B000B5000400B1000400AD000400A900040064
:1010C000A5000300A20003009F0004009B00030092
:1010D00098000300950002009300030090000300B5
:1010E0008D0002008B0003008800020086000200D1
:1010F00084000300810002007F0002007D000200E6
:101100007B000200790002007700010076000200F7
:101110007400020072000100710002006F00020002
:101120006D0001006C0002006A000100690002000D
:101130006700010066000100650001006400020014
:101140006200010061000100600001005F00020018
:101150005D0001005C0001005B0001005A0001001D
:10116000590001005800010057000100560001001D
:10117000550001005400010053000000530001001D
:101180005200010051000100500001004F00010019
:101190004E0000004E0001004D0001004C00010017
:1011A0004B0000004B0001004A0001004900010013
:1011B0004800000048000100470001004600000010
:1011C0004600010045000000450001004400010008
:1011D0004300000043000100420000004200010003
:1011E0004100000041000100400001003F000000FC
:1011F0003F0001003E0000003E0001003D000000F5
:101200003D0001003C0000003C0000003C000100EB
:101210003B0000003B0001003A0000003A000100E2
:1012200039000000390001003800000038000000DB
:1012300038000100370000003700010036000000D0
:1012400036000000360001003500000035000000C7
:1012500035000100340000003400000034000100BB
:1012600033000000330000003300010032000000B2
:1012700032000000320001003100000031000000A7
:10128000310001003000000030000000300001009B
:101290002F0000002F0000002F0000002F00010091
:1012A0002E0000002E0000002E0001002D00000086
:1012B0002D0000002D0000002D0001002C0000007A
:1012C0002C0000002C0000002C0001002B0000006E
:1012D0002B0000002B0000002B0001002A00000062
:1012E0002A0000002A0000002A0001002900000056
:1012F0002900000029000000290000002900010049
:10130000280000002800000028000000280000003D
:10131000280001002700000027000000270000002F
:101320002700000027000100260000002600000022
:101330002600000026000000260001002500000015
:101340002500000025000000250000002500000009
:1013500025000100240000002400000024000000FB
:1013600024000000240001002300000023000000EE
:1013700023000000230000002300000023000000E1
:1013800023000100220000002200000022000000D3
:1013900022000000220000002200010021000000C5
:1013A00021000000210000002100000021000000B9
:1013B00021000000210001002000000020000000AA
:1013C000200000002000000020000000200000009D
:1013D00020000000200001001F0000001F0000008E
:1013E0001F0000001F0000001F0000001F00000081
:1013F0001F0001001E0000001E0000001E00000073
:101400001E0000006265640A002C20737973746505
:101410006D2073746F707065642120486561746518
:10142000725F49443A200048656174696E672066BE
:1014300061696C65640048656174696E6720666106
:10144000696C65640048656174696E6720666169EE
:101450006C65640048656174696E67206661696CDB
:10146000656400202F002040002042403A002040C8
:101470003A006F6B004D313133205300205A3A004F
:1014800020423A0020436F756E7420413A00204597
:101490003A00205A3A0020593A00583A0043617005
:1014A0003A454D455247454E43595F504152534589
:1014B000523A310A004361703A434153455F4C4907
:1014C0004748545F4252494748544E4553533A3077
:1014D0000A004361703A544F47474C455F4C4947B7
:1014E0004854533A300A004361703A534F465457B8
:1014F0004152455F504F5745523A300A00436170A0
:101500003A4C4556454C494E475F444154413A3167
:101510000A004361703A5A5F50524F42453A310ACD
:10152000004361703A4155544F4C4556454C3A3151
:101530000A004361703A5052494E545F4A4F423A52
:10154000310A004361703A50524F47524553533A63
:10155000300A004361703A4155544F5245504F5242
:10156000545F54454D503A310A004361703A454545
:1015700050524F4D3A310A004649524D574152455B
:101580005F4E414D453A4D61726C696E20312E318E
:101590002E342E362E36202847697468756229202D
:1015A000534F555243455F434F44455F55524C3A64
:1015B00068747470733A2F2F6769746875622E634C
:1015C0006F6D2F4D61726C696E4669726D776172D5
:1015D000652F4D61726C696E2050524F544F434FCE
:1015E0004C5F56455253494F4E3A312E30204D41B3
:1015F0004348494E455F545950453A334420507250
:10160000696E7465722045585452554445525F4383
:101610004F554E543A3220555549443A63656465F6
:10162000326132662D343161322D343734382D3900
:101630006231322D6335356336326633363766664E
:101640000A002F2F20004B64200023646566696E1A
:1016500065202044454641554C545F004B692000AD
:1016600023646566696E65202044454641554C54A7
:101670005F004B70200023646566696E652020441E
:10168000454641554C545F00504944204175746FA4
:1016900074756E652066696E697368656421205093
:1016A000757420746865206C617374204B702C20F5
:1016B0004B6920616E64204B6420636F6E737461AC
:1016C0006E74732066726F6D2062656C6F7720692F
:1016D0006E746F20436F6E66696775726174696FAF
:1016E0006E2E680A00504944204175746F74756EFF
:1016F00065206661696C6564212074696D656F752C
:10170000740A00504944204175746F74756E6520E9
:101710006661696C6564212054656D7065726174E1
:1017200075726520746F6F20686967680A00204BC6
:10173000643A2000204B693A2000204B703A200088
:101740000A20436C617373696320504944200A0086
:10175000543A2000413A20002054753A2000204B92
:10176000753A2000206D61783A2000206D696E3A4C
:10177000200020643A200020626961733A200070E2
:10178000012C0190012701B0012201C0011D01F0CF
:101790000118011002130130020E016002090190CC
:1017A000020401C002FF000003FA004003F50080BC
:1017B00003F000D003EB002004E6007004E100E039
:1017C00004DC004005D700C005D2004006CD00D0A3
:1017D00006C8008007C3003008BE00F008B900C08A
:1017E00009B400B00AAF00B00BAA00D00CA50000ED
:1017F0000EA000500F9B00C01096005012910000E8
:10180000148C00C0158700B0178200B0197D00D07D
:101810001B7800001E730040206E0090226900F0CB
:1018200024640040275F0090295A00E02B550010E7
:101830002E500020304B0010324600E03341009023
:10184000353C001037370070383200A0392D00B019
:101850003A2800A03B2300603C1E00103D19009078
:101860003D1400103E0F00703E0A00C03E0500000F
:101870003F0000403FFBFF803FF6FFC03FF1FF45C8
:1018800072723A204D494E54454D50204245440015
:101890004572723A204D494E54454D50004D494EC7
:1018A00054454D50207472696767657265640045E0
:1018B00072723A204D415854454D502042454400E3
:1018C0004572723A204D415854454D50004D415893
:1018D00054454D50207472696767657265640000F5
:1018E000002100240027002A002D003000330001D1
:1018F000010000040107010A010000220025002860
:10190000002B002E00310034000201000005010808
:10191000010B0100000A0B02090C0D0E080703045D
:1019200001000000000000000000000000000000B6
:101930000000000000000000000000000000001295
:101940001110000000000000000000000000000076
:10195000000000000000000000290A0020627974E5
:1019600065733B20637263200053657474696E670E
:10197000732053746F726564202800202863616CA3
:1019800063756C6174656429210A0020213D200083
:10199000454550524F4D20435243206D69736D6150
:1019A000746368202D202873746F72656429200089
:1019B000290A002062797465733B206372632000FA
:1019C0002073746F7265642073657474696E6773D5
:1019D00020726574726965766564202800204D6107
:1019E000726C696E3D563339290A002845455052BC
:1019F0004F4D3D00454550524F4D207665727369FD
:101A00006F6E206D69736D6174636820004B494C83
:101A10004C45442E2000202D20496E76616C69646F
:101A2000206578747275646572206E756D6265727A
:101A300020210A004572726F723A000000200023D4
:101A400000260029002C002F0032000001000003B6
:101A50000106010901050505050705080808080232
:101A60000202020A0A080804040404010101010137
:101A70000101010303030303030303040707070C26
:101A80000C0C0C0C0C0C0C020202020606060606DC
:101A90000606060B0B0B0B0B0B0B0B010210202089
:101AA00008081020401020408002010201080402B2
:101AB0000101020408102040808040201008040228
:101AC0000180040201804020100804020108040281
:101AD0000101020408102040800102040810204087
:101AE000802020506C616E6E65724275666665720C
:101AF00042797465733A20002046726565204D6511
:101B00006D6F72793A2000436F6D70696C65643A4D
:101B10002053657020323720323031390A00207C62
:101B200020417574686F723A20286E6F6E652C20A4
:101B300064656661756C7420636F6E666967290AF7
:101B400000323031372D30372D30342031323A30B9
:101B50003000204C61737420557064617465643A80
:101B60002000312E312E342E362E360A004D617271
:101B70006C696E0020536F667477617265205265E0
:101B80007365740A00205761746368646F6720523C
:101B9000657365740A002042726F776E206F7574EA
:101BA0002052657365740A002045787465726E6111
:101BB0006C2052657365740A00506F7765725570BA
:101BC0000A0073746172740A00205A3A0020593A6C
:101BD0000020583A00656E6473746F7073206869F2
:101BE000743A200047322F473320626164207061CD
:101BF00072616D65746572730A0041424C204164E4
:101C00006A7573746D656E74205A002028656E6164
:101C1000626C6564290A00202864697361626C65DE
:101C200064290A0042494C494E45415200417574AD
:101C30006F20426564204C6576656C696E673A205A
:101C400000204E6F7A7A6C65290A002026204162B6
:101C50006F76650020262053616D65205A206173E0
:101C60000020262042656C6F77002D4261636B0077
:101C70002028526967687400205A3A0020593A00B7
:101C800050726F6265204F666673657420583A0023
:101C90004649585F4D4F554E5445445F50524F4250
:101CA000450A0050726F62653A2000436F72650A00
:101CB000004D616368696E6520547970653A200053
:101CC00020706F736974696F6E206F7574206F6612
:101CD0002072616E67652E0A003F50726F62652048
:101CE000003C3C3C2067636F64655F4732390A0003
:101CF00020636F72726563746564205A3A004732DC
:101D00003920756E636F72726563746564205A3A28
:101D100000203A203E2070726F62696E6720636F08
:101D20006D706C6574650A00202063757272656E53
:101D3000745F706F736974696F6E3D0052756E6E7B
:101D4000696E6720696E204452592D52554E206DA0
:101D50006F64650A00473239204175746F2042650F
:101D600064204C6576656C696E670A0028422961BB
:101D7000636B00284629726F6E74002852296967C8
:101D8000687400284C29656674003F2856296572DE
:101D9000626F7365206C6576656C20697320696D70
:101DA000706C61757369626C652028302D34292E42
:101DB0000A00426164205A2076616C75650A004E03
:101DC0006F2062696C696E65617220677269640A6E
:101DD00000203A203E3E3E2067636F64655F4732D5
:101DE000390A00202063757272656E745F706F73BC
:101DF0006974696F6E3D002569730025696D202542
:101E00006973002569682025696D2025697300259F
:101E10006964202569682025696D2025697300257E
:101E2000697920256964202569682025696D202548
:101E30006973005072696E742074696D653A200090
:101E400050726F7465637465642050696E0A005344
:101E500074616E6461726420446576696174696F4F
:101E60006E3A20002052616E67653A2000204D6175
:101E7000783A2000204D696E3A20004D65616E3A37
:101E8000200046696E697368656421002072616E86
:101E900067653A2000206D61783A2000206D696EF8
:101EA0003A2000207369676D613A2000206D6561FA
:101EB0006E3A20003A207A3A2000206F66200020F7
:101EC0005A00205900205800476F696E6720746FD0
:101ED0003A00436C6F636B776973650A00436F75F3
:101EE0006E7465722D0020446972656374696F6E4B
:101EF0003A2000202020616E676C653A2000537400
:101F0000617274696E67207261646975733A20004A
:101F1000506F736974696F6E696E672074686520AD
:101F200070726F62652E2E2E0A003F4E756D6265CF
:101F300072206F66206C65677320696E206D6F7606
:101F4000656D656E74206E6F7420706C6175736959
:101F5000626C652028302D3135292E0A0059005831
:101F6000003F53616D706C652073697A65206E6FF8
:101F70007420706C61757369626C652028342D352E
:101F800030292E0A004D3438205A2D50726F626568
:101F9000205265706561746162696C69747920545E
:101FA0006573740A003F2856296572626F73652055
:101FB0006C6576656C20697320696D706C617573F2
:101FC00069626C652028302D34292E0A0041637423
:101FD0006976652045787472756465723A200020D0
:101FE0003A204D6F7665206261636B0A00202064A1
:101FF000657374696E6174696F6E3D00203A205399
:10200000796E6320416674657220546F6F6C6368EB
:10201000616E67650A00202063757272656E745F79
:10202000706F736974696F6E3D00207D0A002C200B
:10203000004F666673657420546F6F6C205859208A
:102040006279207B20004E6F206D6F7665206F6E69
:1020500020746F6F6C6368616E67650A0045727209
:102060006F722077726974696E6720746F204545BE
:1020700050524F4D210A0048617264636F64656479
:102080002044656661756C742053657474696E676D
:1020900073204C6F616465640A00DC050000DC0598
:1020A000000032000000DC05000000007A4400005F
:1020B0007A44000048420000C8420000A0420000EC
:1020C000A0420000484400004C4320204D383531E8
:1020D000205A005A2D50726F6265204F66667365F4
:1020E0007420286D6D293A0A002044002049002000
:1020F000204D33303420500020440020490020205F
:102100004D3330312045312050002044002049001B
:1021100020204D3330312045302050002044002015
:10212000490020500020204D3330312045005049D7
:10213000442073657474696E67733A0A00205A000C
:1021400020204D3432302053004175746F20426599
:1021500064204C6576656C696E673A0A0020590008
:1021600020580020204D323138205400486F7465CB
:102170006E64206F6666736574733A0A00205A00B5
:1021800020590020204D323036205800486F6D65B0
:10219000206F66667365743A0A00204500205A0075
:1021A00020590020580020420020540020204D32A9
:1021B0003035205300416476616E6365643A205384
:1021C0003C6D696E5F66656564726174653E20543E
:1021D0003C6D696E5F74726176656C5F666565649F
:1021E000726174653E20423C6D696E5F7365676D18
:1021F000656E745F74696D655F6D733E20583C6DEC
:1022000061785F78795F6A65726B3E205A3C6D61D8
:10221000785F7A5F6A65726B3E20453C6D61785FDE
:10222000655F6A65726B3E0A0020540020520020F0
:10223000204D323034205000416363656C6572611B
:1022400074696F6E2028756E6974732F7332293A22
:1022500020503C7072696E745F616363656C3E20F0
:10226000523C726574726163745F616363656C3E56
:1022700020543C74726176656C5F616363656C3E8B
:102280000A00204500205A0020590020204D3230FD
:10229000312058004D6178696D756D20416363652B
:1022A0006C65726174696F6E2028756E6974732F26
:1022B0007332293A0A00204500205A002059002094
:1022C000204D3230332058004D6178696D756D2096
:1022D0006665656472617465732028756E697473D0
:1022E0002F73293A0A00204500205A002059002067
:1022F000204D393220580053746570732070657218
:1023000020756E69743A0A0020204D323030204426
:10231000300A0020204D323030205431204400203B
:10232000204D3230302044002044697361626C6576
:10233000640A0046696C616D656E7420736574741F
:10234000696E67733A002020473231202020203BFD
:1023500020556E69747320696E206D6D0A00203AF5
:10236000203C3C3C20646F5F70726F62655F6D6FF4
:1023700076650A00202063757272656E745F706FF7
:10238000736974696F6E3D00203A203E3E3E2064C2
:102390006F5F70726F62655F6D6F76650A002020F7
:1023A00063757272656E745F706F736974696F6E56
:1023B0003D00646F5F70726F62655F726169736523
:1023C00028002066697273740A005A005900580088
:1023D000486F6D6520006563686F3A005448455248
:1023E0004D414C2052554E41574159005468657239
:1023F0006D616C2052756E61776179000000A040BC
:102400000000A040000000402044697363726570C2
:10241000616E63793A00326E642050726F6265209B
:102420005A3A00203A203C3C3C2072756E5F7A5F3D
:1024300070726F62650A00202063757272656E7437
:102440005F706F736974696F6E3D003173742050F3
:10245000726F6265205A3A00203A203E3E3E20725A
:10246000756E5F7A5F70726F62650A002020637517
:102470007272656E745F706F736974696F6E3D0020
:102480003C3C3C2070726F62655F70740A00205A99
:102490003A200020593A200042656420583A200032
:1024A000203A200A00202063757272656E745F7096
:1024B0006F736974696F6E3D0073746F77290A00DA
:1024C0002C20002C20003E3E3E2070726F62655F23
:1024D00070742800526573656E643A20006F6B005B
:1024E000CFBD11241FBECFEFD1E2DEBFCDBF00E0D4
:1024F0000CBF15E0A0E0B2E0E8E5F7E901E00BBFB2
:1025000002C007900D92A430B107D9F723E1A4E0EF
:10251000B5E001C01D92A839B207E1F712E1C1E7A9
:10252000D2E100E006C021970109802FFE010E9440
:1025300082CBC037D10780E00807A9F70E9421B9F4
:102540000C94AACB0C9400002F923F924F925F9272
:102550006F927F928F929F92AF92BF92CF92DF92B3
:10256000EF92FF920F931F93CF93DF93CDB7DEB718
:102570006B970FB6F894DEBF0FBECDBF00914A0E29
:1025800020E6029F80011124055D1A4F80912E0FD5
:1025900080FF1AC0E6EDF3E284917F013FEFE31A7A
:1025A000F30A811102C0780104C00E948530F7014E
:1025B000F3CFD7018D917D01882319F00E948530DA
:1025C000F8CF8AE00E94853081E090E09093400748
:1025D00080933F0710922405109223058FE3809388
:1025E000B6061092B5061092B40610921E0510920F
:1025F0001F051092200510922105F80180810F5FC0
:102600001F4F8032D1F38E34B1F4818190ED980F59
:102610009A3020F08D3211F08B3269F43296DF015E
:1026200031962C9120532A30D0F3CD01FC01019634
:1026300020812032D9F3F0934707E09346077F01CA
:10264000BFEFEB1AFB0A10816AE270E0C7010E943B
:102650008ACB009731F0FC01319780818032E1F321
:1026600011821D3429F0143519F0173409F0CCC04B
:10267000F70180812FEFE21AF20A8032C9F380530A
:102680008A3008F0C1C01093B6062091B40630918C
:10269000B5064AE03196429FC001439F900D112438
:1026A000DF0111972C91022E000C330B20533109BE
:1026B000280F391F808180538A3060F33093B5062C
:1026C0002093B406CF013196DC014C914032D1F316
:1026D0001D34D1F42E31310591F03CF42731310510
:1026E00071F02C31310581F40AC02537310564F0D1
:1026F0002737310524F0203AE3E03E0729F4909390
:1027000024058093230580C0109224051092230590
:102710000091460761E070E0FD0131968C918823BD
:1027200009F472C08132A1F41D3491F420323105D4
:1027300079F4F0932405E093230563E270E0CF0180
:102740000E948ACB009709F45FC0DC011C925CC038
:102750009FEBD92ED80E49E1842E8D14C0F1AF0124
:10276000FA0190814F5F5F4F9032D1F340ED490FF6
:102770004A3040F043ED490F423020F09B3211F0D7
:102780000C94F526AF01AD2CB12C7501A3E0F594A6
:10279000E794AA95E1F7C701825E9A4F7C018D2DDF
:1027A0008770DB0102C0AA0FBB1F8A95E2F7CD013B
:1027B000D7019C91892B8C934115510511F0401B39
:1027C00001C040E0D501AC5FBA4F4C930AC0809184
:1027D000230590912405892B21F4B0932405A0931F
:1027E0002305808181548A3110F4DF0195CFDF0108
:1027F00031969C9190539A30D0F3CD01FC01019613
:1028000040814032D9F3F1CF8091B6068D3409F47E
:1028100008C4843511F40C948125873411F00C948C
:10282000D4262091B4063091B5062C31310509F437
:1028300084C07CF4243031053CF422303105BCF5F1
:1028400037FF29C00C94EE2624303105C9F10C94D1
:10285000EE262A32310509F4F7C254F42D31310540
:1028600009F46EC12E31310509F470C10C94EE26C5
:102870002B35310509F4F2C12C35310509F4F5C1C8
:102880002A35310511F00C94EE2610922A0510928B
:10289000FD0F0C94EE2680912902882311F40C94EC
:1028A000EE260E94DD2F0E94E3400C94EE2681E08C
:1028B0002230310509F080E00E945C890C94EE26FC
:1028C00080E50E94D12F882329F00E942F2F6B01D1
:1028D0007C0103C0C12CD12C760183E50E94D12F4D
:1028E000882361F00E946F2F20E030E04AE754E433
:1028F0000E9482C40E94D0C96B017C010E94855F46
:102900000E947A308091580E9091590EA0915A0EE3
:10291000B0915B0EC80ED91EEA1EFB1E0E94E67126
:10292000DC01CB018C199D09AE09BF09B7FD02C0BE
:102930000C94EE260E94C93BF1CF0E942F99809102
:102940002E0F85FF0EC0E2ECF2E084918F010F5F45
:102950001F4F882321F00E948530F801F6CF0E9496
:102960008E810E94855F80E00E94702ED090321090
:1029700021E040E050E0BA0180E00E949C9B0E9470
:102980005E3780912E0F85FF0CC0E9EAF2E084915A
:102990008F010F5F1F4F882321F00E948530F801BF
:1029A000F6CF11E010935C0288E50E94A22FF82E6A
:1029B00089E50E94A22F082F8AE50E94A22FE82E07
:1029C000F11004C0011104C0182705C0011102C094
:1029D00010E001C0182F0E94AC2E111105C0F1109B
:1029E00003C0002309F475C020E030E040EA50E461
:1029F00060912A0F70912B0F80912C0F90912D0FC9
:102A00000E9487C84B015C016093640E7093650E51
:102A10008093660E9093670E2091160F3091170FDA
:102A20004091180F5091190F0E94ADCA1816E4F486
:102A300080912E0F85FF09C0B501A4018DE892E0B9
:102A40000E941F498AE00E94853019821A821B82E7
:102A50001C829E012F5F3F4F44E65EE062E17FE013
:102A60008EE09FE00E949F35111104C0FF2049F0C5
:102A70000023E9F00E946188111105C0011103C013
:102A800014C0002331F181E090E00E9493398091DD
:102A90002E0F85FF08C04EE05FE06DE672E089E72B
:102AA00092E00E94C236111102C0FF2091F080E036
:102AB00090E00E94933980912E0F85FF08C04EE070
:102AC0005FE06DE472E089E592E00E94C236111188
:102AD00002C0EE2081F082E090E00E949339809164
:102AE0002E0F85FF08C04EE05FE067E172E089E3EA
:102AF00092E00E94C2360E94883780918F0E8093A8
:102B00005C020E943A3721E040E050E0BA018D2D8E
:102B10000E94D2660E94C96780912E0F85FD02C077
:102B20000C94EE26E8E0F2E084918F010F5F1F4FD6
:102B3000882311F40C94EE260E948530F801F4CF1E
:102B40000E9479821092C9100C94EE26C0900E0F4C
:102B5000D0900F0FE090100FF090110F88E50E94B9
:102B6000D12F811109C020E030E040EA51E4C701D3
:102B7000B6010E9487C802C00E946F2F6D837E83BA
:102B80008F839887C090120FD090130FE090140F8E
:102B9000F090150F89E50E94D12F811109C020E026
:102BA00030E040E052E4C701B6010E9487C802C08D
:102BB0000E946F2F6B017C0169837A838B839C83D6
:102BC0004090260F5090270F6090280F7090290F8B
:102BD0002091220F3091230F4091240F5091250F07
:102BE0006D817E818F8198850E9486C84B015C0132
:102BF00024EF3DEF4FE951E40E94ADCA87FF02C0C8
:102C00000C94EE2622E430E042E553E4C501B40121
:102C10000E941DC4181614F40C94EE26A301920110
:102C2000C701B6010E9486C86B017C0124EF3DEF0D
:102C30004FEF51E40E94ADCA87FF02C00C94EE260C
:102C400021E230E849E853E4C701B6010E941DC4FF
:102C5000181614F40C94EE260C94062781E0809349
:102C60002A058093FD0F0C94EE2685E40E94D12F57
:102C7000898781110C945B270E94855FE9EBF2E064
:102C8000FF87EE877CE4272E7EE0372EEEE0AE2E27
:102C9000EFE0BE2E00E010E01A86AE85BF858D9174
:102CA000BF87AE870E94D12F882309F47FC0D5014A
:102CB0002D913D914D915C91288B398B4A8B5B8B8B
:102CC0000E946F2F6B017C010330110509F04BC08E
:102CD00080903210282D30E0F901E85FFF4E8081AE
:102CE000823069F4C901880F991F880F991FFC0170
:102CF000E555F94F108211821282138234C081305F
:102D000091F54901880C991C880C991CF401E55532
:102D1000F94F408051806280738020E030E0A9014B
:102D2000C301B2010E941DC48823E9F020E030E015
:102D3000A901C701B6010E941DC4811114C073010D
:102D40006201F7FAF094F7F8F094F401EE5EFF4EAA
:102D5000C082D182E282F382F401E65DFF4EC0823E
:102D6000D182E282F382F501C082D182E282F382D3
:102D700003301105D9F0288939894A895B89C7014F
:102D8000B6010E9486C89B01AC01D1016D917D9175
:102D90008D919C910E9487C8F10160837183828329
:102DA0009383C8010E94D030F1E0FA870F5F1F4F74
:102DB00024E0220E311C34E0A30EB11C04301105B6
:102DC00009F06BCF8A84882019F00E94883738C0B8
:102DD00099849920A9F1C0901A0FD0901B0FE09010
:102DE0001C0FF0901D0F2091F9073091FA074091C8
:102DF000FB075091FC07C701B6010E9482C40E94E4
:102E0000B8CA6093520F7093530F8093540F9093EE
:102E1000550FC701B6010E94CBC92FB7F894609334
:102E20002F0D7093300D8093310D9093320D2FBF85
:102E30001092420F1092430F1092440F1092450FC0
:102E40000E94C9670C94EE2680912902882311F410
:102E50000C94EE2689E40E94D12F182F882321F0AC
:102E60000E943F2FF62E01C0F12C8AE40E94D12F40
:102E7000082F882331F00E943F2FE62E111104C045
:102E80000CC0E12C1123D1F044E0A42EAF1410F0BB
:102E90000C94952AE3EEF2E005C034E0B32EBE14A4
:102EA000C8F30CC084918F010F5F1F4F882311F46A
:102EB0000C94EE260E948530F801F4CF0E94AC2ECF
:102EC000112341F12091050E3091060E4F2D420342
:102ED000B001439F700D11248091010E9091020E5C
:102EE000680F791F072E000C880B990B0E9423C4D2
:102EF0002091220F3091230F4091240F5091250FE4
:102F00000E9487C860935C0E70935D0E80935E0E86
:102F100090935F0E002341F12091070E3091080E2F
:102F20005E2D5203B001539F700D11242091030EAA
:102F30003091040E620F731F072E000C880B990B43
:102F40000E9423C42091260F3091270F4091280F13
:102F50005091290F0E9487C86093600E7093610E94
:102F60008093620E9093630E80E50E94A22F8823C7
:102F7000A1F10E94602F882381F11123B1F020E09C
:102F800030E040EA51E460915C0E70915D0E8091FA
:102F90005E0E90915F0E0E9486C860935C0E7093E7
:102FA0005D0E80935E0E90935F0E0023B1F020E0E3
:102FB00030E040E052E46091600E7091610E8091CB
:102FC000620E9091630E0E9486C86093600E7093AB
:102FD000610E8093620E9093630E86E40E94D12F5F
:102FE0008823D9F00E946F2F6B017C0120E030E034
:102FF000A9010E94ADCA181684F420E030E040E731
:1030000052E4C701B6010E9463C9609395027093B0
:10301000960280939702909398020E94E3400C944A
:10302000EE268091B4069091B5068737910509F494
:1030300050C50CF0ADC08035910509F4BEC30CF04D
:1030400048C08933910509F4B9C22CF58231910544
:1030500009F42DC584F497FF02C00C94EE2682304B
:1030600091050CF457C1419711F00C94EE260E9483
:1030700055400C94EE268A32910509F4D0C1803374
:10308000910509F4D0C14F9711F00C94EE260E94DF
:10309000B6940C94EE268D33910509F4C8C14CF416
:1030A0008B33910509F41CC20CF016C202E113E047
:1030B0001BC28F33910509F40BC20CF405C2803496
:1030C000910509F41AC38134910509F4D5C20C9411
:1030D000EE268A36910509F4B0C474F5843591055D
:1030E00009F4E5C454F48235910509F4D7C40CF011
:1030F000D9C40E9496690C94EE268C35910509F48A
:10310000DAC44CF48535910511F00C94EE260E943A
:1031100026690C94EE268836910509F4F9C38936A0
:10312000910511F00C94EE260E94846F10924007D6
:1031300010923F070C94C22A8F36910509F4FFC301
:1031400064F48D36910509F447C40CF0E5C38B3661
:10315000910509F491C40C94EE268237910509F487
:10316000AEC44CF48137910511F00C94EE260E9408
:10317000D2690C94EE268337910509F4A6C48637EC
:10318000910511F00C94EE260E9407670C94EE2630
:103190008831A1E09A0709F4E1C70CF04DC08B3CDF
:1031A000910509F493C514F58B39910509F410C400
:1031B0007CF48937910509F4F9C40CF4F0C48C3817
:1031C000910511F00C94EE260E94B9690C94EE263C
:1031D000883C910509F4F0C4893C910509F453C574
:1031E0008E3B910511F00C94EE2612C4833D91059F
:1031F00009F4BFC664F48D3C910509F4F1C50CF4E3
:1032000084C58E3C910509F456C60C94EE268C3D7F
:10321000910509F453C734F48A3D910509F441C777
:103220000C94EE268D3D910509F455C7823E91051B
:1032300009F46AC70C94EE26843AE1E09E0711F483
:103240000C94FB22BCF5803321E0920711F40C941E
:10325000202284F48E3241E0940711F40C949D22D4
:1032600014F00C94F1228D32914011F40C946921E8
:103270000C94EE268039B1E09B0711F40C94F422F3
:103280004CF48336914011F00C94EE26E4E3FAE11D
:103290000C945A25813921E0920711F40C94F722FD
:1032A0008239914011F00C94EE2680E00E94E136C4
:1032B0000C94EE26853F41E0940711F40C94DF2432
:1032C0009CF48C3AA1E09A0711F40C943424843FC6
:1032D000B1E09B0711F40C94DC24853A914011F085
:1032E0000C94EE260C949A23873FF1E09F0711F48B
:1032F0000C94E52414F40C94E224833533E0930712
:1033000011F40C94F324873E934011F40C9471252E
:103310000C94EE26E0902305F090240580E50E94B1
:10332000D12F882359F00E942F2F4B015C0111E00F
:10333000672B682B692B31F410E004C010E0812C5E
:10334000912C540183E50E94D12F882399F00E948B
:103350006F2F20E030E04AE754E40E9482C40E94CC
:10336000D0C94B015C0111110CC0672B682B692B74
:1033700041F43CC0111105C0E114F10411F00C94AA
:10338000A52783E090E09093400780933F0781E07A
:10339000809322050E94855F0E947A3081149104F7
:1033A000A104B104A9F18091580E9091590EA091F9
:1033B0005A0EB0915B0E75016401C80ED91EEA1E4B
:1033C000FB1E0E94E671DC01CB018C199D09AE0940
:1033D000BF09B7FD04C0109222050C94EE2680911F
:1033E00022058823C1F30E94C93BEBCFE114F1040D
:1033F00011F00C94A52783E090E090934007809310
:103400003F0781E0809322050E94855F0E947A3009
:10341000809122058823F9F20E94C93BF9CF0E94CE
:103420004C940C94EE260E94E78E0C94EE268CE4CD
:103430000E94A22F882319F081E080937A0282E50E
:103440000E94A22F882319F081E08093790281E401
:103450000E94A22F882329F081E080937A02809332
:10346000790281E08093780205E313E0D8018D9121
:103470008D01882321F10E948530F8CF80912E0F95
:10348000882309F498C2F2E0CF2EF3E0DF2EE12C7E
:10349000F12C20E080912E0F90E00E2C02C095952B
:1034A00087950A94E2F780FD6EC2FFEFEF1AFF0ADC
:1034B00032E0C30ED11C46E0E416F10459F78AE06D
:1034C0000E9485300C94EE260E9429960C94EE26DC
:1034D0000E9411960C94EE260E944F960C94EE26B4
:1034E0000E94DA960C94EE26F80181918F018823D0
:1034F00019F00E948530F8CF8AE00E9485309BEA5F
:10350000E92E96E0F92E28E0C22E20E1D22E0AE024
:1035100010E1412C512C3201332433944801F8013D
:1035200080819181A281B381F70181939193A193CD
:10353000B1937F01D6013D926D01B0EDAB2EB4E0A9
:10354000BB2EF50181915F01882319F00E9485301F
:10355000F8CFC301B2010E941B32A3E3AA2EA3E05D
:10356000BA2ED5018D915D01882319F00E94853016
:10357000F8CF0C5F1F4FF4016081718182819381CC
:1035800042E00E94F7338AE00E9485304A94452841
:103590004628472829F0412C512C32014394BECFB4
:1035A00010920710109206101092FE0F1092FF0F4B
:1035B00010920010109201100C94EE2685E40E94E7
:1035C000A22F882379F181E090E02091160E3091AE
:1035D000170E232B11F080E090E09093170E80934C
:1035E000160E0E948F5F8091160E9091170E892BF8
:1035F00019F407E413E00EC00DE513E0D8018D9136
:103600008D01882319F00E948530F8CF8AE00E944E
:1036100085301AC0F80181918F018823B9F30E9487
:103620008530F8CF8091FE0F9091FF0FA091001090
:10363000B09101108093640E9093650EA093660E76
:10364000B093670E0E94E34083E50E94A22F882377
:1036500031F081E090E09093190E8093180E82E58E
:103660000E94A22F882311F40C94EE261092190EBA
:103670001092180E0C94EE268EE40E94A22F88233E
:1036800059F00E946F2F00911A0E10911B0E0E948C
:10369000D0C9D80114966C9389E40E94A22F882384
:1036A00059F00E946F2F00911A0E10911B0E0E946C
:1036B000CBC9F801728F618F8DE40E94A22F8823FD
:1036C00069F00E946F2F00911A0E10911B0E0E943C
:1036D000CBC9D8015C967C936E935B9784E50E947E
:1036E000A22F882311F40C94EE260E946F2F0E94C3
:1036F000D0C9609305020C94EE2680917A02811164
:1037000003C00AE613E04FC0809179028823C9F311
:103710000FE713E0F80181918F01882319F00E94CF
:103720008530F8CF8FE00E945470892B19F003E8A0
:1037300013E00DC00CEA13E0D8018D918D018823B0
:1037400019F00E948530F8CF05E813E008C0F801B1
:1037500081918F018823C1F30E948530F8CFD80171
:103760008D918D01882319F00E948530F8CF82E079
:103770000E945470892B19F003E813E00BC00CEA87
:1037800013E0F80181918F01882309F498CE0E94FB
:103790008530F7CFD8018D918D01882309F48FCE24
:1037A0000E948530F7CFF80181918F01882311F4B1
:1037B0000C94EE260E948530F6CF85E50E94A22F5C
:1037C00081110E942F9984E40E94A22F81110E94EE
:1037D000469787E50E94A22F882331F00E946F2F21
:1037E0000E94D0C960937E0283E50E94A22F8823A5
:1037F00031F00E946F2F0E94D0C960937D028FE448
:103800000E94A22F882341F00E946F2F0E94CBC9F3
:1038100070937C0260937B028EE40E94A22F882327
:1038200051F00E946F2F6093820E7093830E8093ED
:10383000840E9093850E8DE40E94A22F882351F070
:103840000E946F2F60937A0E70937B0E80937C0E94
:1038500090937D0E89E50E94A22F882351F00E944B
:103860006F2F6093760E7093770E8093780E9093FF
:10387000790E88E50E94A22F882351F00E946F2FB5
:103880006093720E7093730E8093740E9093750E06
:1038900082E40E94A22F882351F00E946F2F609330
:1038A0007E0E70937F0E8093800E9093810E81E444
:1038B0000E94A22F882359F00E946F2F0E94CBC92B
:1038C00070935E0260935D02CB010E94EF9684E5E7
:1038D0000E94A22F882349F00E946F2F0E94D0C916
:1038E000862F60931C0E0E94189B89E40E94A22FD1
:1038F000882311F40C94EE2680911C0E0E94189BD4
:1039000080915D0290915E020E94EF960C94EE26EB
:103910000E94A06F0C94EE268EE40E94D12F882383
:1039200011F40C94EE260E943F2F6093C510709303
:10393000C6108093C7109093C8100C94EE2683E5B0
:103940000E94D12F882319F00E944F2F01C080E0E0
:1039500080932E0FE6EDF3E284918F010F5F1F4FEE
:10396000882321F00E948530F801F6CFE2E1F3E0F0
:1039700084918F010F5F1F4F882309F47FCD0E9430
:103980008530F801F5CFBB24B394B20E222319F091
:103990008CE20E948530F60125913491F9018491E1
:1039A00089010F5F1F4F882321F00E948530980105
:1039B000F5CF2B2D7ACDEEE0F3E084918F010F5FF0
:1039C0001F4F882309F47BCD0E948530F801F5CF85
:1039D0000E94FC690C94EE268DE690E00E94DF3197
:1039E00081110C94EE2680912E0F83FF02C00C945F
:1039F000EE2683E50E94D12F8E8781110C94C42777
:103A000082E50E94D12F81110C94C4270C94EE26DC
:103A100080912E0F83FF02C00C94EE2683E50E9456
:103A2000D12F8E8781110C940B2982E50E94D12F12
:103A300081110C940B290C94EE2683E50E94D12F62
:103A4000882339F00E943F2F8B016F3F710519F0D9
:103A500010F00FEF10E080E50E94D12F811106C019
:103A60001093CC070093CB070C94EE260E944F2FA7
:103A700081110C94EE26F4CF80E50E94D12F8111A4
:103A800006C01092CC071092CB070C94EE260E9431
:103A90003F2F672B11F00C94EE26F3CF10922905DF
:103AA0000C94EE2681E0809329050C94EE260E946A
:103AB0003E690C94EE260E9488680C94EE260E94C3
:103AC000855F0E94C9670C94EE260E9440670C94A3
:103AD000EE26E9E3F3E084918F010F5F1F4F882307
:103AE00021F00E948530F801F6CFE1E3F3E0849104
:103AF0008F010F5F1F4F882321F00E948530F8014E
:103B0000F6CF659903C007EF12E002C00CEF12E098
:103B1000D8018D918D01882319F00E948530F8CF4E
:103B20008AE00E948530E9E2F3E084918F010F5F23
:103B30001F4F882321F00E948530F801F6CF809135
:103B4000030181FD03C007EF12E002C00CEF12E099
:103B5000F80181918F01882319F00E948530F8CFF8
:103B60008AE00E948530E1E2F3E084918F010F5FEB
:103B70001F4F882321F00E948530F801F6CF4B9B20
:103B800003C007EF12E002C00CEF12E0D8018D91E4
:103B90008D01882309F493CC0E948530F7CF81E012
:103BA00080935C0280938F0E0C94EE2610925C0240
:103BB00010928F0E0C94EE2688EC90E00E94DF317C
:103BC00081110C94EE2684E40E94A22F882309F42C
:103BD00056C00E946F2F11E020E030E0A9010E9442
:103BE0001DC4811101C010E01093A80E112309F427
:103BF00046C00091250510E00E946F2F000F111F95
:103C0000000F111FF801E158FD4F6083718382831B
:103C1000938320E030E0A90160917F0270918002DF
:103C200080918102909182020E941DC481110CC07A
:103C300080E090E0A0E4B0E480937F029093800263
:103C4000A0938102B093820220E030E0A90160914C
:103C500083027091840280918502909186020E9475
:103C60001DC481110CC080E090E0A0E4B0E480931A
:103C7000830290938402A0938502B09386020E94EF
:103C800062400C94EE26BDEDEB2EB7E0FB2E09EB67
:103C900012E084E0D82ED00EF80181918F010E94AD
:103CA000A22F882351F00E946F2F0E94D0C9D70104
:103CB0006D937D938D939C931397B4E0EB0EF11C61
:103CC000D012EACF0E94D7490C94EE26FFEAEF2EDD
:103CD000F7E0FF2E09EB12E0A4E0DA2ED00EF80197
:103CE00081918F010E94A22F882341F00E946F2FA3
:103CF000D7016D937D938D939C931397B4E0EB0E56
:103D0000F11CD012ECCF0C94EE2683E50E94A22F7A
:103D10008823D9F00E946F2FAB01BC014093A70705
:103D20005093A8076093A9077093AA074093A3072D
:103D30005093A4076093A5077093A6078DEA93E0BC
:103D40000E941F498AE00E94853080E50E94A22FD0
:103D5000882399F00E946F2FAB01BC014093A70705
:103D60005093A8076093A9077093AA0780E993E08E
:103D70000E941F498AE00E94853082E50E94A22F9E
:103D8000882399F00E946F2FAB01BC014093AB07D1
:103D90005093AC076093AD077093AE0781E793E053
:103DA0000E941F498AE00E94853084E50E94A22F6C
:103DB000882311F40C94EE260E946F2FAB01BC01F6
:103DC0004093A3075093A4076093A5077093A60799
:103DD00083E593E00E941F498AE00E948530FEC778
:103DE00083E50E94A22F882351F00E946F2F6093D9
:103DF000C7077093C8078093C9079093CA0784E5E3
:103E00000E94A22F882351F00E946F2F6093C30756
:103E10007093C4078093C5079093C60782E40E94FD
:103E2000A22F882351F00E942F2F6093BF07709319
:103E3000C0078093C1079093C20788E50E94A22F14
:103E4000882351F00E946F2F60939307709394071B
:103E5000809395079093960789E50E94A22F882367
:103E600051F00E946F2F609397077093980780938B
:103E7000990790939A078AE50E94A22F882351F010
:103E80000E946F2F60939B0770939C0780939D0700
:103E900090939E0785E40E94A22F882309F49EC771
:103EA0000E946F2F60939F077093A0078093A107D4
:103EB0009093A20793C785E40E94A22F882351F014
:103EC0000E946F2F60938A0E70938B0E80938C0EDE
:103ED00090938D0E8AE50E94A22F882351F00E94B4
:103EE0006F2F6093860E7093870E8093880E909349
:103EF000890E6EE0C62E6FE0D62E7EE1E72E7EE0C4
:103F0000F72E09EB12E0E3E07E2E700EF8018191AE
:103F10008F010E94A22F8823F9F00E946F2F4B017E
:103F20005C01D7012D913D914D915C910E9486C815
:103F30009B01AC01F60160817181828193810E94B5
:103F400087C8D6016D937D938D939C931397F7014A
:103F500080829182A282B382F4E0CF0ED11C24E051
:103F6000E20EF11C7012D2CF0E9488370E94C967FE
:103F700035C7E6EDF3E284918F010F5F1F4F882371
:103F800021F00E948530F801F6CF83E50E94A22F30
:103F9000882321F00E94602F80930102EDEFF3E06F
:103FA00084918F010F5F1F4F882321F00E9485307D
:103FB000F801F6CF80910102811103C0E9EFF3E02F
:103FC00002C0E5EFF3E084918F010F5F1F4F88235C
:103FD00021F00E948530F801F6CFEDEEF3E08491F8
:103FE0008F010F5F1F4F882321F00E948530F80159
:103FF000F6CF40916B0250916C0260916D0270910E
:104000006E028BEE93E00E941F4940916F02509127
:104010007002609171027091720288EE93E00E94CA
:104020001F49409173025091740260917502709122
:10403000760285EE93E00E941F49EDEDF3E0849156
:104040008F010F5F1F4F882321F00E948530F801F8
:10405000F6CF40915F0250916002609161027091D1
:1040600062028BED93E00E941F49409163025091E0
:104070006402609165027091660288ED93E00E948F
:104080001F494091670250916802609169027091E6
:104090006A0285ED93E00E941F498AE00E94853004
:1040A0009DC68AED90E00E94DF31811197C6109184
:1040B0002505112309F492C60C94402A83E50E9439
:1040C000D12F882309F48AC60E943F2F70930302E0
:1040D0006093020283C68DED90E00E94DF31811172
:1040E0007DC683E50E94D12F882309F477C600910D
:1040F000250510E00E943F2F000F111FF801E45F1B
:10410000FD4F718360836AC680E50E94A22F8823D9
:1041100009F464C60E943F2FF62EC62ED72E83E5E3
:104120000E94D12F882321F00E943F2F8B0102C0D3
:104130000FEF1FEFC8010196039708F04FC6D7FC99
:104140004DC6EDE1F4E080E38E0F9491F91609F489
:1041500045C631968E13F9CF0C949B2A80E50E94B8
:10416000A22F882309F43AC60E943F2F6B017C01DD
:104170008B01672B09F08FC083E50E94A22F882353
:10418000C1F00E943F2F6B017C0160E070E085EC84
:104190009FE00E9434A887FD21C6B60185EC9FE010
:1041A0000E94D5476CE271E080E090E00E94AE7121
:1041B00015C6E6EDF3E284917F012FEFE21AF20AD1
:1041C000882321F00E948530F701F5CF60E070E090
:1041D00086E694E00E943C498091C70F28E532E0D2
:1041E0006901C81AD10887FDD394CC0CDD1CCC0C16
:1041F000DD1C0D2C000CEE08FF088091C60F28E88E
:1042000030E04901881A910887FD9394880C991C25
:10421000880C991C092C000CAA08BB088091C50FBA
:104220008F3FB9F090E0FC01EE0FFF1F8E0F9F1F34
:10423000FC01E85AF04F0181128183E0000F111F49
:104240008A95E1F794E0169507959A95E1F70E5F48
:104250001F4F98012F5F3F4FC901330FAA0BBB0BB4
:104260009C01AD01281939094A095B09A4EBB0E0AA
:104270000E9467C8A7019601281939094A095B09F4
:104280000E944BC8B90183E694E00E943C498AE051
:104290000E948530A3C5E4E3FAE184918F010F5FAA
:1042A0001F4F882321F00E948530F801F6CFB60118
:1042B0008CE594E00E943C49EDE4F4E084918F01A8
:1042C0000F5F1F4F882309F489C50E948530F801CC
:1042D000F5CF85E40E94D12F882339F00E944F2F1B
:1042E000082F823008F094C001C000E080E50E94F1
:1042F000A22F882361F00E946F2F34E0039FF0010A
:104300001124EE5CFD4F608371838283938389E483
:104310000E94A22F8823A9F00E946F2F44E0049FDF
:1043200090011124D901A65DBD4F7D012CEA35EC29
:1043300047E25EE30E9482C4F70160837183828357
:10434000938384E40E94A22F8823B1F00E946F2FF0
:10435000F4E00F9F90011124A901465C5D4F7A01A2
:104360002CEA35EC47E25EE30E9463C9D7016D9306
:104370007D938D939C931397E6EDF3E284917F01F7
:10438000BFEFEB1AFB0A882321F00E948530F7016A
:10439000F5CF10E0B8018AE794E00E943C49000F95
:1043A000111F000F111FF801EE5CFD4F408151817C
:1043B0006281738186E794E00E941F49F801E65DFF
:1043C000FD4F2CEA35EC47E25EE36081718182812A
:1043D00093810E9463C9AB01BC0182E794E00E9413
:1043E0000249F801E65CFD4F2CEA35EC47E25EE35A
:1043F00060817181828193810E9482C4AB01BC0182
:104400008EE694E00E9402498AE00E948530E6C46C
:10441000E4E3FAE184918F010F5F1F4F811103C024
:104420000AE813E004C00E948530F801F3CFF801D8
:1044300081918F01882309F442C80E948530F7CF0B
:1044400080E50E94A22F882351F00E946F2F609375
:104450004A0270934B0280934C0290934D0289E480
:104460000E94A22F882381F00E946F2F2CEA35EC46
:1044700047E25EE30E9482C4609346027093470263
:10448000809348029093490284E40E94A22F8823DB
:1044900081F00E946F2F2CEA35EC47E25EE30E9428
:1044A00063C96093420270934302809344029093E5
:1044B0004502E6EDF3E284918F010F5F1F4F8823E1
:1044C00021F00E948530F801F6CF40914A025091C8
:1044D0004B0260914C0270914D0286E894E00E947C
:1044E0001F492CEA35EC47E25EE360914602709189
:1044F000470280914802909149020E9463C9AB0132
:10450000BC0182E894E00E9402492CEA35EC47E2C3
:104510005EE3609142027091430280914402909167
:1045200045020E9482C4AB01BC018EE794E00E9468
:1045300002498AE00E94853051C483E50E94A22F7F
:10454000182F882371F00E946F2F0E94CBC970939F
:104550000B0260930A0221E0672B09F020E0209310
:10456000920780E50E94A22F882359F020910A0229
:1045700030910B02232B11F00E94602F8093920741
:104580002DC411112BC4E6EDF3E284918F010F5F6E
:104590001F4F882321F00E948530F801F6CF8091CB
:1045A0009207811103C066E073E002C069EF72E018
:1045B0008FE994E00E94714960910A0270910B02A8
:1045C0008EE894E00E943C49EAE8F4E084918F018F
:1045D0000F5F1F4F882309F401C40E948530F80142
:1045E000F5CF0E94176BFAC30E94855FF7C381E085
:1045F0000E94E136F3C386E50E94A22F882351F082
:104600008091050E9091060E892B21F00E9418359D
:104610000E94043583E50E94A22F182F882319F0E9
:104620000E94602F182F83E50E94A22F882319F083
:10463000812F0E94702E8AE50E94A22F882321F0EC
:104640000E946F2F0E94282EF0903C10111103C081
:10465000E6EDF3E218C0F110FBCF04E31AE1F80134
:104660008491882329F00F5F1F4F0E948530F7CF78
:1046700002ED14E0F8018491882351F30F5F1F4F7E
:104680000E948530F7CF84918F010F5F1F4F8823E1
:1046900021F00E948530F801F6CFF11003C06EE0E2
:1046A00073E002C06AE073E084EC94E00E94714918
:1046B0008AE00E948530E6EDF3E284918F010F5F7E
:1046C0001F4F882321F00E948530F801F6CFE7EBD9
:1046D000F4E084918F010F5F1F4F882321F00E9427
:1046E0008530F801F6CFC0903810D0903910E090A6
:1046F0003A10F0903B1020E030E0A901C701B6016C
:104700000E94ADCA18166CF0E2EBF4E084918F01C0
:104710000F5F1F4F882309F461C30E948530F801A1
:10472000F5CF42E0C701B6010E94F7338AE00E944C
:10473000853054C389E40E94D12F882321F00E9440
:104740003F2F162F01C01FEF8AE40E94D12F88232C
:1047500021F00E943F2F062F01C00FEF8AE50E9433
:10476000A22FF82E811105C081E50E94A22FD82E1C
:1047700001C0D12C17FD02C007FF03C0E4E3FAE13A
:1047800005C0F1101AC0D11018C0F8CF84918F0164
:104790000F5F1F4F882321F00E948530F801F6CF6C
:1047A000E0E1F5E084918F010F5F1F4F882309F44A
:1047B00015C30E948530F801F5CF153018F0E4E3F9
:1047C000FAE106C00530D8F716C00E948530F8011E
:1047D00084918F010F5F1F4F8111F7CFE1EFF4E05C
:1047E00084918F010F5F1F4F882309F4F7C20E9445
:1047F0008530F801F5CFE12E110FFF08002E000CD7
:10480000110B0E946F2FDD2099F025E02E9DF00105
:104810002F9DF00D1124E00FF11FEE0FFF1FEE0F83
:10482000FF1FE755F14F208131814281538103C041
:1048300020E030E0A901A5E0AE9DF001AF9DF00DB4
:1048400011240E0F1F1F000F111F000F111F0755FE
:10485000114F0E9487C8D8016D937D938D939C93CF
:1048600013970E946B2CBAC25FE2252E5FE0352EB3
:104870006EE1C62E6EE0D62E7EE0E72E7FE0F72EAC
:1048800000E010E0F10181911F01882309F487C045
:10489000D7014D905D906D907C90F801E15AFD4FED
:1048A0002081318142815381F801E559FD4F6081BA
:1048B0007181828193810E9487C820E030E040E0CE
:1048C0005FE30E9482C49B01AC01C301B2010E945C
:1048D000ADCA181644F4F801E25BF54F8590959047
:1048E000A590B49003C0812C912C5401F801EE5D89
:1048F000F04F2081318142815381C301B2010E9476
:1049000086C89B01AC01C501B4010E9486C84B0159
:104910005C0120E030E040EA51EC0E94ADCA87FD26
:1049200025C020E030E040EA51E4C501B4010E9416
:104930001DC41816DCF0F6012081318142815381BB
:10494000C501B4010E9486C89B01AC01C301B2013C
:104950000E9487C8D7016D937D938D939C93139785
:10496000F60180829182A282B38219C0E4E3FAE167
:1049700084918F010F5F1F4F882321F00E948530A3
:10498000F801F6CFE0E3F5E084918F010F5F1F4F50
:10499000882309F423C20E948530F801F5CFF4E0A2
:1049A000CF0ED11C0C5F1F4F24E0E20EF11C0C3027
:1049B000110509F067CFD8CA0E942A7D0FC20E9454
:1049C0008C770CC20E9456A209C283E50E94A22FD6
:1049D000882319F00E94602F01C081E091E08927AF
:1049E0000E94939DFBC1E6EDF3E284918F010F5F7E
:1049F0001F4F882321F00E948530F801F6CFE8E6AA
:104A0000F5E084918F010F5F1F4F882321F00E94F2
:104A10008530F801F6CF8AE50E94A22F882309F499
:104A20003BC00E946F2F6B017C0120E030E040EA28
:104A300051EC0E94ADCA87FD21C020E030E040EA81
:104A400051E4C701B6010E941DC41816BCF0C09203
:104A50001E0FD0921F0FE092200FF092210F0E94A4
:104A60001FA960911E0F70911F0F8091200F9091D0
:104A7000210F42E00E94F7330C945F1AE1E5F5E064
:104A800084918F010F5F1F4F882311F40C945F1ADC
:104A90000E948530F801F4CF40911E0F50911F0FF6
:104AA0006091200F7091210F8EE495E00E941F49C4
:104AB0000C945F1A84918F010F5F1F4F882321F0A0
:104AC0000E948530F801F6CFE2E7F5E084918F018E
:104AD0000F5F1F4F882309F481C10E948530F801C0
:104AE000F5CF81E08093290283E50E94A22F8111F6
:104AF00003C00E9424B772C10E94602F81116EC151
:104B0000F8CF809132108093B306E090B406F09015
:104B1000B5061E2D80912E0F85FF14C0B701772793
:104B20008BEC95E00E943C4989E20E9485308AE046
:104B30000E9485304EE05FE06CEA75E087EB95E01F
:104B40000E94C23680913210181751F083E50E94FE
:104B5000A22F182F882329F00E94602F182F01C040
:104B600011E086E40E94D12F882319F00E946F2F54
:104B700003C060E070E0CB0120E030E040E752E4A9
:104B80000E9463C9AB01BC01212F8E2D0E94D26609
:104B900080912E0F85FF14C04EE05FE06EE875E057
:104BA00088E995E00E94C236E1E8F5E084918F0142
:104BB0000F5F1F4F882321F00E948530F801F6CF48
:104BC0000091B40611E08091B306081301C010E013
:104BD0006091160F7091170F8091180F9091190F17
:104BE00020911C0E222309F475C0013009F072C017
:104BF000112309F46FC0688F798F8A8F9B8F0E9471
:104C0000855F20E030E040E450E4688D798D8A8D46
:104C10009B8D0E9487C86B017C016093640E70932A
:104C2000650E8093660E9093670E0E94E3400E948B
:104C3000855F0E9446970E947A300E94E6714091FB
:104C40007B0250917C022A01550F660877088090FC
:104C5000580E9090590EA0905A0EB0905B0E840C96
:104C6000951CA61CB71CDC01CB0188199909AA095F
:104C7000BB09B7FF03C00E94C93BDFCF80908A0EFB
:104C800090908B0EA0908C0EB0908D0EA50194018B
:104C9000C701B6010E9487C82091260E3091270EC9
:104CA0004091280E5091290E0E9486C86093160FDD
:104CB0007093170F8093180F9093190F8092260E00
:104CC0009092270EA092280EB092290E0E9488374B
:104CD0000E94C96780911C0E882309F47FC00111CE
:104CE0007DC0112309F47AC00E94855F0E942F992C
:104CF0000E947A300E94E6716B017C0180917B02F8
:104D000090917C02BC01990F880B990B0091580E71
:104D10001091590E20915A0E30915B0E060F171FFD
:104D2000281F391F46015701801A910AA20AB30AA7
:104D3000B7FE03C00E94C93BDDCF0E94AE71C09098
:104D4000860ED090870EE090880EF090890E20910C
:104D5000260E3091270E4091280E5091290EC70142
:104D6000B6010E9486C89B01AC016091160F70913C
:104D7000170F8091180F9091190F0E9487C86093A8
:104D8000160F7093170F8093180F9093190FC092FE
:104D9000260ED092270EE092280EF092290E0E9445
:104DA00088370E94C9671AC0E6EDF3E284918F014B
:104DB0000F5F1F4F882321F00E948530F801F6CF46
:104DC000609146077091470788ED95E00E94714910
:104DD00082E20E9485308AE00E948530109240076E
:104DE00010923F070E9405B7CDC340912305509113
:104DF0002405452B39F4AF01415051095093240546
:104E00004093230540E050E00C94C31380E068D742
:104E10000E945E3783E50E94A22F882309F449C0CF
:104E20000E94602F21E0482FBE016F5F7F4FCE01AF
:104E300005960E94FEB16B017C019B01AC010E94B2
:104E400033CB811131C02CEA35EC47E257E36D8159
:104E50007E818F8198850E9487C8AB01BC018BED54
:104E600092E00E9402492CEA35EC47E257E369815F
:104E70007A818B819C810E9487C8AB01BC0186ED41
:104E800092E00E9402492CEA35EC47E257E3C70161
:104E9000B6010E9487C8AB01BC0181ED92E00E947F
:104EA00002498AE00E9485300E943A370E94C96711
:104EB00095CF81E0B7CF109202101092031010929C
:104EC00004101092051010922210109223101092CC
:104ED0002410109225101092261010922710109274
:104EE0002810109229101092121010921310109284
:104EF00014101092151010922A1010922B1010926C
:104F00002C1010922D1010921A1010921B1010924B
:104F10001C1010921D101092161010921710109263
:104F200018101092191010922E1010922F1010922B
:104F300030101092311010921E1010921F1010920B
:104F40002010109221100C943E16D7018C918823CA
:104F500011F40C94C119E6EDF3E284918F010F5F17
:104F60001F4F882321F00E948530F801F6CFF7010A
:104F700081917F01882319F00E948530F8CF8AE063
:104F80000E9485300C94C119AAD7F09025052F2DC9
:104F900030E0220F331F89010952124F0E94CBC902
:104FA000D8016D937C938F2D0E94897698D720E04D
:104FB00030E04AEA52E40E941DC418161CF00E9418
:104FC00030A402C00E9465B40E94A74981E080938A
:104FD00000021092400710923F071A861B861C861B
:104FE0001D86188A198A1A8A1B8A19861C8A5CE30C
:104FF0005D8B8CE18E8B96E49F8BC12CD12C70E85D
:10500000E72EEFEBFE2E812C912C5401009125050B
:1050100010E0F801EE0FFF1FE952F24F608171813D
:10502000072E000C880B990B0E9423C4762E672E46
:10503000582E492E262F372F482F592FB601C7013A
:105040000E941DC48823E9F0000F111F000F111FDB
:10505000F801EE53F24F2081318142815381672D57
:10506000762D852D942D0E941DC4881F8827881FAA
:105070008987CE84CC2049F0882339F080910002C2
:10508000ADCE7C2C6D2C5E2C4F2C0E94E6716B01FA
:105090007C01DC01CB01288939894A895B89821B23
:1050A000930BA40BB50BB7FD38C0D701C6018851CF
:1050B0009C4FAF4FBF4F888B998BAA8BBB8B0E94A5
:1050C000296AE9E1F3E084918F010F5F1F4F882384
:1050D00021F00E948530F801F6CF81149104A104DB
:1050E000B104B9F0D501C4018854944FAF4FBF4FFC
:1050F000BC01CD016C197D098E099F0928EE33E0B2
:1051000040E050E00E9429C8CA01B9010E941B3248
:1051100002C08FE3FAD78AE0F8D70E94C93BEAD7EA
:10512000E091250594E0E99FF0011124EE53F24F40
:1051300020803180028113819101A801672D762D95
:10514000852D942D0E9486C89F7781149104A10417
:10515000B10449F420E030E040E85FE30E941DC460
:1051600087FF0BC008C020E030E040E450E40E941C
:10517000ADCA181614F446015701A985AA2379F17E
:105180002A853B854C855D852115310541055105F5
:1051900041F0D701C601821B930BA40BB50BB7FDE1
:1051A0001EC09101A8016C897D898E899F890E940A
:1051B00086C820E030E040EC5FE30E941DC487FD1C
:1051C0005DCFD701C601805A9541AF4FBF4F8A8747
:1051D0009B87AC87BD872C8A3D8A0E8B1F8B809165
:1051E0000002882309F44ACF81149104A104B10478
:1051F00029F4C72CD62CE52CF42C08CF98EBC91A2F
:105200009BE0D90AE108F108C818D908EA08FB08A8
:10521000F7FE34CFEECF63D60E94CBC96739710554
:1052200014F066E970E07093D60D6093D50D0E947E
:105230003F7655D620E030E040EA50E40E94ADCA07
:10524000181614F40E9465B481E080930002109255
:10525000400710923F0780913210809325051A86EF
:105260001B861C861D86188A198A1A8A1B8A19862B
:105270001C8AACE3AD8BBCE1BE8BE6E4EF8BC12CAA
:10528000D12C30E8E32E4FEBF42E812C912C5401DD
:105290006091D50D7091D60D072E000C880B990BDF
:1052A0000E9423C4162F072F782E692E262F372F02
:1052B000482F592FB601C7010E941DC48823D1F081
:1052C0002091D00D3091D10D4091D20D5091D30D40
:1052D000612F702F872D962D0E941DC4881F88274F
:1052E000881F8987CE84CC2049F0882339F08091AB
:1052F000000274CD1C2D0D2D7E2C6F2C0E94E671AA
:105300006B017C01DC01CB01288939894A895B89E1
:10531000821B930BA40BB50BB7FD38C0D701C60198
:1053200088519C4FAF4FBF4F888B998BAA8BBB8BFB
:105330000E94296AEDE1F3E084912F019FEF491A61
:10534000590A882319F0E1D6F201F6CF81149104AD
:10535000A104B104B9F0D501C4018854944FAF4FF2
:10536000BF4FBC01CD016C197D098E099F0928EE44
:1053700033E040E050E00E9429C8CA01B9010E9410
:105380001B3202C08FE3C1D68AE0BFD60E94C93B60
:10539000B1D62090D00D3090D10D4090D20D5090CC
:1053A000D30D9101A201612F702F872D962D0E94A0
:1053B00086C89F7781149104A104B10449F420E0C8
:1053C00030E040E85FE30E941DC487FF0BC008C0C7
:1053D00020E030E040E450E40E94ADCA181614F416
:1053E00046015701A985AA2379F12A853B854C8579
:1053F0005D85211531054105510541F0D701C601F3
:10540000821B930BA40BB50BB7FD1EC09101A2012B
:105410006C897D898E899F890E9486C820E030E052
:1054200040EC5FE30E941DC487FD61CFD701C60138
:10543000805A9541AF4FBF4F8A879B87AC87BD8706
:105440002C8A3D8A4E8A5F8A80910002882309F463
:105450004ECF81149104A104B10429F4C12ED02EA1
:10546000E72CF62C15CF98EBC91A9BE0D90AE10876
:10547000F108C818D908EA08FB08F7FE38CFEECFC4
:1054800088E58FD5882359F02AD534E0139FF001A1
:105490001124E057F14F608371838283938389E500
:1054A00080D5882379F00091250510E018D5000FEC
:1054B000111F000F111FF801E856F14F608371832F
:1054C00082839383E6EDF3E284918F010F5F1F4F98
:1054D000882319F01AD6F801F7CFEDE0F4E08491B3
:1054E0008F010F5F1F4F882319F00FD6F801F7CFF8
:1054F00000E91EE080E209D6D8016D917D918D9181
:105500009D918D0142E00E94F7338CE2FED5F801B7
:10551000648175818681978142E00E94F733FEE0C5
:1055200008391F0739F70C945F1A01110C944D17B5
:1055300013D40C9462170E94855F60E08F2D0E9447
:10554000AB700F3FBFEF1B0759F48F2D0E945470B3
:1055500031E020E0892B09F030E0032F122F05C045
:105560000130110561F000E010E08F2D0E945470B1
:105570008017910709F432CC0E94C93BF6CF01E0B5
:1055800010E0F3CF6B960FB6F894DEBF0FBECDBF21
:10559000DF91CF911F910F91FF90EF90DF90CF900F
:1055A000BF90AF909F908F907F906F905F904F9043
:1055B0003F902F9008958F929F92AF92BF92CF927B
:1055C000DF92EF92FF920F931F93CF93DF93D82F29
:1055D000C62F882329F08630B9F513E084E002C095
:1055E00011E080E09FEF9C0F953028F5D0E02197E7
:1055F00005E0FE01089FE00DF11D1124EE0FFF1FD5
:10560000EE0FFF1FE755F14F608171818281938119
:105610009B01AC010E9487C8019FC00DD11D1124C0
:10562000CC0FDD1FCC0FDD1FC755D14F288139812D
:105630004A815B813EC06C2F8F5FBDDF6B017C01B7
:105640006C2F81E0810F40C0662331F0663009F095
:1056500047C013E064E002C011E060E08FEF8D0FFF
:10566000853050F58D2F90E0019725E0289FE001CF
:10567000299FD00D1124FE01E60FF11DEE0FFF1F33
:10568000EE0FFF1FE755F14F608171818281938199
:105690009B01AC010E9487C8FE01E10FF11DEE0FD6
:1056A000FF1FEE0FFF1FE755F14F2081318142812F
:1056B00053810E9486C828C06F5F8D2F7CDF6B01ED
:1056C0007C0161E0610F8D2F76DF4B015C01A7014A
:1056D0009601C701B6010E9487C8A5019401E9CFD0
:1056E00090E0019725E0289FF001299FF00D1124FB
:1056F000E60FF11DEE0FFF1FEE0FFF1FEB55F14FF1
:105700006081718182819381DF91CF911F910F918F
:10571000FF90EF90DF90CF90BF90AF909F908F90D1
:1057200008952DE0829FC0011124FC01E60FF11DB8
:10573000EE0FFF1FEE0FFF1FE653FF4E60817181DA
:1057400082819381089525E0829FC0011124FC018C
:10575000E60FF11DEE0FFF1FEE0FFF1FE755F14F94
:10576000608171818281938108958FB7F8949091BF
:10577000C4102091C310291759F0E92FF0E0ED5B18
:10578000FF4E208130E09F5F9F779093C41002C04E
:105790002FEF3FEF8FBFC90108958F929F92AF9275
:1057A000BF92CF92EF92FF920F931F93CF93DF930D
:1057B000CDB7DEB760970FB6F894DEBF0FBECDBF92
:1057C000C0903210EEE0FFE084859585A685B78510
:1057D00040855185628573850481158126813781D5
:1057E00080809180A280B38089829A82AB82BC82C1
:1057F0000D831E832F83388749875A876B877C8761
:105800008D879E87AF87B88B9E01235F3F4FAE0188
:10581000475F5F4FBE016B5F7F4FCE0101960E94D5
:105820000EAAE0909502F0909602009197021091D6
:1058300098029E01235F3F4FAE01475F5F4FBE015D
:105840006B5F7F4FCE0101960E948E4B60960FB624
:10585000F894DEBF0FBECDBFDF91CF911F910F91A6
:10586000FF90EF90CF90BF90AF909F908F90089552
:10587000FF920F931F93CF93DF93FC0120812B3373
:1058800019F1D0914B0ED430F8F4F62EBC01C09132
:10589000BB060C2F10E0F0E6CF9FC0011124855D00
:1058A0009A4F0E9495CBF801E65DF14FF082CF5FF1
:1058B000C43018F4C093BB0602C01092BB06DF5F71
:1058C000D0934B0E81E001C080E0DF91CF911F911A
:1058D0000F91FF9008952F923F924F925F926F9297
:1058E0007F928F929F92AF92BF92CF92DF92EF9270
:1058F000FF920F931F93CF93DF93CDB7DEB7E1975E
:105900000FB6F894DEBF0FBECDBF8091050E90910B
:10591000060EE3E0F0E0BF010E946FCB9B017093A5
:105920003407609333078091070E9091080EBF01F2
:105930000E946FCB8B017093360760933507B901D6
:10594000330F880B990B0E9423C46B017C012DEB54
:1059500037E346E855EB0E94ADCA87FD0AC02DEB40
:1059600037E346E855E3C701B6010E941DC4181687
:105970004CF4A701960160E070E080E89FE30E948C
:1059800063C903C060E070E0CB0160933707709398
:1059900038078093390790933A07B801110F880BA5
:1059A000990B0E9423C46B017C012DEB37E346E881
:1059B00055EB0E94ADCA87FD0AC02DEB37E346E8E0
:1059C00055E3C701B6010E941DC418164CF4A70187
:1059D000960160E070E080E89FE30E9463C903C025
:1059E00060E070E0CB0160933B0770933C078093CD
:1059F0003D0790933E071AA219A200E0812C912C3A
:105A000010E029A03AA0F12CC101880D991DDC01FC
:105A1000AA0FBB1FAA0FBB1FBAA7A9A7A12CB12C05
:105A2000E12C8F2D90E0A0E0B0E08BA79CA7ADA764
:105A3000BEA7FF2019F0043009F467C0EE2019F06A
:105A4000143009F462C06BA57CA58DA59EA50E94AB
:105A500021C420E030E040E450E40E9463C92B01FF
:105A60003C016E2D70E080E090E00E9421C420E0B7
:105A700030E040E450E40E9463C96DA37EA38FA38D
:105A800098A79E012F5E3F4F3CA32BA3D12C9E01D4
:105A90002F5F3F4FC12C4D2D410F6C2D600F842F78
:105AA0002FA738AB49AB87DD2FA538A9D9016D9356
:105AB0007D938D939D939D01C39449A9B4E0CB122E
:105AC000ECCFB301A201CE0101960E9455A6EBA135
:105AD000FCA16193719381939193FCA3EBA3D39465
