:100000000C9421130C9452130C9452130C9452130D
:100010000C9452130C9452130C9452130C945213CC
:100020000C9452130C9452130C9452130C945213BC
:100030000C9452130C9452130C9452130C945213AC
:100040000C9452130C9480470C9452130C9452133A
:100050000C9452130C9452130C942B660C9412AB08
:100060000C9452130C94233A0C9452130C94521384
:100070000C9452130C9452130C9452130C9452136C
:100080000C94D04F0C9452130C9452130C945213A2
:100090000C9452130C9452130C9452130C9452134C
:1000A0000C9452130C9452130C94A24F0C945213B0
:1000B0000C9452130C9452130C9452130C94744FCE
:1000C0000C9452130C9452130C9452130C9452131C
:1000D0000C9452130C9452130C9452130C9452130C
:1000E0000C945213533A593A6A3A753A7D3A923A15
:1000F000813A923A853A893A923A8F3A6C69346AEF
:10010000396A646A706A4C6A516A5C69F0A8F3A83B
:10011000E2A8E6A8ECA82AA9F7A8FBA801A905A9C6
:1001200009A90FA913A917A92AA91DA921A925A9B8
:100130002EAA33AA38AA42AA4CAAC5AA56AA5EAACF
:1001400066AA70AA7AAA84AA93AA9DAAC5AAA7AAEF
:10015000B1AABBAA084AD73B3BCE016E84BCBFFD07
:10016000C12F3D6C74319ABD56833DDA3D00C77F87
:1001700011BED9E4BB4C3E916BAAAABE0000008020
:100180003F05A84CCDB2D44EB93836A9020C50B9AF
:10019000918688083CA6AAAA2ABE000000803F00DB
:1001A0004E414E494E495459494E46CDCCCC3D0A5C
:1001B000D7233C17B7D13877CC2B329595E6241F3F
:1001C000B14F0A000020410000C84200401C4620F8
:1001D000BCBE4CCA1B0E5AAEC59D744C4556454C10
:1001E000494E4700434F4D4D554E49434154494FA9
:1001F0004E0044525952554E004552524F525300F0
:10020000494E464F004543484F003C3C3C205A5F16
:10021000534146455F484F4D494E470A00203A201A
:100220005A5F534146455F484F4D494E470A0020AB
:100230002064657374696E6174696F6E3D005A5F06
:10024000534146455F484F4D494E47203E3E3E0A8A
:1002500000486F6D652058592066697273740A00F2
:100260003C3C3C204732380A005261697365205A91
:1002700020286265666F726520686F6D696E6729F8
:1002800020746F20003E20656E6473746F70732E4F
:10029000656E61626C652874727565290A003C3C64
:1002A0003C204732380A003E20686F6D696E672037
:1002B0006E6F74206E65656465642C20736B697065
:1002C0000A003E3E3E204732380A00205A3A2000BB
:1002D00020593A200042656420583A20004D657349
:1002E0006820706F696E742063616E6E6F74206237
:1002F00065207265736F6C7665640A005072696E72
:10030000742074696D653A2000000136372603FFBA
:10031000FFFF353C3D380EFFFFFF312E303E12FF10
:10032000FFFFFF28FF0C0809FFFFFF1A1C18FFFF43
:100330002A24221EFFFF2C08440AFF4307FF4546DC
:10034000696C616D656E7420757365643A20005345
:10035000746174733A20002C204C6F6E676573745F
:10036000206A6F623A2000546F74616C2074696D6A
:10037000653A200053746174733A20002C20466162
:10038000696C65643A20002C2046696E6973686563
:10039000643A20005072696E74733A20005374619D
:1003A00074733A200005020002F901F201E401DB56
:1003B000016F66660044454255473A002F2F2000E2
:1003C000496E76616C6964206578747275646572D3
:1003D0000A0020643A0020693A0020703A00206543
:1003E0003A0043290A0061626C656420286D696ED9
:1003F0002074656D702000436F6C642065787472A2
:10040000756465732061726520004B64200023646D
:100410006566696E652044454641554C545F004B06
:1004200069200023646566696E6520444546415530
:100430004C545F004B70200023646566696E652034
:1004400044454641554C545F005049442041757421
:100450006F74756E652066696E69736865642120C6
:1004600050757420746865206C617374204B702C17
:10047000204B6920616E64204B6420636F6E73743F
:10048000616E74732066726F6D2062656C6F772089
:10049000696E746F20436F6E666967757261746907
:1004A0006F6E2E680A00504944204175746F747550
:1004B0006E65206661696C6564212074696D656F85
:1004C00075740A0042454420544845524D414C2021
:1004D00052554E4157415900453120544845524DDF
:1004E000414C2052554E4157415900453220544805
:1004F00045524D414C2052554E415741590042659D
:10050000642068656174696E67206661696C656402
:100510000045312048656174696E67206661696CC9
:1005200065640045322048656174696E67206661C4
:10053000696C656400504944204175746F74756E30
:1005400065206661696C6564212054656D70657213
:10055000617475726520746F6F20686967680A003E
:10056000204B643A2000204B693A2000204B703A1F
:1005700020000A20436C6173736963205049442052
:100580000A002054753A2000204B753A2000206D57
:1005900061783A2000206D696E3A200020643A208C
:1005A0000020626961733A2000504944204175740B
:1005B0006F74756E65206661696C65642120546591
:1005C0006D706572617475726520746F6F206869F3
:1005D00067680A00504944204175746F74756E65F0
:1005E0002073746172740A00504944204175746F1D
:1005F00074756E65206661696C6564212042616472
:10060000206578747275646572206E756D626572AE
:100610000A0020643A0020693A0020703A004E6FC8
:100620002063617365206C696768740A004F6666B1
:100630000A00466164652048656967687420004265
:100640006564204C6576656C696E6720004661695B
:100650006C656420746F20656E61626C6520426514
:1006600064204C6576656C696E670A004D65736839
:1006700020706F696E742063616E6E6F74206265A6
:10068000207265736F6C7665640A004D34323120D8
:10069000696E636F727265637420706172616D65FB
:1006A0007465722075736167650A00454550524F45
:1006B0004D204F4B0A003A200050726F6265205A5D
:1006C000204F6666736574003F5A206F7574206F03
:1006D000662072616E676520282D323020746F208D
:1006E0003230290A003C3C3C2067636F64655F54EC
:1006F0000A00203A2041465445520A0020206375E2
:100700007272656E745F706F736974696F6E3D00AD
:10071000203A204245464F52450A00202063757218
:1007200072656E745F706F736974696F6E3D003EC1
:100730003E3E2067636F64655F5428006F6B002541
:1007400069730025696D2025697300256968202576
:10075000696D202569730025696420256968202555
:10076000696D202569730025697920256964202534
:1007700069682025696D20256973002C20002C20D4
:1007800000203A2073796E635F706C616E5F706FEA
:10079000736974696F6E0A00202063757272656EEA
:1007A000745F706F736974696F6E3D00656E71750B
:1007B000657565696E672022004C696E65204E750F
:1007C0006D626572206973206E6F74204C61737462
:1007D000204C696E65204E756D6265722B312C2040
:1007E0004C617374204C696E653A20005072696EDA
:1007F0007465722073746F70706564206475652011
:10080000746F206572726F72732E2046697820743F
:100810006865206572726F7220616E642075736501
:10082000204D39393920746F207265737461727488
:100830002E202854656D706572617475726520692B
:10084000732072657365742E20536574206974205B
:1008500061667465722072657374617274696E6723
:10086000290A004E6F20436865636B73756D2077AE
:10087000697468206C696E65206E756D6265722C96
:10088000204C617374204C696E653A200063686582
:10089000636B73756D206D69736D617463682C2073
:1008A0004C617374204C696E653A20004D313130D3
:1008B0000020496E76616C69642065787472756495
:1008C0006572200000000000000020C1000040C050
:1008D0000000524300808943000052430A20736F96
:1008E00066745F656E6473746F705F6D6178203DD0
:1008F00020000A20736F66745F656E6473746F7096
:100900005F6D696E203D20000A20706F7369746905
:100910006F6E5F7368696674203D2000206178699E
:10092000733A0A20686F6D655F6F66667365742041
:100930003D2000466F7220003C3C3C20646F5F62AB
:100940006C6F636B696E675F6D6F76655F746F0A5E
:10095000003E3E3E20646F5F626C6F636B696E6742
:100960005F6D6F76655F746F00203A2073657475F4
:10097000705F666F725F656E6473746F705F6F72C5
:100980005F70726F62655F6D6F76650A002020632D
:10099000757272656E745F706F736974696F6E3DA6
:1009A00000203A20636C65616E5F75705F616674EC
:1009B00065725F656E6473746F705F6F725F707283
:1009C0006F62655F6D6F76650A00202063757272D5
:1009D000656E745F706F736974696F6E3D00646FEC
:1009E0005F70726F62655F7261697365280064652C
:1009F000706C6F793A2000203A207365745F7072D2
:100A00006F62655F6465706C6F7965640A002020B1
:100A100063757272656E745F706F736974696F6EFF
:100A20003D00203A203C3C3C20646F5F70726F6256
:100A3000655F6D6F76650A00202063757272656E62
:100A4000745F706F736974696F6E3D00203A203E69
:100A50003E3E20646F5F70726F62655F6D6F76659A
:100A60000A00202063757272656E745F706F73691F
:100A700074696F6E3D0072657365745F6265645F73
:100A80006C6576656C0A002028646F6E65290A0023
:100A90004578747261706F6C617465205B004269A7
:100AA0006C696E656172204C6576656C696E672055
:100AB000477269643A0A00202D20496E76616C699C
:100AC00064206578747275646572206E756D6265F8
:100AD0007220210A002020506C616E6E6572427592
:100AE0006666657242797465733A200020467265C5
:100AF00065204D656D6F72793A2000436F6D7069A6
:100B00006C65643A204F63742020322032303230DA
:100B10000A00207C20417574686F723A20286E6F3D
:100B20006E652C2064656661756C7420636F6E66FB
:100B30006967290A00323031382D30382D303100C4
:100B4000204C61737420557064617465643A2000B0
:100B5000312E312E392E350A004D61726C696E00CE
:100B600020536F6674776172652052657365740AED
:100B700000205761746368646F6720526573657401
:100B80000A002042726F776E206F75742052657371
:100B900065740A002045787465726E616C20526538
:100BA0007365740A00506F77657255700A0073742C
:100BB0006172740A00205A3A0020593A0020583ACB
:100BC00000656E6473746F7073206869743A2000F6
:100BD000290A002062797465733B206372632000E8
:100BE00053657474696E67732053746F7265642003
:100BF0002800290A002062797465733B20637263C0
:100C000020002073746F7265642073657474696E5C
:100C100067732072657472696576656420280020A8
:100C20002863616C63756C6174656429210A002016
:100C3000213D2000454550524F4D20435243206DE9
:100C400069736D61746368202D202873746F7265F9
:100C5000642920002053697A653A2000496E646552
:100C6000783A2000204D61726C696E3D5635382906
:100C70000A0028454550524F4D3D00454550524FC2
:100C80004D2076657273696F6E206D69736D617446
:100C90006368200024F4D43050C38E20C2A24017D1
:100CA000828B7011127A910D816CD90AA861E108CA
:100CB000C7586607615143061E4B5D05C145A70431
:100CC0001A411104093D9803713931034036DB02A2
:100CD00065339102D4305402802E1D02632CEE0144
:100CE000752AC501B028A001102781018F25640154
:100CF0002B244B01E0223401AC211F018D200D017A
:100D0000801FFC00841EED00971DDF00B81CD20080
:100D1000E61BC600201BBC00641AB200B219A80072
:100D20000A19A0006A189900D117910040178B008A
:100D3000B516840031167E00B31579003A1573009C
:100D4000C7146F0058146A00EE136600881363001E
:100D500025135E00C7125B006C1257001512540079
:100D6000C111510070114F0021114B00D6104900E4
:100D70008D1047004610440002104200C00F400092
:100D8000800F3E00420F3C00060F3B00CB0E3800A8
:100D9000930E37005C0E3500270E3400F30D320041
:100DA000C10D3100900D3000600D2E00320D2D0070
:100DB000050D2C00D90C2B00AE0C2900850C290048
:100DC0005C0C2700350C27000E0C2600E80B2400D5
:100DD000C40B2400A00B23007D0B23005A0B210021
:100DE000390B2100180B2000F80A1F00D90A1E0039
:100DF000BB0A1E009D0A1D00800A1D00630A1C001C
:100E0000470A1B002C0A1B00110A1A00F7091A00D6
:100E1000DD091900C4091900AB091900920917006E
:100E20007B091800630917004C09160036091600E3
:100E3000200916000A091500F5081500E00814003D
:100E4000CC081400B8081400A4081400900813007B
:100E50007D0812006B0813005808120046081200A3
:100E600034081100230811001208110001081100B4
:100E7000F0071000E0071000D0071000C0071000B6
:100E8000B0070F00A107100091070E0083070F00A5
:100E900074070F0065070E0057070E0049070E0084
:100EA0003B070D002E070E0020070D0013070D0055
:100EB00006070D00F9060C00ED060D00E0060C001B
:100EC000D4060C00C8060C00BC060C00B0060C00D2
:100ED000A4060B0099060C008D060B0082060B0081
:100EE00077060B006C060B0061060A0057060B0024
:100EF0004C060A0042060A0038060A002E060A00BE
:100F000024060A001A060A001006090007060A004D
:100F1000FD050900F4050900EB050900E2050900DB
:100F2000D9050900D0050900C7050900BE0509005B
:100F3000B5050800AD050800A50509009C050800D9
:100F4000940508008C050800840508007C0508004D
:100F5000740508006C050700650508005D050700BD
:100F6000560508004E050700470507004005080024
:100F700038050700310507002A050700230507008B
:100F80001C050600160507000F05070008050600EA
:100F900002050700FB040600F5040700EE04060046
:100FA000E8040600E2040700DB040600D50406009E
:100FB000CF040600C9040600C3040600BD040600F1
:100FC000B7040600B1040500AC040600A604060040
:100FD000A00405009B04060095040500900406008B
:100FE0008A04050085040500800406007A040500D3
:100FF00075040500700405006B0405006604050017
:10100000610405005C040500570405005204050056
:101010004D04050048040500430405003E04040097
:101020003A04050035040500300404002C040500D2
:1010300027040400230405001E0404001A0404000D
:1010400016040500110404000D0404000904050041
:101050000404040000040400FC030400F80304007A
:10106000F4030400F0030400EC030400E8030400AC
:10107000E4030400E0030400DC030400D8030400DC
:10108000D4030400D0030400CC030400C80303000D
:10109000C503030024F404D9201BC40C5C0E98047F
:1010A000C4095F0265077101F405F900FB04B30090
:1010B00048048700C1036900580355000303450035
:1010C000BE023A008402310053022A0029022500A0
:1010D00004022000E4011C00C8011900AF01170040
:1010E00098011400840113007101100061011000C7
:1010F00051010E0043010D0036010B002B010B00C6
:1011000020010B00150109000C0109000301080072
:10111000FB000800F3000800EB000700E4000600F5
:10112000DE000600D8000600D2000600CC00050054
:10113000C7000500C2000500BD000400B90004009E
:10114000B5000400B1000400AD000400A9000400D3
:10115000A5000300A20003009F0004009B00030001
:101160009800030095000200930003009000030024
:101170008D0002008B000300880002008600020040
:1011800084000300810002007F0002007D00020055
:101190007B00020079000200770001007600020067
:1011A0007400020072000100710002006F00020072
:1011B0006D0001006C0002006A000100690002007D
:1011C0006700010066000100650001006400020084
:1011D0006200010061000100600001005F00020088
:1011E0005D0001005C0001005B0001005A0001008D
:1011F000590001005800010057000100560001008D
:10120000550001005400010053000000530001008C
:101210005200010051000100500001004F00010088
:101220004E0000004E0001004D0001004C00010086
:101230004B0000004B0001004A0001004900010082
:10124000480000004800010047000100460000007F
:101250004600010045000000450001004400010077
:101260004300000043000100420000004200010072
:101270004100000041000100400001003F0000006B
:101280003F0001003E0000003E0001003D00000064
:101290003D0001003C0000003C0000003C0001005B
:1012A0003B0000003B0001003A0000003A00010052
:1012B000390000003900010038000000380000004B
:1012C0003800010037000000370001003600000040
:1012D0003600000036000100350000003500000037
:1012E000350001003400000034000000340001002B
:1012F0003300000033000000330001003200000022
:101300003200000032000100310000003100000016
:10131000310001003000000030000000300001000A
:101320002F0000002F0000002F0000002F00010000
:101330002E0000002E0000002E0001002D000000F5
:101340002D0000002D0000002D0001002C000000E9
:101350002C0000002C0000002C0001002B000000DD
:101360002B0000002B0000002B0001002A000000D1
:101370002A0000002A0000002A00010029000000C5
:1013800029000000290000002900000029000100B8
:1013900028000000280000002800000028000000AD
:1013A000280001002700000027000000270000009F
:1013B0002700000027000100260000002600000092
:1013C0002600000026000000260001002500000085
:1013D0002500000025000000250000002500000079
:1013E000250001002400000024000000240000006B
:1013F000240000002400010023000000230000005E
:101400002300000023000000230000002300000050
:101410002300010022000000220000002200000042
:101420002200000022000000220001002100000034
:101430002100000021000000210000002100000028
:101440002100000021000100200000002000000019
:10145000200000002000000020000000200000000C
:1014600020000000200001001F0000001F000000FD
:101470001F0000001F0000001F0000001F000000F0
:101480001F0001001E0000001E0000001E000000E2
:101490001E000000043700001E290000511B000040
:1014A0005810000010090000CC0400007802000071
:1014B0004101000020746F6F206C6F6E67206578AB
:1014C00074727573696F6E2070726576656E74657F
:1014D000640A0020636F6C642065787472757369A8
:1014E0006F6E2070726576656E7465640A00626561
:1014F000640A002C2073797374656D2073746F70A7
:1015000070656421204865617465725F49443A20C2
:10151000004265642068656174696E672066616970
:101520006C65640045312048656174696E672066AA
:1015300061696C65640045322048656174696E6755
:10154000206661696C6564004B494C4C45442E2013
:1015500000202F002040002042403A0020403A0066
:101560006F6B0020573A0020573A004D313133203D
:101570005300205A3A0020423A0020436F756E749F
:1015800020413A0020453A00205A3A0020593A00BA
:10159000583A002C20002C20003A004361703A0099
:1015A000544845524D414C5F50524F544543544965
:1015B0004F4E004155544F5245504F52545F534483
:1015C0005F53544154555300454D455247454E4392
:1015D000595F50415253455200434153455F4C4976
:1015E0004748545F4252494748544E45535300546C
:1015F0004F47474C455F4C494748545300534F466B
:1016000054574152455F504F574552004255494C3F
:10161000445F50455243454E54004C4556454C4955
:101620004E475F44415441005A5F50524F4245007B
:101630004155544F4C4556454C005052494E545F0D
:101640004A4F420050524F47524553530041555460
:101650004F5245504F52545F54454D5000564F4CD9
:10166000554D455452494300454550524F4D005346
:10167000455249414C5F584F4E5F584F46460046D1
:1016800049524D574152455F4E414D453A4D617269
:101690006C696E20312E312E392E35202847697421
:1016A0006875622920534F555243455F434F444567
:1016B0005F55524C3A68747470733A2F2F6769748F
:1016C0006875622E636F6D2F4D61726C696E46692D
:1016D000726D776172652F4D61726C696E20505228
:1016E0004F544F434F4C5F56455253494F4E3A313A
:1016F0002E30204D414348494E455F545950453A9C
:101700003344205072696E746572204558545255A6
:101710004445525F434F554E543A32205555494443
:101720003A63656465326132662D343161322D343D
:101730003734382D396231322D63353563363266B0
:1017400033363766660A0020540020520041636336
:10175000656C65726174696F6E3A20500057415232
:101760004E494E4721204C6F77205A204A65726BB4
:10177000206D6179206C65616420746F20756E77CF
:10178000616E746564207061757365732E0A00481C
:10179000617264636F6465642044656661756C742E
:1017A0002053657474696E6773204C6F616465645F
:1017B0000A00DC050000DC050000DC050000DC059B
:1017C000000000007A4400007A4400007A440000DF
:1017D000C8420000A0420000A042000048440000AF
:1017E0004C433A0A0020286D6D290020204D3835E1
:1017F00031205A005A2D50726F6265204F66667311
:1018000065740020440020490020204D33303420EE
:10181000500020440020490020204D33303120501A
:101820000020440020490020500020204D3330315A
:101830002045005049442073657474696E67733A9B
:101840000A00205A00204A00202047323920572021
:101850004900205A0020204D343230205300417579
:10186000746F20426564204C6576656C696E673ADA
:101870000A0020590020580020204D3231382054D1
:1018800000486F74656E64206F6666736574733AA2
:101890000A00205A0020590020204D3230362058AE
:1018A00000486F6D65206F66667365743A0A0020A4
:1018B0004500205A00205900205800205400205391
:1018C0000020204D32303520510020453C6D61789C
:1018D0005F655F6A65726B3E0020583C6D61785FA2
:1018E000785F6A65726B3E20593C6D61785F795F05
:1018F0006A65726B3E205A3C6D61785F7A5F6A65FB
:10190000726B3E00416476616E6365643A20513CBF
:101910006D696E5F7365676D656E745F74696D6523
:101920005F75733E20533C6D696E5F6665656472DA
:101930006174653E20543C6D696E5F7472617665BA
:101940006C5F66656564726174653E0020540020BA
:10195000520020204D323034205000416363656CCA
:1019600065726174696F6E2028756E6974732F7368
:1019700032293A20503C7072696E745F616363650E
:101980006C3E20523C726574726163745F61636384
:10199000656C3E20543C74726176656C5F61636374
:1019A000656C3E0A00204500205A00205900202086
:1019B0004D3230312058004D6178696D756D204190
:1019C0006363656C65726174696F6E2028756E69FA
:1019D00074732F7332293A0A00204500205A0020E0
:1019E000590020204D3230332058004D6178696D08
:1019F000756D206665656472617465732028756E07
:101A00006974732F73293A0A00204500205A002078
:101A1000590020204D3932205800537465707320CE
:101A200070657220756E69743A0A0020204D32305C
:101A3000302044300A0020204D32303020543120F4
:101A4000440020204D32303020440020446973612E
:101A5000626C65640A0046696C616D656E74207322
:101A6000657474696E67733A002020473231202014
:101A700020203B00545249474745524544006F706F
:101A8000656E003A20005375626469766964656426
:101A90002077697468204341544D554C4C20524F77
:101AA0004D204C6576656C696E6720477269643AB3
:101AB0000A003C3C3C20646F5F686F6D696E675F35
:101AC0006D6F766528005B00290A002C20002C2011
:101AD000003E3E3E20646F5F686F6D696E675F6DAC
:101AE0006F7665280047322F47332062616420708B
:101AF0006172616D65746572730A0020280041424D
:101B00004C2041646A7573746D656E74205A0020B0
:101B1000480020570020590042696C696E65617267
:101B200020477269642058005A20466164653A2053
:101B3000002028656E61626C6564290A00202864B3
:101B4000697361626C6564290A0042494C494E45DB
:101B50004152004175746F20426564204C65766582
:101B60006C696E673A2000204E6F7A7A6C65290A9C
:101B70000020262041626F76650020262053616D8B
:101B800065205A2061730020262042656C6F770023
:101B90002D4261636B002028526967687400205AE7
:101BA0003A0020593A0050726F6265204F666673A2
:101BB000657420583A004649585F4D4F554E54457C
:101BC000445F50524F42450A0050726F62653A209E
:101BD00000436F72650A004D616368696E65205449
:101BE0007970653A200050726F7465637465642083
:101BF00050696E0A005374616E64617264204465BA
:101C000076696174696F6E3A20002052616E676573
:101C10003A2000204D61783A2000204D696E3A202C
:101C2000004D65616E3A200046696E6973686564AF
:101C3000210A002072616E67653A2000206D61788C
:101C40003A2000206D696E3A2000207369676D614B
:101C50003A2000206D65616E3A20003A207A3A20E1
:101C600000206F662000205A0020590020580047AD
:101C70006F696E6720746F3A00436C6F636B7769AE
:101C800073650A00436F756E7465722D0020446998
:101C900072656374696F6E3A2000202020616E6760
:101CA0006C653A20005374617274696E67207261CA
:101CB000646975733A2000506F736974696F6E6957
:101CC0006E67207468652070726F62652E2E2E0A12
:101CD000003F4E756D626572206F66206C6567739C
:101CE00020696E206D6F76656D656E74206E6F7401
:101CF00020706C61757369626C652028302D3135F8
:101D0000292E0A003F2028582C5929206F7574204D
:101D10006F6620626F756E64732E0A003F53616DAB
:101D2000706C652073697A65206E6F7420706C61C9
:101D3000757369626C652028342D3530292E0A00B0
:101D40004D3438205A2D50726F626520526570658F
:101D500061746162696C69747920546573740A00F6
:101D60003F2856296572626F7365206C6576656CD5
:101D700020697320696D706C61757369626C652090
:101D800028302D34292E0A0020746F6F206C6F6E5E
:101D90006720657874727573696F6E2070726576EE
:101DA000656E7465640A0020636F6C6420657874E6
:101DB000727573696F6E2070726576656E74656496
:101DC0000A00627573793A207061757365642066E4
:101DD0006F7220696E7075740A00627573793A20AB
:101DE00070617573656420666F7220757365720A21
:101DF00000627573793A2070726F63657373696EF0
:101E0000670A004B494C4C2063617573656420621E
:101E10007920746F6F206D75636820696E616374DB
:101E20006976652074696D65202D20637572726511
:101E30006E7420636F6D6D616E643A2000205A00ED
:101E4000205900580020204D61783A2000205A0087
:101E5000205900580020204D696E3A20004F6E2016
:101E6000004F666600536F667420656E6473746F0E
:101E700070733A2000486F74656E64206F666673F5
:101E80006574733A0020466C6F773A2000206F75B6
:101E900074206F662072616E67650A005365727602
:101EA0006F20003A200020536572766F2000546F37
:101EB0006F206661722066726F6D20726566657252
:101EC000656E636520706F696E740A00496E766195
:101ED0006C69642065787472756465720A00416388
:101EE000746976652045787472756465723A20006D
:101EF000203A204D6F7665206261636B0A002020D6
:101F000064657374696E6174696F6E3D00207D0A4B
:101F1000002C20004F666673657420546F6F6C2030
:101F20005859206279207B20004E6F206D6F7665B6
:101F3000206F6E20746F6F6C6368616E67650A0056
:101F40007A5F6D696E00795F6D696E00785F6D69AB
:101F50006E005265706F7274696E6720656E64738F
:101F6000746F70207374617475730A0070012C01B2
:101F700090012701B0012201C0011D01F0011801EB
:101F80001002130130020E016002090190020401E7
:101F9000C002FF000003FA004003F5008003F000D8
:101FA000D003EB002004E6007004E100E004DC0054
:101FB0004005D700C005D2004006CD00D006C800BD
:101FC0008007C3003008BE00F008B900C009B400A3
:101FD000B00AAF00B00BAA00D00CA500000EA00004
:101FE000500F9B00C01096005012910000148C00FE
:101FF000C0158700B0178200B0197D00D01B780093
:10200000001E730040206E0090226900F0246400DE
:1020100040275F0090295A00E02B5500102E5000F9
:1020200020304B0010324600E033410090353C0038
:102030001037370070383200A0392D00B03A280030
:10204000A03B2300603C1E00103D1900903D140091
:10205000103E0F00703E0A00C03E0500003F000029
:10206000403FFBFF803FF6FFC03FF1FF0000210033
:10207000240027002A002D00300033000101000059
:10208000040107010A0100002200250028002B009E
:102090002E003100340002010000050108010B018F
:1020A000000020002300260029002C002F00320011
:1020B00000010000030106010901050505050705EA
:1020C00008080808020202020A0A080804040404B4
:1020D00001010101010101010303030303030303E0
:1020E000040707070C0C0C0C0C0C0C0C020202026F
:1020F00006060606060606060B0B0B0B0B0B0B0B58
:102100000102102020080810204010204080020109
:1021100002010804020101020408102040808040EE
:1021200020100804020180040201804020100804ED
:10213000020108040201010204081020408001028B
:1021400004081020408000000A0B02090C0D0E0844
:102150000703040100000000000000000000000070
:10216000000000000000000000000000000000006F
:10217000000012111000000000000000000000002C
:102180000000000000000000000000004572726FB7
:10219000722077726974696E6720746F20454550AC
:1021A000524F4D210A003C3C3C204732390A002066
:1021B000636F72726563746564205A3A00473239FE
:1021C00020756E636F72726563746564205A3A009D
:1021D000203A203E2070726F62696E6720636F6DD7
:1021E000706C6574650A00202063757272656E7488
:1021F0005F706F736974696F6E3D00202844525997
:1022000052554E2900473239204175746F2042657E
:1022100064204C6576656C696E67003F20284C2C05
:10222000522C462C4229206F7574206F6620626FF5
:10223000756E64732E0A003F2856296572626F73AB
:1022400065206C6576656C20697320696D706C61C2
:10225000757369626C652028302D34292E0A00427E
:102260006164205A2076616C75650A004E6F2062A9
:10227000696C696E65617220677269640A003C3C32
:102280003C204732390A003E204175746F2D6C6541
:1022900076656C206E6F74206E65656465642C20B5
:1022A000736B69700A00203A203E3E3E2047323967
:1022B0000A00202063757272656E745F706F7369B7
:1022C00074696F6E3D002066697273740A005A006B
:1022D00059005800486F6D6520006563686F3A00CB
:1022E0004572726F723A0042454420544845524D3F
:1022F000414C2052554E41574159004531205448D8
:1023000045524D414C2052554E415741590045329E
:1023100020544845524D414C2052554E4157415949
:10232000005072696E7465722068616C7465642E09
:10233000206B696C6C28292063616C6C6564210AD0
:10234000000000000000000000000000003C3C3CD9
:10235000207365745F617869735F69735F61745F2F
:10236000686F6D652800203A200A0020206375728E
:1023700072656E745F706F736974696F6E3D005D36
:10238000203D20003E20686F6D655F6F6666736557
:10239000745B003E207A70726F62655F7A6F66666A
:1023A000736574203D20002A2A2A205A20484F4D68
:1023B000454420574954482050524F424520285AFE
:1023C0005F4D494E5F50524F42455F555345535FF5
:1023D0005A5F4D494E5F454E4453544F505F5049EC
:1023E0004E29202A2A2A0A003E3E3E207365745F49
:1023F000617869735F69735F61745F686F6D652889
:1024000000000020420000204200002041000000A7
:10241000005761726E696E673A20486F6D696E672A
:102420002042756D702044697669736F72203C207C
:10243000310A000202040000A0400000A040000099
:1024400000400000524300808E43000055433C3C56
:102450003C20686F6D65617869732800203A203EE2
:10246000204146544552207365745F617869735FFB
:1024700069735F61745F686F6D650A002020637522
:102480007272656E745F706F736974696F6E3D0010
:10249000486F6D65203220536C6F773A0A004D6F9C
:1024A000766520417761793A0A00486F6D65203181
:1024B00020466173743A0A00FFFFFF3E3E3E2068EB
:1024C0006F6D65617869732800556E6B6E6F776EFE
:1024D00020636F6D6D616E643A202200203A203CCB
:1024E0003C3C2072756E5F7A5F70726F62650A00A5
:1024F000202063757272656E745F706F73697469A2
:102500006F6E3D002044697363726570616E63791C
:102510003A00326E642050726F6265205A3A002091
:102520003A203C3C3C2072756E5F7A5F70726F623D
:10253000650A00202063757272656E745F706F7338
:102540006974696F6E3D00534C4F572050726F6233
:1025500065206661696C210A003173742050726FC6
:102560006265205A3A00203A203C3C3C2072756E4D
:102570005F7A5F70726F62650A0020206375727205
:10258000656E745F706F736974696F6E3D0046416C
:1025900053542050726F6265206661696C210A0095
:1025A000203A203E3E3E2072756E5F7A5F70726FF9
:1025B00062650A00202063757272656E745F706FC9
:1025C000736974696F6E3D003C3C3C2070726F62B1
:1025D000655F70740A0050726F62696E6720666191
:1025E000696C65640A00205A3A200020593A20009C
:1025F00042656420583A2000203A200A00202063D7
:10260000757272656E745F706F736974696F6E3D19
:10261000005F72656C6174697665290A002C200080
:102620002C20002C20002C20003E3E3E2070726F9B
:1026300062655F70742800526573656E643A2000AD
:1026400090CE11241FBECFEFD1E2DEBFCDBF00E0A0
:102650000CBF15E0A0E0B2E0E8E6F6EB01E00BBF4E
:1026600002C007900D92AA34B107D9F726E1AAE477
:10267000B5E001C01D92A937B207E1F713E1C1E24D
:10268000D3E100E006C021970109802FFE010E94DE
:10269000C3DAC032D10780E00807A9F70E94BDC89D
:1026A0000C9432DB0C9400002F923F924F925F9279
:1026B0006F927F928F929F92AF92BF92CF92DF9252
:1026C000EF92FF920F931F93CF93DF93CDB7DEB7B7
:1026D000C558D1090FB6F894DEBF0FBECDBF11E0CB
:1026E00010939911809132068D3409F4F3C4843526
:1026F00011F40C94532A873411F00C94962B2091EA
:102700003006309131062C31310509F46FC084F464
:10271000243031054CF42230310554F537FDD6C450
:102720000E9439860C94982B2430310551F1CEC487
:102730002A32310509F4E4C34CF42D31310509F492
:1027400006C32E31310509F406C3C0C42B3531054B
:1027500009F4B2C42C35310509F4B4C42A35310565
:1027600009F0B4C410924F051092E2110C94982B0A
:1027700081E02230310509F080E00E94EB7F0C946B
:10278000982B80E50E943830882329F00E947E2F04
:102790006B017C0103C0C12CD12C760183E50E9422
:1027A0003830882361F00E94BE2F20E030E04AE7F5
:1027B00054E40E94C3D30E9411D96B017C010E9492
:1027C00059A00E9406ABC60ED71EE81EF91E0E9435
:1027D00006ABDC01CB018C199D09AE09BF09B7FD21
:1027E00002C00C94982B0E943990F1CF0E9469B0DE
:1027F00021E040E050E0BA0180E00E94079A809119
:10280000271385FF0EC0E2ECF2E084918F010F5F89
:102810001F4F882321F00E94A631F801F6CF0E94B5
:102820005D7E809116138770873071F58FE40E946A
:102830003830882369F00E94AF2F882329F18091D6
:10284000271385FD02C00C94982BE7EAF2E004C040
:102850008FE40E94F12FF1CF84918F010F5F1F4F02
:10286000882321F00E94A631F801F6CFEEE9F2E0CC
:1028700084918F010F5F1F4F882311F40C94982BC4
:102880000E94A631F801F4CF0E9459A080E00E9476
:1028900036392091171228962FAF289721E040E073
:1028A00050E0BA0180E00E94079A0E94AE38809101
:1028B000271385FF0CC0E5E8F2E084918F010F5FDC
:1028C0001F4F882321F00E94A631F801F6CF11E0B6
:1028D0001093F30588E50E94F12F22968FAF22977F
:1028E00089E50E94F12F282E8AE50E94F12F269675
:1028F0008FAF269722963FAD2297311105C0211048
:1029000005C0382E312607C0211002C0312C03C06B
:1029100026963FAC26970E94923182E50E9438307D
:10292000882369F00E94BE2F6B017C0120E030E01B
:10293000A9010E945ED3882309F43FC006C0C12CC0
:10294000D12C40EAE42E40E4F42E311008C0229647
:102950004FAD2297411103C0222009F433C1C09228
:102960002B12D0922C12E0922D12F0922E12209166
:102970003F12309140124091411250914212C701D2
:10298000B6010E94EED91816C4F48091271385FF72
:1029900009C0B701A60189E692E00E941B508AE0B7
:1029A0000E94A63119821A821B821C82BE016F5FAF
:1029B0007F4F8BE292E10E948A37311009C0229644
:1029C0005FAD2297552309F4ECC0222009F4F5C02D
:1029D00010923B1210923C1210923D1210923E1235
:1029E00010923712109238121092391210923A1235
:1029F0000E94D838E8EBF4E2949129969FAF29978A
:102A0000E2E4F4E285909590A590B490E6E4F4E2D7
:102A1000C590D590E590F490A7019601C501B40149
:102A20000E94EED918162CF4A5019401C701B60135
:102A300004C0A7019601C501B4010E94A4D82B01CE
:102A40003C01E5E0F4E2259135914591549129AF9F
:102A50003AAF4BAF5CAFE1E0F4E285919591A5917F
:102A6000B49121968CAF9DAFAEAFBFAF2197BC01A3
:102A7000CD010E945ED387FD09C019AD0AAD9BADA3
:102A800027969FAF2797ACADA9AF0AC01DAD0EAD7D
:102A9000BFAD2796BFAF27972196EFAD2197E9AF3E
:102AA000A3019201C301B2010E94C3D320E030E030
:102AB00040E85FE30E94C8D70E9433DA9B01AC0173
:102AC000612F702F27968FAD279799AD0E94C3D3A2
:102AD00069837A838B839C83E9EBF4E214912091E0
:102AE0003F1230914012409141125091421229AF51
:102AF0003AAF4BAF5CAF20E030E040EC5FE3C701A2
:102B0000B6010E94C3D36B017C01612F110F770BBB
:102B1000880B990B0E9464D39B01AC01C701B601DD
:102B20000E94C3D32B013C0120E030E040EC5FE386
:102B3000C501B4010E94C3D36B017C0129963FAD4E
:102B40002997632F330F770B880B990B0E9464D35F
:102B50009B01AC01C701B6010E94C3D3AE014F5F18
:102B60005F4F6A01E9ACFAAC0BAD1CADA301920159
:102B70000E9459360E94957510923B1210923C1299
:102B800010923D1210923E1210923712109238128B
:102B90001092391210923A12311005C0211003C060
:102BA00007C0222079F081E00E94A8BE311005C044
:102BB00022968FAD2297882329F080E00E94A8BE3C
:102BC000311006C026965FAD2697552309F498C0AC
:102BD0008091161383708330C9F0EAEDF2E284919C
:102BE0008F010F5F1F4F882321F00E94A631F8014B
:102BF000F6CFE1E5F2E084918F010F5F1F4F88234C
:102C000009F47EC00E94A631F801F5CF8091271308
:102C100085FF0CC0EEE3F2E084918F010F5F1F4F40
:102C2000882321F00E94A631F801F6CF0E94D838FF
:102C300080913F1290914012A0914112B0914212A6
:102C400080932B1290932C12A0932D12B0932E12DE
:102C500080E090E0A0EAB2E48093231290932412E3
:102C6000A0932512B093261280E090E0A2EDB2E48A
:102C70008093271290932812A0932912B0932A12BE
:102C80008091271385FF08C043E252E16DE172E0B5
:102C90008FE292E00E94A83719821A821B821C825E
:102CA000E0903F12F09040120091411210914212B8
:102CB00020912712309128124091291250912A1206
:102CC0006091231270912412809125129091261206
:102CD000DE0111966D010E94593682E00E94A8BE65
:102CE0008091271385FF0CC0EAE0F2E084918F0108
:102CF0000F5F1F4F882321F00E94A631F801F6CF05
:102D00000E94D8388091F2058093F3050E948A389A
:102D100021E040E050E0BA0128968FAD28970E944C
:102D2000079A0E943F6F8091271385FD02C00C9483
:102D3000982BE0E6F2E084918F010F5F1F4F88230C
:102D400011F40C94982B0E94A631F801F4CF0E9444
:102D5000A4B20C94982BC0903712D0903812E09007
:102D60003912F0903A1288E50E943830811109C07A
:102D700020E030E040EA51E4C701B6010E94C8D724
:102D800002C00E94BE2F6BAB7CAB8DAB9EABC090E4
:102D90003B12D0903C12E0903D12F0903E1289E53B
:102DA0000E943830811109C020E030E040E052E458
:102DB000C701B6010E94C8D702C00E94BE2F9B0166
:102DC000AC0169837A838B839C836BA97CA98DA9D1
:102DD0009EA90E94A7C0882311F40C94982B80E030
:102DE0000E9436390E94AE3885E40E94383088232C
:102DF00021F00E94AF2F182F04C085E40E94F12F0C
:102E000011E086E50E943830882321F00E948E2F41
:102E1000262F01C021E0412FBE016F5F7F4FCE0101
:102E2000C3960E9480C16B017C019B01AC010E9492
:102E300074DA81115FC08BA89CA8ADA8BEA820E061
:102E400030E0A901C501B4010E945ED387FD05C031
:102E500027E137EB41E558E304C027E137EB41E5D3
:102E600058EBC501B4010E94C8D7AB01BC0185ED88
:102E700092E00E941B5089809A80AB80BC8020E049
:102E800030E0A901C501B4010E945ED387FD05C0F1
:102E900027E137EB41E558E304C027E137EB41E593
:102EA00058EBC501B4010E94C8D7AB01BC0180ED4D
:102EB00092E00E941B5020E030E0A901C701B6015A
:102EC0000E945ED387FD05C027E137EB41E558E35B
:102ED00004C027E137EB41E558EBC701B6010E947A
:102EE000C8D7AB01BC018BEC92E00E941B508AE07A
:102EF0000E94A6310E948A380E943F6F0C94982B42
:102F000080913102882311F40C94982B89E40E945B
:102F10003830182F882321F00E948E2FE62E01C012
:102F2000E12C8AE40E943830082F882331F00E9477
:102F30008E2FF62E111104C00BC0F12C1123C1F0FD
:102F4000B4E0BE1510F00C94132EEDEDF2E004C0C9
:102F5000E4E0EF15D0F30CC084918F010F5F1F4F99
:102F6000882311F40C94982B0E94A631F801F4CF19
:102F70000E9492311123F1F0209105113091061138
:102F80004E2D4203B001439F700D11248091080A19
:102F90009091090A680F791F072E000C880B990B76
:102FA0000E9464D36093231270932412809325129D
:102FB000909326120023F1F020910711309108110F
:102FC0005F2D5203B001539F700D112420910A0A06
:102FD00030910B0A620F731F072E000C880B990BA0
:102FE0000E9464D360932712709328128093291251
:102FF00090932A1280E50E9438308823E9F00E94DD
:10300000AF2F8823A9F11123D9F020E030E040EA66
:1030100051E46091231270912412809125129091B5
:1030200026120E94C7D760932312709324128093B4
:1030300025129093261204C080E50E94F12FE1CF63
:103040000023B1F020E030E040E052E4609127122C
:10305000709128128091291290912A120E94C7D74C
:1030600060932712709328128093291290932A124A
:1030700086E40E9438308823D9F00E94BE2F6B016D
:103080007C0120E030E0A9010E94EED9181684F4FA
:1030900020E030E040E752E4C701B6010E94A4D826
:1030A000609366027093670280936802909369024E
:1030B0000E9470940C94982B10934F051093E2117A
:1030C0000C94982B0E94BC8E0C94982B0E945FC489
:1030D0000C94982B8091300690913106823791059F
:1030E00011F40C94B7200CF0D2C08B34910509F484
:1030F00055C60CF055C08B33910509F43BC354F50C
:103100008F31910509F477C284F48131910509F476
:103110006EC22CF4029708F4E4C10C94502A429732
:1031200011F40C94AF200C94502A8033910509F4CB
:1031300095C22CF48A9709F483C20C94502A8933DF
:10314000910509F48FC2CA9711F00C94502A01E23C
:1031500013E0A6C28034910509F432C47CF48D33A7
:10316000910509F4D7C30CF44BC38E33910509F4D0
:10317000F1C3CF9709F409C40C94502A8334910504
:1031800009F420C514F00C94982B8134910511F4A6
:103190000C94982B8234910509F472C40C94502A33
:1031A0008C35910509F4DFC7BCF58035910509F42C
:1031B00036C59CF48D34910509F4F8C50CF4F2C5BC
:1031C0008E34910509F4F6C58F34910511F00C94F5
:1031D000502A8CE893E00E9428C18335910509F4B8
:1031E000B9C76CF48135910509F4B0C782359105F2
:1031F00011F00C94502A10924E050C94982B8435A3
:10320000910509F4ACC78535910511F00C94502A4D
:103210000E94E3700C94982B8C36910511F40C9459
:10322000982BC4F48936910509F452C734F48836D2
:10323000910509F4C0C60C94502A8A36910509F408
:1032400081C78B36910511F00C94502A0E94EC74C2
:103250000C94982B8F36910509F4ECC654F48D36F6
:10326000910509F43FC78E36910509F4D0C60C9438
:10327000502A8037910511F40C94982B81379105D1
:1032800011F00C94502A0E9466710C94982B88318E
:10329000A1E09A0711F40C948B210CF084C0883CB7
:1032A000910509F4BBC70CF03FC08837910509F4BC
:1032B000AFC7E4F48537910511F40C94982B4CF4C6
:1032C0008337910511F00C94502A0E94F06E0C94F3
:1032D000982B8637910509F44EC78737910511F071
:1032E0000C94502A0E94A9A80C94982B8C38910514
:1032F00009F4FEC65CF48937910511F00C94502A4C
:103300001092F3051092F2050C94982B8B399105CD
:1033100009F4E4C68E3B910511F00C94502A0E94EA
:10332000907103EB13E0E8C68E3C910509F4E3C706
:10333000DCF48B3C910509F4D6C74CF4893C91052B
:1033400011F00C94502A0E94CB6E0C94982B8C3C5C
:10335000910509F4CCC78D3C910511F00C94502ACD
:103360000E94B16D0C94982B8C3D910509F4CBC74C
:103370006CF4833D910509F4C2C78A3D910511F0B3
:103380000C94502A0E94C09E0C94982B8D3D910560
:1033900009F4BDC7823E910511F00C94502A0E9499
:1033A000DA9D0C94982B853AE1E09E0711F40C9479
:1033B0002E290CF047C0833621E0920711F40C94BB
:1033C0000228D4F48E3241E0940711F40C9449227F
:1033D00034F48D32914009F4A2C70C94502A8F32F4
:1033E000B1E09B0711F40C94A0228033914011F4BA
:1033F0000C9485270C94502A8239F1E09F0711F430
:103400000C941E2894F4803931E0930711F40C9445
:103410001B288139914011F00C94502A81E00E94C0
:10342000C7370E943F6F0C94982B8A3951E095075B
:1034300011F40C94982B843A914011F40C942428A4
:103440000C94502A873FB1E09B0711F40C94C729D4
:10345000FCF4843FF1E09F0711F40C94C1294CF473
:103460008C3A914011F00C94502A0E940F9C0C94BD
:10347000982B853F41E0940711F40C94C429863FB2
:10348000914011F00C94502A0E94ED7A0C94982BE4
:103490008335A3E09A0711F40C94F1299CF4883F3A
:1034A000E1E09E0711F40C94D0298A39924011F082
:1034B0000C94502A6FEF88E790E00E944DD70BE9FB
:1034C00013E063C48B3823E0920711F40C94982B1B
:1034D000873E934011F00C94502A0E94FC9B0C9460
:1034E000982B00912E0610912F0680E50E9438300F
:1034F000882361F00E947E2F6B017C01BB24B39472
:10350000672B682B692B31F4B12C04C0B12CC12C72
:10351000D12C760183E50E943830882311F40C9475
:10352000B12B0E94BE2F20E030E04AE754E40E9415
:10353000C3D30E9411D96B017C01B1100BC0672B62
:10354000682B692B39F40115110521F0D8018C91F4
:10355000811102C0B12C02C0BB24B3940E9459A0B7
:10356000BB20C1F0EAEDF2E284915F01BFEFAB1A3C
:10357000BB0A882321F00E94A631F501F5CFF8019E
:1035800081918F01882319F00E94A631F8CF8AE03B
:103590000E94A63183E08093991181E080934A05CF
:1035A000C114D104E104F104D9F00E9406ABC60EA7
:1035B000D71EE81EF91E0E9406ABDC01CB018C1958
:1035C0009D09AE09BF09B7FD04C010924A050C94CD
:1035D000982B80914A058823C1F30E943990EBCF44
:1035E00080914A05882389F30E943990F9CF0E947F
:1035F00066940C94982B0E94866C6BAB7CAB8DAB65
:103600009EABBE016F5F7F4FCE01C3960E944430D8
:10361000EAEDF2E284918F010F5F1F4F882321F0C2
:103620000E94A631F801F6CFBE016F5F7F4F8CEF8D
:1036300092E00E9494508AE00E94A6310C94982B4C
:1036400083E50E94383081110C94B62B84E40E94EB
:10365000383081110C94B62B0C94982B0E944D8914
:103660000C94982B20910206309103064091040699
:10367000509105066091E3117091E4118091E5117C
:103680009091E6110E94C7D760932B1270932C1271
:1036900080932D1290932E120E9470940C94982B6C
:1036A000D8018D918D01882319F00E94A631F8CFA1
:1036B0008AE00E94A63120E5E22E25E0F22E3DEEC2
:1036C000C32E31E1D32E0FEE11E1412C512C3201EA
:1036D000332433944801F80180819181A281B38120
:1036E000F70181939193A193B1937F01D6013D920C
:1036F0006D0184E4A82E83E0B82EF50181915F016D
:10370000882319F00E94A631F8CFC301B2010E94AC
:10371000E232BBE7AB2EB4E0BB2ED5018D915D014B
:10372000882319F00E94A631F8CF0C5F1F4FF401D7
:10373000608171818281938142E00E94C5348AE078
:103740000E94A6314A9445284628472829F0412C52
:10375000512C32014394BECF1092EC111092EB1118
:103760001092E3111092E4111092E5111092E611FB
:103770000C94982B109218121092ED111092500583
:103780001092510510925205109253051092EE11AD
:103790001092540510925505109256051092570537
:1037A00006E413E0D8018D918D01882321F10E9458
:1037B000A631F8CF80912713882309F47CC4A5EAA9
:1037C000CA2EA3E0DA2EE12CF12C20E08091271301
:1037D00090E00E2C02C0959587950A94E2F780FD43
:1037E00052C4FFEFEF1AFF0A32E0C30ED11C46E0CD
:1037F000E416F10459F78AE00E94A6310C94982B44
:1038000020E030E0A9016091501270915112809136
:103810005212909153120E945ED3882381F081E06E
:103820008093181206E513E0F80181918F01882337
:1038300019F00E94A631F8CF8AE00E94A6311092BA
:10384000E7111092E8111092E9111092EA1110920A
:10385000FF11109200121092011210920212109297
:103860000312109204121092051210920612109276
:10387000E3111092E4111092E5111092E6111092EA
:10388000F7111092F8111092F9111092FA1181E0CB
:10389000809347021092EF111092F0111092F111E3
:1038A0001092F2111092071210920812109209123F
:1038B00010920A1210920F121092101210921112FE
:1038C000109212121092FB111092FC111092FD1125
:1038D0001092FE11809348021092F3111092F4118D
:1038E0001092F5111092F61110920B1210920C1208
:1038F00010920D1210920E121092131210921412B6
:1039000010921512109216121092EC111092EB11E7
:103910000C94982B0E9459A08CE40E94F12F8823CC
:1039200019F081E080933E0282E50E94F12F882306
:1039300019F081E080933D0281E40E94F12F8823F9
:1039400011F40C94982B81E080933E0280933D0209
:103950000C94982B0E9459A08CE40E94F12F8111A5
:1039600010923E0282E50E94F12F811110923D02D9
:1039700081E40E94F12F882311F40C94982B10926B
:103980003E0210923D020C94982B0E9459A08CE4A8
:103990000E94F12F811110929B1182E50E94F12F5C
:1039A000811110929A1181E40E94F12F882311F461
:1039B0000C94982B10929A1110929B110C94982BA6
:1039C00080913E02811103C005E613E04FC0809153
:1039D0003D028823C9F30AE713E0D8018D918D01D8
:1039E000882319F00E94A631F8CF8FE00E9474A9B5
:1039F000892B19F001EA14E00DC00EE814E0F8017B
:103A000081918F01882319F00E94A631F8CF0EE72B
:103A100013E008C0D8018D918D018823C1F30E9465
:103A2000A631F8CFF80181918F01882319F00E9407
:103A3000A631F8CF82E00E9474A9892B19F001EA1F
:103A400014E00BC00EE814E0D8018D918D0188239D
:103A500009F4D1CE0E94A631F7CFF80181918F01F0
:103A6000882309F4C8CE0E94A631F7CFD8018D91E2
:103A70008D01882311F40C94982B0E94A631F6CF67
:103A800081E40E94F12F882351F00E94BE2F6093A1
:103A9000E1107093E2108093E3109093E41082E4BD
:103AA0000E94F12F882351F00E94BE2F6093DD10F9
:103AB0007093DE108093DF109093E01083E40E94F7
:103AC000F12F882351F00E94BE2F6093D91070937C
:103AD000DA108093DB109093DC1084E40E94F12FC5
:103AE000882351F00E94BE2F6093D5107093D6109A
:103AF0008093D7109093D81082E50E94F12F8823ED
:103B000011F40C94982B03E813E0F80181918F01D4
:103B1000882319F00E94A631F8CF6091E1107091CE
:103B2000E2108091E3109091E41042E00E94C534CD
:103B300006E813E0D8018D918D01882319F00E94C9
:103B4000A631F8CF6091DD107091DE108091DF100A
:103B50009091E01042E00E94C53409E813E0F801BA
:103B600081918F01882319F00E94A631F8CF6091CE
:103B7000D9107091DA108091DB109091DC1042E046
:103B80000E94C53402E014E0D8018D918D01882394
:103B900019F00E94A631F8CF6091D5107091D6101F
:103BA0008091D7109091D81042E00E94C5340CE764
:103BB00013E0F80181918F01882309F41CCE0E9443
:103BC000A631F7CF85E40E94F12F882329F01092C7
:103BD000F6051092F5050BC089E40E94F12F8823A9
:103BE00031F081E090E09093F6058093F50583E550
:103BF0000E94F12F882331F081E090E09093F80546
:103C00008093F70582E50E94F12F882311F40C942C
:103C1000982B1092F8051092F7050C94982B85E5D7
:103C20000E94F12F81110E9469B084E40E94F12F5B
:103C300081110E94AFAE87E50E94F12F882331F0F9
:103C40000E94BE2F0E9411D96093380283E50E9422
:103C5000F12F882331F00E94BE2F0E9411D960936A
:103C600037028FE40E94F12F882341F00E94BE2F7B
:103C70000E940CD970933602609335028EE40E9444
:103C8000F12F882351F00E94BE2F6093F51070939E
:103C9000F6108093F7109093F8108DE40E94F12FA6
:103CA000882351F00E94BE2F6093ED107093EE10A8
:103CB0008093EF109093F01089E50E94F12F8823F4
:103CC00051F00E94BE2F6093E9107093EA10809328
:103CD000EB109093EC1088E50E94F12F882351F0AF
:103CE0000E94BE2F6093E5107093E6108093E7105A
:103CF0009093E81082E40E94F12F882351F00E94F3
:103D0000BE2F6093F1107093F2108093F310909394
:103D1000F41080E50E94F12F882331F00E94BE2F1D
:103D20000E9411D96093110281E40E94F12F88232F
:103D300059F00E94BE2F0E940CD97093100260931C
:103D40000F02CB010E945BAE84E50E94F12F882315
:103D500049F00E94BE2F0E9411D9862F6093F90569
:103D60000E9423B289E40E94F12F882311F40C945D
:103D7000982B8091F9050E9423B280910F029091B7
:103D800010020E945BAE0C94982BD8018D918D018E
:103D9000882309F430CD0E94A631F7CF0E94BC5091
:103DA0000C94982B0E94BA6C0C94982B0E941A5178
:103DB0000C94982B83E50E943830811103C0EDE903
:103DC000F3E009C00E948E2F6E347105C1F70E9486
:103DD0008A510C94982B84918F010F5F1F4F882379
:103DE00021F00E94A631F801F6CFE4E9F3E08491D6
:103DF0008F010F5F1F4F882321F00E94A631F80129
:103E0000F6CF6091E2057091E30580E090E04AE032
:103E10000E944032E7E8F3E084918F010F5F1F4F6B
:103E2000882321F00E94A631F801F6CF6091E405C5
:103E30007091E50580E090E04AE00E944032ECE7B6
:103E4000F3E084918F010F5F1F4F882321F00E94C0
:103E5000A631F801F6CF6091E2057091E3058091FB
:103E6000E4059091E505681B790B8091E005815090
:103E700021E030E0823010F020E030E0621B730B74
:103E800080E090E04AE00E9440328AE00E94A63141
:103E9000E4E7F3E084918F010F5F1F4F882321F047
:103EA0000E94A631F801F6CF8091E6059091E705D2
:103EB000A091E805B091E9058BAB9CABADABBEAB77
:103EC000BE016F5F7F4FCE01C3960E944430E7E68C
:103ED000F3E084918F010F5F1F4F811105C0FE0138
:103EE00031967F018F0104C00E94A631F801F1CF05
:103EF000D8018D918D01882319F00E94A631F8CF49
:103F00008091EA059091EB05A091EC05B091ED054B
:103F10008BAB9CABADABBEABBE016F5F7F4FCE0139
:103F2000C3960E944430E7E5F3E084918F010F5F70
:103F30001F4F882321F00E94A631F801F6CFF70128
:103F400081917F01882319F00E94A631F8CF8AE081
:103F50000E94A631EFE4F3E084918F010F5F1F4FC1
:103F6000882321F00E94A631F801F6CFEFE3F3E0B9
:103F700084918F010F5F1F4F882321F00E94A6318B
:103F8000F801F6CF20E030E04AE754E46091EE0516
:103F90007091EF058091F0059091F1050E94A4D8F1
:103FA00042E00E94C5348DE60E94A6318AE00E945C
:103FB000A6310C94982B88E690E00E94A6328111DD
:103FC0000C94982B8091271383FF02C00C94982B9C
:103FD00083E50E9438308823B1F00E94BE2F0E94F2
:103FE0000CD9DC01CB01609150100E9404310E9479
:103FF000BE2F20E030E04AEA52E40E945ED3181659
:1040000014F00E941A510E949A510C94982B8EE43D
:104010000E943830882311F40C94982B0E948E2F24
:1040200060935612709357128093581290935912BE
:104030000C94982B83E50E94F12F882359F083E597
:104040000E943830882319F00E949E2F01C080E022
:1040500080932713EAEDF2E284918F010F5F1F4FE7
:10406000882321F00E94A631F801F6CFE5EBF3E0BA
:1040700084918F010F5F1F4F882309F49BCB0E940F
:10408000A631F801F5CFBB24B394B20E222319F068
:104090008CE20E94A631F60125913491F9018491B8
:1040A00089010F5F1F4F882321F00E94A6319801DC
:1040B000F5CF2B2D96CBE1EBF3E084918F010F5FD1
:1040C0001F4F882309F497CB0E94A631F801F5CF42
:1040D0000E944575109299110C941C2E0E94177520
:1040E0000C94982B0E943F730E9416AE0C94982B50
:1040F0000E9426730C94982BD8018D918D018823F2
:1041000019F00E94A631F8CF83E50E94F12F882391
:1041100011F40C94982B0AEC13E0F80181918F01B3
:10412000882319F00E94A631F8CF0E948E2F072E07
:10413000000C880B990B0E94E2328AE00E94A631A3
:104140000C94982B0E94FB740C94982B0E9458712D
:104150000C94982B81E080934E050C94982B0E9430
:10416000FB700C94982B0E9445700C94982B0E9425
:104170000A700C94982B00912E0610912F0683E064
:10418000D12C40E08150E9F0D8019C91292F2B7F60
:104190002134C1F711962C912133A1F7913421F0EC
:1041A000953421F441E002C0DD24D39498012E5FC0
:1041B0003F4F89012F5F3F4FF80190819032C9F343
:1041C000E1CF442369F0EAEDF2E284917F012FEF21
:1041D000E21AF20A882321F00E94A631F701F5CFF6
:1041E000DD2069F0ECEBF3E084917F013FEFE31A0F
:1041F000F30A882321F00E94A631F701F5CFD801F8
:104200008D918D01882309F4F6CA0E94A631F7CF5B
:104210001093F3051093F2050C94982B88EC90E022
:104220000E94A63281110C94982B84E40E94F12FF5
:10423000882309F454C00E94BE2F11E020E030E032
:10424000A9010E945ED3811101C010E01093D11129
:10425000112309F444C00E94BE2FE0915010B4E035
:10426000EB9FF0011124E652FE4E6083718382833E
:10427000938320E030E0A9016091DA117091DB11A5
:104280008091DC119091DD110E945ED381110CC0F0
:1042900080E090E0A0E4B0E48093DA119093DB1129
:1042A000A093DC11B093DD1120E030E0A901609112
:1042B000DE117091DF118091E0119091E1110E9467
:1042C0005ED381110CC080E090E0A0E4B0E4809364
:1042D000DE119093DF11A093E011B093E1110E94E1
:1042E000F0A50C94982B0E94A96E0C94982B0E9418
:1042F000326E0C94982B0E9412A00C94982B0E9462
:10430000349F0C94982B0E94B49E0C94982B0E947E
:104310003F9E0C94982B0E94FC9C0C94982B85E457
:104320000E943830882339F00E949E2F082F823057
:1043300008F095C001C000E080E50E94F12F8823BD
:1043400061F00E94BE2F24E0029FF0011124E45E80
:10435000FF4E608371838283938389E40E94F12FEF
:104360008823A9F00E94BE2F44E0049F90011124ED
:10437000D901AC5EBF4E7D012CEA35EC47E25EE32D
:104380000E94C3D3F701608371838283938384E4A3
:104390000E94F12F8823B1F00E94BE2FF4E00F9FFE
:1043A00090011124A9014C5D5F4E7A012CEA35EC95
:1043B00047E25EE30E94A4D8D7016D937D938D936D
:1043C0009C931397EAEDF2E284917F01BFEFEB1A21
:1043D000FB0A882321F00E94A631F701F5CF10E0F7
:1043E000B8018EED93E00E945F50000F111F000F87
:1043F000111FF801E45EFF4E40815181628173819B
:104400008AED93E00E941B50F801EC5EFF4E2CEA0F
:1044100035EC47E25EE360817181828193810E9485
:10442000A4D8AB01BC0186ED93E00E941B50F801BB
:10443000EC5DFF4E2CEA35EC47E25EE36081718172
:10444000828193810E94C3D3AB01BC0182ED93E0D2
:104450000E941B508AE00E94A6310C94982BE0EE3B
:10446000F2E284918F010F5F1F4F882321F00E9499
:10447000A631F801F6CFE0ECF3E084918F010F5FF5
:104480001F4F882311F40C94982B0E94A631F80139
:10449000F4CF83E50E94F12F182F882371F00E943A
:1044A000BE2F0E940CD9709324026093230221E056
:1044B000672B09F020E02093AB0F80E50E94F12FDD
:1044C000882361F02091230230912402232B11F0E4
:1044D0000E94AF2F8093AB0F0C94982B11110C946A
:1044E000982BEAEDF2E284918F010F5F1F4F882332
:1044F00021F00E94A631F801F6CF8091AB0F811117
:1045000003C061E173E002C06EE073E087EF93E007
:104510000E949450609123027091240286EE93E0F1
:104520000E945F50E2EEF3E084918F010F5F1F4F16
:10453000882311F40C94982B0E94A631F801F4CF33
:1045400085E40E943830882321F00E948E2F7B0161
:1045500002C0E12CF12C83E40E943830882331F032
:104560000E948E2FA0966FAFA09704C0E5E0A096A2
:10457000EFAFA09785E50E943830882319F00E949C
:10458000AF2F03C085E50E94F12FAC968FAFAC979B
:10459000F7FC07C0412C512CE6E16E2EE3E47E2EA1
:1045A00006C0412C512C7CE8672E72E4772E83E5FF
:1045B0000E943830882321F00E94BE2F2B013C013D
:1045C000F2E0EF16F10410F4E09250100E2D0E946C
:1045D00006AB4B015C01E7FC04C06DE2C62ED12C9A
:1045E00003C05AE5C52ED12C61E06E0D633070F02A
:1045F000E8EEF5E084918F010F5F1F4F882311F4DF
:104600000C94982B0E94A631F801F4CF07FD12C03C
:10461000E02FEE0FFF0BE55FFD4F608171816F5062
:104620007109072E000C880B990B0E9464D39B0123
:10463000AC0104C020E030E047E053E4C301B20124
:10464000EF962FAFEF97C158DF4F3883CF57D04049
:10465000C058DF4F4883C058D040CF57DF4F5883F2
:10466000C158D0400E940CD9072E000C880B990B22
:104670000E9464D326966FAF269727967FAF279721
:1046800028968FAF289729969FAF2997EF962FAD41
:10469000EF97C158DF4F3881CF57D040C058DF4F18
:1046A0004881C058D040CF57DF4F5881C158D040C3
:1046B0000E94EED91816D4F4E0EEF2E284918F0154
:1046C0000F5F1F4F882321F00E94A631F801F6CF1B
:1046D000E9EAF5E084918F010F5F1F4F882311F401
:1046E0000C94982B0E94A631F801F4CFE4EDF5E08C
:1046F00084917F012FEFE21AF20A882321F00E94B1
:10470000A631F701F5CF0E94AD6607FF04C08FE721
:1047100080933D1008C0E02F002E000CFF0BE55CDD
:10472000FF4E8FE780839601A8EEB3E00E94B8D7D2
:10473000E0966CAF7DAF8EAF9FAFE097DC01CB0111
:10474000880D991DAA1DBB1DEC968CAF9DAFAEAF19
:10475000BFAFEC9781E080930002A7968CAE9DAE30
:10476000AEAEBFAEA797E4968CAE9DAEAEAEBFAE7A
:10477000E497A3961FAEA397E8961CAE1DAE1EAE9F
:104780001FAEE89764961FAE649790E465969FAF5E
:104790006597ACE16696AFAF6697B6E46796BFAF34
:1047A000679768961FAE689769961FAE69976A9675
:1047B0001FAE6A976B961FAE6B9763961CAE1DAECD
:1047C0001EAE1FAE63972F961CAE1DAE1EAE1FAE63
:1047D0002F97C12CD12C76012FE730E040E050E03C
:1047E00025962CAF3DAF4EAF5FAF25973FE7432EE9
:1047F000512C612C712CAB961CAE1DAE1EAE1FAEA3
:10480000AB9731E0A2963FAFA2972B961FAE1EAE9C
:104810002B9710E019AE212C312C402F002E000CCC
:10482000550B6D965FAF4EAF6D97455C5F4EEE9644
:104830005FAF4EAFEE976D968EAD9FAD6D97880FC3
:10484000991F880F991FDC01AC5BBF4E6F96BFAFFD
:10485000AEAF6F97FE013596F8AFEFABA0962FADD8
:10486000A097022E000C330BA1963FAF2EAFA1975D
:1048700080910002882309F442C10E9406AB219670
:104880006CAF7DAF8EAF9FAF219780913A10882398
:1048900009F406C10E94D86707FF0AC010913E10B4
:1048A00030913F1039AF20904010309041100EC031
:1048B0006F96AEADBFAD6F971C911196BC91B9AF1D
:1048C0006F96EEADFFAD6F9722803380212F39AD0B
:1048D000A10168966FAD689769967FAD69976A96F2
:1048E0008FAD6A976B969FAD6B970E945ED387FFE3
:1048F0000DC068961FAF6897F9AD6996FFAF6997CD
:104900006A962FAE6A976B963FAE6B97212F39ADA3
:10491000A10164966FAD649765967FAD65976696C5
:104920008FAD669767969FAD67970E94EED9181670
:104930006CF464961FAF649729AD65962FAF6597A9
:1049400066962FAE669767963FAE6797A2963FAD85
:10495000A29726962FAD2697332309F479C0279680
:104960003FAD279728964FAD289729965FAD299799
:10497000612F79ADC1010E94EED918160CF090C0DC
:1049800021968CAD9DADAEADBFAD2197881999092B
:10499000AA09BB09CE57DF4F88839983AA83BB83BB
:1049A000C258D04088589341A109B109B7FD78C0D9
:1049B000D301C20125962CAD3DAD4EAD5FAD25971F
:1049C000821B930BA40BB50BB595A795979587956F
:1049D00007FF03C080933D1005C0EE96EEADFFAD1E
:1049E000EE978083CE57DF4F288139814A815B81E2
:1049F000C258D040AB962CAF3DAF4EAF5FAFAB9738
:104A000026963FAD269768963FAF689727964FAD9D
:104A1000279769964FAF699728965FAD28976A9652
:104A20005FAF6A9729968FAD29976B968FAF6B977B
:104A300021962CAD3DAD4EAD5FAD2197A7962CAF25
:104A40003DAF4EAF5FAFA797A2961FAEA29728C00B
:104A500027963FAD279728964FAD289729965FADAB
:104A60002997612F79ADC1010E945ED387FF18C0DD
:104A700021968CAD9DADAEADBFAD2197A7962CAD67
:104A80003DAD4EAD5FADA797821B930BA40BB50B4D
:104A9000AC01BD01485853416109710977FFAAC6AD
:104AA00020E030E040EA51E426966FAD2697279645
:104AB0007FAD279728968FAD289729969FAD299788
:104AC0000E94C8D79B01AC01612F79ADC1010E9442
:104AD000EED91816DCF4E0EEF2E284918F010F5F5C
:104AE0001F4F882321F00E94A631F801F6CFE5E39D
:104AF000F5E084918F010F5F1F4F811103C00E9469
:104B0000AD6616C60E94A631F801F3CF21968CAD92
:104B10009DADAEADBFAD2197E4962CAD3DAD4EAD94
:104B20005FADE497821B930BA40BB50BB7FDFFC0E1
:104B30000E943A658AE00E94A63121968CAD9DAD17
:104B4000AEADBFAD21978053984FAF4FBF4FE496A6
:104B50008CAF9DAFAEAFBFAFE497A3969FADA397C9
:104B6000911197C0E8962CAD3DAD4EAD5FADE89785
:104B7000612F79ADC1010E94EED918160CF049C021
:104B800020E030E040E85FE3612F79ADC1010E9491
:104B9000C8D7E8966CAF7DAF8EAF9FAFE8972196F0
:104BA0002CAD3DAD4EAD5FAD2197E0968CAD9DAD8A
:104BB000AEADBFADE097280F391F4A1F5B1FEC96C3
:104BC0002CAF3DAF4EAF5FAFEC9720E030E040EA56
:104BD00050E426966FAD269727967FAD27972896A7
:104BE0008FAD289729969FAD29970E94C7D79B0123
:104BF000AC0191E0A3969FAFA397612F79ADC1015E
:104C00000E94EED918160CF492C0A3961FAEA3977B
:104C10008EC021968CAD9DADAEADBFAD2197EC960B
:104C20002CAD3DAD4EAD5FADEC97821B930BA40B4D
:104C3000B50BB7FD7CC019821A821B821C828EE2E2
:104C4000AFA9B8AD1D928A95E9F76D96BFAD6D9786
:104C5000BF930F93ACECB3E0BF93AF9321E030E090
:104C60002C0F3D1F3F932F930E9403DB0F900F905B
:104C70000F900F900F900F900F3F29F0013031F0FF
:104C800041E155E04EC04EEF54E04BC043E255E0E9
:104C900048C020E030E040EA51E426966FAD269708
:104CA00027967FAD279728968FAD289729969FAD99
:104CB00029970E94C7D79B01AC01612F79ADC10133
:104CC0000E945ED387FF33C019821A821B821C8226
:104CD0008EE2AFA9B8AD1D928A95E9F76D96BFAD8A
:104CE0006D97BF930F93ACECB3E0BF93AF9321E00C
:104CF00030E02C0F3D1F3F932F930E9403DB0F905A
:104D00000F900F900F900F900F900F3F29F00130F0
:104D100031F048ED54E005C044EC54E002C04BEEE5
:104D200054E0BE016F5F7F4F802F0E94096821967B
:104D30008CAD9DADAEADBFAD2197880F991FAA1F59
:104D4000BB1FA7962CAD3DAD4EAD5FADA797821BA7
:104D5000930BA40BB50B88199909AA09BB098138D3
:104D60009F44A241B10568F0E6EAF4E084918F0126
:104D70000F5F1F4F882309F4C2CE0E94A631F801AD
:104D8000F5CF2B964EAD5FAD2B97A1968EAD9FAD17
:104D9000A197841795070CF06BCDE9E4F4E08491BA
:104DA0005F019FEFA91AB90A882321F00E94A6315A
:104DB000F501F5CF07FD05C05DE7A52E53E0B52E43
:104DC00004C045E1A42E43E0B42EB50188E394E08D
:104DD0000E949450B701A60184E394E00E941B5006
:104DE0008AE00E94A631B50183E294E00E949450CB
:104DF0002F964CAD5DAD6EAD7FAD2F978FE194E0FA
:104E00000E941B508AE00E94A631B5018EE094E01A
:104E10000E94945063964CAD5DAD6EAD7FAD6397CF
:104E20008AE094E00E941B508AE00E94A631AC9672
:104E3000AFADAC97AA2309F47BC407FF31C0C09281
:104E40003410D0923510E0923610F09237102CEAE0
:104E500035EC47E25EE32F966CAD7DAD8EAD9FAD38
:104E60002F970E94C3D360933010709331108093BA
:104E70003210909333102CEA35EC47E25EE36396F0
:104E80006CAD7DAD8EAD9FAD63970E94A4D860934D
:104E90002C1070932D1080932E1090932F1048C4D7
:104EA000B4E00B0280011124F801E45EFF4EC082E1
:104EB000D182E282F382F801EC5EFF4E5F012CEAC0
:104EC00035EC47E25EE32F966CAD7DAD8EAD9FADC8
:104ED0002F970E94C3D3D5016D937D938D939C939F
:104EE00013970C5D1F4E2CEA35EC47E25EE36396A8
:104EF0006CAD7DAD8EAD9FAD63970E94A4D8F801D7
:104F0000608371838283938313C480E50E94F12FB1
:104F1000882351F00E94BE2F609334107093351097
:104F2000809336109093371089E40E94F12F8823E4
:104F300081F00E94BE2F2CEA35EC47E25EE30E942E
:104F4000C3D36093301070933110809332109093DC
:104F5000331084E40E94F12F882381F00E94BE2F39
:104F60002CEA35EC47E25EE30E94A4D860932C1053
:104F700070932D1080932E1090932F10EAEDF2E293
:104F800084918F010F5F1F4F882321F00E94A6316B
:104F9000F801F6CF409134105091351060913610E1
:104FA000709137108AE196E00E941B502CEA35EC94
:104FB00047E25EE3609130107091311080913210C1
:104FC000909133100E94A4D8AB01BC0186E196E019
:104FD0000E941B502CEA35EC47E25EE360912C10F6
:104FE00070912D1080912E1090912F100E94C3D39C
:104FF000AB01BC0182E196E00E941B508AE00E9456
:10500000A63196C3E0EEF2E284918F010F5F1F4F4D
:10501000882321F00E94A631F801F6CFEEE1F6E0F8
:1050200084918F010F5F1F4F882309F481C30E9471
:10503000A631F801F5CF0E9459A07AC380E00E9402
:10504000C7370E943F6F74C383E5CBD7882341F0F5
:1050500086D7F82E811106C080E00E94363902C042
:10506000F0904F128091371290913812A09139121E
:10507000B0913A1289839A83AB83BC8380913B12AF
:1050800090913C12A0913D12B0913E128D839E836F
:10509000AF83B88780913F1290914012A091411246
:1050A000B091421289879A87AB87BC87809105119E
:1050B00090910611892B99F183E493D781112CC526
:1050C0002EC0930149AD5DAD22966FAD22977A2D2A
:1050D00026968FAD269727969FAD27970E94C8D713
:1050E00020E030E040E05FE30E94C3D3A2019101E1
:1050F0000E94C8D72B013C012DEB37E346E855EB66
:105100000E94EED987FD60C52DEB37E346E855E3F5
:10511000C301B2010E945ED318160CF455C586E592
:1051200060D7882351F08091051190910611892B49
:1051300021F00E94D2350E9437898AE552D7882310
:1051400019F01CD70E944ABA8F2D0E943639F110EF
:1051500003C0EAEDF2E21CC080914F128111F9CF39
:10516000E0EEF2E284918F010F5F1F4F882321F060
:105170000E94A631F801F6CFEDE4F6E084918F01AC
:105180000F5F1F4F882329F30E94A631F801F6CF45
:1051900084918F010F5F1F4F882321F00E94A63159
:1051A000F801F6CF80914F12811103C06DE173E0D9
:1051B00002C069E173E08FE396E00E9494508AE0B8
:1051C0000E94A631EAEDF2E284918F010F5F1F4F3A
:1051D000882321F00E94A631F801F6CFE2E3F6E041
:1051E00084918F010F5F1F4F882321F00E94A63109
:1051F000F801F6CFC0905012D0905112E0905212A8
:10520000F090531220E030E0A901C701B6010E94DE
:10521000EED918164CF442E0C701B6010E94C5341D
:105220008AE00E94A6310CC0EDE2F6E084918F0185
:105230000F5F1F4F882321F00E94A631F801F6CF9F
:105240004CE050E067E372E1CE0101960E94CBDAB8
:10525000892B09F46DC20E943F6F6AC289E408D7A6
:10526000882319F05BD6162F01C01FEF8AE400D700
:10527000882319F053D6062F01C00FEF8AE5B1D667
:10528000F82E811104C081E5ACD6D82E01C0D12CF6
:1052900017FD02C007FF03C0E0EEF2E205C0F11007
:1052A0001AC0D11018C0F8CF84918F010F5F1F4F23
:1052B000882321F00E94A631F801F6CFEBE8F6E052
:1052C00084918F010F5F1F4F882309F431C20E9420
:1052D000A631F801F5CF153018F0E0EEF2E206C085
:1052E0000530D8F716C00E94A631F80184918F01CD
:1052F0000F5F1F4F8111F7CFECE6F6E084918F012D
:105300000F5F1F4F882309F413C20E94A631F801D2
:10531000F5CFE12E110FFF08002E000C110B2ED639
:10532000DD2099F025E02E9DF0012F9DF00D112438
:10533000E00FF11FEE0FFF1FEE0FFF1FE75FFE4EA6
:10534000208131814281538103C020E030E0A901F6
:10535000A5E0AE9DF001AF9DF00D11240E0F1F1FB3
:10536000000F111F000F111F075F1E4E0E94C8D7AC
:10537000D8016D937D938D939C9313970E947987A9
:10538000D7C10E94DB40D4C10E94E77CD1C183E534
:1053900028D6882311F0E3D581270E94A075C8C1C3
:1053A00081E08093D4100E94C53A1092D4108823D3
:1053B00009F4BEC1EAEDF2E284918F010F5F1F4F45
:1053C000882319F0C3D7F801F7CFEBEAF6E0849110
:1053D0008F010F5F1F4F882309F4AAC1B7D7F801C7
:1053E000F6CF8AE545D6882309F435C0C7D56B01C9
:1053F0007C0120E030E040EA51EC0E94EED987FDCC
:1054000013C020E030E040EA51E4C701B6010E9439
:105410005ED318164CF0C0921713D0921813E09276
:105420001913F0921A1384C1E0EEF2E284918F0115
:105430000F5F1F4F81110CC0E8ECF6E084918F01E3
:105440000F5F1F4F882309F473C180D7F801F6CF8F
:105450007DD7F801EBCFEAEDF2E284918F010F5F87
:105460001F4F882319F072D7F801F7CFE9EBF6E068
:1054700084918F010F5F1F4F882319F067D7F801C0
:10548000F7CF409117135091181360911913709131
:105490001A1386EB96E00E941B508AE057D748C14A
:1054A0000E945FC445C180911712809358050091F6
:1054B000300610913106F02E8091271385FF12C01F
:1054C000B80177278FE297E00E945F5089E23ED7CC
:1054D0008AE03CD747E352E160E177E08BE197E077
:1054E0000E94A83780911712F81651F083E5C0D5B5
:1054F000882311F034D502C083E573D5F82E02C09D
:10550000FF24F39486E4B4D5882311F037D503C083
:1055100060E070E0CB0120E030E040E752E40E9420
:10552000A4D8AB01BC012F2D802F0E94079A809137
:10553000271385FF13C047E352E162EF76E08CEF5B
:1055400096E00E94A837E5EEF6E084918F010F5FA8
:105550001F4F882319F0FAD6F801F7CF00913006D3
:1055600011E080915805081301C010E0C0903F126F
:10557000D0904012E0904112F09042128091F905D3
:10558000882309F46DC0013009F06AC0112309F4C1
:1055900067C00E9459A020E030E040E450E4C70119
:1055A000B6010E94C8D74B015C0160932B12709327
:1055B0002C1280932D1290932E120E9470940E94B0
:1055C00059A00E94AFAE0E9406AB409035025090A9
:1055D0003602052C000C66087708DC01CB01841923
:1055E0009509A609B709B7FF03C00E943990EBCF10
:1055F0004090FD105090FE106090FF1070900011D0
:10560000A3019201C501B4010E94C8D720910206EE
:105610003091030640910406509105060E94C7D7B9
:1056200060933F1270934012809341129093421204
:10563000409202065092030660920406709205069C
:105640000E94D8380E943F6FC0922B12D0922C1229
:10565000E0922D12F0922E120E9470940E9459A096
:105660008091F905882309F463C0011161C01123F9
:1056700009F45EC00E9459A00E9469B00E9406AB66
:105680008B019C018091350290913602BC01990FEB
:10569000880B990B061B170B280B390B37FF03C020
:1056A0000E943990EBCF0E94CEAA8090F910909082
:1056B000FA10A090FB10B090FC10209102063091DF
:1056C00003064091040650910506C501B4010E94ED
:1056D000C7D79B01AC0160913F127091401280913D
:1056E0004112909142120E94C8D760933F1270936A
:1056F000401280934112909342128092020690923F
:105700000306A0920406B09205060E94D8380E94B3
:105710003F6FC0922B12D0922C12E0922D12F09279
:105720002E120E9470940E9459A002C00E945FC471
:1057300010929911E091050AF0E0EA5FF94F80813B
:10574000882309F479C2ECE3F7E084918F010F5FBD
:105750001F4F882319F0FAD5F801F7CF8AE0F6D564
:105760006BC2B1100C94AA1A0C94A31AE7D3E82EBA
:1057700080E57ED4882309F43BC0E0D3182F87FD51
:10578000D7CF89E475D4882341F0E9D381110FC0C4
:10579000E9E0F3E086E38E0F06C089E422D4F6CF79
:1057A00031968E1721F094911913FACF42C284E4F6
:1057B0005FD461E0882341F0812F0E94CBA96E2D38
:1057C000812F0E949CA9B4CF812F0E94CBA96E2D5E
:1057D000812F0E949CA9F12CB701812F0E9407AA5A
:1057E000193009F0A5CFF092AA0FE092A90FA0CF2F
:1057F0001DE0C7CF2B964EAD5FAD2B97452B09F41F
:1058000045C1AB968CAC9DACAEACBFACAB97880E33
:10581000991EAA1EBB1EAB962CAD3DAD4EAD5FAD25
:10582000AB97281B390B4A0B5B0BCA01B9012596B4
:105830002CAD3DAD4EAD5FAD25970E945BD7A50168
:1058400094010E948CD7D301C201820F931FA41F21
:10585000B51F84319105A105B1050CF12C013D0165
:105860008C3E9105A105B1052CF0ABEE4A2E512CD2
:10587000612C712C40E84416510461047104FCF061
:105880008EEF90E0A0E0B0E084199509A609B70971
:1058900025968CAF9DAFAEAFBFAF259716C0F4E194
:1058A0004F2E512C612C712C24E130E040E050E06F
:1058B00025962CAF3DAF4EAF5FAF259706C025961E
:1058C0004CAE5DAE6EAE7FAE2597B301A20181EA0C
:1058D00095E00E94385025964CAD5DAD6EAD7FAD24
:1058E00025978CE995E00E94385064964FAD6497F7
:1058F00065965FAD659766966FAD669767967FAD67
:10590000679785E995E00E941B5068964FAD6897B0
:1059100069965FAD69976A966FAD6A976B967FAD32
:105920006B978EE895E00E941B502B964EAD5FADB5
:105930002B97433051050CF4A9C025966CAD7DAD75
:105940008EAD9FAD25970E9464D320E030E040E803
:1059500050E40E94C3D36B017C0164962FAD649721
:1059600065963FAD659766964FAD669767965FAD56
:10597000679768966FAD689769967FAD69976A96E5
:105980008FAD6A976B969FAD6B970E94C7D72BED33
:105990003FE049E450E40E94C3D320E030E040E01F
:1059A0005FE30E94C3D39B01AC01C701B6010E9413
:1059B000A4D86B017C01C501B4010E9464D32FE619
:1059C00032E143E85AE30E94C3D34B015C01B701C3
:1059D000A60188E895E00E941B50B501A40182E869
:1059E00095E00E941B502AE939E949E15FE3C701CC
:1059F000B6010E94C3D36B017C019B01AC010E94E4
:105A0000C8D7A50194010E94A4D82F966CAF7DAF92
:105A10008EAF9FAF2F97A5019401C701B6010E94D9
:105A2000C3D320E030E040E05EE30E94C3D363963E
:105A30006CAF7DAF8EAF9FAF6397E2E7AE2EE5E030
:105A4000BE2EF5018491882329F0FFEFAF1ABF0A1B
:105A50007DD4F7CFB701A6018CE695E00E941B50DC
:105A60002F964CAD5DAD6EAD7FAD2F9786E695E080
:105A70000E941B5063964CAD5DAD6EAD7FAD6397DC
:105A800080E695E00E941B508AE060D425968CAD9C
:105A90009DADAEADBFAD2597840D951DA61DB71D5F
:105AA000B595A7959795879507FF03C080933D10FF
:105AB00005C0EE96EEADFFADEE9780832B962EAD32
:105AC0003FAD2B972F5F3F4F2B963FAF2EAF2B97BE
:105AD00026963FAD269764963FAF649727964FADC5
