:100000000C9427130C9458130C9458130C945813F5
:100010000C9458130C9458130C9458130C945813B4
:100020000C9458130C9458130C9458130C945813A4
:100030000C9458130C9458130C9458130C94581394
:100040000C9458130C9477A20C9458130C945813D6
:100050000C9458130C9458130C9436510C949D4CDA
:100060000C9458130C94A07D0C9458130C945813B2
:100070000C9458130C9458130C9458130C94581354
:100080000C9422A40C9458130C9458130C945813E9
:100090000C9458130C9458130C9458130C94581334
:1000A0000C9458130C9458130C94F5A30C945813F7
:1000B0000C9458130C9458130C9458130C94C8A314
:1000C0000C9458130C9458130C9458130C94581304
:1000D0000C9458130C9458130C9458130C945813F4
:1000E0000C945813454A484A374A3B4A414A7F4A8A
:1000F0004C4A504A564A5A4A5E4A644A684A6C4ACE
:100100007F4A724A764A7A4A834B884B8D4B974B8B
:10011000A14B1A4CAB4BB34BBB4BC54BCF4BD94B45
:10012000E84BF24B1A4CFC4B064C104CF24FBE50B5
:10013000C350EE50FA50D650DB50E24FD07DD67D02
:10014000E77DF27DFA7D0F7EFE7D0F7E027E067ECC
:100150000F7E0C7E084AD73B3BCE016E84BCBFFDB0
:10016000C12F3D6C74319ABD56833DDA3D00C77F87
:1001700011BED9E4BB4C3E916BAAAABE0000008020
:100180003F05A84CCDB2D44EB93836A9020C50B9AF
:10019000918688083CA6AAAA2ABE000000803F00DB
:1001A0004E414E494E495459494E46CDCCCC3D0A5C
:1001B000D7233C17B7D13877CC2B329595E6241F3F
:1001C000B14F0A000020410000C84200401C4620F8
:1001D000BCBE4CCA1B0E5AAEC59D7447322F473366
:1001E0002062616420706172616D65746572730A6A
:1001F000003C3C3C205A5F534146455F484F4D49C7
:100200004E470A00203A205A5F534146455F484F07
:100210004D494E470A00202064657374696E61740D
:10022000696F6E3D005A5F534146455F484F4D49E7
:100230004E47203E3E3E0A00486F6D6520585920CB
:1002400066697273740A003C3C3C204732380A00ED
:100250005261697365205A20286265666F72652055
:10026000686F6D696E672920746F20003E20656E8F
:100270006473746F70732E656E61626C652874723E
:100280007565290A003C3C3C204732380A003E2074
:10029000686F6D696E67206E6F74206E656564654A
:1002A000642C20736B69700A003E3E3E2047323852
:1002B0000A00205A3A200020593A20004265642062
:1002C000583A20004D65736820706F696E74206322
:1002D000616E6E6F74206265207265736F6C7665F7
:1002E000640A002569730025696D2025697300255E
:1002F00069682025696D20256973002569642025BA
:1003000069682025696D2025697300256979202594
:100310006964202569682025696D2025697300506E
:1003200072696E742074696D653A20000001363779
:100330002603FFFFFF353C3D380EFFFFFF312E3017
:100340003E12FFFFFFFF28FF0C0809FFFFFF1A1CEA
:1003500018FFFF2A24221EFFFF2C08440AFF430730
:10036000FF4520573A002F2F200020540020520034
:10037000416363656C65726174696F6E3A20500009
:100380005741524E494E4721204C6F77205A204A00
:1003900065726B206D6179206C65616420746F20DB
:1003A000756E77616E746564207061757365732E08
:1003B0000A00496E76616C696420657874727564B0
:1003C00065720A0020643A0020693A0020703A0001
:1003D00020653A0043290A0061626C656420286D3B
:1003E000696E2074656D702000436F6C64206578C1
:1003F00074727564657320617265200020643A0030
:1004000020693A0020703A004F66660A004661642F
:1004100065204865696768742000426564204C6502
:1004200076656C696E6720004661696C656420744E
:100430006F20656E61626C6520426564204C657654
:10044000656C696E670A004D65736820706F696E30
:10045000742063616E6E6F74206265207265736FC5
:100460006C7665640A004D34323120696E636F72B8
:100470007265637420706172616D65746572207558
:10048000736167650A00454550524F4D204F4B0A36
:10049000003A200050726F6265205A204F666673E2
:1004A0006574003F5A206F7574206F662072616E0C
:1004B000676520282D323020746F203230290A00E1
:1004C0003C3C3C2067636F64655F540A00203A201F
:1004D00041465445520A00202063757272656E745D
:1004E0005F706F736974696F6E3D00203A204245FA
:1004F000464F52450A00202063757272656E745F24
:10050000706F736974696F6E3D003E3E3E20676395
:100510006F64655F542800202D20496E76616C69F8
:1005200064206578747275646572206E756D62659D
:100530007220210A002020506C616E6E6572427537
:100540006666657242797465733A2000204672656A
:1005500065204D656D6F72793A2000436F6D70694B
:100560006C65643A204D6172203132203230323075
:100570000A00207C20417574686F723A20286E6FE3
:100580006E652C2064656661756C7420636F6E66A1
:100590006967290A00323031382D30382D3031006A
:1005A000204C61737420557064617465643A200056
:1005B000312E312E392E310A004D61726C696E0078
:1005C00020536F6674776172652052657365740A93
:1005D00000205761746368646F67205265736574A7
:1005E0000A002042726F776E206F75742052657317
:1005F00065740A002045787465726E616C205265DE
:100600007365740A00506F77657255700A007374D1
:100610006172740A00205A3A0020593A0020583A70
:1006200000656E6473746F7073206869743A20009B
:1006300000000000000020C1000040C00000524344
:1006400000808943000052430A20736F66745F651F
:100650006E6473746F705F6D6178203D20000A20B6
:10066000736F66745F656E6473746F705F6D696ECF
:10067000203D20000A20706F736974696F6E5F738C
:1006800068696674203D200020617869733A0A2009
:10069000686F6D655F6F6666736574203D20004608
:1006A0006F7220003C3C3C20646F5F626C6F636B38
:1006B000696E675F6D6F76655F746F0A003E3E3EE0
:1006C00020646F5F626C6F636B696E675F6D6F76DE
:1006D000655F746F00203A2073657475705F666F94
:1006E000725F656E6473746F705F6F725F70726F4C
:1006F00062655F6D6F76650A0020206375727265B2
:100700006E745F706F736974696F6E3D00203A207C
:10071000636C65616E5F75705F61667465725F655D
:100720006E6473746F705F6F725F70726F62655F1B
:100730006D6F76650A00202063757272656E745F56
:10074000706F736974696F6E3D00646F5F70726F74
:1007500062655F726169736528006465706C6F79AA
:100760003A2000203A207365745F70726F62655F93
:100770006465706C6F7965640A002020637572721D
:10078000656E745F706F736974696F6E3D00203AB7
:10079000203C3C3C20646F5F70726F62655F6D6FE0
:1007A00076650A00202063757272656E745F706FE3
:1007B000736974696F6E3D00203A203E3E3E2064AE
:1007C0006F5F70726F62655F6D6F76650A002020E3
:1007D00063757272656E745F706F736974696F6E42
:1007E0003D0072657365745F6265645F6C65766514
:1007F0006C0A002028646F6E65290A0045787472BF
:1008000061706F6C617465205B0042696C696E6534
:100810006172204C6576656C696E67204772696409
:100820003A0A005375626469766964656420776981
:100830007468204341544D554C4C20524F4D204C30
:100840006576656C696E6720477269643A0A003C98
:100850003C3C20646F5F686F6D696E675F6D6F769B
:100860006528005B00290A002C20002C20003E3E59
:100870003E20646F5F686F6D696E675F6D6F766550
:10088000280020280041424C2041646A7573746D31
:10089000656E74205A0020480020570020590042FD
:1008A000696C696E65617220477269642058005AEC
:1008B00020466164653A20002028656E61626C659F
:1008C00064290A00202864697361626C6564290ADE
:1008D0000042494C494E454152004175746F2042D7
:1008E0006564204C6576656C696E673A2000204E21
:1008F0006F7A7A6C65290A0020262041626F76653E
:100900000020262053616D65205A20617300202647
:100910002042656C6F77002D4261636B0020285286
:100920006967687400205A3A0020593A0050726F83
:100930006265204F666673657420583A00464958D0
:100940005F4D4F554E5445445F50524F42450A004B
:1009500050726F62653A2000436F72650A004D6104
:100960006368696E6520547970653A200024F4D478
:100970003050C38E20C2A24017828B7011127A9120
:100980000D816CD90AA861E108C758660761514317
:10099000061E4B5D05C145A7041A411104093D9887
:1009A00003713931034036DB0265339102D4305490
:1009B00002802E1D02632CEE01752AC501B028A00D
:1009C00001102781018F2564012B244B01E0223483
:1009D00001AC211F018D200D01801FFC00841EED44
:1009E00000971DDF00B81CD200E61BC600201BBC10
:1009F00000641AB200B219A8000A19A0006A189976
:100A000000D117910040178B00B516840031167E77
:100A100000B31579003A157300C7146F0058146AB3
:100A200000EE1366008813630025135E00C7125B97
:100A3000006C12570015125400C111510070114F73
:100A40000021114B00D61049008D1047004610447C
:100A50000002104200C00F4000800F3E00420F3CD9
:100A600000060F3B00CB0E3800930E37005C0E35AE
:100A700000270E3400F30D3200C10D3100900D300F
:100A800000600D2E00320D2D00050D2C00D90C2B11
:100A900000AE0C2900850C29005C0C2700350C27C2
:100AA000000E0C2600E80B2400C40B2400A00B232E
:100AB000007D0B23005A0B2100390B2100180B205D
:100AC00000F80A1F00D90A1E00BB0A1E009D0A1D5D
:100AD00000800A1D00630A1C00470A1B002C0A1B29
:100AE00000110A1A00F7091A00DD091900C40919D2
:100AF00000AB091900920917007B09180063091758
:100B0000004C09160036091600200916000A0915BE
:100B100000F5081500E0081400CC081400B808140B
:100B200000A4081400900813007D0812006B08133D
:100B3000005808120046081200340811002308115A
:100B4000001208110001081100F0071000E0071062
:100B500000D0071000C0071000B0070F00A1071059
:100B60000091070E0083070F0074070F0065070E42
:100B70000057070E0049070E003B070D002E070E19
:100B80000020070D0013070D0006070D00F9060CE5
:100B900000ED060D00E0060C00D4060C00C8060CA3
:100BA00000BC060C00B0060C00A4060B0099060C55
:100BB000008D060B0082060B0077060B006C060BFF
:100BC0000061060A0057060B004C060A0042060A9E
:100BD0000038060A002E060A0024060A001A060A31
:100BE000001006090007060A00FD050900F40509C2
:100BF00000EB050900E2050900D9050900D0050947
:100C000000C7050900BE050900B5050800AD0508C7
:100C100000A50509009C050800940508008C05083E
:100C200000840508007C050800740508006C0507B1
:100C300000650508005D050700560508004E05071C
:100C40000047050700400508003805070031050783
:100C5000002A050700230507001C050600160507E6
:100C6000000F0507000805060002050700FB040643
:100C700000F5040700EE040600E8040600E204079D
:100C800000DB040600D5040600CF040600C90406F4
:100C900000C3040600BD040600B7040600B1040545
:100CA00000AC040600A6040600A00405009B040690
:100CB0000095040500900406008A040500850405DB
:100CC00000800406007A0405007504050070040520
:100CD000006B04050066040500610405005C040562
:100CE0000057040500520405004D040500480405A2
:100CF00000430405003E0404003A040500350405E1
:100D000000300404002C040500270404002304051B
:100D1000001E0404001A0404001604050011040453
:100D2000000D040400090405000404040000040488
:100D300000FC030400F8030400F4030400F00304BF
:100D400000EC030400E8030400E4030400E00304EF
:100D500000DC030400D8030400D4030400D003041F
:100D600000CC030400C8030300C503030024F404FB
:100D7000D9201BC40C5C0E9804C4095F026507717E
:100D800001F405F900FB04B30048048700C10369BE
:100D9000005803550003034500BE023A00840231A7
:100DA0000053022A002902250004022000E4011C4D
:100DB00000C8011900AF0117009801140084011345
:100DC00000710110006101100051010E0043010D7E
:100DD0000036010B002B010B0020010B001501094F
:100DE000000C01090003010800FB000800F30008E3
:100DF00000EB000700E4000600DE000600D8000655
:100E000000D2000600CC000500C7000500C20005A6
:100E100000BD000400B9000400B5000400B10004E6
:100E200000AD000400A9000400A5000300A2000317
:100E3000009F0004009B000300980003009500023F
:100E40000093000300900003008D0002008B00035C
:100E50000088000200860002008400030081000276
:100E6000007F0002007D0002007B0002007900028A
:100E70000077000100760002007400020072000199
:100E800000710002006F0002006D0001006C0002A2
:100E9000006A0001006900020067000100660001AD
:100EA00000650001006400020062000100610001B1
:100EB00000600001005F0002005D0001005C0001B5
:100EC000005B0001005A00010059000100580001B8
:100ED00000570001005600010055000100540001B8
:100EE00000530000005300010052000100510001B6
:100EF00000500001004F0001004E0000004E0001B4
:100F0000004D0001004C0001004B0000004B0001AF
:100F1000004A0001004900010048000000480001AB
:100F200000470001004600000046000100450000A7
:100F3000004500010044000100430000004300019F
:100F40000042000000420001004100000041000199
:100F500000400001003F0000003F0001003E000093
:100F6000003E0001003D0000003D0001003C00008B
:100F7000003C0000003C0001003B0000003B000181
:100F8000003A0000003A0001003900000039000179
:100F90000038000000380000003800010037000071
:100FA0000037000100360000003600000036000166
:100FB000003500000035000000350001003400005D
:100FC0000034000000340001003300000033000052
:100FD0000033000100320000003200000032000146
:100FE000003100000031000000310001003000003D
:100FF0000030000000300001002F0000002F000032
:10100000002F0000002F0001002E0000002E000025
:10101000002E0001002D0000002D0000002D00001A
:10102000002D0001002C0000002C0000002C00000E
:10103000002C0001002B0000002B0000002B000002
:10104000002B0001002A0000002A0000002A0000F6
:10105000002A0001002900000029000000290000EA
:1010600000290000002900010028000000280000DD
:1010700000280000002800000028000100270000D0
:1010800000270000002700000027000000270001C3
:1010900000260000002600000026000000260000B8
:1010A00000260001002500000025000000250000AA
:1010B000002500000025000000250001002400009C
:1010C000002400000024000000240000002400018F
:1010D0000023000000230000002300000023000084
:1010E0000023000000230000002300010022000074
:1010F0000022000000220000002200000022000068
:101100000022000100210000002100000021000059
:10111000002100000021000000210000002100014A
:10112000002000000020000000200000002000003F
:10113000002000000020000000200000002000012E
:10114000001F0000001F0000001F0000001F000023
:10115000001F0000001F0000001F0001001E000013
:10116000001E0000001E0000001E000000043700EA
:10117000001E290000511B0000581000001009003B
:1011800000CC0400007802000041010000626564A8
:101190000A002C2073797374656D2073746F7070FE
:1011A000656421204865617465725F49443A200096
:1011B0004D415854454D502074726967676572659A
:1011C00064004D494E54454D5020747269676765FF
:1011D000726564004265642068656174696E6720A9
:1011E0006661696C65640048656174696E67206654
:1011F00061696C65640048656174696E6720666149
:10120000696C65640045312048656174696E6720CA
:101210006661696C65640045322048656174696E79
:1012200067206661696C6564004B494C4C45442EEF
:10123000200070012C0190012701B0012201C001A2
:101240001D01F00118011002130130020E016002AD
:10125000090190020401C002FF000003FA004003EC
:10126000F5008003F000D003EB002004E6007004DA
:10127000E100E004DC004005D700C005D2004006D4
:10128000CD00D006C8008007C3003008BE00F008BB
:10129000B900C009B400B00AAF00B00BAA00D00C6E
:1012A000A500000EA000500F9B00C0109600501229
:1012B000910000148C00C0158700B0178200B0198F
:1012C0007D00D01B7800001E730040206E0090222D
:1012D0006900F024640040275F0090295A00E02B49
:1012E0005500102E500020304B0010324600E033E5
:1012F000410090353C001037370070383200A0397B
:101300002D00B03A2800A03B2300603C1E00103D99
:101310001900903D1400103E0F00703E0A00C03EC0
:101320000500003F0000403FFBFF803FF6FFC03F4D
:10133000F1FF202F002040002042403A0020403A98
:101340000000002100240027002A002D0030003377
:101350000001010000040107010A0100002200252C
:101360000028002B002E003100340002010000058F
:101370000108010B01000020002300260029002C99
:10138000002F0032000001000003010601090105E1
:10139000050505070508080808020202020A0A08EE
:1013A0000804040404010101010101010103030314
:1013B0000303030303040707070C0C0C0C0C0C0CB1
:1013C0000C0202020206060606060606060B0B0BB8
:1013D0000B0B0B0B0B0102102020080810204010F3
:1013E00020408002010201080402010102040810E9
:1013F0002040808040201008040201800402018007
:10140000402010080402010804020101020408102F
:10141000204080010204081020408000000A0B02D6
:10142000090C0D0E08070304010000000000000075
:1014300000000000000000000000000000000000AC
:101440000000000000000012111000000000000069
:10145000000000000000000000000000000000008C
:101460000020746F6F206C6F6E67206578747275E2
:1014700073696F6E2070726576656E7465640A00BC
:1014800020636F6C6420657874727573696F6E2069
:1014900070726576656E7465640A00526573656E78
:1014A000643A20006F6B0020746F6F206C6F6E6762
:1014B00020657874727573696F6E207072657665D9
:1014C0006E7465640A0020636F6C642065787472C2
:1014D0007573696F6E2070726576656E7465640AE7
:1014E00000627573793A2070617573656420666F68
:1014F0007220696E7075740A00627573793A207093
:10150000617573656420666F7220757365720A0079
:10151000627573793A2070726F63657373696E6771
:101520000A004B494C4C20636175736564206279F5
:1015300020746F6F206D75636820696E61637469D4
:1015400076652074696D65202D2063757272656EF5
:101550007420636F6D6D616E643A20005072696E25
:101560007465722068616C7465642E206B696C6CA4
:1015700028292063616C6C6564210A00486F7465DA
:101580006E64206F6666736574733A0020466C6FF4
:10159000773A2000206F7574206F662072616E6745
:1015A000650A00536572766F20003A20002053656B
:1015B00072766F20004B64200023646566696E6557
:1015C0002044454641554C545F004B69200023643C
:1015D0006566696E652044454641554C545F004B35
:1015E00070200023646566696E6520444546415558
:1015F0004C545F00504944204175746F74756E659A
:101600002066696E69736865642120507574207462
:101610006865206C617374204B702C204B692061CD
:101620006E64204B6420636F6E7374616E747320FC
:1016300066726F6D2062656C6F7720696E746F20C3
:10164000436F6E66696775726174696F6E2E680AA2
:1016500000504944204175746F74756E6520666151
:10166000696C6564212074696D656F75740A004248
:10167000454420544845524D414C2052554E415707
:10168000415900546865726D616C2052756E6177C6
:10169000617900453120544845524D414C20525506
:1016A0004E4157415900453220544845524D414C16
:1016B0002052554E4157415900426564206865618A
:1016C00074696E67206661696C6564004865617461
:1016D000696E67206661696C656400453120486504
:1016E0006174696E67206661696C656400453220CB
:1016F00048656174696E67206661696C6564005055
:101700004944204175746F74756E65206661696C1B
:101710006564212054656D70657261747572652011
:10172000746F6F20686967680A00204B643A200074
:10173000204B693A2000204B703A20000A20436C6D
:10174000617373696320504944200A002054753A3C
:101750002000204B753A2000206D61783A2000204F
:101760006D696E3A200020643A200020626961733E
:101770003A2000504944204175746F74756E65209D
:101780006661696C6564212054656D706572617471
:1017900075726520746F6F20686967680A00504928
:1017A00044204175746F74756E6520737461727432
:1017B0000A00504944204175746F74756E65206647
:1017C00061696C656421204261642065787472757A
:1017D000646572206E756D6265720A00546F6F20C9
:1017E0006661722066726F6D207265666572656EE5
:1017F000636520706F696E740A004E6F20636173B9
:1018000065206C696768740A00496E76616C69646A
:101810002065787472756465720A00416374697634
:10182000652045787472756465723A2000203A200C
:101830004D6F7665206261636B0A002020646573DA
:1018400074696E6174696F6E3D00207D0A002C2002
:10185000004F666673657420546F6F6C2058592072
:101860006279207B20004E6F206D6F7665206F6E51
:1018700020746F6F6C6368616E67650A002C2000CE
:101880002C2000203A2073796E635F706C616E5F6C
:10189000706F736974696F6E0A00202063757272CD
:1018A000656E745F706F736974696F6E3D00656E0D
:1018B0007175657565696E672022004C696E6520DB
:1018C0004E756D626572206973206E6F74204C6175
:1018D0007374204C696E65204E756D6265722B3194
:1018E0002C204C617374204C696E653A2000507254
:1018F000696E7465722073746F70706564206475AE
:101900006520746F206572726F72732E204669783D
:1019100020746865206572726F7220616E64207534
:101920007365204D39393920746F20726573746185
:1019300072742E202854656D7065726174757265BD
:101940002069732072657365742E20536574206955
:101950007420616674657220726573746172746953
:101960006E67290A004E6F20436865636B73756D5F
:101970002077697468206C696E65206E756D62658C
:10198000722C204C617374204C696E653A200063A0
:101990006865636B73756D206D69736D61746368E1
:1019A0002C204C617374204C696E653A20004D31D7
:1019B00031300020496E76616C69642065787472FC
:1019C0007564657220004C4556454C494E470043AE
:1019D0004F4D4D554E49434154494F4E0044525985
:1019E00052554E004552524F525300494E464F00F9
:1019F0004543484F006F6B0020573A00F019EB1930
:101A0000E419DD19CF19C6196F66660044454255C1
:101A1000473A004D313133205300205A3A002042DA
:101A20003A0020436F756E7420413A0020453A0019
:101A3000205A3A0020593A00583A002C20002C2015
:101A4000003A004361703A00544845524D414C5FA2
:101A500050524F54454354494F4E004155544F52F4
:101A600045504F52545F53445F53544154555300B3
:101A7000454D455247454E43595F5041525345529B
:101A800000434153455F4C494748545F42524947E0
:101A900048544E45535300544F47474C455F4C49BB
:101AA0004748545300534F4654574152455F504F97
:101AB000574552004255494C445F50455243454EAC
:101AC00054004C4556454C494E475F4441544100F3
:101AD0005A5F50524F4245004155544F4C45564570
:101AE0004C005052494E545F4A4F420050524F47AB
:101AF00052455353004155544F5245504F52545F35
:101B000054454D5000564F4C554D45545249430095
:101B1000454550524F4D0053455249414C5F584F37
:101B20004E5F584F4646004649524D574152455F19
:101B30004E414D453A4D61726C696E20312E312E09
:101B4000392E3120284769746875622920534F5512
:101B50005243455F434F44455F55524C3A68747455
:101B600070733A2F2F6769746875622E636F6D2FDB
:101B70004D61726C696E4669726D776172652F4D49
:101B800061726C696E2050524F544F434F4C5F56F8
:101B9000455253494F4E3A312E30204D414348492A
:101BA0004E455F545950453A3344205072696E7423
:101BB00065722045585452554445525F434F554E27
:101BC000543A3220555549443A636564653261326E
:101BD000662D343161322D343734382D396231324B
:101BE0002D6335356336326633363766660A002034
:101BF0005A00205900580020204D61783A200020DA
:101C00005A00205900580020204D696E3A20004F9C
:101C10006E20004F666600536F667420656E6473B5
:101C2000746F70733A200000000000000000000094
:101C30000000003C3C3C207365745F617869735F11
:101C400069735F61745F686F6D652800203A200AD0
:101C500000202063757272656E745F706F736974B3
:101C6000696F6E3D005D203D20003E20686F6D6510
:101C70005F6F66667365745B003E207A70726F6298
:101C8000655F7A6F6666736574203D20002A2A2A94
:101C9000205A20484F4D454420574954482050521F
:101CA0004F424520285A5F4D494E5F50524F4245A2
:101CB0005F555345535F5A5F4D494E5F454E445300
:101CC000544F505F50494E29202A2A2A0A003E3E8E
:101CD0003E207365745F617869735F69735F6174D7
:101CE0005F686F6D65280000002042000020420000
:101CF000002041000000005761726E696E673A2053
:101D0000486F6D696E672042756D70204469766911
:101D1000736F72203C20310A000202040000A040D0
:101D20000000A040000000400000524300808E43AD
:101D3000000055433C3C3C20686F6D6561786973D9
:101D40002800203A203E20414654455220736574B5
:101D50005F617869735F69735F61745F686F6D65F8
:101D60000A00202063757272656E745F706F73690C
:101D700074696F6E3D00486F6D65203220536C6F43
:101D8000773A0A004D6F766520417761793A0A000B
:101D9000486F6D65203120466173743A0A00FFFF79
:101DA000FF3E3E3E20686F6D65617869732800458F
:101DB00072726F722077726974696E6720746F2017
:101DC000454550524F4D210A00290A00206279747E
:101DD00065733B20637263200053657474696E679A
:101DE000732053746F7265642028004861726463C5
:101DF0006F6465642044656661756C742053657416
:101E000074696E6773204C6F616465640A00DC0559
:101E10000000DC050000DC050000DC05000000001F
:101E20007A4400007A4400007A440000C84200006E
:101E3000A0420000A0420000484400004C433A0A7F
:101E40000020286D6D290020204D383531205A00A2
:101E50005A2D50726F6265204F666673657400205C
:101E6000440020490020204D3330342050002044CD
:101E70000020490020204D33303120500020440004
:101E800020490020500020204D33303120450050A3
:101E900049442073657474696E67733A0A00205A66
:101EA00000204A0020204732392057204900205A7C
:101EB0000020204D3432302053004175746F204291
:101EC0006564204C6576656C696E673A0A00205936
:101ED0000020580020204D323138205400486F74C3
:101EE000656E64206F6666736574733A0A00205AE3
:101EF0000020590020204D323036205800486F6DA8
:101F000065206F66667365743A0A00204500205AA2
:101F10000020590020580020540020530020204D5C
:101F200032303520510020453C6D61785F655F6A35
:101F300065726B3E0020583C6D61785F785F6A6522
:101F4000726B3E20593C6D61785F795F6A65726B98
:101F50003E205A3C6D61785F7A5F6A65726B3E0025
:101F6000416476616E6365643A20513C6D696E5FD1
:101F70007365676D656E745F74696D655F75733EDB
:101F800020533C6D696E5F66656564726174653E81
:101F900020543C6D696E5F74726176656C5F666536
:101FA0006564726174653E00205400205200202058
:101FB0004D323034205000416363656C657261744A
:101FC000696F6E2028756E6974732F7332293A20F9
:101FD000503C7072696E745F616363656C3E205241
:101FE0003C726574726163745F616363656C3E200B
:101FF000543C74726176656C5F616363656C3E0A24
:1020000000204500205A0020590020204D32303158
:102010002058004D6178696D756D20416363656C72
:1020200065726174696F6E2028756E6974732F73A1
:1020300032293A0A00204500205A00205900202069
:102040004D3230332058004D6178696D756D2066D2
:1020500065656472617465732028756E6974732F89
:1020600073293A0A00204500205A002059002020F8
:102070004D3932205800537465707320706572209A
:10208000756E69743A0A0020204D32303020443099
:102090000A0020204D3230302054312044002020CE
:1020A0004D3230302044002044697361626C6564B5
:1020B0000A0046696C616D656E742073657474699D
:1020C0006E67733A002020473231202020203B00E9
:1020D000290A002062797465733B206372632000D3
:1020E0002073746F7265642073657474696E6773AE
:1020F0002072657472696576656420280020286303
:10210000616C63756C6174656429210A0020213D4E
:102110002000454550524F4D20435243206D697376
:102120006D61746368202D202873746F7265642953
:1021300020002053697A653A2000496E6465783A38
:102140002000204D61726C696E3D563537290A00BA
:1021500028454550524F4D3D00454550524F4D206A
:1021600076657273696F6E206D69736D61746368F3
:10217000200050726F7465637465642050696E0A44
:10218000005374616E6461726420446576696174A1
:10219000696F6E3A20002052616E67653A20002018
:1021A0004D61783A2000204D696E3A20004D6561FE
:1021B0006E3A200046696E6973686564210A0020E2
:1021C00072616E67653A2000206D61783A200020C8
:1021D0006D696E3A2000207369676D613A200020B6
:1021E0006D65616E3A20003A207A3A2000206F66D1
:1021F0002000205A00205900205800476F696E6760
:1022000020746F3A00436C6F636B776973650A00E3
:10221000436F756E7465722D002044697265637436
:10222000696F6E3A2000202020616E676C653A204D
:10223000005374617274696E6720726164697573AA
:102240003A2000506F736974696F6E696E6720740D
:1022500068652070726F62652E2E2E0A003F4E75E3
:102260006D626572206F66206C65677320696E20F1
:102270006D6F76656D656E74206E6F7420706C6125
:10228000757369626C652028302D3135292E0A005E
:102290003F2028582C5929206F7574206F662062C2
:1022A0006F756E64732E0A003F53616D706C65200C
:1022B00073697A65206E6F7420706C6175736962E2
:1022C0006C652028342D3530292E0A004D343820F5
:1022D0005A2D50726F62652052657065617461623B
:1022E000696C69747920546573740A003F28562913
:1022F0006572626F7365206C6576656C206973200A
:10230000696D706C61757369626C652028302D345D
:10231000292E0A00545249474745524544006F70E0
:10232000656E003A20007A5F6D696E00795F6D69B5
:102330006E00785F6D696E005265706F7274696EC1
:102340006720656E6473746F702073746174757345
:102350000A003C3C3C204732390A0020636F72720D
:102360006563746564205A3A0047323920756E639C
:102370006F72726563746564205A3A00203A203E99
:102380002070726F62696E6720636F6D706C657428
:10239000650A00202063757272656E745F706F73DA
:1023A0006974696F6E3D00202844525952554E2978
:1023B00000473239204175746F20426564204C65B6
:1023C00076656C696E67003F20284C2C522C462C99
:1023D0004229206F7574206F6620626F756E64737A
:1023E0002E0A003F2856296572626F7365206C655E
:1023F00076656C20697320696D706C6175736962B4
:102400006C652028302D34292E0A00426164205A40
:102410002076616C75650A004E6F2062696C696E8A
:1024200065617220677269640A003C3C3C20473257
:10243000390A003E204175746F2D6C6576656C20FD
:102440006E6F74206E65656465642C20736B6970B3
:102450000A00203A203E3E3E204732390A00202022
:1024600063757272656E745F706F736974696F6E95
:102470003D002066697273740A005A0059005800C2
:10248000486F6D6520006563686F3A004572726F32
:10249000723A0042454420544845524D414C205226
:1024A000554E4157415900546865726D616C205218
:1024B000756E6177617900453120544845524D4130
:1024C0004C2052554E415741590045322054484501
:1024D000524D414C2052554E4157415900556E6B5B
:1024E0006E6F776E20636F6D6D616E643A202200AF
:1024F000203A203C3C3C2072756E5F7A5F70726FB0
:1025000062650A00202063757272656E745F706F79
:10251000736974696F6E3D002044697363726570FE
:10252000616E63793A00326E642050726F6265208A
:102530005A3A00203A203C3C3C2072756E5F7A5F2C
:1025400070726F62650A00202063757272656E7426
:102550005F706F736974696F6E3D00534C4F572005
:1025600050726F6265206661696C210A0031737474
:102570002050726F6265205A3A00203A203C3C3C61
:102580002072756E5F7A5F70726F62650A0020203C
:1025900063757272656E745F706F736974696F6E64
:1025A0003D00464153542050726F62652066616958
:1025B0006C210A00203A203E3E3E2072756E5F7A02
:1025C0005F70726F62650A00202063757272656EBB
:1025D000745F706F736974696F6E3D003C3C3C20A2
:1025E00070726F62655F70740A0050726F62696E1C
:1025F00067206661696C65640A00205A3A200020F1
:10260000593A200042656420583A2000203A200AB6
:1026100000202063757272656E745F706F736974E9
:10262000696F6E3D005F72656C6174697665290A39
:10263000002C20002C20002C20002C20003E3E3EB0
:102640002070726F62655F7074280000FCC91124ED
:102650001FBECFEFD1E2DEBFCDBF00E00CBF14E064
:10266000A0E0B2E0E0E4FDEA01E00BBF02C00790A9
:102670000D92A03CB107D9F723E1A0ECB4E001C072
:102680001D92A93AB207E1F713E1C7E2D3E100E0F6
:1026900006C021970109802FFE010E942FD6C63265
:1026A000D10780E00807A9F70E9430C20C949ED69B
:1026B0000C9400002F923F924F925F926F927F9204
:1026C0008F929F92AF92BF92CF92DF92EF92FF9242
:1026D0000F931F93CF93DF93CDB7DEB7C957D109BF
:1026E0000FB6F894DEBF0FBECDBF21E020937B0B69
:1026F000809132058D3411F40C942020843511F42E
:102700000C943B2C873411F00C94842D809130056F
:10271000909131058C31910509F4A6C67CF4843082
:1027200091053CF482309105B4F597FF2DC00C94CF
:102730001C20049709F463C60C941C208A3291056E
:1027400011F40C94CE1D5CF48D31910511F40C94B0
:10275000F51C4E9711F40C94F91C0C941C208B352D
:10276000910511F40C94AA1E8C35910511F40C946A
:10277000B01E8A35910511F00C941C201092C504EE
:10278000109285120C94862D8091160281110C9462
:102790008B2D0C94862D20911602222311F40C947B
:1027A000862D11E0029709F010E00E94A93382E51E
:1027B0000E944E79882309F45CC10E94D4786B0191
:1027C0007C014090BE125090BF126090C012709079
:1027D000C1122091C2123091C3124091C412509183
:1027E000C51222962CAF3DAF4EAF5FAF22978091BE
:1027F0004F0C9091500CA091510CB091520C269618
:102800008CAF9DAFAEAFBFAF26972091530C3091E8
:10281000540C4091550C5091560C2A962CAF3DAF5C
:102820004EAF5FAF2A9720E030E0A901C701B601A3
:102830000E94CACE882309F4C8C5A3019201269636
:102840006CAD7DAD8EAD9FAD26970E94CACE811135
:1028500011C022962CAD3DAD4EAD5FAD22972A96AC
:102860006CAD7DAD8EAD9FAD2A970E94CACE8823F8
:1028700009F4ABC520E030E0A901C701B6010E9410
:10288000CACE881F8827881F18130BC080E090E0ED
:10289000A0E8BFE36A968CAF9DAFAEAFBFAF6A97BB
:1028A0000AC020E030E040E85FEB6A962CAF3DAF15
:1028B0004EAF5FAF6A97A301920126966CAD7DADD6
:1028C0008EAD9FAD26970E9433D362966CAF7DAFDD
:1028D0008EAF9FAF629722962CAD3DAD4EAD5FADF2
:1028E00022972A966CAD7DAD8EAD9FAD2A970E9442
:1028F00033D366966CAF7DAF8EAF9FAF669762960F
:102900002CAD3DAD4EAD5FAD6297CA01B9010E94DD
:102910002FCF4B015C0166962CAD3DAD4EAD5FAD4A
:102920006697CA01B9010E942FCF9B01AC01C50176
:10293000B4010E9434D30E949FD52E966CAF7DAF18
:102940008EAF9FAF2E9720E030E040E05FE30E9423
:102950002FCF4B015C01A7019601C701B6010E9470
:102960002FCF6B017C01A5019401C501B4010E9428
:102970002FCF9B01AC01C701B6010E9433D30E9447
:102980009FD59B01AC016A966CAD7DAD8EAD9FADC0
:102990006A970E942FCF4B015C0126962CAD3DAD6E
:1029A0004EAD5FAD2697C301B2010E9434D320E043
:1029B00030E040E05FE30E942FCF6B017C01669620
:1029C0006CAD7DAD8EAD9FAD669790582E962CADBB
:1029D0003DAD4EAD5FAD2E970E9410D49B01AC0172
:1029E000C501B4010E942FCF9B01AC01C701B60104
:1029F0000E9434D3A30192010E9433D36B017C0166
:102A00002A962CAD3DAD4EAD5FAD2A9722966CADAA
:102A10007DAD8EAD9FAD22970E9434D320E030E093
:102A200040E05FE30E942FCF2B013C012E962CAD9E
:102A30003DAD4EAD5FAD2E9762966CAD7DAD8EAD6A
:102A40009FAD62970E9410D49B01AC01C501B401F7
:102A50000E942FCF9B01AC01C301B2010E9434D36D
:102A600022962CAD3DAD4EAD5FAD22970E9433D383
:102A700014C089E40E944E79882329F00E94D478FA
:102A80006B017C0103C0C12CD12C76018AE40E9429
:102A90004E798823F9F00E94D4782A966CAF7DAFE6
:102AA0008EAF9FAF2A9720E030E0A901C701B601A1
:102AB0000E94CACE81111EC020E030E0A9012A96F2
:102AC0006CAD7DAD8EAD9FAD2A970E94CACE8111AF
:102AD00011C07BC420E030E0A901C701B6010E940B
:102AE000CACE882309F471C42A961CAE1DAE1EAE50
:102AF0001FAE2A97D701C601B05822968CAF9DAF62
:102B0000AEAFBFAF22972A962CAD3DAD4EAD5FADB7
:102B10002A97505826962CAF3DAF4EAF5FAF269701
:102B20009C01AD01BC01CD010E942FCF4B015C0186
:102B300026962CAD3DAD4EAD5FAD2697CA01B901CD
:102B40000E942FCF9B01AC01C501B4010E9434D378
:102B50000E949FD5A6966CAF7DAF8EAF9FAFA69714
:102B60008091BE129091BF12A091C012B091C1127B
:102B70002E968CAF9DAFAEAFBFAF2E97A70196013B
:102B8000BC01CD010E9434D36A966CAF7DAF8EAF8D
:102B90009FAF6A972091C2123091C3124091C41224
:102BA0005091C51262962CAF3DAF4EAF5FAF6297AA
:102BB0002A962CAD3DAD4EAD5FAD2A9762966CADB9
:102BC0007DAD8EAD9FAD62970E9434D3AA966CAF57
:102BD0007DAF8EAF9FAFAA9780914F0C9091500C14
:102BE000A091510CB091520C66968CAF9DAFAEAFD8
:102BF000BFAF66976A962CAD3DAD4EAD5FAD6A979F
:102C0000BC01CD010E9433D36B017C012091530C98
:102C10003091540C4091550C5091560C6E962CAF3F
:102C20003DAF4EAF5FAF6E97AA962CAD3DAD4EADAA
:102C30005FADAA976E966CAD7DAD8EAD9FAD6E9774
:102C40000E9433D34B015C018091C6129091C71250
:102C5000A091C812B091C912A2968CAF9DAFAEAF31
:102C6000BFAFA2979C01AD016091570C7091580CB9
:102C70008091590C90915A0C0E9433D32B013C0146
:102C800020915B0C30915C0C40915D0C50915E0C7E
:102C9000E2962CAF3DAF4EAF5FAFE2978091CA1284
:102CA0009091CB12A091CC12B091CD12AE968CAF78
:102CB0009DAFAEAFBFAFAE97A701960122966CADA8
:102CC0007DAD8EAD9FAD22970E942FCFE6966CAF63
:102CD0007DAF8EAF9FAFE697A501940126966CADB0
:102CE0007DAD8EAD9FAD26970E942FCF9B01AC018D
:102CF000E6966CAD7DAD8EAD9FADE6970E9434D368
:102D0000E6966CAF7DAF8EAF9FAFE697A5019401BD
:102D100022966CAD7DAD8EAD9FAD22970E942FCFD8
:102D20004B015C01A701960126966CAD7DAD8EAD81
:102D30009FAD26970E942FCF9B01AC01C501B40126
:102D40000E9433D3E6962CAD3DAD4EAD5FADE69718
:102D50000E94A7D36B017C0120E030E0A9010E9412
:102D6000CACE87FF0AC02BED3FE049EC50E4C70113
:102D7000B6010E9434D36B017C01112351F02BED7D
:102D80003FE049EC50E4C701B6010E9433D36B0128
:102D90007C0120E030E0A901C701B6010E94CACE43
:102DA000811128C066962CAD3DAD4EAD5FAD6697E6
:102DB0002E966CAD7DAD8EAD9FAD2E970E94CACE86
:102DC000811118C06E962CAD3DAD4EAD5FAD6E97C6
:102DD00062966CAD7DAD8EAD9FAD62970E94CACEFE
:102DE000811108C01BEDC12E1FE0D12E19ECE12E80
:102DF00010E4F12EA7019601A6966CAD7DAD8EADC7
:102E00009FADA6970E942FCF4B015C0120E030E0E0
:102E1000A901C301B2010E94CACE8823C9F0A5014D
:102E20009401C501B4010E942FCF4B015C01A301A5
:102E30009201C301B2010E942FCF9B01AC01C501D9
:102E4000B4010E9434D30E949FD54B015C010DC098
:102E500020E030E0A901C501B4010E945AD587FFE6
:102E600004C0B7FAB094B7F8B0942FE632E143E863
:102E70005AE3C501B4010E94CACE87FF02C00C9478
:102E8000862DC501B4010E94A9D40E947DD41B01E6
:102E9000672B19F422242394312CB10180E090E0B7
:102EA0000E94CECE4B015C019B01AC01C701B60173
:102EB0000E9410D42E966CAF7DAF8EAF9FAF2E9731
:102EC000A5019401C301B2010E9410D4A6966CAF73
:102ED0007DAF8EAF9FAFA697AE962CAD3DAD4EADFC
:102EE0005FADAE97E2966CAD7DAD8EAD9FADE297D6
:102EF0000E9433D3A50194010E9410D4E2966CAFD6
:102F00007DAF8EAF9FAFE2972E962CAD3DAD4EAD0F
:102F10005FAD2E97CA01B9010E942FCF20E030E0AB
:102F200040E05FE30E942FCF9B01AC0160E070E0C6
:102F300080E89FE30E9433D36E966CAF7DAF8EAF77
:102F40009FAF6E97A2962CAD3DAD4EAD5FADA297F3
:102F50002E8F3F8F48A359A3AE968CAD9DADAEADDD
:102F6000BFADAE978AA39BA3ACA3BDA360912F0274
:102F700070913002072E000C880B990B0E94D0CE66
:102F800020916F0230917002409171025091720253
:102F90000E942FCF2AE037ED43E25CE30E942FCF5F
:102FA0006AAF7BAF8CAF9DAF0E94914C9B01AC018F
:102FB00028533F4F4F4F5F4FA2962CAF3DAF4EAFC0
:102FC0005FAFA2974EAC5FAC21966FAC2197229673
:102FD0007FAC229741E050E064965FAF4EAF6497BC
:102FE00059E12F965FAF2F9764962EAD3FAD649752
:102FF0002215330509F473C10E94E2400E94914CEE
:10300000DC01CB01A2962CAD3DAD4EAD5FADA297DC
:10301000821B930BA40BB50BB7FD10C00E94914C03
:103020009B01AC0128533F4F4F4F5F4FA2962CAFEF
:103030003DAF4EAF5FAFA2970E94D7612F963FADD5
:103040002F9731502F963FAF2F97332309F44BC062
:103050006E962CAD3DAD4EAD5FAD6E9726966CADC8
:103060007DAD8EAD9FAD26970E942FCF6B017C0169
:103070002E962CAD3DAD4EAD5FAD2E97B201C30186
:103080000E942FCFA70196010E9434D37B018C01AF
:103090006E962CAD3DAD4EAD5FAD6E97B201C301E6
:1030A0000E942FCF4B015C012E962CAD3DAD4EAD55
:1030B0005FAD2E9726966CAD7DAD8EAD9FAD2697FC
:1030C0000E942FCF9B01AC01C501B4010E9433D3F4
:1030D0002B013C01C701D80126968CAF9DAFAEAF46
:1030E000BFAF269761C064964EAD5FAD6497BA01DD
:1030F00080E090E00E94CECE2E962CAD3DAD4EAD40
:103100005FAD2E970E942FCF4B015C010E940DD422
:103110006B017C01C501B4010E9495D54B015C0196
:10312000A701960122966CAD7DAD8EAD9FAD229725
:103130000E942FCF2B013C01A50194012A966CAD72
:103140007DAD8EAD9FAD2A970E942FCF9B01AC0124
:10315000C301B2010E9434D32B013C01A5019401AB
:1031600022966CAD7DAD8EAD9FAD22970E942FCF84
:103170004B015C01A70196012A966CAD7DAD8EAD29
:103180009FAD2A970E942FCF9B01AC01C501B401CE
:103190000E9433D326966CAF7DAF8EAF9FAF26973C
:1031A00059E12F965FAF2F979201A3016A966CADFC
:1031B0007DAD8EAD9FAD6A970E9434D36E8B7F8BB1
:1031C000888F998F26962CAD3DAD4EAD5FAD26977D
:1031D000AA966CAD7DAD8EAD9FADAA970E9434D3FB
:1031E0006A8F7B8F8C8F9D8FA6962CAD3DAD4EAD9B
:1031F0005FADA6976E8D7F8D88A199A10E9434D373
:103200006E8F7F8F88A399A3E2962CAD3DAD4EAD16
:103210005FADE2976AA17BA18CA19DA10E9434D3EE
:103220006AA37BA38CA39DA380912E02882321F007
:10323000CE0146960E94FF89E090BA121AAA1BAAF4
:103240001CAA1DAA0E891F89288D398D0EA31FA3C4
:1032500028A739A74A8D5B8D6C8D7D8D4AA75BA70A
:103260006CA77DA78E8D9F8DA8A1B9A18EA79FA7C2
:10327000A8ABB9AB09831A832B833C834D835E8350
:103280006F83788789879A87AB87BC878AA19BA140
:10329000ACA1BDA18D879E87AF87B88B9E01235FB0
:1032A0003F4FAE01475F5F4FBE016B5F7F4FCE0167
:1032B00001960E944FADCE01C2966C018E01065C54
:1032C0001F4F9E012E5D3F4FAE01425D5F4FBE011D
:1032D000665D7F4F0C970E94A55181116CC0E090F4
:1032E000BA121EAA1FAA18AE19AE00914F0C109167
:1032F000500C2091510C3091520C0EA31FA328A703
:1033000039A74091530C5091540C6091550C709119
:10331000560C4AA75BA76CA77DA78091570C90918C
:10332000580CA091590CB0915A0C8EA79FA7A8AB2E
:10333000B9AB09831A832B833C834D835E836F83F0
:10334000788789879A87AB87BC8780915B0C90913F
:103350005C0CA0915D0CB0915E0C8D879E87AF8751
:10336000B88B9E01235F3F4FAE01475F5F4FBE01A9
:103370006B5F7F4FCE0101960E944FADDE01D69666
:103380006D018E01065C1F4F2BE53CE0AE01425DF6
:103390005F4FBE01665D7F4FCE0186960E94A551AC
:1033A00080E1EFE4FCE0AEEBB2E101900D928A9592
:1033B000E1F70C94862D6496EEADFFAD64973196DF
:1033C0006496FFAFEEAF64970FCEECE8F4E2849121
:1033D0008F010F5F1F4F882321F00E94FC79F801B5
:1033E000F6CFEBEDF1E084918F010F5F1F4F882343
:1033F00011F40C94862D0E94FC79F801F4CF80E53D
:103400000E944E79882329F00E9494786B017C01F8
:1034100003C0C12CD12C760183E50E944E7988230C
:1034200061F00E94D47820E030E04AE754E40E9442
:103430002FCF0E947DD46B017C010E9467600E94A7
:10344000914CC60ED71EE81EF91E0E94914CDC015D
:10345000CB018C199D09AE09BF09B7FD02C00C94C0
:10346000862D0E94D761F1CF0E94F98621E040E0CD
:1034700050E0BA0180E00E94F96D8091A21385FFAF
:103480000EC0E9EAF2E084918F010F5F1F4F88239D
:1034900021F00E94FC79F801F6CF0E941B32809146
:1034A00091138770873071F58FE40E944E798823DD
:1034B00069F00E94C578882329F18091A21385FDC7
:1034C00002C00C94862DEEE8F2E004C08FE40E9466
:1034D0000779F1CF84918F010F5F1F4F882321F06F
:1034E0000E94FC79F801F6CFE5E8F2E084918F01C3
:1034F0000F5F1F4F882311F40C94862D0E94FC79D6
:10350000F801F4CF0E94676080E00E947A37309122
:10351000BA1263963FAF639721E040E050E0BA01F2
:1035200080E00E94F96D0E9436388091A21385FFD9
:103530000CC0ECE6F2E084918F010F5F1F4F8823EF
:1035400021F00E94FC79F801F6CF11E01093F90404
:1035500088E50E94077927968FAF279789E50E9413
:103560000779282E8AE50E9407792B968FAF2B9733
:1035700027964FAD2797411105C0211005C0382E61
:10358000312607C0211002C0312C03C02B963FAC5E
:103590002B970E94E87982E50E944E79882369F092
:1035A0000E94D4786B017C0120E030E0A9010E94E8
:1035B000CACE882309F43FC006C0C12CD12CA0EA92
:1035C000EA2EA0E4FA2E311008C027965FAD2797A7
:1035D000511103C0222009F443C1C092570CD0926C
:1035E000580CE092590CF0925A0C2091C61230916E
:1035F000C7124091C8125091C912C701B6010E946A
:103600005AD51816C4F48091A21385FF09C0B701DA
:10361000A60180E592E00E946CA48AE00E94FC79F9
:1036200019821A821B821C82BE016F5F7F4F87E561
:103630009CE00E949339311009C027968FAD2797DF
:10364000882309F4FCC0222009F405C11092C2129B
:103650001092C3121092C4121092C5121092BE1290
:103660001092BF121092C0121092C1120E94427D9D
:10367000EEE9FDE1A4916796AFAF6797E8E2FDE15F
:1036800085909590A590B490ECE2FDE1C590D59021
:10369000E590F490A7019601C501B4010E945AD5A6
:1036A00018162CF4A5019401C701B60104C0A701A6
:1036B0009601C501B4010E9410D42B013C01EBEE30
:1036C000FCE1259135914591549122962CAF3DAF67
:1036D0004EAF5FAF2297E7EEFCE185919591A59102
:1036E000B49126968CAF9DAFAEAFBFAF2697BC010D
:1036F000CD010E94CACE87FD0DC01EAD0FAD219633
:103700009FAD21972F969FAF2F972296AFAD22970F
:10371000AEAF10C023961FAD239724960FAD24970C
:103720002596BFAD25972F96BFAF2F972696EFAD65
:103730002697EEAFA3019201C301B2010E942FCFE1
:1037400020E030E040E85FE30E9434D30E949FD540
:103750009B01AC01612F702F2F968FAD2F979EADDF
:103760000E942FCF69837A838B839C83EFE9FDE1ED
:1037700014912091C6123091C7124091C8125091F5
:10378000C91222962CAF3DAF4EAF5FAF229720E01B
:1037900030E040EC5FE3C701B6010E942FCF6B0120
:1037A0007C01612F110F770B880B990B0E94D0CEF3
:1037B0009B01AC01C701B6010E942FCF2B013C0138
:1037C00020E030E040EC5FE3C501B4010E942FCF60
:1037D0006B017C0167963FAD6797632F330F770BC3
:1037E000880B990B0E94D0CE9B01AC01C701B6019A
:1037F0000E942FCFAE014F5F5F4F6A012296ECAC63
:10380000FDAC0EAD1FAD2297A30192010E9461385D
:103810000E94C7B41092C2121092C3121092C41226
:103820001092C5121092BE121092BF121092C012C6
:103830001092C112311005C0211003C007C0222010
:1038400079F081E00E94918A311005C027969FADE2
:103850002797992329F080E00E94918A311006C0B1
:103860002B965FAD2B97552309F498C08091911347
:1038700083708330C9F0E6E8F4E284918F010F5F32
:103880001F4F882321F00E94FC79F801F6CFE8E36E
:10389000F2E084918F010F5F1F4F882309F47EC0EF
:1038A0000E94FC79F801F5CF8091A21385FF0CC02E
:1038B000E5E2F2E084918F010F5F1F4F882321F032
:1038C0000E94FC79F801F6CF0E94427D8091C612D9
:1038D0009091C712A091C812B091C9128093570C51
:1038E0009093580CA093590CB0935A0C80E090E040
:1038F000A0EAB2E480934F0C9093500CA093510C2B
:10390000B093520C80E090E0A2EDB2E48093530CAF
:103910009093540CA093550CB093560C8091A21325
:1039200085FF08C04FE45CE064E072E086E192E06D
:103930000E94237D19821A821B821C82E090C6128B
:10394000F090C7120091C8121091C9122091530C27
:103950003091540C4091550C5091560C60914F0C85
:103960007091500C8091510C9091520CDE01119687
:103970006D010E94613882E00E94918A8091A213B9
:1039800085FF0CC0E1EFF1E084918F010F5F1F4FC5
:10399000882321F00E94FC79F801F6CF0E94427D35
:1039A0008091F8048093F9040E94113821E040E0EE
:1039B00050E0BA0163968FAD63970E94F96D0E9443
:1039C00007808091A21385FD02C00C94862DE7E448
:1039D000F2E084918F010F5F1F4F882311F40C9444
:1039E000862D0E94FC79F801F4CF0E94D2B40C9489
:1039F000862DC090BE12D090BF12E090C012F09001
:103A0000C11288E50E944E79811109C020E030E0A2
:103A100040EA51E4C701B6010E9434D302C00E94BB
:103A2000D4786E8B7F8B888F998FC090C212D09084
:103A3000C312E090C412F090C51289E50E944E793D
:103A4000811109C020E030E040E052E4C701B60136
:103A50000E9434D302C00E94D4789B01AC016983D8
:103A60007A838B839C836E897F89888D998D0E9450
:103A7000908C882311F40C94862D80E00E947A3774
:103A80000E94363885E40E944E79882321F00E94F6
:103A9000C578182F04C085E40E94077911E086E5F7
:103AA0000E944E79882321F00E94A478262F01C01D
:103AB00021E0412FBE016F5F7F4FCE0146960E94ED
:103AC00033BF6B017C019B01AC010E94E0D58111E9
:103AD0005FC08E889F88A88CB98C20E030E0A90157
:103AE000C501B4010E94CACE87FD05C027E137EBAE
:103AF00041E558E304C027E137EB41E558EBC50148
:103B0000B4010E9434D3AB01BC018CEB92E00E9463
:103B10006CA489809A80AB80BC8020E030E0A90151
:103B2000C501B4010E94CACE87FD05C027E137EB6D
:103B300041E558E304C027E137EB41E558EBC50107
:103B4000B4010E9434D3AB01BC0187EB92E00E9428
:103B50006CA420E030E0A901C701B6010E94CACEE2
:103B600087FD05C027E137EB41E558E304C027E1B5
:103B700037EB41E558EBC701B6010E9434D3AB01E6
:103B8000BC0182EB92E00E946CA48AE00E94FC7966
:103B90000E9411380E9407800C94862D8091160295
:103BA000882311F40C94862D89E40E944E79182FF5
:103BB000882321F00E94A478E62E01C0E12C8AE43B
:103BC0000E944E79082F882331F00E94A478F62EA7
:103BD000111104C00BC0F12C1123C1F0B4E0BE15CB
:103BE00010F00C940B30E4ECF2E004C0E4E0EF15CC
:103BF000D0F30CC084918F010F5F1F4F882311F405
:103C00000C94862D0E94FC79F801F4CF0E94E8798B
:103C10001123F1F02091920C3091930C4E2D420320
:103C2000B001439F700D11248091120D9091130DDE
:103C3000680F791F072E000C880B990B0E94D0CEBD
:103C400060934F0C7093500C8093510C9093520CD6
:103C50000023F1F02091940C3091950C5F2D5203CC
:103C6000B001539F700D11242091140D3091150D4A
:103C7000620F731F072E000C880B990B0E94D0CE89
:103C80006093530C7093540C8093550C9093560C86
:103C900080E50E944E798823E9F00E94C578882348
:103CA000A9F11123D9F020E030E040EA51E460911D
:103CB0004F0C7091500C8091510C9091520C0E94BD
:103CC00033D360934F0C7093500C8093510C9093AE
:103CD000520C04C080E50E940779E1CF0023B1F0C7
:103CE00020E030E040E052E46091530C7091540CBD
:103CF0008091550C9091560C0E9433D36093530CD5
:103D00007093540C8093550C9093560C86E40E944B
:103D10004E798823D9F00E94D4786B017C0120E091
:103D200030E0A9010E945AD5181684F420E030E052
:103D300040E752E4C701B6010E9410D460936F02BD
:103D40007093700280937102909372020E94EB65EF
:103D50000C94862D2093C504209385120C94862DF7
:103D6000E9E8CE2EE2E0DE2EF3E4EF2EFCE0FF2EBB
:103D700000E010E0612C712CD6018D916D010E9444
:103D80004E79882309F4F9C00E94D4784B015C0174
:103D9000B3E07B1659F0F801EA56FC4E20813181E0
:103DA000428153810E9433D34B015C01F801E254FC
:103DB000FD4E2081318142815381B401C5010E94B1
:103DC00033D39B01AC01E3E07E12C8C010928A128B
:103DD00010928B1210928C1210928D121092A212CD
:103DE0001092A3121092A4121092A5121092A61271
:103DF0001092A7121092A8121092A91210929A1261
:103E000010929B1210929C1210929D121092B2125C
:103E10001092B3121092B4121092B5121092AA120C
:103E20001092AB121092AC121092AD1210929E1220
:103E300010929F121092A0121092A1121092B6121C
:103E40001092B7121092B8121092B9121092AE12CC
:103E50001092AF121092B0121092B1128091BA1259
:103E600090E0FC01E057FD4E2081213009F04BC06D
:103E7000880F991F880F991FFC01EE56FD4E2CEA02
:103E800035EC47E257E360817181828193810E9422
:103E90005AD51816C4F520E030E0A901B401C501D7
:103EA0000E94CACE81112FC06CE1A62E63E0B62E0F
:103EB000D5018D915D01882319F00E94FC79F8CF1E
:103EC0008AE00E94FC792091BA12B4E02B9F900105
:103ED0001124F901EE56FD4E80819181A281B381BA
:103EE000B058F901E656FD4E80839183A283B383D7
:103EF000F901EE54FD4E80839183A283B383BC010C
:103F00002A2F9B2F03C0B4012A2D9B2D4B01A22EDB
:103F1000B92E8092CA129092CB12A092CC12B0927B
:103F2000CD1251E3A52E53E0B52EF50181915F012D
:103F3000882319F00E94FC79F8CF6091CA12709121
:103F4000CB128091CC129091CD1242E00E943F7C26
:103F50008AE00E94FC79662463940FC0D7016D91BA
:103F60007D918D919C910E9434D3F7016083718380
:103F700082839383872D0E94453B7394F4E0EF0E78
:103F8000F11C0C5F1F4F24E07212F6CE662009F47C
:103F90004FC020E030E0A9016091CA127091CB12AD
:103FA0008091CC129091CD120E9434D32091590D62
:103FB00030915A0D40915B0D50915C0D0E942FCFB6
:103FC0000E9465D5609306137093071380930813BE
:103FD000909309139091E4128091E512981719F0CB
:103FE0000E940A6025C00E94676080916F0081FB7B
:103FF000992790F981FF05C080916F008D7F809394
:104000006F0040910613509107136091081370914F
:1040100009134093F4065093F5066093F6067093E7
:10402000F706992329F080916F00826080936F00DA
:104030000E9407800C94862D0E9413C20C94862D3A
:1040400080913005909131058237910509F47CC645
:104050000CF0C5C08C34910509F49EC50CF059C014
:104060008B33910509F4DFC34CF58F31910509F4C9
:1040700053C27CF48131910509F443C22CF40297B8
:1040800008F4BCC10C94382C429709F43EC60C9439
:10409000382C8033910509F4F0C22CF48A9709F486
:1040A000DEC20C94382C8933910509F4EAC2CA9710
:1040B00011F00C94382C0EE313E04BC380349105BF
:1040C00009F4B6C47CF48D33910509F45BC40CF497
:1040D000CFC38E33910509F475C4CF9709F48DC40D
:1040E0000C94382C8B3491050CF053C58334910516
:1040F00014F00C94862D8134910511F40C94862DC6
:104100008234910511F00C94382C0E948A930C94FF
:10411000862D8C35910509F414C634F58135910549
:1041200009F4E9C58CF48E34910511F40C94862DB4
:104130000CF445C58F34910509F47EC48035910592
:1041400009F47EC40C94382C8335910509F4D9C543
:104150000CF4D4C58435910509F4D7C5853591058E
:1041600009F4D6C50C94382C8C36910511F40C94B6
:10417000862DC4F48936910509F460C534F4883677
:10418000910509F41FC50C94382C8A36910509F461
:10419000AFC58B36910511F00C94382C0E94998490
:1041A0000C94862D8F36910509F445C554F48D364F
:1041B000910509F46EC58E36910509F42BC50C9452
:1041C000382C8037910511F40C94862D8137910598
:1041D00011F00C94382C0E944D820C94862D88315D
:1041E00031E0930709F44CC70CF082C0883C91057C
:1041F00009F4FFC5DCF58837910509F4F5C5E4F449
:104200008537910511F40C94862D4CF48337910574
:1042100011F00C94382C0E94B97F0C94862D8637AF
:10422000910509F494C58737910511F00C94382C49
:104230000E949EB40C94862D8C38910509F42CC5EF
:104240005CF48937910511F00C94382C1092F90424
:104250001092F8040C94862D8B39910509F4F4C45E
:104260008E3B910509F432C50C94382C8E3C910597
:1042700009F4EDC6F4F48B3C910509F4D6C57CF441
:10428000893C910511F00C94382C7DE2E72E7DE0FD
:10429000F72E09E812E0E4E0DE2ED00EADC58C3C2E
:1042A000910509F4E0C58D3C910509F451C60C94C3
:1042B000382C8C3D910509F4D3C66CF4833D9105EF
:1042C00009F4CBC68A3D910511F00C94382C0E945C
:1042D000E5770C94862D8D3D910509F4CEC6823E7E
:1042E000910511F00C94382C0E9416770C94862DB1
:1042F000843A51E0950711F40C94DE29DCF58336FD
:10430000B1E09B0711F40C94CF29BCF48E32F1E09C
:104310009F0709F470C734F48D32914009F4B3C695
:104320000C94382C8F3241E0940709F4B8C78033DD
:10433000914009F4B7C70C94382C8139A1E09A0751
:1043400011F40C94D2294CF48039914011F00C9462
:10435000382C0E9467600C94862D8239F1E09F070B
:1043600011F40C94D8298A39914011F40C94862DBB
:104370000C94382C863F31E0930711F40C948D2B6C
:10438000E4F48C3A51E0950709F464C63CF4853AAC
:10439000914011F40C94F02A0C94382C843FE1E005
:1043A0009E0711F40C948A2B853F914011F00C94D8
:1043B000382C0E94A4A10C94862D833523E092070B
:1043C00011F40C94BF2B6CF4873F41E0940711F477
:1043D0000C94902B883F914011F40C949C2B0C94DE
:1043E000382C8B38A3E09A0711F40C94862D873E65
:1043F000934011F40C94252C0C94382CE0902E054D
:10440000F0902F0580E50E944E79882359F00E9494
:1044100094784B015C0111E0672B682B692B31F418
:1044200010E004C010E0812C912C540183E50E941F
:104430004E79882311F40C948F2D0E94D47820E0BB
:1044400030E04AE754E40E942FCF0E947DD44B0114
:104450005C0111110BC0672B682B692B39F4E11437
:10446000F10421F0F7018081811102C010E001C048
:1044700011E00E9467601123B9F0E6E8F4E284914C
:104480008F010F5F1F4F882321F00E94FC79F801F4
:10449000F6CFD7018D917D01882319F00E94FC7918
:1044A000F8CF8AE00E94FC7983E080937B0B81E067
:1044B0008093C00481149104A104B104D9F00E9436
:1044C000914C860E971EA81EB91E0E94914CDC01CD
:1044D000CB0188199909AA09BB09B7FD04C010923C
:1044E000C0040C94862D8091C0048823C1F30E94DF
:1044F000D761EBCF8091C004882389F30E94D761F4
:10450000F9CF5F988A9880910801817080930601A5
:10451000129847980C94862D0E947C424CE3C42E3E
:10452000D12CE12CF12CA70196010E94D6D2762E37
:10453000672ECA01B901A70196010E94D6D26B016C
:104540007C01CA01B90128E130E040E050E00E945E
:10455000D6D24B015C01C9016DE671E00E9408D61C
:104560008E010F5F1F4F6115710599F06F927F9259
:10457000DF92CF929F928F929F938F937F936F93AF
:104580008BE093E09F938F931F930F930E949BCE9A
:1045900026C0009789F06F927F92DF92CF929F9210
:1045A0008F929F938F938BEF92E09F938F931F93A4
:1045B0000F930E949BCE13C081149104A104B104F7
:1045C000B1F06F927F92DF92CF929F928F928FEE97
:1045D00092E09F938F931F930F930E949BCE0FB6F1
:1045E000F894DEBF0FBECDBFE6E8F4E223C0C114ED
:1045F000D104E104F10469F06F927F92DF92CF92CF
:1046000087EE92E09F938F931F930F930E949BCE10
:10461000E6CF6F927F9283EE92E09F938F931F93EA
:104620000F930E949BCE0F900F900F900F900F90C2
:104630000F90DACF84917F019FEFE91AF90A88235E
:1046400021F00E94FC79F701F5CFB8018FE193E0EA
:104650000E94BEA48AE00E94FC790C94862D83E51A
:104660000E944E7981110C94942D84E40E944E791D
:1046700081110C94942D0C94862D0E94B2A70C9459
:10468000862D85E40E940779882379F181E090E006
:104690002091FB043091FC04232B11F080E090E08A
:1046A0009093FC048093FB040E94B7A28091FB04CA
:1046B0009091FC04892B19F401E613E00EC007E782
:1046C00013E0D8018D918D01882319F00E94FC79A7
:1046D000F8CF8AE00E94FC7924C0F80181918F0113
:1046E0008823B9F30E94FC79F8CF20910805309116
:1046F000090540910A0550910B0560918612709151
:10470000871280918812909189120E9433D360930E
:10471000570C7093580C8093590C90935A0C0E942C
:10472000EB6583E50E940779882331F081E090E012
:104730009093FE048093FD0482E50E94077988230C
:1047400011F40C94862D1092FE041092FD040C942A
:10475000862DD8018D918D01882319F00E94FC7956
:10476000F8CF8AE00E94FC7926ECC22E24E0D22EFB
:1047700030E9E32E32E1F32E02E912E1412C512C13
:104780003201332433944801F80180819181A28160
:10479000B381F60181939193A193B1936F01D701F6
:1047A0003D927D0184E8A82E83E0B82EF501819129
:1047B0005F01882319F00E94FC79F8CFC301B20190
:1047C0000E94257CBCE3AB2EB3E0BB2ED5018D91BE
:1047D0005D01882319F00E94FC79F8CF0C5F1F4F10
:1047E000F401608171818281938142E00E943F7C6B
:1047F0008AE00E94FC794A9445284628472829F0F7
:10480000412C512C32014394BECF10928F12109242
:104810008E121092861210928712109288121092A5
:1048200089120C94862D1092BB1210929012109245
:10483000C6041092C7041092C8041092C9041092C2
:1048400091121092CA041092CB041092CC041092D0
:10485000CD0406E813E0D8018D918D01882319F06D
:104860000E94FC79F8CF8AE00E94FC790C94862D96
:1048700020E030E0A9016091D7127091D8128091A8
:10488000D9129091DA120E94CACE882381F081E079
:104890008093BB1206E913E0F80181918F01882310
:1048A00019F00E94FC79F8CF8AE00E94FC791092FE
:1048B0008A1210928B1210928C1210928D121092FA
:1048C000A2121092A3121092A4121092A51210928A
:1048D000A6121092A7121092A8121092A91210926A
:1048E00086121092871210928812109289121092DA
:1048F0009A1210929B1210929C1210929D1281E0BB
:104900008093690210929212109293121092941254
:10491000109295121092AA121092AB121092AC1231
:104920001092AD121092B2121092B3121092B412F1
:104930001092B51210929E1210929F121092A01215
:104940001092A11280936A021092961210929712FE
:1049500010929812109299121092AE121092AF12F9
:104960001092B0121092B1121092B6121092B712A9
:104970001092B8121092B91210928F1210928E12D9
:104980000C94862D0E9467608CE40E94077988232E
:1049900019F081E08093540282E50E940779882310
:1049A00019F081E08093530281E40E940779882303
:1049B00011F40C94862D81E080935402809353026D
:1049C0000C94862D0E9467608CE40E940779811107
:1049D0001092540282E50E940779811110925302CD
:1049E00081E40E940779882311F40C94862D10929B
:1049F0005402109253020C94862D0E9467608CE43E
:104A00000E940779811110927D0B82E50E9407793F
:104A1000811110927C0B81E40E940779882311F4A4
:104A20000C94862D10927C0B10927D0B0C94862D8D
:104A30000E942A940C94862D85EA93E00E9480615E
:104A400085E50E94077981110E94F98684E40E941D
:104A5000077981110E94388587E50E9407798823AC
:104A600031F00E94D4780E947DD46093580283E58F
:104A70000E940779882331F00E94D4780E947DD467
:104A8000609357028FE40E940779882341F00E94C7
:104A9000D4780E9478D470935602609355028EE4C5
:104AA0000E940779882351F00E94D4786093820C89
:104AB0007093830C8093840C9093850C8DE40E94FA
:104AC0000779882351F00E94D47860937A0C709310
:104AD0007B0C80937C0C90937D0C89E50E94077978
:104AE000882351F00E94D4786093760C7093770CF1
:104AF0008093780C9093790C88E50E94077988233D
:104B000051F00E94D4786093720C7093730C809370
:104B1000740C9093750C82E40E940779882351F0FD
:104B20000E94D47860937E0C70937F0C8093800CED
:104B30009093810C81E40E940779882359F00E94A8
:104B4000D4780E9478D470930C0260930B02CB014E
:104B50000E94E18484E50E940779882349F00E943D
:104B6000D4780E947DD4862F6093FF040E94BA8877
:104B700089E40E940779882309F4C8C78091FF045B
:104B80000E94BA8880910B0290910C020E94E184ED
:104B9000BDC70E94E6A4BAC78091E604813009F03F
:104BA000B5C782E08093E6040E94914C6093DE04D6
:104BB0007093DF048093E0049093E104A7C70E9400
:104BC00044A5A4C788E690E00E94E97B81119EC7B6
:104BD0008091A21383FD9AC783E50E944E798823B2
:104BE000B1F00E94D4780E9478D4DC01CB016091AE
:104BF000ED070E945A790E94D47820E030E04AEA1A
:104C000052E40E94CACE181614F00E9444A50E94D5
:104C1000B4A57CC78EE40E944E79882309F476C738
:104C20000E94A4786093DD127093DE128093DF12ED
:104C30009093E0126BC70E94778268C70E94C48479
:104C400010927B0B0C94153083E50E944E798823DB
:104C500009F45CC70E94B478182F8D3308F01CE368
:104C600010938A0B0E94914C6B017C01212F30E044
:104C7000A8EEB3E00E9424D3C60ED71EE81EF91E8C
:104C8000C092860BD092870BE092880BF092890B32
:104C90003DC70E94EE823AC78091A21383FD36C7BA
:104CA00083E50E944E79882309F430C70E94D478A6
:104CB0000E9478D46738710514F067E870E070934B
:104CC000E0076093DF070E947D3E20C78091A2131A
:104CD00083FD1CC783E50E944E7967968FAF679767
:104CE00081116DC782E50E944E79811168C70EC798
:104CF0000E94A8840BC70E943F8208C71092C40478
:104D000005C781E08093C40401C70E94E281FEC60A
:104D100083E50E940779882309F4F8C60E94D478B5
:104D200020E030E04AE754E40E942FCF0E947DD477
:104D30006093820B7093830B8093840B9093850B0D
:104D4000E5C60E944481E2C60E940E81DFC6009142
:104D50002E0510912F0583E0D12C40E08150E9F021
:104D6000D8019C91292F2B7F2134C1F711962C91CA
:104D70002133A1F7913421F0953421F441E002C0B0
:104D8000DD24D39498012E5F3F4F89012F5F3F4F61
:104D9000F80190819032C9F3E1CF442369F0E6E84D
:104DA000F4E284917F012FEFE21AF20A882321F0C6
:104DB0000E94FC79F701F5CFDD2069F0E6E6F3E02B
:104DC00084917F013FEFE31AF30A882321F00E94C8
:104DD000FC79F701F5CFD8018D918D01882309F475
:104DE00042CD0E94FC79F7CF2093F9042093F80478
:104DF0008DC60E94577F8AC6F80181918F010E945B
:104E00000779882351F00E94D4780E947DD4D7017D
:104E10006D937D938D939C931397B4E0EB0EF11CEF
:104E2000D012EACF0E94E4A571C654E2E52E58E004
:104E3000F52E09E812E064E0D62ED00EF80181913B
:104E40008F010E940779882341F00E94D478D7010E
:104E50006D937D938D939C931397B4E0EB0EF11CAF
:104E6000D012ECCF53C683E50E944E798823A1F07F
:104E70000E94D47860931C0870931D0880931E08CC
:104E800090931F08609318087093190880931A086C
:104E900090931B0810E001C011E080E50E944E795C
:104EA000882359F00E94D47860931C0870931D08E1
:104EB00080931E0890931F0810E082E50E944E79AF
:104EC000882359F00E94D4786093200870932108B9
:104ED000809322089093230810E084E50E944E7985
:104EE000882359F00E94D4786093180870931908A9
:104EF00080931A0890931B0809C6112309F406C66B
:104F000040911C0850911D0860911E0870911F0867
:104F100080E793E00E946CA4409120085091210802
:104F200060912208709123088DE693E00E946CA4A2
:104F3000409118085091190860911A0870911B0847
:104F40008AE693E00E946CA48AE00E94FC79DEC5A8
:104F500081E50E940779882351F00E94947860933C
:104F6000340870933508809336089093370883E5AA
:104F70000E940779882351F00E94D47860933C08FE
:104F800070933D0880933E0890933F0884E50E940B
:104F90000779882351F00E94D47860933808709381
:104FA000390880933A0890933B0888E50E94077976
:104FB000882351F00E94D478609308087093090800
:104FC00080930A0890930B0889E50E94077988234B
:104FD00051F00E94D47860930C0870930D08809370
:104FE0000E0890930F088AE50E9407798823F1F054
:104FF0000E94D4786093100870931108809312086F
:10500000909313082DEC3CEC4CEC5DE30E94CACE6F
:10501000181664F0E0E8F3E084918F010F5F1F4FF2
:10502000882321F00E94FC79F801F6CF85E40E94E4
:105030000779882309F46AC50E94D478609314081C
:105040007093150880931608909317085FC50E9407
:10505000CB805CC50E940C7059C50E94817E56C5EC
:1050600083E50E944E79882309F450C50E94A478F4
:105070007093300260932F0249C50E94787746C52D
:105080000E94407643C585E40E944E79882339F01A
:105090000E94B478082F823008F094C001C000E06C
:1050A00080E50E940779882361F00E94D47824E08B
:1050B000029FF0011124E050F94F608371838283D5
:1050C000938389E40E9407798823A9F00E94D47809
:1050D00044E0049F90011124D901A850B94F7D01EB
:1050E0002CEA35EC47E25EE30E942FCFF7016083A4
:1050F00071838283938384E40E9407798823B1F0CB
:105100000E94D478F4E00F9F90011124A901485F18
:10511000584F7A012CEA35EC47E25EE30E9410D446
:10512000D7016D937D938D939C931397E6E8F4E2FA
:1051300084917F01BFEFEB1AFB0A882321F00E94C4
:10514000FC79F701F5CF10E0B80180ED93E00E9403
:1051500089A4000F111F000F111FF801E050F94F33
:1051600040815181628173818CEC93E00E946CA438
:10517000F801E850F94F2CEA35EC47E25EE3608134
:105180007181828193810E9410D4AB01BC0188ECB3
:1051900093E00E946CA4F801E85FF84F2CEA35EC2C
:1051A00047E25EE360817181828193810E942FCF0B
:1051B000AB01BC0184EC93E00E946CA48AE00E94E5
:1051C000FC79A4C4ECE8F4E284918F010F5F1F4FD7
:1051D000882321F00E94FC79F801F6CFE2EBF3E09E
:1051E00084918F010F5F1F4F882309F48FC40E94A1
:1051F000FC79F801F5CF83E50E940779182F882301
:1052000071F00E94D4780E9478D470932302609346
:10521000220221E0672B09F020E02093420880E57C
:105220000E940779882359F02091220230912302AD
:10523000232B11F00E94C5788093420867C4111196
:1052400065C4E6E8F4E284918F010F5F1F4F882365
:1052500021F00E94FC79F801F6CF8091420881117B
:1052600003C060E173E002C06DE073E089EE93E09B
:105270000E94BEA4609122027091230288ED93E007
:105280000E9489A4E4EDF3E084918F010F5F1F4F2A
:10529000882309F43BC40E94FC79F801F5CF0E94F1
:1052A000F97034C480E50E940779882351F00E9488
:1052B000D478609318077093190780931A07909316
:1052C0001B0789E40E940779882381F00E94D47823
:1052D0002CEA35EC47E25EE30E942FCF609314077F
:1052E00070931507809316079093170784E40E9424
:1052F0000779882381F00E94D4782CEA35EC47E2C4
:105300005EE30E9410D4609310077093110780939E
:10531000120790931307E6E8F4E284918F010F5F80
:105320001F4F882321F00E94FC79F801F6CF4091AD
:1053300018075091190760911A0770911B0784E0B4
:1053400094E00E946CA42CEA35EC47E25EE36091A5
:1053500014077091150780911607909117070E9406
:1053600010D4AB01BC0180E094E00E946CA42CEA54
:1053700035EC47E25EE36091100770911107809170
:105380001207909113070E942FCFAB01BC018CEF45
:1053900093E00E946CA48AE00E94FC79B7C30E944B
:1053A000F16FB4C381E00E940C3A0E940780AEC343
:1053B00080E00E940C3A0E940780A8C383E50E9407
:1053C0000779882349F00E94C578F82E811106C01C
:1053D00080E00E947A3702C0F090D6128091BE120F
:1053E0009091BF12A091C012B091C11289839A838B
:1053F000AB83BC838091C2129091C312A091C4125E
:10540000B091C5128D839E83AF83B8878091C612F9
:105410009091C712A091C812B091C91289879A873A
:10542000AB87BC878091920C9091930C892BB1F142
:1054300083E40E940779811161C530C093014EADAC
:1054400023965FAD239727966FAD27977A2D2B96DE
:105450008FAD2B972F969FAD2F970E9434D320E0CE
:1054600030E040E05FE30E942FCFA20191010E9453
:1054700034D32B013C012DEB37E346E855EB0E947A
:105480005AD587FD9AC52DEB37E346E855E3C301AE
:10549000B2010E94CACE18160CF48FC586E50E9490
:1054A0000779882351F08091920C9091930C892B6D
:1054B00021F00E9465370E9450378AE50E940779E3
:1054C000882321F00E94D4780E9455BC8F2D0E9421
:1054D0007A37F11003C0E6E8F4E21CC08091D612DE
:1054E0008111F9CFECE8F4E284918F010F5F1F4F37
:1054F000882321F00E94FC79F801F6CFE8E2F4E07D
:1055000084918F010F5F1F4F882329F30E94FC793C
:10551000F801F6CF84918F010F5F1F4F882321F090
:105520000E94FC79F801F6CF8091D612811103C058
:1055300068E173E002C064E173E08AE194E00E94F4
:10554000BEA48AE00E94FC79E6E8F4E284918F012F
:105550000F5F1F4F882321F00E94FC79F801F6CFDE
:10556000EDE0F4E084918F010F5F1F4F882321F05D
:105570000E94FC79F801F6CFC090D712D090D812D3
:10558000E090D912F090DA1220E030E0A901C701D2
:10559000B6010E945AD518164CF442E0C701B60174
:1055A0000E943F7C8AE00E94FC790CC0E8E0F4E0B5
:1055B00084918F010F5F1F4F882321F00E94FC7997
:1055C000F801F6CF4CE050E06EEB72E1CE010196AF
:1055D0000E9437D6892B09F499C20E94078096C28F
:1055E00089E40E944E79882321F00E94A478162F26
:1055F00001C01FEF8AE40E944E79882321F00E94A7
:10560000A478062F01C00FEF8AE50E940779F82ED3
:10561000811105C081E50E940779D82E01C0D12CE7
:1056200017FD02C007FF03C0ECE8F4E205C0F1106B
:105630001AC0D11018C0F8CF84918F010F5F1F4F8F
:10564000882321F00E94FC79F801F6CFE6E6F4E029
:1056500084918F010F5F1F4F882309F457C20E9466
:10566000FC79F801F5CF153018F0ECE8F4E206C04B
:105670000530D8F716C00E94FC79F80184918F019B
:105680000F5F1F4F8111F7CFE7E4F4E084918F01A2
:105690000F5F1F4F882309F439C20E94FC79F8017B
:1056A000F5CFE12E110FFF08002E000C110B0E9408
:1056B000D478DD2099F025E02E9DF0012F9DF00D8E
:1056C0001124E00FF11FEE0FFF1FEE0FFF1FEA5630
:1056D000F34F208131814281538103C020E030E0CB
:1056E000A901A5E0AE9DF001AF9DF00D11240E0FB4
:1056F0001F1F000F111F000F111F0A56134F0E948A
:1057000034D3D8016D937D938D939C9313970E940E
:105710009335FCC10E94858DF9C10E949F99F6C105
:1057200083E50E940779882321F00E94C57891E0E3
:1057300089270E948294EAC181E08093180D0E941B
:10574000989B1092180D882309F4E0C1E6E8F4E272
:1057500084918F010F5F1F4F882321F00E94FC79F5
:10576000F801F6CFE6E8F4E084918F010F5F1F4F58
:10577000882309F4CBC10E94FC79F801F5CF8AE5B2
:105780000E944E79882309F438C00E94D4786B01B6
:105790007C0120E030E040EA51EC0E945AD587FDC0
:1057A00013C020E030E040EA51E4C701B6010E9496
:1057B000CACE18164CF0C0929213D0929313E09276
:1057C0009413F0929513A2C1ECE8F4E284918F0156
:1057D0000F5F1F4F81110DC0E3EAF4E084918F0148
:1057E0000F5F1F4F882309F491C10E94FC79F801D3
:1057F000F5CF0E94FC79F801E9CFE6E8F4E2849164
:105800008F010F5F1F4F882321F00E94FC79F80160
:10581000F6CFE4E9F4E084918F010F5F1F4F8823F6
:1058200021F00E94FC79F801F6CF4091921350913B
:105830009313609194137091951381E994E00E9401
:105840006CA48AE00E94FC7961C181E08093160219
:1058500083E50E944E79882339F00E94C578811132
:1058600055C10E94D26D52C183E50E940779F7CFDE
:105870000E9413C24BC18091BA128093CE04009152
:10588000300510913105F02E8091A21385FF14C0D0
:10589000B80177278AE095E00E9489A489E20E94F6
:1058A000FC798AE00E94FC794EEB52E16BEE74E0E9
:1058B00086EF94E00E94237D8091BA12F81669F079
:1058C00083E50E944E79882319F00E94C57803C0B1
:1058D00083E50E940779F82E02C0FF24F39486E442
:1058E0000E944E79882319F00E94D47803C060E0AA
:1058F00070E0CB0120E030E040E752E40E9410D499
:10590000AB01BC012F2D802F0E94F96D8091A21355
:1059100085FF14C04EEB52E16DEC74E087ED94E02E
:105920000E94237DE0ECF4E084918F010F5F1F4F14
:10593000882321F00E94FC79F801F6CF0091300510
:1059400011E08091CE04081301C010E06091C612EE
:105950007091C7128091C8129091C9122091FF04D2
:10596000222309F477C0013009F074C0112309F42F
:1059700071C0E7966FAFE797E8967FAFE897E99633
:105980008FAFE997EA969FAFEA970E94676020E0A1
:1059900030E040E450E4E7966FADE797E8967FADDE
:1059A000E897E9968FADE997EA969FADEA970E944E
:1059B00034D36B017C016093570C7093580C809327
:1059C000590C90935A0C0E94EB650E9467600E94EC
:1059D00038850E94914C40915502509156024A01DF
:1059E000550FAA08BB08DC01CB0188199909AA093F
:1059F000BB09B7FF03C00E94D761EBCF80908A0C30
:105A000090908B0CA0908C0CB0908D0CA501940103
:105A1000C701B6010E9434D32091080530910905D1
:105A200040910A0550910B050E9433D36093C61232
:105A30007093C7128093C8129093C9128092080580
:105A400090920905A0920A05B0920B050E94427D32
:105A50000E9407808091FF04882309F457C0011138
:105A600055C0112309F452C00E9467600E94F98654
:105A70000E94914C8B019C0180915502909156029D
:105A8000BC01990F880B990B061B170B280B390BC0
:105A900037FF03C00E94D761EBCF0E94234CC09018
:105AA000860CD090870CE090880CF090890C2091A7
:105AB00008053091090540910A0550910B05C70171
:105AC000B6010E9433D39B01AC016091C612709164
:105AD000C7128091C8129091C9120E9434D360936A
