:100000000C9446130C9477130C9477130C94771379
:100010000C9477130C9477130C9477130C94771338
:100020000C9477130C9477130C9477130C94771328
:100030000C9477130C9477130C9477130C94771318
:100040000C9477130C94F6A90C9477130C947713F3
:100050000C9477130C9477130C94AC7E0C947DBFA6
:100060000C9477130C943B3E0C9477130C947713F9
:100070000C9477130C9477130C9477130C947713D8
:100080000C949EAB0C9477130C9477130C94771309
:100090000C9477130C9477130C9477130C947713B8
:1000A0000C9477130C9477130C9471AB0C94771316
:1000B0000C9477130C9477130C9477130C9444AB33
:1000C0000C9477130C9477130C9477130C94771388
:1000D0000C9477130C9477130C9477130C94771378
:1000E0000C9477136B3E713E823E8D3E953EAA3E48
:1000F000993EAA3E9D3EA13EAA3EA73E687D347E23
:10010000397E647E707E4C7E517E587D5BBD5EBDC7
:100110004DBD51BD57BD95BD62BD66BD6CBD70BDC9
:1001200074BD7ABD7EBD82BD95BD88BD8CBD90BDC0
:1001300099BE9EBEA3BEADBEB7BE30BFC1BEC9BED6
:10014000D1BEDBBEE5BEEFBEFEBE08BF30BF12BFF4
:100150001CBF26BF084AD73B3BCE016E84BCBFFD07
:10016000C12F3D6C74319ABD56833DDA3D00C77F87
:1001700011BED9E4BB4C3E916BAAAABE0000008020
:100180003F05A84CCDB2D44EB93836A9020C50B9AF
:10019000918688083CA6AAAA2ABE000000803F00DB
:1001A0004E414E494E495459494E46CDCCCC3D0A5C
:1001B000D7233C17B7D13877CC2B329595E6241F3F
:1001C000B14F0A000020410000C84200401C4620F8
:1001D000BCBE4CCA1B0E5AAEC59D7447322F473366
:1001E0002062616420706172616D65746572730A6A
:1001F000003C3C3C205A5F534146455F484F4D49C7
:100200004E470A00203A205A5F534146455F484F07
:100210004D494E470A00202064657374696E61740D
:10022000696F6E3D005A5F534146455F484F4D49E7
:100230004E47203E3E3E0A00486F6D6520585920CB
:1002400066697273740A003C3C3C204732380A00ED
:100250005261697365205A20286265666F72652055
:10026000686F6D696E672920746F20003E20656E8F
:100270006473746F70732E656E61626C652874723E
:100280007565290A003C3C3C204732380A003E2074
:10029000686F6D696E67206E6F74206E656564654A
:1002A000642C20736B69700A003E3E3E2047323852
:1002B0000A004D65736820706F696E742063616E0B
:1002C0006E6F74206265207265736F6C7665640A68
:1002D0000020573A002C20002C2000544845524D55
:1002E000414C5F50524F54454354494F4E00415585
:1002F000544F5245504F52545F53445F53544154EE
:10030000555300454D455247454E43595F50415264
:1003100053455200434153455F4C494748545F425F
:1003200052494748544E45535300544F47474C4554
:100330005F4C494748545300534F46545741524528
:100340005F504F574552004255494C445F5045520B
:1003500043454E54004C4556454C494E475F444139
:100360005441005A5F50524F4245004155544F4C42
:100370004556454C005052494E545F4A4F4200503A
:10038000524F4752455353004155544F5245504FD9
:1003900052545F54454D5000564F4C554D455452A4
:1003A000494300454550524F4D0053455249414C39
:1003B0005F584F4E5F584F4646004649524D574191
:1003C00052455F4E414D453A4D61726C696E203128
:1003D0002E312E392E332028476974687562292002
:1003E000534F555243455F434F44455F55524C3A36
:1003F00068747470733A2F2F6769746875622E631E
:100400006F6D2F4D61726C696E4669726D776172A6
:10041000652F4D61726C696E2050524F544F434F9F
:100420004C5F56455253494F4E3A312E30204D4184
:100430004348494E455F545950453A334420507221
:10044000696E7465722045585452554445525F4355
:100450004F554E543A3220555549443A63656465C8
:10046000326132662D343161322D343734382D39D2
:100470006231322D63353563363266333637666620
:100480000A002F2F20002054002052004163636592
:100490006C65726174696F6E3A2050005741524E1C
:1004A000494E4721204C6F77205A204A65726B20B5
:1004B0006D6179206C65616420746F20756E776161
:1004C0006E746564207061757365732E0A00546FD5
:1004D0006F206661722066726F6D2072656665724C
:1004E000656E636520706F696E740A00205A002083
:1004F0005900580020204D61783A2000205A0020F1
:100500005900580020204D696E3A20004F6E20009F
:100510004F666600536F667420656E6473746F7007
:10052000733A2000486F74656E64206F6666736569
:1005300074733A0020466C6F773A2000000136371A
:100540002603FFFFFF2A3C3D380EFFFFFF352E300C
:100550003E12FFFFFFFF31FF0C0809FFFFFF1A1CCF
:1005600018FFFF2A24221EFFFF2C08440AFF43071E
:10057000FF45206F7574206F662072616E67650A93
:1005800000536572766F20003A2000205365727622
:100590006F2000496E76616C6964206578747275AD
:1005A0006465720A0020643A0020693A0020703ABB
:1005B0000020653A0020643A0020693A0020703A31
:1005C000004E6F2063617365206C696768740A0070
:1005D0004F66660A0046616465204865696768740D
:1005E0002000426564204C6576656C696E6720006A
:1005F0004661696C656420746F20656E61626C652C
:1006000020426564204C6576656C696E670A004D12
:1006100065736820706F696E742063616E6E6F74AD
:10062000206265207265736F6C7665640A004D34D4
:10063000323120696E636F7272656374207061720B
:10064000616D657465722075736167650A003A2093
:100650000050726F6265205A204F666673657400A1
:100660003F5A206F7574206F662072616E67652037
:10067000282D323020746F203230290A0020647215
:10068000697665722063757272656E743A20003CFB
:100690003C3C2067636F64655F540A00203A204148
:1006A000465445520A00202063757272656E745F6D
:1006B000706F736974696F6E3D00203A2042454641
:1006C0004F52450A00202063757272656E745F7028
:1006D0006F736974696F6E3D003E3E3E2067636FC5
:1006E00064655F5428002C20002C2000203A2073E1
:1006F000796E635F706C616E5F706F736974696F40
:100700006E0A00202063757272656E745F706F737D
:100710006974696F6E3D00656E7175657565696EAA
:10072000672022004C696E65204E756D62657220EF
:100730006973206E6F74204C617374204C696E6510
:10074000204E756D6265722B312C204C61737420C4
:100750004C696E653A20005072696E746572207340
:10076000746F707065642064756520746F206572A5
:10077000726F72732E2046697820746865206572E6
:10078000726F7220616E6420757365204D3939393E
:1007900020746F20726573746172742E2028546502
:1007A0006D7065726174757265206973207265730E
:1007B00065742E20536574206974206166746572B7
:1007C0002072657374617274696E67290A004E6FD6
:1007D00020436865636B73756D2077697468206C5E
:1007E000696E65206E756D6265722C204C61737444
:1007F000204C696E653A2000636865636B73756DA4
:10080000206D69736D617463682C204C6173742072
:100810004C696E653A20004D3131300020496E76CA
:10082000616C69642065787472756465722000007B
:10083000000000000020C1000040C0000052430042
:10084000808943000052430A20736F66745F656EAF
:100850006473746F705F6D6178203D20000A2073AF
:100860006F66745F656E6473746F705F6D696E2020
:100870003D20000A20706F736974696F6E5F736842
:10088000696674203D200020617869733A0A206807
:100890006F6D655F6F6666736574203D2000466FFF
:1008A0007220003C3C3C20646F5F626C6F636B693C
:1008B0006E675F6D6F76655F746F0A003E3E3E2027
:1008C000646F5F626C6F636B696E675F6D6F766597
:1008D0005F746F00203A2073657475705F666F7285
:1008E0005F656E6473746F705F6F725F70726F625A
:1008F000655F6D6F76650A00202063757272656EA4
:10090000745F706F736974696F6E3D00203A206385
:100910006C65616E5F75705F61667465725F656E50
:100920006473746F705F6F725F70726F62655F6D1A
:100930006F76650A00202063757272656E745F7051
:100940006F736974696F6E3D00646F5F70726F6280
:10095000655F726169736528006465706C6F793AD0
:100960002000203A207365745F70726F62655F6467
:1009700065706C6F7965640A00202063757272651A
:100980006E745F706F736974696F6E3D00203A20FA
:100990003C3C3C20646F5F70726F62655F6D6F7688
:1009A000650A00202063757272656E745F706F73E4
:1009B0006974696F6E3D00203A203E3E3E20646FB0
:1009C0005F70726F62655F6D6F76650A00202063ED
:1009D000757272656E745F706F736974696F6E3D66
:1009E0000072657365745F6265645F6C6576656CE3
:1009F0000A002028646F6E65290A004578747261C8
:100A0000706F6C617465205B0042696C696E656132
:100A100072204C6576656C696E6720477269643A2E
:100A20000A00537562646976696465642077697445
:100A300068204341544D554C4C20524F4D204C653D
:100A400076656C696E6720477269643A0A003C3CBF
:100A50003C20646F5F686F6D696E675F6D6F766570
:100A600028005B00290A002C20002C20003E3E3E7E
:100A700020646F5F686F6D696E675F6D6F76652864
:100A800000202D20496E76616C696420657874724F
:100A900075646572206E756D62657220210A002092
:100AA00020506C616E6E6572427566666572427941
:100AB0007465733A20002046726565204D656D6F40
:100AC00072793A2000436F6D70696C65643A204A10
:100AD000756E20313820323032300A00207C2041BF
:100AE0007574686F723A20286E6F6E652C2064658D
:100AF0006661756C7420636F6E666967290A0032DF
:100B00003031382D30382D303100204C6173742055
:100B1000557064617465643A2000312E312E392E8F
:100B2000330A004D61726C696E0020536F667477F2
:100B30006172652052657365740A002057617463A1
:100B400068646F672052657365740A002042726F93
:100B5000776E206F75742052657365740A002045A6
:100B6000787465726E616C2052657365740A00500A
:100B70006F77657255700A0073746172740A002091
:100B80005A3A0020593A0020583A00656E6473744E
:100B90006F7073206869743A20004572726F72201A
:100BA00077726974696E6720746F20454550524FA3
:100BB0004D210A00290A002062797465733B206385
:100BC0007263200053657474696E67732053746F89
:100BD000726564202800556E6B6E6F776E20636FB0
:100BE0006D6D616E643A202200203A203C3C3C202E
:100BF00072756E5F7A5F70726F62650A00202063A3
:100C0000757272656E745F706F736974696F6E3D33
:100C1000002044697363726570616E63793A0032D3
:100C20006E642050726F6265205A3A00203A203C70
:100C30003C3C2072756E5F7A5F70726F62650A006D
:100C4000202063757272656E745F706F736974696A
:100C50006F6E3D00534C4F572050726F6265206697
:100C600061696C210A003173742050726F626520D3
:100C70005A3A00203A203C3C3C2072756E5F7A5F05
:100C800070726F62650A00202063757272656E74FF
:100C90005F706F736974696F6E3D004641535420F5
:100CA00050726F6265206661696C210A00203A20EB
:100CB0003E3E3E2072756E5F7A5F70726F62650AAB
:100CC00000202063757272656E745F706F73697453
:100CD000696F6E3D003C3C3C2070726F62655F70D6
:100CE000740A0050726F62696E67206661696C6594
:100CF000640A00205A3A200020593A2000426564D4
:100D000020583A2000203A200A0020206375727291
:100D1000656E745F706F736974696F6E3D005F72AA
:100D2000656C6174697665290A002C20002C20000E
:100D30002C20002C20003E3E3E2070726F62655FCA
:100D4000707428002066697273740A005A00590092
:100D50005800486F6D6520006563686F3A000000B9
:100D600020002300260029002C002F003200000163
:100D700000000301060109010000220025002800EF
:100D80002B002E0031003400020100000501080193
:100D90000B010505050507050808080802020202FF
:100DA0000A0A080804040404010101010101010107
:100DB0000303030303030303040707070C0C0C0CD2
:100DC0000C0C0C0C020202020606060606060606BB
:100DD0000B0B0B0B0B0B0B0B010210202008081048
:100DE000204010204080020102010804020101029B
:100DF0000408102040808040201008040201800474
:100E000002018040201008040201080402010102CE
:100E1000040810204080010204081020408020288F
:100E20000041424C2041646A7573746D656E742094
:100E30005A0020480020570020590042696C696E12
:100E400065617220477269642058005A20466164C7
:100E5000653A20002028656E61626C6564290A008D
:100E6000202864697361626C6564290A0042494CF8
:100E7000494E454152004175746F20426564204CD3
:100E80006576656C696E673A2000204E6F7A7A6CE1
:100E900065290A0020262041626F76650020262001
:100EA00053616D65205A2061730020262042656CD5
:100EB0006F77002D4261636B002028526967687468
:100EC00000205A3A0020593A0050726F6265204F54
:100ED000666673657420583A004649585F4D4F5511
:100EE0004E5445445F50524F42450A0050726F6263
:100EF000653A2000436F72650A004D616368696E50
:100F00006520547970653A20003C3C3C20473239DA
:100F10000A0020636F72726563746564205A3A0038
:100F200047323920756E636F727265637465642031
:100F30005A3A00203A203E2070726F62696E672034
:100F4000636F6D706C6574650A0020206375727242
:100F5000656E745F706F736974696F6E3D002028F1
:100F600044525952554E2900473239204175746F09
:100F700020426564204C6576656C696E67003F2091
:100F8000284C2C522C462C4229206F7574206F66F9
:100F900020626F756E64732E0A003F2856296572B1
:100FA000626F7365206C6576656C20697320696D6E
:100FB000706C61757369626C652028302D34292E40
:100FC0000A00426164205A2076616C75650A004E01
:100FD0006F2062696C696E65617220677269640A6C
:100FE000003C3C3C204732390A003E204175746F7A
:100FF0002D6C6576656C206E6F74206E656564651A
:10100000642C20736B69700A00203A203E3E3E201B
:101010004732390A00202063757272656E745F7002
:101020006F736974696F6E3D00205A3A2000205931
:101030003A200042656420583A2000256973002553
:10104000696D20256973002569682025696D202553
:10105000697300256964202569682025696D20254C
:101060006973002569792025696420256968202530
:10107000696D20256973005072696E742074696D02
:10108000653A200024F4D43050C38E20C2A2401709
:10109000828B7011127A910D816CD90AA861E108D6
:1010A000C7586607615143061E4B5D05C145A7043D
:1010B0001A411104093D9803713931034036DB02AE
:1010C00065339102D4305402802E1D02632CEE0150
:1010D000752AC501B028A001102781018F25640160
:1010E0002B244B01E0223401AC211F018D200D0186
:1010F000801FFC00841EED00971DDF00B81CD2008D
:10110000E61BC600201BBC00641AB200B219A8007E
:101110000A19A0006A189900D117910040178B0096
:10112000B516840031167E00B31579003A157300A8
:10113000C7146F0058146A00EE136600881363002A
:1011400025135E00C7125B006C1257001512540085
:10115000C111510070114F0021114B00D6104900F0
:101160008D1047004610440002104200C00F40009E
:10117000800F3E00420F3C00060F3B00CB0E3800B4
:10118000930E37005C0E3500270E3400F30D32004D
:10119000C10D3100900D3000600D2E00320D2D007C
:1011A000050D2C00D90C2B00AE0C2900850C290054
:1011B0005C0C2700350C27000E0C2600E80B2400E1
:1011C000C40B2400A00B23007D0B23005A0B21002D
:1011D000390B2100180B2000F80A1F00D90A1E0045
:1011E000BB0A1E009D0A1D00800A1D00630A1C0028
:1011F000470A1B002C0A1B00110A1A00F7091A00E3
:10120000DD091900C4091900AB091900920917007A
:101210007B091800630917004C09160036091600EF
:10122000200916000A091500F5081500E008140049
:10123000CC081400B8081400A40814009008130087
:101240007D0812006B0813005808120046081200AF
:1012500034081100230811001208110001081100C0
:10126000F0071000E0071000D0071000C0071000C2
:10127000B0070F00A107100091070E0083070F00B1
:1012800074070F0065070E0057070E0049070E0090
:101290003B070D002E070E0020070D0013070D0061
:1012A00006070D00F9060C00ED060D00E0060C0027
:1012B000D4060C00C8060C00BC060C00B0060C00DE
:1012C000A4060B0099060C008D060B0082060B008D
:1012D00077060B006C060B0061060A0057060B0030
:1012E0004C060A0042060A0038060A002E060A00CA
:1012F00024060A001A060A001006090007060A005A
:10130000FD050900F4050900EB050900E2050900E7
:10131000D9050900D0050900C7050900BE05090067
:10132000B5050800AD050800A50509009C050800E5
:10133000940508008C050800840508007C05080059
:10134000740508006C050700650508005D050700C9
:10135000560508004E050700470507004005080030
:1013600038050700310507002A0507002305070097
:101370001C050600160507000F05070008050600F6
:1013800002050700FB040600F5040700EE04060052
:10139000E8040600E2040700DB040600D5040600AA
:1013A000CF040600C9040600C3040600BD040600FD
:1013B000B7040600B1040500AC040600A60406004C
:1013C000A00405009B040600950405009004060097
:1013D0008A04050085040500800406007A040500DF
:1013E00075040500700405006B0405006604050023
:1013F000610405005C040500570405005204050063
:101400004D04050048040500430405003E040400A3
:101410003A04050035040500300404002C040500DE
:1014200027040400230405001E0404001A04040019
:1014300016040500110404000D040400090405004D
:101440000404040000040400FC030400F803040086
:10145000F4030400F0030400EC030400E8030400B8
:10146000E4030400E0030400DC030400D8030400E8
:10147000D4030400D0030400CC030400C803030019
:10148000C503030024F404D9201BC40C5C0E98048B
:10149000C4095F0265077101F405F900FB04B3009C
:1014A00048048700C1036900580355000303450041
:1014B000BE023A008402310053022A0029022500AC
:1014C00004022000E4011C00C8011900AF0117004C
:1014D00098011400840113007101100061011000D3
:1014E00051010E0043010D0036010B002B010B00D2
:1014F00020010B00150109000C010900030108007F
:10150000FB000800F3000800EB000700E400060001
:10151000DE000600D8000600D2000600CC00050060
:10152000C7000500C2000500BD000400B9000400AA
:10153000B5000400B1000400AD000400A9000400DF
:10154000A5000300A20003009F0004009B0003000D
:101550009800030095000200930003009000030030
:101560008D0002008B00030088000200860002004C
:1015700084000300810002007F0002007D00020061
:101580007B00020079000200770001007600020073
:101590007400020072000100710002006F0002007E
:1015A0006D0001006C0002006A0001006900020089
:1015B0006700010066000100650001006400020090
:1015C0006200010061000100600001005F00020094
:1015D0005D0001005C0001005B0001005A00010099
:1015E0005900010058000100570001005600010099
:1015F0005500010054000100530000005300010099
:101600005200010051000100500001004F00010094
:101610004E0000004E0001004D0001004C00010092
:101620004B0000004B0001004A000100490001008E
:10163000480000004800010047000100460000008B
:101640004600010045000000450001004400010083
:10165000430000004300010042000000420001007E
:101660004100000041000100400001003F00000077
:101670003F0001003E0000003E0001003D00000070
:101680003D0001003C0000003C0000003C00010067
:101690003B0000003B0001003A0000003A0001005E
:1016A0003900000039000100380000003800000057
:1016B000380001003700000037000100360000004C
:1016C0003600000036000100350000003500000043
:1016D0003500010034000000340000003400010037
:1016E000330000003300000033000100320000002E
:1016F0003200000032000100310000003100000023
:101700003100010030000000300000003000010016
:101710002F0000002F0000002F0000002F0001000C
:101720002E0000002E0000002E0001002D00000001
:101730002D0000002D0000002D0001002C000000F5
:101740002C0000002C0000002C0001002B000000E9
:101750002B0000002B0000002B0001002A000000DD
:101760002A0000002A0000002A00010029000000D1
:1017700029000000290000002900000029000100C4
:1017800028000000280000002800000028000000B9
:1017900028000100270000002700000027000000AB
:1017A000270000002700010026000000260000009E
:1017B0002600000026000000260001002500000091
:1017C0002500000025000000250000002500000085
:1017D0002500010024000000240000002400000077
:1017E000240000002400010023000000230000006A
:1017F000230000002300000023000000230000005D
:10180000230001002200000022000000220000004E
:101810002200000022000000220001002100000040
:101820002100000021000000210000002100000034
:101830002100000021000100200000002000000025
:101840002000000020000000200000002000000018
:1018500020000000200001001F0000001F00000009
:101860001F0000001F0000001F0000001F000000FC
:101870001F0001001E0000001E0000001E000000EE
:101880001E000000043700001E290000511B00004C
:101890005810000010090000CC040000780200007D
:1018A000410100006265640A002C2073797374653D
:1018B0006D2073746F707065642120486561746574
:1018C000725F49443A20004265642068656174692A
:1018D0006E67206661696C6564004531204865610A
:1018E00074696E67206661696C65640045322048E2
:1018F000656174696E67206661696C6564004B4957
:101900004C4C45442E200020746F6F206C6F6E6726
:1019100020657874727573696F6E20707265766574
:101920006E7465640A0020636F6C6420657874725D
:101930007573696F6E2070726576656E7465640A82
:101940000070012C0190012701B0012201C0011D8E
:1019500001F00118011002130130020E01600209AA
:101960000190020401C002FF000003FA004003F5E9
:10197000008003F000D003EB002004E6007004E1D7
:1019800000E004DC004005D700C005D2004006CDD1
:1019900000D006C8008007C3003008BE00F008B9B8
:1019A00000C009B400B00AAF00B00BAA00D00CA56B
:1019B00000000EA000500F9B00C010960050129126
:1019C0000000148C00C0158700B0178200B0197D8C
:1019D00000D01B7800001E730040206E009022692A
:1019E00000F024640040275F0090295A00E02B5546
:1019F00000102E500020304B0010324600E03341E2
:101A00000090353C001037370070383200A0392D77
:101A100000B03A2800A03B2300603C1E00103D1996
:101A200000903D1400103E0F00703E0A00C03E05BD
:101A300000003F0000403FFBFF803FF6FFC03FF14A
:101A4000FF45340045330045320045310045300044
:101A50005A32005932005832005A005900580020BA
:101A60002F002040002042403A0020403A005D1AFA
:101A70005B1A591A561A531A501A4D1A4A1A471A0B
:101A8000441A411A747275650066616C73650020B2
:101A900074656D70657261747572652070726577BA
:101AA00061726E207472696767657265643A2000BE
:101AB000207072657761726E20666C616720636C5E
:101AC00065617265640A00526573656E643A200050
:101AD0006F6B0020746F6F206C6F6E672065787479
:101AE000727573696F6E2070726576656E74656469
:101AF0000A0020636F6C6420657874727573696F77
:101B00006E2070726576656E7465640A0062757326
:101B1000793A2070617573656420666F7220696E12
:101B20007075740A00627573793A20706175736517
:101B30006420666F7220757365720A00627573792E
:101B40003A2070726F63657373696E670A004B4960
:101B50004C4C2063617573656420627920746F6FEB
:101B6000206D75636820696E6163746976652074A1
:101B7000696D65202D2063757272656E7420636FC8
:101B80006D6D616E643A200048617264636F6465D4
:101B9000642044656661756C742053657474696E65
:101BA0006773204C6F616465640A00DC050000DC2B
:101BB000050000DC050000DC05000000007A4400A0
:101BC000007A4400007A440000C8420000A04200AD
:101BD00000A0420000484400004C433A0A0020287C
:101BE0006D6D290020204D393036002059002058D5
:101BF0000053746570706572206472697665722036
:101C000063757272656E743A0A0020204D38353162
:101C1000205A005A2D50726F6265204F66667365B8
:101C2000740020440020490020204D3330342050DF
:101C30000020440020490020204D33303120500046
:101C400020440020490020500020204D3330312016
:101C500045005049442073657474696E67733A0A8D
:101C600000205A00204A00202047323920572049BE
:101C700000205A0020204D3432302053004175742A
:101C80006F20426564204C6576656C696E673A0A20
:101C90000020590020580020204D323138205400B7
:101CA000486F74656E64206F6666736574733A0A74
:101CB00000205A0020590020204D32303620580094
:101CC000486F6D65206F66667365743A0A0020453B
:101CD00000205A00205900205800205400205300B2
:101CE00020204D32303520510020453C6D61785F19
:101CF000655F6A65726B3E0020583C6D61785F7865
:101D00005F6A65726B3E20593C6D61785F795F6AEE
:101D100065726B3E205A3C6D61785F7A5F6A6572CE
:101D20006B3E00416476616E6365643A20513C6DA0
:101D3000696E5F7365676D656E745F74696D655F0D
:101D400075733E20533C6D696E5F666565647261B4
:101D500074653E20543C6D696E5F74726176656C8B
:101D60005F66656564726174653E002054002052B0
:101D70000020204D323034205000416363656C6593
:101D8000726174696F6E2028756E6974732F733277
:101D9000293A20503C7072696E745F616363656CB0
:101DA0003E20523C726574726163745F6163636567
:101DB0006C3E20543C74726176656C5F6163636550
:101DC0006C3E0A00204500205A0020590020204D7A
:101DD0003230312058004D6178696D756D20416356
:101DE00063656C65726174696F6E2028756E6974C5
:101DF000732F7332293A0A00204500205A002059D7
:101E00000020204D3230332058004D6178696D75C7
:101E10006D206665656472617465732028756E69EE
:101E200074732F73293A0A00204500205A00205964
:101E30000020204D39322058005374657073207093
:101E4000657220756E69743A0A0020204D32303078
:101E50002044300A0020204D3230302054312044BC
:101E60000020204D323030204400204469736162EC
:101E70006C65640A0046696C616D656E74207365FB
:101E80007474696E67733A00202047323120202035
:101E9000203B003A004361703A0043290A00616226
:101EA0006C656420286D696E2074656D7020004338
:101EB0006F6C6420657874727564657320617265F7
:101EC00020004B64200023646566696E65204445EC
:101ED0004641554C545F004B692000236465666998
:101EE0006E652044454641554C545F004B702000C0
:101EF00023646566696E652044454641554C545FD0
:101F000000504944204175746F74756E6520666990
:101F10006E6973686564212050757420746865204B
:101F20006C617374204B702C204B6920616E6420AF
:101F30004B6420636F6E7374616E74732066726F8E
:101F40006D2062656C6F7720696E746F20436F6ED1
:101F500066696775726174696F6E2E680A00504910
:101F600044204175746F74756E65206661696C6597
:101F700064212074696D656F75740A0042454420C0
:101F8000544845524D414C2052554E4157415900FD
:101F9000453120544845524D414C2052554E4157F1
:101FA000415900453220544845524D414C2052552C
:101FB0004E41574159004265642068656174696EFD
:101FC00067206661696C656400453120486561740D
:101FD000696E67206661696C6564004532204865FA
:101FE0006174696E67206661696C6564005049447C
:101FF000204175746F74756E65206661696C6564E7
:10200000212054656D706572617475726520746FFE
:102010006F20686967680A00204B643A2000204BF3
:10202000693A2000204B703A20000A20436C61730B
:1020300073696320504944200A002054753A2000F7
:10204000204B753A2000206D61783A2000206D69A0
:102050006E3A200020643A200020626961733A20C1
:1020600000504944204175746F74756E6520666137
:10207000696C6564212054656D7065726174757258
:102080006520746F6F20686967680A0050494420B2
:102090004175746F74756E652073746172740A0093
:1020A000504944204175746F74756E65206661698E
:1020B0006C65642120426164206578747275646582
:1020C00072206E756D6265720A00454550524F4D23
:1020D000204F4B0A00496E76616C69642065787404
:1020E00072756465720A004163746976652045788B
:1020F0007472756465723A2000203A204D6F7665DF
:10210000206261636B0A00202064657374696E61EC
:1021100074696F6E3D00207D0A002C20004F6666BA
:1021200073657420546F6F6C205859206279207B3E
:1021300020004E6F206D6F7665206F6E20746F6F7C
:102140006C6368616E67650A0050726F74656374D2
:1021500065642050696E0A005374616E6461726434
:1021600020446576696174696F6E3A20002052617F
:102170006E67653A2000204D61783A2000204D6955
:102180006E3A20004D65616E3A200046696E6973B3
:10219000686564210A002072616E67653A2000203C
:1021A0006D61783A2000206D696E3A2000207369D5
:1021B000676D613A2000206D65616E3A20003A201B
:1021C0007A3A2000206F662000205A002059002013
:1021D0005800476F696E6720746F3A00436C6F63F5
:1021E0006B776973650A00436F756E7465722D00B5
:1021F00020446972656374696F6E3A200020202064
:10220000616E676C653A20005374617274696E6721
:10221000207261646975733A2000506F7369746944
:102220006F6E696E67207468652070726F62652ECC
:102230002E2E0A003F4E756D626572206F66206C0F
:1022400065677320696E206D6F76656D656E7420AD
:102250006E6F7420706C61757369626C65202830D4
:102260002D3135292E0A003F2028582C5929206F5E
:102270007574206F6620626F756E64732E0A003F5E
:1022800053616D706C652073697A65206E6F742080
:10229000706C61757369626C652028342D35302946
:1022A0002E0A004D3438205A2D50726F626520522C
:1022B00065706561746162696C69747920546573D5
:1022C000740A003F2856296572626F7365206C6539
:1022D00076656C20697320696D706C6175736962D5
:1022E0006C652028302D34292E0A00290A0020622E
:1022F000797465733B2063726320002073746F727E
:1023000065642073657474696E6773207265747296
:102310006965766564202800202863616C63756CAC
:102320006174656429210A0020213D200045455043
:10233000524F4D20435243206D69736D6174636841
:10234000202D202873746F72656429200020536942
:102350007A653A2000496E6465783A2000204D6124
:10236000726C696E3D563537290A00284545505232
:102370004F4D3D00454550524F4D20766572736973
:102380006F6E206D69736D617463682000545249EB
:10239000474745524544006F70656E003A20007A09
:1023A0005F6D696E00795F6D696E00785F6D696E53
:1023B000005265706F7274696E6720656E64737425
:1023C0006F70207374617475730A005072696E7453
:1023D00065722068616C7465642E206B696C6C2872
:1023E000292063616C6C6564210A00000000000014
:1023F000000000000000003C3C3C207365745F61FD
:102400007869735F69735F61745F686F6D652800D9
:10241000203A200A00202063757272656E745F7026
:102420006F736974696F6E3D005D203D20003E2032
:10243000686F6D655F6F66667365745B003E207ADA
:1024400070726F62655F7A6F6666736574203D2097
:10245000002A2A2A205A20484F4D454420574954E3
:10246000482050524F424520285A5F4D494E5F50F8
:10247000524F42455F555345535F5A5F4D494E5F3A
:10248000454E4453544F505F50494E29202A2A2A22
:102490000A003E3E3E207365745F617869735F6930
:1024A000735F61745F686F6D6528000000204200F3
:1024B00000204200002041000000005761726E6958
:1024C0006E673A20486F6D696E672042756D7020A7
:1024D00044697669736F72203C20310A000202045D
:1024E0000000A0400000A040000000400000524357
:1024F00000808E43000055433C3C3C20686F6D6576
:10250000617869732800203A203E204146544552A4
:10251000207365745F617869735F69735F61745F6D
:10252000686F6D650A00202063757272656E745F56
:10253000706F736974696F6E3D00486F6D6520320E
:1025400020536C6F773A0A004D6F766520417761B2
:10255000793A0A00486F6D65203120466173743AFC
:102560000A00FFFFFF3E3E3E20686F6D656178699F
:1025700073280000002100240027002A002D0030CD
:1025800000330001010000040107010A0100000AF4
:102590000B02090C0D0E08070304010000000000E7
:1025A000000000000000000000000000000000002B
:1025B00000000000000000000012111000000000E8
:1025C000000000000000000000000000000000000B
:1025D0000000004572726F723A0042454420544830
:1025E00045524D414C2052554E41574159004531BD
:1025F00020544845524D414C2052554E4157415967
:1026000000453220544845524D414C2052554E41D0
:10261000574159004C4556454C494E4700434F4D94
:102620004D554E49434154494F4E0044525952551D
:102630004E004552524F525300494E464F004543BB
:10264000484F006F6B0020573A003E26392632264D
:102650002B261D2614266F66660044454255473AD0
:10266000004D313133205300205A3A0020423A00C5
:1026700020436F756E7420413A0020453A00205A7D
:102680003A0020593A00583A00000AD211241FBEDD
:10269000CFEFD1E2DEBFCDBF00E00CBF14E0A0E081
:1026A000B2E0E0E4F2EC01E00BBF02C007900D9253
:1026B000AA3FB107D9F724E1AAEFB4E001C01D9207
:1026C000A53EB207E1F713E1C6E4D3E100E006C09E
:1026D00021970109802FFE010E94AFE0C534D10788
:1026E00080E00807A9F70E9402CC0C941EE10C942C
:1026F00000002F923F924F925F926F927F928F9243
:102700009F92AF92BF92CF92DF92EF92FF920F9380
:102710001F93CF93DF93CDB7DEB7C457D1090FB660
:10272000F894DEBF0FBECDBF21E020935B0C8091FB
:10273000DC058D3411F40C94DC1D843511F40C94FB
:10274000B12B873411F00C94F82C8091DA0590911C
:10275000DB058C31910509F490C67CF48430910539
:102760003CF482309105C4F597FF2FC00C94D81D1E
:10277000049709F44DC60C94D81D8A32910511F4C2
:102780000C94F21C6CF48D31910511F40C94EE1C38
:102790004E9711F00C94D81D0E945A540C94FA2CA8
:1027A0008B35910511F40C94CE1D8C35910511F4E7
:1027B0000C94D41D8A35910511F00C94D81D1092FB
:1027C000FE041092C8120C94FA2C809125028111FB
:1027D0000C94FF2C0C94FA2C20912502222311F446
:1027E0000C94FA2C11E0029709F010E00E943934A1
:1027F00082E50E942D34882309F452C10E94B3332C
:102800006B017C0140902413509025136090261397
:1028100070902713209128133091291340912A1387
:1028200050912B1329AF3AAF4BAF5CAF8091730738
:1028300090917407A0917507B091760721968CAF9F
:102840009DAFAEAFBFAF219720917707309178074A
:102850004091790750917A0725962CAF3DAF4EAF46
:102860005FAF259720E030E0A901C701B6010E94C3
:102870004AD9882309F4B2C5A301920121966CAD0F
:102880007DAD8EAD9FAD21970E944AD981110FC0B9
:1028900029AD3AAD4BAD5CAD25966CAD7DAD8EAD41
:1028A0009FAD25970E944AD9882309F497C520E057
:1028B00030E0A901C701B6010E944AD9881F8827C4
:1028C000881F18130BC080E090E0A0E8BFE3659676
:1028D0008CAF9DAFAEAFBFAF65970AC020E030E0D0
:1028E00040E85FEB65962CAF3DAF4EAF5FAF6597AD
:1028F000A301920121966CAD7DAD8EAD9FAD219768
:102900000E94B3DD2D966CAF7DAF8EAF9FAF2D973C
:1029100029AD3AAD4BAD5CAD25966CAD7DAD8EADC0
:102920009FAD25970E94B3DD61966CAF7DAF8EAFF2
:102930009FAF61972D962CAD3DAD4EAD5FAD2D9700
:10294000CA01B9010E94AFD94B015C0161962CAD5F
:102950003DAD4EAD5FAD6197CA01B9010E94AFD9DF
:102960009B01AC01C501B4010E94B4DD0E941FE0CF
:1029700029966CAF7DAF8EAF9FAF299720E030E0F6
:1029800040E05FE30E94AFD94B015C01A7019601D3
:10299000C701B6010E94AFD96B017C01A50194016A
:1029A000C501B4010E94AFD99B01AC01C701B601BA
:1029B0000E94B3DD0E941FE09B01AC0165966CADE7
:1029C0007DAD8EAD9FAD65970E94AFD94B015C0187
:1029D00021962CAD3DAD4EAD5FAD2197C301B20147
:1029E0000E94B4DD20E030E040E05FE30E94AFD918
:1029F0006B017C0161966CAD7DAD8EAD9FAD619735
:102A0000905829962CAD3DAD4EAD5FAD29970E94F3
:102A100090DE9B01AC01C501B4010E94AFD99B01BE
:102A2000AC01C701B6010E94B4DDA30192010E946E
:102A3000B3DD6B017C0125962CAD3DAD4EAD5FAD98
:102A4000259769AD7AAD8BAD9CAD0E94B4DD20E0D9
:102A500030E040E05FE30E94AFD92B013C012996B2
:102A60002CAD3DAD4EAD5FAD29972D966CAD7DADD6
:102A70008EAD9FAD2D970E9490DE9B01AC01C501EC
:102A8000B4010E94AFD99B01AC01C301B2010E9405
:102A9000B4DD29AD3AAD4BAD5CAD0E94B3DD14C0E1
:102AA00089E40E942D34882329F00E94B3336B01FE
:102AB0007C0103C0C12CD12C76018AE40E942D3404
:102AC0008823F9F00E94B33325966CAF7DAF8EAFAB
:102AD0009FAF259720E030E0A901C701B6010E9411
:102AE0004AD981111EC020E030E0A90125966CADC5
:102AF0007DAD8EAD9FAD25970E944AD9811111C041
:102B00006DC420E030E0A901C701B6010E944AD996
:102B1000882309F463C425961CAE1DAE1EAE1FAEFD
:102B20002597D701C601B05889AF9AAFABAFBCAFFC
:102B300025962CAD3DAD4EAD5FAD259750582196F5
:102B40002CAF3DAF4EAF5FAF21979C01AD01BC01F3
:102B5000CD010E94AFD94B015C0121962CAD3DAD5A
:102B60004EAD5FAD2197CA01B9010E94AFD99B015B
:102B7000AC01C501B4010E94B4DD0E941FE0A19622
:102B80006CAF7DAF8EAF9FAFA197809124139091D2
:102B90002513A0912613B091271329968CAF9DAFD2
:102BA000AEAFBFAF2997A7019601BC01CD010E942E
:102BB000B4DD65966CAF7DAF8EAF9FAF659720910A
:102BC00028133091291340912A1350912B132D96DD
:102BD0002CAF3DAF4EAF5FAF2D9725962CAD3DADE1
:102BE0004EAD5FAD25972D966CAD7DAD8EAD9FAD95
:102BF0002D970E94B4DDA5966CAF7DAF8EAF9FAFD1
:102C0000A5978091730790917407A0917507B09173
:102C1000760761968CAF9DAFAEAFBFAF61976596FB
:102C20002CAD3DAD4EAD5FAD6597BC01CD010E94B1
:102C3000B3DD6B017C0120917707309178074091DB
:102C4000790750917A0769962CAF3DAF4EAF5FAFD1
:102C50006997A5962CAD3DAD4EAD5FADA597699634
:102C60006CAD7DAD8EAD9FAD69970E94B3DD4B011C
:102C70005C0180912C1390912D13A0912E13B09193
:102C80002F136D968CAF9DAFAEAFBFAF6D979C010C
:102C9000AD0160917B0770917C0780917D079091D9
:102CA0007E070E94B3DD2B013C0120917F0730910C
:102CB00080074091810750918207AD962CAF3DAFC0
:102CC0004EAF5FAFAD978091301390913113A091CB
:102CD0003213B0913313A9968CAF9DAFAEAFBFAF97
:102CE000A997A701960169AD7AAD8BAD9CAD0E9405
:102CF000AFD9E1966CAF7DAF8EAF9FAFE197A501E5
:102D0000940121966CAD7DAD8EAD9FAD21970E9453
:102D1000AFD99B01AC01E1966CAD7DAD8EAD9FADA1
:102D2000E1970E94B4DDE1966CAF7DAF8EAF9FAFAF
:102D3000E197A501940169AD7AAD8BAD9CAD0E9480
:102D4000AFD94B015C01A701960121966CAD7DAD19
:102D50008EAD9FAD21970E94AFD99B01AC01C501FB
:102D6000B4010E94B3DDE1962CAD3DAD4EAD5FAD3B
:102D7000E1970E9427DE6B017C0120E030E0A90191
:102D80000E944AD987FF0AC02BED3FE049EC50E48E
:102D9000C701B6010E94B4DD6B017C01112351F023
:102DA0002BED3FE049EC50E4C701B6010E94B3DDD2
:102DB0006B017C0120E030E0A901C701B6010E944F
:102DC0004AD9811128C061962CAD3DAD4EAD5FADA5
:102DD000619729966CAD7DAD8EAD9FAD29970E9410
:102DE0004AD9811118C069962CAD3DAD4EAD5FAD8D
:102DF00069972D966CAD7DAD8EAD9FAD2D970E94E0
:102E00004AD9811108C05BEDC52E5FE0D52E59EC83
:102E1000E52E50E4F52EA7019601A1966CAD7DAD8F
:102E20008EAD9FADA1970E94AFD94B015C0120E010
:102E300030E0A901C301B2010E944AD98823C9F038
:102E4000A5019401C501B4010E94AFD94B015C01F9
:102E5000A3019201C301B2010E94AFD99B01AC0151
:102E6000C501B4010E94B4DD0E941FE04B015C016A
:102E70000DC020E030E0A901C501B4010E94DADFF5
:102E800087FF04C0B7FAB094B7F8B0942FE632E1E8
:102E900043E85AE3C501B4010E944AD987FF02C042
:102EA0000C94FA2CC501B4010E9429DF0E94FDDEBA
:102EB0001B01672B19F422242394312CB10180E0EB
:102EC00090E00E944ED94B015C019B01AC01C7010F
:102ED000B6010E9490DE29966CAF7DAF8EAF9FAF9A
:102EE0002997A5019401C301B2010E9490DEA19629
:102EF0006CAF7DAF8EAF9FAFA197A9962CAD3DADC6
:102F00004EAD5FADA997AD966CAD7DAD8EAD9FAD6D
:102F1000AD970E94B3DDA50194010E9490DEAD96AD
:102F20006CAF7DAF8EAF9FAFAD9729962CAD3DAD09
:102F30004EAD5FAD2997CA01B9010E94AFD920E01B
:102F400030E040E05FE30E94AFD99B01AC0160E05C
:102F500070E080E89FE30E94B3DD69966CAF7DAFBF
:102F60008EAF9FAF69976D962CAD3DAD4EAD5FAD09
:102F70006D97298F3A8F4B8F5C8FA9968CAD9DAD45
:102F8000AEADBFADA9978D8F9E8FAF8FB8A3609167
:102F90003E0270913F02072E000C880B990B0E9495
:102FA00050D9209118023091190240911A02509183
:102FB0001B020E94AFD92AE037ED43E25CE30E9496
:102FC000AFD96DAB7EAB8FAB98AF0E9471BF9B0149
:102FD000AC0128533F4F4F4F5F4F6D962CAF3DAF25
:102FE0004EAF5FAF6D9749AC5AAC6BAC7CAC41E077
:102FF00050E02F965FAF4EAF2F9759E12A965FAF03
:103000002A972F962EAD3FAD2F972215330509F441
:103010006FC10E947F600E9471BFDC01CB016D9681
:103020002CAD3DAD4EAD5FAD6D97821B930BA40BE8
:10303000B50BB7FD10C00E9471BF9B01AC012853B6
:103040003F4F4F4F5F4F6D962CAF3DAF4EAF5FAFD1
:103050006D970E94F07F2A963FAD2A9731502A96AD
:103060003FAF2A97332309F44BC069962CAD3DAD91
:103070004EAD5FAD699721966CAD7DAD8EAD9FADC8
:1030800021970E94AFD96B017C0129962CAD3DADF3
:103090004EAD5FAD2997B201C3010E94AFD9A70120
:1030A00096010E94B4DD7B018C0169962CAD3DAD8B
:1030B0004EAD5FAD6997B201C3010E94AFD94B011C
:1030C0005C0129962CAD3DAD4EAD5FAD29972196A3
:1030D0006CAD7DAD8EAD9FAD21970E94AFD99B01A8
:1030E000AC01C501B4010E94B3DD2B013C01C70155
:1030F000D80121968CAF9DAFAEAFBFAF21975DC019
:103100002F964EAD5FAD2F97BA0180E090E00E9400
:103110004ED929962CAD3DAD4EAD5FAD29970E949D
:10312000AFD94B015C010E948DDE6B017C01C501B2
:10313000B4010E9415E04B015C01A701960169AD45
:103140007AAD8BAD9CAD0E94AFD92B013C01A5019E
:10315000940125966CAD7DAD8EAD9FAD25970E94F7
:10316000AFD99B01AC01C301B2010E94B4DD2B01B8
:103170003C01A501940169AD7AAD8BAD9CAD0E9477
:10318000AFD94B015C01A701960125966CAD7DADD1
:103190008EAD9FAD25970E94AFD99B01AC01C501B3
:1031A000B4010E94B3DD21966CAF7DAF8EAF9FAFAF
:1031B000219759E12A965FAF2A979201A30165965C
:1031C0006CAD7DAD8EAD9FAD65970E94B4DD698B12
:1031D0007A8B8B8B9C8B21962CAD3DAD4EAD5FAD2C
:1031E0002197A5966CAD7DAD8EAD9FADA5970E9444
:1031F000B4DD6D8B7E8B8F8B988FA1962CAD3DAD02
:103200004EAD5FADA197698D7A8D8B8D9C8D0E949F
:10321000B4DD698F7A8F8B8F9C8FAD962CAD3DADD1
:103220004EAD5FADAD976D8D7E8D8F8D98A10E9457
:10323000B4DD6D8F7E8F8F8F98A380913D028823A0
:1032400021F0CE0141960E94D6B9E090FD121DA654
:103250001EA61FA618AA09891A892B893C8909A3C9
:103260001AA32BA33CA34D895E896F89788D4DA34A
:103270005EA36FA378A7898D9A8DAB8DBC8D89A72E
:103280009AA7ABA7BCA709831A832B833C834D83E2
:103290005E836F83788789879A87AB87BC878D8D9C
:1032A0009E8DAF8DB8A18D879E87AF87B88B9E010D
:1032B000235F3F4FAE01475F5F4FBE016B5F7F4FA4
:1032C000CE0101960E94BAAFCE018D966C018E019F
:1032D0000B5C1F4F9E01235E3F4FAE01475D5F4F6A
:1032E000BE016B5D7F4F0C970E94126A81116CC00A
:1032F000E090FD1219AA1AAA1BAA1CAA0091730732
:1033000010917407209175073091760709A31AA3CD
:103310002BA33CA3409177075091780760917907E0
:1033200070917A074DA35EA36FA378A780917B0766
:1033300090917C07A0917D07B0917E0789A79AA7FD
:10334000ABA7BCA709831A832B833C834D835E8381
:103350006F83788789879A87AB87BC8780917F073F
:1033600090918007A0918107B09182078D879E87F9
:10337000AF87B88B9E01235F3F4FAE01475F5F4F22
:10338000BE016B5F7F4FCE0101960E94BAAFDE0196
:10339000D1966D018E010B5C1F4F2FE737E0AE0118
:1033A000475D5F4FBE016B5D7F4FCE0181960E94EE
:1033B000126A80E1E3E7F7E0A4E2B3E101900D9245
:1033C0008A95E1F70C94FA2C2F96EEADFFAD2F976E
:1033D00031962F96FFAFEEAF2F9713CEE3EDF5E2C8
:1033E00084918F010F5F1F4F882321F00E94893540
:1033F000F801F6CFEBEDF1E084918F010F5F1F4FE5
:10340000882311F40C94FA2C0E948935F801F4CF2A
:1034100080E50E942D34882329F00E9473336B01CC
:103420007C0103C0C12CD12C760183E50E942D3490
:10343000882361F00E94B33320E030E04AE754E48F
:103440000E94AFD90E94FDDE6B017C010E94D478FE
:103450000E9471BFC60ED71EE81EF91E0E9471BFE2
:10346000DC01CB018C199D09AE09BF09B7FD02C073
:103470000C94FA2C0E94F07FF1CF0E943DB721E01E
:1034800040E050E0BA0180E00E948A938091A20758
:1034900085FF0EC0E9EAF2E084918F010F5F1F4FB4
:1034A000882321F00E948935F801F6CF0E945055FB
:1034B000809191078770873071F58FE40E942D34D9
:1034C000882369F00E94A433882329F18091A20700
:1034D00085FD02C00C94FA2CEEE8F2E004C08FE403
:1034E0000E94E633F1CF84918F010F5F1F4F882335
:1034F00021F00E948935F801F6CFE5E8F2E08491E9
:103500008F010F5F1F4F882311F40C94FA2C0E9437
:103510008935F801F4CF0E94D47880E00E944D3DB7
:103520003091FD122E963FAF2E9721E040E050E003
:10353000BA0180E00E948A930E94953B8091A20785
:1035400085FF0CC0ECE6F2E084918F010F5F1F4F06
:10355000882321F00E948935F801F6CF11E01093FD
:10356000A30588E50E94E63322968FAF229789E56E
:103570000E94E633282E8AE50E94E63326968FAF16
:10358000269722964FAD2297411105C0211005C004
:10359000382E312607C0211002C0312C03C02696D8
:1035A0003FAC26970E94753582E50E942D34882312
:1035B00069F00E94B3336B017C0120E030E0A90187
:1035C0000E944AD9882309F43FC006C0C12CD12CDF
:1035D00030EAE32E30E4F32E311008C022965FADBE
:1035E0002297511103C0222009F433C1C0927B07F6
:1035F000D0927C07E0927D07F0927E0720912C13F9
:1036000030912D1340912E1350912F13C701B60105
:103610000E94DADF1816C4F48091A20785FF09C062
:10362000B701A60180E592E00E94E8AB8AE00E9423
:10363000893519821A821B821C82BE016F5F7F4FFF
:103640008BE797E00E94713A311009C022968FAD46
:103650002297882309F4ECC0222009F4F5C01092C7
:1036600028131092291310922A1310922B131092E0
:1036700024131092251310922613109227130E94E0
:10368000BF3BE2E6F5E2A4916296AFAF6297ECEE43
:10369000F4E285909590A590B490E0EFF4E2C590A7
:1036A000D590E590F490A7019601C501B4010E9460
:1036B000DADF18162CF4A5019401C701B60104C085
:1036C000A7019601C501B4010E9490DE2B013C01C7
:1036D000EFEAF4E2259135914591549129AF3AAF43
:1036E0004BAF5CAFEBEAF4E285919591A591B49173
:1036F00021968CAF9DAFAEAFBFAF2197BC01CD017E
:103700000E944AD987FD09C019AD0AAD9BAD2A9622
:103710009FAF2A97ACADA9AF0AC01DAD0EADBFAD2E
:103720002A96BFAF2A972196EFAD2197E9AFA30163
:103730009201C301B2010E94AFD920E030E040E81D
:103740005FE30E94B4DD0E941FE09B01AC01612F8A
:10375000702F2A968FAD2A9799AD0E94AFD96983B1
:103760007A838B839C83E3E6F5E2149120912C13FA
:1037700030912D1340912E1350912F1329AF3AAF52
:103780004BAF5CAF20E030E040EC5FE3C701B60137
:103790000E94AFD96B017C01612F110F770B880B51
:1037A000990B0E9450D99B01AC01C701B6010E9440
:1037B000AFD92B013C0120E030E040EC5FE3C501D4
:1037C000B4010E94AFD96B017C0162963FAD629754
:1037D000632F330F770B880B990B0E9450D99B01F5
:1037E000AC01C701B6010E94AFD9AE014F5F5F4F78
:1037F0006A01E9ACFAAC0BAD1CADA30192010E94C9
:1038000040390E9433B71092281310922913109256
:103810002A1310922B131092241310922513109236
:10382000261310922713311005C0211003C007C0C2
:10383000222079F081E00E9468BA311005C02296FA
:103840009FAD2297992329F080E00E9468BA311039
:1038500006C026965FAD2697552309F498C080913F
:10386000910783708330C9F0E8E5FDE084918F0112
:103870000F5F1F4F882321F00E948935F801F6CF92
:10388000E8E3F2E084918F010F5F1F4F882309F472
:103890007EC00E948935F801F5CF8091A20785FF8F
:1038A0000CC0E5E2F2E084918F010F5F1F4F882387
:1038B00021F00E948935F801F6CF0E94BF3B80912C
:1038C0002C1390912D13A0912E13B0912F13809350
:1038D0007B0790937C07A0937D07B0937E0780E0E1
:1038E00090E0A0EAB2E48093730790937407A093EA
:1038F0007507B093760780E090E0A2EDB2E4809384
:10390000770790937807A0937907B0937A0780910F
:10391000A20785FF08C043E757E064E072E086E154
:1039200092E00E948F3A19821A821B821C82E090D8
:103930002C13F0902D1300912E1310912F13209122
:103940007707309178074091790750917A07609115
:103950007307709174078091750790917607DE0167
:1039600011966D010E94403982E00E9468BA8091F0
:10397000A20785FF0CC0E1EFF1E084918F010F5F9A
:103980001F4F882321F00E948935F801F6CF0E944D
:10399000BF3B8091A2058093A3050E94713B21E06B
:1039A00040E050E0BA012E968FAD2E970E948A9388
:1039B0000E9486C48091A20785FD02C00C94FA2C57
:1039C000E7E4F2E084918F010F5F1F4F882311F429
:1039D0000C94FA2C0E948935F801F4CF0E94DE562F
:1039E0000C94FA2C80912502882311F40C94FA2C63
:1039F00089E40E942D34182F882321F00E948333FC
:103A0000E62E01C0E12C8AE40E942D34082F882381
:103A100031F00E948333F62E111104C00BC0F12C3B
:103A20001123C1F0B4E0BE1510F00C94982FE2EB16
:103A3000F2E004C0E4E0EF15D0F30CC084918F01F4
:103A40000F5F1F4F882311F40C94FA2C0E948935C4
:103A5000F801F4CF0E9475351123F1F02091E60CA6
:103A60003091E70C4E2D4203B001439F700D11249D
:103A70008091660D9091670D680F791F072E000CDD
:103A8000880B990B0E9450D9609373077093740749
:103A900080937507909376070023F1F02091E80C4E
:103AA0003091E90C5F2D5203B001539F700D11242A
:103AB0002091680D3091690D620F731F072E000C65
:103AC000880B990B0E9450D9609377077093780701
:103AD0008093790790937A0780E50E942D3488239C
:103AE000E9F00E94A4338823A9F11123D9F020E042
:103AF00030E040EA51E4609173077091740780915F
:103B00007507909176070E94B3DD609373077093F9
:103B10007407809375079093760704C080E50E9430
:103B2000E633E1CF0023B1F020E030E040E052E4A2
:103B300060917707709178078091790790917A0763
:103B40000E94B3DD609377077093780780937907BD
:103B500090937A0786E40E942D348823D9F00E943E
:103B6000B3336B017C0120E030E0A9010E94DADF71
:103B7000181684F420E030E040E752E4C701B601B3
:103B80000E9490DE609318027093190280931A02CB
:103B900090931B020E941C840C94FA2C2093FE0428
:103BA0002093C8120C94FA2C0E94E0520C94FA2C28
:103BB0000E9464510C94FA2C8091DA059091DB05F7
:103BC0008337910509F49FC40CF0D4C08C3491055F
:103BD00009F480C30CF060C08B33910509F4F0C187
:103BE00084F58F31910509F4DFC194F48131910599
:103BF00009F4CFC144F4029710F00C94AE2B0E944C
:103C00004D520C94FA2C429709F4F4C30C94AE2B49
:103C10008033910509F4CCC144F48A9711F00C94D7
:103C2000AE2B0E94A0A20C94FA2C8933910509F4C2
:103C3000C3C1CA9711F00C94AE2B0E94B8460C94E5
:103C4000FA2C8034910509F4CBC194F48D3391059D
:103C500009F4BEC10CF4B8C18E33910509F4BCC19E
:103C6000CF9711F00C94AE2B0E94BB450C94FA2C0C
:103C70008B3491050CF02AC38334910514F00C9415
:103C8000FA2C8134910511F40C94FA2C82349105AC
:103C900009F4AAC10C94AE2B8836910509F433C3FC
:103CA000B4F58135910509F49DC38CF48E349105EA
:103CB00011F40C94FA2C0CF422C38F34910509F4FE
:103CC00056C28035910509F456C20C94AE2B84354A
:103CD000910509F48FC374F48235910509F486C304
:103CE0008335910511F00C94AE2B81E08093FD0497
:103CF0000C94FA2C8535910509F480C38C35910517
:103D000011F00C94AE2B0E9451C50C94FA2C8D36F8
:103D1000910509F432C38CF48A36910509F44CC339
:103D20000CF425C38B36910509F44AC38C369105F2
:103D300011F40C94FA2C0C94AE2B8037910511F4ED
:103D40000C94FA2C6CF48E36910509F408C38F3666
:103D5000910511F00C94AE2B0E949CC60C94FA2C89
:103D60008137910509F4FFC28237910509F44AC3EE
:103D70000C94AE2B8E32A1E09A0711F40C947828A3
:103D80000CF07EC08B3C910509F4F1C40CF046C0E8
:103D90008937910509F466C4E4F48637910509F47E
:103DA00010C43CF48537910511F40C94FA2C0C9452
:103DB000AE2B8737910509F451C48837910511F06E
:103DC0000C94AE2B81E08093A3058093A2050C9404
:103DD000FA2C8E3B910509F4D8C26CF48C3891050D
:103DE00009F4CFC28B39910511F00C94AE2B0E94CF
:103DF00005C90C94FA2C883C910509F439C4893C16
:103E0000910511F00C94AE2B10E8E12E1DE0F12E7F
:103E100009E013E084E0D82ED00E8FC48A3D9105CE
:103E200009F442C794F48D3C910509F437C50CF4AC
:103E3000BDC48E3C910509F423C3833D910511F067
:103E40000C94AE2BE8E5FDE051C6823E910509F4E5
:103E5000B3C754F48C3D910509F433C78D3D9105EA
:103E600009F43CC70C94AE2B8831E1E09E0709F4BD
:103E7000CCC78D32914011F40C94C0270C94AE2B1A
:103E8000843F21E0920711F40C94C92A0CF03FC042
:103E9000813941E0940711F40C941429C4F480335F
:103EA000A1E09A0711F40C947E2814F40C947B285A
:103EB0008336E1E09E0711F40C94FB288039914091
:103EC00011F00C94AE2B0E94D4780C94FA2C843A06
:103ED00021E0920711F40C9420296CF4823941E01E
:103EE000940711F40C941A298A39914011F40C9416
:103EF000FA2C0C94AE2B853AA1E09A0711F40C949D
:103F0000302A8C3A914009F44AC50C94AE2B833583
:103F1000E3E09E0711F40C94DE2AC4F4863F21E00E
:103F2000920711F40C94CF2A14F40C94CC2A873FF6
:103F300041E0940711F40C94D22A883F914011F08B
:103F40000C94AE2B0E94F1950C94FA2C8F38A3E0C0
:103F50009A0711F40C94A02B6CF48A38E3E09E07C6
:103F600011F40C94442B8B38934011F40C94FA2CDC
:103F70000C94AE2B803923E0920711F40C94AB2BF8
:103F8000873E934011F00C94AE2B0E9482950C94C6
:103F9000FA2C5F988A9880910801817080930601BD
:103FA000129847980C94FA2C0E9481510C94FA2C88
:103FB0000E94319D0C94FA2C0E943B470C94FA2CE1
:103FC0000E9493460C94FA2C0E9408460C94FA2CFA
:103FD0000E94EB450C94FA2C0E94D3450C94FA2CC9
:103FE0000E9463450C94FA2C81E40E94E6338823F6
:103FF00051F00E94B3336093C20C7093C30C809352
:10400000C40C9093C50C82E40E94E633882351F0DF
:104010000E94B3336093BE0C7093BF0C8093C00CAE
:104020009093C10C83E40E94E633882351F00E94F0
:10403000B3336093BA0C7093BB0C8093BC0C909319
:10404000BD0C84E40E94E633882351F00E94B33310
:104050006093B60C7093B70C8093B80C9093B90C26
:1040600082E50E94E633882311F40C94FA2C05E1D2
:1040700013E0D8018D918D01882319F00E948935B4
:10408000F8CF6091C20C7091C30C8091C40C9091D8
:10409000C50C42E00E945C3808E113E0F801819110
:1040A0008F01882319F00E948935F8CF6091BE0CEA
:1040B0007091BF0C8091C00C9091C10C42E00E94A5
:1040C0005C380BE113E0D8018D918D01882319F044
:1040D0000E948935F8CF6091BA0C7091BB0C809129
:1040E000BC0C9091BD0C42E00E945C380EE113E0E4
:1040F000F80181918F01882319F00E948935F8CF4A
:104100006091B60C7091B70C8091B80C9091B90C7D
:1041100042E00E945C380AE513E0D8018D918D01E0
:10412000882301F10E948935F8CF0EE41DE080E27A
:104130000E948935D8016D917D918D919D918D0160
:1041400042E00E945C388CE20E948935F80164816B
:1041500075818681978142E00E945C38FDE00635DA
:104160001F0729F78AE00E9489350C94FA2C81E216
:1041700093E00E94E8BC85E50E94E63381110E942D
:104180003DB784E40E94E63381110E94744887E5BC
:104190000E94E633882331F00E94B3330E94FDDE93
:1041A0006093480283E50E94E633882331F00E9441
:1041B000B3330E94FDDE609347028FE40E94E63332
:1041C000882341F00E94B3330E94F8DE70934602C8
:1041D000609345028EE40E94E633882351F00E94EA
:1041E000B3336093D60C7093D70C8093D80C909314
:1041F000D90C8DE40E94E633882351F00E94B3333A
:104200006093CE0C7093CF0C8093D00C9093D10C14
:1042100089E50E94E633882351F00E94B33360930E
:10422000CA0C7093CB0C8093CC0C9093CD0C88E58A
:104230000E94E633882351F00E94B3336093C60C8A
:104240007093C70C8093C80C9093C90C82E40E94B1
:10425000E633882351F00E94B3336093D20C7093FD
:10426000D30C8093D40C9093D50C81E40E94E63358
:10427000882359F00E94B3330E94F8DE7093100235
:1042800060930F02CB010E94A04784E50E94E633B1
:10429000882349F00E94B3330E94FDDE862F60938D
:1042A000A9050E94F34789E40E94E633882311F4AC
:1042B0000C94FA2C8091A9050E94F34780910F027B
:1042C000909110020E94A0470C94FA2C0E9462ACBC
:1042D0000C94FA2C80919005813011F00C94FA2CFA
:1042E00082E0809390050E9471BF6093880570936F
:1042F000890580938A0590938B050C94FA2C0E9473
:10430000C0AC0C94FA2C88E690E00E94063881112B
:104310000C94FA2C8091A20783FF02C00C94FA2C13
:1043200083E50E942D348823B1F00E94B3330E94AC
:10433000F8DEDC01CB01609110090E94E7340E9495
:10434000B33320E030E04AEA52E40E944AD918161A
:1043500014F00E94C0AC0E9430AD0C94FA2C0E9464
:1043600013C70C94FA2C0E9472C60C94FA2C0E946B
:1043700033C910925B0C0C949E2F0E943CC70C9486
:10438000FA2C0E9423C70C94FA2C8091A20783FF79
:1043900002C00C94FA2C83E50E942D3462968FAFF4
:1043A000629781110C94032D82E50E942D348111B6
:1043B0000C94032D0C94FA2C0E94E9C80C94FA2C4E
:1043C00080E50E942D34811106C01092DF08109202
:1043D000DE080C94FA2C0E948333672B11F00C94A6
:1043E000FA2CF3CF0E9464C60C94FA2C1092FD04B0
:1043F0000C94FA2C0E9407C60C94FA2C0E94EFC56C
:104400000C94FA2C0E94D47883E50E942D348823E2
:1044100009F475C00E9483336230710509F06FC0E2
:104420000E94B3898BE50E94893560916107709184
:104430006207809163079091640742E00E945C38B4
:104440004091650750916607609167077091680712
:1044500088ED92E00E94E8AB4091690750916A07AD
:1044600060916B0770916C0785ED92E00E94E8AB5C
:104470008DE50E9489358AE00E9489350C94FA2CDA
:1044800085E40E94E633882351F00E94B3336093A1
:10449000DE0C7093DF0C8093E00C9093E10C8AE5C6
:1044A0000E94E633882351F00E94B3336093DA0C04
:1044B0007093DB0C8093DC0C9093DD0CE9E0CE2E46
:1044C000E3E0DE2EFAEAEF2EF5E0FF2E10E0F60133
:1044D00081916F010E94E633882359F00E94B33323
:1044E000D7016D937D938D939C931397812F0E9499
:1044F00093351F5FB4E0EB0EF11C133041F70E94BF
:1045000086C40C94FA2CEAEBF3E084918F010F5FE0
:104510001F4F882321F00E948935F801F6CF60E013
:104520008AEA93E00E94ED9C61E083EA93E00E94B6
:10453000ED9C61E088E993E00E94ED9C61E088E8F1
:1045400093E00E94ED9C60E08FE793E00E94ED9C79
:1045500061E085E793E00E94ED9C61E08BE693E0EB
:104560000E94ED9C61E083E693E00E94ED9C61E097
:1045700085E593E00E94ED9C60E087E493E00E9473
:10458000ED9C60E088E393E00E94ED9C60E08AE2AD
:1045900093E00E94ED9C60E084E193E00E94ED9C3A
:1045A00061E083E093E00E94ED9C60E08EEE92E09B
:1045B0000E94ED9C61E08BED92E00E94ED9C0C94DA
:1045C000FA2C0091D8051091D90583E0D12C40E058
:1045D0008150E9F0D8019C91292F2B7F2134C1F71C
:1045E00011962C912133A1F7913421F0953421F4C7
:1045F00041E002C0DD24D39498012E5F3F4F890132
:104600002F5F3F4FF80190819032C9F3E1CF4423EF
:1046100069F0E8E5FDE084917F012FEFE21AF20AEC
:10462000882321F00E948935F701F5CFDD2069F05C
:10463000E2E8F4E084917F013FEFE31AF30A882374
:1046400021F00E948935F701F5CFD8018D918D01B8
:10465000882309F487CD0E948935F7CF0E9409B7D6
:104660000C94FA2C1092A3051092A2050C94FA2C2B
:1046700088EC90E00E94063881110C94FA2C84E4B6
:104680000E94E633882309F454C00E94B33311E03A
:1046900020E030E0A9010E944AD9811101C010E058
:1046A0001093B712112309F444C00E94B333E09170
:1046B0001009B4E0EB9FF0011124E054FD4E60833B
:1046C00071838283938320E030E0A9016091C0125E
:1046D0007091C1128091C2129091C3120E944AD966
:1046E00081110CC080E090E0A0E4B0E48093C0129F
:1046F0009093C112A093C212B093C31220E030E095
:10470000A9016091C4127091C5128091C612909156
:10471000C7120E944AD981110CC080E090E0A0E449
:10472000B0E48093C4129093C512A093C612B093C4
:10473000C7120E9450B40C94FA2CF80181918F0199
:104740000E94E633882351F00E94B3330E94FDDEBD
:10475000D7016D937D938D939C931397B4E0EB0EEB
:10476000F11CD012EACF0E9460AD0C94FA2CA2EC9E
:10477000EA2EA8E0FA2E09E013E0B4E0DB2ED00E1A
:10478000F80181918F010E94E633882341F00E9455
:10479000B333D7016D937D938D939C931397B4E0BE
:1047A000EB0EF11CD012ECCF0C94FA2C83E50E9496
:1047B0002D348823A1F00E94B3336093BA0870931C
:1047C000BB088093BC089093BD086093B6087093B3
:1047D000B7088093B8089093B90810E001C011E0C1
:1047E00080E50E942D34882359F00E94B3336093F2
:1047F000BA087093BB088093BC089093BD0810E082
:1048000082E50E942D34882359F00E94B3336093CF
:10481000BE087093BF088093C0089093C10810E051
:1048200084E50E942D34882361F00E94B3336093A5
:10483000B6087093B7088093B8089093B9080C94A1
:10484000FA2C112311F40C94FA2C4091BA085091CF
:10485000BB086091BC087091BD088CE894E00E9490
:10486000E8AB4091BE085091BF086091C0087091BC
:10487000C10889E894E00E94E8AB4091B6085091E5
:10488000B7086091B8087091B90886E894E00E9472
:10489000E8AB8AE00E9489350C94FA2C81E50E94ED
:1048A000E633882351F00E9473336093D2087093EB
:1048B000D3088093D4089093D50883E50E94E6330B
:1048C000882351F00E94B3336093DA087093DB08B9
:1048D0008093DC089093DD0884E50E94E63388230A
:1048E00051F00E94B3336093D6087093D708809339
:1048F000D8089093D90888E50E94E633882351F0C0
:104900000E94B3336093A6087093A7088093A80809
:104910009093A90889E50E94E633882351F00E940C
:10492000B3336093AA087093AB088093AC0890935C
:10493000AD088AE50E94E6338823F1F00E94B33384
:104940006093AE087093AF088093B0089093B1085D
:104950002DEC3CEC4CEC5DE30E944AD9181664F057
:10496000ECE9F4E084918F010F5F1F4F882321F061
:104970000E948935F801F6CF85E40E94E63388234A
:1049800011F40C94FA2C0E94B3336093B208709324
:10499000B3088093B4089093B5080C94FA2C0E9445
:1049A0003B4C81110C94FA2C7BEEA72E73E2B72EB0
:1049B000E4E2F3E1FAAFE9AF9E012F5F3F4F490117
:1049C00002E615E2190133E0300F3DAFF5016591C4
:1049D000759185919491A9ADBAADCD90DD90ED9092
:1049E000FD90BAAFA9AFA70196010E94B3DD2B01DC
:1049F0003C0120E030E040EA51EC0E94DADF87FD24
:104A000010C020E030E040EA51E4C301B2010E944E
:104A10004AD9181634F0F1014082518262827382C1
:104A20000EC0F80184911816B4F7F7FAF094F7F86D
:104A3000F094D101CD92DD92ED92FC921397D101C9
:104A4000CD90DD90ED90FD901D0120E030E040EA3A
:104A500051ECC701B6010E94DADF87FF03C0E3ED26
:104A6000F5E20BC020E030E040EA51E4C701B601B6
:104A70000E944AD91816C4F4F2CF84918F010F5FB7
:104A80001F4F882321F00E948935F801F6CFEEEC04
:104A9000F4E084918F010F5F1F4F882309F4AAC7A8
:104AA0000E948935F801F5CFB4E0AB0EB11C0F5F61
:104AB0001F4FEDADE0138ACF6AEAE62E65E0F62ED1
:104AC00010E0F40181919191A191B1914F01F70111
:104AD00081939193A193B1937F01812F0E9493358C
:104AE0001F5F133071F70E9486C484C784918F01C1
:104AF0000F5F1F4F882321F00E948935F801F6CF00
:104B000083E50E94E633882321F00E94A43380933A
:104B10003D02E4E1F5E084918F010F5F1F4F882390
:104B200021F00E948935F801F6CF80913D02811174
:104B300003C0E0E1F5E002C0ECE0F5E084918F0114
:104B40000F5F1F4F882321F00E948935F801F6CFAF
:104B5000E4E0F5E084918F010F5F1F4F882321F07F
:104B60000E948935F801F6CF20919607309197077A
:104B7000409198075091990760916702709168027F
:104B80008091690290916A020E94B4DDAB01BC0180
:104B900082E095E00E94E8AB20919A0730919B0754
:104BA00040919C0750919D0760916B0270916C023F
:104BB00080916D0290916E020E94B4DDAB01BC0148
:104BC0008FEF94E00E94E8AB20919E0730919F0701
:104BD0004091A0075091A10760916F0270917002FF
:104BE00080917102909172020E94B4DDAB01BC0110
:104BF0008CEF94E00E94E8ABE4EFF4E084918F0145
:104C00000F5F1F4F882321F00E948935F801F6CFEE
:104C100020919607309197074091980750919907F6
:104C200060915B0270915C0280915D0290915E02E6
:104C30000E94B4DDAB01BC0182EF94E00E94E8ABBE
:104C400020919A0730919B0740919C0750919D07B6
:104C500060915F02709160028091610290916202A6
:104C60000E94B4DDAB01BC018FEE94E00E94E8AB82
:104C700020919E0730919F074091A0075091A10776
:104C80006091630270916402809165029091660266
:104C90000E94B4DDAB01BC018CEE94E00E94E8AB55
:104CA0008AE00E948935A6C68AED90E00E94063807
:104CB0008111A0C680911009882309F49BC60C9429
:104CC0009D2E83E50E942D34882309F493C60E940B
:104CD000833370933F0260933E028CC68DED90E06B
:104CE0000E940638811186C683E50E942D348823F0
:104CF000D9F10091100910E00E948333000F111FB9
:104D0000F801EB5AFD4F718360838091100990E0A8
:104D10008C01000F111F000F111F98012A5D3D4FDC
:104D20007901880F991FFC01EB5AFD4F6081718159
:104D3000072E000C880B990B0E9450D92AE037ED02
:104D400043E25CE30E94AFD9F801E854FD4E2081B4
:104D50003181428153810E94AFD9D7016D937D93F8
:104D60008D939C93139746C6E8E5FDE084918F01EF
:104D70000F5F1F4F882321F00E948935F801F6CF7D
:104D800085E40E94893580911009805D0E948935F3
:104D9000E0911009F0E0EE0FFF1FEB5AFD4F60812C
:104DA000718184E395E00E9405AC85E20E9489351B
:104DB0008AE00E9489351EC680E50E94E63388237A
:104DC00009F418C60E9483336B017C0183E50E94BD
:104DD0002D34882321F00E9483338B0102C00FEF12
:104DE0001FEFC8010196039708F004C6D7FC02C65E
:104DF0009C2DECE3F5E086E38E0F2491921709F4E5
:104E0000E2C731968E13F9CFE1C780E50E94E63301
:104E1000882309F4EFC50E9483336B017C018B0169
:104E2000672B09F08FC083E50E94E6338823C1F029
:104E30000E9483336B017C0160E070E08FEC94E1B1
:104E40000E94004E87FDD6C5B6018FEC94E10E940A
:104E5000BBAA6CE271E080E090E00E94CE7ACAC505
:104E6000E8E5FDE084917F01BFEFEB1AFB0A8823A0
:104E700021F00E948935F701F5CF60E070E08BE802
:104E800095E00E9405AC8091D11428E532E06901DB
:104E9000C81AD10887FDD394CC0CDD1CCC0CDD1CCA
:104EA0000D2C000CEE08FF088091D01428E830E0AB
:104EB0004901881A910887FD9394880C991C880CE5
:104EC000991C092C000CAA08BB088091CF148F3FB5
:104ED000B9F090E0FC01EE0FFF1F8E0F9F1FFC0149
:104EE000EE59FB4E0181128173E0000F111F7A957C
:104EF000E1F7E4E016950795EA95E1F70E5F1F4F9D
:104F000098012F5F3F4FC901330FAA0BBB0B9C01C8
:104F1000AD01281939094A095B09A4EBB0E00E94E8
:104F200094DDA7019601281939094A095B090E94F5
:104F300078DDB90188E895E00E9405AC8AE00E941E
:104F4000893558C5E3EDF5E284918F010F5F1F4F5E
:104F5000882321F00E948935F801F6CFB60181E857
:104F600095E00E9405ACE2E7F5E084918F010F5FC8
:104F70001F4F882309F43EC50E948935F801F5CFFB
:104F800085E40E942D34882339F00E949333082F42
:104F9000823008F094C001C000E080E50E94E63352
:104FA000882361F00E94B33324E0029FF0011124B2
:104FB000E851F84F608371838283938389E40E9470
:104FC000E6338823A9F00E94B33344E0049F9001A4
:104FD0001124D901A052B84F7D012CEA35EC47E2EB
:104FE0005EE30E94AFD9F70160837183828393836C
:104FF00084E40E94E6338823B1F00E94B333F4E0E6
:105000000F9F90011124A9014051584F7A012CEAB9
:1050100035EC47E25EE30E9490DED7016D937D930D
:105020008D939C931397E8E5FDE084917F01BFEF9A
:10503000EB1AFB0A882321F00E948935F701F5CF8E
:1050400010E0B80181EB95E00E9405AC000F111F44
:10505000000F111FF801E851F84F40815181628122
:1050600073818DEA95E00E94E8ABF801E052F84FB9
:105070002CEA35EC47E25EE36081718182819381A5
:105080000E9490DEAB01BC0189EA95E00E94E8AB8A
:10509000F801E051F84F2CEA35EC47E25EE360811D
:1050A0007181828193810E94AFD9AB01BC0185EAF5
:1050B00095E00E94E8AB8AE00E9489359BC4E3ED4D
:1050C000F5E284918F010F5F1F4F882321F00E942A
:1050D0008935F801F6CFE3E9F5E084918F010F5FA0
:1050E0001F4F882309F486C40E948935F801F5CF43
:1050F0000E94979C7FC40E9415967CC480E50E9404
:10510000E633882351F00E94B33360930008709314
:105110000108809302089093030889E40E94E63313
:10512000882381F00E94B3332CEA35EC47E25EE33A
:105130000E94AFD96093FC077093FD078093FE0730
:105140009093FF0784E40E94E633882381F00E9455
:10515000B3332CEA35EC47E25EE30E9490DE6093C5
:10516000F8077093F9078093FA079093FB07E8E537
:10517000FDE084918F010F5F1F4F882321F00E9473
:105180008935F801F6CF40910008509101086091EF
:105190000208709103088DEB95E00E94E8AB2CEAC1
:1051A00035EC47E25EE36091FC077091FD0780916A
:1051B000FE079091FF070E9490DEAB01BC0189EBD6
:1051C00095E00E94E8AB2CEA35EC47E25EE36091A3
:1051D000F8077091F9078091FA079091FB070E94F8
:1051E000AFD9AB01BC0185EB95E00E94E8AB8AE04A
:1051F0000E948935FFC3E3EDF5E284918F010F5FD3
:105200001F4F882321F00E948935F801F6CFE1EC89
:10521000F5E084918F010F5F1F4F882309F4EAC3E3
:105220000E948935F801F5CF81E00E94AE3A0E94D4
:1052300086C4E0C380E00E94AE3A0E9486C4DAC30E
:1052400083E50E94E633882349F00E94A433082FA7
:10525000811106C080E00E944D3D02C000913C13C8
:105260008091241390912513A0912613B0912713B8
:1052700089839A83AB83BC838091281390912913EF
:10528000A0912A13B0912B138D839E83AF83B8878F
:1052900080912C1390912D13A0912E13B0912F1368
:1052A00089879A87AB87BC878091E60C9091E70C41
:1052B000892BA1F183E40E94E6338111AFC52EC092
:1052C000930126964FAD26972A965FAD2A976A2DB1
:1052D0007F2D8DAD22969FAD22970E94B4DD20E0F8
:1052E00030E040E05FE30E94AFD9A20191010E944B
:1052F000B4DD2B013C012DEB37E346E855EB0E9472
:10530000DADF87FDE8C52DEB37E346E855E3C30157
:10531000B2010E944AD918160CF4DDC586E50E9438
:10532000E633882351F08091E60C9091E70C892BAD
:1053300021F00E94EDCB0E94D8CB8AE50E94E63393
:10534000882321F00E94B3330E94AAC2802F0E94BA
:105350004D3D011103C0E8E5FDE01CC080913C1308
:105360008111F9CFE3EDF5E284918F010F5F1F4FBB
:10537000882321F00E948935F801F6CFE0EFF5E0AF
:1053800084918F010F5F1F4F882329F30E94893575
:10539000F801F6CF84918F010F5F1F4F882321F012
:1053A0000E948935F801F6CF80913C13811103C02A
:1053B00061E173E002C06DE073E082EE95E00E946F
:1053C0003AAC8AE00E948935E8E5FDE084918F01DE
:1053D0000F5F1F4F882321F00E948935F801F6CF17
:1053E000E5EDF5E084918F010F5F1F4F882321F0D9
:1053F0000E948935F801F6CFC0903D13D0903E133E
:10540000E0903F13F090401320E030E0A901C70185
:10541000B6010E94DADF18164CF442E0C701B6016B
:105420000E945C388AE00E9489350CC0E0EDF5E00E
:1054300084918F010F5F1F4F882321F00E948935CF
:10544000F801F6CF4CE050E064E273E1CE01019642
:105450000E94B7E0892B09F4CDC20E9486C4CAC25B
:1054600089E40E942D34882321F00E948333162F73
:1054700001C01FEF8AE40E942D34882321F00E948E
:105480008333062F01C00FEF8AE50E94E633F82E22
:10549000811105C081E50E94E633D82E01C0D12CD0
:1054A00017FD02C007FF03C0E3EDF5E205C0F110F0
:1054B0001AC0D11018C0F8CF84918F010F5F1F4F11
:1054C000882321F00E948935F801F6CFEEE2F6E05C
:1054D00084918F010F5F1F4F882309F48BC20E94B4
:1054E0008935F801F5CF153018F0E3EDF5E206C087
:1054F0000530D8F716C00E948935F80184918F01D4
:105500000F5F1F4F8111F7CFEFE0F6E084918F011D
:105510000F5F1F4F882309F46DC20E948935F8017F
:10552000F5CFE12E110FFF08002E000C110B0E9489
:10553000B333DD2099F025E02E9DF0012F9DF00D75
:105540001124E00FF11FEE0FFF1FEE0FFF1FE651BA
:10555000F34F208131814281538103C020E030E04C
:10556000A901A5E0AE9DF001AF9DF00D11240E0F35
:105570001F1F000F111F000F111F0651134F0E9414
:10558000B4DDD8016D937D938D939C9313977CD656
:1055900031C20E94513F2EC20E9450C92BC20E94AC
:1055A000909128C283E50E94E633882321F00E946F
:1055B000A43391E089270E942A8C1CC28AE50E94AC
:1055C0002D34882309F438C00E94B3336B017C0169
:1055D00020E030E040EA51EC0E94DADF87FD13C0A2
:1055E00020E030E040EA51E4C701B6010E944AD908
:1055F00018164CF0C0929207D0929307E09294074D
:10560000F0929507F7C1E3EDF5E284918F010F5F0A
:105610001F4F81110DC0E0E6F6E084918F010F5F0E
:105620001F4F882309F4E6C10E948935F801F5CFA0
:105630000E948935F801E9CFE8E5FDE084918F010A
:105640000F5F1F4F882321F00E948935F801F6CFA4
:10565000E1E5F6E084918F010F5F1F4F882321F071
:105660000E948935F801F6CF409192075091930737
:1056700060919407709195078EE496E00E94E8ABE4
:105680008AE00E948935B6C189E40E942D348823BE
:1056900021F00E949333F82E01C0F12C89E0C82E2E
:1056A00083E0D82E01E010E0F60181916F010E94A5
:1056B0002D34882301F10E94833361157105D9F0DF
:1056C000113051F018F0133079F014C0F1E0FF15EB
:1056D00088F080EC93E105C021E02F1558F087E4B5
:1056E00093E10E94B0C306C08AE893E00E940638A6
:1056F000811180C100E01F5F1430B1F6002309F46E
:1057000079C1009136141091371480E00E94F27A2A
:10571000B8018DE796E00E9405AC8AE00E948935C9
:105720000091BD131091BE1381E00E94F27AB8017E
:105730008DE796E00E9405AC8AE00E9489355AC147
:105740006091C51380E00E94197B60914C1381E049
:105750000E94197B4FC10E9495954CC10E946451D3
:1057600049C18091FD128093FF040091DA051091E8
:10577000DB05F02E8091A20785FF14C0B8017727C2
:1057800089ED96E00E9405AC89E20E9489358AE0A5
:105790000E94893544E253E16AEB76E085EC96E0BD
:1057A0000E948F3A8091FD12F81661F083E50E9405
:1057B0002D34882311F0C8D703C083E50E94E63357
:1057C000F82E02C0FF24F39486E40E942D3488232F
:1057D00011F0C9D703C060E070E0CB0120E030E0F9
:1057E00040E752E40E9490DEAB01BC012F2D802FD8
:1057F0000E948A938091A20785FF14C044E253E17E
:105800006CE976E086EA96E00E948F3AEFE8F6E0EF
:1058100084918F010F5F1F4F882321F00E948935EB
:10582000F801F6CF0091DA0511E08091FF0408132A
:1058300001C010E060912C1370912D1380912E13F4
:1058400090912F132091A905222309F477C00130EC
:1058500009F074C0112309F471C0E2966FAFE297AA
:10586000E3967FAFE397E4968FAFE497E5969FAF1B
:10587000E5970E94D47820E030E040E450E4E296DE
:105880006FADE297E3967FADE397E4968FADE49733
:10589000E5969FADE5970E94B4DD6B017C016093B6
:1058A0007B0770937C0780937D0790937E070E940F
:1058B0001C840E94D4780E9474480E9471BF409159
:1058C0004502509146024A01550FAA08BB08DC0167
:1058D000CB0188199909AA09BB09B7FF03C00E9427
:1058E000F07FEBCF8090DE0C9090DF0CA090E00C6E
:1058F000B090E10CA5019401C701B6010E94B4DD8E
:105900002091B2053091B3054091B4055091B50591
:105910000E94B3DD60932C1370932D1380932E138C
:1059200090932F138092B2059092B305A092B40584
:10593000B092B5050E94BF3B0E9486C48091A90524
:10594000882309F457C0011155C0112309F452C02E
:105950000E94D4780E943DB70E9471BF8B019C01C8
:105960008091450290914602BC01990F880B990BDA
:10597000061B170B280B390B37FF03C00E94F07F63
:10598000EBCF0E9439BFC090DA0CD090DB0CE090D6
:10599000DC0CF090DD0C2091B2053091B305409104
:1059A000B4055091B505C701B6010E94B3DD9B0156
:1059B000AC0160912C1370912D1380912E13909156
:1059C0002F130E94B4DD60932C1370932D138093DA
:1059D0002E1390932F13C092B205D092B305E0928C
:1059E000B405F092B5050E94BF3B0E9486C402C078
:1059F0000E94645110925B0C0E94E68B9FC239D7C3
:105A00000E941C84F7CFAFD60E94F8DE673871057C
:105A10000CF090C170930309609302090E94E37E29
:105A2000A2D620E030E040EA50E40E94DADF181607
:105A300014F40E9462AC81E0809300028091FD1218
:105A40008093100921961CAE1DAE1EAE1FAE21978D
:105A5000A5961CAE1DAE1EAE1FAEA59719AE6696DE
:105A60001FAE6697BCE36A96BFAF6A97ECE1A69655
:105A7000EFAFA697F6E46E96FFAF6E97C12CD12CD0
:105A800090E8E92E2FEBF22E812C912C540160919D
:105A9000020970910309072E000C880B990B0E94D4
:105AA00050D9162F072F782E692E262F372F482FE3
:105AB000592FB601C7010E944AD98823E1F02091ED
:105AC000FE083091FF084091000950910109612FB3
:105AD000702F872D962D0E944AD9881F8827881FEE
