:100000000C9479130C94AA130C94AA130C94AA13AD
:100010000C94AA130C94AA130C94AA130C94AA136C
:100020000C94AA130C9416500C9416500C94165061
:100030000C94AA130C94AA130C94AA130C94AA134C
:100040000C94AA130C9405430C94AA130C94AA13B1
:100050000C94AA130C94AA130C949B8E0C940C4F22
:100060000C94AA130C943E400C94AA130C94AA135B
:100070000C94AA130C94AA130C94AA130C94AA130C
:100080000C945C4B0C94AA130C94AA130C94AA1312
:100090000C94AA130C94AA130C94AA130C94AA13EC
:1000A0000C94AA130C94AA130C942E4B0C94AA1320
:1000B0000C94AA130C94AA130C94AA130C94004B3E
:1000C0000C94AA130C94AA130C94AA130C94AA13BC
:1000D0000C94AA130C94AA130C94AA130C94AA13AC
:1000E0000C94AA136E407440854090409840AD40F7
:1000F0009C40AD40A040A440AD40AA403F4C424C83
:10010000314C354C3B4C794C464C4A4C504C544C41
:10011000584C5E4C624C664C794C6C4C704C744C38
:10012000284E2D4E324E3C4E464EBF4E504E584EEF
:10013000604E6A4E744E7E4E8D4E974EBF4EA14E0F
:10014000AB4EB54E5B8D238E288E538E5F8E3B8ECD
:10015000408E4B8D084AD73B3BCE016E84BCBFFD21
:10016000C12F3D6C74319ABD56833DDA3D00C77F87
:1001700011BED9E4BB4C3E916BAAAABE0000008020
:100180003F05A84CCDB2D44EB93836A9020C50B9AF
:10019000918688083CA6AAAA2ABE000000803F00DB
:1001A0004E414E494E495459494E46CDCCCC3D0A5C
:1001B000D7233C17B7D13877CC2B329595E6241F3F
:1001C000B14F0A000020410000C84200401C4620F8
:1001D000BCBE4CCA1B0E5AAEC59D744C4556454C10
:1001E000494E4700434F4D4D554E49434154494FA9
:1001F0004E0044525952554E004552524F525300F0
:10020000494E464F004543484F0047322F47332061
:1002100062616420706172616D65746572730A0059
:100220004D65736820706F696E742063616E6E6FC8
:1002300074206265207265736F6C7665640A00468F
:10024000696C616D656E7420757365643A20005346
:10025000746174733A20002C204C6F6E6765737460
:10026000206A6F623A2000546F74616C2074696D6B
:10027000653A200053746174733A20002C20466163
:10028000696C65643A20002C2046696E6973686564
:10029000643A20005072696E74733A20005374619E
:1002A00074733A200005020002F901F201E401DB57
:1002B000016F66660044454255473A004D3131337F
:1002C0002053006F6B0020573A0020573A002C2033
:1002D000002C2000544845524D414C5F50524F5421
:1002E000454354494F4E004155544F5245504F528B
:1002F000545F53445F53544154555300454D455248
:1003000047454E43595F5041525345520043415374
:10031000455F4C494748545F4252494748544E450F
:10032000535300544F47474C455F4C49474854533B
:1003300000534F4654574152455F504F5745520066
:100340004255494C445F50455243454E54004C453C
:1003500056454C494E475F44415441005A5F505204
:100360004F4245004155544F4C4556454C00505264
:10037000494E545F4A4F420050524F4752455353E3
:10038000004155544F5245504F52545F54454D50C3
:1003900000564F4C554D4554524943004545505227
:1003A0004F4D0053455249414C5F584F4E5F584F97
:1003B0004646004649524D574152455F4E414D45D4
:1003C0003A4D61726C696E20312E312E392E3520F6
:1003D000284769746875622920534F555243455F19
:1003E000434F44455F55524C3A68747470733A2FCA
:1003F0002F6769746875622E636F6D2F4D61726C23
:10040000696E4669726D776172652F4D61726C69B4
:100410006E2050524F544F434F4C5F5645525349F4
:100420004F4E3A312E30204D414348494E455F549E
:100430005950453A3344205072696E7465722045B4
:10044000585452554445525F434F554E543A32200A
:10045000555549443A63656465326132662D3431DD
:1004600061322D343734382D396231322D633535D0
:100470006336326633363766660A002054002052EF
:1004800000416363656C65726174696F6E3A2050F8
:10049000005741524E494E4721204C6F77205A2039
:1004A0004A65726B206D6179206C65616420746FA0
:1004B00020756E77616E7465642070617573657305
:1004C0002E0A00486F74656E64206F6666736574EB
:1004D000733A004E6F2063617365206C69676874BE
:1004E0000A004F66660A00466164652048656967D0
:1004F00068742000426564204C6576656C696E679F
:1005000020004661696C656420746F20656E6162CD
:100510006C6520426564204C6576656C696E670A7F
:10052000004D65736820706F696E742063616E6E34
:100530006F74206265207265736F6C7665640A0063
:100540004D34323120696E636F727265637420704E
:100550006172616D657465722075736167650A000B
:100560003A200050726F6265205A204F66667365AC
:1005700074003F5A206F7574206F662072616E6739
:100580006520282D323020746F203230290A003C3B
:100590003C3C2067636F64655F540A00203A204149
:1005A000465445520A00202063757272656E745F6E
:1005B000706F736974696F6E3D00203A2042454642
:1005C0004F52450A00202063757272656E745F7029
:1005D0006F736974696F6E3D003E3E3E2067636FC6
:1005E00064655F5428006F6B002569730025696D91
:1005F00020256973002569682025696D20256973A8
:1006000000256964202569682025696D20256973A6
:100610000025697920256964202569682025696D90
:1006200020256973002C20002C2000203A207379AB
:100630006E635F706C616E5F706F736974696F6E0B
:100640000A00202063757272656E745F706F736943
:1006500074696F6E3D00656E7175657565696E676D
:100660002022004C696E65204E756D6265722069AE
:1006700073206E6F74204C617374204C696E65201A
:100680004E756D6265722B312C204C617374204C59
:10069000696E653A20005072696E746572207374D9
:1006A0006F707065642064756520746F2065727268
:1006B0006F72732E204669782074686520657272A7
:1006C0006F7220616E6420757365204D3939392051
:1006D000746F20726573746172742E202854656D76
:1006E00070657261747572652069732072657365D7
:1006F000742E2053657420697420616674657220BD
:1007000072657374617274696E67290A004E6F2096
:10071000436865636B73756D2077697468206C69D5
:100720006E65206E756D6265722C204C617374204D
:100730004C696E653A2000636865636B73756D2064
:100740006D69736D617463682C204C617374204C07
:10075000696E653A20004D3131300020496E766176
:100760006C6964206578747275646572200000009D
:100770000000000020C1000040C000005243008083
:100780008943000052430A20736F66745F656E648C
:1007900073746F705F6D6178203D20000A20736F65
:1007A00066745F656E6473746F705F6D696E203D13
:1007B00020000A20706F736974696F6E5F736869D7
:1007C0006674203D200020617869733A0A20686FC2
:1007D0006D655F6F6666736574203D2000466F72BD
:1007E00020003C3C3C20646F5F626C6F636B696E01
:1007F000675F6D6F76655F746F0A003E3E3E2064F2
:100800006F5F626C6F636B696E675F6D6F76655F5C
:10081000746F00203A2073657475705F666F725F45
:10082000656E6473746F705F6F725F70726F626514
:100830005F6D6F76650A00202063757272656E7455
:100840005F706F736974696F6E3D00203A20636C4E
:1008500065616E5F75705F61667465725F656E6419
:1008600073746F705F6F725F70726F62655F6D6FD0
:1008700076650A00202063757272656E745F706F12
:10088000736974696F6E3D00646F5F70726F62654B
:100890005F726169736528006465706C6F793A20D6
:1008A00000203A207365745F70726F62655F6465E3
:1008B000706C6F7965640A00202063757272656ED2
:1008C000745F706F736974696F6E3D00203A203CED
:1008D0003C3C20646F5F70726F62655F6D6F766520
:1008E0000A00202063757272656E745F706F7369A1
:1008F00074696F6E3D00203A203E3E3E20646F5F7B
:1009000070726F62655F6D6F76650A002020637597
:100910007272656E745F706F736974696F6E3D009B
:1009200072657365745F6265645F6C6576656C0A99
:10093000002028646F6E65290A0045787472617022
:100940006F6C617465205B0042696C696E656172F1
:10095000204C6576656C696E6720477269643A0A57
:1009600000537562646976696465642077697468A8
:10097000204341544D554C4C20524F4D204C6576F0
:10098000656C696E6720477269643A0A003C3C3CBA
:1009900020646F5F686F6D696E675F6D6F76652845
:1009A000005B00290A002C20002C20003E3E3E2047
:1009B000646F5F686F6D696E675F6D6F7665280045
:1009C000202D20496E76616C69642065787472759B
:1009D000646572206E756D62657220210A002020A8
:1009E000506C616E6E6572427566666572427974AE
:1009F00065733A20002046726565204D656D6F7203
:100A0000793A2000436F6D70696C65643A204F63DA
:100A10007420203220323032300A00207C20417590
:100A200074686F723A20286E6F6E652C206465665C
:100A300061756C7420636F6E666967290A003230D5
:100A400031382D30382D303100204C6173742055F1
:100A50007064617465643A2000312E312E392E3570
:100A60000A004D61726C696E0020536F6674776185
:100A700072652052657365740A002057617463685B
:100A8000646F672052657365740A002042726F7745
:100A90006E206F75742052657365740A0020457866
:100AA0007465726E616C2052657365740A00506FD4
:100AB00077657255700A0073746172740A00205A67
:100AC0003A0020593A0020583A00656E6473746FFA
:100AD0007073206869743A200024F4D43050C38EB7
:100AE00020C2A24017828B7011127A910D816CD9AD
:100AF0000AA861E108C7586607615143061E4B5DAD
:100B000005C145A7041A411104093D980371393103
:100B1000034036DB0265339102D4305402802E1D2F
:100B200002632CEE01752AC501B028A001102781AF
:100B3000018F2564012B244B01E0223401AC211FDD
:100B4000018D200D01801FFC00841EED00971DDF2C
:100B500000B81CD200E61BC600201BBC00641AB201
:100B600000B219A8000A19A0006A189900D11791BB
:100B70000040178B00B516840031167E00B315793E
:100B8000003A157300C7146F0058146A00EE13661C
:100B9000008813630025135E00C7125B006C1257B8
:100BA0000015125400C111510070114F0021114B5A
:100BB00000D61049008D1047004610440002104234
:100BC00000C00F4000800F3E00420F3C00060F3B6C
:100BD00000CB0E3800930E37005C0E3500270E3424
:100BE00000F30D3200C10D3100900D3000600D2E6C
:100BF00000320D2D00050D2C00D90C2B00AE0C2958
:100C000000850C29005C0C2700350C27000E0C26F3
:100C100000E80B2400C40B2400A00B23007D0B2351
:100C2000005A0B2100390B2100180B2000F80A1F75
:100C300000D90A1E00BB0A1E009D0A1D00800A1D65
:100C400000630A1C00470A1B002C0A1B00110A1A29
:100C500000F7091A00DD091900C4091900AB0919C8
:100C600000920917007B091800630917004C091648
:100C70000036091600200916000A091500F50815A6
:100C800000E0081400CC081400B8081400A40814EC
:100C900000900813007D0812006B0813005808121A
:100CA0000046081200340811002308110012081130
:100CB0000001081100F0071000E0071000D0071035
:100CC00000C0071000B0070F00A107100091070E29
:100CD0000083070F0074070F0065070E0057070E0B
:100CE0000049070E003B070D002E070E0020070DE0
:100CF0000013070D0006070D00F9060C00ED060DA8
:100D000000E0060C00D4060C00C8060C00BC060C63
:100D100000B0060C00A4060B0099060C008D060B13
:100D20000082060B0077060B006C060B0061060ABA
:100D30000057060B004C060A0042060A0038060A55
:100D4000002E060A0024060A001A060A00100609E8
:100D50000007060A00FD050900F4050900EB050976
:100D600000E2050900D9050900D0050900C70509F9
:100D700000BE050900B5050800AD050800A5050978
:100D8000009C050800940508008C050800840508EF
:100D9000007C050800740508006C0507006505085F
:100DA000005D050700560508004E050700470507CA
:100DB000004005080038050700310507002A05072F
:100DC00000230507001C050600160507000F050790
:100DD000000805060002050700FB040600F50407ED
:100DE00000EE040600E8040600E2040700DB040647
:100DF00000D5040600CF040600C9040600C304069B
:100E000000BD040600B7040600B1040500AC0406EA
:100E100000A6040600A00405009B04060095040536
:100E200000900406008A040500850405008004067D
:100E3000007A04050075040500700405006B0405C4
:100E40000066040500610405005C04050057040504
:100E500000520405004D0405004804050043040544
:100E6000003E0404003A0405003504050030040483
:100E7000002C04050027040400230405001E0404BC
:100E8000001A04040016040500110404000D0404F3
:100E900000090405000404040000040400FC030429
:100EA00000F8030400F4030400F0030400EC03045E
:100EB00000E8030400E4030400E0030400DC03048E
:100EC00000D8030400D4030400D0030400CC0304BE
:100ED00000C8030300C503030024F404D9201BC485
:100EE0000C5C0E9804C4095F0265077101F405F9F2
:100EF00000FB04B30048048700C103690058035590
:100F00000003034500BE023A008402310053022A66
:100F1000002902250004022000E4011C00C8011978
:100F200000AF011700980114008401130071011033
:100F3000006101100051010E0043010D0036010B4C
:100F4000002B010B0020010B00150109000C010909
:100F50000003010800FB000800F3000800EB000795
:100F600000E4000600DE000600D8000600D20006FD
:100F700000CC000500C7000500C2000500BD00044C
:100F800000B9000400B5000400B1000400AD000485
:100F900000A9000400A5000300A20003009F0004B4
:100FA000009B0003009800030095000200930003DB
:100FB00000900003008D0002008B000300880002F7
:100FC000008600020084000300810002007F00020E
:100FD000007D0002007B0002007900020077000122
:100FE000007600020074000200720001007100022D
:100FF000006F0002006D0001006C0002006A000139
:101000000069000200670001006600010065000140
:101010000064000200620001006100010060000144
:10102000005F0002005D0001005C0001005B000148
:10103000005A00010059000100580001005700014A
:10104000005600010055000100540001005300004B
:101050000053000100520001005100010050000146
:10106000004F0001004E0000004E0001004D000145
:10107000004C0001004B0000004B0001004A000141
:10108000004900010048000000480001004700013D
:101090000046000000460001004500000045000138
:1010A0000044000100430000004300010042000032
:1010B0000042000100410000004100010040000129
:1010C000003F0000003F0001003E0000003E000124
:1010D000003D0000003D0001003C0000003C00001D
:1010E000003C0001003B0000003B0001003A000012
:1010F000003A00010039000000390001003800000A
:1011000000380000003800010037000000370001FF
:1011100000360000003600000036000100350000F7
:1011200000350000003500010034000000340000EC
:1011300000340001003300000033000000330001E0
:1011400000320000003200000032000100310000D7
:1011500000310000003100010030000000300000CC
:1011600000300001002F0000002F0000002F0000C1
:10117000002F0001002E0000002E0000002E0001B4
:10118000002D0000002D0000002D0000002D0001AA
:10119000002C0000002C0000002C0000002C00019E
:1011A000002B0000002B0000002B0000002B000192
:1011B000002A0000002A0000002A0000002A000186
:1011C000002900000029000000290000002900007B
:1011D000002900010028000000280000002800006D
:1011E0000028000000280001002700000027000060
:1011F0000027000000270000002700010026000053
:101200000026000000260000002600000026000145
:10121000002500000025000000250000002500003A
:10122000002500000025000100240000002400002B
:10123000002400000024000000240001002300001E
:101240000023000000230000002300000023000012
:101250000023000000230001002200000022000003
:1012600000220000002200000022000000220001F5
:1012700000210000002100000021000000210000EA
:1012800000210000002100000021000100200000DA
:1012900000200000002000000020000000200000CE
:1012A000002000000020000000200001001F0000BE
:1012B000001F0000001F0000001F0000001F0000B2
:1012C000001F0000001F0001001E0000001E0000A3
:1012D000001E0000001E000000043700001E290050
:1012E00000511B00005810000010090000CC040041
:1012F0000078020000410100006265640A002C20B1
:1013000073797374656D2073746F707065642120D8
:101310004865617465725F49443A20004534004570
:1013200033004532004531004530005A3200593211
:10133000005832005A00590058003813361334133D
:1013400031132E132B132813251322131F131C13D1
:10135000747275650066616C7365002074656D70EC
:1013600065726174757265207072657761726E2046
:101370007472696767657265643A200020707265EF
:101380007761726E20666C616720636C656172655F
:10139000640A0000002100240027002A002D0030EC
:1013A00000330001010000040107010A01000022CE
:1013B00000250028002B002E00310034000201001F
:1013C00000050108010B0100002000230026002970
:1013D000002C002F0032000001000003010601096B
:1013E0000105050505070508080808020202020AAA
:1013F0000A080804040404010101010101010103B8
:1014000003030303030303040707070C0C0C0C0C72
:101410000C0C0C0202020206060606060606060B65
:101420000B0B0B0B0B0B0B010210202008081020DC
:101430004010204080020102010804020101020460
:10144000081020408080402010080402018004021F
:101450000180402010080402010804020101020476
:101460000810204080010204081020408000000A7B
:101470000B02090C0D0E0807030401000000000018
:10148000000000000000000000000000000000005C
:101490000000000000000000001211100000000019
:1014A000000000000000000000000000000000003C
:1014B000000000496E76616C69642065787472750D
:1014C0006465720A0020643A0020693A0020703A8C
:1014D0000020653A0020643A0020693A0020703A02
:1014E0000043290A0061626C656420286D696E20E2
:1014F00074656D702000436F6C642065787472753C
:101500006465732061726520004B6420002364656C
:1015100066696E652044454641554C545F004B69F1
:10152000200023646566696E652044454641554C3C
:10153000545F004B70200023646566696E6520442B
:10154000454641554C545F00504944204175746FE5
:1015500074756E652066696E6973686564212050D4
:10156000757420746865206C617374204B702C2036
:101570004B6920616E64204B6420636F6E737461ED
:101580006E74732066726F6D2062656C6F77206970
:101590006E746F20436F6E66696775726174696FF0
:1015A0006E2E680A00504944204175746F74756E40
:1015B00065206661696C6564212074696D656F756D
:1015C000740A0042454420544845524D414C205233
:1015D000554E4157415900453120544845524D41DF
:1015E0004C2052554E4157415900453220544845F0
:1015F000524D414C2052554E41574159004265646D
:101600002068656174696E67206661696C65640055
:1016100045312048656174696E67206661696C6553
:10162000640045322048656174696E6720666169AF
:101630006C656400504944204175746F74756E6523
:10164000206661696C6564212054656D7065726106
:101650007475726520746F6F20686967680A00206E
:101660004B643A2000204B693A2000204B703A200E
:10167000000A20436C617373696320504944200A57
:10168000002054753A2000204B753A2000206D61EF
:10169000783A2000206D696E3A200020643A2000DC
:1016A00020626961733A2000504944204175746F8B
:1016B00074756E65206661696C6564212054656D82
:1016C000706572617475726520746F6F20686967E8
:1016D000680A00504944204175746F74756E652026
:1016E00073746172740A00504944204175746F74B8
:1016F000756E65206661696C6564212042616420B5
:101700006578747275646572206E756D6265720AB3
:1017100000546F6F206661722066726F6D20726573
:10172000666572656E636520706F696E740A004548
:101730004550524F4D204F4B0A0020647269766528
:10174000722063757272656E743A2000496E76611C
:101750006C69642065787472756465720A0041630F
:10176000746976652045787472756465723A2000F4
:10177000203A204D6F7665206261636B0A0020205D
:1017800064657374696E6174696F6E3D00207D0AD3
:10179000002C20004F666673657420546F6F6C20B8
:1017A0005859206279207B20004E6F206D6F76653E
:1017B000206F6E20746F6F6C6368616E67650A00DE
:1017C00020280041424C2041646A7573746D656E37
:1017D00074205A0020480020570020590042696CAC
:1017E000696E65617220477269642058005A20460C
:1017F0006164653A20002028656E61626C65642929
:101800000A00202864697361626C6564290A0042D9
:10181000494C494E454152004175746F2042656400
:10182000204C6576656C696E673A2000204E6F7AB1
:101830007A6C65290A0020262041626F76650020B7
:10184000262053616D65205A2061730020262042B6
:10185000656C6F77002D4261636B002028526967C9
:10186000687400205A3A0020593A0050726F62653D
:10187000204F666673657420583A004649585F4D9C
:101880004F554E5445445F50524F42450A005072E6
:101890006F62653A2000436F72650A004D616368AC
:1018A000696E6520547970653A20003C3C3C2047C5
:1018B00032390A0020636F72726563746564205A5E
:1018C0003A0047323920756E636F727265637465D2
:1018D00064205A3A00203A203E2070726F62696E8E
:1018E0006720636F6D706C6574650A0020206375F6
:1018F0007272656E745F706F736974696F6E3D00AC
:10190000202844525952554E2900473239204175FA
:10191000746F20426564204C6576656C696E670063
:101920003F20284C2C522C462C4229206F757420C5
:101930006F6620626F756E64732E0A003F28562909
:101940006572626F7365206C6576656C20697320C3
:10195000696D706C61757369626C652028302D3417
:10196000292E0A00426164205A2076616C75650A4E
:10197000004E6F2062696C696E65617220677269E2
:10198000640A003C3C3C204732390A003E20417545
:10199000746F2D6C6576656C206E6F74206E656556
:1019A0006465642C20736B69700A00203A203E3E07
:1019B0003E204732390A00202063757272656E74CA
:1019C0005F706F736974696F6E3D00205A3A200032
:1019D00020593A200042656420583A20005072692C
:1019E0006E742074696D653A200050726F7465637F
:1019F0007465642050696E0A005072696E74657275
:101A00002068616C7465642E206B696C6C282920D9
:101A100063616C6C6564210A000000000000000036
:101A200000000000003C3C3C207365745F617869F5
:101A3000735F69735F61745F686F6D652800203A3A
:101A4000200A00202063757272656E745F706F7378
:101A50006974696F6E3D005D203D20003E20686F17
:101A60006D655F6F66667365745B003E207A7072A9
:101A70006F62655F7A6F6666736574203D20002A29
:101A80002A2A205A20484F4D45442057495448207F
:101A900050524F424520285A5F4D494E5F50524F99
:101AA00042455F555345535F5A5F4D494E5F454E22
:101AB0004453544F505F50494E29202A2A2A0A0085
:101AC0003E3E3E207365745F617869735F69735F42
:101AD00061745F686F6D6528005761726E696E672B
:101AE0003A20486F6D696E672042756D70204469B9
:101AF0007669736F72203C20310A000202040000F4
:101B0000A0400000A040000000403C3C3C20686F2A
:101B10006D65617869732800203A203E2041465463
:101B20004552207365745F617869735F69735F61A3
:101B3000745F686F6D650A00202063757272656E50
:101B4000745F706F736974696F6E3D00486F6D6587
:101B5000203220536C6F773A0A004D6F7665204132
:101B60007761793A0A00486F6D65203120466173CC
:101B7000743A0A003E3E3E20686F6D656178697375
:101B8000280048617264636F64656420446566611F
:101B9000756C742053657474696E6773204C6F6143
:101BA0006465640A00DC050000DC050000DC05005B
:101BB00000DC05000000007A4400007A4400007A4E
:101BC000440000C8420000A0420000A042000048BB
:101BD0004400004C433A0A0020286D6D2900202063
:101BE0004D3930360020590020580053746570700C
:101BF0006572206472697665722063757272656EB3
:101C0000743A0A0020204D383531205A005A2D50A0
:101C1000726F6265204F6666736574002044002011
:101C2000490020204D33303420500020440020490A
:101C30000020204D33303120500020440020490046
:101C400020500020204D33303120450050494420A1
:101C500073657474696E67733A0A00205A00204AEB
:101C60000020204732392057204900205A002020E8
:101C70004D3432302053004175746F20426564202A
:101C80004C6576656C696E673A0A002059002058E9
:101C90000020204D323138205400486F74656E6446
:101CA000206F6666736574733A0A00205A002059E3
:101CB0000020204D323036205800486F6D65206F6F
:101CC00066667365743A0A00204500205A00205960
:101CD0000020580020540020530020204D32303581
:101CE00020510020453C6D61785F655F6A65726BCD
:101CF0003E0020583C6D61785F785F6A65726B3E8C
:101D000020593C6D61785F795F6A65726B3E205A3D
:101D10003C6D61785F7A5F6A65726B3E0041647604
:101D2000616E6365643A20513C6D696E5F736567EF
:101D30006D656E745F74696D655F75733E20533CAD
:101D40006D696E5F66656564726174653E20543CC2
:101D50006D696E5F74726176656C5F6665656472ED
:101D60006174653E0020540020520020204D323026
:101D700034205000416363656C65726174696F6EF5
:101D80002028756E6974732F7332293A20503C7085
:101D900072696E745F616363656C3E20523C72656C
:101DA00074726163745F616363656C3E20543C745C
:101DB000726176656C5F616363656C3E0A00204505
:101DC00000205A0020590020204D32303120580088
:101DD0004D6178696D756D20416363656C657261F5
:101DE00074696F6E2028756E6974732F7332293A87
:101DF0000A00204500205A0020590020204D323092
:101E0000332058004D6178696D756D206665656495
:101E100072617465732028756E6974732F73293A23
:101E20000A00204500205A0020590020204D393258
:101E300020580053746570732070657220756E6948
:101E4000743A0A0020204D3230302044300A0020FD
:101E5000204D32303020543120440020204D32308B
:101E6000302044002044697361626C65640A004656
:101E7000696C616D656E742073657474696E6773E7
:101E80003A002020473231202020203B0020746F70
:101E90006F206C6F6E6720657874727573696F6EF2
:101EA0002070726576656E7465640A0020636F6CDD
:101EB0006420657874727573696F6E2070726576D0
:101EC000656E7465640A00426564206865617469C2
:101ED0006E67206661696C65640045312048656104
:101EE00074696E67206661696C65640045322048DC
:101EF000656174696E67206661696C6564004B4951
:101F00004C4C45442E200070012C0190012701B05B
:101F1000012201C0011D01F001180110021301305E
:101F2000020E016002090190020401C002FF0000DC
:101F300003FA004003F5008003F000D003EB00201B
:101F400004E6007004E100E004DC004005D700C0B6
:101F500005D2004006CD00D006C8008007C300307F
:101F600008BE00F008B900C009B400B00AAF00B064
:101F70000BAA00D00CA500000EA000500F9B00C0C3
:101F80001096005012910000148C00C0158700B00C
:101F9000178200B0197D00D01B7800001E7300402E
:101FA000206E0090226900F024640040275F0090BA
:101FB000295A00E02B5500102E500020304B001005
:101FC000324600E033410090353C00103737007056
:101FD000383200A0392D00B03A2800A03B23006021
:101FE0003C1E00103D1900903D1400103E0F007083
:101FF0003E0A00C03E0500003F0000403FFBFF805E
:102000003FF6FFC03FF1FF202F002040002042405C
:102010003A0020403A00556E6B6E6F776E20636F0A
:102020006D6D616E643A202200203A203C3C3C20D9
:1020300072756E5F7A5F70726F62650A002020634E
:10204000757272656E745F706F736974696F6E3DDF
:10205000002044697363726570616E63793A00327F
:102060006E642050726F6265205A3A00203A203C1C
:102070003C3C2072756E5F7A5F70726F62650A0019
:10208000202063757272656E745F706F7369746916
:102090006F6E3D00534C4F572050726F6265206643
:1020A00061696C210A003173742050726F6265207F
:1020B0005A3A00203A203C3C3C2072756E5F7A5FB1
:1020C00070726F62650A00202063757272656E74AB
:1020D0005F706F736974696F6E3D004641535420A1
:1020E00050726F6265206661696C210A00203A2097
:1020F0003E3E3E2072756E5F7A5F70726F62650A57
:1021000000202063757272656E745F706F736974FE
:10211000696F6E3D003C3C3C2070726F62655F7081
:10212000740A0050726F62696E67206661696C653F
:10213000640A00205A3A200020593A20004265647F
:1021400020583A2000203A200A002020637572723D
:10215000656E745F706F736974696F6E3D005F7256
:10216000656C6174697665290A002C20002C2000BA
:102170002C20002C20003E3E3E2070726F62655F76
:10218000707428003C3C3C205A5F534146455F48F0
:102190004F4D494E470A00203A205A5F5341464569
:1021A0005F484F4D494E470A0020206465737469AB
:1021B0006E6174696F6E3D005A5F534146455F48DA
:1021C0004F4D494E47203E3E3E0A00486F6D652008
:1021D00058592066697273740A00000052430080E7
:1021E0008E430000554300002042000020420000C2
:1021F000204100000000FFFFFF3C3C3C20473238FC
:102200000A005261697365205A20286265666F7200
:102210006520686F6D696E672920746F20003E200D
:10222000656E6473746F70732E656E61626C652881
:1022300074727565290A003C3C3C204732380A001C
:102240003E20686F6D696E67206E6F74206E6565E5
:102250006465642C20736B69700A003E3E3E204723
:1022600032380A005374616E64617264204465768A
:10227000696174696F6E3A20002052616E67653A39
:102280002000204D61783A2000204D696E3A2000F0
:102290004D65616E3A200046696E69736865642118
:1022A0000A002072616E67653A2000206D61783AFD
:1022B0002000206D696E3A2000207369676D613AD5
:1022C0002000206D65616E3A20003A207A3A2000A5
:1022D000206F662000205A00205900205800476FC8
:1022E000696E6720746F3A00436C6F636B77697334
:1022F000650A00436F756E7465722D002044697223
:10230000656374696F6E3A2000202020616E676CEF
:10231000653A20005374617274696E67207261645B
:102320006975733A2000506F736974696F6E696ED6
:1023300067207468652070726F62652E2E2E0A0009
:102340003F4E756D626572206F66206C6567732005
:10235000696E206D6F76656D656E74206E6F74208A
:10236000706C61757369626C652028302D31352978
:102370002E0A003F2028582C5929206F7574206F91
:102380006620626F756E64732E0A003F53616D7034
:102390006C652073697A65206E6F7420706C61754E
:1023A0007369626C652028342D3530292E0A004D62
:1023B0003438205A2D50726F626520526570656105
:1023C000746162696C69747920546573740A003FA2
:1023D0002856296572626F7365206C6576656C207E
:1023E000697320696D706C61757369626C65202812
:1023F000302D34292E0A005452494747455245444E
:10240000006F70656E003A20007A5F6D696E00792A
:102410005F6D696E00785F6D696E005265706F72F6
:1024200074696E6720656E6473746F702073746175
:102430007475730A0020746F6F206C6F6E6720656F
:102440007874727573696F6E2070726576656E74DC
:1024500065640A0020636F6C64206578747275731C
:10246000696F6E2070726576656E7465640A0062CD
:102470007573793A2070617573656420666F722098
:10248000696E7075740A00627573793A20706175AF
:1024900073656420666F7220757365720A006275D9
:1024A00073793A2070726F63657373696E670A009F
:1024B0004B494C4C206361757365642062792074CC
:1024C0006F6F206D75636820696E616374697665EE
:1024D0002074696D65202D2063757272656E74209D
:1024E000636F6D6D616E643A2000290A0020627985
:1024F0007465733B2063726320002073746F726590
:10250000642073657474696E677320726574726990
:1025100065766564202800202863616C63756C61B2
:1025200074656429210A0020213D20004545505250
:102530004F4D20435243206D69736D617463682071
:102540002D202873746F7265642920002053697AE6
:10255000653A2000496E6465783A2000204D61722A
:102560006C696E3D563538290A0028454550524F52
:102570004D3D00454550524F4D2076657273696F51
:102580006E206D69736D6174636820004572726FAF
:10259000722077726974696E6720746F20454550A8
:1025A000524F4D210A00290A002062797465733B5D
:1025B00020637263200053657474696E67732053DF
:1025C000746F7265642028004572726F723A00421F
:1025D000454420544845524D414C2052554E415798
:1025E000415900453120544845524D414C205255E7
:1025F0004E4157415900453220544845524D414CB7
:102600002052554E41574159002066697273740A31
:10261000005A0059005800486F6D652000656368D6
:102620006F3A00205A3A0020423A0020436F756EFC
:102630007420413A0020453A00205A3A0020593A85
:1026400000583A003A004361703A002F2F200020D2
:102650005A00205900580020204D61783A2000206F
:102660005A00205900580020204D696E3A20004F32
:102670006E20004F666600536F667420656E64734B
:10268000746F70733A200020466C6F773A20000018
:102690000136372603FFFFFF353C3D380EFFFFFFB5
:1026A000312E303E12FFFFFFFF28FF0C0809FFFF0D
:1026B000FF1A1C18FFFF2A24221EFFFF2C08440AC1
:1026C000FF4307FF45206F7574206F662072616EAF
:1026D00067650A00536572766F20003A2000205328
:1026E0006572766F2000526573656E643A20000053
:1026F0001FD811241FBECFEFD1E2DEBFCDBF00E057
:102700000CBF15E0A0E0B2E0EAE7FCEC01E00BBF93
:1027100002C007900D92A236B107D9F727E1A2E6D1
:10272000B5E001C01D92AF36B207E1F713E1C9E78A
:10273000D3E100E006C021970109802FFE010E942D
:1027400091E5C837D10780E00807A9F70E9431D288
:102750000C943BE60C9400002F923F924F925F92B4
:102760006F927F928F929F92AF92BF92CF92DF92A1
:10277000EF92FF920F931F93CF93DF93CDB7DEB706
:10278000C657D1090FB6F894DEBF0FBECDBF11E01A
:1027900010933C12809148068D3411F40C94AC1CBB
:1027A000843511F40C94BC2C873411F00C94042E55
:1027B00080914606909147068C31910509F472C6C6
:1027C00094F4843091053CF482309105BCF597FF78
:1027D0002EC00C94A81C049711F00C94A81C0E9405
:1027E00051670C94062E8A32910509F463C664F48D
:1027F0008D31910509F45AC64E9711F00C94A81C1E
:102800000E944B5F0C94062E8B35910509F42EC760
:102810008C35910509F430C78A35910511F00C9477
:10282000A81C109267051092F9110C94062E809145
:102830001A0281110C94212E0C94062E20911A025A
:10284000222311F40C94062E11E0029709F010E0F7
:102850000E948D6782E50E940A35882309F45CC1D5
:102860000E9490346B017C0140907A1250907B1250
:1028700060907C1270907D1220917E1230917F12B8
:10288000409180125091811222962CAF3DAF4EAFF5
:102890005FAF22978091D5119091D611A091D71159
:1028A000B091D81126968CAF9DAFAEAFBFAF269733
:1028B0002091D9113091DA114091DB115091DC1146
:1028C0002E962CAF3DAF4EAF5FAF2E9720E030E09D
:1028D000A901C701B6010E942CDE882309F4C8C5EE
:1028E000A301920126966CAD7DAD8EAD9FAD26976E
:1028F0000E942CDE811111C022962CAD3DAD4EAD53
:102900005FAD22972E966CAD7DAD8EAD9FAD2E97AF
:102910000E942CDE882309F4ABC520E030E0A90139
:10292000C701B6010E942CDE881F8827881F181354
:102930000BC080E090E0A0E8BFE36A968CAF9DAF4B
:10294000AEAFBFAF6A970AC020E030E040E85FEB6F
:102950006A962CAF3DAF4EAF5FAF6A97A30192016D
:1029600026966CAD7DAD8EAD9FAD26970E9495E20B
:1029700062966CAF7DAF8EAF9FAF629722962CAD03
:102980003DAD4EAD5FAD22972E966CAD7DAD8EAD5B
:102990009FAD2E970E9495E266966CAF7DAF8EAF8D
:1029A0009FAF669762962CAD3DAD4EAD5FAD629721
:1029B000CA01B9010E9491DE4B015C0166962CAD03
:1029C0003DAD4EAD5FAD6697CA01B9010E9491DE83
:1029D0009B01AC01C501B4010E9496E20E9401E591
:1029E0002A966CAF7DAF8EAF9FAF2A9720E030E084
:1029F00040E05FE30E9491DE4B015C01A70196017C
:102A0000C701B6010E9491DE6B017C01A501940112
:102A1000C501B4010E9491DE9B01AC01C701B60162
:102A20000E9495E20E9401E59B01AC016A966CADA3
:102A30007DAD8EAD9FAD6A970E9491DE4B015C012A
:102A400026962CAD3DAD4EAD5FAD2697C301B201CC
:102A50000E9496E220E030E040E05FE30E9491DED9
:102A60006B017C0166966CAD7DAD8EAD9FAD6697BA
:102A700090582A962CAD3DAD4EAD5FAD2A970E9481
:102A800072E39B01AC01C501B4010E9491DE9B0180
:102A9000AC01C701B6010E9496E2A30192010E9417
:102AA00095E26B017C012E962CAD3DAD4EAD5FAD38
:102AB0002E9722966CAD7DAD8EAD9FAD22970E9474
:102AC00096E220E030E040E05FE30E9491DE2B01DF
:102AD0003C012A962CAD3DAD4EAD5FAD2A97629676
:102AE0006CAD7DAD8EAD9FAD62970E9472E39B0190
:102AF000AC01C501B4010E9491DE9B01AC01C30190
:102B0000B2010E9496E222962CAD3DAD4EAD5FAD76
:102B100022970E9495E214C089E40E940A35882316
:102B200029F00E9490346B017C0103C0C12CD12C90
:102B300076018AE40E940A358823F9F00E949034D5
:102B40002E966CAF7DAF8EAF9FAF2E9720E030E01A
:102B5000A901C701B6010E942CDE81111EC020E030
:102B600030E0A9012E966CAD7DAD8EAD9FAD2E9758
:102B70000E942CDE811111C07BC420E030E0A9014D
:102B8000C701B6010E942CDE882309F471C42E9679
:102B90001CAE1DAE1EAE1FAE2E97D701C601B0589B
:102BA00022968CAF9DAFAEAFBFAF22972E962CADC5
:102BB0003DAD4EAD5FAD2E97505826962CAF3DAF34
:102BC0004EAF5FAF26979C01AD01BC01CD010E94C5
:102BD00091DE4B015C0126962CAD3DAD4EAD5FAD57
:102BE0002697CA01B9010E9491DE9B01AC01C50183
:102BF000B4010E9496E20E9401E5A6966CAF7DAFFB
:102C00008EAF9FAFA69780917A1290917B12A09180
:102C10007C12B0917D122A968CAF9DAFAEAFBFAF44
:102C20002A97A7019601BC01CD010E9496E26A96FF
:102C30006CAF7DAF8EAF9FAF6A9720917E123091BF
:102C40007F12409180125091811262962CAF3DAF5D
:102C50004EAF5FAF62972E962CAD3DAD4EAD5FADE2
:102C60002E9762966CAD7DAD8EAD9FAD62970E9442
:102C700096E2AA966CAF7DAF8EAF9FAFAA97809178
:102C8000D5119091D611A091D711B091D811669617
:102C90008CAF9DAFAEAFBFAF66976A962CAD3DAD22
:102CA0004EAD5FAD6A97BC01CD010E9495E26B010C
:102CB0007C012091D9113091DA114091DB115091B2
:102CC000DC116E962CAF3DAF4EAF5FAF6E97AA96FC
:102CD0002CAD3DAD4EAD5FADAA976E966CAD7DADA2
:102CE0008EAD9FAD6E970E9495E24B015C01809185
:102CF000821290918312A0918412B0918512A296B3
:102D00008CAF9DAFAEAFBFAFA2979C01AD016091FC
:102D1000DD117091DE118091DF119091E0110E9420
:102D200095E22B013C012091E1113091E21140919B
:102D3000E3115091E411E2962CAF3DAF4EAF5FAF7F
:102D4000E2978091861290918712A0918812B0919B
:102D50008912AE968CAF9DAFAEAFBFAFAE97A70155
:102D6000960122966CAD7DAD8EAD9FAD22970E94EF
:102D700091DEE6966CAF7DAF8EAF9FAFE697A50173
:102D8000940126966CAD7DAD8EAD9FAD26970E94C9
:102D900091DE9B01AC01E6966CAD7DAD8EAD9FAD35
:102DA000E6970E9496E2E6966CAF7DAF8EAF9FAF3E
:102DB000E697A501940122966CAD7DAD8EAD9FADD9
:102DC00022970E9491DE4B015C01A7019601269695
:102DD0006CAD7DAD8EAD9FAD26970E9491DE9B01BF
:102DE000AC01C501B4010E9495E2E6962CAD3DAD63
:102DF0004EAD5FADE6970E9409E36B017C0120E0D8
:102E000030E0A9010E942CDE87FF0AC02BED3FE0D5
:102E100049EC50E4C701B6010E9496E26B017C01C7
:102E2000112351F02BED3FE049EC50E4C701B6010E
:102E30000E9495E26B017C0120E030E0A901C7010E
:102E4000B6010E942CDE811128C066962CAD3DADE6
:102E50004EAD5FAD66972A966CAD7DAD8EAD9FADE4
:102E60002A970E942CDE811118C06E962CAD3DADC4
:102E70004EAD5FAD6E9762966CAD7DAD8EAD9FAD84
:102E800062970E942CDE811108C06BEDC62E6FE0A8
:102E9000D62E69ECE62E60E4F62EA7019601A696E2
:102EA0006CAD7DAD8EAD9FADA6970E9491DE4B01BE
:102EB0005C0120E030E0A901C301B2010E942CDED8
:102EC0008823C9F0A5019401C501B4010E9491DED7
:102ED0004B015C01A3019201C301B2010E9491DE8A
:102EE0009B01AC01C501B4010E9496E20E9401E57C
:102EF0004B015C010DC020E030E0A901C501B40127
:102F00000E94BCE487FF04C0B7FAB094B7F8B0944D
:102F10002FE632E143E85AE3C501B4010E942CDEFA
:102F200087FF02C00C94062EC501B4010E940BE479
:102F30000E94DFE31B01672B19F422242394312C18
:102F4000B10180E090E00E9430DE4B015C019B010A
:102F5000AC01C701B6010E9472E32A966CAF7DAF47
:102F60008EAF9FAF2A97A5019401C301B2010E94C1
:102F700072E3A6966CAF7DAF8EAF9FAFA697AE966D
:102F80002CAD3DAD4EAD5FADAE97E2966CAD7DAD77
:102F90008EAD9FADE2970E9495E2A50194010E943B
:102FA00072E3E2966CAF7DAF8EAF9FAFE2972A9649
:102FB0002CAD3DAD4EAD5FAD2A97CA01B9010E945F
:102FC00091DE20E030E040E05FE30E9491DE9B0173
:102FD000AC0160E070E080E89FE30E9495E26E96AD
:102FE0006CAF7DAF8EAF9FAF6E97A2962CAD3DAD0F
:102FF0004EAD5FADA2972E8F3F8F48A359A3AE96DB
:103000008CAD9DADAEADBFADAE978AA39BA3ACA377
:10301000BDA36091540270915502072E000C880BDD
:10302000990B0E9432DE2091490230914A02409170
:103030004B0250914C020E9491DE2AE037ED43E2B0
:103040005CE30E9491DE6AAF7BAF8CAF9DAF0E94C4
:10305000004F9B01AC0128533F4F4F4F5F4FA2964B
:103060002CAF3DAF4EAF5FAFA2974EAC5FAC219699
:103070006FAC219722967FAC229741E050E0649696
:103080005FAF4EAF649759E12F965FAF2F9764966D
:103090002EAD3FAD64972215330509F473C10E942C
:1030A00077900E94004FDC01CB01A2962CAD3DAD84
:1030B0004EAD5FADA297821B930BA40BB50BB7FD72
:1030C00010C00E94004F9B01AC0128533F4F4F4F4F
:1030D0005F4FA2962CAF3DAF4EAF5FAFA2970E945D
:1030E00014A72F963FAD2F9731502F963FAF2F97B4
:1030F000332309F44BC06E962CAD3DAD4EAD5FADA4
:103100006E9726966CAD7DAD8EAD9FAD26970E94D5
:1031100091DE6B017C012A962CAD3DAD4EAD5FADCD
:103120002A97B201C3010E9491DEA70196010E9475
:1031300096E27B018C016E962CAD3DAD4EAD5FAD40
:103140006E97B201C3010E9491DE4B015C012A9689
:103150002CAD3DAD4EAD5FAD2A9726966CAD7DADE5
:103160008EAD9FAD26970E9491DE9B01AC01C501FB
:10317000B4010E9495E22B013C01C701D8012696BB
:103180008CAF9DAFAEAFBFAF269761C064964EAD1A
:103190005FAD6497BA0180E090E00E9430DE2A962D
:1031A0002CAD3DAD4EAD5FAD2A970E9491DE4B0137
:1031B0005C010E946FE36B017C01C501B4010E94B8
:1031C000F7E44B015C01A701960122966CAD7DAD41
:1031D0008EAD9FAD22970E9491DE2B013C01A5018F
:1031E00094012E966CAD7DAD8EAD9FAD2E970E9455
:1031F00091DE9B01AC01C301B2010E9496E22B015A
:103200003C01A501940122966CAD7DAD8EAD9FADC4
:1032100022970E9491DE4B015C01A70196012E9638
:103220006CAD7DAD8EAD9FAD2E970E9491DE9B0162
:10323000AC01C501B4010E9495E226966CAF7DAF4A
:103240008EAF9FAF269759E12F965FAF2F979201D0
:10325000A3016A966CAD7DAD8EAD9FAD6A970E945D
:1032600096E26E8B7F8B888F998F26962CAD3DAD25
:103270004EAD5FAD2697AA966CAD7DAD8EAD9FAD80
:10328000AA970E9496E26A8F7B8F8C8F9D8FA6965D
:103290002CAD3DAD4EAD5FADA6976E8D7F8D88A1F7
:1032A00099A10E9496E26E8F7F8F88A399A3E296E0
:1032B0002CAD3DAD4EAD5FADE2976AA17BA18CA177
:1032C0009DA10E9496E26AA37BA38CA39DA38091FB
:1032D0005302882321F0CE0146960E940F6EE090A3
:1032E000E5111AAA1BAA1CAA1DAA0E891F89288DDE
:1032F000398D0EA31FA328A739A74A8D5B8D6C8D2E
:103300007D8D4AA75BA76CA77DA78E8D9F8DA8A1F9
:10331000B9A18EA79FA7A8ABB9AB09831A832B834A
:103320003C834D835E836F83788789879A87AB87D9
:10333000BC878AA19BA1ACA1BDA18D879E87AF87C9
:10334000B88B9E01235F3F4FAE01475F5F4FBE01C9
:103350006B5F7F4FCE0101960E947A9FCE01C2968D
:103360006C018E01065C1F4F9E012E5D3F4FAE012A
:10337000425D5F4FBE01665D7F4F0C970E940979E9
:1033800081116CC0E090E5111EAA1FAA18AE19AEFB
:103390000091D5111091D6112091D7113091D811EB
:1033A0000EA31FA328A739A74091D9115091DA1174
:1033B0006091DB117091DC114AA75BA76CA77DA718
:1033C0008091DD119091DE11A091DF11B091E0119B
:1033D0008EA79FA7A8ABB9AB09831A832B833C8325
:1033E0004D835E836F83788789879A87AB87BC8795
:1033F0008091E1119091E211A091E311B091E4115B
:103400008D879E87AF87B88B9E01235F3F4FAE01AC
:10341000475F5F4FBE016B5F7F4FCE0101960E94F9
:103420007A9FDE01D6966D018E01065C1F4F21EE5C
:1034300031E1AE01425D5F4FBE01665D7F4FCE015F
:1034400086960E94097980E1E5EDF1E1AAE7B2E113
:1034500001900D928A95E1F70C94062E6496EEADDC
:10346000FFAD649731966496FFAFEEAF64970FCED1
:10347000E8ECF5E284918F010F5F1F4F882321F064
:103480000E947836F801F6CFEAE0F2E084918F01ED
:103490000F5F1F4F882311F40C94062E0E9478367C
:1034A000F801F4CF0E9453920C94062E0E94D06132
:1034B0000C94062E80911A02882311F40C94062E87
:1034C00089E40E940A35182F882321F00E94603475
:1034D000E62E01C0E12C8AE40E940A35082F8823D9
:1034E00031F00E946034F62E111104C00BC0F12C93
:1034F0001123C1F034E03E1510F00C947530E0E279
:10350000F2E004C044E04F15D0F30CC084918F0169
:103510000F5F1F4F882311F40C94062E0E947836FB
:10352000F801F4CF0E9464361123F1F0209140108D
:10353000309141105E2D5203B001539F700D112444
:103540008091741290917512680F791F072E000CEC
:10355000880B990B0E9432DE6093D5117093D611BF
:103560008093D7119093D8110023F1F0209142104D
:10357000309143104F2D4203B001439F700D112431
:103580002091761230917712620F731F072E000C74
:10359000880B990B0E9432DE6093D9117093DA1177
:1035A0008093DB119093DC1180E50E940A3588231B
:1035B000E9F00E9481348823A9F11123D9F020E099
:1035C00030E040EA51E46091D5117091D6118091BC
:1035D000D7119091D8110E9495E26093D511709304
:1035E000D6118093D7119093D81104C080E50E9422
:1035F000C334E1CF0023B1F020E030E040E052E4FA
:103600006091D9117091DA118091DB119091DC11E8
:103610000E9495E26093D9117093DA118093DB11C7
:103620009093DC1186E40E940A358823D9F00E9429
:1036300090346B017C0120E030E0A9010E94BCE4E1
:10364000181684F420E030E040E752E4C701B601E8
:103650000E9472E36093490270934A0280934B0286
:1036600090934C020E943BAB0C94062E109367057E
:103670001093F9110C94062E3CE9C32E32E0D32EA0
:1036800049EFE42E4FE0F42E00E010E0612C712CA5
:10369000D6018D916D010E940A35882309F4F9C085
:1036A0000E9490344B015C01B3E07B1659F0F801A5
:1036B000E953FE4E20813181428153810E9495E27F
:1036C0004B015C01F801E658FD4E208131814281B9
:1036D0005381B401C5010E9495E29B01AC01E3E076
:1036E0007E12C8C01092FE111092FF1110920012AB
:1036F00010920112109216121092171210921812B4
:103700001092191210921A1210921B1210921C127F
:1037100010921D1210920E1210920F12109210128F
:103720001092111210922612109227121092281243
:103730001092291210921E1210921F121092201233
:10374000109221121092121210921312109214124F
:103750001092151210922A1210922B1210922C1203
:1037600010922D12109222121092231210922412F3
:10377000109225128091E51190E0FC01EC5FFD4E66
:103780002081213009F04BC0880F991F880F991FA5
:10379000FC01EA5FFD4E2CEA35EC47E257E360811D
:1037A0007181828193810E94BCE41816C4F520E0E7
:1037B00030E0A901B401C5010E942CDE81112FC0A7
:1037C000BEE2AB2EB3E0BB2ED5018D915D01882307
:1037D00019F00E947836F8CF8AE00E94783620915E
:1037E000E511B4E02B9F90011124F901EA5FFD4E31
:1037F00080819181A281B381B058F901E25FFD4ED1
:1038000080839183A283B383F901EA5DFD4E8083B7
:103810009183A283B383BC012A2F9B2F03C0B401E1
:103820002A2D9B2D4B01A22EB92E809286129092AA
:103830008712A0928812B0928912A3E4AA2EA3E064
:10384000BA2EF50181915F01882319F00E94783624
:10385000F8CF6091861270918712809188129091B2
:10386000891242E00E9497398AE00E9478366624E5
:1038700063940FC0D7016D917D918D919C910E94B1
:1038800096E2F7016083718382839383872D0E9480
:1038900082367394F4E0EF0EF11C0C5F1F4F24E0AE
:1038A0007212F6CE662009F44FC020E030E0A90184
:1038B000609186127091871280918812909189127E
:1038C0000E9496E220915C0F30915D0F40915E0F57
:1038D00050915F0F0E9491DE0E94C7E460935C13D9
:1038E00070935D1380935E1390935F1390913A13DE
:1038F00080913B13981719F00E946E8725C00E9493
:10390000799E80916F0081FB992790F981FF05C016
:1039100080916F008D7F80936F0040915C13509178
:103920005D1360915E1370915F1340934C0F509341
:103930004D0F60934E0F70934F0F992329F0809194
:103940006F00826080936F000E94CCC90C94062E99
:103950000E9474980C94062E80914606909147061A
:103960008337910511F40C94B0280CF0F8C08C3416
:10397000910509F4B7C50CF079C08C33910509F4B1
:1039800009C30CF047C08F31910509F4ABC284F430
:103990008131910509F49BC22CF4029708F414C2FA
:1039A0000C94B92C429711F40C94AA270C94B92CBE
:1039B0008933910509F49EC264F48A32910509F4B1
:1039C00095C2C09711F00C94B92C0E9491980C9458
:1039D000062E8A33910509F4ABC2CB9711F00C94F3
:1039E000B92C10922E1210920412109205101092FF
:1039F00006101092071010920810109205121092E3
:103A0000091010920A1010920B1010920C1000E581
:103A100013E092C28134910511F40C94062E84F4C3
:103A20008E33910509F45FC30CF43DC38F339105C8
:103A300009F474C38034910509F48BC30C94B92C38
:103A40008B3491050CF04AC58434910514F00C9424
:103A5000062E8234910509F4DCC38334910511F0FC
:103A60000C94B92C0E9481BD0C94062E88369105C9
:103A700009F452C60CF040C08135910511F40C9444
:103A8000982784F48E34910509F445C50CF43FC59C
:103A90008F34910509F45FC48035910509F45FC442
:103AA0000C94B92C8435910511F40C94AA277CF45C
:103AB0008235910511F40C94A7278335910511F0F7
:103AC0000C94B92C81E0809366050C94062E853504
:103AD000910511F40C94D9278C35910511F00C94B3
:103AE000B92C9CE9C92E92E0D92E20E5E22E2FE0D8
:103AF000F22E10E00C94F2278D36910509F407C7D9
:103B00009CF48A36910511F40C946C270CF4BDC614
:103B10008B36910511F40C9488278C36910511F49D
:103B20000C94062E0C94B92C8037910511F40C944A
:103B3000062E54F48E36910509F41AC68F36910577
:103B400009F429C60C94B92C8137910509F471C682
:103B50008237910511F40C9471280C94B92C8E3293
:103B600031E0930711F40C945C2A0CF090C08B3C6C
:103B7000910511F40C9433290CF04AC08937910552
:103B800011F40C941329F4F48637910511F40C9474
:103B90000D293CF48537910511F40C94062E0C94F4
:103BA000B92C8737910511F40C94102988379105A9
:103BB00011F00C94B92C81E08093D4118093D3112F
:103BC0000C94062E8E3B910511F40C94B7265CF4F0
:103BD0008C38910511F40C949D268B39910509F4CC
:103BE0006FC60C94B92C883C910511F40C941829DB
:103BF000893C910511F00C94B92CB9EFEB2EB3E18F
:103C0000FB2E0CE912E084E0D82ED00E0C941B2978
:103C10008A3D910511F40C94472AB4F48D3C91052A
:103C200011F40C94C52914F40C9450298E3C910580
:103C300011F40C94442A833D910511F00C94B92C95
:103C40000E94F2C70C94062E823E910511F40C944A
:103C5000562A74F48C3D910511F40C94532A8D3D31
:103C6000910511F00C94B92C0E9471C70C94062E8A
:103C7000883151E0950711F40C94592A8D32914006
:103C800011F00C94B92C0E943C5E0C94062E843FDB
:103C9000B1E09B0711F40C94352C0CF042C0813933
:103CA000F1E09F0711F40C947E2AC4F4803331E0D4
:103CB000930711F40C94622A14F40C945F2A83364F
:103CC00051E0950711F40C94652A8039914011F068
:103CD0000C94B92C0E94799E0C94062E843AB1E083
:103CE0009B0711F40C948A2A6CF48239F1E09F0747
:103CF00011F40C94842A8A39914011F40C94062E04
:103D00000C94B92C853A31E0930711F40C949C2B58
:103D10008C3A914011F00C94B92C0E94F8550C94F7
:103D2000062E833553E0950711F40C944A2C4CF57C
:103D3000873FB1E09B0711F40C943B2C7CF4853F4A
:103D4000F1E09F0711F40C94382C863F914011F05C
:103D50000C94B92C0E940F770C94062E883F31E00A
:103D6000930711F40C94472C8A39924011F00C946B
:103D7000B92C6FEF88E790E00E941BE205EA13E0A0
:103D8000A4C38F3853E0950711F40C94B32C6CF452
:103D90008A38B3E09B0711F40C94B02C8B38934015
:103DA00011F40C94062E0C94B92C8039F3E09F0783
:103DB00011F40C94B62C873E934011F00C94B92C5E
:103DC0000E94F9540C94062EE0904406F0904506AB
:103DD00080E50E940A35882359F00E9450344B0137
:103DE0005C0111E0672B682B692B31F410E004C0F3
:103DF00010E0812C912C540183E50E940A35882320
:103E000011F40C94262E0E94903420E030E04AE712
:103E100054E40E9491DE0E94DFE34B015C0111112A
:103E20000BC0672B682B692B39F4E114F10421F0E6
:103E3000D7018C91811102C010E001C011E00E94F5
:103E4000799E1123B9F0EDE1F6E284918F010F5FC5
:103E50001F4F882321F00E947836F801F6CFF70132
:103E600081917F01882319F00E947836F8CF8AE08B
:103E70000E94783683E080933C1281E08093620553
:103E800081149104A104B104D9F00E94004F860E60
:103E9000971EA81EB91E0E94004FDC01CB01881995
:103EA0009909AA09BB09B7FD04C0109262050C94D8
:103EB000062E809162058823C1F30E9414A7EBCFE0
:103EC00080916205882389F30E9414A7F9CF5F9837
:103ED0008A98809108018170809306011298479812
:103EE0000C94062E0E94115F0C94062E0E94E39DF6
:103EF0000C94062E209118063091190640911A064E
:103F000050911B066091FA117091FB118091FC1188
:103F10009091FD110E9495E26093DD117093DE1186
:103F20008093DF119093E0110E943BAB0C94062E1E
:103F30000E9440680C94062ED8018D918D01882333
:103F400021F10E947836F8CF8091E711882309F497
:103F500063C4F5EACF2EF2E0DF2EE12CF12C20E055
:103F60008091E71190E00E2C02C0959587950A94F8
:103F7000E2F780FD39C4FFEFEF1AFF0A32E0C30E0B
:103F8000D11C46E0E416F10459F78AE00E94783625
:103F90000C94062E20E030E0A901609193127091FC
:103FA000941280919512909196120E942CDE882393
:103FB00079F010932E1200E613E0F80181918F0141
:103FC000882319F00E947836F8CF8AE00E9478366C
:103FD0001092FE111092FF11109200121092011215
:103FE00010921612109217121092181210921912A3
:103FF00010921A1210921B1210921C1210921D1283
:104000001092FA111092FB111092FC111092FD11F6
:1040100010920E1210920F12109210121092111292
:1040200081E08093510210920612109207121092B2
:1040300008121092091210921E1210921F12109262
:104040002012109221121092261210922712109212
:10405000281210922912109212121092131210921A
:104060001412109215128093520210920A1210929A
:104070000B1210920C1210920D121092221210922A
:104080002312109224121092251210922A121092CA
:104090002B1210922C1210922D12109203121092C9
:1040A00002120C94062E0E94799E8CE40E94C33466
:1040B000882319F081E08093580282E50E94C3347E
:1040C000882319F081E08093570281E40E94C33471
:1040D000882311F40C94062E81E08093580280937B
:1040E00057020C94062E0E94799E8CE40E94C334E1
:1040F00081111092580282E50E94C33481111092FE
:10410000570281E40E94C334882311F40C94062ED4
:1041100010925802109257020C94062E0E94799E1B
:104120008CE40E94C334811110923E1282E50E94F9
:10413000C334811110923D1281E40E94C33488235C
:1041400011F40C94062E10923D1210923E120C9413
:10415000062E80915802811103C00FE613E04FC074
:10416000809157028823C9F304E813E0D8018D91A8
:104170008D01882319F00E947836F8CF8FE00E94D5
:104180006E4D892B19F003E115E00DC000E015E03C
:10419000F80181918F01882319F00E947836F8CFB9
:1041A00008E813E008C0D8018D918D018823C1F380
:1041B0000E947836F8CFF80181918F01882319F099
:1041C0000E947836F8CF82E00E946E4D892B19F05C
:1041D00003E115E00BC000E015E0D8018D918D01E1
:1041E000882309F4D2CE0E947836F7CFF801819166
:1041F0008F01882309F4C9CE0E947836F7CFD80101
:104200008D918D01882311F40C94062E0E9478362E
:10421000F6CF81E40E94C334882351F00E94903489
:1042200060931C1070931D1080931E1090931F10AC
:1042300082E40E94C334882351F00E94903460933A
:1042400018107093191080931A1090931B1083E428
:104250000E94C334882351F00E949034609314105C
:1042600070931510809316109093171084E40E9499
:10427000C334882351F00E949034609310107093DF
:104280001110809312109093131082E50E94C33492
:10429000882311F40C94062E0DE813E0F8018191A7
:1042A0008F01882319F00E947836F8CF60911C1096
:1042B00070911D1080911E1090911F1042E00E947D
:1042C000973900E913E0D8018D918D01882319F009
:1042D0000E947836F8CF6091181070911910809173
:1042E0001A1090911B1042E00E94973903E913E0E5
:1042F000F80181918F01882319F00E947836F8CF58
:1043000060911410709115108091161090911710F3
:1043100042E00E94973908E014E0D8018D918D01A8
:10432000882319F00E947836F8CF609110107091B0
:104330001110809112109091131042E00E94973951
:1043400006E813E0F80181918F01882309F41DCE5E
:104350000E947836F7CF86E993E00E94217185E5C7
:104360000E94C33481110E94DB6A84E40E94C3343A
:1043700081110E941A6987E50E94C334882331F0B5
:104380000E9490340E94DFE36093370283E50E942D
:10439000C334882331F00E9490340E94DFE360939D
:1043A00036028FE40E94C334882341F00E94903487
:1043B0000E94DAE370933502609334028EE40E9427
:1043C000C334882351F00E9490346093301070936E
:1043D000311080933210909333108DE40E94C334D7
:1043E000882351F00E949034609328107093291014
:1043F00080932A1090932B1089E50E94C334882360
:1044000051F00E9490346093241070932510809393
:1044100026109093271088E50E94C334882351F01A
:104420000E9490346093201070932110809322108A
:104430009093231082E40E94C334882351F00E9499
:10444000903460932C1070932D1080932E109093C5
:104450002F1080E50E94C334882331F00E949034ED
:104460000E94DFE360935D0281E40E94C3348823ED
:1044700059F00E9490340E94DAE370931002609326
:104480000F02CB010E94C36884E50E94C3348823D5
:1044900049F00E9490340E94DFE3862F60930F065C
:1044A0000E949C6C89E40E94C334882311F40C940C
:1044B000062E80910F060E949C6C80910F029091B5
:1044C00010020E94C3680C94062ED8018D918D01B4
:1044D000882309F45ACD0E947836F7CF0E9405CB85
:1044E0000C94062E8091F805813011F00C94062E64
:1044F00082E08093F8050E94004F6093F00570936E
:10450000F1058093F2059093F3050C94062E0E941A
:1045100063CB0C94062E83E50E940A35811103C0FB
:10452000EDE9F2E009C00E9460346E347105C1F714
:104530000E94D3CB0C94062E84918F010F5F1F4FE6
:10454000882321F00E947836F801F6CFE4E9F2E002
:1045500084918F010F5F1F4F882321F00E947836CE
:10456000F801F6CF6091FA057091FB0580E090E0CC
:104570004AE00E941237E7E8F2E084918F010F5F72
:104580001F4F882321F00E947836F801F6CF609102
:10459000FC057091FD0580E090E04AE00E94123732
:1045A000ECE7F2E084918F010F5F1F4F882321F029
:1045B0000E947836F801F6CF6091FA057091FB05FC
:1045C0008091FC059091FD05681B790B8091F805A1
:1045D000815021E030E0823010F020E030E0621BBA
:1045E000730B80E090E04AE00E9412378AE00E945C
:1045F0007836E4E7F2E084918F010F5F1F4F882344
:1046000021F00E947836F801F6CF8091FE05909156
:10461000FF05A0910006B09101068E8B9F8BA88F9D
:10462000B98FBE016F5F7F4FCE0146960E9416354F
:10463000E7E6F2E084918F010F5F1F4F811105C003
:10464000FE0131967F018F0104C00E947836F80187
:10465000F1CFD8018D918D01882319F00E94783611
:10466000F8CF8091020690910306A0910406B091C4
:1046700005068E8B9F8BA88FB98FBE016F5F7F4F12
:10468000CE0146960E941635E7E5F2E084918F014F
:104690000F5F1F4F882321F00E947836F801F6CF74
:1046A000F70181917F01882319F00E947836F8CFB5
:1046B0008AE00E947836EFE4F2E084918F010F5F88
:1046C0001F4F882321F00E947836F801F6CFEFE3E0
:1046D000F2E084918F010F5F1F4F882321F00E9429
:1046E0007836F801F6CF20E030E04AE754E46091F4
:1046F00006067091070680910806909109060E94AF
:1047000072E342E00E9497398DE60E9478368AE093
:104710000E9478360C94062E88E690E00E94783746
:1047200081110C94062E8091E71183FF02C00C9436
:10473000062E83E50E940A358823B1F00E9490344A
:104740000E94DAE3DC01CB0160913D110E94D63575
:104750000E94903420E030E04AEA52E40E942CDECD
:10476000181614F00E9463CB0E94E3CB0C94062E23
:104770008EE40E940A35882311F40C94062E0E94C0
:1047800060346093991270939A1280939B12909365
:104790009C120C94062E83E50E94C334882359F0A2
:1047A00083E50E940A35882319F00E94703401C005
:1047B00080E08093E711EDE1F6E284918F010F5FD5
:1047C0001F4F882321F00E947836F801F6CFE5EBE1
:1047D000F2E084918F010F5F1F4F882309F4B4CB5F
:1047E0000E947836F801F5CFBB24B394B20E222391
:1047F00019F08CE20E947836F60125913491F90186
:10480000849189010F5F1F4F882321F00E94783621
:104810009801F5CF2B2DAFCBE1EBF2E084918F0126
:104820000F5F1F4F882309F4B0CB0E947836F80140
:10483000F5CF83E50E940A35882369F00E94703421
:10484000809356028D3310F40C94062E8CE38093E3
:1048500056020C94062EEDE1F6E284918F010F5F73
:104860001F4F882321F00E947836F801F6CF40913F
:10487000560250E060E070E08CEB92E00E948A4BC0
:104880008AE00E9478360C94062E89E690E00E9419
:104890007837811111C0E3ECF2E084918F010F5F52
:1048A0001F4F882321F00E947836F801F6CF0E942E
:1048B000E38B8AE00E94783610923C120C947B3095
:1048C00083E50E940A35882311F40C94062E0E9479
:1048D0007034182F8D3308F01CE310934B120E9494
:1048E000004F6B017C01212F30E0A8EEB3E00E9465
:1048F00086E2C60ED71EE81EF91EC0924712D0925D
:104900004812E0924912F0924A120C94062E8DE65B
:1049100090E00E9478378111C8C18091E71183FD32
:10492000C4C183E50E940A3567968FAF67978111EE
:1049300005C082E50E940A358823C9F00E949034A0
:104940000E94DAE3DC01CB0160913D110E94D63573
:104950000E94903420E030E04AEA52E40E942CDECB
:10496000181614F40C942B2E0E9463CB81E0E7966A
:104970008FAFE7970E94E3CBE7968FADE797882349
:1049800009F493C181E08093000226961CAE1DAE0F
:104990001EAE1FAE2697AA961CAE1DAE1EAE1FAE53
:1049A000AA971EAE6B961FAE6B975CE36F965FAFD8
:1049B0006F978CE1AB968FAFAB9796E4A3969FAFC2
:1049C000A397412C512C70E8C72EEFEBDE2E812CE3
:1049D000912C5401E0903D11F12CF701EE0FFF1FD7
:1049E000E75CFE4E60817181072E000C880B990BED
:1049F0000E9432DE162F072F782E692E262F372F92
:104A0000482F592FB201C6010E942CDE8823F9F0ED
:104A1000F701EE0FFF1FEE0FFF1FEF5CFE4E208130
:104A2000318142815381612F702F872D962D0E94F5
:104A30002CDE881F8827881F8EAF6796AFAD6797DB
:104A4000AA2349F0882339F0809100022EC1142D49
:104A5000052D7C2C6D2C0E94004F6B017C01DC012C
:104A6000CB01AA962CAD3DAD4EAD5FADAA97821B92
:104A7000930BA40BB50BB7FD3DC0D701C601885100
:104A80009C4FAF4FBF4FAA968CAF9DAFAEAFBFAF9D
:104A9000AA970E94E38BE6ECF2E084912F019FEF4E
:104AA000491A590A882321F00E947836F201F5CF7D
:104AB00081149104A104B104B9F0D501C401885452
:104AC000944FAF4FBF4FBC01CD016C197D098E09CA
:104AD0009F0928EE33E040E050E00E9438E2CA012E
:104AE000B9010E94B43703C08FE30E9478368AE090
:104AF0000E9478360E9414A70E94004F60933F12D4
:104B0000709340128093411290934212E0913D11B4
:104B1000A4E0EA9FF0011124EF5CFE4EB0812B96D9
:104B2000BFAF2B97218127962FAF279732812F96E2
:104B30003FAF2F97438163964FAF63972B2F2796F5
:104B40003FAD27972F964FAD2F9763965FAD639735
:104B5000612F702F872D962D0E9495E21B012C014D
:104B600020E030E0A9010E94BCE487FF04C057FAAE
:104B7000509457F8509481149104A104B10459F44D
:104B800020E030E040E85FE3C201B1010E942CDE8A
:104B900087FF0DC00AC020E030E040E450E4C201CD
:104BA000B1010E94BCE4181614F4460157015EAD31
:104BB000552309F45EC026968CAD9DADAEADBFAD5C
:104BC0002697892B8A2B8B2B71F0D701C60126964D
:104BD0002CAD3DAD4EAD5FAD2697821B930BA40B64
:104BE000B50BB7FD46C02B962FAD2B9727963FAD43
:104BF00027972F964FAD2F9763965FAD63976B9670
:104C00006FAD6B976F967FAD6F97AB968FADAB9790
:104C1000A3969FADA3970E9495E220E030E040EC80
:104C20005FE30E942CDE87FD0FCFD701C601805ABB
:104C30009541AF4FBF4F26968CAF9DAFAEAFBFAF84
:104C400026972B969FAD2B976B969FAF6B972796CA
:104C5000AFAD27976F96AFAF6F972F96BFAD2F97DA
:104C6000AB96BFAFAB976396EFAD6397A396EFAFED
:104C7000A39780910002882309F4E6CE8114910461
:104C8000A104B10429F4412E502EC72CD62CA2CE5B
:104C9000F8EBCF1AFBE0DF0AE108F108C818D908E1
:104CA000EA08FB08F7FED0CEEECF0DEB13E0D801FB
:104CB0008D918D01882319F00E947836F8CF84E514
:104CC0000E94C334811109C083E50E94C334882344
:104CD00009F49CC706ED13E01CC004ED13E0F801D5
:104CE00081918F01882319F00E947836F8CF0E94B5
:104CF0006034072E000C880B990B0E94B43706E82D
:104D000013E0D8018D918D018823F1F20E9478364D
:104D1000F8CFF80181918F01882319F00E9478362D
:104D2000F8CF0E946034072E000C880B990B0E946C
:104D3000B4378AE00E94783669C78091E71183FD15
:104D400065C783E50E940A35882309F45FC70E947E
:104D500090340E94DAE36738710514F067E870E078
:104D60007093301160932F110E94D28E4FC78091A3
:104D7000E71183FD8BC083E50E940A3567968FAFEC
:104D80006797811106C082E50E940A35882309F4DD
:104D90007DC00E9490340E94DAE36738710514F0F8
:104DA0000C94532F7093301160932F110E94D28E68
:104DB0000E94903420E030E040EA50E40E94BCE4DD
:104DC000181614F40E9405CB81E0809300028091B4
:104DD000E51180933D1126961CAE1DAE1EAE1FAE92
:104DE0002697AA961CAE1DAE1EAE1FAEAA971EAE8B
:104DF0006B961FAE6B97FCE36F96FFAF6F972CE13E
:104E0000AB962FAFAB9736E4A3963FAFA397C12CD9
:104E1000D12C30E8E32E4FEBF42E812C912C540151
:104E200060912F1170913011072E000C880B990B97
:104E30000E9432DE162F072F782E692E262F372F4D
:104E4000482F592FB601C7010E942CDE882309F490
:104E500006C720912B1130912C1140912D115091AA
:104E60002E11612F702F872D962D0E942CDE881F0A
:104E70008827881F8EAF67964FAD6797442309F444
:104E8000F2C6882309F4EFC68091000208ED13E012
:104E9000D8018D918D01882319F00E947836F8CFC2
:104EA00083E50E94C334882309F4B0C606ED13E0FD
:104EB000F80181918F01882319F00E947836F8CF8C
:104EC0000E946034072E000C880B990B0E94B437A7
:104ED0008AE00E9478369AC680E50E940A358111E0
:104EE00006C083E50E940A35882359F005C00E9458
:104EF000703481118BC6F5CF0E9460346F3F71050D
:104F000010F06FEF70E07093F9106093F8107EC6A8
:104F100080E50E940A35811105C01092F9101092A7
:104F2000F81074C60E946034672B09F06FC6F5CF85
:104F30000E941D8F0E94E39E1092F9101092F810AB
:104F400068EE73E080E090E00E9492525FC610929B
:104F500066055CC683E50E940A35882399F00E94A5
:104F6000903420E030E04AE754E40E9491DE0E9451
:104F7000DFE36093590270935A0280935B0290932F
:104F80005C0244C688E50E94C334811190C789E55C
:104F90000E94C33481118BC78AE50E94C3348111FA
:104FA00086C785E40E94C334811181C70E94E39EB5
:104FB0002DC683E50E94C334882309F427C60E94C6
:104FC000903420E030E04AE754E40E9491DE0E94F1
:104FD000DFE36093431270934412809345129093E1
:104FE000461214C6D6018D916D010E94C3348823E8
:104FF00009F46DC0133009F063C00E9490344B0176
:105000005C0120E030E040EA51E40E942CDE87FFA2
:105010004EC0A501940160915C0F70915D0F80916D
:105020005E0F90915F0F0E9472E32B013C019B0188
:10503000AC016091CC107091CD108091CE10909108
:10504000CF100E9491DE6093CC107093CD108093AE
:10505000CE109093CF10A30192016091E81070914F
:10506000E9108091EA109091EB100E9491DE60931C
:10507000E8107093E9108093EA109093EB10609120
:10508000F5137091F6138091F7139091F8130E9425
:1050900030DEA30192010E9491DE0E94DFE3609363
:1050A000F5137093F6138093F7139093F81380928F
:1050B0005C0F90925D0FA0925E0FB0925F0F07C0E1
:1050C0000E949034F70160837183828393831F5F12
:1050D000F4E0EF0EF11C143009F084CF0E9462CD91
:1050E00095C50E94799E83E50E940A35882311F4B4
:1050F0000C94A41C0E9460346230710511F00C9471
:10510000A41C0E94E2CD8BE50E94783660910D0AC6
:1051100070910E0A80910F0A9091100A42E00E944D
:1051200097394091110A5091120A6091130A7091B7
:10513000140A81ED92E00E94A74B4091150A50910C
:10514000160A6091170A7091180A8EEC92E00E947C
:10515000A74B8DE50E9478368AE00E94783656C5C6
:10516000E3EBF3E084918F010F5F1F4F882321F061
:105170000E947836F801F6CF60E083EA93E00E945F
:1051800088C961E08CE993E00E9488C961E081E907
:1051900093E00E9488C961E081E893E00E9488C999
:1051A00060E088E793E00E9488C961E08EE693E0C2
:1051B0000E9488C961E084E693E00E9488C961E0AA
:1051C0008CE593E00E9488C961E08EE493E00E9440
:1051D00088C960E080E493E00E9488C960E081E3D0
:1051E00093E00E9488C960E083E293E00E9488C94E
:1051F00060E08DE093E00E9488C961E08CEF92E06E
:105200000E9488C960E087EE92E00E9488C961E050
:1052100084ED92E00E9488C9F9C40E9436C9F6C4A0
:105220000E94DAA6F3C41092D4111092D311EEC4E6
:105230000E94D0C8EBC4D8018D918D010E94C33467
:10524000882349F00E9490340E94DFE3F7016083D5
:10525000718382839383F4E0EF0EF11CD012EBCFC5
:105260000E9413CCD3C4FCEDEF2EF0E1FF2E0CE92D
:1052700012E0A4E0DA2ED00ED8018D918D010E94AB
:10528000C334882339F00E949034F701608371831E
:1052900082839383F4E0EF0EF11CD012EDCFB6C4FD
:1052A00083E50E940A358823A1F00E949034609320
:1052B000D4107093D5108093D6109093D71060932C
:1052C000D0107093D1108093D2109093D31010E02F
:1052D00001C011E080E50E940A35882359F00E9440
:1052E00090346093D4107093D5108093D61090931F
:1052F000D71010E082E50E940A35882359F00E94F9
:1053000090346093D8107093D9108093DA109093F2
:10531000DB1010E084E50E940A35882359F00E94D2
:1053200090346093D0107093D1108093D2109093EA
:10533000D3106CC4112309F469C44091D410509166
:10534000D5106091D6107091D71081E894E00E943A
:10535000A74B4091D8105091D9106091DA107091FC
:10536000DB108EE794E00E94A74B4091D010509143
:10537000D1106091D2107091D3108BE794E00E940D
:10538000A74B8AE00E94783641C481E50E94C3346D
:10539000882351F00E9450346093EC107093ED100C
:1053A0008093EE109093EF1083E50E94C33488231E
:1053B00051F00E9490346093F4107093F510809334
:1053C000F6109093F71084E50E94C334882351F0BF
:1053D0000E9490346093F0107093F1108093F2105B
:1053E0009093F31088E50E94C334882351F00E9403
:1053F00090346093C0107093C1108093C21090934A
:10540000C31089E50E94C334882351F00E94903470
:105410006093C4107093C5108093C6109093C7100A
:105420008AE50E94C3348823F1F00E94903460938F
:10543000C8107093C9108093CA109093CB102DECB4
:105440003CEC4CEC5DE30E942CDE181664F0E1E9C4
:10545000F4E084918F010F5F1F4F882321F00E9499
:105460007836F801F6CF85E40E94C334882309F426
:10547000CDC30E9490346093CC107093CD10809374
:10548000CE109093CF10C2C30E9497CABFC38AEDBB
:1054900090E00E9478378111B9C380913D11882333
:1054A00009F4B4C331C50E94E6C7B0C30E940BC75C
:1054B000ADC30E942DC6AAC30E94675DA7C30E9408
:1054C000E556A4C30E94BD5DA1C3E8ECF5E284915A
:1054D0008F010F5F1F4F882321F00E947836F8015B
:1054E000F6CFE3EDF4E084918F010F5F1F4F882327
:1054F00009F48CC30E947836F801F5CF81E00E9450
:10550000AD3C0E94CCC982C380E00E94AD3C0E94A9
:10551000CCC97CC383E50E94C334882349F00E9430
:105520008134082F811106C080E00E94503F02C0E4
:105530000091921280917A1290917B12A0917C122C
:10554000B0917D1289839A83AB83BC8380917E1254
:1055500090917F12A0918012B09181128D839E83D1
:10556000AF83B8878091821290918312A0918412A8
:10557000B091851289879A87AB87BC87809140104C
:1055800090914110892BB1F183E40E94C3348111C1
:105590001CC530C0930127964FAD27972F965FAD5E
:1055A0002F976A2D7F2D23968FAD23972B969FAD36
:1055B0002B970E9496E220E030E040E05FE30E94FB
:1055C00091DEA20191010E9496E22B013C012DEB9C
:1055D00037E346E855EB0E94BCE487FD59C52DEB47
:1055E00037E346E855E3C301B2010E942CDE1816EA
:1055F0000CF44EC586E50E94C334882351F0809197
:10560000401090914110892B21F00E94B83A0E94DD
:10561000A43A8AE50E94C334882321F00E94903482
:105620000E94D0BF802F0E94503F011103C0EDE1C6
:10563000F6E21CC0809192128111F9CFE8ECF5E2FC
:1056400084918F010F5F1F4F882321F00E947836CD
:10565000F801F6CFE2E0F5E084918F010F5F1F4F74
:10566000882329F30E947836F801F6CF84918F01C0
:105670000F5F1F4F882321F00E947836F801F6CF84
:1056800080919212811103C06AE273E002C066E267
:1056900073E084EF94E00E94DDCA8AE00E947836CD
:1056A000EDE1F6E284918F010F5F1F4F882321F017
:1056B0000E947836F801F6CFE7EEF4E084918F018E
:1056C0000F5F1F4F882321F00E947836F801F6CF34
:1056D000C0909312D0909412E0909512F090961290
:1056E00020E030E0A901C701B6010E94BCE4181611
:1056F0004CF442E0C701B6010E9497398AE00E944B
:1057000078360CC0E2EEF4E084918F010F5F1F4FFA
:10571000882321F00E947836F801F6CF4CE050E063
:105720006AE772E1CE0101960E94D4E5892B09F463
:105730006DC20E94CCC96AC289E40E940A358823DE
:1057400021F00E946034162F01C01FEF8AE40E94EE
:105750000A35882321F00E946034062F01C00FEF24
:105760008AE50E94C334F82E811105C081E50E94AC
:10577000C334D82E01C0D12C17FD02C007FF03C0CF
:10578000E8ECF5E205C0F1101AC0D11018C0F8CF4E
:1057900084918F010F5F1F4F882321F00E9478367C
:1057A000F801F6CFE0E4F5E084918F010F5F1F4F21
:1057B000882309F42BC20E947836F801F5CF153002
:1057C00018F0E8ECF5E206C00530D8F716C00E94E4
:1057D0007836F80184918F010F5F1F4F8111F7CF49
:1057E000E1E2F5E084918F010F5F1F4F882309F4F8
:1057F0000DC20E947836F801F5CFE12E110FFF0897
:10580000002E000C110B0E949034DD2099F025E051
:105810002E9DF0012F9DF00D1124E00FF11FEE0FD2
:10582000FF1FEE0FFF1FEC5BFF4E20813181428195
:10583000538103C020E030E0A901A5E0AE9DF00156
:10584000AF9DF00D11240E0F1F1F000F111F000F31
:10585000111F0C5B1F4E0E9496E2D8016D937D9341
:105860008D939C931397EDD5D1C10E9466B7CEC19D
:105870000E9450D0CBC183E50E94C334882321F01D
:105880000E94813491E089270E947971BFC10E94F2
:10589000D455BCC18AE50E940A35882309F438C072
:1058A0000E9490346B017C0120E030E040EA51EC32
:1058B0000E94BCE487FD13C020E030E040EA51E4E0
:1058C000C701B6010E942CDE18164CF0C092C3111D
:1058D000D092C411E092C511F092C61197C1E8ECC4
:1058E000F5E284918F010F5F1F4F81110DC0E2E738
:1058F000F5E084918F010F5F1F4F882309F486C163
:105900000E947836F801F5CF0E947836F801E9CF89
:10591000EDE1F6E284918F010F5F1F4F882321F0A4
:105920000E947836F801F6CFE3E6F5E084918F0126
:105930000F5F1F4F882321F00E947836F801F6CFC1
:105940004091C3115091C4116091C5117091C6115D
:1059500080E695E00E94A74B8AE00E94783656C107
:105960000E946E5553C10E94665550C10E940C554D
:105970004DC10E9474984AC18091E51180936805D9
:105980000091460610914706F02E8091E71185FFA1
:1059900014C0B801772789ED95E00E94C44B89E2D5
:1059A0000E9478368AE00E9478364AE752E16AEB34
:1059B00075E085EC95E00E948E3C8091E511F8162B
:1059C00059F083E50E940A35882311F09AD702C066
:1059D00083E5D9D7F82E02C0FF24F39486E40E9411
:1059E0000A35882311F09CD703C060E070E0CB013A
:1059F00020E030E040E752E40E9472E3AB01BC01DA
:105A00002F2D802F0E9401538091E71185FF14C034
:105A10004AE752E16CE975E086EA95E00E948E3C27
:105A2000EFE8F5E084918F010F5F1F4F882321F08D
:105A30000E947836F801F6CF0091460611E0809179
:105A40006805081301C010E0C0908212D090831244
:105A5000E0908412F090851280910F06882309F45B
:105A60006DC0013009F06AC0112309F467C00E94BB
:105A7000799E20E030E040E450E4C701B6010E9486
:105A800096E24B015C016093DD117093DE1180930F
:105A9000DF119093E0110E943BAB0E94799E0E941F
:105AA0001A690E94004F4090340250903502052C34
:105AB000000C66087708DC01CB0184199509A6095A
:105AC000B709B7FF03C00E9414A7EBCF409038106E
:105AD0005090391060903A1070903B10A3019201E1
