:100000000C94EE120C941F130C941F130C941F13DA
:100010000C941F130C941F130C941F130C941F1398
:100020000C941F130C941F130C941F130C941F1388
:100030000C941F130C941F130C941F130C941F1378
:100040000C941F130C94A7930C941F130C941F1360
:100050000C941F130C941F130C94BB440C94264057
:100060000C941F130C94113D0C941F130C941F132C
:100070000C941F130C941F130C941F130C941F1338
:100080000C9452950C941F130C941F130C941F1373
:100090000C941F130C941F130C941F130C941F1318
:1000A0000C941F130C941F130C9425950C941F1380
:1000B0000C941F130C941F130C941F130C94F8949E
:1000C0000C941F130C941F130C941F130C941F13E8
:1000D0000C941F130C941F130C941F130C941F13D8
:1000E0000C941F13413D473D583D633D6B3D803DA2
:1000F0006F3D803D733D773D803D7D3DCE3DD13DA3
:10010000C03DC43DCA3D083ED53DD93DDF3DE33D40
:10011000E73DED3DF13DF53D083EFB3DFF3D033E36
:100120000C3F113F163F203F2A3FA33F343F3C3F47
:10013000443F4E3F583F623F713F7B3FA33F853F67
:100140008F3F993F7B434344484473447F445B441F
:1001500060446B43084AD73B3BCE016E84BCBFFD75
:10016000C12F3D6C74319ABD56833DDA3D00C77F87
:1001700011BED9E4BB4C3E916BAAAABE0000008020
:100180003F05A84CCDB2D44EB93836A9020C50B9AF
:10019000918688083CA6AAAA2ABE000000803F00DB
:1001A0004E414E494E495459494E46CDCCCC3D0A5C
:1001B000D7233C17B7D13877CC2B329595E6241F3F
:1001C000B14F0A000020410000C84200401C4620F8
:1001D000BCBE4CCA1B0E5AAEC59D744C4556454C10
:1001E000494E4700434F4D4D554E49434154494FA9
:1001F0004E0044525952554E004552524F525300F0
:10020000494E464F004543484F00205A3A200020AF
:10021000593A200042656420583A20004D657368C1
:1002200020706F696E742063616E6E6F74206265FA
:10023000207265736F6C7665640A0005020002F92E
:1002400001F201E401DB016F666600444542554757
:100250003A004D3131332053006F6B0020573A0084
:1002600020573A002F2F20002054002052004163D5
:1002700063656C65726174696F6E3A205000574116
:10028000524E494E4721204C6F77205A204A6572C2
:100290006B206D6179206C65616420746F20756ED0
:1002A00077616E746564207061757365732E0A00E2
:1002B000546F6F206661722066726F6D2072656682
:1002C0006572656E636520706F696E740A00205AEE
:1002D00000205900580020204D61783A2000205A13
:1002E00000205900580020204D696E3A20004F6EC2
:1002F00020004F666600536F667420656E647374E9
:100300006F70733A2000486F74656E64206F666684
:10031000736574733A0020466C6F773A20000001D1
:1003200036372603FFFFFF353C3D380EFFFFFF3118
:100330002E303E12FFFFFFFF28FF0C0809FFFFFFD2
:100340001A1C18FFFF2A24221EFFFF2C08440AFF54
:100350004307FF45206F7574206F662072616E67DA
:10036000650A00536572766F20003A2000205365BD
:1003700072766F2000496E76616C696420657874CE
:1003800072756465720A0020643A0020693A0020A0
:10039000703A0020653A0043290A0061626C656486
:1003A00020286D696E2074656D702000436F6C6449
:1003B0002065787472756465732061726520004BE6
:1003C00064200023646566696E6520444546415596
:1003D0004C545F004B69200023646566696E65209C
:1003E00044454641554C545F004B702000236465E2
:1003F00066696E652044454641554C545F0050493E
:1004000044204175746F74756E652066696E6973FA
:10041000686564212050757420746865206C617370
:1004200074204B702C204B6920616E64204B64203B
:10043000636F6E7374616E74732066726F6D206289
:10044000656C6F7720696E746F20436F6E666967A5
:1004500075726174696F6E2E680A005049442041BC
:1004600075746F74756E65206661696C65642120B2
:1004700074696D656F75740A00424544205448459F
:10048000524D414C2052554E415741590045312063
:10049000544845524D414C2052554E415741590008
:1004A000453220544845524D414C2052554E4157FB
:1004B0004159004265642068656174696E67206611
:1004C00061696C65640045312048656174696E67D7
:1004D000206661696C656400453220486561746915
:1004E0006E67206661696C656400504944204175FF
:1004F000746F74756E65206661696C656421205443
:10050000656D706572617475726520746F6F2068B7
:100510006967680A00204B643A2000204B693A2042
:1005200000204B703A20000A20436C6173736963AA
:1005300020504944200A002054753A2000204B7571
:100540003A2000206D61783A2000206D696E3A20D3
:100550000020643A200020626961733A200050490B
:1005600044204175746F74756E65206661696C65B1
:1005700064212054656D70657261747572652074B4
:100580006F6F20686967680A00504944204175749C
:100590006F74756E652073746172740A00504944FB
:1005A000204175746F74756E65206661696C656451
:1005B0002120426164206578747275646572206ED2
:1005C000756D6265720A0020643A0020693A002065
:1005D000703A004E6F2063617365206C69676874C0
:1005E0000A00454550524F4D204F4B0A003C3C3CC1
:1005F0002067636F64655F540A00203A20414654C7
:1006000045520A00202063757272656E745F706FC8
:10061000736974696F6E3D00203A204245464F521F
:10062000450A00202063757272656E745F706F7387
:100630006974696F6E3D003E3E3E2067636F64657E
:100640005F5428002C20002C2000203A2073796E63
:10065000635F706C616E5F706F736974696F6E0A4F
:1006600000202063757272656E745F706F736974B9
:10067000696F6E3D00656E7175657565696E6720A1
:1006800022004C696E65204E756D6265722069733B
:10069000206E6F74204C617374204C696E65204E1F
:1006A000756D6265722B312C204C617374204C691E
:1006B0006E653A20005072696E7465722073746FB3
:1006C000707065642064756520746F206572726F48
:1006D00072732E2046697820746865206572726F87
:1006E0007220616E6420757365204D39393920742C
:1006F0006F20726573746172742E202854656D705A
:1007000065726174757265206973207265736574B2
:100710002E2053657420697420616674657220729E
:10072000657374617274696E67290A004E6F2043A5
:100730006865636B73756D2077697468206C696E8A
:1007400065206E756D6265722C204C617374204C4F
:10075000696E653A2000636865636B73756D206D23
:1007600069736D617463682C204C617374204C69EB
:100770006E653A20004D3131300020496E76616C53
:1007800069642065787472756465722000000000E9
:1007900000000020C1000040C000005243008089DA
:1007A00043000052430A20736F66745F656E647382
:1007B000746F705F6D6178203D20000A20736F6652
:1007C000745F656E6473746F705F6D696E203D2039
:1007D000000A20706F736974696F6E5F7368696671
:1007E00074203D200020617869733A0A20686F6D9B
:1007F000655F6F6666736574203D2000466F7220EA
:10080000003C3C3C20646F5F626C6F636B696E6799
:100810005F6D6F76655F746F0A003E3E3E20646FC9
:100820005F626C6F636B696E675F6D6F76655F7437
:100830006F00203A2073657475705F666F725F6534
:100840006E6473746F705F6F725F70726F62655FFA
:100850006D6F76650A00202063757272656E745F35
:10086000706F736974696F6E3D00203A20636C6528
:10087000616E5F75705F61667465725F656E6473EB
:10088000746F705F6F725F70726F62655F6D6F76AD
:10089000650A00202063757272656E745F706F73F5
:1008A0006974696F6E3D00646F5F70726F62655F3F
:1008B000726169736528006465706C6F793A200015
:1008C000203A207365745F70726F62655F64657053
:1008D0006C6F7965640A00202063757272656E74AE
:1008E0005F706F736974696F6E3D00203A203C3C05
:1008F0003C20646F5F70726F62655F6D6F76650A32
:1009000000202063757272656E745F706F73697416
:10091000696F6E3D00203A203E3E3E20646F5F705E
:10092000726F62655F6D6F76650A00202063757275
:1009300072656E745F706F736974696F6E3D00727B
:10094000657365745F6265645F6C6576656C0A00EB
:100950002028646F6E65290A004578747261706F93
:100960006C617465205B0042696C696E6561722020
:100970004C6576656C696E6720477269643A0A0057
:100980005375626469766964656420776974682068
:100990004341544D554C4C20524F4D204C6576658B
:1009A0006C696E6720477269643A0A00202D2049FD
:1009B0006E76616C69642065787472756465722006
:1009C0006E756D62657220210A002020506C616E88
:1009D0006E657242756666657242797465733A2017
:1009E000002046726565204D656D6F72793A200072
:1009F000436F6D70696C65643A204D6179203232C5
:100A000020323032300A00207C20417574686F72C9
:100A10003A20286E6F6E652C2064656661756C7473
:100A200020636F6E666967290A00323031382D30D5
:100A3000382D303100204C6173742055706461741E
:100A400065643A2000312E312E392E320A004D6174
:100A5000726C696E0020536F667477617265205204
:100A6000657365740A00205761746368646F67205A
:100A700052657365740A002042726F776E206F753D
:100A8000742052657365740A002045787465726E2F
:100A9000616C2052657365740A00506F77657255FA
:100AA000700A0073746172740A00205A3A00205967
:100AB0003A0020583A00656E6473746F7073206852
:100AC00069743A200070012C0190012701B00122C5
:100AD00001C0011D01F00118011002130130020EC6
:100AE000016002090190020401C002FF000003FA44
:100AF000004003F5008003F000D003EB002004E683
:100B0000007004E100E004DC004005D700C005D21D
:100B1000004006CD00D006C8008007C3003008BEE4
:100B200000F008B900C009B400B00AAF00B00BAAC9
:100B300000D00CA500000EA000500F9B00C0109626
:100B4000005012910000148C00C0158700B017826D
:100B500000B0197D00D01B7800001E730040206E8D
:100B60000090226900F024640040275F0090295A19
:100B700000E02B5500102E500020304B0010324664
:100B800000E033410090353C0010373700703832B8
:100B900000A0392D00B03A2800A03B2300603C1E85
:100BA00000103D1900903D1400103E0F00703E0AE9
:100BB00000C03E0500003F0000403FFBFF803FF6C5
:100BC000FFC03FF1FF202F002040002042403A00AC
:100BD00020403A0000002100240027002A002D00B8
:100BE0003000330001010000040107010A01000088
:100BF0002200250028002B002E00310034000201C5
:100C00000000050108010B01000020002300260060
:100C100029002C002F003200000100000301060112
:100C20000901050505050705080808080202020272
:100C30000A0A080804040404010101010101010178
:100C40000303030303030303040707070C0C0C0C43
:100C50000C0C0C0C0202020206060606060606062C
:100C60000B0B0B0B0B0B0B0B0102102020080810B9
:100C7000204010204080020102010804020101020C
:100C800004081020408080402010080402018004E5
:100C90000201804020100804020108040201010240
:100CA0000408102040800102040810204080000049
:100CB0000A0B02090C0D0E080703040100000000D6
:100CC0000000000000000000000000000000000024
:100CD00000000000000000000000121110000000E1
:100CE0000000000000000000000000000000000004
:100CF0000000000024F4D43050C38E20C2A240175C
:100D0000828B7011127A910D816CD90AA861E10869
:100D1000C7586607615143061E4B5D05C145A704D0
:100D20001A411104093D9803713931034036DB0241
:100D300065339102D4305402802E1D02632CEE01E3
:100D4000752AC501B028A001102781018F256401F3
:100D50002B244B01E0223401AC211F018D200D0119
:100D6000801FFC00841EED00971DDF00B81CD20020
:100D7000E61BC600201BBC00641AB200B219A80012
:100D80000A19A0006A189900D117910040178B002A
:100D9000B516840031167E00B31579003A1573003C
:100DA000C7146F0058146A00EE13660088136300BE
:100DB00025135E00C7125B006C1257001512540019
:100DC000C111510070114F0021114B00D610490084
:100DD0008D1047004610440002104200C00F400032
:100DE000800F3E00420F3C00060F3B00CB0E380048
:100DF000930E37005C0E3500270E3400F30D3200E1
:100E0000C10D3100900D3000600D2E00320D2D000F
:100E1000050D2C00D90C2B00AE0C2900850C2900E7
:100E20005C0C2700350C27000E0C2600E80B240074
:100E3000C40B2400A00B23007D0B23005A0B2100C0
:100E4000390B2100180B2000F80A1F00D90A1E00D8
:100E5000BB0A1E009D0A1D00800A1D00630A1C00BB
:100E6000470A1B002C0A1B00110A1A00F7091A0076
:100E7000DD091900C4091900AB091900920917000E
:100E80007B091800630917004C0916003609160083
:100E9000200916000A091500F5081500E0081400DD
:100EA000CC081400B8081400A4081400900813001B
:100EB0007D0812006B081300580812004608120043
:100EC0003408110023081100120811000108110054
:100ED000F0071000E0071000D0071000C007100056
:100EE000B0070F00A107100091070E0083070F0045
:100EF00074070F0065070E0057070E0049070E0024
:100F00003B070D002E070E0020070D0013070D00F4
:100F100006070D00F9060C00ED060D00E0060C00BA
:100F2000D4060C00C8060C00BC060C00B0060C0071
:100F3000A4060B0099060C008D060B0082060B0020
:100F400077060B006C060B0061060A0057060B00C3
:100F50004C060A0042060A0038060A002E060A005D
:100F600024060A001A060A001006090007060A00ED
:100F7000FD050900F4050900EB050900E20509007B
:100F8000D9050900D0050900C7050900BE050900FB
:100F9000B5050800AD050800A50509009C05080079
:100FA000940508008C050800840508007C050800ED
:100FB000740508006C050700650508005D0507005D
:100FC000560508004E0507004705070040050800C4
:100FD00038050700310507002A050700230507002B
:100FE0001C050600160507000F050700080506008A
:100FF00002050700FB040600F5040700EE040600E6
:10100000E8040600E2040700DB040600D50406003D
:10101000CF040600C9040600C3040600BD04060090
:10102000B7040600B1040500AC040600A6040600DF
:10103000A00405009B04060095040500900406002A
:101040008A04050085040500800406007A04050072
:1010500075040500700405006B04050066040500B6
:10106000610405005C0405005704050052040500F6
:101070004D04050048040500430405003E04040037
:101080003A04050035040500300404002C04050072
:1010900027040400230405001E0404001A040400AD
:1010A00016040500110404000D04040009040500E1
:1010B0000404040000040400FC030400F80304001A
:1010C000F4030400F0030400EC030400E80304004C
:1010D000E4030400E0030400DC030400D80304007C
:1010E000D4030400D0030400CC030400C8030300AD
:1010F000C503030024F404D9201BC40C5C0E98041F
:10110000C4095F0265077101F405F900FB04B3002F
:1011100048048700C10369005803550003034500D4
:10112000BE023A008402310053022A00290225003F
:1011300004022000E4011C00C8011900AF011700DF
:101140009801140084011300710110006101100066
:1011500051010E0043010D0036010B002B010B0065
:1011600020010B00150109000C0109000301080012
:10117000FB000800F3000800EB000700E400060095
:10118000DE000600D8000600D2000600CC000500F4
:10119000C7000500C2000500BD000400B90004003E
:1011A000B5000400B1000400AD000400A900040073
:1011B000A5000300A20003009F0004009B000300A1
:1011C00098000300950002009300030090000300C4
:1011D0008D0002008B0003008800020086000200E0
:1011E00084000300810002007F0002007D000200F5
:1011F0007B00020079000200770001007600020007
:101200007400020072000100710002006F00020011
:101210006D0001006C0002006A000100690002001C
:101220006700010066000100650001006400020023
:101230006200010061000100600001005F00020027
:101240005D0001005C0001005B0001005A0001002C
:10125000590001005800010057000100560001002C
:10126000550001005400010053000000530001002C
:101270005200010051000100500001004F00010028
:101280004E0000004E0001004D0001004C00010026
:101290004B0000004B0001004A0001004900010022
:1012A000480000004800010047000100460000001F
:1012B0004600010045000000450001004400010017
:1012C0004300000043000100420000004200010012
:1012D0004100000041000100400001003F0000000B
:1012E0003F0001003E0000003E0001003D00000004
:1012F0003D0001003C0000003C0000003C000100FB
:101300003B0000003B0001003A0000003A000100F1
:1013100039000000390001003800000038000000EA
:1013200038000100370000003700010036000000DF
:1013300036000000360001003500000035000000D6
:1013400035000100340000003400000034000100CA
:1013500033000000330000003300010032000000C1
:1013600032000000320001003100000031000000B6
:1013700031000100300000003000000030000100AA
:101380002F0000002F0000002F0000002F000100A0
:101390002E0000002E0000002E0001002D00000095
:1013A0002D0000002D0000002D0001002C00000089
:1013B0002C0000002C0000002C0001002B0000007D
:1013C0002B0000002B0000002B0001002A00000071
:1013D0002A0000002A0000002A0001002900000065
:1013E0002900000029000000290000002900010058
:1013F000280000002800000028000000280000004D
:10140000280001002700000027000000270000003E
:101410002700000027000100260000002600000031
:101420002600000026000000260001002500000024
:101430002500000025000000250000002500000018
:10144000250001002400000024000000240000000A
:1014500024000000240001002300000023000000FD
:1014600023000000230000002300000023000000F0
:1014700023000100220000002200000022000000E2
:1014800022000000220000002200010021000000D4
:1014900021000000210000002100000021000000C8
:1014A00021000000210001002000000020000000B9
:1014B00020000000200000002000000020000000AC
:1014C00020000000200001001F0000001F0000009D
:1014D0001F0000001F0000001F0000001F00000090
:1014E0001F0001001E0000001E0000001E00000082
:1014F0001E000000043700001E290000511B0000E0
:101500005810000010090000CC0400007802000010
:10151000410100006265640A002C207379737465D0
:101520006D2073746F707065642120486561746507
:10153000725F49443A2000426564206865617469BD
:101540006E67206661696C6564004531204865619D
:1015500074696E67206661696C6564004532204875
:10156000656174696E67206661696C6564004B49EA
:101570004C4C45442E20002569730025696D2025BB
:101580006973002569682025696D20256973002528
:101590006964202569682025696D20256973002507
:1015A000697920256964202569682025696D2025D1
:1015B0006973005072696E742074696D653A200019
:1015C00050726F7465637465642050696E0A0053CD
:1015D00074616E6461726420446576696174696FD8
:1015E0006E3A20002052616E67653A2000204D61FE
:1015F000783A2000204D696E3A20004D65616E3AC0
:10160000200046696E6973686564210A0020726172
:101610006E67653A2000206D61783A2000206D6980
:101620006E3A2000207369676D613A2000206D6575
:10163000616E3A20003A207A3A2000206F6620003E
:10164000205A00205900205800476F696E672074A7
:101650006F3A00436C6F636B776973650A00436F81
:10166000756E7465722D0020446972656374696FCC
:101670006E3A2000202020616E676C653A2000538E
:1016800074617274696E67207261646975733A205F
:1016900000506F736974696F6E696E672074686556
:1016A0002070726F62652E2E2E0A003F4E756D629D
:1016B0006572206F66206C65677320696E206D6FA0
:1016C00076656D656E74206E6F7420706C617573D5
:1016D00069626C652028302D3135292E0A003F20A3
:1016E00028582C5929206F7574206F6620626F75F9
:1016F0006E64732E0A003F53616D706C65207369D0
:101700007A65206E6F7420706C61757369626C65A8
:101710002028342D3530292E0A004D3438205A2DFA
:1017200050726F6265205265706561746162696CA8
:1017300069747920546573740A003F2856296572CC
:10174000626F7365206C6576656C20697320696DC6
:10175000706C61757369626C652028302D34292E98
:101760000A00205A3A0020423A0020436F756E74F6
:1017700020413A0020453A00205A3A0020593A00C8
:10178000583A004572726F722077726974696E6799
:1017900020746F20454550524F4D210A00290A0000
:1017A0002062797465733B20637263200053657413
:1017B00074696E67732053746F72656420280062C9
:1017C0007573793A2070617573656420666F722055
:1017D000696E7075740A00627573793A207061756C
:1017E00073656420666F7220757365720A00627596
:1017F00073793A2070726F63657373696E670A005C
:101800004B494C4C20636175736564206279207488
:101810006F6F206D75636820696E616374697665AA
:101820002074696D65202D2063757272656E742059
:10183000636F6D6D616E643A20005072696E7465FD
:10184000722068616C7465642E206B696C6C282949
:101850002063616C6C6564210A00000000000000D8
:101860000000000000003C3C3C207365745F617820
:1018700069735F69735F61745F686F6D65280020CD
:101880003A200A00202063757272656E745F706F73
:10189000736974696F6E3D005D203D20003E2068D5
:1018A0006F6D655F6F66667365745B003E207A706E
:1018B000726F62655F7A6F6666736574203D2000A3
:1018C0002A2A2A205A20484F4D4544205749544837
:1018D0002050524F424520285A5F4D494E5F50528A
:1018E0004F42455F555345535F5A5F4D494E5F45E3
:1018F0004E4453544F505F50494E29202A2A2A0AF9
:10190000003E3E3E207365745F617869735F697362
:101910005F61745F686F6D6528005761726E696EF4
:10192000673A20486F6D696E672042756D7020447C
:10193000697669736F72203C20310A00020204004C
:1019400000A0400000A040000000403C3C3C20685B
:101950006F6D65617869732800203A203E2041460A
:10196000544552207365745F617869735F69735F72
:1019700061745F686F6D650A00202063757272651F
:101980006E745F706F736974696F6E3D00486F6D40
:1019900065203220536C6F773A0A004D6F766520D0
:1019A000417761793A0A00486F6D652031204661C0
:1019B00073743A0A003E3E3E20686F6D6561786937
:1019C00073280020746F6F206C6F6E6720657874C9
:1019D000727573696F6E2070726576656E7465647A
:1019E0000A0020636F6C6420657874727573696F88
:1019F0006E2070726576656E7465640A0048617267
:101A000064636F6465642044656661756C7420531B
:101A1000657474696E6773204C6F616465640A0055
:101A2000DC050000DC050000DC050000DC05000032
:101A300000007A4400007A4400007A440000C84262
:101A40000000A0420000A0420000484400004C43B7
:101A50003A0A0020286D6D290020204D38353120AC
:101A60005A005A2D50726F6265204F666673657416
:101A70000020440020490020204D33303420500005
:101A800020440020490020204D33303120500020D8
:101A9000440020490020500020204D3330312045A3
:101AA000005049442073657474696E67733A0A0084
:101AB000205A00204A002020473239205720490070
:101AC000205A0020204D3432302053004175746F6D
:101AD00020426564204C6576656C696E673A0A0041
:101AE00020590020580020204D3231382054004821
:101AF0006F74656E64206F6666736574733A0A006E
:101B0000205A0020590020204D32303620580048FD
:101B10006F6D65206F66667365743A0A0020450034
:101B2000205A002059002058002054002053002043
:101B3000204D32303520510020453C6D61785F6585
:101B40005F6A65726B3E0020583C6D61785F785F1C
:101B50006A65726B3E20593C6D61785F795F6A659A
:101B6000726B3E205A3C6D61785F7A5F6A65726B7A
:101B70003E00416476616E6365643A20513C6D6954
:101B80006E5F7365676D656E745F74696D655F75B3
:101B9000733E20533C6D696E5F6665656472617467
:101BA000653E20543C6D696E5F74726176656C5F52
:101BB00066656564726174653E00205400205200C1
:101BC00020204D323034205000416363656C6572D3
:101BD0006174696F6E2028756E6974732F73322972
:101BE0003A20503C7072696E745F616363656C3E4D
:101BF00020523C726574726163745F616363656CEB
:101C00003E20543C74726176656C5F616363656C01
:101C10003E0A00204500205A0020590020204D3265
:101C200030312058004D6178696D756D20416363D6
:101C3000656C65726174696F6E2028756E69747366
:101C40002F7332293A0A00204500205A00205900FB
:101C500020204D3230332058004D6178696D756D0C
:101C6000206665656472617465732028756E697499
:101C7000732F73293A0A00204500205A002059008A
:101C800020204D39322058005374657073207065E0
:101C90007220756E69743A0A0020204D323030206F
:101CA00044300A0020204D3230302054312044008E
:101CB00020204D3230302044002044697361626C32
:101CC00065640A0046696C616D656E7420736574A5
:101CD00074696E67733A002020473231202020203B
:101CE0003B00545249474745524544006F70656E6A
:101CF000003A2000556E6B6E6F776E20636F6D6DCE
:101D0000616E643A202200203A203C3C3C207275EF
:101D10006E5F7A5F70726F62650A00202063757271
:101D200072656E745F706F736974696F6E3D0020C9
:101D300044697363726570616E63793A00326E64F0
:101D40002050726F6265205A3A00203A203C3C3C99
:101D50002072756E5F7A5F70726F62650A00202074
:101D600063757272656E745F706F736974696F6E9C
:101D70003D00534C4F572050726F62652066616979
:101D80006C210A003173742050726F6265205A3AD8
:101D900000203A203C3C3C2072756E5F7A5F707286
:101DA0006F62650A00202063757272656E745F70E1
:101DB0006F736974696F6E3D0046415354205072D1
:101DC0006F6265206661696C210A00203A203E3E00
:101DD0003E2072756E5F7A5F70726F62650A0020D6
:101DE0002063757272656E745F706F736974696F6A
:101DF0006E3D003C3C3C2070726F62655F70740AFF
:101E00000050726F62696E67206661696C65640A72
:101E100000205A3A200020593A2000426564205898
:101E20003A2000203A200A00202063757272656E05
:101E3000745F706F736974696F6E3D005F72656C7B
:101E40006174697665290A002C20002C20002C2062
:101E5000002C20003E3E3E2070726F62655F707401
:101E600028003C3C3C205A5F534146455F484F4D5B
:101E7000494E470A00203A205A5F534146455F4881
:101E80004F4D494E470A00202064657374696E61A6
:101E900074696F6E3D005A5F534146455F484F4D30
:101EA000494E47203E3E3E0A00486F6D6520585916
:101EB0002066697273740A000000524300808E43EA
:101EC0000000554300002042000020420000204155
:101ED00000000000FFFFFF3C3C3C204732380A0076
:101EE0005261697365205A20286265666F726520A9
:101EF000686F6D696E672920746F20003E20656EE3
:101F00006473746F70732E656E61626C6528747291
:101F10007565290A003C3C3C204732380A003E20C7
:101F2000686F6D696E67206E6F74206E656564659D
:101F3000642C20736B69700A003E3E3E20473238A5
:101F40000A00290A002062797465733B206372637A
:101F500020002073746F7265642073657474696EF9
:101F60006773207265747269657665642028002045
:101F70002863616C63756C6174656429210A0020B3
:101F8000213D2000454550524F4D20435243206D86
:101F900069736D61746368202D202873746F726596
:101FA000642920002053697A653A2000496E6465EF
:101FB000783A2000204D61726C696E3D56353729A4
:101FC0000A0028454550524F4D3D00454550524F5F
:101FD0004D2076657273696F6E206D69736D6174E3
:101FE000636820007A5F6D696E00795F6D696E00CD
:101FF000785F6D696E005265706F7274696E6720EC
:10200000656E6473746F70207374617475730A0005
:102010003C3C3C20646F5F686F6D696E675F6D6FFD
:10202000766528005B00290A002C20002C20003E49
:102030003E3E20646F5F686F6D696E675F6D6F769F
:1020400065280047322F4733206261642070617237
:10205000616D65746572730A0020280041424C204E
:1020600041646A7573746D656E74205A002048006F
:1020700020570020590042696C696E6561722047E3
:102080007269642058005A20466164653A20002035
:1020900028656E61626C6564290A00202864697392
:1020A00061626C6564290A0042494C494E454152BF
:1020B000004175746F20426564204C6576656C69DB
:1020C0006E673A2000204E6F7A7A6C65290A0020EC
:1020D000262041626F76650020262053616D6520C1
:1020E0005A2061730020262042656C6F77002D42D4
:1020F00061636B002028526967687400205A3A00B7
:1021000020593A0050726F6265204F66667365749D
:1021100020583A004649585F4D4F554E5445445F4C
:1021200050524F42450A0050726F62653A20004398
:102130006F72650A004D616368696E65205479703D
:10214000653A20002C20002C20003A004361703AB0
:1021500000544845524D414C5F50524F54454354F2
:10216000494F4E004155544F5245504F52545F53C2
:10217000445F53544154555300454D455247454ED5
:1021800043595F50415253455200434153455F4CC0
:10219000494748545F4252494748544E45535300BB
:1021A000544F47474C455F4C494748545300534FA1
:1021B0004654574152455F504F574552004255498A
:1021C0004C445F50455243454E54004C4556454C97
:1021D000494E475F44415441005A5F50524F424577
:1021E000004155544F4C4556454C005052494E54B1
:1021F0005F4A4F420050524F47524553530041559A
:10220000544F5245504F52545F54454D5000564F15
:102210004C554D455452494300454550524F4D0091
:1022200053455249414C5F584F4E5F584F46460008
:102230004649524D574152455F4E414D453A4D61D9
:10224000726C696E20312E312E392E32202847696A
:10225000746875622920534F555243455F434F447C
:10226000455F55524C3A68747470733A2F2F676902
:10227000746875622E636F6D2F4D61726C696E4666
:1022800069726D776172652F4D61726C696E205055
:10229000524F544F434F4C5F56455253494F4E3A5D
:1022A000312E30204D414348494E455F54595045E9
:1022B0003A3344205072696E746572204558545206
:1022C000554445525F434F554E543A322055554977
:1022D000443A63656465326132662D343161322D72
:1022E000343734382D396231322D63353563363227
:1022F0006633363766660A004F66660A00466164D2
:1023000065204865696768742000426564204C65F3
:1023100076656C696E6720004661696C656420743F
:102320006F20656E61626C6520426564204C657645
:10233000656C696E670A004D65736820706F696E21
:10234000742063616E6E6F74206265207265736FB6
:102350006C7665640A004D34323120696E636F72A9
:102360007265637420706172616D65746572207549
:10237000736167650A003A200050726F6265205AE7
:10238000204F6666736574003F5A206F7574206F26
:10239000662072616E676520282D323020746F20B0
:1023A0003230290A00496E76616C69642065787460
:1023B00072756465720A00416374697665204578B8
:1023C0007472756465723A2000203A204D6F76650C
:1023D000206261636B0A00202064657374696E611A
:1023E00074696F6E3D00207D0A002C20004F6666E8
:1023F00073657420546F6F6C205859206279207B6C
:1024000020004E6F206D6F7665206F6E20746F6FA9
:102410006C6368616E67650A003C3C3C204732395A
:102420000A0020636F72726563746564205A3A0013
:1024300047323920756E636F72726563746564200C
:102440005A3A00203A203E2070726F62696E67200F
:10245000636F6D706C6574650A002020637572721D
:10246000656E745F706F736974696F6E3D002028CC
:1024700044525952554E2900473239204175746FE4
:1024800020426564204C6576656C696E67003F206C
:10249000284C2C522C462C4229206F7574206F66D4
:1024A00020626F756E64732E0A003F28562965728C
:1024B000626F7365206C6576656C20697320696D49
:1024C000706C61757369626C652028302D34292E1B
:1024D0000A00426164205A2076616C75650A004EDC
:1024E0006F2062696C696E65617220677269640A47
:1024F000003C3C3C204732390A003E204175746F55
:102500002D6C6576656C206E6F74206E65656465F4
:10251000642C20736B69700A00203A203E3E3E20F6
:102520004732390A00202063757272656E745F70DD
:102530006F736974696F6E3D00526573656E643ABE
:1025400020006F6B0020746F6F206C6F6E672065CA
:102550007874727573696F6E2070726576656E74CB
:1025600065640A0020636F6C64206578747275730B
:10257000696F6E2070726576656E7465640A0020FE
:1025800066697273740A005A0059005800486F6DEA
:102590006520006563686F3A004572726F723A0099
:1025A00042454420544845524D414C2052554E41DD
:1025B00057415900453120544845524D414C205215
:1025C000554E4157415900453220544845524D41DE
:1025D0004C2052554E4157415900A5CB11241FBEE6
:1025E000CFEFD1E2DEBFCDBF00E00CBF14E0A0E032
:1025F000B2E0E2E9F0EB01E00BBF02C007900D9200
:10260000AA3FB107D9F723E1AAEFB4E001C01D92B8
:10261000A33EB207E1F712E1CEEED2E100E006C040
:1026200021970109802FFE010E94D8D7CD3ED10706
:1026300080E00807A9F70E946BC50C9447D80C945A
:1026400000002F923F924F925F926F927F928F92F3
:102650009F92AF92BF92CF92DF92EF92FF920F9331
:102660001F93CF93DF93CDB7DEB7C558D1090FB60F
:10267000F894DEBF0FBECDBF41E04093A808809123
:10268000D3058D3409F46CC3843511F40C94F92A04
:10269000873411F00C944E2C2091D1053091D20545
:1026A0002C31310509F473C06CF42430310534F455
:1026B0002230310574F537FF25C04EC32430310573
:1026C00089F14AC32A32310509F43EC14CF42D3157
:1026D000310509F460C02E31310509F460C03CC3F6
:1026E0002B35310509F40CC22C35310509F40EC225
:1026F0002A35310509F030C31092FF041092760F8D
:102700000C94502C80911D0281110C94552C0C942A
:10271000502C81E02230310509F080E00E94D6A3E0
:102720000C94502C80E50E941E34882329F00E94CE
:1027300064336B017C0103C0C12CD12C760183E58D
:102740000E941E34882361F00E94A43320E030E010
:102750004AE754E40E94D8D00E9426D66B017C013F
:102760000E9408990E941A40C60ED71EE81EF91E44
:102770000E941A40DC01CB018C199D09AE09BF09EA
:10278000B7FD02C00C94502C0E94A06AF1CF0E94A9
:102790008A860C94502C0E947EB10C94502CC090D0
:1027A0000D13D0900E13E0900F13F090101388E5E6
:1027B0000E941E34811109C020E030E040EA51E45B
:1027C000C701B6010E94DDD402C00E94A4336BABE6
:1027D0007CAB8DAB9EABC0901113D0901213E090E8
:1027E0001313F090141389E50E941E34811109C05F
:1027F00020E030E040E052E4C701B6010E94DDD4A1
:1028000002C00E94A4339B01AC0169837A838B834D
:102810009C836BA97CA98DA99EA90E94AF6988237E
:1028200011F40C94502C80E00E94243C0E949C3BAC
:1028300085E40E941E34882321F00E949533182FCE
:1028400004C085E40E94D73311E086E50E941E345F
:10285000882321F00E947433262F01C021E0412FEC
:10286000BE016F5F7F4FCE01C3960E94CB896B0183
:102870007C019B01AC010E9489D781115FC08BA8AC
:102880009CA8ADA8BEA820E030E0A901C501B40114
:102890000E9473D087FD05C027E137EB41E558E37F
:1028A00004C027E137EB41E558EBC501B4010E94B4
:1028B000DDD4AB01BC0184E192E00E949C9589804B
:1028C0009A80AB80BC8020E030E0A901C501B40152
:1028D0000E9473D087FD05C027E137EB41E558E33F
:1028E00004C027E137EB41E558EBC501B4010E9474
:1028F000DDD4AB01BC018FE092E00E949C9520E00A
:1029000030E0A901C701B6010E9473D087FD05C060
:1029100027E137EB41E558E304C027E137EB41E518
:1029200058EBC701B6010E94DDD4AB01BC018AE0BF
:1029300092E00E949C958AE00E94CC340E94783BF1
:102940000E949F530C94502C80911D02882311F4F7
:102950000C94502C89E40E941E34182F882321F0F7
:102960000E947433E62E01C0E12C8AE40E941E34DA
:10297000082F882331F00E947433F62E111104C001
:102980000BC0F12C1123C1F024E02E1510F00C9493
:10299000F62FECE1F2E004C034E03F15D0F30CC0B8
:1029A00084918F010F5F1F4F882311F40C94502CDA
:1029B0000E94CC34F801F4CF0E94B8341123F1F016
:1029C00020915B0930915C094E2D4203B001439F79
:1029D000700D11248091030A9091040A680F791FE9
:1029E000072E000C880B990B0E9479D06093F00998
:1029F0007093F1098093F2099093F3090023F1F0A9
:102A000020915D0930915E095F2D5203B001539F03
:102A1000700D11242091050A3091060A620F731F70
:102A2000072E000C880B990B0E9479D06093F40953
:102A30007093F5098093F6099093F70980E50E9459
:102A40001E348823E9F00E9495338823A9F11123CD
:102A5000D9F020E030E040EA51E46091F009709153
:102A6000F1098091F2099091F3090E94DCD46093FE
:102A7000F0097093F1098093F2099093F30904C06F
:102A800080E50E94D733E1CF0023B1F020E030E0B1
:102A900040E052E46091F4097091F5098091F609E3
:102AA0009091F7090E94DCD46093F4097093F509C2
:102AB0008093F6099093F70986E40E941E348823D8
:102AC000D9F00E94A4336B017C0120E030E0A90121
:102AD0000E9403D7181684F420E030E040E752E467
:102AE000C701B6010E94B9D560935002709351029C
:102AF00080935202909353020E940CB70C94502C76
:102B00004093FF044093760F0C94502C35EDC32E68
:102B100032E0D32E46EBE42E48E0F42E00E010E045
:102B2000612C712CD6018D916D010E941E34882379
:102B300009F4B3C00E94A4334B015C01B3E07B16DF
:102B400059F0F801EE51F64F2081318142815381D5
:102B50000E94DCD44B015C01F801E35FFC4E208154
:102B6000318142815381B401C5010E94DCD49B01B3
:102B7000AC01E3E07E1282C00E9467CB8091000A24
:102B800090E0FC01EF57F04F2081213009F04BC05D
:102B9000880F991F880F991FFC01ED57F04F2CEA01
:102BA00035EC47E257E360817181828193810E9415
:102BB00003D71816C4F520E030E0A901B401C5011F
:102BC0000E9473D081112FC088E1A82E83E0B82E17
:102BD000D5018D915D01882319F00E94CC34F8CF86
:102BE0008AE00E94CC342091000AB4E02B9F90012F
:102BF0001124F901ED57F04F80819181A281B381B9
:102C0000B058F901E557F04F80839183A283B383D5
:102C1000F901ED55F04F80839183A283B383BC010A
:102C20002A2F9B2F03C0B4012A2D9B2D4B01A22ECE
:102C3000B92E8092191390921A13A0921B13B0927E
:102C40001C13BDE2AB2EB3E0BB2EF50181915F01F9
:102C5000882319F00E94CC34F8CF60911913709139
:102C60001A1380911B1390911C1342E00E949F370E
:102C70008AE00E94CC34662463940FC0D7016D9122
:102C80007D918D919C910E94DDD4F70160837183C9
:102C900082839383872D0E94D6347394F4E0EF0EE1
:102CA000F11C0C5F1F4F24E072123CCF662009F428
:102CB0004FC020E030E0A9016091191370911A1300
:102CC00080911B1390911C130E94DDD420914A0A1D
:102CD00030914B0A40914C0A50914D0A0E94D8D035
:102CE0000E940ED760935513709356138093571319
:102CF000909358139091331380913413981719F0CF
:102D00000E94D77E25C00E94089980916F0081FBA8
:102D1000992790F981FF05C080916F008D7F809386
:102D20006F00409155135091561360915713709155
:102D300058134093C5075093C6076093C707709315
:102D4000C807992329F080916F00826080936F00FB
:102D50000E949F530C94502C0E94AB8C0C94502CCE
:102D60008091D1059091D2058237910511F40C9490
:102D7000161F0CF0C4C08C34910509F4D9C40CF0B2
:102D80005EC08B33910509F4CCC274F58F31910587
:102D900009F457C284F48131910509F44EC22CF430
:102DA000029708F4C7C10C94F62A429711F40C94C8
:102DB000F31E0C94F62A8033910509F446C244F4BC
:102DC0008A9711F00C94F62A0E94D35A0C94502C36
:102DD0008933910509F43DC2CA9711F00C94F62A83
:102DE0000E9452630C94502C8034910509F4EBC27C
:102DF00094F48D33910509F4DEC20CF4D8C28E33FD
:102E0000910509F4DCC2CF9711F00C94F62A0E94C8
:102E10007A620C94502C8B3491050CF085C4833469
:102E2000910514F00C94502C8134910511F40C94FC
:102E3000502C8234910509F426C30C94F62A8C3563
:102E4000910509F4EFC734F58135910509F4B2C74E
:102E50008CF48E34910511F40C94502C0CF47DC438
:102E60008F34910509F4B1C38035910509F4B1C3DC
:102E70000C94F62A8335910509F4B0C70CF4AAC75F
:102E80008435910509F4AFC78535910509F4AFC7BD
:102E90000C94F62A8C36910511F40C94502CACF459
:102EA0008936910509F416C534F48836910509F47C
:102EB00058C40C94F62A8A36910509F44BC78B3610
:102EC000910509F465C70C94F62A8F36910509F42B
:102ED00087C454F48D36910509F43EC58E369105AC
:102EE00009F46BC40C94F62A8037910511F40C9404
:102EF000502C8137910509F4C1C40C94F62A88310D
:102F000031E0930711F40C948D230CF085C0883CBC
:102F1000910509F4E2C7DCF58837910509F4D7C7B4
:102F2000E4F48537910511F40C94502C4CF483375C
:102F3000910511F00C94F62A0E94F3B00C94502CD9
:102F40008637910509F476C78737910511F00C94FF
:102F5000F62A0E9469A10C94502C8C38910509F432
:102F6000C4C65CF48937910511F00C94F62A1092CE
:102F7000EF091092EE090C94502C8B39910509F44D
:102F8000C4C48E3B910509F4CEC60C94F62A8E3C3F
:102F9000910511F40C9404210CF58B3C910511F46E
:102FA0000C94EC1F7CF4893C910511F00C94F62AEA
:102FB0002EE1E22E2AE0F22E05ED12E034E0D32ECF
:102FC000D00EF0C78C3C910511F40C940B208D3C75
:102FD000910511F40C9483200C94F62A8C3D9105F4
:102FE00011F40C94DE2264F4833D910511F40C94E9
:102FF000EE218A3D910511F40C94CF220C94F62A0F
:103000008D3D910511F40C94ED22823E910511F451
:103010000C945E230C94F62A843AA1E09A0711F4EA
:103020000C94B12A0CF03FC08336E1E09E0711F406
:103030000C948C2ADCF48E3221E0920711F40C946B
:1030400006253CF48D32914011F40C944E240C94DE
:10305000F62A8F3251E0950711F40C945A258033EB
:10306000914011F40C940F2A0C94F62A8139B1E0A6
:103070009B0711F40C94A52A4CF48039914011F06F
:103080000C94F62A0E9408990C94502C823921E065
:10309000920711F40C94AB2A8A39914011F40C94E4
:1030A000502C0C94F62A863F41E0940711F40C94BE
:1030B000B72AFCF48C3AA1E09A0711F40C9445214C
:1030C0004CF4853A914011F00C94F62A0E9482AE9D
:1030D0000C94502C843FF1E09F0711F40C94B42A17
:1030E000853F914011F00C94F62A0E94D4920C94E2
:1030F000502C833533E0930711F40C94E02A6CF4E0
:10310000873F51E0950711F40C94BA2A883F91400B
:1031100011F40C94BD2A0C94F62A8B38B3E09B076B
:1031200011F40C94502C873E934011F40C94E32A34
:103130000C94F62AE090CF05F090D00580E50E942F
:103140001E34882359F00E9464334B015C0111E066
:10315000672B682B692B31F410E004C010E0812C40
:10316000912C540183E50E941E34882311F40C94A1
:103170005A2C0E94A43320E030E04AE754E40E9435
:10318000D8D00E9426D64B015C0111110BC0672BD1
:10319000682B692B39F4E114F10421F0D7018C91EB
:1031A000811102C010E001C011E00E9408991123B2
:1031B000B9F0E3E9F5E284918F010F5F1F4F882397
:1031C00021F00E94CC34F801F6CFF70181917F0104
:1031D000882319F00E94CC34F8CF8AE00E94CC34C6
:1031E00083E08093A80881E08093FA04811491041D
:1031F000A104B104D9F00E941A40860E971EA81EA1
:10320000B91E0E941A40DC01CB0188199909AA094C
:10321000BB09B7FD04C01092FA040C94502C8091A5
:10322000FA048823C1F30E94A06AEBCF8091FA04CC
:10323000882389F30E94A06AF9CF0E9402B70C94F8
:10324000502C0E94355B0C94502C0E9465550C94B8
:10325000502C85E40E94D733882379F181E090E0F7
:1032600020919C0530919D05232B11F080E090E08A
:1032700090939D0580939C050E94E79380919C0507
:1032800090919D05892B19F40AE313E00EC000E527
:1032900013E0D8018D918D01882319F00E94CC3460
:1032A000F8CF8AE00E94CC3424C0F80181918F01CC
:1032B0008823B9F30E94CC34F8CF2091A90530912E
:1032C000AA054091AB055091AC056091770F7091C4
:1032D000780F8091790F90917A0F0E94DCD46093DF
:1032E000F8097093F9098093FA099093FB090E94F9
:1032F0000CB783E50E94D733882331F081E090E05A
:1033000090939F0580939E0582E50E94D733882382
:1033100011F40C94502C10929F0510929E050C9461
:10332000502C1092AB0F1092810F10929D081092AA
:103330009E0810929F081092A0081092820F10927F
:10334000A1081092A2081092A3081092A4080DE5FB
:1033500013E0D8018D918D01882321F10E94CC3496
:10336000F8CF8091020A882309F47BC2ABE3CA2E0E
:10337000A2E0DA2EE12CF12C20E08091020A90E00C
:103380000E2C02C0959587950A94E2F780FD51C2F4
:10339000FFEFEF1AFF0A32E0C30ED11C46E0E4163D
:1033A000F10459F78AE00E94CC340C94502C0E940E
:1033B000C7620C94502C0E94AA620C94502C0E945C
:1033C00092620C94502C80912002811103C00DE672
:1033D00013E04FC080911F028823C9F302E813E075
:1033E000F80181918F01882319F00E94CC34F8CF25
:1033F0008FE00E94523E892B19F002E814E00DC0C4
:103400000FE614E0D8018D918D01882319F00E94F8
:10341000CC34F8CF06E813E008C0F80181918F01A1
:103420008823C1F30E94CC34F8CFD8018D918D014F
:10343000882319F00E94CC34F8CF82E00E94523EDB
:10344000892B19F002E814E00BC00FE614E0F80134
:1034500081918F01882309F4A5CF0E94CC34F7CF46
:10346000D8018D918D01882309F49CCF0E94CC3422
:10347000F7CFF80181918F01882311F40C94502C1F
:103480000E94CC34F6CF81E40E94D733882351F0D8
:103490000E94A433609337097093380980933909E7
:1034A00090933A0982E40E94D733882351F00E9416
:1034B000A433609333097093340980933509909352
:1034C000360983E40E94D733882351F00E94A43345
:1034D00060932F09709330098093310990933209DA
:1034E00084E40E94D733882351F00E94A433609370
:1034F0002B0970932C0980932D0990932E0982E556
:103500000E94D733882311F40C94502C0BE813E05D
:10351000D8018D918D01882319F00E94CC34F8CF09
:1035200060913709709138098091390990913A0971
:1035300042E00E949F370EE813E0F80181918F016D
:10354000882319F00E94CC34F8CF60913309709130
:103550003409809135099091360942E00E949F37E5
:1035600001E913E0D8018D918D01882319F00E94A3
:10357000CC34F8CF60912F097091300980913109D6
:103580009091320942E00E949F3704E913E0F8016C
:1035900081918F01882319F00E94CC34F8CF60917B
:1035A0002B0970912C0980912D0990912E0942E0F0
:1035B0000E949F3704E813E0D8018D918D01882384
:1035C00009F4F0CE0E94CC34F7CF87E993E00E9453
:1035D000496A85E50E94D73381110E94B56E84E463
:1035E0000E94D73381110E94B16487E50E94D733CE
:1035F000882331F00E94A4330E9426D660934B02A8
:1036000083E50E94D733882331F00E94A4330E94BF
:1036100026D660934A028FE40E94D733882341F074
:103620000E94A4330E9421D67093490260934802FD
:103630008EE40E94D733882351F00E94A433609314
:103640004B0970934C0980934D0990934E098DE47A
:103650000E94D733882351F00E94A433609343091A
:1036600070934409809345099093460989E50E9427
:10367000D733882351F00E94A43360933F0970939D
:103680004009809341099093420988E50E94D7330D
:10369000882351F00E94A43360933B0970933C0946
:1036A00080933D0990933E0982E40E94D73388239A
:1036B00051F00E94A43360934709709348098093A6
:1036C000490990934A0981E40E94D733882359F02D
:1036D0000E94A4330E9421D67093100260930F02BF
:1036E000CB010E94D56384E50E94D733882349F03B
:1036F0000E94A4330E9426D6862F6093A0050E94C4
:103700002C6489E40E94D733882311F40C94502C44
:103710008091A0050E942C6480910F02909110026C
:103720000E94D5630C94502C0E943D960C94502C12
:1037300080918905813011F00C94502C82E08093A7
:1037400089050E941A4060938105709382058093D9
:103750008305909384050C94502C0E949B960C94A6
:10376000502C88E690E00E94493781110C94502C2F
:103770008091020A83FF02C00C94502C83E50E94C2
:103780001E348823B1F00E94A4330E9421D6DC01AC
:10379000CB0160918B070E942A340E94A43320E061
:1037A00030E04AEA52E40E9473D0181614F00E94E6
:1037B0009B960E940B970C94502C8EE40E941E3412
:1037C000882311F40C94502C0E94743360932C13B2
:1037D00070932D1380932E1390932F130C94502CD1
:1037E00083E50E94D733882359F083E50E941E3475
:1037F000882319F00E94843301C080E08093020A7C
:10380000E3E9F5E284918F010F5F1F4F882321F0D8
:103810000E94CC34F801F6CFEBE4F2E084918F0102
:103820000F5F1F4F882309F49CCD0E94CC34F80110
:10383000F5CFBB24B394B20E222319F08CE20E9480
:10384000CC34F60125913491F901849189010F5FFF
:103850001F4F882321F00E94CC349801F5CF2B2DE7
:1038600097CDE7E4F2E084918F010F5F1F4F88232B
:1038700009F498CD0E94CC34F801F5CF83E50E947D
:103880001E34882369F00E9484338D3320F48093A2
:1038900021020C94502C8CE3809321020C94502C28
:1038A000E3E9F5E284918F010F5F1F4F882321F038
:1038B0000E94CC34F801F6CF4091210250E060E044
:1038C00070E082E592E00E947F958AE00E94CC340D
:1038D0000C94502C89E690E00E944937811111C068
:1038E000E9E5F2E084918F010F5F1F4F882321F0FB
:1038F0000E94CC34F801F6CF0E9403428AE00E9475
:10390000CC341092A8080C94FC2F83E50E941E343E
:10391000882311F40C94502C0E948433182F8D337B
:1039200008F01CE31093B5080E941A406B017C015B
:10393000212F30E0A8EEB3E00E94CDD4C60ED71EF2
:10394000E81EF91EC092B108D092B208E092B30806
:10395000F092B4080C94502C8DE690E00E94493708
:1039600081110C94502C8091020A83FF02C00C94A8
:10397000502C83E50E941E3424968FAF249781112A
:1039800005C082E50E941E348823C9F00E94A4333A
:103990000E9421D6DC01CB0160918B070E942A3462
:1039A0000E94A43320E030E04AEA52E40E9473D03F
:1039B000181614F40C945F2C0E949B9681E0CF574C
:1039C000DF4F8883C158D0400E940B97CF57DF4FFD
:1039D0008881C158D040882311F40C94502C81E088
:1039E000809300021BAE1CAE1DAE1EAE2B961CAE0D
:1039F0001DAE1EAE1FAE2B9719AE2C961FAE2C9788
:103A00005CE360965FAF60978CE164968FAF6497DC
:103A100096E465969FAF6597412C512CE0E8CE2E39
:103A2000FFEBDF2E812C912C5401E0908B07F12CC1
:103A3000F701EE0FFF1FE957F84F60817181072EE4
:103A4000000C880B990B0E9479D0162F072F782E27
:103A5000692E262F372F482F592FB201C6010E94F9
:103A600073D0882301F1F701EE0FFF1FEE0FFF1F48
:103A7000E158F84F2081318142815381612F702FAD
:103A8000872D962D0E9473D0881F8827881F89AFA5
:103A90002496AFAD2497AA2351F0882341F080915A
:103AA00000020C94502C142D052D7C2C6D2C0E94A2
:103AB0001A406B017C01DC01CB012B962CAD3DAD96
:103AC0004EAD5FAD2B97821B930BA40BB50BB7FDCF
:103AD0003DC0D701C60188519C4FAF4FBF4F2B96B9
:103AE0008CAF9DAFAEAFBFAF2B970E940342ECE50A
:103AF000F2E084912F019FEF491A590A882321F09F
:103B00000E94CC34F201F5CF81149104A104B104D8
:103B1000B9F0D501C4018854944FAF4FBF4FBC01D9
:103B2000CD016C197D098E099F0928EE33E040E034
:103B300050E00E947FD4CA01B9010E94853703C0BA
:103B40008FE30E94CC348AE00E94CC340E94A06AA9
:103B50000E941A406093A9087093AA088093AB084A
:103B60009093AC08E0918B07A4E0EA9FF001112448
:103B7000E158F84FB081BFAF218121962FAF219737
:103B8000328122963FAF2297438123964FAF2397EE
:103B90002B2F21963FAD219722964FAD229723964A
:103BA0005FAD2397612F702F872D962D0E94DCD457
:103BB0001B012C0120E030E0A9010E9403D787FF00
:103BC00004C057FA509457F8509481149104A104FA
:103BD000B10459F420E030E040E85FE3C201B101F4
:103BE0000E9473D087FF0DC00AC020E030E040E49F
:103BF00050E4C201B1010E9403D7181614F4460123
:103C0000570159AD552309F454C08BAD9CADADADF2
:103C1000BEAD892B8A2B8B2B61F0D701C6012BAD52
:103C20003CAD4DAD5EAD821B930BA40BB50BB7FD48
:103C300040C02FAD21963FAD219722964FAD2297E0
:103C400023965FAD23972C966FAD2C9760967FAD32
:103C5000609764968FAD649765969FAD65970E9457
:103C6000DCD420E030E040EC5FE30E9473D087FDBD
:103C700016CFD701C601805A9541AF4FBF4F8BAFCA
:103C80009CAFADAFBEAF9FAD2C969FAF2C9721964A
:103C9000AFAD21976096AFAF60972296BFAD2297E8
:103CA0006496BFAF64972396EFAD23976596EFAF09
:103CB000659780910002882309F4F1CE8114910464
:103CC000A104B10429F4412E502EC72CD62CADCE20
:103CD000F8EBCF1AFBE0DF0AE108F108C818D908B1
:103CE000EA08FB08F7FEDBCEEECF8091020A83FFE5
:103CF00002C00C94502C83E50E941E34882311F4DA
:103D00000C94502C0E94A4330E9421D66738710570
:103D100014F067E870E070937E0760937D070E945F
:103D2000F2440C94502C8091020A83FF02C00C9440
:103D3000502C83E50E941E3424968FAF2497811166
:103D40000C94632C82E50E941E3481110C94632C28
:103D50000C94502C80E50E941E34811106C083E52E
:103D60000E941E34882361F006C00E9484338111B2
:103D70000C94502CF4CF0E9474336F3F710510F0F7
:103D80006FEF70E070932309609322090C94502C1C
:103D900080E50E941E34811106C010922309109202
:103DA00022090C94502C0E947433672B11F00C9450
:103DB000502CF3CF0E943C450E9472991092230927
:103DC0001092220968EE73E080E090E00E9430419A
:103DD0000C94502C1092FE040C94502C81E0809393
:103DE000FE040C94502C0E9408550C94502C83E532
:103DF0000E94D733882311F40C94502C0E94A433D2
:103E000020E030E04AE754E40E94D8D00E9426D651
:103E10006093AD087093AE088093AF089093B0089C
:103E20000C94502C0E946A540C94502C0E9442B165
:103E30000C94502C0091CF051091D00583E0D12C2B
:103E400040E08150E9F0D8019C91292F2B7F21344B
:103E5000C1F711962C912133A1F7913421F09534BB
:103E600021F441E002C0DD24D39498012E5F3F4F3E
:103E700089012F5F3F4FF80190819032C9F3E1CF64
:103E8000442369F0E3E9F5E284917F012FEFE21A20
:103E9000F20A882321F00E94CC34F701F5CFDD200F
:103EA00069F0E4E6F2E084917F013FEFE31AF30A60
:103EB000882321F00E94CC34F701F5CFD8018D91F1
:103EC0008D01882309F46ECA0E94CC34F7CF409349
:103ED000EF094093EE090C94502C88EC90E00E947E
:103EE000493781110C94502C84E40E94D7338823E5
:103EF00009F454C00E94A43311E020E030E0A9018D
:103F00000E9473D0811101C010E01093650F11233E
:103F100009F444C00E94A433E0918B07B4E0EB9F06
:103F2000F0011124E259F04F6083718382839383FF
:103F300020E030E0A90160916E0F70916F0F8091C9
:103F4000700F9091710F0E9473D081110CC080E0AE
:103F500090E0A0E4B0E480936E0F90936F0FA09375
:103F6000700FB093710F20E030E0A9016091720FE3
:103F70007091730F8091740F9091750F0E9473D0A0
:103F800081110CC080E090E0A0E4B0E48093720F57
:103F90009093730FA093740FB093750F0E94B09E0F
:103FA0000C94502CF80181918F010E94D733882303
:103FB00051F00E94A4330E9426D6D7016D937D93C1
:103FC0008D939C931397B4E0EB0EF11CD012EACFC3
:103FD0000E943B970C94502C86E0E82E89E0F82E46
:103FE00005ED12E094E0D92ED00EF80181918F01F9
:103FF0000E94D733882341F00E94A433D7016D93E8
:104000007D938D939C931397B4E0EB0EF11CD0122B
:10401000ECCF0C94502C83E50E941E348823A1F031
:104020000E94A4336093FE087093FF0880930009F8
:10403000909301096093FA087093FB088093FC0841
:104040009093FD0810E001C011E080E50E941E344D
:10405000882359F00E94A4336093FE087093FF08F0
:10406000809300099093010910E082E50E941E34BC
:10407000882359F00E94A4336093020970930309C6
:10408000809304099093050910E084E50E941E3492
:10409000882361F00E94A4336093FA087093FB08B0
:1040A0008093FC089093FD080C94502C112311F47C
:1040B0000C94502C4091FE085091FF08609100092B
:1040C000709101098EE692E00E949C954091020950
:1040D0005091030960910409709105098BE692E003
:1040E0000E949C954091FA085091FB086091FC0851
:1040F0007091FD0888E692E00E949C958AE00E94FB
:10410000CC340C94502C81E50E94D733882351F095
:104110000E946433609316097093170980931809FD
:104120009093190983E50E94D733882351F00E94A8
:10413000A43360931E0970931F0980932009909304
:10414000210984E50E94D733882351F00E94A433CB
:1041500060931A0970931B0980931C0990931D09A1
:1041600088E50E94D733882351F00E94A4336093DE
:10417000EA087093EB088093EC089093ED0889E5CA
:104180000E94D733882351F00E94A4336093EE0835
:104190007093EF088093F0089093F1088AE50E94ED
:1041A000D7338823F1F00E94A4336093F208709310
:1041B000F3088093F4089093F5082DEC3CEC4CEC5C
:1041C0005DE30E9473D0181664F0EEE7F2E084918C
:1041D0008F010F5F1F4F882321F00E94CC34F8011C
:1041E000F6CF85E40E94D733882311F40C94502C29
:1041F0000E94A4336093F6087093F7088093F80840
:104200009093F9080C94502C85E40E94D7338823AE
:1042100051F00E94A4336093530970935409809322
:104220005509909356098AE50E94D733882351F0A7
:104230000E94A43360934F097093500980935109F1
:104240009093520915EDC12E12E0D12E01EAE02E15
:1042500005E0F02E10E0F60181916F010E94D73346
:10426000882359F00E94A433D7016D937D938D93D9
:104270009C931397812F0E94D6341F5FB4E0EB0EFE
:10428000F11C133041F70C94A8160E94D3C1811180
:104290000C94502CBAE58B2EB8E19B2EEDE0F3E1A7
:1042A000FAAFE9AF9E012F5F3F4F590104ED1EE1C8
:1042B000190133E0300F3BAFF401659175918591A1
:1042C0009491A9ADBAADCD90DD90ED90FD90BAAFCF
:1042D000A9AFA70196010E94DCD42B013C0120E08C
:1042E00030E040EA51EC0E9403D787FD10C020E087
:1042F00030E040EA51E4C301B2010E9473D01816C5
:1043000034F0F10140825182628273820EC0F80162
:1043100084911816B4F7F7FAF094F7F8F094D101F5
:10432000CD92DD92ED92FC921397D101CD90DD906C
:10433000ED90FD901D0120E030E040EA51ECC70116
:10434000B6010E9403D787FF03C0E9E9F5E20BC07D
:1043500020E030E040EA51E4C701B6010E9473D08A
:104360001816CCF4F2CF84918F010F5F1F4F882372
:1043700021F00E94CC34F801F6CFE0EBF2E084911A
:104380008F010F5F1F4F882311F40C94502C0E9453
:10439000CC34F801F4CFB4E08B0E911C0F5F1F4FAB
:1043A000EBADE01389CFA1EAEA2EA5E0FA2E10E0EA
:1043B000F50181919191A191B1915F01F7018193F3
:1043C0009193A193B1937F01812F0E94D6341F5FF7
:1043D000133071F70E949F530C94502CE3E9F5E2DF
:1043E00084918F010F5F1F4F882321F00E94CC34EE
:1043F000F801F6CF83E50E94D733882321F00E948D
:10440000953380937002E6EFF2E084918F010F5FA5
:104410001F4F882321F00E94CC34F801F6CF809101
:104420007002811103C0E2EFF2E002C0EEEEF2E0B2
:1044300084918F010F5F1F4F882321F00E94CC349D
:10444000F801F6CFE6EEF2E084918F010F5F1F4F87
:10445000882321F00E94CC34F801F6CF2091E209A4
:104460003091E3094091E4095091E50960913202ED
:104470007091330280913402909135020E94DDD414
:10448000AB01BC0184EE92E00E949C952091E6096C
:104490003091E7094091E8095091E90960913602AD
:1044A0007091370280913802909139020E94DDD4D8
:1044B000AB01BC0181EE92E00E949C952091EA093B
:1044C0003091EB094091EC095091ED0960913A026D
:1044D00070913B0280913C0290913D020E94DDD49C
:1044E000AB01BC018EED92E00E949C95E6EDF2E0FE
:1044F00084918F010F5F1F4F882321F00E94CC34DD
:10450000F801F6CF2091E2093091E3094091E409E6
:104510005091E5096091260270912702809128024E
:10452000909129020E94DDD4AB01BC0184ED92E0A0
:104530000E949C952091E6093091E7094091E80995
:104540005091E90960912A0270912B0280912C020E
:1045500090912D020E94DDD4AB01BC0181ED92E06F
:104560000E949C952091EA093091EB094091EC0959
:104570005091ED0960912E0270912F0280913002CE
:10458000909131020E94DDD4AB01BC018EEC92E02F
:104590000E949C958AE00E94CC340C94502C8AEDA9
:1045A00090E00E94493781110C94502C80918B0728
:1045B000882311F40C94502C0C94EF2D83E50E9469
:1045C0001E34882311F40C94502C0E947433709381
:1045D0007202609371020C94502C8DED90E00E9459
:1045E000493781110C94502C83E50E941E34882396
:1045F000E1F100918B0710E00E947433000F111F4E
:10460000F801E05AFD4F7183608380918B0790E041
:104610008C01000F111F000F111F9801225C3D4FEC
:104620007901880F991FFC01E05AFD4F608171816B
:10463000072E000C880B990B0E9479D02AE037EDE9
:1046400043E25CE30E94D8D0F801EA59F04F2081A0
:104650003181428153810E94D8D0D7016D937D93DF
:104660008D939C9313970C94502CE3E9F5E284917D
:104670008F010F5F1F4F882321F00E94CC34F80177
:10468000F6CF85E40E94CC3480918B07805D0E9438
:10469000CC34E0918B07F0E0EE0FFF1FE05AFD4FA6
:1046A0006081718186E193E00E94E09585E20E943D
:1046B000CC348AE00E94CC340C94502C80E50E94CB
:1046C000D733882311F40C94502C0E9474336B015F
:1046D0007C0183E50E941E34882321F00E947433FC
:1046E0008B0102C00FEF1FEFC8010196039710F076
:1046F0000C94502CD7FE02C00C94502C9C2DEEE153
:10470000F3E086E38E0F2491921711F40C94512E4E
:1047100031968E13F8CF0C94542E80E50E94D73337
:10472000882311F40C94502C0E9474336B017C018B
:104730008B01672B09F093C083E50E94D733882350
:10474000D9F00E9474336B017C0160E070E086EC6C
:1047500093E10E94478987FF02C00C94502CB60158
:1047600086EC93E10E946F946CE271E080E090E04F
:104770000E9430410C94502CE3E9F5E284917F01D2
:10478000BFEFEB1AFB0A882321F00E94CC34F7011B
:10479000F5CF60E070E08DE693E00E94E0958091B7
:1047A000C81328E532E06901C81AD10887FDD394FF
:1047B000CC0CDD1CCC0CDD1C0D2C000CEE08FF0815
:1047C0008091C71328E830E04901881A910887FDD5
:1047D0009394880C991C880C991C092C000CAA082D
:1047E000BB088091C6138F3FB9F090E0FC01EE0F3B
:1047F000FF1F8E0F9F1FFC01E75AFC4E01811281A3
:1048000083E0000F111F8A95E1F794E01695079554
:104810009A95E1F70E5F1F4F98012F5F3F4FC90137
:10482000330FAA0BBB0B9C01AD01281939094A09AA
:104830005B09A4EBB0E00E94BDD4A7019601281942
:1048400039094A095B090E94A1D4B9018AE693E0BB
:104850000E94E0958AE00E94CC340C94502CE9E947
:10486000F5E284918F010F5F1F4F882321F00E9492
:10487000CC34F801F6CFB60183E693E00E94E095D0
:10488000E4E5F3E084918F010F5F1F4F882311F45B
:104890000C94502C0E94CC34F801F4CF85E40E9493
:1048A0001E34882339F00E948433082F823008F0A8
:1048B00094C001C000E080E50E94D733882361F0F6
:1048C0000E94A43324E0029FF0011124EF52F84F1C
:1048D000608371838283938389E40E94D733882322
:1048E000A9F00E94A43344E0049F90011124D9014F
:1048F000A753B84F7D012CEA35EC47E25EE30E94F6
:10490000D8D0F701608371838283938384E40E940B
:10491000D7338823B1F00E94A433F4E00F9F9001B5
:104920001124A9014752584F7A012CEA35EC47E28D
:104930005EE30E94B9D5D7016D937D938D939C93CF
:104940001397E3E9F5E284917F01BFEFEB1AFB0ACD
:10495000882321F00E94CC34F701F5CF10E0B80194
:1049600083E993E00E94E095000F111F000F111FD3
:10497000F801EF52F84F40815181628173818FE8D5
:1049800093E00E949C95F801E753F84F2CEA35EC30
:1049900047E25EE360817181828193810E94B9D593
:1049A000AB01BC018BE893E00E949C95F801E752B3
:1049B000F84F2CEA35EC47E25EE360817181828139
:1049C00093810E94D8D0AB01BC0187E893E00E949C
:1049D0009C958AE00E94CC3463C7E9E9F5E28491B2
:1049E0008F010F5F1F4F882321F00E94CC34F80104
:1049F000F6CFE5E7F3E084918F010F5F1F4F882327
:104A000009F44EC70E94CC34F801F5CF83E50E942B
:104A1000D733182F882371F00E94A4330E9421D627
:104A2000709347026093460221E0672B09F020E073
:104A30002093240980E50E94D733882359F02091E0
:104A4000460230914702232B11F00E949533809348
:104A5000240926C7111124C7E3E9F5E284918F01E7
:104A60000F5F1F4F882321F00E94CC34F801F6CF4E
:104A700080912409811103C060E173E002C06DE000
:104A800073E08CEA93E00E94159660914602709163
:104A900047028BE993E00E94E095E7E9F3E0849117
:104AA0008F010F5F1F4F882309F4FAC60E94CC3490
:104AB000F801F5CF85E40E941E34882321F00E947E
:104AC00074337B0102C0E12CF12C83E40E941E347C
:104AD000882331F00E947433A0966FAFA09704C072
:104AE000E5E0A096EFAFA09785E50E941E348823ED
:104AF00019F00E94953303C085E50E94D733AC9628
:104B00008FAFAC97F7FC07C0412C512CF6E16F2E0C
:104B1000F3E47F2E06C0412C512CECE86E2EE2E42B
:104B20007E2E83E50E941E34882321F00E94A43348
:104B30002B013C01F2E0EF16F10410F4E0928B0738
:104B40000E2D0E941A404B015C01E7FC04C07DE27F
:104B5000C72ED12C03C06AE5C62ED12C61E06E0DA4
:104B6000633068F0EDE9F5E084918F010F5F1F4F2E
:104B7000882309F495C60E94CC34F801F5CF07FDCF
:104B800012C0E02FEE0FFF0BE55FFD4F60817181DA
:104B90006F507109072E000C880B990B0E9479D079
:104BA0009B01AC0104C020E030E047E053E4C301C6
:104BB000B201EF962FAFEF97C158DF4F3883CF5731
:104BC000D040C058DF4F4883C058D040CF57DF4F48
:104BD0005883C158D0400E9421D6072E000C880B64
:104BE000990B0E9479D06FAF21967FAF21972296C3
:104BF0008FAF229723969FAF2397EF962FADEF9716
:104C0000C158DF4F3881CF57D040C058DF4F48815F
:104C1000C058D040CF57DF4F5881C158D0400E9474
:104C200003D71816CCF4E9E9F5E284918F010F5F00
:104C30001F4F882321F00E94CC34F801F6CFEEE517
:104C4000F5E084918F010F5F1F4F882309F428C678
:104C50000E94CC34F801F5CFE9E8F5E084917F01BA
:104C60002FEFE21AF20A882321F00E94CC34F701D8
:104C7000F5CF0E943C4507FF04C08FE7809378077B
:104C800008C0E02F002E000CFF0BEA58F84F8FE70A
:104C900080839601A8EEB3E00E94CDD4E0966CAF7D
:104CA0007DAF8EAF9FAFE097DC01CB01880D991DE2
:104CB000AA1DBB1DEC968CAF9DAFAEAFBFAFEC97FE
:104CC00081E080930002A7968CAE9DAEAEAEBFAEE3
:104CD000A797E4968CAE9DAEAEAEBFAEE497A3961A
:104CE0001FAEA397E8961CAE1DAE1EAE1FAEE89792
:104CF00064961FAE649790E465969FAF6597ACE1AC
:104D00006696AFAF6697B6E46796BFAF679768964B
:104D10001FAE689769961FAE69976A961FAE6A972D
:104D20006B961FAE6B9763961CAE1DAE1EAE1FAE8C
:104D300063972F961CAE1DAE1EAE1FAE2F97C12CD3
:104D4000D12C76012FE730E040E050E027962CAFE1
:104D50003DAF4EAF5FAF27978FE790E0A0E0B0E0A8
:104D60008BAF9CAFADAFBEAFAB961CAE1DAE1EAE53
:104D70001FAEAB9791E0A2969FAFA29729961FAE68
:104D80001EAE299710E019AE212C312CA02F002E39
:104D9000000CBB0B6D96BFAFAEAF6D97AA58B84F66
:104DA000EE96BFAFAEAFEE976D968EAD9FAD6D97A1
:104DB000880F991F880F991FFC01E158F84F6F96D3
:104DC000FFAFEEAF6F979E012B5F3F4F38AF2FAB1A
:104DD000A0964FADA097042E000C550BA1965FAF87
:104DE0004EAFA19780910002882309F42CC10E9444
:104DF0001A402B013C0180917507882309F4F6C005
:104E00000E940E4907FF0AC01091790750917A0756
:104E100059AF20907B0730907C070EC06F96AEADE7
:104E2000BFAD6F971C911196BC91B9AF6F96EEAD67
:104E3000FFAD6F9722803380212F39ADA101689695
:104E40006FAD689769967FAD69976A968FAD6A97DF
:104E50006B969FAD6B970E9473D087FF0DC06896CD
:104E60001FAF6897F9AD6996FFAF69976A962FAE45
:104E70006A976B963FAE6B97212F39ADA10164966F
:104E80006FAD649765967FAD659766968FAD6697B3
:104E900067969FAD67970E9403D718166CF46496C7
:104EA0001FAF649729AD65962FAF659766962FAEB5
:104EB000669767963FAE6797A2963FADA2972FADD4
:104EC000332309F46FC021963FAD219722964FAD51
:104ED000229723965FAD2397612F79ADC1010E9480
:104EE00003D718160CF082C0D301C20188199909A2
:104EF000AA09BB09CE57DF4F88839983AA83BB8356
:104F0000C258D04088589341A109B109B7FD6EC07D
:104F10008BAD9CADADADBEAD27962CAD3DAD4EADD0
:104F20005FAD2797821B930BA40BB50BB595A79587
:104F30009795879507FF03C08093780705C0EE9685
:104F4000EEADFFADEE978083CE57DF4F28813981DC
:104F50004A815B81C258D040AB962CAF3DAF4EAF7B
:104F60005FAFAB973FAD68963FAF689721964FAD67
:104F7000219769964FAF699722965FAD22976A96FF
:104F80005FAF6A9723968FAD23976B968FAF6B9722
:104F9000A7964CAE5DAE6EAE7FAEA797A2961FAE43
:104FA000A29724C021963FAD219722964FAD22971C
:104FB00023965FAD2397612F79ADC1010E9473D015
:104FC00087FF14C0D301C201A7962CAD3DAD4EADF5
:104FD0005FADA797821B930BA40BB50BAC01BD0172
:104FE000485853416109710977FF86C620E030E0D7
:104FF00040EA51E46FAD21967FAD219722968FADA7
:10500000229723969FAD23970E94DDD49B01AC018C
:10501000612F79ADC1010E9403D71816DCF4E9E9CC
:10502000F5E284918F010F5F1F4F882321F00E94CA
:10503000CC34F801F6CFEAEEF4E084918F010F5FF3
:105040001F4F811103C00E943C452AC40E94CC34EA
:10505000F801F3CFD301C201E4962CAD3DAD4EADC6
:105060005FADE497821B930BA40BB50BB7FDEDC0AE
:105070000E9403428AE00E94CC34D301C2018053D3
:10508000984FAF4FBF4FE4968CAF9DAFAEAFBFAF61
:10509000E497A3969FADA39791118BC0E8962CAD92
:1050A0003DAD4EAD5FADE897612F79ADC1010E9476
:1050B00003D718160CF041C020E030E040E85FE371
:1050C000612F79ADC1010E94DDD4E8966CAF7DAF50
:1050D0008EAF9FAFE897E0962CAD3DAD4EAD5FAD86
:1050E000E097240D351D461D571DEC962CAF3DAFA6
:1050F0004EAF5FAFEC9720E030E040EA50E46FAD98
:1051000021967FAD219722968FAD229723969FAD52
:1051100023970E94DCD49B01AC0181E0A3968FAF62
:10512000A397612F79ADC1010E9403D718160CF423
:105130008CC0A3961FAEA39788C0D301C201EC9682
:105140002CAD3DAD4EAD5FADEC97821B930BA40B28
:10515000B50BB7FD7AC019821A821B821C828EE2BF
:10516000AFA9B8AD1D928A95E9F76D96BFAD6D9761
:10517000BF930F93A6EAB3E0BF93AF9321E030E073
:105180002C0F3D1F3F932F930E9418D80F900F9024
:105190000F900F900F900F900F3F29F0013031F0DA
:1051A00046EC54E04CC043EB54E049C048ED54E0B9
:1051B00046C020E030E040EA51E46FAD21967FAD7B
:1051C000219722968FAD229723969FAD23970E9419
:1051D000DCD49B01AC01612F79ADC1010E9473D079
:1051E00087FF33C019821A821B821C828EE2AFA90C
:1051F000B8AD1D928A95E9F76D96BFAD6D97BF93D7
:105200000F93A6EAB3E0BF93AF9321E030E02C0FF9
:105210003D1F3F932F930E9418D80F900F900F902F
:105220000F900F900F900F3F29F0013031F04DE8B3
:1052300054E005C049E754E002C040EA54E0BE0132
:105240006F5F7F4F802F0E943D49D301C201880FBD
:10525000991FAA1FBB1FA7962CAD3DAD4EAD5FADEC
:10526000A797821B930BA40BB50B88199909AA0960
:10527000BB0981389F44A241B10568F0EBE5F4E039
:1052800084918F010F5F1F4F882309F4DCCE0E94A9
:10529000CC34F801F5CF29964EAD5FAD2997A19694
:1052A0008EAD9FADA197841795070CF09BCDEEEFC7
:1052B000F3E084915F019FEFA91AB90A882321F0D6
:1052C0000E94CC34F501F5CF07FD05C095E8A92E65
:1052D00093E0B92E04C084E1A82E83E0B82EB50176
:1052E0008DEE93E00E941596B701A60189EE93E03A
:1052F0000E949C958AE00E94CC34B50188ED93E031
:105300000E9415962F964CAD5DAD6EAD7FAD2F977B
:1053100084ED93E00E949C958AE00E94CC34B50114
:1053200083EC93E00E94159663964CAD5DAD6EAD37
:105330007FAD63978FEB93E00E949C958AE00E947B
:10534000CC34AC96AFADAC97AA2309F4A9C207FF41
:1053500031C0C092E907D092EA07E092EB07F092E1
:10536000EC072CEA35EC47E25EE32F966CAD7DADA1
:105370008EAD9FAD2F970E94D8D06093E5077093B4
:10538000E6078093E7079093E8072CEA35EC47E2BD
:105390005EE363966CAD7DAD8EAD9FAD63970E946D
:1053A000B9D56093E1077093E2078093E307909388
:1053B000E40776C2B4E00B0280011124F801EF5239
:1053C000F84FC082D182E282F382F801E753F84FAE
:1053D0005F012CEA35EC47E25EE32F966CAD7DADC4
:1053E0008EAD9FAD2F970E94D8D0D5016D937D9340
:1053F0008D939C9313970752184F2CEA35EC47E294
:105400005EE363966CAD7DAD8EAD9FAD63970E94FC
:10541000B9D5F801608371838283938341C280E5AB
:105420000E94D733882351F00E94A4336093E90788
:105430007093EA078093EB079093EC0789E40E944E
:10544000D733882381F00E94A4332CEA35EC47E25D
:105450005EE30E94D8D06093E5077093E6078093DF
:10546000E7079093E80784E40E94D733882381F00C
:105470000E94A4332CEA35EC47E25EE30E94B9D5E2
:105480006093E1077093E2078093E3079093E4074A
:10549000E3E9F5E284918F010F5F1F4F882321F02C
:1054A0000E94CC34F801F6CF4091E9075091EA0709
:1054B0006091EB077091EC078FEC95E00E949C9552
:1054C0002CEA35EC47E25EE36091E5077091E60770
:1054D0008091E7079091E8070E94B9D5AB01BC0124
:1054E0008BEC95E00E949C952CEA35EC47E25EE35C
:1054F0006091E1077091E2078091E3079091E407E2
:105500000E94D8D0AB01BC0187EC95E00E949C952D
:105510008AE00E94CC34C4C1E9E9F5E284918F01AC
:105520000F5F1F4F882321F00E94CC34F801F6CF83
:10553000E3EDF5E084918F010F5F1F4F882309F49D
:10554000AFC10E94CC34F801F5CF81E00E94B53A9A
:105550000E949F53A5C180E00E94B53A0E949F53CC
:105560009FC10E9425AF9CC10E94755C99C10E9499
:10557000908496C10E9477AE93C181E08093090A1E
:105580000E94C88C1092090A882309F489C1E3E9B2
:10559000F5E284918F010F5F1F4F882321F00E9455
:1055A000CC34F801F6CFE2EEF5E084918F010F5F85
:1055B0001F4F882309F474C10E94CC34F801F5CF41
:1055C0000E9405AE6DC181E080931D0283E50E94BB
:1055D0001E34882339F00E949533811161C10E94E5
:1055E000F3BE5EC183E50E94D733F7CF0E94AB8C38
:1055F00057C18091000A809300050091D105109158
:10560000D205F02E8091020A85FF14C0B8017727D9
:1056100087E396E00E94E09589E20E94CC348AE01C
:105620000E94CC344DE053E168E176E083E296E0FD
:105630000E94963A8091000AF81669F083E50E946C
:105640001E34882319F00E94953303C083E50E941D
:10565000D733F82E02C0FF24F39486E40E941E3450
:10566000882319F00E94A43303C060E070E0CB01EE
:1056700020E030E040E752E40E94B9D5AB01BC0124
:105680002F2D802F0E940DAC8091020A85FF14C03F
:105690004DE053E16AEF75E084E096E00E94963AAF
:1056A000EDEEF5E084918F010F5F1F4F882321F00D
:1056B0000E94CC34F801F6CF0091D10511E0809121
:1056C0000005081301C010E06091151370911613C6
:1056D00080911713909118132091A005222309F4AB
:1056E00083C0013009F080C0112309F47DC0EF961A
:1056F0006FAFEF97C158DF4F7883CF57D040CF5768
:10570000DF4F8883C158D040C058DF4F9883C058BE
:10571000D0400E94089920E030E040E450E4EF9649
:105720006FADEF97C158DF4F7881CF57D040CF573B
:10573000DF4F8881C158D040C058DF4F9881C05892
:10574000D0400E94DDD46B017C016093F809709316
:10575000F9098093FA099093FB090E940CB70E9403
:1057600008990E94B1640E941A40409148025091E9
:1057700049024A01550FAA08BB08DC01CB01881970
:105780009909AA09BB09B7FF03C00E94A06AEBCF21
:105790008090530990905409A0905509B0905609F3
:1057A000A5019401C701B6010E94DDD42091A9058D
:1057B0003091AA054091AB055091AC050E94DCD414
:1057C0006093151370931613809317139093181307
:1057D0008092A9059092AA05A092AB05B092AC0563
:1057E0000E94C63B0E949F538091A005882309F424
:1057F00057C0011155C0112309F452C00E940899E5
:105800000E94B56E0E941A408B019C018091480253
:1058100090914902BC01990F880B990B061B170B3D
:10582000280B390B37FF03C00E94A06AEBCF0E9400
:10583000AC3FC0904F09D0905009E0905109F090D2
:1058400052092091A9053091AA054091AB055091CC
:10585000AC05C701B6010E94DCD49B01AC0160918C
:1058600015137091161380911713909118130E94BD
:10587000DDD46093151370931613809317139093D0
:105880001813C092A905D092AA05E092AB05F09238
:10589000AC050E94C63B0E949F5302C00E94AB8C85
:1058A0001092A8080E94D6BEA7C30E9423A30E94FC
:1058B0000CB7F6CF11110C94D2180C94CB180E948F
:1058C0003D960C94DE1C40D70E9421D667387105A6
:1058D0000CF082C170937E0760937D070E94F244B2
:1058E00033D720E030E040EA50E40E9403D7181696
:1058F00014F40E943D9681E0809300028091000A9A
:1059000080938B071BAE1CAE1DAE1EAE2B961CAE3D
:105910001DAE1EAE1FAE2B9719AE2C961FAE2C9748
:105920002CE360962FAF60973CE164963FAF64979D
:1059300046E465964FAF6597C12CD12C40E8E42E24
:105940005FEBF52E812C912C540160917D077091B5
:105950007E07072E000C880B990B0E9479D0162F1A
:10596000072F782E692E262F372F482F592FB60153
:10597000C7010E9473D08823E1F02091790730910C
:105980007A0740917B0750917C07612F702F872DFC
:10599000962D0E9473D0881F8827881F89AF249670
:1059A0005FAD2497552349F0882339F08091000298
:1059B00077CF1C2D0D2D7E2C6F2C0E941A406B0171
:1059C0007C01DC01CB012B962CAD3DAD4EAD5FAD26
:1059D0002B97821B930BA40BB50BB7FD3AC0D701D5
:1059E000C60188519C4FAF4FBF4F2B968CAF9DAFD8
:1059F000AEAFBFAF2B970E940342E0E6F2E0849186
:105A00002F019FEF491A590A882319F0C5D7F201CF
:105A1000F6CF81149104A104B104B9F0D501C401F9
:105A20008854944FAF4FBF4FBC01CD016C197D0915
:105A30008E099F0928EE33E040E050E00E947FD4B9
:105A4000CA01B9010E94853702C08FE3A5D78AE059
:105A5000A3D70E94A06A0E941A406093A90870937D
:105A6000AA088093AB089093AC08A0917907AFAFD8
:105A7000B0917A072196BFAF2197E0917B072296DC
:105A8000EFAF2297F0917C072396FFAF23979D01FC
:105A9000AF01612F702F872D962D0E94DCD41B0142
:105AA0002C0120E030E0A9010E9403D787FF04C049
:105AB00057FA509457F8509481149104A104B104FA
:105AC00059F420E030E040E85FE3C201B1010E94F8
:105AD00073D087FF0DC00AC020E030E040E450E4FE
