:100000000C9495120C94C6120C94C6120C94C61241
:100010000C94C6120C94C6120C94C6120C94C61200
:100020000C94C6120C94C6120C94C6120C94C612F0
:100030000C94C6120C94C6120C94C6120C94C612E0
:100040000C94C6120C94BD4D0C94C6120C94C6129E
:100050000C94C6120C94C6120C94A15D0C94425AD6
:100060000C94C6120C94FE360C94C6120C94C61254
:100070000C94C6120C94C6120C94C6120C94C612A0
:100080000C94D1550C94C6120C94C6120C94C61242
:100090000C94C6120C94C6120C94C6120C94C61280
:1000A0000C94C6120C94C6120C94A3550C94C61250
:1000B0000C94C6120C94C6120C94C6120C9475556E
:1000C0000C94C6120C94C6120C94C6120C94C61250
:1000D0000C94C6120C94C6120C94C6120C94C61240
:1000E0000C94C61234373B374F375C37663780374E
:1000F0006B3780377037753780377D375E59635976
:10010000685972597C59F55986598E599659A05992
:10011000AA59B459C359CD59F559D759E159EB5991
:100120004D5E525E7C5E815E615E6D5E375E2B620F
:100130002E621D62216227626562326236623C6213
:10014000406244624A624E625262656258625C6218
:100150006062084AD73B3BCE016E84BCBFFDC12F15
:100160003D6C74319ABD56833DDA3D00C77F11BEA8
:10017000D9E4BB4C3E916BAAAABE000000803F05AB
:10018000A84CCDB2D44EB93836A9020C50B99186DC
:1001900088083CA6AAAA2ABE000000803F004E4163
:1001A0004E494E495459494E46CDCCCC3D0AD723F1
:1001B0003C17B7D13877CC2B329595E6241FB14F39
:1001C0000A000020410000C84200401C4620BCBE7E
:1001D0004CCA1B0E5AAEC59D744C4556454C494EF3
:1001E0004700434F4D4D554E49434154494F4E00F2
:1001F00044525952554E004552524F525300494EA7
:10020000464F004543484F003C3C3C2067636F64C9
:10021000655F4732380A00203A203E2028686F6D1B
:10022000655F616C6C207C7C20686F6D655A29204D
:100230003E2066696E616C0A0020206375727265EB
:100240006E745F706F736974696F6E3D00203A2041
:100250003E20686F6D65580A0020206375727265D4
:100260006E745F706F736974696F6E3D00203A2021
:100270003E20686F6D65590A0020206375727265B3
:100280006E745F706F736974696F6E3D005261695F
:100290007365205A20286265666F726520686F6DED
:1002A000696E672920746F20003E20656E64737448
:1002B0006F70732E656E61626C6528747275652946
:1002C0000A003E3E3E2067636F64655F4732380A2E
:1002D00000205A3A200020593A20004265642058F4
:1002E0003A20004D65736820706F696E74206361F9
:1002F0006E6E6F74206265207265736F6C766564D4
:100300000A005072696E742074696D653A200000AD
:100310000136372603FF3C3D380EFF2E303E12FFDC
:10032000FF0C0809FFFFFF1A1C18FFFF24221EFF05
:10033000FF08440AFF4307FF45FFFFFFFFFFFF5091
:10034000726F7465637465642050696E0A006D0095
:1003500046696C616D656E7420757365643A200042
:1003600053746174733A20002C204C6F6E67657370
:1003700074206A6F623A2000546F74616C20746953
:100380006D653A200053746174733A20002C204646
:1003900061696C65643A20002C2046696E69736857
:1003A00065643A20005072696E74733A2000537489
:1003B0006174733A20000302FE01F701F001E201CB
:1003C000D9016F66660044454255473A004D3131C8
:1003D000332053006F6B0020573A004361703A4559
:1003E0004D455247454E43595F5041525345523A4D
:1003F000310A004361703A434153455F4C494748D5
:10040000545F4252494748544E4553533A300A00CC
:100410004361703A544F47474C455F4C49474854F5
:10042000533A300A004361703A534F465457415291
:10043000455F504F5745523A300A004361703A4C7D
:100440004556454C494E475F444154413A310A00B4
:100450004361703A5A5F50524F42453A310A004365
:1004600061703A4155544F4C4556454C3A310A005B
:100470004361703A5052494E545F4A4F423A310AF2
:10048000004361703A50524F47524553533A300A35
:10049000004361703A4155544F5245504F52545F9A
:1004A00054454D503A310A004361703A4545505227
:1004B0004F4D3A310A004649524D574152455F4E21
:1004C000414D453A4D61726C696E20312E312E34AA
:1004D0002E362E3220284769746875622920534FC2
:1004E000555243455F434F44455F55524C3A6874FB
:1004F0007470733A2F2F6769746875622E636F6D1D
:100500002F4D61726C696E4669726D776172652FED
:100510004D61726C696E2050524F544F434F4C5F87
:1005200056455253494F4E3A312E30204D414348A3
:10053000494E455F545950453A3344205072696ED4
:100540007465722045585452554445525F434F5587
:100550004E543A3220555549443A636564653261D8
:1005600032662D343161322D343734382D396231D1
:10057000322D6335356336326633363766660A00A8
:100580002F2F20007A5F6D696E3A2000795F6D69C8
:100590006E3A2000785F6D696E3A20005265706F88
:1005A0007274696E6720656E6473746F7020737403
:1005B000617475730A0043290A0061626C656420E6
:1005C000286D696E2074656D702000436F6C642027
:1005D00065787472756465732061726520004F667A
:1005E000660A004661646520486569676874200092
:1005F000426564204C6576656C696E6720004661D3
:10060000696C656420746F20656E61626C65204260
:100610006564204C6576656C696E670A004D65738C
:100620006820706F696E742063616E6E6F742062F3
:1006300065207265736F6C7665640A004D343231E3
:1006400020696E636F727265637420706172616D90
:10065000657465722075736167650A00546F6F2059
:100660006661722066726F6D207265666572656E76
:10067000636520706F696E740A003A20007A5F6DBE
:10068000696E3A20202D3230207A5F6D61783A20F1
:10069000203230005A204F666673657420004E6F1A
:1006A0002063617365206C696768740A003C3C3C98
:1006B0002067636F64655F540A00203A2041465406
:1006C00045520A00202063757272656E745F706F08
:1006D000736974696F6E3D00203A204245464F525F
:1006E000450A00202063757272656E745F706F73C7
:1006F0006974696F6E3D003E3E3E2067636F6465BE
:100700005F542800556E6B6E6F776E20636F6D6D52
:10071000616E643A2022004B494C4C45442E200027
:100720002569730025696D20256973002569682096
:1007300025696D2025697300256964202569682075
:1007400025696D2025697300256979202569642054
:100750002569682025696D20256973002C20002CEF
:100760002000203A2073796E635F706C616E5F7059
:100770006F736974696F6E0A002020637572726509
:100780006E745F706F736974696F6E3D00656E7132
:1007900075657565696E672022004E6F204C696E25
:1007A00065204E756D626572207769746820636894
:1007B00065636B73756D2C204C617374204C696E8E
:1007C000653A20005072696E7465722073746F70A0
:1007D0007065642064756520746F206572726F7235
:1007E000732E2046697820746865206572726F7276
:1007F00020616E6420757365204D39393920746F1E
:1008000020726573746172742E202854656D706552
:100810007261747572652069732072657365742ED8
:100820002053657420697420616674657220726556
:100830007374617274696E67290A004E6F20436891
:1008400065636B73756D2077697468206C696E657C
:10085000206E756D6265722C204C617374204C693A
:100860006E653A2000636865636B73756D206D6912
:10087000736D617463682C204C617374204C696ED5
:10088000653A20004C696E65204E756D6265722078
:100890006973206E6F74204C617374204C696E65AF
:1008A000204E756D6265722B312C204C6173742063
:1008B0004C696E653A20004D3131300020496E762A
:1008C000616C6964206578747275646572200000DB
:1008D00000000000000000000040C000006643006F
:1008E000808943000052430A20736F66745F656E0F
:1008F0006473746F705F6D6178203D20000A20730F
:100900006F66745F656E6473746F705F6D696E207F
:100910003D20000A20706F736974696F6E5F7368A1
:10092000696674203D200020617869733A0A206866
:100930006F6D655F6F6666736574203D2000466F5E
:100940007220003C3C3C20646F5F626C6F636B699B
:100950006E675F6D6F76655F746F0A003E3E3E2086
:10096000646F5F626C6F636B696E675F6D6F7665F6
:100970005F746F00203A2073657475705F666F72E4
:100980005F656E6473746F705F6F725F70726F62B9
:10099000655F6D6F76650A00202063757272656E03
:1009A000745F706F736974696F6E3D00203A2063E5
:1009B0006C65616E5F75705F61667465725F656EB0
:1009C0006473746F705F6F725F70726F62655F6D7A
:1009D0006F76650A00202063757272656E745F70B1
:1009E0006F736974696F6E3D006465706C6F793AFE
:1009F0002000203A207365745F70726F62655F64D7
:100A000065706C6F7965640A002020637572726589
:100A10006E745F706F736974696F6E3D0072657399
:100A200065745F6265645F6C6576656C0A0020289A
:100A3000646F6E65290A004578747261706F6C612D
:100A40007465205B0042696C696E656172204C655B
:100A500076656C696E6720477269643A0A0053755F
:100A600062646976696465642077697468204341CB
:100A7000544D554C4C20524F4D204C6576656C6959
:100A80006E6720477269643A0A003C3C3C20676309
:100A90006F64655F4732390A0020636F7272656365
:100AA000746564205A3A0047323920756E636F725C
:100AB000726563746564205A3A00203A203E2070C3
:100AC000726F62696E6720636F6D706C6574650A22
:100AD00000202063757272656E745F706F73697445
:100AE000696F6E3D0052756E6E696E6720696E208B
:100AF0004452592D52554E206D6F64650A0047329D
:100B000039204175746F20426564204C6576656CB0
:100B1000696E670A0028422961636B0028462972C2
:100B20006F6E74002852296967687400284C296523
:100B30006674003F2856296572626F7365206C6584
:100B400076656C20697320696D706C61757369627C
:100B50006C652028302D34292E0A00426164205A09
:100B60002076616C75650A004E6F2062696C696E53
:100B700065617220677269640A00203A203E3E3E39
:100B80002067636F64655F4732390A002020637510
:100B90007272656E745F706F736974696F6E3D0019
:100BA0005374616E6461726420446576696174692E
:100BB0006F6E3A20002052616E67653A2000204D2A
:100BC00061783A2000204D696E3A20004D65616ED3
:100BD0003A200046696E697368656421002072617D
:100BE0006E67653A2000206D61783A2000206D69BB
:100BF0006E3A2000207369676D613A2000206D65B0
:100C0000616E3A20003A207A3A2000206F66200078
:100C1000205A00205900205800476F696E672074E1
:100C20006F3A00436C6F636B776973650A00436FBB
:100C3000756E7465722D0020446972656374696F06
:100C40006E3A2000202020616E676C653A200053C8
:100C500074617274696E67207261646975733A2099
:100C600000506F736974696F6E696E672074686590
:100C70002070726F62652E2E2E0A003F4E756D62D7
:100C80006572206F66206C65677320696E206D6FDA
:100C900076656D656E74206E6F7420706C6175730F
:100CA00069626C652028302D3135292E0A005900E3
:100CB00058003F53616D706C652073697A65206ED2
:100CC0006F7420706C61757369626C652028342DB7
:100CD0003530292E0A004D3438205A2D50726F625B
:100CE00065205265706561746162696C6974792010
:100CF000546573740A003F2856296572626F7365E4
:100D0000206C6576656C20697320696D706C617507
:100D10007369626C652028302D34292E0A006275B3
:100D200073793A2070617573656420666F7220690B
:100D30006E7075740A00627573793A20706175730C
:100D4000656420666F7220757365720A0062757340
:100D5000793A2070726F63657373696E670A004B2E
:100D6000494C4C45442E20004B494C4C2063617546
:100D700073656420627920746F6F206D75636820DD
:100D8000696E6163746976652074696D65202D20D4
:100D900063757272656E7420636F6D6D616E643A17
:100DA00020005072696E7465722068616C746564AD
:100DB0002E206B696C6C28292063616C6C65642142
:100DC0000A000000000000000000000000003C3CA1
:100DD0003C207365745F617869735F69735F6174E8
:100DE0005F686F6D652800203A200A002020637537
:100DF0007272656E745F706F736974696F6E3D00B7
:100E00005D203D20003E20686F6D655F6F666673F4
:100E100065745B003E207A70726F62655F7A6F6600
:100E200066736574203D20002A2A2A205A20484FE4
:100E30004D454420574954482050524F42452028A0
:100E40005A5F4D494E5F50524F42455F555345538F
:100E50005F5A5F4D494E5F454E4453544F505F506B
:100E6000494E29202A2A2A0A003E3E3E20736574F4
:100E70005F617869735F69735F61745F686F6D65E7
:100E80002800000020420000204200002041000015
:100E900000005761726E696E673A20486F6D696E27
:100EA000672042756D702044697669736F72203CCB
:100EB00020310A00020204000066430080894300DA
:100EC0000055433C3C3C20686F6D65617869732830
:100ED00000203A203E204146544552207365745FFD
:100EE000617869735F69735F61745F686F6D650ACC
:100EF00000202063757272656E745F706F73697421
:100F0000696F6E3D00486F6D65203220536C6F77BE
:100F10003A0A004D6F766520417761793A0A0048B8
:100F20006F6D65203120466173743A0A00FFFFFF40
:100F30003E3E3E20686F6D656178697328004163AD
:100F4000746976652045787472756465723A20001C
:100F5000203A204D6F7665206261636B0A00202085
:100F600064657374696E6174696F6E3D00203A2028
:100F700053796E6320416674657220546F6F6C63A1
:100F800068616E67650A00202063757272656E7411
:100F90005F706F736974696F6E3D00207D0A002C6D
:100FA00020004F666673657420546F6F6C2058592B
:100FB000206279207B20004E6F206D6F7665206F58
:100FC0006E20746F6F6C6368616E67650A004572AE
:100FD000726F722077726974696E6720746F204532
:100FE0004550524F4D210A0024F4D43050C38E2076
:100FF000C2A24017828B7011127A910D816CD90AAE
:10100000A861E108C7586607615143061E4B5D059C
:10101000C145A7041A411104093D980371393103F0
:101020004036DB0265339102D4305402802E1D021B
:10103000632CEE01752AC501B028A001102781019B
:101040008F2564012B244B01E0223401AC211F01C8
:101050008D200D01801FFC00841EED00971DDF0018
:10106000B81CD200E61BC600201BBC00641AB200EC
:10107000B219A8000A19A0006A189900D1179100A6
:1010800040178B00B516840031167E00B315790029
:101090003A157300C7146F0058146A00EE13660007
:1010A0008813630025135E00C7125B006C125700A3
:1010B00015125400C111510070114F0021114B0045
:1010C000D61049008D10470046104400021042001F
:1010D000C00F4000800F3E00420F3C00060F3B0057
:1010E000CB0E3800930E37005C0E3500270E34000F
:1010F000F30D3200C10D3100900D3000600D2E0057
:10110000320D2D00050D2C00D90C2B00AE0C290042
:10111000850C29005C0C2700350C27000E0C2600DE
:10112000E80B2400C40B2400A00B23007D0B23003C
:101130005A0B2100390B2100180B2000F80A1F0060
:10114000D90A1E00BB0A1E009D0A1D00800A1D0050
:10115000630A1C00470A1B002C0A1B00110A1A0014
:10116000F7091A00DD091900C4091900AB091900B3
:10117000920917007B091800630917004C09160033
:1011800036091600200916000A091500F508150091
:10119000E0081400CC081400B8081400A4081400D7
:1011A000900813007D0812006B0813005808120005
:1011B000460812003408110023081100120811001B
:1011C00001081100F0071000E0071000D007100020
:1011D000C0071000B0070F00A107100091070E0014
:1011E00083070F0074070F0065070E0057070E00F6
:1011F00049070E003B070D002E070E0020070D00CB
:1012000013070D0006070D00F9060C00ED060D0092
:10121000E0060C00D4060C00C8060C00BC060C004E
:10122000B0060C00A4060B0099060C008D060B00FE
:1012300082060B0077060B006C060B0061060A00A5
:1012400057060B004C060A0042060A0038060A0040
:101250002E060A0024060A001A060A0010060900D3
:1012600007060A00FD050900F4050900EB05090061
:10127000E2050900D9050900D0050900C7050900E4
:10128000BE050900B5050800AD050800A505090063
:101290009C050800940508008C05080084050800DA
:1012A0007C050800740508006C050700650508004A
:1012B0005D050700560508004E05070047050700B5
:1012C0004005080038050700310507002A0507001A
:1012D000230507001C050600160507000F0507007B
:1012E0000805060002050700FB040600F5040700D8
:1012F000EE040600E8040600E2040700DB04060032
:10130000D5040600CF040600C9040600C304060085
:10131000BD040600B7040600B1040500AC040600D5
:10132000A6040600A00405009B0406009504050021
:10133000900406008A040500850405008004060068
:101340007A04050075040500700405006B040500AF
:1013500066040500610405005C04050057040500EF
:10136000520405004D04050048040500430405002F
:101370003E0404003A04050035040500300404006E
:101380002C04050027040400230405001E040400A7
:101390001A04040016040500110404000D040400DE
:1013A000090405000404040000040400FC03040014
:1013B000F8030400F4030400F0030400EC03040049
:1013C000E8030400E4030400E0030400DC03040079
:1013D000D8030400D4030400D0030400CC030400A9
:1013E000C8030300C503030024F404D9201BC40C64
:1013F0005C0E9804C4095F0265077101F405F900E9
:10140000FB04B30048048700C1036900580355007A
:1014100003034500BE023A008402310053022A0051
:101420002902250004022000E4011C00C801190063
:10143000AF0117009801140084011300710110001E
:101440006101100051010E0043010D0036010B0037
:101450002B010B0020010B00150109000C010900F4
:1014600003010800FB000800F3000800EB00070080
:10147000E4000600DE000600D8000600D2000600E8
:10148000CC000500C7000500C2000500BD00040037
:10149000B9000400B5000400B1000400AD00040070
:1014A000A9000400A5000300A20003009F0004009F
:1014B0009B000300980003009500020093000300C6
:1014C000900003008D0002008B00030088000200E2
:1014D0008600020084000300810002007F000200F9
:1014E0007D0002007B00020079000200770001000D
:1014F0007600020074000200720001007100020018
:101500006F0002006D0001006C0002006A00010023
:10151000690002006700010066000100650001002B
:10152000640002006200010061000100600001002F
:101530005F0002005D0001005C0001005B00010033
:101540005A00010059000100580001005700010035
:101550005600010055000100540001005300000036
:101560005300010052000100510001005000010031
:101570004F0001004E0000004E0001004D00010030
:101580004C0001004B0000004B0001004A0001002C
:101590004900010048000000480001004700010028
:1015A0004600000046000100450000004500010023
:1015B000440001004300000043000100420000001D
:1015C0004200010041000000410001004000010014
:1015D0003F0000003F0001003E0000003E0001000F
:1015E0003D0000003D0001003C0000003C00000008
:1015F0003C0001003B0000003B0001003A000000FD
:101600003A000100390000003900010038000000F4
:1016100038000000380001003700000037000100EA
:1016200036000000360000003600010035000000E2
:1016300035000000350001003400000034000000D7
:1016400034000100330000003300000033000100CB
:1016500032000000320000003200010031000000C2
:1016600031000000310001003000000030000000B7
:10167000300001002F0000002F0000002F000000AC
:101680002F0001002E0000002E0000002E0001009F
:101690002D0000002D0000002D0000002D00010095
:1016A0002C0000002C0000002C0000002C00010089
:1016B0002B0000002B0000002B0000002B0001007D
:1016C0002A0000002A0000002A0000002A00010071
:1016D0002900000029000000290000002900000066
:1016E0002900010028000000280000002800000058
:1016F000280000002800010027000000270000004B
:10170000270000002700000027000100260000003D
:101710002600000026000000260000002600010030
:101720002500000025000000250000002500000025
:101730002500000025000100240000002400000016
:101740002400000024000000240001002300000009
:1017500023000000230000002300000023000000FD
:1017600023000000230001002200000022000000EE
:1017700022000000220000002200000022000100E0
:1017800021000000210000002100000021000000D5
:1017900021000000210000002100010020000000C5
:1017A00020000000200000002000000020000000B9
:1017B0002000000020000000200001001F000000A9
:1017C0001F0000001F0000001F0000001F0000009D
:1017D0001F0000001F0001001E0000001E0000008E
:1017E0001E0000001E0000006265640A002C2073C9
:1017F000797374656D2073746F707065642120480F
:1018000065617465725F49443A2000486561746996
:101810006E67206661696C65640048656174696E15
:1018200067206661696C65640048656174696E670C
:10183000206661696C65640048656174696E672043
:101840006661696C65640070012C0190012701B02C
:10185000012201C0011D01F0011801100213013025
:10186000020E016002090190020401C002FF0000A3
:1018700003FA004003F5008003F000D003EB0020E2
:1018800004E6007004E100E004DC004005D700C07D
:1018900005D2004006CD00D006C8008007C3003046
:1018A00008BE00F008B900C009B400B00AAF00B02B
:1018B0000BAA00D00CA500000EA000500F9B00C08A
:1018C0001096005012910000148C00C0158700B0D3
:1018D000178200B0197D00D01B7800001E730040F5
:1018E000206E0090226900F024640040275F009081
:1018F000295A00E02B5500102E500020304B0010CC
:10190000324600E033410090353C0010373700701C
:10191000383200A0392D00B03A2800A03B230060E7
:101920003C1E00103D1900903D1400103E0F007049
:101930003E0A00C03E0500003F0000403FFBFF8024
:101940003FF6FFC03FF1FF4572723A204D494E54B9
:10195000454D5020424544004572723A204D494E53
:1019600054454D50004D494E54454D5020747269B8
:10197000676765726564004572723A204D4158543C
:10198000454D5020424544004572723A204D415821
:1019900054454D50004D415854454D502074726986
:1019A0006767657265640000002100240027002A33
:1019B000002D003000330001010000040107010A7E
:1019C0000100002200250028002B002E00310034E9
:1019D0000002010000050108010B0100000A0B02D2
:1019E000090C0D0E080703040100000000000000B0
:1019F00000000000000000000000000000000000E7
:101A000000000000000000121110000000000000A3
:101A100000000000000000000000000000000000C6
:101A2000004B494C4C45442E2000202D20496E7619
:101A3000616C6964206578747275646572206E7576
:101A40006D62657220210A004572726F723A002041
:101A500020506C616E6E6572427566666572427981
:101A60007465733A20002046726565204D656D6F80
:101A700072793A2000436F6D70696C65643A204D4D
:101A8000617920333120323031390A00207C204105
:101A90007574686F723A20286E6F6E652C206465CD
:101AA0006661756C7420636F6E666967290A00321F
:101AB0003031372D30372D30342031323A3030004C
:101AC000204C61737420557064617465643A200021
:101AD000312E312E342E362E320A004D61726C6951
:101AE0006E0020536F66747761726520526573656E
:101AF000740A00205761746368646F6720526573CD
:101B000065740A002042726F776E206F75742052E0
:101B1000657365740A002045787465726E616C2087
:101B200052657365740A00506F77657255700A00CC
:101B300073746172740A00205A3A0020593A0020E6
:101B4000583A00656E6473746F7073206869743AF4
:101B50002000290A002062797465733B2063726358
:101B6000200053657474696E67732053746F7265D7
:101B700064202800202863616C63756C617465645F
:101B800029210A0020213D2000454550524F4D207B
:101B9000435243206D69736D61746368202D202862
:101BA00073746F726564292000290A0020627974B9
:101BB00065733B2063726320002073746F726564E9
:101BC0002073657474696E677320726574726965D9
:101BD000766564202800204D61726C696E3D563335
:101BE00039290A0028454550524F4D3D0045455082
:101BF000524F4D2076657273696F6E206D69736DFB
:101C000061746368200020746F6F206C6F6E6720B2
:101C1000657874727573696F6E2070726576656E23
:101C20007465640A0020636F6C6420657874727553
:101C300073696F6E2070726576656E7465640A00F4
:101C4000205A00205900580020204D61783A200089
:101C5000205A00205900580020204D696E3A20007B
:101C60004F6E20004F666600536F667420656E6489
:101C700073746F70733A2000486F74656E64206FE0
:101C80006666736574733A00206F7574206F662002
:101C900072616E67650A00536572766F20003A20A4
:101CA0000020536572766F200020643A0020693A64
:101CB0000020703A0020653A0020643A0020693A1A
:101CC0000020703A004B64200023646566696E65ED
:101CD000202044454641554C545F004B6920002369
:101CE000646566696E65202044454641554C545FE5
:101CF000004B70200023646566696E6520204445B2
:101D00004641554C545F00504944204175746F74EE
:101D1000756E652066696E6973686564212050750B
:101D20007420746865206C617374204B702C204B98
:101D30006920616E64204B6420636F6E7374616E02
:101D400074732066726F6D2062656C6F7720696EA8
:101D5000746F20436F6E66696775726174696F6E28
:101D60002E680A00504944204175746F74756E6581
:101D7000206661696C6564212074696D656F757496
:101D80000A00504944204175746F74756E65206671
:101D900061696C6564212054656D7065726174754C
:101DA000726520746F6F20686967680A00204B6451
:101DB0003A2000204B693A2000204B703A20000A5C
:101DC00020436C617373696320504944200A0054B6
:101DD0003A2000413A20002054753A2000204B75EB
:101DE0003A2000206D61783A2000206D696E3A201B
:101DF0000020643A200020626961733A20003C3C74
:101E00003C20646F5F686F6D696E675F6D6F7665AC
:101E100028002C20002C20003E3E3E20646F5F688E
:101E20006F6D696E675F6D6F7665280047322F476B
:101E3000332062616420706172616D6574657273D4
:101E40000A0041424C2041646A7573746D656E747A
:101E5000205A002028656E61626C6564290A0020A2
:101E60002864697361626C6564290A0042494C49BF
:101E70004E454152004175746F20426564204C65A7
:101E800076656C696E673A2000204E6F7A7A6C65D1
:101E9000290A0020262041626F7665002026205303
:101EA000616D65205A2061730020262042656C6FA9
:101EB00077002D4261636B002028526967687400C7
:101EC000205A3A0020593A0050726F6265204F66DE
:101ED0006673657420583A004649585F4D4F554E19
:101EE0005445445F50524F42450A0050726F62653C
:101EF0003A2000436F72650A004D616368696E6540
:101F000020547970653A200020706F736974696F8E
:101F10006E206F7574206F662072616E67652E0A81
:101F2000003F50726F6265200048617264636F64A5
:101F300065642044656661756C74205365747469CA
:101F40006E6773204C6F616465640A00F4010000E1
:101F5000F401000032000000DC05000000007A44BB
:101F600000007A44000048420000C8420000A0423D
:101F70000000A0420000484400004C4320204D389F
:101F80003531205A005A2D50726F6265204F6666B7
:101F900073657420286D6D293A0A00204400204999
:101FA0000020204D333034205000204400204900D0
:101FB00020204D3330312045312050002044002076
:101FC000490020204D33303120453020500020443E
:101FD0000020490020500020204D333031204500A2
:101FE0005049442073657474696E67733A0A00201F
:101FF0005A0020204D3432302053004175746F2038
:10200000426564204C6576656C696E673A0A00200B
:10201000590020580020204D323138205400486F9C
:1020200074656E64206F6666736574733A0A002087
:102030005A0020590020204D323036205800486F79
:102040006D65206F66667365743A0A00204500204E
:102050005A0020590020580020420020540020201F
:102060004D323035205300416476616E6365643AC9
:1020700020533C6D696E5F66656564726174653E90
:1020800020543C6D696E5F74726176656C5F666545
:102090006564726174653E20423C6D696E5F736574
:1020A000676D656E745F74696D655F6D733E205812
:1020B0003C6D61785F78795F6A65726B3E205A3C4F
:1020C0006D61785F7A5F6A65726B3E20453C6D6139
:1020D000785F655F6A65726B3E0A0020540020528B
:1020E0000020204D323034205000416363656C6520
:1020F000726174696F6E2028756E6974732F733204
:10210000293A20503C7072696E745F616363656C3C
:102110003E20523C726574726163745F61636365F3
:102120006C3E20543C74726176656C5F61636365DC
:102130006C3E0A00204500205A0020590020204D06
:102140003230312058004D6178696D756D204163E2
:1021500063656C65726174696F6E2028756E697451
:10216000732F7332293A0A00204500205A00205963
:102170000020204D3230332058004D6178696D7554
:102180006D206665656472617465732028756E697B
:1021900074732F73293A0A00204500205A002059F1
:1021A0000020204D39322058005374657073207020
:1021B000657220756E69743A0A0020204D32303005
:1021C0002044300A0020204D323030205431204449
:1021D0000020204D32303020440020446973616279
:1021E0006C65640A0046696C616D656E7420736588
:1021F0007474696E67733A002020473231202020C2
:10220000203B20556E69747320696E206D6D0A0045
:10221000544845524D414C2052554E41574159006A
:10222000546865726D616C2052756E6177617900DA
:10223000000020002300260029002C002F0032007F
:102240000001000003010601090105050505070558
:1022500008080808020202020A0A08080404040422
:10226000010101010101010103030303030303034E
:10227000040707070C0C0C0C0C0C0C0C02020202DD
:1022800006060606060606060B0B0B0B0B0B0B0BC6
:102290000102102020080810204010204080020178
:1022A000020108040201010204081020408080405D
:1022B000201008040201800402018040201008045C
:1022C00002010804020101020408102040800102FA
:1022D000040810204080202F002040002042403A77
:1022E0000020403A0020573A00205A3A0020423A53
:1022F0000020436F756E7420413A0020453A00205B
:102300005A3A0020593A00583A0053657474696E7D
:10231000672054726176656C20416363656C6572F9
:102320006174696F6E3A200053657474696E67203A
:102330005265747261637420416363656C65726198
:1023400074696F6E3A200053657474696E6720502B
:1023500072696E7420416363656C65726174696F44
:102360006E3A200053657474696E67205072696E0E
:102370007420616E642054726176656C20416363E1
:10238000656C65726174696F6E3A20000000A04050
:102390000000A04000000040204469736372657033
:1023A000616E63793A00326E642050726F6265200C
:1023B0005A3A00203A203C3C3C2072756E5F7A5FAE
:1023C00070726F62650A00202063757272656E74A8
:1023D0005F706F736974696F6E3D00317374205064
:1023E000726F6265205A3A00203A203E3E3E2072CB
:1023F000756E5F7A5F70726F62650A002020637588
:102400007272656E745F706F736974696F6E3D0090
:102410003C3C3C2070726F62655F70740A00205A09
:102420003A200020593A200042656420583A2000A2
:10243000203A200A00202063757272656E745F7006
:102440006F736974696F6E3D0073746F77290A004A
:102450002C20002C20003E3E3E2070726F62655F93
:1024600070742800203A203C3C3C20646F5F7072FE
:102470006F62655F6D6F76650A002020637572720A
:10248000656E745F706F736974696F6E3D00203A9A
:10249000203E3E3E20646F5F70726F62655F6D6FBD
:1024A00076650A00202063757272656E745F706FC6
:1024B000736974696F6E3D00646F5F70726F6265FF
:1024C0005F726169736528002066697273740A001F
:1024D0005A0059005800486F6D6520006563686FA9
:1024E0003A00526573656E643A20006F6B00207489
:1024F0006F6F206C6F6E6720657874727573696F8B
:102500006E2070726576656E7465640A0020636F74
:102510006C6420657874727573696F6E2070726573
:1025200076656E7465640A00F6BA11241FBECFEF9B
:10253000D1E2DEBFCDBF00E00CBF15E0A0E0B2E00D
:10254000E8E5FFE801E00BBF02C007900D92AE374F
:10255000B107D9F723E1AEE7B5E001C01D92A83C71
:10256000B207E1F712E1C5E9D2E100E006C0219728
:102570000109802FFE010E9482C7C439D10780E083
:102580000807A9F70E9438B70C94AAC70C9400005A
:102590002F923F924F925F926F927F928F929F9273
:1025A000AF92BF92CF92DF92EF92FF920F931F9361
:1025B000CF93DF93CDB7DEB7E1970FB6F894DEBFC8
:1025C0000FBECDBF00910A0E20E6029F80011124AC
:1025D0000D551A4F8091191080FF1AC0ECEDF4E2EE
:1025E00084917F013FEFE31AF30A811102C0780161
:1025F00004C00E949E2FF701F3CFD7018D917D017A
:10260000882319F00E949E2FF8CF8AE00E949E2F07
:1026100081E090E09093A5078093A407109224078F
:10262000109223078FE380932F0710922E071092AA
:102630002D07109298051092990510929A05109204
:102640009B05F80180810F5F1F4F8032D1F38E34DC
:10265000B1F4818190ED980F9A3020F08D3211F015
:102660008B3269F43296DF0131962C9120532A3057
:10267000D0F3CD01FC01019620812032D9F3F093F3
:10268000AE07E093AD077F01BFEFEB1AFB0A1081A5
:102690006AE270E0C7010E948AC7009731F0FC012E
:1026A000319780818032E1F311821D3429F0143595
:1026B00019F0173409F0CFC0F70180812FEFE21A2B
:1026C000F20A8032C9F380538A3008F0C4C01093F4
:1026D0002F0720912D0730912E074AE03196429F17
:1026E000C001439F900D1124DF0111972C91022E00
:1026F000000C330B20533109280F391F8081805380
:102700008A3060F330932E0720932D07DF01319636
:102710008C918032D9F31D3449F00091AD0740917E
:1027200023075091240761E070E058C02E31310535
:1027300091F03CF42731310571F02C31310569F706
:102740000AC0253731054CF32737310524F0203AEC
:1027500043E0340711F7B0932407A09323077BC00D
:10276000813209F445C09FEBB92EB80E89E1A82E3D
:10277000AB1408F45EC0DF01FD0190811196903228
:10278000D9F3A0EDA90FAA3008F047C04F01EB2CF8
:10279000F12C6701A3E0D594C794AA95E1F7C6018F
:1027A00088569A4F6C018B2D8770DB0102C0AA0FEF
:1027B000BB1F8A95E2F7CD01D6019C91892B8C93A2
:1027C00081149104A1F1801AC70182589A4FDC014B
:1027D0008C92808181548A3188F5DF01FD01319628
:1027E0008C918111BDCF509324074093230733C0B0
:1027F0001D3409F0B8CF2032310509F0B4CFF09381
:102800002407E093230763E270E0CF010E948AC7A8
:10281000009709F1DC011C921EC0A3EDA90FA230A4
:1028200008F4B4CF9B3211F00C947927AFCF812CF0
:10283000CBCF4115510569F6AD01CBCFDF01319604
:102840009C9190539A30D0F3CD01FC010196A08168
:10285000A032D9F3C2CF80912F078D3409F4B6C4CA
:10286000843511F40C947D26873411F00C9458278C
:1028700020912D0730912E072C31310509F484C0A9
:102880007CF4243031053CF422303105BCF537FFAF
:1028900029C00C94722724303105C9F10C94722799
:1028A0002A32310509F4A7C354F42D31310509F456
:1028B00039C22E31310509F439C20C9472272B35F7
:1028C000310509F4BBC22C35310509F4BEC22A35E5
:1028D000310511F00C9472271092A205109221106C
:1028E0000C94722780912A02882311F40C94722789
:1028F0000E940C890E94E4AC0C94722781E0223083
:10290000310509F080E00E94AE890C94722780E5C1
:102910000E94C72E882329F00E94252E6B017C017E
:1029200003C0C12CD12C760183E50E94C72E8823D9
:1029300061F00E94652E20E030E04AE754E40E94F6
:1029400082C00E94D0C56B017C010E9406620E9479
:10295000932F8091AF079091B007A091B107B091EC
:10296000B207C80ED91EEA1EFB1E0E94365ADC01B1
:10297000CB018C199D09AE09BF09B7FD02C00C94AB
:1029800072270E941648F1CF0E9442888091191048
:1029900085FF0EC0E2ECF2E084918F010F5F1F4FC4
:1029A000882321F00E949E2FF801F6CF0E94BE8658
:1029B0000E94066280E00E942F2DA0905410AAA2CF
:1029C00021E040E050E0BA0180E00E94E3430E9431
:1029D00076368091191085FF0CC0E9EAF2E0849107
:1029E0008F010F5F1F4F882321F00E949E2FF80157
:1029F000F6CF11E010935D0288E50E94982E382EE4
:102A000089E50E94982E082F8AE50E94982E282E8C
:102A1000311004C0011104C0182705C0011102C003
:102A200010E001C0182F0E946B2D111105C031104C
:102A300003C0002309F43FC120E030E040EA50E445
:102A400060911510709116108091171090911810C8
:102A50000E9487C46B017C016093C1077093C20719
:102A60008093C3079093C407209101103091021006
:102A700040910310509104100E94ADC61816E4F462
:102A80008091191085FF09C0B701A6018DE892E079
:102A90000E9439568AE00E949E2F19821A821B8258
:102AA0001C829E012F5F3F4F41EC57E06DEF7FE0AE
:102AB00089EF9FE00E94B734111106C0332009F45A
:102AC000D2C0002309F4E5C01092FD0F1092FE0F52
:102AD0001092FF0F109200101092F90F1092FA0F3F
:102AE0001092FB0F1092FC0F0E94A036EDE2FFE067
:102AF000B490BEA2E7EBFEE0C590D590E590F490CF
:102B0000EBEBFEE085909590A590B490A501940123
:102B1000C701B6010E94ADC618162CF4A701960194
:102B2000C501B40104C0A5019401C701B6010E940A
:102B300063C56E8F7F8F88A399A392E8692E9EE06C
:102B4000792EF301659175918591949126E8422E35
:102B50002EE0522EF20125913591459154910E941B
:102B60001DC087FF02C0F30101C0F20145905590DE
:102B7000659074902E8D3F8D48A159A1CA01B9016D
:102B80000E9482C020E030E040E85FE30E9487C4FA
:102B90000E94F2C69B01AC01C301B2010E9482C037
:102BA0006A8F7B8F8C8F9D8FEEE2FFE024912E8FBA
:102BB00020E030E040EC5FE3C501B4010E9482C038
:102BC0002B013C01AE8C6A2DAA0C770B880B990B5C
:102BD0000E9423C09B01AC01C301B2010E9482C0CC
:102BE00069837A838B839C8320E030E040EC5FE351
:102BF000C701B6010E9482C06B017C01BEA06B2D93
:102C0000BB0C770B880B990B0E9423C09B01AC0176
:102C1000C701B6010E9482C06E8B7F8B888F998F0F
:102C20009E01265E3F4F41E050E1BE016F5F7F4F46
:102C3000CE0146960E94B7341092F80F1092FD0F05
:102C40001092FE0F1092FF0F109200101092F90FC9
:102C50001092FA0F1092FB0F1092FC0F111105C089
:102C6000011103C014C0002331F181E090E00E9403
:102C7000DA458091191085FF08C049EF5FE06DE6E5
:102C800072E089E792E00E94DA35111102C0332028
:102C900091F080E090E00E94DA458091191085FF64
:102CA00008C049EF5FE06DE472E089E592E00E94C0
:102CB000DA35111102C0222081F082E090E00E94FA
:102CC000DA458091191085FF08C049EF5FE067E1A0
:102CD00072E089E392E00E94DA350E94A03680918A
:102CE000980E80935D020E94523621E040E050E051
:102CF000BA018AA10E94A07D0E94FF9B80911910B9
:102D000085FD02C00C947227E8E0F2E084918F0107
:102D10000F5F1F4F882311F40C9472270E949E2F7F
:102D2000F801F4CF0E94303D0C947227C090F90F47
:102D3000D090FA0FE090FB0FF090FC0F88E50E9416
:102D4000C72E811109C020E030E040EA51E4C701FC
:102D5000B6010E9487C402C00E94652E6E8B7F8BD5
:102D6000888F998FC090FD0FD090FE0FE090FF0FDD
:102D7000F090001089E50E94C72E811109C020E063
:102D800030E040E052E4C701B6010E9487C402C0AF
:102D90000E94652E6B017C0169837A838B839C83FF
:102DA00040901110509012106090131070901410F9
:102DB00020910D1030910E1040910F105091101075
:102DC0006E897F89888D998D0E9486C44B015C0134
:102DD00024EF3DEF4FE951E40E94ADC687FF02C0EA
:102DE0000C94722722E430E046E653E4C501B401B6
:102DF0000E941DC0181614F40C947227A3019201AE
:102E0000C701B6010E9486C46B017C0124EF3DEF2F
:102E10004FEF51E40E94ADC687FF02C00C947227A9
:102E200021E230E849E853E4C701B6010E941DC021
:102E3000181614F40C9472270C94832781E0809365
:102E4000A205809321100C94722785E40E94C72E5E
:102E50008AA381110C94D5270E94066221EC32E0EE
:102E60003F8F2E8F09EF202E0FE0302E89ECA82EF9
:102E700087E0B82E00E010E01EA2AE8DBF8D8D91D0
:102E8000BF8FAE8F0E94C72E882309F466C0D10180
:102E90002D913D914D915C912BA73CA74DA75EA72D
:102EA0000E94652E6B017C010330110599F580901D
:102EB0005410B4E08B9E40011124F401EB5DF84FF7
:102EC000F8A7EFA3408051806280738020E030E05B
:102ED000A901C301B2010E941DC08823D9F073016A
:102EE0006201F7FAF094F7F8F094F401E45BFF4E16
:102EF000C082D182E282F382F401E85CFF4EC0829C
:102F0000D182E282F382AFA1B8A51D921D921D92DB
:102F10001C921397F101C082D182E282F3820330C6
:102F20001105D9F02BA53CA54DA55EA5C701B6019D
:102F30000E9486C49B01AC01D5016D917D918D915C
:102F40009C910E9487C4F50160837183828393837F
:102F5000C8010E94E92FF1E0FEA30F5F1F4F24E09C
:102F6000220E311C34E0A30EB11C0430110509F00F
:102F700084CFAEA0AA2019F00E94A03638C0BAA013
:102F8000BB20A9F1C0900510D0900610E09007106A
:102F9000F09008102091810E3091820E4091830EA6
:102FA0005091840EC701B6010E9482C00E94B8C62B
:102FB0006093DB0E7093DC0E8093DD0E9093DE0E3B
:102FC000C701B6010E94CBC52FB7F8946093240DBA
:102FD0007093250D8093260D9093270D2FBF10928F
:102FE000CB0E1092CC0E1092CD0E1092CE0E0E94EF
:102FF000FF9B0C94722780912A02882311F40C9471
:10300000722789E40E94C72E182F882321F00E947E
:10301000352EF62E01C0F12C8AE40E94C72E082F0F
:10302000882331F00E94352EE62E111104C00BC00A
:10303000E12C1123C1F024E02F1510F00C94E829A5
:10304000E3EEF2E004C034E03E15D0F30CC084910E
:103050008F010F5F1F4F882311F40C9472270E9479
:103060009E2FF801F4CF0E946B2D112341F1209186
:10307000110E3091120E4F2D4203B001439F700D7F
:10308000112480910D0E90910E0E680F791F072E5E
:10309000000C880B990B0E9423C020910D103091D9
:1030A0000E1040910F10509110100E9487C4609331
:1030B000B9077093BA078093BB079093BC070023AE
:1030C00041F12091130E3091140E5E2D5203B00188
:1030D000539F700D112420910F0E3091100E620F2E
:1030E000731F072E000C880B990B0E9423C02091A0
:1030F00011103091121040911310509114100E9431
:1031000087C46093BD077093BE078093BF079093F9
:10311000C00780E50E94982E8823A1F10E94562EB8
:10312000882381F11123B1F020E030E040EA51E43E
:103130006091B9077091BA078091BB079091BC0765
:103140000E9486C46093B9077093BA078093BB0747
:103150009093BC070023B1F020E030E040E052E45F
:103160006091BD077091BE078091BF079091C00725
:103170000E9486C46093BD077093BE078093BF070B
:103180009093C00786E40E94C72E8823D9F00E943E
:10319000652E6B017C0120E030E0A9010E94ADC6E4
:1031A000181684F420E030E040E752E4C701B6018D
:1031B0000E9463C560939602709397028093980271
:1031C000909399020E94E4AC0C94722780912D0791
:1031D00090912E078E36910509F47BC70CF0D6C06E
:1031E0008534910509F47BC50CF063C08B339105E0
:1031F00009F48FC3D4F58F31910509F467C284F4C3
:103200008131910509F454C22CF4029708F4CBC122
:103210000C947227429711F40C9480210C9472271D
:103220008033910509F487C22CF48A9709F475C29A
:103230000C9472278933910509F411C4CA9711F0CF
:103240000C947227109225071092260710922707D8
:10325000109228071092290710922A0710922B0724
:1032600010922C070AE113E096C38034910509F40B
:1032700074C47CF48D33910509F493C20CF4AFC28D
:103280008E33910509F474C2CF9709F458C20C9497
:1032900072278234910509F401C40CF427C48334E5
:1032A000910509F4F4C38434910509F4EAC30C943C
:1032B00072278235910511F40C947921A4F58C3490
:1032C000910509F4A5C59CF48734910509F419C545
:1032D0000CF413C58834910509F42CC58B34910581
:1032E00011F00C9472270E944DA10C9472278E3419
:1032F000910509F4ABC50CF4A5C58035910509F419
:1033000027C58135910511F00C9472270E94255C28
:103310000E9406620E94D5471092540E1092530EDE
:1033200000E010E0D0C78836910509F49FC6DCF4B0
:103330008435910509F4E4C70CF4DEC785359105A1
:1033400011F40C94B5218C35910511F00C94722771
:1033500091ECC92E92E0D92E25E7E22E2EE0F22E36
:1033600010E00C94CE218A36910509F47FC70CF445
:103370004DC78B36910509F496C78D36910511F02E
:103380000C9472270E94DA9D0C9472278C3D910553
:1033900011F40C94B0230CF074C08B39910509F42E
:1033A00052C794F58637910511F40C94E122CCF4C0
:1033B0008137910509F4E7C634F48F36910509F495
:1033C00099C60C9472278237910511F40C944D2202
:1033D0008337910511F00C947227E6EBF4E00C941E
:1033E00052228837910511F40C947E2314F40C9426
:1033F00018238937910511F40C9484238C38910596
:1034000009F4EAC60C9472278C3C910511F40C94D3
:10341000A4230CF5883C910511F40C94892334F411
:103420008E3B910509F412C70C947227893C9105D3
:1034300011F40C948C238B3C910511F00C947227A1
:10344000B7E3EB2EBEE0FB2E01EC12E084E0D82EB9
:10345000D00E0C9495238E3C910511F40C94AA2364
:1034600014F40C94A723833D910511F40C94AD231F
:103470008A3D910511F00C9472270E94D8840C9417
:1034800072278139A1E09A0711F40C941324ECF50A
:103490008E32E1E09E0711F40C94BC23F4F4823EDA
:1034A000910511F40C94B3234CF48D3D910511F06A
:1034B0000C9472270E94B1840C947227883121E009
:1034C000920711F40C94B6238D32914011F00C94B4
:1034D00072270E94C4820C947227803341E09407C3
:1034E00011F40C94B92314F40C9410248336A1E045
:1034F0009A0711F40C9455268039914011F00C94E0
:1035000072270E9406620C947227843FE1E09E07B6
:1035100011F40C94DA2524F5843A21E0920711F491
:103520000C94172454F48239914011F00C947227B2
:1035300080E00E94F9350C947227853A51E0950796
:1035400011F40C94B8248C3A914011F00C94722729
:103550008AE1E82E80E1F82E00E010E00C9451257D
:10356000873FB1E09B0711F40C94E0257CF4853F84
:10357000F1E09F0711F40C94DD25863F914011F096
:103580000C9472270E9449950C947227833533E07E
:10359000930711F40C94EE25873E934011F40C949C
:1035A0006E260C947227E0902307F090240780E5A4
:1035B0000E94C72E882359F00E94252E4B015C01E2
:1035C00011E0672B682B692B31F410E004C010E088
:1035D000812C912C540183E50E94C72E882399F0F9
:1035E0000E94652E20E030E04AE754E40E9482C049
:1035F0000E94D0C54B015C0111110CC0672B682BD8
:10360000692B41F43CC0111105C0E114F10411F023
:103610000C941F2883E090E09093A5078093A40763
:1036200081E080939C050E9406620E94932F811482
:103630009104A104B104A9F18091AF079091B00762
:10364000A091B107B091B20775016401C80ED91EEF
:10365000EA1EFB1E0E94365ADC01CB018C199D0923
:10366000AE09BF09B7FD04C010929C050C947227E7
:1036700080919C058823C1F30E941648EBCFE1148A
:10368000F10411F00C941F2883E090E09093A507BB
:103690008093A40781E080939C050E9406620E94AB
:1036A000932F80919C058823F9F20E941648F9CF48
:1036B0005F988A989FB7F894809108018E7F8093D5
:1036C00008019FBF129847980C9472278FE59FE0DE
:1036D0000E9413616E8B7F8B888F998FBE016F5F05
:1036E0007F4FCE0146960E94D32EECEDF4E28491FA
:1036F0008F010F5F1F4F882321F00E949E2FF8013A
:10370000F6CFBE016F5F7F4F82E093E00E94396D7C
:103710008AE00E949E2F0C94722783E50E94C72E98
:1037200081110C943B2884E40E94C72E81110C94D3
:103730003B280C9472270E94CF370C9472278CE49C
:103740000E94982E81111092B80782E50E94982E4F
:1037500081111092B70781E40E94982E882311F4FA
:103760000C9472271092B7071092B8070C94722726
:103770008CE40E94982E81111092070282E50E942B
:10378000982E81111092060281E40E94982E8823BF
:1037900011F40C94722710920702109206020C94F6
:1037A00072278CE40E94982E882319F081E0809380
:1037B000070282E50E94982E882319F081E0809309
:1037C000060281E40E94982E882311F40C9472273B
:1037D00081E080930702809306020C94722720E018
:1037E00030E0A9016091150E7091160E8091170EB0
:1037F0009091180E0E941DC0882381F081E0809373
:1038000055100DE313E0D8018D918D01882319F037
:103810000E949E2FF8CF8AE00E949E2F10922610C1
:1038200010922710109228101092291010922C102C
:1038300010922D1010922E1010922F1010924810EE
:103840001092491010924A1010924B1010922210B0
:1038500010922310109224101092251010924C10E8
:1038600010924D1010924E1010924F1081E08093E4
:10387000A202109240101092411010924210109229
:10388000431010923010109231101092321010929A
:1038900033101092250710922607109227071092D6
:1038A0002807109238101092391010923A10109286
:1038B0003B10109250101092511010925210109212
:1038C00053108093A302109244101092451010924E
:1038D000461010924710109234101092351010922A
:1038E0003610109237101092290710922A07109262
:1038F0002B0710922C0710923C1010923D10109242
:103900003E1010923F1010922B1010922A100C941F
:1039100072271092551010922507109226071092C8
:103920002707109228071092290710922A07109251
:103930002B0710922C070CE413E0F80181918F0102
:10394000882321F10E949E2FF8CF8091191088239F
:1039500009F40CC456EBC52E53E0D52EE12CF12C06
:1039600020E08091191090E00E2C02C0959587956B
:103970000A94E2F780FDE2C3FFEFEF1AFF0A32E09C
:10398000C30ED11C46E0E416F10459F78AE00E9408
:103990009E2F0C947227D8018D918D01882319F0E8
:1039A0000E949E2FF8CF8AE00E949E2F15E2812E62
:1039B00017E0912E00E410E1C12CD12C7601FBE63A
:1039C000AF2EF5E0BF2EF50181915F01882319F03C
:1039D0000E949E2FF8CFC701B6010E943431BBE28E
:1039E000AB2EB4E0BB2ED5018D915D01882319F07B
:1039F0000E949E2FF8CFF8016081718182819381AE
:103A000042E00E940F338AE00E949E2FF8018081DD
:103A10009181A281B381F40181939193A193B19398
:103A20004F01D8011D921D921D921D928D01CA94C5
:103A3000CD28CE28CF2829F0C12CD12C7601C394D3
:103A4000BECF10922B1010922A10109222101092BA
:103A5000231010922410109225100C94722780913C
:103A6000221090912310A0912410B09125108093E2
:103A7000C1079093C207A093C307B093C4070E94E5
:103A8000E4AC1092A10E0E9402690C94722781E0AE
:103A90008093A10E0E9402690C9472278091A10E5E
:103AA00081110BC00CE513E0F80181918F0188238F
:103AB00009F46CCF0E949E2FF7CF813019F009E7EF
:103AC00013E00BC002EB13E0D8018D918D01882328
:103AD00009F45CCF0E949E2FF7CFF80181918F01EE
:103AE000882309F453CF0E949E2FF7CF85E40E94CC
:103AF000982E882361F00E94652E0E94CBC56093AA
:103B0000860270938702809388029093890281E4F1
:103B10000E94982E882361F00E94652E0E94CBC5DA
:103B20006093820270938302809384029093850253
:103B300082E50E94982E882361F00E94652E0E94E3
:103B4000CBC560937E0270937F0280938002909336
:103B500081020E9402690C9472278091A10E882331
:103B600019F000ED13E060C080910702811103C0DD
:103B700005EF13E04FC0809106028823C9F30AE0E5
:103B800014E0D8018D918D01882319F00E949E2F99
:103B9000F8CF8FE00E948A62892B19F00FE814E0B9
:103BA0000DC00CE714E0F80181918F01882319F012
:103BB0000E949E2FF8CF0EE014E008C0D8018D912E
:103BC0008D018823C1F30E949E2FF8CFF8018191C7
:103BD0008F01882319F00E949E2FF8CF82E00E9467
:103BE0008A62892B19F00FE814E00BC00CE714E08F
:103BF000D8018D918D01882309F4C8CE0E949E2F93
:103C0000F7CFF80181918F01882309F4BFCE0E947C
:103C10009E2FF7CFD8018D918D01882311F40C943C
:103C200072270E949E2FF6CFF80181918F01882381
:103C300019F00E949E2FF8CF8AE00E949E2F03E188
:103C400014E0D8018D918D01882319F00E949E2FD8
:103C5000F8CF8AE00E949E2F6091860270918702C1
:103C600080918802909189020E9434318AE00E94FA
:103C70009E2F00E214E0F80181918F01882319F052
:103C80000E949E2FF8CF8AE00E949E2F60918202B0
:103C90007091830280918402909185020E94343158
:103CA0008AE00E949E2F0DE214E0D8018D918D01D3
:103CB000882319F00E949E2FF8CF8AE00E949E2F41
:103CC00060917E0270917F028091800290918102CA
:103CD0000E9434318AE00E949E2F0C947227109229
:103CE000E50C1092E60C1092E70C1092E80C109282
:103CF000AC071092AB070C947227109208020C9438
:103D0000722781E0809308021092E50C1092E60C75
:103D10001092E70C1092E80C80E293E0A0E0B0E093
:103D20008093250290932602A0932702B093280245
:103D30000C94722780E293E0A0E0B0E0809325022B
:103D400090932602A0932702B09328020C94722726
:103D500085E50E94982E81110E94428884E40E9489
:103D6000982E81110E94EE8787E50E94982E882365
:103D700031F00E94652E0E94D0C560937D0283E5DC
:103D80000E94982E882331F00E94652E0E94D0C593
:103D900060937C028FE40E94982E882341F00E9459
:103DA000652E0E94CBC570937B0260937A0281E4FA
:103DB0000E94982E882359F00E94652E0E94CBC540
:103DC00070935F0260935E02CB010E94A98784E535
:103DD0000E94982E882349F00E94652E0E94D0C52B
:103DE000862F6093DC0D0E94988889E40E94982EAB
:103DF000882311F40C9472278091DC0D0E9498881E
:103E000080915E0290915F020E94A9870C947227B4
:103E100080915F0F9091600F019711F00C947227C1
:103E200082E090E09093600F80935F0F0E94365A7B
:103E30006093690F70936A0F80936B0F90936C0F70
:103E40000C9472270E9476970C94722783E50E9447
:103E5000C72E882359F00E94352E6E34710531F437
:103E60008FE59FE00E946F6D0C9472271E8A1F8A57
:103E7000188E198EEEEAF3E084918F010F5F1F4FC9
:103E8000882321F00E949E2FF801F6CFE5EAF3E0A7
:103E900084918F010F5F1F4F882321F00E949E2F76
:103EA000F801F6CF60916D0F70916E0F80E090E099
:103EB0004AE00E949230E8E9F3E084918F010F5FBD
:103EC0001F4F882321F00E949E2FF801F6CF6091AA
:103ED0006F0F7091700F80E090E04AE00E94923086
:103EE000EDE8F3E084918F010F5F1F4F882321F0ED
:103EF0000E949E2FF801F6CF60916D0F70916E0FAA
:103F000080916F0F9091700F681B790B80915F0FFC
:103F10009091600F019721E030E0029710F020E0CF
:103F200030E0621B730B80E090E04AE00E94923028
:103F30008AE00E949E2FE5E8F3E084918F010F5FF5
:103F40001F4F882321F00E949E2FF801F6CF809109
:103F5000710F9091720FA091730FB091740F8E8BAF
:103F60009F8BA88FB98FBE016F5F7F4FCE014696A2
:103F70000E94D32EE8E7F3E084918F010F5F1F4F7B
:103F8000811105C0FE0131967F018F0104C00E949E
:103F90009E2FF801F1CFD8018D918D01882319F062
:103FA0000E949E2FF8CF8091750F9091760FA0916F
:103FB000770FB091780F8E8B9F8BA88FB98FBE0132
:103FC0006F5F7F4FCE0146960E94D32EE8E6F3E066
:103FD00084918F010F5F1F4F882321F00E949E2F35
:103FE000F801F6CFF70181917F01882319F00E9433
:103FF0009E2FF8CF8AE00E949E2FE0E6F3E08491A6
:104000008F010F5F1F4F882321F00E949E2FF80120
:10401000F6CFE0E5F3E084918F010F5F1F4F882317
:1040200021F00E949E2FF801F6CF20E030E04AE711
:1040300054E46091790F70917A0F80917B0F909189
:104040007C0F0E9463C542E00E940F33EEE4F3E070
:1040500084918F010F5F1F4F882321F00E949E2FB4
:10406000F801F6CF8AE00E949E2F3CC788E690E0D8
:104070000E94F830811136C78091191083FD32C734
:1040800083E50E94C72E882309F10E94652EF090D7
:104090009D052F2D30E0220F331F8901095C124F3F
:1040A0000E94CBC5D8016D937C938F2D0E94CE5B6F
:1040B0000E94652E20E030E04AEA52E40E941DC0D2
:1040C000181614F00E9476970E94652E0E94846D47
:1040D00009C78EE40E94C72E882309F403C70E94F3
:1040E000352E6093DE107093DF108093E010909374
:1040F000E110F8C683E50E94C72E882319F00E94BC
:10410000452E01C080E080931910ECEDF4E284911B
:104110008F010F5F1F4F882321F00E949E2FF8010F
:10412000F6CFE6ECF3E084918F010F5F1F4F8823F9
:1041300009F40BCC0E949E2FF801F5CFBB24B39459
:10414000B20E222319F08CE20E949E2FF6012591D7
:104150003491F901849189010F5F1F4F882321F069
:104160000E949E2F9801F5CF2B2D06CCE2ECF3E0B8
:1041700084918F010F5F1F4F882309F407CC0E94A1
:104180009E2FF801F5CF83E50E94C72E882359F0B2
:104190000E94452E809301028D3308F4A3C68CE360
:1041A000809301029FC6ECEDF4E284918F010F5FD2
:1041B0001F4F882321F00E949E2FF801F6CF4091D7
:1041C000010250E060E070E08DEC93E00E94FF554A
:1041D0008AE00E949E2F86C68091191083FD82C6B8
:1041E00083E50E94C72E882309F47CC60E94652EB1
:1041F0000E94CBC56739710514F066E970E07093D1
:10420000360D6093350D0E94845B6CC689E690E0A4
:104210000E94F830811111C0E4EDF3E084918F0128
:104220000F5F1F4F882321F00E949E2FF801F6CFC9
:104230000E94EC9C8AE00E949E2F1092A50710928B
:10424000A4070C94EE290E94BE9C4CC680911910C4
:1042500083FD48C683E50E94C72E8EA381115EC7E9
:1042600082E50E94C72E811159C73CC683E50E9492
:10427000C72E882339F00E94352E8B016F3F7105C0
:1042800019F010F00FEF10E080E50E94C72E8111A9
:1042900005C01093540E0093530E24C60E94452E61
:1042A000811120C6F6CF80E50E94C72E811105C07E
:1042B0001092540E1092530E15C60E94352E672B85
:1042C00009F010C6F5CF62E370E080E090E00E9454
:1042D000FE590E94A15F0F5F1F4F0331110599F72F
:1042E00062E370E080E090E00E94FE590E94A15FCE
:1042F000F9C51092A105F6C581E08093A105F2C52C
:1043000083E50E94C72E882399F00E94652E20E045
:1043100030E04AE754E40E9482C00E94D0C5609316
:104320000202709303028093040290930502DAC59F
:1043300088E50E94982E81110C94C22989E50E947B
:10434000982E81110C94C2298AE50E94982E811121
:104350000C94C22985E40E94982E81110C94C229E4
:104360000E9406620E94D547BDC583E50E94982E33
:10437000882309F4B7C50E94652E20E030E04AE7A3
:1043800054E40E9482C00E94D0C56093B30770932A
:10439000B4078093B5079093B607A4C5D6018D9155
:1043A0006D010E94982E882309F46DC0133009F026
:1043B00063C00E94652E4B015C0120E030E040EAC2
:1043C00051E40E941DC087FF4EC0A5019401609179
:1043D000810E7091820E8091830E9091840E0E94C6
:1043E00063C52B013C019B01AC016091270E7091CC
:1043F000280E8091290E90912A0E0E9482C060930F
:10440000270E7093280E8093290E90932A0EA301F5
:1044100092016091430E7091440E8091450E9091EF
:10442000460E0E9482C06093430E7093440E8093A8
:10443000450E9093460E6091610E7091620E8091D0
:10444000630E9091640E0E9421C0A30192010E940C
:1044500082C00E94D0C56093610E7093620E8093FB
:10446000630E9093640E8092810E9092820EA092C1
:10447000830EB092840E07C00E94652EF701608300
:104480007183828393831F5FF4E0EF0EF11C14307D
:1044900009F084CF0E94EB6E25C50E9406620E943F
:1044A000FF9B20C584918F010F5F1F4F882321F050
:1044B0000E949E2FF801F6CFE8EAF4E084918F0184
:1044C0000F5F1F4F882321F00E949E2FF801F6CF27
:1044D000E1E9F4E084918F010F5F1F4F882321F001
:1044E0000E949E2FF801F6CFE1E8F4E084918F015D
:1044F0000F5F1F4F882321F00E949E2FF801F6CFF7
:10450000E0E7F4E084918F010F5F1F4F882321F0D3
:104510000E949E2FF801F6CFEFE5F4E084918F0121
:104520000F5F1F4F882321F00E949E2FF801F6CFC6
:10453000E0E5F4E084918F010F5F1F4F882321F0A5
:104540000E949E2FF801F6CFEBE3F4E084918F01F7
:104550000F5F1F4F882321F00E949E2FF801F6CF96
:10456000E5E2F4E084918F010F5F1F4F882321F073
:104570000E949E2FF801F6CFE0E1F4E084918F01D4
:104580000F5F1F4F882321F00E949E2FF801F6CF66
:10459000E3EFF3E084918F010F5F1F4F882321F039
:1045A0000E949E2FF801F6CFEBEDF3E084918F018E
:1045B0000F5F1F4F882309F495C40E949E2FF801B6
:1045C000F5CF85E40E94982E882381F00E94562E14
:1045D000882361F0ECEDF4E284918F010F5F1F4FAF
:1045E000882321F00E949E2FF801F6CF81E40E94DB
:1045F000982E882381F00E94562E882361F0E0E8EF
:10460000F5E084918F010F5F1F4F882321F00E94F6
:104610009E2FF801F6CF0091230710912407D801AF
:104620008D918D01882309F4B1C90E949E2FF7CF87
:10463000ECE9F5E084918F010F5F1F4F882321F093
:104640000E949E2FF801F6CFE4E9F5E084918F01F6
:104650000F5F1F4F882321F00E949E2FF801F6CF95
:10466000659903C00FEF12E002C004E013E0F80107
:1046700081918F01882319F00E949E2FF8CF8AE044
:104680000E949E2FECE8F5E084918F010F5F1F4F91
:10469000882321F00E949E2FF801F6CF809103011C
:1046A00081FD03C00FEF12E002C004E013E0D80167
:1046B0008D918D01882319F00E949E2FF8CF8AE0FA
:1046C0000E949E2FE4E8F5E084918F010F5F1F4F59
:1046D000882321F00E949E2FF801F6CF4B9B03C048
:1046E0000FEF12E002C004E013E0F80181918F01A6
:1046F000882309F44BC90E949E2FF7CF81E0809355
:104700005D028093980EEEC310925D021092980E97
:10471000E9C30E94959BE6C30E94709BE3C3F4E04B
:10472000EF0EF11CD01609F4DDC3D8018D918D0177
:104730000E94982E882399F30E94652EF7016083CA
:10474000718382839383EBCF0E94079BCBC30E942C
:104750001B86C8C30E94DB85C5C30E944585C2C3B2
:104760000E94CC84BFC30E945684BCC30E9478833D
:10477000B9C30E944582B6C383E50E94982E182FC4
:10478000882371F00E94652E0E94CBC57093610250
:104790006093600221E0672B09F020E020931A0E5D
:1047A00080E50E94982E882359F020916002309174
:1047B0006102232B11F00E94562E80931A0E92C391
:1047C000111190C3ECEDF4E284918F010F5F1F4F44
:1047D000882321F00E949E2FF801F6CF80911A0EB7
:1047E000811103C06EE073E002C061E073E08BEC06
:1047F00095E00E94396D60916002709161028AEBD0
:1048000095E00E94046DE6EBF5E084918F010F5F67
:104810001F4F882309F466C30E949E2FF801F5CF2D
:104820000E94D57D5FC381E00E94F9355BC386E5B8
:104830000E94982E882351F08091110E9091120EB3
:10484000892B21F00E9430340E941C3483E50E94A1
:10485000982E182F882319F00E94562E182F83E5C2
:104860000E94982E882319F0812F0E942F2D8AE50F
:104870000E94982E882321F00E94652E0E94E72C2A
:10488000F090190E111103C0ECEDF4E21AC0F11012
:10489000FBCFE8E4FAE184918F010F5F1F4F88237B
:1048A00021F00E949E2FF801F6CFEEEFF5E0849103
:1048B0008F010F5F1F4F882339F30E949E2FF8014D
:1048C000F6CF84918F010F5F1F4F882321F00E9444
:1048D0009E2FF801F6CFF11003C066E173E002C02D
:1048E00062E173E080EF95E00E94396D8AE00E94FA
:1048F0009E2FECEDF4E284918F010F5F1F4F882310
:1049000021F00E949E2FF801F6CFE3EEF5E08491AE
:104910008F010F5F1F4F882321F00E949E2FF80107
:10492000F6CFC090150ED090160EE090170EF090B6
:10493000180E20E030E0A901C701B6010E94ADC603
:1049400018166CF0EEEDF5E084918F010F5F1F4FAC
:10495000882309F4C7C20E949E2FF801F5CF42E0D8
:10496000C701B6010E940F338AE00E949E2FBAC28F
:1049700089E40E94C72E882321F00E94352E162F2D
:1049800001C01FEF8AE40E94C72E882321F00E94F5
:10499000352E062F01C00FEF8AE50E94982EF82EC3
:1049A000811105C081E50E94982ED82E01C0D12C1E
:1049B00017FD02C007FF03C0E8E4FAE105C0F110EB
:1049C0001AC0D11018C0F8CF84918F010F5F1F4F0C
:1049D000882321F00E949E2FF801F6CFECE3F6E049
:1049E00084918F010F5F1F4F882309F47BC20E94BF
:1049F0009E2FF801F5CF153018F0E8E4FAE106C073
:104A00000530D8F716C00E949E2FF80184918F01BF
:104A10000F5F1F4F8111F7CFEDE1F6E084918F0119
:104A20000F5F1F4F882309F45DC20E949E2FF8017B
:104A3000F5CFE12E110FFF08002E000C110B0E9484
:104A4000652EDD2099F025E02E9DF0012F9DF00DC3
:104A50001124E00FF11FEE0FFF1FEE0FFF1FEC56AA
:104A6000F04F208131814281538103C020E030E04A
:104A7000A901A5E0AE9DF001AF9DF00D11240E0F30
:104A80001F1F000F111F000F111F0C56104F0E9407
:104A900087C4D8016D937D938D939C93139747D6CC
:104AA00021C2F701EA51F0416F01D7018D917D01DB
:104AB000882309F474C0F801E750F04F408051801A
:104AC00062807380F801E75FFD4F20813181428170
:104AD0005381F801EB5EFD4F60817181828193818A
:104AE0000E9487C420E030E040E05FE30E9482C083
:104AF0009B01AC01C301B2010E94ADC6181644F47B
:104B0000F801EE53F24F85909590A590B49003C0B4
:104B1000812C912C5401F801E35FFF4E20813181FB
:104B200042815381C301B2010E9486C49B01AC0142
:104B3000C501B4010E9486C44B015C0120E030E055
:104B400040EA51EC0E94ADC687FD10C020E030E085
:104B500040EA51E4C501B4010E941DC0181634F0AA
:104B6000B501A401C6010E94EE2D19C0E8E4FAE1E6
:104B700084918F010F5F1F4F882321F00E949E2F89
:104B8000F801F6CFECE5F6E084918F010F5F1F4F3F
:104B9000882309F4A7C10E949E2FF801F5CF0C5F6E
:104BA0001F4F0C30110509F07CCF0E94A0360E94E7
:104BB000FF9B98C10E94026995C10E941D6392C12A
:104BC00083E50E94982E882319F00E94562E01C07A
:104BD00081E091E089270E94869084C1ECEDF4E2A7
:104BE00084918F010F5F1F4F882321F00E949E2F19
:104BF000F801F6CFE4E9F6E084918F010F5F1F4FD3
:104C0000882321F00E949E2FF801F6CF8AE50E94AA
:104C1000982E882309F43BC00E94652E6B017C010D
:104C200020E030E040EA51EC0E94ADC687FD21C093
:104C300020E030E040EA51E4C701B6010E941DC007
:104C40001816BCF0C0920910D0920A10E0920B1016
:104C5000F0920C100E94AAA16091091070910A10A4
:104C600080910B1090910C1042E00E940F330C9435
:104C7000C61CEDE7F6E084918F010F5F1F4F88237C
:104C800011F40C94C61C0E949E2FF801F4CF4091A1
:104C9000091050910A1060910B1070910C108AE766
:104CA00096E00E9439560C94C61CE8E4FAE184911F
:104CB0008F010F5F1F4F882321F00E949E2FF80164
:104CC000F6CFEEE9F6E084918F010F5F1F4F882346
:104CD00009F408C10E949E2FF801F5CF81E080936E
:104CE0002A0283E50E94982E811103C00E943BB5E1
:104CF000F9C0DCD78111F6C0F9CFC0902D07D09054
:104D00002E07FC2CEE24E39480915410C81201C0AD
:104D1000E12C8090011090900210A0900310B090B0
:104D200004108091191085FF14C0B601772787EF12
:104D300096E00E94046D89E20E949E2F8AE00E9404
:104D40009E2F49EF5FE068ED76E083EE96E00E94EB
:104D5000DA3580915410F81641F083E5E9D7182F21
:104D6000882321F0A3D7182F01C011E086E40E9408
:104D7000C72E882311F0A9D703C060E070E0CB01F3
:104D800020E030E040E752E40E9463C5AB01BC0183
:104D9000212F8C2D0E94A07D8091191085FF14C0B9
:104DA00049EF5FE06AEB76E084EC96E00E94DA354A
:104DB000EDEAF6E084918F010F5F1F4F882321F009
:104DC0000E949E2FF801F6CF8091DC0D882309F414
:104DD0004BC0B1E0FB1248C0EE2009F445C020E012
:104DE00030E040E050E4C501B4010E9487C4609304
:104DF000C1077093C2078093C3079093C4070E94B2
:104E0000E4AC0E94066260917A0270917B02072EE8
:104E1000000C880B990B0E94FE590E94EE8760914E
:104E20007A0270917B02072E000C880B990B0E946E
:104E3000FE5940919D0E50919E0E60919F0E709173
:104E4000A00E82E090E0CAD60E94A0360E94FF9B8E
:104E50008092C1079092C207A092C307B092C40784
:104E60000E94E4AC0E9406628091DC0D8823D1F19F
:104E7000F11038C0EE20B1F10E94428860917A02B0
:104E800070917B02072E000C880B990B0E94FE5933
:104E90004091990E50919A0E60919B0E70919C0ECC
:104EA00082E090E09BD60E94A0360E94FF9B1AC031
:104EB000ECEDF4E284918F010F5F1F4F882321F006
:104EC0000E949E2FF801F6CF6091AD077091AE075A
:104ED00084E097E00E94396D82E20E949E2F8AE072
:104EE0000E949E2F1092A5071092A4070E941CB545
:104EF00075C24115510519F4AF0141505109812C7A
:104F0000912C0C94C71380E0AAD50E94763683E5D5
:104F10000FD7882309F447C0C9D621E0482FBE0126
:104F20006F5F7F4FCE0146960E941AA26B017C01F3
:104F30009B01AC010E9433C7811130C02CEA35ECD3
:104F400047E257E36E897F89888D998D0E9487C4D7
:104F5000AB01BC018BED92E00E941C562CEA35ECB3
:104F600047E257E369817A818B819C810E9487C4E3
:104F7000AB01BC0186ED92E00E941C562CEA35EC98
:104F800047E257E3C701B6010E9487C4AB01BC01E9
:104F900081ED92E00E941C568AE0D0D70E945236E2
:104FA0000E94FF9B9FCF81E0B8CF109226101092F5
:104FB0002710109228101092291010922C10109285
:104FC0002D1010922E1010922F1010924810109247
:104FD000491010924A1010924B1010924C101092DF
:104FE0004D1010924E1010924F10109238101092D7
:104FF000391010923A1010923B101092301010920B
:1050000031101092321010923310109250101092F2
:105010005110109252101092531010923C10109296
:105020003D1010923E1010923F10109234101092CA
:10503000351010923610109237100C942E17D7019D
:105040008C91882311F40C940A1BECEDF4E284910A
:105050008F010F5F1F4F882319F070D7F801F7CF2A
:10506000F70181917F01882311F068D7F9CF8AE099
:1050700065D70C940A1B09D6E82E80E588D68823CC
:1050800039F1F3D58B0177FD2DCF902FEFE0F3E0D1
:1050900080E38E0F2491921721F031968E13FACF70
:1050A0001AC0E8E4FAE184918F010F5F1F4F882353
:1050B00019F044D7F801F7CFEFE3F3E084918F01C3
:1050C0000F5F1F4F882309F40DCF38D7F801F6CFB3
:1050D0000DE010E0DACF84E45AD6882349F061E08D
:1050E000802F0E94E1626E2D802F0E94B262FACE64
:1050F00061E0802F0E94E1626E2D802F0E94B262DB
:10510000F12CB701802F0E9435590930110509F0A3
:10511000E9CEF092540EE092530EE4CED6D50E9422
:10512000CBC56739710514F066E970E07093360DF0
:105130006093350D0E94845BC8D520E030E040EAE2
:1051400050E40E94ADC6181614F40E944DA181E0EF
:10515000809300021092A5071092A407809154102A
:1051600080939D051AA21BA21CA21DA21FA218A615
:1051700019A61AA61E8E1BA65CE35FA78CE188AB5E
:1051800096E499ABC12CD12C30E8E32E4FEBF42EF2
:10519000812C912C54016091350D7091360D072EA4
:1051A000000C880B990B0E9423C0162F072F782E16
:1051B000692E262F372F482F592FB601C7010E947D
:1051C0001DC08823D1F02091300D3091310D4091D8
:1051D000320D5091330D612F702F872D962D0E9427
:1051E0001DC0881F8827881F8E8FAEA1AA2349F073
:1051F000882339F08091000275CE1C2D0D2D7E2C58
:105200006F2C0E94365A6B017C01DC01CB012FA16F
:1052100038A549A55AA5821B930BA40BB50BB7FD66
:1052200037C0D701C60188519C4FAF4FBF4F8FA3E6
:1052300098A7A9A7BAA70E94EC9CE7EDF3E0849198
:105240002F019FEF491A590A882319F077D6F201E6
:10525000F6CF81149104A104B104B1F0D501C401C9
:105260008854944FAF4FBF4FBC01CD016C197D09DD
:105270008E099F0928EE33E040E050E00E9429C4E7
:10528000CA01B901F1D702C08FE358D68AE056D6D9
:105290000E94164848D62090300D3090310D409035
:1052A000320D5090330D9101A201612F702F872D87
:1052B000962D0E9486C49F7781149104A104B104A5
:1052C00049F420E030E040E85FE30E941DC087FF22
:1052D0000BC008C020E030E040E450E40E94ADC6BE
:1052E000181614F446015701AE8DAA2379F12AA1AC
:1052F0003BA14CA15DA1211531054105510541F0AE
:10530000D701C601821B930BA40BB50BB7FD1EC0C2
:105310009101A2016BA57FA588A999A90E9486C4C5
:1053200020E030E040EC5FE30E941DC087FD62CFCB
:10533000D701C601805A9541AF4FBF4F8AA39BA3A7
:10534000ACA3BDA32BA63FA648AA59AA80910002F0
:10535000882309F44FCF81149104A104B10429F4E6
:10536000C12ED02EE72CF62C16CF98EBC91A9BE055
:10537000D90AE108F108C818D908EA08FB08F7FEBD
:1053800039CFEECF0E94066288E5D2D4882319F087
:105390005F9A1092D90D89E5CBD4882319F08A9AA7
:1053A0001092DA0D8AE5C4D4882351F09FB7F8949F
:1053B000809108018160809308019FBF1092DB0DEE
:1053C00085E4B6D4882309F48DCD0E9460AC8ACDE3
:1053D00001110C9423187FD30C943718E1960FB663
:1053E000F894DEBF0FBECDBFDF91CF911F910F911B
:1053F000FF90EF90DF90CF90BF90AF909F908F90F5
:105400007F906F905F904F903F902F9008958F9274
:105410009F92AF92BF92CF92DF92EF92FF920F9343
:105420001F93CF93DF93D82FC62F882329F0863080
:10543000B9F513E084E002C011E080E09FEF9C0F1B
:10544000953028F5D0E0219705E0FE01089FE00D9A
:10545000F11D1124EE0FFF1FEE0FFF1FEC56F04F52
:1054600060817181828193819B01AC010E9487C41C
:10547000019FC00DD11D1124CC0FDD1FCC0FDD1FEE
:10548000CC56D04F288139814A815B813EC06C2F38
:105490008F5FBDDF6B017C016C2F81E0810F40C00D
:1054A000662331F0663009F047C013E064E002C0C3
:1054B00011E060E08FEF8D0F853050F58D2F90E07B
:1054C000019725E0289FE001299FD00D1124FE01BE
:1054D000E60FF11DEE0FFF1FEE0FFF1FEC56F04F12
:1054E00060817181828193819B01AC010E9487C49C
:1054F000FE01E10FF11DEE0FFF1FEE0FFF1FEC5637
:10550000F04F20813181428153810E9486C428C09E
:105510006F5F8D2F7CDF6B017C0161E0610F8D2F50
:1055200076DF4B015C01A7019601C701B6010E941D
:1055300087C4A5019401E9CF90E0019725E0289F59
:10554000F001299FF00D1124E60FF11DEE0FFF1F52
:10555000EE0FFF1FE057F04F6081718182819381D0
:10556000DF91CF911F910F91FF90EF90DF90CF903F
:10557000BF90AF909F908F9008952DE0829FC001C3
:105580001124FC01E60FF11DEE0FFF1FEE0FFF1FB0
:10559000EE51FF4E6081718182819381089525E0F3
:1055A000829FC0011124FC01E60FF11DEE0FFF1FC9
:1055B000EE0FFF1FEC56F04F608171818281938165
:1055C00008958FB7F8949091DD102091DC10291781
:1055D00059F0E92FF0E0E45AFF4E208130E09F5F60
:1055E0009F779093DD1002C02FEF3FEF8FBFC9016F
:1055F00008958F929F92AF92BF92CF92EF92FF92B7
:105600000F931F93CF93DF93CDB7DEB760970FB69D
:10561000F894DEBF0FBECDBFC0905410E9EFFFE09D
:1056200084859585A685B785408551856285738576
:10563000048115812681378180809180A280B3808A
:1056400089829A82AB82BC820D831E832F83388726
:1056500049875A876B877C878D879E87AF87B88BF2
:105660009E01235F3F4FAE01475F5F4FBE016B5FFF
:105670007F4FCE0101960E9491A4E0909602F09097
:10568000970200919802109199029E01235F3F4F6B
:10569000AE01475F5F4FBE016B5F7F4FCE0101964A
:1056A0000E946B6F60960FB6F894DEBF0FBECDBF41
:1056B000DF91CF911F910F91FF90EF90CF90BF900E
:1056C000AF909F908F900895FF920F931F93CF9369
:1056D000DF93FC0120812B3319F1D0910B0ED430D4
:1056E000F8F4F62EBC01C09134070C2F10E0F0E660
:1056F000CF9FC00111248D559A4F0E9495C7F80184
:10570000E651F24FF082CF5FC43018F4C0933407F3
:1057100002C010923407DF5FD0930B0E81E001C00E
:1057200080E0DF91CF911F910F91FF9008952F920C
:105730003F924F925F926F927F928F929F92AF9221
:10574000BF92CF92DF92EF92FF920F931F93CF936E
:10575000DF93CDB7DEB7E1970FB6F894DEBF0FBE8B
:10576000CDBF8091110E9091120EE3E0F0E0BF01E9
:105770000E946FC79B01709387136093861380917B
:10578000130E9091140EBF010E946FC78B0170938E
:10579000891360938813B901330F880B990B0E940A
:1057A00023C06B017C012DEB37E346E855EB0E94EB
:1057B000ADC687FD0AC02DEB37E346E855E3C701C8
:1057C000B6010E941DC018164CF4A701960160E0B6
:1057D00070E080E89FE30E9463C503C060E070E072
:1057E000CB0160938A1370938B1380938C139093E7
:1057F0008D13B801110F880B990B0E9423C06B0108
:105800007C012DEB37E346E855EB0E94ADC687FDE2
:105810000AC02DEB37E346E855E3C701B6010E9405
:105820001DC018164CF4A701960160E070E080E8F6
:105830009FE30E9463C503C060E070E0CB0160930A
:105840008E1370938F1380939013909391131AA2D9
:1058500019A200E0812C912C10E029A03AA0F12C93
:10586000C101880D991DDC01AA0FBB1FAA0FBB1F28
:10587000BAA7A9A7A12CB12CE12C8F2D90E0A0E014
:10588000B0E08BA79CA7ADA7BEA7FF2019F00430FE
:1058900009F467C0EE2019F0143009F462C06BA55A
:1058A0007CA58DA59EA50E9421C020E030E040E4AB
:1058B00050E40E9463C52B013C016E2D70E080E036
:1058C00090E00E9421C020E030E040E450E40E94DB
:1058D00063C56DA37EA38FA398A79E012F5E3F4F44
:1058E0003CA32BA3D12C9E012F5F3F4FC12C4D2DEC
:1058F000410F6C2D600F842F2FA738AB49AB87DD8C
:105900002FA538A9D9016D937D938D939D939D010A
:10591000C39449A9B4E0CB12ECCFB301A201CE01EC
:1059200001960E94DE98EBA1FCA161937193819393
:105930009193FCA3EBA3D394F4E0DF12D4CF4DA159
:105940005EA16FA178A5CE0141960E94DE98E9A5DF
:10595000FAA5EA0DFB1DEE51FF4E60837183828331
:105960009383E39424E3A20EB11C33E0E3128DCFC2
:10597000F3948FEF281A380AF31272CF1F5F97E261
:10598000890E911C153009F068CF0F5FA9A1BAA14B
:105990001396BAA3A9A3053009F05CCFE1960FB620
:1059A000F894DEBF0FBECDBFDF91CF911F910F9155
:1059B000FF90EF90DF90CF90BF90AF909F908F902F
:1059C0007F906F905F904F903F902F900895CF926F
:1059D000DF92EF92FF92CF936B017C01C091190E81
:1059E0006093150E7093160E8093170E9093180EF9
:1059F0002DEB37E346E855EB0E94ADC687FD0AC0A4
:105A00002DEB37E346E855E3C701B6010E941DC000
:105A100018164CF4A701960160E070E080E89FE35F
:105A20000E9463C503C060E070E0CB0160931D106D
:105A300070931E1080931F1090932010CC2349F078
:105A400082E090E0CF91FF90EF90DF90CF900C94A8
:105A5000B6B2CF91FF90EF90DF90CF9008951F9353
:105A6000CF93DF93CDB7DEB72C970FB6F894DEBF98
:105A70000FBECDBF882331F02091110E3091120E50
:105A8000232BF9F09091190E8917D9F0182F8CE07B
:105A9000E5EBF2E0DE01119601900D928A95E1F7B7
:105AA000CE0101960E9402B31093190E111105C088
:105AB00082E090E00E94B6B204C089EF9FE00E94AD
:105AC000217D2C960FB6F894DEBF0FBECDBFDF91BF
:105AD000CF911F91089580E1E9EFFFE0A9EBB7E0D6
