:100000000C947A130C94AB130C94AB130C94AB13A9
:100010000C94AB130C94AB130C94AB130C94AB1368
:100020000C94AB130C947F970C947F970C947F9750
:100030000C94AB130C94AB130C94AB130C94AB1348
:100040000C94AB130C94B4B50C94AB130C94AB138D
:100050000C94AB130C94AB130C94269D0C943A4166
:100060000C94AB130C941A3D0C94AB130C94AB137F
:100070000C94AB130C94AB130C94AB130C94AB1308
:100080000C945CB70C94AB130C94AB130C94AB13A3
:100090000C94AB130C94AB130C94AB130C948441E1
:1000A0000C94AB130C94AB130C942FB70C94AB13B0
:1000B0000C94AB130C94AB130C94AB130C9402B7CD
:1000C0000C94AB130C94AB130C94AB130C94AB13B8
:1000D0000C94AB130C94AB130C94AB130C94AB13A8
:1000E0000C94AB134A3D503D613D6C3D743D8D3DDC
:1000F000783D8D3D7C3D803D8D3D8D3D8A3D333E3F
:10010000363E253E293E2F3E6D3E3A3E3E3E443E23
:10011000483E4C3E523E563E5A3E6D3E603E643E28
:10012000683E56405B4060406A407440ED407E400F
:1001300086408E409840A240AC40BB40C540ED4058
:10014000CF40D940E340E29BAE9CB39CDE9CEA9C4E
:10015000C69CCB9CD29B084AD73B3BCE016E84BC4D
:10016000BFFDC12F3D6C74319ABD56833DDA3D0011
:10017000C77F11BED9E4BB4C3E916BAAAABE00005A
:1001800000803F05A84CCDB2D44EB93836A9020C38
:1001900050B9918688083CA6AAAA2ABE0000008011
:1001A0003F004E414E494E495459494E46CDCCCC64
:1001B0003D0AD7233C17B7D13877CC2B329595E63B
:1001C000241FB14F0A000020410000C84200401C1B
:1001D0004620BCBE4CCA1B0E5AAEC59D744C45563B
:1001E000454C494E4700434F4D4D554E49434154B0
:1001F000494F4E0044525952554E004552524F52AB
:100200005300494E464F004543484F0047322F4761
:10021000332062616420706172616D657465727310
:100220000A003C3C3C205A5F534146455F484F4DD5
:10023000494E470A00203A205A5F534146455F48DD
:100240004F4D494E470A00202064657374696E6102
:1002500074696F6E3D005A5F534146455F484F4D8C
:10026000494E47203E3E3E0A00486F6D6520585972
:100270002066697273740A003C3C3C204732380A9D
:10028000005261697365205A20286265666F726545
:1002900020686F6D696E672920746F20003E2065AD
:1002A0006E6473746F70732E656E61626C65287412
:1002B000727565290A003C3C3C204732380A003EF2
:1002C00020686F6D696E67206E6F74206E6565645F
:1002D00065642C20736B69700A003E3E3E204732F5
:1002E000380A00205A3A200020593A20004265641A
:1002F00020583A20004D65736820706F696E742035
:1003000063616E6E6F74206265207265736F6C76C8
:1003100065640A005072696E742074696D653A20D4
:1003200000000136372603FFFFFF353C3D380EFF46
:10033000FFFF312E303E12FFFFFFFF28FF0C0809A0
:10034000FFFFFF1A1C18FFFF2A24221EFFFF2C08A4
:10035000440AFF4307FF4546696C616D656E742072
:10036000757365643A200053746174733A20002CED
:10037000204C6F6E67657374206A6F623A20005478
:100380006F74616C2074696D653A200053746174F8
:10039000733A20002C204661696C65643A20002C79
:1003A0002046696E69736865643A20005072696E10
:1003B00074733A200053746174733A200007020288
:1003C00002FB01F401E601DD016F6666004445426F
:1003D00055473A004D3131332053006F6B002057A1
:1003E0003A002C20002C2000544845524D414C5FCF
:1003F00050524F54454354494F4E004155544F526B
:1004000045504F52545F53445F5354415455530029
:10041000454D455247454E43595F50415253455211
:1004200000434153455F4C494748545F4252494756
:1004300048544E45535300544F47474C455F4C4931
:100440004748545300534F4654574152455F504F0D
:10045000574552004255494C445F50455243454E22
:1004600054004C4556454C494E475F444154410069
:100470005A5F50524F4245004155544F4C455645E6
:100480004C005052494E545F4A4F420050524F4721
:1004900052455353004155544F5245504F52545FAB
:1004A00054454D5000564F4C554D4554524943000C
:1004B000454550524F4D0053455249414C5F584FAE
:1004C0004E5F584F4646004649524D574152455F90
:1004D0004E414D453A4D61726C696E20312E312E80
:1004E000392E3720284769746875622920534F5583
:1004F0005243455F434F44455F55524C3A687474CC
:1005000070733A2F2F6769746875622E636F6D2F51
:100510004D61726C696E4669726D776172652F4DBF
:1005200061726C696E2050524F544F434F4C5F566E
:10053000455253494F4E3A312E30204D41434849A0
:100540004E455F545950453A3344205072696E7499
:1005500065722045585452554445525F434F554E9D
:10056000543A3220555549443A63656465326132E4
:10057000662D343161322D343734382D39623132C1
:100580002D6335356336326633363766660A002F9B
:100590002F2000205400205200416363656C657277
:1005A0006174696F6E3A2050005741524E494E4770
:1005B00021204C6F77205A204A65726B206D61793B
:1005C000206C65616420746F20756E77616E746550
:1005D00064207061757365732E0A004E6F2063612D
:1005E0007365206C696768740A00454550524F4D29
:1005F000204F4B0A003C3C3C2067636F64655F54AE
:100600000A00203A2041465445520A0020206375D2
:100610007272656E745F706F736974696F6E3D009E
:10062000203A204245464F52450A00202063757209
:1006300072656E745F706F736974696F6E3D003EB2
:100640003E3E2067636F64655F5428006F6B002532
:1006500069730025696D2025697300256968202567
:10066000696D202569730025696420256968202546
:10067000696D202569730025697920256964202525
:1006800069682025696D20256973002C20002C20C5
:1006900000203A2073796E635F706C616E5F706FDB
:1006A000736974696F6E0A00202063757272656EDB
:1006B000745F706F736974696F6E3D00656E7175FC
:1006C000657565696E672022004C696E65204E7500
:1006D0006D626572206973206E6F74204C61737453
:1006E000204C696E65204E756D6265722B312C2031
:1006F0004C617374204C696E653A20005072696ECB
:100700007465722073746F70706564206475652001
:10071000746F206572726F72732E20466978207430
:100720006865206572726F7220616E6420757365F2
:10073000204D39393920746F207265737461727479
:100740002E202854656D706572617475726520691C
:10075000732072657365742E20536574206974204C
:1007600061667465722072657374617274696E6714
:10077000290A004E6F20436865636B73756D20779F
:10078000697468206C696E65206E756D6265722C87
:10079000204C617374204C696E653A200063686573
:1007A000636B73756D206D69736D617463682C2064
:1007B0004C617374204C696E653A20004D313130C4
:1007C0000020496E76616C69642065787472756486
:1007D0006572200000000000000020C1000040C041
:1007E0000000524300808943000052430A20736F87
:1007F00066745F656E6473746F705F6D6178203DC1
:1008000020000A20736F66745F656E6473746F7086
:100810005F6D696E203D20000A20706F73697469F6
:100820006F6E5F7368696674203D2000206178698F
:10083000733A0A20686F6D655F6F66667365742032
:100840003D2000466F7220003C3C3C20646F5F629C
:100850006C6F636B696E675F6D6F76655F746F0A4F
:10086000003E3E3E20646F5F626C6F636B696E6733
:100870005F6D6F76655F746F00203A2073657475E5
:10088000705F666F725F656E6473746F705F6F72B6
:100890005F70726F62655F6D6F76650A002020631E
:1008A000757272656E745F706F736974696F6E3D97
:1008B00000203A20636C65616E5F75705F616674DD
:1008C00065725F656E6473746F705F6F725F707274
:1008D0006F62655F6D6F76650A00202063757272C6
:1008E000656E745F706F736974696F6E3D00646FDD
:1008F0005F70726F62655F7261697365280064651D
:10090000706C6F793A2000203A207365745F7072C2
:100910006F62655F6465706C6F7965640A002020A2
:1009200063757272656E745F706F736974696F6EF0
:100930003D00203A203C3C3C20646F5F70726F6247
:10094000655F6D6F76650A00202063757272656E53
:10095000745F706F736974696F6E3D00203A203E5A
:100960003E3E20646F5F70726F62655F6D6F76658B
:100970000A00202063757272656E745F706F736910
:1009800074696F6E3D0072657365745F6265645F64
:100990006C6576656C0A002028646F6E65290A0014
:1009A0004578747261706F6C617465205B00426998
:1009B0006C696E656172204C6576656C696E672046
:1009C000477269643A0A00537562646976696465BE
:1009D000642077697468204341544D554C4C205233
:1009E0004F4D204C6576656C696E6720477269646F
:1009F0003A0A00202D20496E76616C696420657882
:100A0000747275646572206E756D62657220210A5C
:100A1000002020506C616E6E65724275666665726C
:100A200042797465733A20002046726565204D65F1
:100A30006D6F72793A2000436F6D70696C65643A2E
:100A4000204E6F7620313920323032300A00207C3F
:100A500020417574686F723A20286E6F6E652C2085
:100A600064656661756C7420636F6E666967290AD8
:100A700000323031382D30382D303100204C617348
:100A80007420557064617465643A2000312E312EF3
:100A9000392E370A004D61726C696E0020536F6603
:100AA00074776172652052657365740A002057611E
:100AB000746368646F672052657365740A0020422E
:100AC000726F776E206F75742052657365740A00BB
:100AD0002045787465726E616C2052657365740A86
:100AE00000506F77657255700A0073746172740AF2
:100AF00000205A3A0020593A0020583A00656E64A6
:100B000073746F7073206869743A200000002100CC
:100B1000240027002A002D003000330001010000CE
:100B2000040107010A0100002200250028002B0013
:100B30002E003100340002010000050108010B0104
:100B4000000020002300260029002C002F00320086
:100B5000000100000301060109010505050507055F
:100B600008080808020202020A0A08080404040429
:100B70000101010101010101030303030303030355
:100B8000040707070C0C0C0C0C0C0C0C02020202E4
:100B900006060606060606060B0B0B0B0B0B0B0BCD
:100BA000010210202008081020401020408002017F
:100BB0000201080402010102040810204080804064
:100BC0002010080402018004020180402010080463
:100BD0000201080402010102040810204080010201
:100BE00004081020408000000A0B02090C0D0E08BA
:100BF00007030401000000000000000000000000E6
:100C000000000000000000000000000000000000E4
:100C100000001211100000000000000000000000A1
:100C200000000000000000000000000024F4D430A8
:100C300050C38E20C2A24017828B7011127A910D80
:100C4000816CD90AA861E108C7586607615143065B
:100C50001E4B5D05C145A7041A411104093D9803C7
:100C6000713931034036DB0265339102D4305402CE
:100C7000802E1D02632CEE01752AC501B028A0014B
:100C8000102781018F2564012B244B01E0223401C0
:100C9000AC211F018D200D01801FFC00841EED0082
:100CA000971DDF00B81CD200E61BC600201BBC004D
:100CB000641AB200B219A8000A19A0006A189900B3
:100CC000D117910040178B00B516840031167E00B5
:100CD000B31579003A157300C7146F0058146A00F1
:100CE000EE1366008813630025135E00C7125B00D5
:100CF0006C12570015125400C111510070114F00B1
:100D000021114B00D61049008D10470046104400B9
:100D100002104200C00F4000800F3E00420F3C0016
:100D2000060F3B00CB0E3800930E37005C0E3500EB
:100D3000270E3400F30D3200C10D3100900D30004C
:100D4000600D2E00320D2D00050D2C00D90C2B004E
:100D5000AE0C2900850C29005C0C2700350C2700FF
:100D60000E0C2600E80B2400C40B2400A00B23006B
:100D70007D0B23005A0B2100390B2100180B20009A
:100D8000F80A1F00D90A1E00BB0A1E009D0A1D009A
:100D9000800A1D00630A1C00470A1B002C0A1B0066
:100DA000110A1A00F7091A00DD091900C40919000F
:100DB000AB091900920917007B0918006309170095
:100DC0004C09160036091600200916000A091500FC
:100DD000F5081500E0081400CC081400B808140049
:100DE000A4081400900813007D0812006B0813007B
:100DF0005808120046081200340811002308110098
:100E00001208110001081100F0071000E00710009F
:100E1000D0071000C0071000B0070F00A107100096
:100E200091070E0083070F0074070F0065070E007F
:100E300057070E0049070E003B070D002E070E0056
:100E400020070D0013070D0006070D00F9060C0022
:100E5000ED060D00E0060C00D4060C00C8060C00E0
:100E6000BC060C00B0060C00A4060B0099060C0092
:100E70008D060B0082060B0077060B006C060B003C
:100E800061060A0057060B004C060A0042060A00DB
:100E900038060A002E060A0024060A001A060A006E
:100EA0001006090007060A00FD050900F4050900FF
:100EB000EB050900E2050900D9050900D005090084
:100EC000C7050900BE050900B5050800AD05080005
:100ED000A50509009C050800940508008C0508007C
:100EE000840508007C050800740508006C050700EF
:100EF000650508005D050700560508004E0507005A
:100F000047050700400508003805070031050700C0
:100F10002A050700230507001C0506001605070023
:100F20000F0507000805060002050700FB04060080
:100F3000F5040700EE040600E8040600E2040700DA
:100F4000DB040600D5040600CF040600C904060031
:100F5000C3040600BD040600B7040600B104050082
:100F6000AC040600A6040600A00405009B040600CD
:100F700095040500900406008A0405008504050018
:100F8000800406007A04050075040500700405005D
:100F90006B04050066040500610405005C0405009F
:100FA00057040500520405004D04050048040500DF
:100FB000430405003E0404003A040500350405001E
:100FC000300404002C040500270404002304050059
:100FD0001E0404001A040400160405001104040091
:100FE0000D040400090405000404040000040400C6
:100FF000FC030400F8030400F4030400F0030400FD
:10100000EC030400E8030400E4030400E00304002C
:10101000DC030400D8030400D4030400D00304005C
:10102000CC030400C8030300C503030024F404D95F
:10103000201BC40C5C0E9804C4095F026507710193
:10104000F405F900FB04B30048048700C1036900FC
:101050005803550003034500BE023A0084023100E4
:1010600053022A002902250004022000E4011C008A
:10107000C8011900AF011700980114008401130082
:10108000710110006101100051010E0043010D00BB
:1010900036010B002B010B0020010B00150109008C
:1010A0000C01090003010800FB000800F300080020
:1010B000EB000700E4000600DE000600D800060092
:1010C000D2000600CC000500C7000500C2000500E4
:1010D000BD000400B9000400B5000400B100040024
:1010E000AD000400A9000400A5000300A200030055
:1010F0009F0004009B00030098000300950002007D
:1011000093000300900003008D0002008B00030099
:1011100088000200860002008400030081000200B3
:101120007F0002007D0002007B00020079000200C7
:1011300077000100760002007400020072000100D6
:10114000710002006F0002006D0001006C000200DF
:101150006A000100690002006700010066000100EA
:1011600065000100640002006200010061000100EE
:10117000600001005F0002005D0001005C000100F2
:101180005B0001005A0001005900010058000100F5
:1011900057000100560001005500010054000100F5
:1011A00053000000530001005200010051000100F3
:1011B000500001004F0001004E0000004E000100F1
:1011C0004D0001004C0001004B0000004B000100ED
:1011D0004A000100490001004800000048000100E9
:1011E00047000100460000004600010045000000E5
:1011F00045000100440001004300000043000100DD
:1012000042000000420001004100000041000100D6
:10121000400001003F0000003F0001003E000000D0
:101220003E0001003D0000003D0001003C000000C8
:101230003C0000003C0001003B0000003B000100BE
:101240003A0000003A0001003900000039000100B6
:1012500038000000380000003800010037000000AE
:1012600037000100360000003600000036000100A3
:10127000350000003500000035000100340000009A
:10128000340000003400010033000000330000008F
:101290003300010032000000320000003200010083
:1012A000310000003100000031000100300000007A
:1012B00030000000300001002F0000002F0000006F
:1012C0002F0000002F0001002E0000002E00000063
:1012D0002E0001002D0000002D0000002D00000058
:1012E0002D0001002C0000002C0000002C0000004C
:1012F0002C0001002B0000002B0000002B00000040
:101300002B0001002A0000002A0000002A00000033
:101310002A00010029000000290000002900000027
:10132000290000002900010028000000280000001A
:10133000280000002800000028000100270000000D
:101340002700000027000000270000002700010000
:1013500026000000260000002600000026000000F5
:1013600026000100250000002500000025000000E7
:1013700025000000250000002500010024000000D9
:1013800024000000240000002400000024000100CC
:1013900023000000230000002300000023000000C1
:1013A00023000000230000002300010022000000B1
:1013B00022000000220000002200000022000000A5
:1013C0002200010021000000210000002100000097
:1013D0002100000021000000210000002100010088
:1013E000200000002000000020000000200000007D
:1013F000200000002000000020000000200001006C
:101400001F0000001F0000001F0000001F00000060
:101410001F0000001F0000001F0001001E00000050
:101420001E0000001E0000001E0000000437000027
:101430001E290000511B0000581000001009000078
:10144000CC04000078020000410100006265640ADB
:10145000002C2073797374656D2073746F707065E0
:101460006421204865617465725F49443A200042F6
:1014700065642068656174696E67206661696C6582
:10148000640045312048656174696E672066616952
:101490006C65640045322048656174696E6720663A
:1014A00061696C6564004B494C4C45442E200048F2
:1014B0006F74656E64206F6666736574733A00209E
:1014C000466C6F773A2000206F7574206F6620722B
:1014D000616E67650A00536572766F20003A2000DE
:1014E00020536572766F2000496E76616C696420C6
:1014F00065787472756465720A0020643A00206928
:101500003A0020703A0020653A0020643A002069D1
:101510003A0020703A0043290A0061626C65642039
:10152000286D696E2074656D702000436F6C6420B7
:1015300065787472756465732061726520004B6410
:10154000200023646566696E652044454641554C1C
:10155000545F004B69200023646566696E65204412
:10156000454641554C545F004B702000236465662E
:10157000696E652044454641554C545F00504944CE
:10158000204175746F74756E652066696E69736845
:101590006564212050757420746865206C617374D3
:1015A000204B702C204B6920616E64204B642063BB
:1015B0006F6E7374616E74732066726F6D206265F6
:1015C0006C6F7720696E746F20436F6E6669677504
:1015D000726174696F6E2E680A005049442041752B
:1015E000746F74756E65206661696C656421207422
:1015F000696D656F75740A00424544205448455230
:101600004D414C2052554E415741590045312054CF
:101610004845524D414C2052554E41574159004585
:101620003220544845524D414C2052554E4157416D
:1016300059004265642068656174696E672066615F
:10164000696C65640045312048656174696E672086
:101650006661696C65640045322048656174696E35
:1016600067206661696C6564005049442041757467
:101670006F74756E65206661696C656421205465C0
:101680006D706572617475726520746F6F20686922
:1016900067680A00204B643A2000204B693A20001A
:1016A000204B703A20000A20436C617373696320F9
:1016B000504944200A002054753A2000204B753AC6
:1016C0002000206D61783A2000206D696E3A20007C
:1016D00020643A200020626961733A200050494436
:1016E000204175746F74756E65206661696C656400
:1016F000212054656D706572617475726520746F18
:101700006F20686967680A00504944204175746F0A
:1017100074756E652073746172740A0050494420B8
:101720004175746F74756E65206661696C656421BE
:1017300020426164206578747275646572206E75EC
:101740006D6265720A004F66660A00466164652034
:101750004865696768742000426564204C65766559
:101760006C696E6720004661696C656420746F2047
:10177000656E61626C6520426564204C6576656CBF
:10178000696E670A004572726F72207772697469B8
:101790006E6720746F20454550524F4D210A002935
:1017A0000A002062797465733B20637263200053E2
:1017B000657474696E67732053746F726564202852
:1017C000005374616E64617264204465766961746B
:1017D000696F6E3A20002052616E67653A200020E2
:1017E0004D61783A2000204D696E3A20004D6561C8
:1017F0006E3A200046696E6973686564210A0020AC
:1018000072616E67653A2000206D61783A20002091
:101810006D696E3A2000207369676D613A2000207F
:101820006D65616E3A20003A207A3A2000206F669A
:101830002000205A00205900205800476F696E6729
:1018400020746F3A00436C6F636B776973650A00AD
:10185000436F756E7465722D002044697265637400
:10186000696F6E3A2000202020616E676C653A2017
:10187000005374617274696E672072616469757374
:101880003A2000506F736974696F6E696E672074D7
:1018900068652070726F62652E2E2E0A003F4E75AD
:1018A0006D626572206F66206C65677320696E20BB
:1018B0006D6F76656D656E74206E6F7420706C61EF
:1018C000757369626C652028302D3135292E0A0028
:1018D0003F2028582C5929206F7574206F6620628C
:1018E0006F756E64732E0A003F53616D706C6520D6
:1018F00073697A65206E6F7420706C6175736962AC
:101900006C652028342D3530292E0A004D343820BE
:101910005A2D50726F626520526570656174616204
:10192000696C69747920546573740A003F285629DC
:101930006572626F7365206C6576656C20697320D3
:10194000696D706C61757369626C652028302D3427
:10195000292E0A0020573A00205A3A0020423A0025
:1019600020436F756E7420413A0020453A00205A9A
:101970003A0020593A00583A003A004361703A0060
:10198000205A00205900580020204D61783A20004C
:10199000205A00205900580020204D696E3A20003E
:1019A0004F6E20004F666600536F667420656E644C
:1019B00073746F70733A2000556E6B6E6F776E2084
:1019C000636F6D6D616E643A202200203A203C3CCA
:1019D0003C2072756E5F7A5F70726F62650A0020DC
:1019E0002063757272656E745F706F736974696F6E
:1019F0006E3D002044697363726570616E63793A6D
:101A000000326E642050726F6265205A3A00203AAC
:101A1000203C3C3C2072756E5F7A5F70726F62652D
:101A20000A00202063757272656E745F706F73694F
:101A300074696F6E3D00534C4F572050726F626552
:101A4000206661696C210A003173742050726F62E4
:101A500065205A3A00203A203C3C3C2072756E5F6B
:101A60007A5F70726F62650A00202063757272651A
:101A70006E745F706F736974696F6E3D0046415399
:101A8000542050726F6265206661696C210A0020E3
:101A90003A203E3E3E2072756E5F7A5F70726F62D2
:101AA000650A00202063757272656E745F706F73D3
:101AB0006974696F6E3D003C3C3C2070726F6265DA
:101AC0005F70740A0050726F62696E6720666169A8
:101AD0006C65640A00205A3A200020593A200042DE
:101AE000656420583A2000203A200A0020206375BF
:101AF0007272656E745F706F736974696F6E3D00AA
:101B00005F72656C6174697665290A002C20002C6F
:101B100020002C20002C20003E3E3E2070726F6280
:101B2000655F707428002066697273740A005A0039
:101B300059005800486F6D6520006563686F3A0072
:101B40003C3C3C20646F5F686F6D696E675F6D6FD2
:101B5000766528005B00290A002C20002C20003E1E
:101B60003E3E20646F5F686F6D696E675F6D6F7674
:101B700065280020280041424C2041646A75737436
:101B80006D656E74205A00204800205700205900CF
:101B900042696C696E656172204772696420580001
:101BA0005A20466164653A20002028656E61626CA7
:101BB0006564290A00202864697361626C65642980
:101BC0000A0042494C494E454152004175746F200C
:101BD000426564204C6576656C696E673A2000202A
:101BE0004E6F7A7A6C65290A0020262041626F7652
:101BF000650020262053616D65205A206173002006
:101C0000262042656C6F77002D4261636B002028AF
:101C1000526967687400205A3A0020593A0050729D
:101C20006F6265204F666673657420583A004649B6
:101C3000585F4D4F554E5445445F50524F42450AF0
:101C40000050726F62653A2000436F72650A004D62
:101C5000616368696E6520547970653A20003C3C88
:101C60003C204732390A0020636F727265637465E5
:101C700064205A3A0047323920756E636F7272657C
:101C800063746564205A3A00203A203E2070726FD7
:101C900062696E6720636F6D706C6574650A002001
:101CA0002063757272656E745F706F736974696FAB
:101CB0006E3D00202844525952554E290047323972
:101CC000204175746F20426564204C6576656C69AF
:101CD0006E67003F20284C2C522C462C4229206F46
:101CE0007574206F6620626F756E64732E0A003FF4
:101CF0002856296572626F7365206C6576656C2065
:101D0000697320696D706C61757369626C652028F8
:101D1000302D34292E0A00426164205A2076616CED
:101D200075650A004E6F2062696C696E656172208C
:101D3000677269640A003C3C3C204732390A003E25
:101D4000204175746F2D6C6576656C206E6F742004
:101D50006E65656465642C20736B69700A00203AB7
:101D6000203E3E3E204732390A00202063757272C1
:101D7000656E745F706F736974696F6E3D00507249
:101D80006F7465637465642050696E0A0020746F17
:101D90006F206C6F6E6720657874727573696F6EF3
:101DA0002070726576656E7465640A0020636F6CDE
:101DB0006420657874727573696F6E2070726576D1
:101DC000656E7465640A0048617264636F6465647B
:101DD0002044656661756C742053657474696E6720
:101DE00073204C6F616465640A00DC050000DC054B
:101DF0000000DC050000DC05000000007A44000063
:101E00007A4400007A440000C8420000A04200006A
:101E1000A0420000484400004C433A0A0020286DCC
:101E20006D290020204D39303600205900205800FF
:101E30005374657070657220647269766572206390
:101E4000757272656E743A0A0020204D3835312063
:101E50005A005A2D50726F6265204F666673657422
:101E60000020440020490020204D33303420500011
:101E700020440020490020204D33303120500020E4
:101E8000440020490020500020204D3330312045AF
:101E9000005049442073657474696E67733A0A0090
:101EA000205A00204A00202047323920572049007C
:101EB000205A0020204D3432302053004175746F79
:101EC00020426564204C6576656C696E673A0A004D
:101ED00020590020580020204D323138205400482D
:101EE0006F74656E64206F6666736574733A0A007A
:101EF000205A0020590020204D323036205800480A
:101F00006F6D65206F66667365743A0A0020450040
:101F1000205A00205900205800205400205300204F
:101F2000204D32303520510020453C6D61785F6591
:101F30005F6A65726B3E0020583C6D61785F785F28
:101F40006A65726B3E20593C6D61785F795F6A65A6
:101F5000726B3E205A3C6D61785F7A5F6A65726B86
:101F60003E00416476616E6365643A20513C6D6960
:101F70006E5F7365676D656E745F74696D655F75BF
:101F8000733E20533C6D696E5F6665656472617473
:101F9000653E20543C6D696E5F74726176656C5F5E
:101FA00066656564726174653E00205400205200CD
:101FB00020204D323034205000416363656C6572DF
:101FC0006174696F6E2028756E6974732F7332297E
:101FD0003A20503C7072696E745F616363656C3E59
:101FE00020523C726574726163745F616363656CF7
:101FF0003E20543C74726176656C5F616363656C0E
:102000003E0A00204500205A0020590020204D3271
:1020100030312058004D6178696D756D20416363E2
:10202000656C65726174696F6E2028756E69747372
:102030002F7332293A0A00204500205A0020590007
:1020400020204D3230332058004D6178696D756D18
:10205000206665656472617465732028756E6974A5
:10206000732F73293A0A00204500205A0020590096
:1020700020204D39322058005374657073207065EC
:102080007220756E69743A0A0020204D323030207B
:1020900044300A0020204D3230302054312044009A
:1020A00020204D3230302044002044697361626C3E
:1020B00065640A0046696C616D656E7420736574B1
:1020C00074696E67733A0020204732312020202047
:1020D0003B0070012C0190012701B0012201C001D9
:1020E0001D01F00118011002130130020E016002FF
:1020F000090190020401C002FF000003FA0040033E
:10210000F5008003F000D003EB002004E60070042B
:10211000E100E004DC004005D700C005D200400625
:10212000CD00D006C8008007C3003008BE00F0080C
:10213000B900C009B400B00AAF00B00BAA00D00CBF
:10214000A500000EA000500F9B00C010960050127A
:10215000910000148C00C0158700B0178200B019E0
:102160007D00D01B7800001E730040206E0090227E
:102170006900F024640040275F0090295A00E02B9A
:102180005500102E500020304B0010324600E03336
:10219000410090353C001037370070383200A039CC
:1021A0002D00B03A2800A03B2300603C1E00103DEB
:1021B0001900903D1400103E0F00703E0A00C03E12
:1021C0000500003F0000403FFBFF803FF6FFC03F9F
:1021D000F1FF4534004533004532004531004530BC
:1021E000005A32005932005832005A005900580043
:1021F000202F002040002042403A0020403A00EECC
:1022000021EC21EA21E721E421E121DE21DB21D8B3
:1022100021D521D221747275650066616C736500E9
:102220002074656D70657261747572652070726579
:102230007761726E207472696767657265643A20AF
:1022400000207072657761726E20666C6167206332
:102250006C65617265640A005072696E7465722003
:1022600068616C7465642E206B696C6C282920632E
:10227000616C6C6564210A00000000000000000031
:10228000000000003C3C3C207365745F617869731A
:102290005F69735F61745F686F6D652800203A2025
:1022A0000A00202063757272656E745F706F7369C7
:1022B00074696F6E3D005D203D20003E20686F6DAB
:1022C000655F6F66667365745B003E207A70726F3F
:1022D00062655F7A6F6666736574203D20002A2A06
:1022E0002A205A20484F4D454420574954482050F1
:1022F000524F424520285A5F4D494E5F50524F423F
:10230000455F555345535F5A5F4D494E5F454E44B7
:1023100053544F505F50494E29202A2A2A0A003E22
:102320003E3E207365745F617869735F69735F61B6
:10233000745F686F6D652800000020420000204235
:1023400000002041000000005761726E696E673A1C
:1023500020486F6D696E672042756D702044697604
:1023600069736F72203C20310A000202040000A051
:10237000400000A040000000400000524300808E5A
:1023800043000055433C3C3C20686F6D65617869B3
:10239000732800203A203E20414654455220736560
:1023A000745F617869735F69735F61745F686F6D93
:1023B000650A00202063757272656E745F706F73BA
:1023C0006974696F6E3D00486F6D65203220536CF3
:1023D0006F773A0A004D6F766520417761793A0A46
:1023E00000486F6D65203120466173743A0A00FF22
:1023F000FFFF3E3E3E20686F6D656178697328007F
:10240000545249474745524544006F70656E003A43
:1024100020007A5F6D696E00795F6D696E00785F8C
:102420006D696E005265706F7274696E6720656EBB
:102430006473746F70207374617475730A00290A71
:10244000002062797465733B2063726320002073FF
:10245000746F7265642073657474696E677320723B
:102460006574726965766564202800202863616C54
:1024700063756C6174656429210A0020213D200088
:10248000454550524F4D20435243206D69736D6155
:10249000746368202D202873746F7265642920008E
:1024A0002053697A653A2000496E6465783A2000C5
:1024B000204D61726C696E3D563538290A002845F9
:1024C0004550524F4D3D00454550524F4D20766589
:1024D0007273696F6E206D69736D6174636820003B
:1024E0004572726F723A0042454420544845524D3D
:1024F000414C2052554E41574159004531205448D6
:1025000045524D414C2052554E415741590045329C
:1025100020544845524D414C2052554E4157415947
:10252000004D65736820706F696E742063616E6E14
:102530006F74206265207265736F6C7665640A0043
:102540004D34323120696E636F727265637420702E
:102550006172616D657465722075736167650A00EB
:10256000546F6F206661722066726F6D20726566AF
:102570006572656E636520706F696E740A003A203B
:102580000050726F6265205A204F66667365740052
:102590003F5A206F7574206F662072616E676520E8
:1025A000282D323020746F203230290A00206472C6
:1025B000697665722063757272656E743A2000499F
:1025C0006E76616C69642065787472756465720AF0
:1025D000004163746976652045787472756465722C
:1025E0003A2000203A204D6F7665206261636B0AC5
:1025F00000202064657374696E6174696F6E3D00BC
:10260000207D0A002C20004F666673657420546F8D
:102610006F6C205859206279207B20004E6F206D0E
:102620006F7665206F6E20746F6F6C6368616E6784
:10263000650A00526573656E643A200020746F6FFE
:10264000206C6F6E6720657874727573696F6E2089
:1026500070726576656E7465640A0020636F6C64E1
:1026600020657874727573696F6E20707265766517
:102670006E7465640A00627573793A2070617573CF
:10268000656420666F7220696E7075740A006275E9
:1026900073793A2070617573656420666F72207576
:1026A0007365720A00627573793A2070726F6365A0
:1026B0007373696E670A004B494C4C2063617573F4
:1026C000656420627920746F6F206D75636820697E
:1026D0006E6163746976652074696D65202D206371
:1026E000757272656E7420636F6D6D616E643A20F1
:1026F00000007AD911241FBECFEFD1E2DEBFCDBFDB
:1027000000E00CBF15E0A0E0B2E0ECE5FFEC01E07A
:102710000BBF02C007900D92A239B107D9F728E18B
:10272000A2E9B5E001C01D92AB31B207E1F713E1B8
:10273000CAE7D3E100E006C021970109802FFE011E
:102740000E9402E7C937D10780E00807A9F70E9475
:102750005CD30C94ACE70C9400002F923F924F9204
:102760005F926F927F928F929F92AF92BF92CF9221
:10277000DF92EF92FF920F931F93CF93DF93CDB72A
:10278000DEB7C657D1090FB6F894DEBF0FBECDBF76
:1027900021E02093DE1780917A068D3411F40C9499
:1027A0001D20843511F40C94132D873411F00C94F2
:1027B000562E80917806909179068C31910509F416
:1027C000A6C67CF4843091053CF482309105B4F5C2
:1027D00097FF2DC00C941920049709F463C60C943C
:1027E00019208A32910511F40C94211E5CF48D316C
:1027F000910511F40C94481D4E9711F40C944C1D46
:102800000C9419208B35910511F40C94FD1E8C3518
:10281000910511F40C94031F8A35910511F00C9465
:102820001920109297051092840D0C94582E8091C7
:102830001A0281110C94712E0C94582E20911A02B8
:10284000222311F40C94582E11E0029709F010E0A5
:102850000E940A7982E50E941A33882309F45CC138
:102860000E94A0326B017C0140900D1350900E131A
:1028700060900F1370901013209111133091121368
:10288000409113135091141322962CAF3DAF4EAFCD
:102890005FAF22978091630D9091640DA091650DBB
:1028A000B091660D26968CAF9DAFAEAFBFAF2697A9
:1028B0002091670D3091680D4091690D50916A0D1E
:1028C0002A962CAF3DAF4EAF5FAF2A9720E030E0A5
:1028D000A901C701B6010E949DDF882309F4C8C57C
:1028E000A301920126966CAD7DAD8EAD9FAD26976E
:1028F0000E949DDF811111C022962CAD3DAD4EADE1
:102900005FAD22972A966CAD7DAD8EAD9FAD2A97B7
:102910000E949DDF882309F4ABC520E030E0A901C7
:10292000C701B6010E949DDF881F8827881F1813E2
:102930000BC080E090E0A0E8BFE36A968CAF9DAF4B
:10294000AEAFBFAF6A970AC020E030E040E85FEB6F
:102950006A962CAF3DAF4EAF5FAF6A97A30192016D
:1029600026966CAD7DAD8EAD9FAD26970E9406E498
:1029700062966CAF7DAF8EAF9FAF629722962CAD03
:102980003DAD4EAD5FAD22972A966CAD7DAD8EAD5F
:102990009FAD2A970E9406E466966CAF7DAF8EAF1E
:1029A0009FAF669762962CAD3DAD4EAD5FAD629721
:1029B000CA01B9010E9402E04B015C0166962CAD90
:1029C0003DAD4EAD5FAD6697CA01B9010E9402E010
:1029D0009B01AC01C501B4010E9407E40E9472E6AC
:1029E0002E966CAF7DAF8EAF9FAF2E9720E030E07C
:1029F00040E05FE30E9402E04B015C01A701960109
:102A0000C701B6010E9402E06B017C01A50194019F
:102A1000C501B4010E9402E09B01AC01C701B601EF
:102A20000E9406E40E9472E69B01AC016A966CADBE
:102A30007DAD8EAD9FAD6A970E9402E04B015C01B7
:102A400026962CAD3DAD4EAD5FAD2697C301B201CC
:102A50000E9407E420E030E040E05FE30E9402E0F3
:102A60006B017C0166966CAD7DAD8EAD9FAD6697BA
:102A700090582E962CAD3DAD4EAD5FAD2E970E9479
:102A8000E3E49B01AC01C501B4010E9402E09B019B
:102A9000AC01C701B6010E9407E4A30192010E94A4
:102AA00006E46B017C012A962CAD3DAD4EAD5FADC9
:102AB0002A9722966CAD7DAD8EAD9FAD22970E9478
:102AC00007E420E030E040E05FE30E9402E02B01F9
:102AD0003C012E962CAD3DAD4EAD5FAD2E9762966E
:102AE0006CAD7DAD8EAD9FAD62970E94E3E49B011E
:102AF000AC01C501B4010E9402E09B01AC01C3011D
:102B0000B2010E9407E422962CAD3DAD4EAD5FAD03
:102B100022970E9406E414C089E40E941A33882395
:102B200029F00E94A0326B017C0103C0C12CD12C82
:102B300076018AE40E941A338823F9F00E94A032B9
:102B40002A966CAF7DAF8EAF9FAF2A9720E030E022
:102B5000A901C701B6010E949DDF81111EC020E0BE
:102B600030E0A9012A966CAD7DAD8EAD9FAD2A9760
:102B70000E949DDF811111C07BC420E030E0A901DB
:102B8000C701B6010E949DDF882309F471C42A960B
:102B90001CAE1DAE1EAE1FAE2A97D701C601B0589F
:102BA00022968CAF9DAFAEAFBFAF22972A962CADC9
:102BB0003DAD4EAD5FAD2A97505826962CAF3DAF38
:102BC0004EAF5FAF26979C01AD01BC01CD010E94C5
:102BD00002E04B015C0126962CAD3DAD4EAD5FADE4
:102BE0002697CA01B9010E9402E09B01AC01C50110
:102BF000B4010E9407E40E9472E6A6966CAF7DAF16
:102C00008EAF9FAFA69780910D1390910E13A09158
:102C10000F13B09110132E968CAF9DAFAEAFBFAF18
:102C20002E97A7019601BC01CD010E9407E46A9688
:102C30006CAF7DAF8EAF9FAF6A972091111330912B
:102C40001213409113135091141362962CAF3DAFA1
:102C50004EAF5FAF62972A962CAD3DAD4EAD5FADE6
:102C60002A9762966CAD7DAD8EAD9FAD62970E9446
:102C700007E4AA966CAF7DAF8EAF9FAFAA97809105
:102C8000630D9091640DA091650DB091660D6696EF
:102C90008CAF9DAFAEAFBFAF66976A962CAD3DAD22
:102CA0004EAD5FAD6A97BC01CD010E9406E46B0199
:102CB0007C012091670D3091680D4091690D509114
:102CC0006A0D6E962CAF3DAF4EAF5FAF6E97AA9672
:102CD0002CAD3DAD4EAD5FADAA976E966CAD7DADA2
:102CE0008EAD9FAD6E970E9406E44B015C01809112
:102CF000151390911613A0911713B0911813A29663
:102D00008CAF9DAFAEAFBFAFA2979C01AD016091FC
:102D10006B0D70916C0D80916D0D90916E0D0E94F8
:102D200006E42B013C0120916F0D3091700D409114
:102D3000710D5091720DE2962CAF3DAF4EAF5FAF6B
:102D4000E2978091191390911A13A0911B13B091DF
:102D50001C13AE968CAF9DAFAEAFBFAFAE97A701C1
:102D6000960122966CAD7DAD8EAD9FAD22970E94EF
:102D700002E0E6966CAF7DAF8EAF9FAFE697A50100
:102D8000940126966CAD7DAD8EAD9FAD26970E94C9
:102D900002E09B01AC01E6966CAD7DAD8EAD9FADC2
:102DA000E6970E9407E4E6966CAF7DAF8EAF9FAFCB
:102DB000E697A501940122966CAD7DAD8EAD9FADD9
:102DC00022970E9402E04B015C01A7019601269622
:102DD0006CAD7DAD8EAD9FAD26970E9402E09B014C
:102DE000AC01C501B4010E9406E4E6962CAD3DADF0
:102DF0004EAD5FADE6970E947AE46B017C0120E066
:102E000030E0A9010E949DDF87FF0AC02BED3FE063
:102E100049EC50E4C701B6010E9407E46B017C0154
:102E2000112351F02BED3FE049EC50E4C701B6010E
:102E30000E9406E46B017C0120E030E0A901C7019B
:102E4000B6010E949DDF811128C066962CAD3DAD74
:102E50004EAD5FAD66972E966CAD7DAD8EAD9FADE0
:102E60002E970E949DDF811118C06E962CAD3DAD4E
:102E70004EAD5FAD6E9762966CAD7DAD8EAD9FAD84
:102E800062970E949DDF811108C0BBEDCB2EBFE091
:102E9000DB2EB9ECEB2EB0E4FB2EA7019601A69633
:102EA0006CAD7DAD8EAD9FADA6970E9402E04B014B
:102EB0005C0120E030E0A901C301B2010E949DDF66
:102EC0008823C9F0A5019401C501B4010E9402E064
:102ED0004B015C01A3019201C301B2010E9402E017
:102EE0009B01AC01C501B4010E9407E40E9472E697
:102EF0004B015C010DC020E030E0A901C501B40127
:102F00000E942DE687FF04C0B7FAB094B7F8B094DA
:102F10002FE632E143E85AE3C501B4010E949DDF88
:102F200087FF02C00C94582EC501B4010E947CE5B5
:102F30000E9450E51B01672B19F422242394312CA5
:102F4000B10180E090E00E94A1DF4B015C019B0198
:102F5000AC01C701B6010E94E3E42E966CAF7DAFD1
:102F60008EAF9FAF2E97A5019401C301B2010E94BD
:102F7000E3E4A6966CAF7DAF8EAF9FAFA697AE96FB
:102F80002CAD3DAD4EAD5FADAE97E2966CAD7DAD77
:102F90008EAD9FADE2970E9406E4A50194010E94C8
:102FA000E3E4E2966CAF7DAF8EAF9FAFE2972E96D3
:102FB0002CAD3DAD4EAD5FAD2E97CA01B9010E945B
:102FC00002E020E030E040E05FE30E9402E09B018D
:102FD000AC0160E070E080E89FE30E9406E46E963A
:102FE0006CAF7DAF8EAF9FAF6E97A2962CAD3DAD0F
:102FF0004EAD5FADA2972E8F3F8F48A359A3AE96DB
:103000008CAD9DADAEADBFADAE978AA39BA3ACA377
:10301000BDA360916D0270916E02072E000C880BAB
:10302000990B0E94A3DF209122023091230240914C
:103030002402509125020E9402E02AE037ED43E28B
:103040005CE30E9402E06AAF7BAF8CAF9DAF0E9451
:103050002E419B01AC0128533F4F4F4F5F4FA2962B
:103060002CAF3DAF4EAF5FAFA2974EAC5FAC219699
:103070006FAC219722967FAC229741E050E0649696
:103080005FAF4EAF649759E12F965FAF2F9764966D
:103090002EAD3FAD64972215330509F473C10E942C
:1030A0007E480E942E41DC01CB01A2962CAD3DADA5
:1030B0004EAD5FADA297821B930BA40BB50BB7FD72
:1030C00010C00E942E419B01AC0128533F4F4F4F2F
:1030D0005F4FA2962CAF3DAF4EAF5FAFA2970E945D
:1030E00054CD2F963FAD2F9731502F963FAF2F974E
:1030F000332309F44BC06E962CAD3DAD4EAD5FADA4
:103100006E9726966CAD7DAD8EAD9FAD26970E94D5
:1031100002E06B017C012E962CAD3DAD4EAD5FAD56
:103120002E97B201C3010E9402E0A70196010E94FE
:1031300007E47B018C016E962CAD3DAD4EAD5FADCD
:103140006E97B201C3010E9402E04B015C012E9612
:103150002CAD3DAD4EAD5FAD2E9726966CAD7DADE1
:103160008EAD9FAD26970E9402E09B01AC01C50188
:10317000B4010E9406E42B013C01C701D801269648
:103180008CAF9DAFAEAFBFAF269761C064964EAD1A
:103190005FAD6497BA0180E090E00E94A1DF2E96B7
:1031A0002CAD3DAD4EAD5FAD2E970E9402E04B01C0
:1031B0005C010E94E0E46B017C01C501B4010E9446
:1031C00068E64B015C01A701960122966CAD7DADCE
:1031D0008EAD9FAD22970E9402E02B013C01A5011C
:1031E00094012A966CAD7DAD8EAD9FAD2A970E945D
:1031F00002E09B01AC01C301B2010E9407E42B0174
:103200003C01A501940122966CAD7DAD8EAD9FADC4
:1032100022970E9402E04B015C01A70196012A96C9
:103220006CAD7DAD8EAD9FAD2A970E9402E09B01F3
:10323000AC01C501B4010E9406E426966CAF7DAFD7
:103240008EAF9FAF269759E12F965FAF2F979201D0
:10325000A3016A966CAD7DAD8EAD9FAD6A970E945D
:1032600007E46E8B7F8B888F998F26962CAD3DADB2
:103270004EAD5FAD2697AA966CAD7DAD8EAD9FAD80
:10328000AA970E9407E46A8F7B8F8C8F9D8FA696EA
:103290002CAD3DAD4EAD5FADA6976E8D7F8D88A1F7
:1032A00099A10E9407E46E8F7F8F88A399A3E2966D
:1032B0002CAD3DAD4EAD5FADE2976AA17BA18CA177
:1032C0009DA10E9407E46AA37BA38CA39DA3809188
:1032D0006C02882321F0CE0146960E94A7A2E090BE
:1032E000B90D1AAA1BAA1CAA1DAA0E891F89288D0E
:1032F000398D0EA31FA328A739A74A8D5B8D6C8D2E
:103300007D8D4AA75BA76CA77DA78E8D9F8DA8A1F9
:10331000B9A18EA79FA7A8ABB9AB09831A832B834A
:103320003C834D835E836F83788789879A87AB87D9
:10333000BC878AA19BA1ACA1BDA18D879E87AF87C9
:10334000B88B9E01235F3F4FAE01475F5F4FBE01C9
:103350006B5F7F4FCE0101960E9435A7CE01C296CA
:103360006C018E01065C1F4F9E012E5D3F4FAE012A
:10337000425D5F4FBE01665D7F4F0C970E94E1800A
:1033800081116CC0E090B90D1EAA1FAA18AE19AE2B
:103390000091630D1091640D2091650D3091660DC3
:1033A0000EA31FA328A739A74091670D5091680D60
:1033B0006091690D70916A0D4AA75BA76CA77DA704
:1033C00080916B0D90916C0DA0916D0DB0916E0D73
:1033D0008EA79FA7A8ABB9AB09831A832B833C8325
:1033E0004D835E836F83788789879A87AB87BC8795
:1033F00080916F0D9091700DA091710DB091720D33
:103400008D879E87AF87B88B9E01235F3F4FAE01AC
:10341000475F5F4FBE016B5F7F4FCE0101960E94F9
:1034200035A7DE01D6966D018E01065C1F4F2FE693
:103430003DE0AE01425D5F4FBE01665D7F4FCE0154
:1034400086960E94E18080E1E3E6FDE0ADE0B3E135
:1034500001900D928A95E1F70C94582E6496EEAD8A
:10346000FFAD649731966496FFAFEEAF64970FCED1
:10347000E0EEF4E284918F010F5F1F4F882321F06B
:103480000E948834F801F6CFECE0F2E084918F01DD
:103490000F5F1F4F882311F40C94582E0E9488341C
:1034A000F801F4CF80E50E941A33882329F00E94A6
:1034B00060326B017C0103C0C12CD12C760183E505
:1034C0000E941A33882361F00E94A03220E030E08D
:1034D0004AE754E40E9402E00E9450E56B017C013F
:1034E0000E94A48F0E942E41C60ED71EE81EF91E10
:1034F0000E942E41DC01CB018C199D09AE09BF0948
:10350000B7FD02C00C94582E0E9454CDF1CF0E94FA
:10351000F89F21E040E050E0BA0180E00E947CC0CA
:103520008091110C85FF0EC0EAEDF2E084918F01CD
:103530000F5F1F4F882321F00E948834F801F6CFD7
:103540000E947E778091000C8770873071F58FE440
:103550000E941A33882369F00E949132882329F14E
:103560008091110C85FD02C00C94582EEFEBF2E017
:1035700004C08FE40E94D332F1CF84918F010F5F9A
:103580001F4F882321F00E948834F801F6CFE6EB24
:10359000F2E084918F010F5F1F4F882311F40C9488
:1035A000582E0E948834F801F4CF0E94A48F80E046
:1035B0000E942C3C3091B90D63963FAF639721E098
:1035C00040E050E0BA0180E00E947CC00E94A43B31
:1035D0008091110C85FF0CC0EDE9F2E084918F0120
:1035E0000F5F1F4F882321F00E948834F801F6CF27
:1035F00011E010933B0688E50E94D33227968FAFE7
:10360000279789E50E94D332282E8AE50E94D3327B
:103610002B968FAF2B9727964FAD2797411105C05B
:10362000211005C0382E312607C0211002C0312CD0
:1036300003C02B963FAC2B970E94743482E50E9406
:103640001A33882369F00E94A0326B017C0120E0CC
:1036500030E0A9010E949DDF882309F43FC006C025
:10366000C12CD12CF0EAEF2EF0E4FF2E311008C06F
:1036700027965FAD2797511103C0222009F443C15B
:10368000C0926B0DD0926C0DE0926D0DF0926E0DAC
:103690002091151330911613409117135091181360
:1036A000C701B6010E942DE61816C4F48091110CD2
:1036B00085FF09C0B701A60181E892E00E94A6B784
:1036C0008AE00E94883419821A821B821C82BE0101
:1036D0006F5F7F4F8BE69DE00E94803A311009C0FA
:1036E00027968FAD2797882309F4FCC0222009F480
:1036F00005C110921113109212131092131310920D
:10370000141310920D1310920E1310920F131092A7
:1037100010130E94CE3BEFEEF3E2A4916796AFAF99
:103720006797E9E7F3E285909590A590B490EDE76F
:10373000F3E2C590D590E590F490A7019601C501FC
:10374000B4010E942DE618162CF4A5019401C701BE
:10375000B60104C0A7019601C501B4010E94E3E4CB
:103760002B013C01ECE3F3E2259135914591549115
:1037700022962CAF3DAF4EAF5FAF2297E8E3F3E266
:1037800085919591A591B49126968CAF9DAFAEAFE2
:10379000BFAF2697BC01CD010E949DDF87FD0DC004
:1037A0001EAD0FAD21969FAD21972F969FAF2F97FE
:1037B0002296AFAD2297AEAF10C023961FAD2397D0
:1037C00024960FAD24972596BFAD25972F96BFAFB2
:1037D0002F972696EFAD2697EEAFA3019201C30176
:1037E000B2010E9402E020E030E040E85FE30E9486
:1037F00007E40E9472E69B01AC01612F702F2F96A7
:103800008FAD2F979EAD0E9402E069837A838B83F0
:103810009C83E0EFF3E2149120911513309116137D
:10382000409117135091181322962CAF3DAF4EAF15
:103830005FAF229720E030E040EC5FE3C701B601C4
:103840000E9402E06B017C01612F110F770B880B46
:10385000990B0E94A3DF9B01AC01C701B6010E9436
:1038600002E02B013C0120E030E040EC5FE3C501C9
:10387000B4010E9402E06B017C0167963FAD67973F
:10388000632F330F770B880B990B0E94A3DF9B01EB
:10389000AC01C701B6010E9402E0AE014F5F5F4F6D
:1038A0006A012296ECACFDAC0EAD1FAD2297A301D0
:1038B00092010E944F390E94B0AE109211131092E3
:1038C0001213109213131092141310920D131092DE
:1038D0000E1310920F1310921013311005C0211007
:1038E00003C007C0222079F081E00E9439A3311083
:1038F00005C027969FAD2797992329F080E00E9465
:1039000039A3311006C02B965FAD2B97552309F4D0
:1039100098C08091000C83708330C9F0EAE3FBE12A
:1039200084918F010F5F1F4F882321F00E948834FC
:10393000F801F6CFE9E6F2E084918F010F5F1F4FA7
:10394000882309F47EC00E948834F801F5CF809165
:10395000110C85FF0CC0E6E5F2E084918F010F5F4A
:103960001F4F882321F00E948834F801F6CF0E946F
:10397000CE3B8091151390911613A0911713B0911F
:10398000181380936B0D90936C0DA0936D0DB093F5
:103990006E0D80E090E0A0EAB2E48093630D909316
:1039A000640DA093650DB093660D80E090E0A2EDEC
:1039B000B2E48093670D9093680DA093690DB09366
:1039C0006A0D8091110C85FF08C043E65DE065E358
:1039D00072E087E492E00E949E3A19821A821B826A
:1039E0001C82E0901513F09016130091171310919C
:1039F00018132091670D3091680D4091690D509119
:103A00006A0D6091630D7091640D8091650D9091C8
:103A1000660DDE0111966D010E944F3982E00E9411
:103A200039A38091110C85FF0CC0E2E2F2E0849191
:103A30008F010F5F1F4F882321F00E948834F80107
:103A4000F6CF0E94CE3B80913A0680933B060E94BF
:103A5000803B21E040E050E0BA0163968FAD639770
:103A60000E947CC00E941A698091110C85FD02C0E1
:103A70000C94582EE8E7F2E084918F010F5F1F4FFE
:103A8000882311F40C94582E0E948834F801F4CF46
:103A90000E94617B0C94582EC0900D13D0900E1391
:103AA000E0900F13F090101388E50E941A338111F3
:103AB00009C020E030E040EA51E4C701B6010E94AD
:103AC00007E402C00E94A0326E8B7F8B888F998F93
:103AD000C0901113D0901213E0901313F0901413B0
:103AE00089E50E941A33811109C020E030E040E0EE
:103AF00052E4C701B6010E9407E402C00E94A0324E
:103B00009B01AC0169837A838B839C836E897F8957
:103B1000888D998D0E9438A5882311F40C94582E15
:103B200080E00E942C3C0E94A43B85E40E941A3352
:103B3000882321F00E949132182F04C085E40E944E
:103B4000D33211E086E50E941A33882321F00E94C7
:103B50007032262F01C021E0412FBE016F5F7F4FE1
:103B6000CE0146960E9466746B017C019B01AC01FC
:103B70000E94B3E681115FC08E889F88A88CB98CA3
:103B800020E030E0A901C501B4010E949DDF87FD5E
:103B900005C027E137EB41E558E304C027E137EBE7
:103BA00041E558EBC501B4010E9407E4AB01BC013B
:103BB0008DEE92E00E94A6B789809A80AB80BC808F
:103BC00020E030E0A901C501B4010E949DDF87FD1E
:103BD00005C027E137EB41E558E304C027E137EBA7
:103BE00041E558EBC501B4010E9407E4AB01BC01FB
:103BF00088EE92E00E94A6B720E030E0A901C7015C
:103C0000B6010E949DDF87FD05C027E137EB41E546
:103C100058E304C027E137EB41E558EBC701B60193
:103C20000E9407E4AB01BC0183EE92E00E94A6B7BC
:103C30008AE00E9488340E94803B0E941A690C949A
:103C4000582E80911A02882311F40C94582E89E47E
:103C50000E941A33182F882321F00E947032E62E1A
:103C600001C0E12C8AE40E941A33082F882331F026
:103C70000E947032F62E111104C00BC0F12C1123DA
:103C8000C1F0B4E0BE1510F00C94EF2EE5EFF2E0B9
:103C900004C0E4E0EF15D0F30CC084918F010F5FF6
:103CA0001F4F882311F40C94582E0E948834F80179
:103CB000F4CF0E9474341123F1F02091940C3091D0
:103CC000950C4E2D4203B001439F700D112480913D
:103CD000BC0D9091BD0D680F791F072E000C880B4D
:103CE000990B0E94A3DF6093630D7093640D809322
:103CF000650D9093660D0023F1F02091960C3091A4
:103D0000970C5F2D5203B001539F700D1124209129
:103D1000BE0D3091BF0D620F731F072E000C880B74
:103D2000990B0E94A3DF6093670D7093680D8093D9
:103D3000690D90936A0D80E50E941A338823E9F09B
:103D40000E9491328823A9F11123D9F020E030E0BC
:103D500040EA51E46091630D7091640D8091650DAE
:103D60009091660D0E9406E46093630D7093640D5C
:103D70008093650D9093660D04C080E50E94D33258
:103D8000E1CF0023B1F020E030E040E052E4609168
:103D9000670D7091680D8091690D90916A0D0E9478
:103DA00006E46093670D7093680D8093690D90939E
:103DB0006A0D86E40E941A338823D9F00E94A0324B
:103DC0006B017C0120E030E0A9010E942DE618166D
:103DD00084F420E030E040E752E4C701B6010E94DD
:103DE000E3E4609322027093230280932402909371
:103DF00025020E944CC50C94582E209397052093C1
:103E0000840D0C94582E7EEEA72E72E0B72EE7E5B7
:103E1000CE2EEDE0DE2EE12CF12C00E010E0D501FD
:103E20008D915D010E941A33882309F4A2C00E947B
:103E3000A032133049F0F701EB5FF34F208131815D
:103E4000428153810E9406E469837A838B839C8339
:103E5000F701E35FFC4E20813181428153810E9452
:103E600006E49B01AC01133009F074C01092890D77
:103E700010928A0D10928B0D10928C0D1092A10D44
:103E80001092A20D1092A30D1092A40D1092A50DE8
:103E90001092A60D1092A70D1092A80D1092990DD8
:103EA00010929A0D10929B0D10929C0D1092B10DD4
:103EB0001092B20D1092B30D1092B40D1092A90D84
:103EC0001092AA0D1092AB0D1092AC0D10929D0D98
:103ED00010929E0D10929F0D1092A00D1092B50D94
:103EE0001092B60D1092B70D1092B80D1092AD0D44
:103EF0001092AE0D1092AF0D1092B00DCE01019642
:103F00000E9418D989819A81AB81BC818093191351
:103F100090931A13A0931B13B0931C1366E5862E7F
:103F200063E0962EF40181914F01882319F00E94DD
:103F30008834F8CF6091191370911A1380911B1374
:103F400090911C1342E00E94A7378AE00E948834B7
:103F500001E00FC0D6016D917D918D919C910E94E1
:103F600007E4F6016083718382839383812F0E942B
:103F700092341F5FF4E0CF0ED11C24E0E20EF11C5E
:103F8000143009F04CCF002309F44FC020E030E09A
:103F9000A9016091191370911A1380911B139091CC
:103FA0001C130E9407E420912E0B30912F0B40919F
:103FB000300B5091310B0E9402E00E9438E6609372
:103FC000EF137093F0138093F1139093F213909189
:103FD000CD138091CE13981719F00E94468F25C0FB
:103FE0000E94A48F80916F0081FB992790F981FF37
:103FF00005C080916F008D7F80936F004091EF131B
:104000005091F0136091F1137091F21340931E0BD5
:1040100050931F0B6093200B7093210B992329F071
:1040200080916F00826080936F000E941A690C94E7
:10403000582E0E9446770C94582E809178069091C5
:1040400079068337910511F40C94842A0CF0F8C09A
:104050008C34910509F4ACC40CF079C08C33910513
:1040600009F49EC30CF047C08F31910509F4AFC22B
:1040700084F48131910509F49FC22CF4029708F46D
:1040800015C20C94102D429711F40C947E290C94B7
:10409000102D8933910509F4CDC264F48A3291055B
:1040A00009F4BAC2C09711F00C94102D0E947B6BDA
:1040B0000C94582E8A33910509F4F5C1CB9711F071
:1040C0000C94102D1092BA0D10928F0D109298052D
:1040D0001092990510929A0510929B051092900DDE
:1040E00010929C0510929D0510929E0510929F05BE
:1040F00008E813E027C38134910511F40C94582E7D
:104100009CF48E33910509F453C30CF44DC38F33E3
:10411000910509F451C38034910511F00C94102DD0
:104120000E9485650C94582E8B3491050CF03CC48C
:104130008434910514F00C94582E8234910509F4BE
:104140003FC38334910509F43FC30C94102D883686
:10415000910509F448C50CF040C08135910511F472
:104160000C946C2984F48E34910509F43AC40CF44F
:1041700034C48F34910509F454C38035910509F492
:1041800054C30C94102D8435910511F40C947E29A0
:104190007CF48235910511F40C947B2983359105CB
:1041A00011F00C94102D81E0809396050C94582EFC
:1041B0008535910511F40C94AD298C35910511F0DC
:1041C0000C94102D6EEEC62E62E0D62E72E2E72E13
:1041D0007BE0F72E10E00C94C6298D36910509F48A
:1041E000F8C59CF48A36910511F40C9440290CF41E
:1041F000B0C58B36910511F40C945C298C36910571
:1042000011F40C94582E0C94102D8037910511F454
:104210000C94582E54F48E36910509F410C58F363F
:10422000910509F41FC50C94102D8137910509F4EF
:1042300067C58237910511F40C94452A0C94102D12
:104240008E3231E0930711F40C94992C0CF08EC04F
:104250008B3C910511F40C94502B0CF048C089371D
:10426000910511F40C94312BF4F48637910511F477
:104270000C94E12A3CF48537910511F40C94582EE6
:104280000C94102D8737910511F40C942E2B883740
:10429000910511F00C94102D81E080933B068093E2
:1042A0003A060C94582E8E3B910509F4C1C754F47C
:1042B0008C38910509F4A2C78B39910509F464C5BE
:1042C0000C94102D883C910511F40C94362B893CEC
:1042D000910511F00C94102D46EDE42E4DE0F42ED6
:1042E0000EEE12E054E0D52ED00E0C94392B8A3D00
:1042F000910511F40C94852CB4F48D3C910511F4C6
:104300000C94D92B14F40C946C2B8E3C910511F465
:104310000C944A2C833D910511F00C94102D0E94B1
:1043200092670C94582E823E910511F40C94932CB4
:1043300074F48C3D910511F40C94882C8D3D9105FD
:1043400011F00C94102D0E946C5D0C94582E883145
:1043500051E0950711F40C94962C8D32914011F098
:104360000C94102D0E946E5B0C94582E843FB1E08B
:104370009B0711F40C94CB2C0CF042C08139F1E076
:104380009F0711F40C94B92CC4F4803331E09307E7
:1043900011F40C949F2C14F40C949C2C833651E053
:1043A000950711F40C94A22C8039914011F00C94D3
:1043B000102D0E94A48F0C94582E843AB1E09B07D4
:1043C00011F40C94C52C6CF48239F1E09F0711F4C0
:1043D0000C94BF2C8A39914011F40C94582E0C94F3
:1043E000102D853A31E0930711F40C94C82C8C3AC7
:1043F000914011F00C94102D0E94BCC30C94582EC7
:10440000833553E0950711F40C94FC2C4CF5873F51
:10441000B1E09B0711F40C94D12C7CF4853FF1E0C2
:104420009F0711F40C94CE2C863F914011F00C9410
:10443000102D0E944A950C94582E883F31E0930726
:1044400011F40C94DB2C8A39924011F00C94102D4D
:104450006FEF88E790E00E948CE307EA13E09BC2CD
:104460008F3853E0950711F40C94022D6CF48A38C0
:10447000B3E09B0711F40C94FF2C8B38934011F49C
:104480000C94582E0C94102D8039F3E09F0711F4F2
:104490000C940D2D873E934011F00C94102D0E942A
:1044A00074C20C94582E03E613E0E2C00091760625
:1044B0001091770680E50E941A33882361F00E94EC
:1044C00060326B017C01BB24B394672B682B692B92
:1044D00031F4B12C04C0B12CC12CD12C760183E570
:1044E0000E941A33882311F40C94762E0E94A03275
:1044F00020E030E04AE754E40E9402E00E9450E5E8
:104500006B017C01B1100BC0672B682B692B39F450
:104510000115110521F0D8018C91811102C0B12C37
:1045200002C0BB24B3940E94A48FBB20C1F0EAE375
:10453000FBE184915F01BFEFAB1ABB0A882321F036
:104540000E948834F501F5CFF80181918F0188230D
:1045500019F00E948834F8CF8AE00E94883483E002
:104560008093DE1781E080939205C114D104E104A9
:10457000F104D9F00E942E41C60ED71EE81EF91E86
:104580000E942E41DC01CB018C199D09AE09BF09A7
:10459000B7FD04C0109292050C94582E809192059C
:1045A0008823C1F30E9454CDEBCF809192058823DC
:1045B00089F30E9454CDF9CF5F988A9880910801C1
:1045C000817080930601129847980C94582E0E948F
:1045D000574A6E8B7F8B888F998FBE016F5F7F4F9D
:1045E000CE0146960E942633EAE3FBE184918F01D7
:1045F0000F5F1F4F882321F00E948834F801F6CF07
:10460000BE016F5F7F4F84E193E00E94F8B78AE0BC
:104610000E9488340C94582E83E50E941A3381112D
:104620000C947B2E84E40E941A3381110C947B2E0F
:104630000C94582E20914A0630914B0640914C061E
:1046400050914D066091850D7091860D8091870D7A
:104650009091880D0E9406E460936B0D70936C0D31
:1046600080936D0D90936E0D0E944CC50C94582E46
:10467000D8018D918D01882319F00E948834F8CFDC
:104680008AE00E94883448E9E42E45E0F42E5FE891
:10469000C52E5DE0D52E01E91DE0412C512C3201E3
:1046A000332433944801F80180819181A281B38140
:1046B000F70181939193A193B1937F01D6013D922C
:1046C0006D0126E8A22E23E0B22EF50181915F0153
:1046D000882319F00E948834F8CFC301B2010E94E8
:1046E000C43591E6A92E93E0B92ED5018D915D01D7
:1046F000882319F00E948834F8CF0C5F1F4FF40113
:10470000608171818281938142E00E94A7378AE0B3
:104710000E9488344A9445284628472829F0412C8D
:10472000512C32014394BECF10928E0D10928D0DFC
:104730001092850D1092860D1092870D1092880DA3
:104740000C94582ED8018D918D01882321F10E945F
:104750008834F8CF8091110C882309F4C4C28DEB02
:10476000C82E83E0D82EE12CF12C20E08091110C92
:1047700090E00E2C02C0959587950A94E2F780FD93
:104780009AC2FFEFEF1AFF0A32E0C30ED11C46E0D7
:10479000E416F10459F78AE00E9488340C94582EEC
:1047A0000E942A660C94582E0E940D660C94582E76
:1047B0000E94F5650C94582E0E94DD650C94582ECD
:1047C0000E94E5640C94582E85E40E94D33288231D
:1047D00029F010923E0610923D060BC089E40E941B
:1047E000D332882331F081E090E090933E068093AD
:1047F0003D0683E50E94D332882331F081E090E0CA
:104800009093400680933F0682E50E94D33288232E
:1048100011F40C94582E1092400610923F060C94FE
:10482000582E88E993E00E94B9A585E50E94D3320D
:1048300081110E94F89F84E40E94D33281110E946A
:10484000379E87E50E94D332882331F00E94A03240
:104850000E9450E56093330283E50E94D33288239F
:1048600031F00E94A0320E9450E5609332028FE442
:104870000E94D332882341F00E94A0320E944BE56F
:1048800070933102609330028EE40E94D332882309
:1048900051F00E94A0326093840C7093850C809339
:1048A000860C9093870C8DE40E94D332882351F0BC
:1048B0000E94A03260937C0C70937D0C80937E0CE0
:1048C00090937F0C89E50E94D332882351F00E9497
:1048D000A0326093780C7093790C80937A0C90934B
:1048E0007B0C88E50E94D332882351F00E94A032CD
:1048F0006093740C7093750C8093760C9093770C86
:1049000082E40E94D332882351F00E94A032609347
:10491000800C7093810C8093820C9093830C80E5C3
:104920000E94D332882331F00E94A0320E9450E5C9
:1049300060931D0281E40E94D332882359F00E94C3
:10494000A0320E944BE57093100260930F02CB01DE
:104950000E94B56684E50E94D332882349F00E9404
:10496000A0320E9450E5862F609341060E940C679A
:1049700089E40E94D332882311F40C94582E80913C
:1049800041060E940C6780910F02909110020E94D4
:10499000B5660C94582EF80181918F01882309F493
:1049A000FACE0E948834F7CF0E9420B80C94582E7B
:1049B00080912806813011F00C94582E82E080936B
:1049C00028060E942E416093200670932106809352
:1049D0002206909323060C94582E0E947EB80C94C5
:1049E000582E83E50E941A33811103C0E5EBF3E0F2
:1049F00009C00E9470326E347105C1F70E94EEB892
:104A00000C94582E84918F010F5F1F4F882321F043
:104A10000E948834F801F6CFECEAF3E084918F012C
:104A20000F5F1F4F882321F00E948834F801F6CFD2
:104A300060912A0670912B0680E090E04AE00E9487
:104A40002235EFE9F3E084918F010F5F1F4F882338
:104A500021F00E948834F801F6CF60912C06709105
:104A60002D0680E090E04AE00E942235E4E9F3E080
:104A700084918F010F5F1F4F882321F00E9488349B
:104A8000F801F6CF60912A0670912B0680912C06D2
:104A900090912D06681B790B80912806815021E0AA
:104AA00030E0823010F020E030E0621B730B80E0D9
:104AB00090E04AE00E9422358AE00E948834ECE8C7
:104AC000F3E084918F010F5F1F4F882321F00E9434
:104AD0008834F801F6CF80912E0690912F06A09190
:104AE0003006B09131068E8B9F8BA88FB98FBE0197
:104AF0006F5F7F4FCE0146960E942633EFE7F3E0CB
:104B000084918F010F5F1F4F811106C09E012F5F9F
:104B10003F4F7901890104C00E948834F801F0CF29
:104B2000D8018D918D01882319F00E948834F8CF27
:104B30008091320690913306A0913406B0913506EB
:104B40008E8B9F8BA88FB98FBE016F5F7F4FCE0179
:104B500046960E942633EFE6F3E084918F010F5FC3
:104B60001F4F882321F00E948834F801F6CFF70107
:104B700081917F01882319F00E948834F8CF8AE060
:104B80000E948834E7E6F3E084918F010F5F1F4FA6
:104B9000882321F00E948834F801F6CFE7E5F3E09E
:104BA00084918F010F5F1F4F882321F00E9488346A
:104BB000F801F6CF20E030E04AE754E46091360691
:104BC0007091370680913806909139060E94E3E48F
:104BD00042E00E94A7378DE60E9488348AE00E9456
:104BE00088340C94582E88E690E00E948835811114
:104BF0000C94582E8091110C83FF02C00C94582EF7
:104C000083E50E941A338823B1F00E94A0320E94EB
:104C10004BE5DC01CB016091450D0E94E6330E941B
:104C2000A03220E030E04AEA52E40E949DDF1816EC
:104C300014F00E947EB80E94FEB80C94582E8EE4A8
:104C40000E941A33882311F40C94582E0E9470325B
:104C500060932C1370932D1380932E1390932F1326
:104C60000C94582E83E50E94D332882359F083E5B3
:104C70000E941A33882319F00E94803201C080E01C
:104C80008093110CEAE3FBE184918F010F5F1F4FCA
:104C9000882321F00E948834F801F6CFEDECF3E090
:104CA00084918F010F5F1F4F882309F453CD0E9419
:104CB0008834F801F5CFBB24B394B20E222319F047
:104CC0008CE20E948834F60125913491F901849197
:104CD00089010F5F1F4F882321F00E9488349801BB
:104CE000F5CF2B2D4ECDE9ECF3E084918F010F5FD2
:104CF0001F4F882309F44FCD0E948834F801F5CF67
:104D000083E50E941A33882359F00E9480328093F1
:104D10006F028D3308F4CCC78CE380936F02C8C751
:104D2000EAE3FBE184918F010F5F1F4F882321F09D
:104D30000E948834F801F6CF40916F0250E060E0A5
:104D400070E084ED93E00E9489B78AE00E94883485
:104D5000AFC789E690E00E948835811111C0EBED64
:104D6000F3E084918F010F5F1F4F882321F00E9491
:104D70008834F801F6CF0E946A9A8AE00E9488344B
:104D80001092DE170C94F82E83E50E941A338823C4
:104D900009F48EC70E948032182F8D3308F01CE36F
:104DA0001093EB170E942E416B017C01212F30E004
:104DB000A8EEB3E00E94F7E3C60ED71EE81EF91E68
:104DC000C092E717D092E817E092E917F092EA173D
:104DD0006FC78DE690E00E9488358111C7C1809130
:104DE000110C83FDC3C183E50E941A3367968FAF10
:104DF0006797811105C082E50E941A338823C1F0AC
:104E00000E94A0320E944BE5DC01CB016091450D70
:104E10000E94E6330E94A03220E030E04AEA52E4E9
:104E20000E949DDF18160CF4AAC70E947EB881E08C
:104E3000E7968FAFE7970E94FEB8E7968FADE797AA
:104E4000882309F493C181E08093000226961CAE6A
:104E50001DAE1EAE1FAE2697AA961CAE1DAE1EAE90
:104E60001FAEAA971EAE6B961FAE6B975CE36F9654
:104E70005FAF6F978CE1AB968FAFAB9796E4A3963D
:104E80009FAFA397412C512C10E8C12E0FEBD02ED1
:104E9000812C912C5401E090450DF12CF701EE0F7F
:104EA000FF1FEF5BF24F60817181072E000C880BB2
:104EB000990B0E94A3DF162F072F782E692E262F1D
:104EC000372F482F592FB201C6010E949DDF88233A
:104ED000F9F0F701EE0FFF1FEE0FFF1FE75CF24F37
:104EE0002081318142815381612F702F872D962D32
:104EF0000E949DDF881F8827881F8EAF6796AFAD01
:104F00006797AA2349F0882339F0809100022EC1C7
:104F1000142D052D7C2C6D2C0E942E416B017C01E3
:104F2000DC01CB01AA962CAD3DAD4EAD5FADAA978D
:104F3000821B930BA40BB50BB7FD3DC0D701C60177
:104F400088519C4FAF4FBF4FAA968CAF9DAFAEAF6D
:104F5000BFAFAA970E946A9AEEEDF3E084912F0109
:104F60009FEF491A590A882321F00E948834F201E0
:104F7000F5CF81149104A104B104B9F0D501C401A5
:104F80008854944FAF4FBF4FBC01CD016C197D09C0
:104F90008E099F0928EE33E040E050E00E94A9E32B
:104FA000CA01B9010E94C43503C08FE30E9488344E
:104FB0008AE00E9488340E9454CD0E942E41609362
:104FC000DF177093E0178093E1179093E217E09159
:104FD000450DA4E0EA9FF0011124E75CF24FB08197
:104FE0002796BFAF279721812B962FAF2B97328122
:104FF0002F963FAF2F97438163964FAF63972B2F29
:105000002B963FAD2B972F964FAD2F9763965FADA5
:105010006397612F702F872D962D0E9406E41B0148
:105020002C0120E030E0A9010E942DE687FF04C09A
:1050300057FA509457F8509481149104A104B10484
:1050400059F420E030E040E85FE3C201B1010E9482
:105050009DDF87FF0DC00AC020E030E040E450E44F
:10506000C201B1010E942DE6181614F44601570141
:105070005EAD552309F45EC026968CAD9DADAEADF8
:10508000BFAD2697892B8A2B8B2B71F0D701C601D8
:1050900026962CAD3DAD4EAD5FAD2697821B930B92
:1050A000A40BB50BB7FD46C027962FAD27972B96BF
:1050B0003FAD2B972F964FAD2F9763965FAD6397BC
:1050C0006B966FAD6B976F967FAD6F97AB968FAD0D
:1050D000AB97A3969FADA3970E9406E420E030E033
:1050E00040EC5FE30E949DDF87FD0FCFD701C60133
:1050F000805A9541AF4FBF4F26968CAF9DAFAEAF54
:10510000BFAF269727969FAD27976B969FAF6B975C
:105110002B96AFAD2B976F96AFAF6F972F96BFAD16
:105120002F97AB96BFAFAB976396EFAD6397A39600
:10513000EFAFA39780910002882309F4E6CE811493
:105140009104A104B10429F4412E502EC72CD62C71
:10515000A2CEF8EBCF1AFBE0DF0AE108F108C8188D
:10516000D908EA08FB08F7FED0CEEECF0FEB13E02C
:10517000D8018D918D01882319F00E948834F8CFD1
:1051800084E50E94D332811109C083E50E94D332A5
:10519000882309F48DC508ED13E01CC006ED13E06B
:1051A000F80181918F01882319F00E948834F8CF8B
:1051B0000E947032072E000C880B990B0E94C43598
:1051C00001E914E0D8018D918D018823F1F20E944C
:1051D0008834F8CFF80181918F01882319F00E945B
:1051E0008834F8CF0E947032072E000C880B990B80
:1051F0000E94C4358AE00E9488345AC58091110CFF
:1052000083FD56C583E50E941A33882309F450C5EF
:105210000E94A0320E944BE56738710514F067E8E0
:1052200070E07093380D6093370D0E945D9D40C50E
:105230000E94E5690AED13E0D8018D918D01882364
:1052400019F00E948834F8CF83E50E94D332882376
:1052500009F42EC508ED13E0F80181918F01882330
:1052600019F00E948834F8CF0E947032072E000C8B
:10527000880B990B0E94C4358AE00E94883418C5B7
:1052800080E50E941A33811106C083E50E941A331B
:10529000882359F005C00E948032811109C5F5CFDD
:1052A0000E9470326F3F710510F06FEF70E07093E5
:1052B0005C0C60935B0CFCC480E50E941A33811186
:1052C00005C010925C0C10925B0CF2C40E9470320C
:1052D000672B09F0EDC4F5CF0E94A89D0E949EA601
:1052E00010925C0C10925B0C68EE73E080E090E032
:1052F0000E944899DDC410929605DAC483E50E94A5
:105300001A33882399F00E94A03220E030E04AE767
:1053100054E40E9402E00E9450E560937002709392
:1053200071028093720290937302C2C488E50E9456
:10533000D332811127C589E50E94D332811122C55C
:105340008AE50E94D33281111DC585E40E94D332C3
:10535000811118C50E949EA6ABC483E50E94D3327A
:10536000882309F4A5C40E94A03220E030E04AE777
:1053700054E40E9402E00E9450E56093E3177093AA
:10538000E4178093E5179093E61792C4D6018D91A8
:105390006D010E94D332882309F46DC0133009F0E7
:1053A00063C00E94A0324B015C0120E030E040EA83
:1053B00051E40E949DDF87FF4EC0A50194016091DA
:1053C0002E0B70912F0B8091300B9091310B0E941E
:1053D000E3E42B013C019B01AC0160912F0C709127
:1053E000300C8091310C9091320C0E9402E060935D
:1053F0002F0C7093300C8093310C9093320CA301DE
:10540000920160914B0C70914C0C80914D0C9091DD
:105410004E0C0E9402E060934B0C70934C0C8093F6
:105420004D0C90934E0C6091D20D7091D30D8091E4
:10543000D40D9091D50D0E94A1DFA30192010E948D
:1054400002E00E9450E56093D20D7093D30D8093DB
:10545000D40D9093D50D80922E0B90922F0BA0928D
:10546000300BB092310B07C00E94A032F70160836D
:105470007183828393831F5FF4E0EF0EF11C14307D
:1054800009F084CF0E947DBA13C40E94A48F83E5E3
:105490000E941A33882311F40C9415200E94703254
:1054A0006230710511F00C9415200E94E3CA8BE55F
:1054B0000E9488346091A1177091A2178091A31760
:1054C0009091A41742E00E94A7374091A5175091F0
:1054D000A6176091A7177091A81785EE93E00E9418
:1054E000A6B74091A9175091AA176091AB17709178
:1054F000AC1782EE93E00E94A6B78DE50E94883437
:105500008AE00E948834D4C3E7ECF4E084918F01F0
:105510000F5F1F4F882321F00E948834F801F6CFD7
:1055200060E087EB94E00E94D66861E080EB94E055
:105530000E94D66861E085EA94E00E94D66861E046
:1055400085E994E00E94D66860E08CE894E00E94CF
:10555000D66861E082E894E00E94D66861E088E75E
:1055600094E00E94D66861E080E794E00E94D668EB
:1055700061E082E694E00E94D66860E084E594E011
:105580000E94D66860E085E494E00E94D66860E0FE
:1055900087E394E00E94D66860E081E294E00E9494
:1055A000D66861E080E194E00E94D66860E08BEF0D
:1055B00093E00E94D66861E088EE93E00E94D6688E
:1055C00077C3009176061091770683E0D12C40E0F6
:1055D0008150E9F0D8019C91292F2B7F2134C1F70C
:1055E00011962C912133A1F7913421F0953421F4B7
:1055F00041E002C0DD24D39498012E5F3F4F890122
:105600002F5F3F4FF80190819032C9F3E1CF4423DF
:1056100069F0EAE3FBE184917F012FEFE21AF20ADD
:10562000882321F00E948834F701F5CFDD2069F04E
:10563000EFE8F5E084917F013FEFE31AF30A882356
:1056400021F00E948834F701F5CFD8018D918D01AA
:10565000882309F4A0C80E948834F7CF0E9484AE42
:1056600027C310923B0610923A0622C30E9470682C
:105670001FC3F80181918F0196D7882349F060D725
:105680000E9450E5D7016D937D938D939C93139762
:10569000B4E0EB0EF11CD012ECCF0E942EB908C37F
:1056A0002FE3E22E2CE0F22E0EEE12E034E0D32EA9
:1056B000D00EF80181918F0176D7882339F040D739
:1056C000D7016D937D938D939C931397B4E0EB0E6C
:1056D000F11CD012EECFECC283E5ACD7882399F051
:1056E0002FD76093370C7093380C8093390C9093BC
:1056F0003A0C6093330C7093340C8093350C909378
:10570000360C10E001C011E080E594D7882351F0F9
:1057100017D76093370C7093380C8093390C9093A3
:105720003A0C10E082E586D7882351F009D76093C0
:105730003B0C70933C0C80933D0C90933E0C10E01E
:1057400084E578D7882351F0FBD66093330C7093AF
:10575000340C8093350C9093360CAAC2112309F4B3
:10576000A7C24091370C5091380C6091390C709160
:105770003A0C89E995E00E94A6B740913B0C509104
:105780003C0C60913D0C70913E0C86E995E00E94C6
:10579000A6B74091330C5091340C6091350C709148
:1057A000360C83E995E00E94A6B78AE00E9488340F
:1057B0007FC281E5F8D6882349F082D660934F0CEA
:1057C0007093500C8093510C9093520C83E5EBD660
:1057D000882349F0B5D66093570C7093580C80938A
:1057E000590C90935A0C84E5DED6882349F0A8D64C
:1057F0006093530C7093540C8093550C9093560CFB
:1058000088E5D1D6882349F09BD66093230C70930A
:10581000240C8093250C9093260C89E5C4D688230C
:1058200049F08ED66093270C7093280C8093290C36
:1058300090932A0C8AE5B7D68823E9F081D6609345
:105840002B0C70932C0C80932D0C90932E0C2DEC24
:105850003CEC4CEC5DE30E949DDF181664F0E9EA35
:10586000F5E084918F010F5F1F4F882321F00E9484
:105870008834F801F6CF85E496D6882309F418C257
:105880005FD660932F0C7093300C8093310C909303
:10589000320C0EC285E487D6882349F051D6609336
:1058A0008C0C70938D0C80938E0C90938F0C8AE5EA
:1058B0007AD6882349F044D66093880C7093890C7B
:1058C00080938A0C90938B0C8EEEC82E82E0D82E9B
:1058D00092E4E92E96E0F92E10E0F60181916F0135
:1058E00062D6882351F02CD6D7016D937D938D938A
:1058F0009C931397812F0E9492341F5FB4E0EB0EAC
:10590000F11C133051F70C9415200E94E15DD0C1B9
:1059100083E590D6882309F4CBC1E2D570936E025B
:1059200060936D02C5C10E94065DC2C10E94285CE1
:10593000BFC10E94995ABCC10E941754B9C10E94AC
:10594000EF5AB6C1E0EEF4E284918F010F5F1F4F72
:10595000882319F0DDD7F801F7CFEBEDF5E084915E
:105960008F010F5F1F4F882309F4A2C1D1D7F8011F
:10597000F6CF81E00E94BD3A0E941A6999C180E089
:105980000E94BD3A0E941A6993C10E940F5290C1B1
:105990000E94A9C48DC10E94C95E8AC10E947BD1A8
:1059A00087C183E500D6882319F0BBD591E089270C
:1059B0000E94B48F7DC181E0809314180E94BBAE19
:1059C00010921418882309F473C1EAE3FBE184916F
:1059D0008F010F5F1F4F882319F09AD7F801F7CF77
:1059E000EAEEF5E084918F010F5F1F4F882309F4E1
:1059F0005FC18ED7F801F6CF0E944AC359C10E94F9
:105A0000E3C256C16091851380E00E949399609132
:105A1000381381E00E9493994BC10E9487C248C10C
:105A20000E94467745C18091B90D8093A0050091F1
:105A3000780610917906F02E8091110C85FF12C026
:105A4000B80177278FE396E00E94C3B789E260D759
:105A50008AE05ED74DE053E160E276E08BE296E0CB
:105A60000E949E3A8091B90DF81651F083E5E2D577
:105A7000882311F056D502C083E595D5F82E02C0D3
:105A8000FF24F39486E4D6D5882311F059D503C0BA
:105A900060E070E0CB0120E030E040E752E40E949B
:105AA000E3E4AB01BC012F2D802F0E947CC08091CC
:105AB000110C85FF13C04DE053E162E076E08CE00D
:105AC00096E00E949E3AE5EFF5E084918F010F5F2A
:105AD0001F4F882319F01CD7F801F7CF00917806E3
