:100000000C9453130C9484130C9484130C94841345
:100010000C9484130C9484130C9484130C94841304
:100020000C9484130C9484130C9484130C948413F4
:100030000C9484130C9484130C9484130C948413E4
:100040000C9484130C94AC500C9484130C9484136F
:100050000C9484130C9484130C9415B30C94C5A4C1
:100060000C9484130C94AD3C0C9484130C94841362
:100070000C9484130C9484130C9484130C948413A4
:100080000C94EE580C9484130C9484130C948413E5
:100090000C9484130C9484130C9484130C94841384
:1000A0000C9484130C9484130C94C0580C948413F3
:1000B0000C9484130C9484130C9484130C94925811
:1000C0000C9484130C9484130C9484130C94841354
:1000D0000C9484130C9484130C9484130C94841344
:1000E0000C948413A3A2A6A295A299A29FA2DDA21A
:1000F000AAA2AEA2B4A2B8A2BCA2C2A2C6A2CAA21E
:10010000DDA2D0A2D4A2D8A2E1A3E6A3EBA3F5A3DB
:10011000FFA378A409A411A419A423A42DA437A48F
:1001200046A450A478A45AA464A46EA4D7B1B1B2D2
:10013000B6B2E1B2EDB2C9B2CEB2C7B1084AD73B4E
:100140003BCE016E84BCBFFDC12F3D6C74319ABDA6
:1001500056833DDA3D00C77F11BED9E4BB4C3E91CA
:100160006BAAAABE000000803F05A84CCDB2D44EB9
:10017000B93836A9020C50B9918688083CA6AAAABB
:100180002ABE000000803F004E414E494E4954595E
:10019000494E46CDCCCC3D0AD7233C17B7D1387752
:1001A000CC2B329595E6241FB14F0A000020410068
:1001B00000C84200401C4620BCBE4CCA1B0E5AAEB2
:1001C000C59D7447322F473320626164207061728D
:1001D000616D65746572730A003C3C3C204732389F
:1001E0000A005261697365205A20286265666F7241
:1001F0006520686F6D696E672920746F20003E204E
:10020000656E6473746F70732E656E61626C6528C1
:1002100074727565290A003C3C3C204732380A005C
:100220003E20686F6D696E67206E6F74206E656525
:100230006465642C20736B69700A003E3E3E204763
:1002400032380A00205A3A200020593A20004265EC
:100250006420583A20004D65736820706F696E7491
:100260002063616E6E6F74206265207265736F6CBF
:100270007665640A002569730025696D2025697318
:10028000002569682025696D20256973002569644A
:10029000202569682025696D202569730025697905
:1002A00020256964202569682025696D20256973EA
:1002B000005072696E742074696D653A2000000107
:1002C00036372603FFFFFF353C3D380EFFFFFF3179
:1002D0002E303E12FFFFFFFF28FF0C0809FFFFFF33
:1002E0001A1C18FFFF2A24221EFFFF2C08440AFFB5
:1002F0004307FF454B494C4C45442E20004D3131BE
:10030000332053006F6B0020573A002C20002C2024
:1003100000544845524D414C5F50524F5445435450
:10032000494F4E004155544F5245504F52545F5320
:10033000445F53544154555300454D455247454E33
:1003400043595F50415253455200434153455F4C1E
:10035000494748545F4252494748544E4553530019
:10036000544F47474C455F4C494748545300534FFF
:100370004654574152455F504F57455200425549E8
:100380004C445F50455243454E54004C4556454CF5
:10039000494E475F44415441005A5F50524F4245D5
:1003A000004155544F4C4556454C005052494E540F
:1003B0005F4A4F420050524F4752455353004155F8
:1003C000544F5245504F52545F54454D5000564F74
:1003D0004C554D455452494300454550524F4D00F0
:1003E00053455249414C5F584F4E5F584F46460067
:1003F0004649524D574152455F4E414D453A4D6138
:10040000726C696E20312E312E342E362E37202814
:100410004769746875622920534F555243455F43BD
:100420004F44455F55524C3A68747470733A2F2F9D
:100430006769746875622E636F6D2F4D61726C69A8
:100440006E4669726D776172652F4D61726C696E6F
:100450002050524F544F434F4C5F56455253494FD3
:100460004E3A312E30204D414348494E455F545954
:1004700050453A3344205072696E74657220455875
:100480005452554445525F434F554E543A322055CD
:100490005549443A63656465326132662D34316191
:1004A000322D343734382D396231322D633535638E
:1004B00036326633363766660A002F2F2000205406
:1004C00000205200416363656C65726174696F6EF0
:1004D0003A2050005741524E494E4721204C6F77E9
:1004E000205A204A65726B206D6179206C656164C9
:1004F00020746F20756E77616E746564207061750D
:100500007365732E0A00546F6F20666172206672E5
:100510006F6D207265666572656E636520706F69C8
:100520006E740A00205A00205900580020204D61A6
:10053000783A2000205A00205900580020204D69A8
:100540006E3A20004F6E20004F666600536F66744F
:1005500020656E6473746F70733A200020643A00F3
:1005600020693A0020703A004E6F20636173652065
:100570006C696768740A004F66660A0046616465C4
:10058000204865696768742000426564204C657680
:10059000656C696E6720004661696C656420746FE4
:1005A00020656E61626C6520426564204C657665ED
:1005B0006C696E670A004D65736820706F696E74B0
:1005C0002063616E6E6F74206265207265736F6C5C
:1005D0007665640A004D34323120696E636F727241
:1005E00065637420706172616D65746572207573E6
:1005F0006167650A003A200050726F6265205A20D8
:100600004F6666736574003F5A206F7574206F667D
:100610002072616E676520282D323020746F203281
:1006200030290A003C3C3C2067636F64655F540AD4
:1006300000203A2041465445520A0020206375723A
:1006400072656E745F706F736974696F6E3D0020C0
:100650003A204245464F52450A0020206375727287
:10066000656E745F706F736974696F6E3D003E3EB6
:100670003E2067636F64655F5428002C20002C20A7
:1006800000203A2073796E635F706C616E5F706FEB
:10069000736974696F6E0A00202063757272656EEB
:1006A000745F706F736974696F6E3D00656E71750C
:1006B000657565696E672022004C696E65204E7510
:1006C0006D626572206973206E6F74204C61737463
:1006D000204C696E65204E756D6265722B312C2041
:1006E0004C617374204C696E653A20004B494C4C48
:1006F00045442E20005072696E7465722073746FC9
:10070000707065642064756520746F206572726F07
:1007100072732E2046697820746865206572726F46
:100720007220616E6420757365204D3939392074EB
:100730006F20726573746172742E202854656D7019
:100740006572617475726520697320726573657472
:100750002E2053657420697420616674657220725E
:10076000657374617274696E67290A004E6F204365
:100770006865636B73756D2077697468206C696E4A
:1007800065206E756D6265722C204C617374204C0F
:10079000696E653A2000636865636B73756D206DE3
:1007A00069736D617463682C204C617374204C69AB
:1007B0006E653A20004D3131300020496E76616C13
:1007C00069642065787472756465722000000000A9
:1007D0000000000000000040C0000052430080897B
:1007E00043000052430A20736F66745F656E647342
:1007F000746F705F6D6178203D20000A20736F6612
:10080000745F656E6473746F705F6D696E203D20F8
:10081000000A20706F736974696F6E5F7368696630
:1008200074203D200020617869733A0A20686F6D5A
:10083000655F6F6666736574203D2000466F7220A9
:10084000003C3C3C20646F5F626C6F636B696E6759
:100850005F6D6F76655F746F0A003E3E3E20646F89
:100860005F626C6F636B696E675F6D6F76655F74F7
:100870006F00203A2073657475705F666F725F65F4
:100880006E6473746F705F6F725F70726F62655FBA
:100890006D6F76650A00202063757272656E745FF5
:1008A000706F736974696F6E3D00203A20636C65E8
:1008B000616E5F75705F61667465725F656E6473AB
:1008C000746F705F6F725F70726F62655F6D6F766D
:1008D000650A00202063757272656E745F706F73B5
:1008E0006974696F6E3D00646F5F70726F62655FFF
:1008F000726169736528006465706C6F793A2000D5
:10090000203A207365745F70726F62655F64657012
:100910006C6F7965640A00202063757272656E746D
:100920005F706F736974696F6E3D00203A203C3CC4
:100930003C20646F5F70726F62655F6D6F76650AF1
:1009400000202063757272656E745F706F736974D6
:10095000696F6E3D00203A203E3E3E20646F5F701E
:10096000726F62655F6D6F76650A00202063757235
:1009700072656E745F706F736974696F6E3D00723B
:10098000657365745F6265645F6C6576656C0A00AB
:100990002028646F6E65290A004578747261706F53
:1009A0006C617465205B0042696C696E65617220E0
:1009B0004C6576656C696E6720477269643A0A0017
:1009C0005375626469766964656420776974682028
:1009D0004341544D554C4C20524F4D204C6576654B
:1009E0006C696E6720477269643A0A004B494C4C47
:1009F00045442E2000202D20496E76616C696420CC
:100A00006578747275646572206E756D62657220AA
:100A1000210A00000020002300260029002C002FBE
:100A2000003200000100000301060109010505056F
:100A300005070508080808020202020A0A08080455
:100A40000404040101010101010101030303030383
:100A5000030303040707070C0C0C0C0C0C0C0C0212
:100A600002020206060606060606060B0B0B0B0B19
:100A70000B0B0B0102102020080810204010204012
:100A80008002010201080402010102040810204052
:100A90008080402010080402018004020180402070
:100AA0001008040201080402010102040810204099
:100AB0008001020408102040802020506C616E6E7E
:100AC000657242756666657242797465733A200094
:100AD0002046726565204D656D6F72793A2000433E
:100AE0006F6D70696C65643A2053657020323320F5
:100AF000323031390A00207C20417574686F723AB7
:100B000020286E6F6E652C2064656661756C74209C
:100B1000636F6E666967290A00323031382D3038CC
:100B20002D303100204C6173742055706461746500
:100B3000643A2000312E312E342E362E370A004DE5
:100B400061726C696E0020536F6674776172652004
:100B500052657365740A00205761746368646F6737
:100B60002052657365740A002042726F776E206FA1
:100B700075742052657365740A0020457874657237
:100B80006E616C2052657365740A00506F776572F0
:100B900055700A0073746172740A00205A3A00207A
:100BA000593A0020583A00656E6473746F70732070
:100BB0006869743A200020746F6F206C6F6E672034
:100BC000657874727573696F6E2070726576656E84
:100BD0007465640A0020636F6C64206578747275B4
:100BE00073696F6E2070726576656E7465640A0055
:100BF00024F4D43050C38E20C2A24017828B7011CF
:100C0000127A910D816CD90AA861E108C75866076C
:100C1000615143061E4B5D05C145A7041A411104ED
:100C2000093D9803713931034036DB026533910287
:100C3000D4305402802E1D02632CEE01752AC501AA
:100C4000B028A001102781018F2564012B244B01BE
:100C5000E0223401AC211F018D200D01801FFC001A
:100C6000841EED00971DDF00B81CD200E61BC600F5
:100C7000201BBC00641AB200B219A8000A19A00017
:100C80006A189900D117910040178B00B51684009F
:100C900031167E00B31579003A157300C7146F0042
:100CA00058146A00EE1366008813630025135E0073
:100CB000C7125B006C12570015125400C11151008D
:100CC00070114F0021114B00D61049008D104700C4
:100CD0004610440002104200C00F4000800F3E004A
:100CE000420F3C00060F3B00CB0E3800930E37003E
:100CF0005C0E3500270E3400F30D3200C10D3100BB
:100D0000900D3000600D2E00320D2D00050D2C00D1
:100D1000D90C2B00AE0C2900850C29005C0C270097
:100D2000350C27000E0C2600E80B2400C40B240011
:100D3000A00B23007D0B23005A0B2100390B21004F
:100D4000180B2000F80A1F00D90A1E00BB0A1E005B
:100D50009D0A1D00800A1D00630A1C00470A1B0033
:100D60002C0A1B00110A1A00F7091A00DD091900E4
:100D7000C4091900AB091900920917007B09180072
:100D8000630917004C0916003609160020091600E1
:100D90000A091500F5081500E0081400CC08140035
:100DA000B8081400A4081400900813007D0812006D
:100DB0006B0813005808120046081200340811008E
:100DC000230811001208110001081100F00710009B
:100DD000E0071000D0071000C0071000B0070F0098
:100DE000A107100091070E0083070F0074070F0082
:100DF00065070E0057070E0049070E003B070D0060
:100E00002E070E0020070D0013070D0006070D002A
:100E1000F9060C00ED060D00E0060C00D4060C00EF
:100E2000C8060C00BC060C00B0060C00A4060B00A3
:100E300099060C008D060B0082060B0077060B004E
:100E40006C060B0061060A0057060B004C060A00F0
:100E500042060A0038060A002E060A0024060A0086
:100E60001A060A001006090007060A00FD05090017
:100E7000F4050900EB050900E2050900D9050900A0
:100E8000D0050900C7050900BE050900B505080021
:100E9000AD050800A50509009C050800940508009B
:100EA0008C050800840508007C050800740508000E
:100EB0006C050700650508005D050700560508007C
:100EC0004E050700470507004005080038050700E4
:100ED000310507002A050700230507001C05060049
:100EE000160507000F0507000805060002050700A4
:100EF000FB040600F5040700EE040600E804060003
:100F0000E2040700DB040600D5040600CF04060057
:100F1000C9040600C3040600BD040600B7040600A9
:100F2000B1040500AC040600A6040600A0040500F8
:100F30009B04060095040500900406008A04050041
:100F400085040500800406007A0405007504050088
:100F5000700405006B0405006604050061040500CB
:100F60005C04050057040500520405004D0405000B
:100F700048040500430405003E0404003A0405004B
:100F800035040500300404002C0405002704040087
:100F9000230405001E0404001A04040016040500BE
:100FA000110404000D0404000904050004040400F5
:100FB00000040400FC030400F8030400F40304002C
:100FC000F0030400EC030400E8030400E40304005D
:100FD000E0030400DC030400D8030400D40304008D
:100FE000D0030400CC030400C8030300C5030300BE
:100FF00024F404D9201BC40C5C0E9804C4095F02BD
:1010000065077101F405F900FB04B300480487008B
:10101000C10369005803550003034500BE023A00AE
:101020008402310053022A00290225000402200014
:10103000E4011C00C8011900AF0117009801140059
:1010400084011300710110006101100051010E00B4
:1010500043010D0036010B002B010B0020010B009A
:10106000150109000C01090003010800FB0008003C
:10107000F3000800EB000700E4000600DE000600B5
:10108000D8000600D2000600CC000500C70005000D
:10109000C2000500BD000400B9000400B500040052
:1010A000B1000400AD000400A9000400A500030085
:1010B000A20003009F0004009B00030098000300AF
:1010C0009500020093000300900003008D000200D1
:1010D0008B000300880002008600020084000300E9
:1010E000810002007F0002007D0002007B00020000
:1010F000790002007700010076000200740002000F
:1011000072000100710002006F0002006D0001001A
:101110006C0002006A000100690002006700010023
:101120006600010065000100640002006200010029
:1011300061000100600001005F0002005D0001002D
:101140005C0001005B0001005A0001005900010031
:101150005800010057000100560001005500010031
:101160005400010053000000530001005200010030
:1011700051000100500001004F0001004E0000002E
:101180004E0001004D0001004C0001004B0000002A
:101190004B0001004A000100490001004800000026
:1011A0004800010047000100460000004600010021
:1011B000450000004500010044000100430000001C
:1011C0004300010042000000420001004100000015
:1011D00041000100400001003F0000003F0001000D
:1011E0003E0000003E0001003D0000003D00010007
:1011F0003C0000003C0000003C0001003B000000FF
:101200003B0001003A0000003A00010039000000F4
:1012100039000100380000003800000038000100EB
:1012200037000000370001003600000036000000E3
:1012300036000100350000003500000035000100D7
:1012400034000000340000003400010033000000CE
:1012500033000000330001003200000032000000C3
:1012600032000100310000003100000031000100B7
:101270003000000030000000300001002F000000AE
:101280002F0000002F0000002F0001002E000000A2
:101290002E0000002E0001002D0000002D00000097
:1012A0002D0000002D0001002C0000002C0000008B
:1012B0002C0000002C0001002B0000002B0000007F
:1012C0002B0000002B0001002A0000002A00000073
:1012D0002A0000002A000100290000002900000067
:1012E000290000002900000029000100280000005A
:1012F000280000002800000028000000280001004D
:101300002700000027000000270000002700000041
:101310002700010026000000260000002600000033
:101320002600000026000100250000002500000026
:101330002500000025000000250000002500010018
:10134000240000002400000024000000240000000D
:1013500024000100230000002300000023000000FF
:1013600023000000230000002300000023000100F0
:1013700022000000220000002200000022000000E5
:1013800022000000220001002100000021000000D6
:1013900021000000210000002100000021000000C9
:1013A00021000100200000002000000020000000BB
:1013B00020000000200000002000000020000000AD
:1013C000200001001F0000001F0000001F0000009F
:1013D0001F0000001F0000001F0000001F00010090
:1013E0001E0000001E0000001E0000001E00000085
:1013F000043700001E290000511B00005810000097
:1014000010090000CC040000780200004101000037
:101410006265640A002C2073797374656D2073749F
:101420006F7070656421204865617465725F49441E
:101430003A20003A004361703A00486F74656E6468
:10144000206F6666736574733A0020466C6F773A56
:101450002000206F7574206F662072616E67650AC8
:1014600000536572766F20003A2000205365727633
:101470006F2000496E76616C6964206578747275BE
:101480006465720A0020643A0020693A0020703ACC
:101490000020653A0043290A0061626C65642028D7
:1014A0006D696E2074656D702000436F6C642065FB
:1014B000787472756465732061726520004B6420D6
:1014C0000023646566696E652044454641554C5469
:1014D0005F004B69200023646566696E65204445A2
:1014E0004641554C545F004B70200023646566698B
:1014F0006E652044454641554C545F005049442098
:101500004175746F74756E652066696E6973686580
:1015100064212050757420746865206C6173742098
:101520004B702C204B6920616E64204B6420636FEC
:101530006E7374616E74732066726F6D2062656C79
:101540006F7720696E746F20436F6E66696775727E
:101550006174696F6E2E680A0050494420417574A9
:101560006F74756E65206661696C656421207469AD
:101570006D656F75740A0042454420544845524DCC
:10158000414C2052554E4157415900546865726D87
:10159000616C2052756E6177617900453120544845
:1015A00045524D414C2052554E415741590045320C
:1015B00020544845524D414C2052554E41574159B7
:1015C000004265642068656174696E6720666169C0
:1015D0006C65640048656174696E67206661696C5A
:1015E00065640045312048656174696E67206661F5
:1015F000696C65640045322048656174696E6720D6
:101600006661696C656400504944204175746F746B
:10161000756E65206661696C6564212054656D7026
:101620006572617475726520746F6F206869676890
:101630000A00204B643A2000204B693A2000204BDE
:10164000703A20000A20436C61737369632050492B
:1016500044200A002054753A2000204B753A20009F
:10166000206D61783A2000206D696E3A2000206478
:101670003A200020626961733A20005049442041B9
:1016800075746F74756E65206661696C6564212080
:1016900054656D706572617475726520746F6F202A
:1016A000686967680A00504944204175746F747511
:1016B0006E652073746172740A005049442041754C
:1016C000746F74756E65206661696C656421204273
:1016D0006164206578747275646572206E756D62E0
:1016E00065720A00454550524F4D204F4B0A004944
:1016F0006E76616C69642065787472756465720ACF
:10170000004163746976652045787472756465720A
:101710003A2000203A204D6F7665206261636B0AA3
:1017200000202064657374696E6174696F6E3D009A
:10173000207D0A002C20004F666673657420546F6C
:101740006F6C205859206279207B20004E6F206DED
:101750006F7665206F6E20746F6F6C6368616E6763
:10176000650A00290A002062797465733B20637260
:1017700063200053657474696E67732053746F72CD
:101780006564202800290A002062797465733B2073
:1017900063726320002073746F72656420736574D4
:1017A00074696E677320726574726965766564200A
:1017B0002800202863616C63756C6174656429215D
:1017C0000A0020213D2000454550524F4D204352F4
:1017D00043206D69736D61746368202D20287374D4
:1017E0006F7265642920002053697A653A200049A8
:1017F0006E6465783A2000204D61726C696E3D56CA
:101800003536290A0028454550524F4D3D00454583
:1018100050524F4D2076657273696F6E206D6973FB
:101820006D6174636820005072696E74657220681F
:10183000616C7465642E206B696C6C28292063616F
:101840006C6C6564210A00000000000000000000CC
:101850000000003C3C3C207365745F617869735FF5
:1018600069735F61745F686F6D652800203A200AB4
:1018700000202063757272656E745F706F73697497
:10188000696F6E3D005D203D20003E20686F6D65F4
:101890005F6F66667365745B003E207A70726F627C
:1018A000655F7A6F6666736574203D20002A2A2A78
:1018B000205A20484F4D4544205749544820505203
:1018C0004F424520285A5F4D494E5F50524F424586
:1018D0005F555345535F5A5F4D494E5F454E4453E4
:1018E000544F505F50494E29202A2A2A0A003E3E72
:1018F0003E207365745F617869735F69735F6174BB
:101900005F686F6D652800000020420000204200E3
:10191000002041000000005761726E696E673A2036
:10192000486F6D696E672042756D702044697669F5
:10193000736F72203C20310A000202040000A040B4
:101940000000A04000000040000052430080894396
:10195000000055433C3C3C20686F6D6561786973BD
:101960002800203A203E2041465445522073657499
:101970005F617869735F69735F61745F686F6D65DC
:101980000A00202063757272656E745F706F7369F0
:1019900074696F6E3D00486F6D65203220536C6F27
:1019A000773A0A004D6F766520417761793A0A00EF
:1019B000486F6D65203120466173743A0A00FFFF5D
:1019C000FF3E3E3E20686F6D656178697328004573
:1019D00072726F722077726974696E6720746F20FB
:1019E000454550524F4D210A00454550524F4D201C
:1019F0006461746173697A65206572726F722E0A10
:101A000000526573656E643A20006F6B0020746F3E
:101A10006F206C6F6E6720657874727573696F6E76
:101A20002070726576656E7465640A0020636F6C61
:101A30006420657874727573696F6E207072657654
:101A4000656E7465640A00627573793A2070617519
:101A500073656420666F7220696E7075740A006227
:101A60007573793A2070617573656420666F7220B2
:101A7000757365720A00627573793A2070726F63CC
:101A8000657373696E670A00005EBCE2613FDD83C7
:101A9000C29C7E20A3FD1F41009D23BE46DB65F84E
:101AA0008C11AF32CA57E9744B494C4C45442E2037
:101AB000004B494C4C20636175736564206279204A
:101AC000746F6F206D75636820696E6163746976E9
:101AD000652074696D65202D2063757272656E7462
:101AE00020636F6D6D616E643A20004C4556454C25
:101AF000494E4700434F4D4D554E49434154494F80
:101B00004E0044525952554E004552524F525300C6
:101B1000494E464F004543484F0050726F7465630D
:101B20007465642050696E0A005374616E6461725A
:101B30006420446576696174696F6E3A20002052B2
:101B4000616E67653A2000204D61783A2000204D93
:101B5000696E3A20004D65616E3A200046696E69F3
:101B600073686564210A002072616E67653A20001F
:101B7000206D61783A2000206D696E3A2000207354
:101B800069676D613A2000206D65616E3A20003A08
:101B9000207A3A2000206F662000205A0020590049
:101BA000205800476F696E6720746F3A00436C6F6E
:101BB000636B776973650A00436F756E7465722D88
:101BC0000020446972656374696F6E3A20002020BA
:101BD00020616E676C653A20005374617274696E9F
:101BE00067207261646975733A2000506F7369747D
:101BF000696F6E696E67207468652070726F6265C8
:101C00002E2E2E0A003F4E756D626572206F662083
:101C10006C65677320696E206D6F76656D656E7497
:101C2000206E6F7420706C61757369626C6520281A
:101C3000302D3135292E0A003F2028582C592920D3
:101C40006F7574206F6620626F756E64732E0A0064
:101C50003F53616D706C652073697A65206E6F7497
:101C600020706C61757369626C652028342D353085
:101C7000292E0A004D3438205A2D50726F6265208B
:101C80005265706561746162696C6974792054652C
:101C900073740A003F2856296572626F7365206C61
:101CA0006576656C20697320696D706C6175736908
:101CB000626C652028302D34292E0A0020573A0006
:101CC000151B101B091B021BF41AEB1A6F6666002A
:101CD00044454255473A00205A3A0020423A0020F3
:101CE000436F756E7420413A0020453A00205A3AFD
:101CF0000020593A00583A00486F6D696E672066B7
:101D000061696C6564005452494747455245440037
:101D10006F70656E003A20007A5F6D696E00795FC2
:101D20006D696E00785F6D696E005265706F7274D8
:101D3000696E6720656E6473746F7020737461746C
:101D400075730A003C3C3C20646F5F686F6D696E80
:101D5000675F6D6F766528005B00290A002C200004
:101D60002C20003E3E3E20646F5F686F6D696E6799
:101D70005F6D6F7665280020280041424C20416449
:101D80006A7573746D656E74205A00204800205780
:101D90000020590042696C696E6561722047726962
:101DA000642058005A20466164653A200020286566
:101DB0006E61626C6564290A00202864697361623F
:101DC0006C6564290A0042494C494E454152004124
:101DD00075746F20426564204C6576656C696E672A
:101DE0003A2000204E6F7A7A6C65290A002026205E
:101DF00041626F76650020262053616D65205A2070
:101E000061730020262042656C6F77002D4261636C
:101E10006B002028526967687400205A3A002059E4
:101E20003A0050726F6265204F6666736574205881
:101E30003A004649585F4D4F554E5445445F505205
:101E40004F42450A0050726F62653A2000436F723C
:101E5000650A004D616368696E6520547970653A62
:101E600020003C3C3C204732390A0020636F7272EC
:101E70006563746564205A3A0047323920756E6391
:101E80006F72726563746564205A3A00203A203E8E
:101E90002070726F62696E6720636F6D706C65741D
:101EA000650A00202063757272656E745F706F73CF
:101EB0006974696F6E3D00202844525952554E296D
:101EC00000473239204175746F20426564204C65AB
:101ED00076656C696E67003F20284C2C522C462C8E
:101EE0004229206F7574206F6620626F756E64736F
:101EF0002E0A003F2856296572626F7365206C6553
:101F000076656C20697320696D706C6175736962A8
:101F10006C652028302D34292E0A00426164205A35
:101F20002076616C75650A004E6F2062696C696E7F
:101F300065617220677269640A003C3C3C2047324C
:101F4000390A003E204175746F2D6C6576656C20F2
:101F50006E6F74206E65656465642C20736B6970A8
:101F60000A00203A203E3E3E204732390A00202017
:101F700063757272656E745F706F736974696F6E8A
:101F80003D0070012C0190012701B0012201C00128
:101F90001D01F00118011002130130020E01600250
:101FA000090190020401C002FF000003FA0040038F
:101FB000F5008003F000D003EB002004E60070047D
:101FC000E100E004DC004005D700C005D200400677
:101FD000CD00D006C8008007C3003008BE00F0085E
:101FE000B900C009B400B00AAF00B00BAA00D00C11
:101FF000A500000EA000500F9B00C01096005012CC
:10200000910000148C00C0158700B0178200B01931
:102010007D00D01B7800001E730040206E009022CF
:102020006900F024640040275F0090295A00E02BEB
:102030005500102E500020304B0010324600E03387
:10204000410090353C001037370070383200A0391D
:102050002D00B03A2800A03B2300603C1E00103D3C
:102060001900903D1400103E0F00703E0A00C03E63
:102070000500003F0000403FFBFF803FF6FFC03FF0
:10208000F1FF2040002042403A0020403A0000008A
:102090002100240027002A002D0030003300010118
:1020A0000000040107010A010000220025002800A9
:1020B0002B002E0031003400020100000501080150
:1020C0000B0100000A0B02090C0D0E0807030401A6
:1020D0000000000000000000000000000000000000
:1020E00000000000000000000000000000001211CD
:1020F00010000000000000000000000000000000D0
:10210000000000000000000048617264636F6465B5
:10211000642044656661756C742053657474696EDF
:102120006773204C6F616465640A00DC050000DCA5
:1021300005000032000000DC05000000007A4400C9
:10214000007A44000048420000C8420000A042005B
:1021500000A0420000484400004C433A0A002028F6
:102160006D6D290020204D383531205A005A2D50F0
:10217000726F6265204F66667365740020440020AC
:10218000490020204D3330342050002044002049A5
:102190000020204D333031205000204400204900E1
:1021A00020500020204D333031204500504944203C
:1021B00073657474696E67733A0A00205A00204A86
:1021C0000020204732392057204900205A00202083
:1021D0004D3432302053004175746F2042656420C5
:1021E0004C6576656C696E673A0A00205900205884
:1021F0000020204D323138205400486F74656E64E1
:10220000206F6666736574733A0A00205A0020597D
:102210000020204D323036205800486F6D65206F09
:1022200066667365743A0A00204500205A002059FA
:102230000020580020540020530020204D3230351B
:1022400020510020453C6D61785F655F6A65726B67
:102250003E0020583C6D61785F785F6A65726B3E26
:1022600020593C6D61785F795F6A65726B3E205AD8
:102270003C6D61785F7A5F6A65726B3E004164769F
:10228000616E6365643A20513C6D696E5F7365678A
:102290006D656E745F74696D655F75733E20533C48
:1022A0006D696E5F66656564726174653E20543C5D
:1022B0006D696E5F74726176656C5F666565647288
:1022C0006174653E0020540020520020204D3230C1
:1022D00034205000416363656C65726174696F6E90
:1022E0002028756E6974732F7332293A20503C7020
:1022F00072696E745F616363656C3E20523C726507
:1023000074726163745F616363656C3E20543C74F6
:10231000726176656C5F616363656C3E0A0020459F
:1023200000205A0020590020204D32303120580022
:102330004D6178696D756D20416363656C6572618F
:1023400074696F6E2028756E6974732F7332293A21
:102350000A00204500205A0020590020204D32302C
:10236000332058004D6178696D756D206665656430
:1023700072617465732028756E6974732F73293ABE
:102380000A00204500205A0020590020204D3932F3
:1023900020580053746570732070657220756E69E3
:1023A000743A0A0020204D3230302044300A002098
:1023B000204D32303020543120440020204D323026
:1023C000302044002044697361626C65640A0046F1
:1023D000696C616D656E742073657474696E677382
:1023E0003A002020473231202020203B0042656403
:1023F0002068656174696E67206661696C65640058
:1024000048656174696E67206661696C656400483F
:10241000656174696E67206661696C656400453149
:102420002048656174696E67206661696C65640047
:1024300045322048656174696E67206661696C6524
:1024400064004572723A204D415854454D50204227
:102450004544004D415854454D502074726967679A
:1024600065726564004531204572723A204D4158CD
:1024700054454D50004532204572723A204D415826
:1024800054454D50004572723A204D494E54454DC9
:102490005020424544004D494E54454D50207472E1
:1024A00069676765726564004531204572723A203C
:1024B0004D494E54454D50004532204572723A20E8
:1024C0004D494E54454D5000202F002066697273CF
:1024D000740A005A0059005800486F6D6520006565
:1024E00063686F3A004572726F723A004245442049
:1024F000544845524D414C2052554E415741590088
:10250000546865726D616C2052756E6177617900F7
:10251000453120544845524D414C2052554E41576B
:10252000415900453220544845524D414C205255A6
:102530004E4157415900556E6B6E6F776E20636F39
:102540006D6D616E643A202200203A203C3C3C20B4
:1025500072756E5F7A5F70726F62650A0020206329
:10256000757272656E745F706F736974696F6E3DBA
:10257000002044697363726570616E63793A00325A
:102580006E642050726F6265205A3A00203A203CF7
:102590003C3C2072756E5F7A5F70726F62650A00F4
:1025A000202063757272656E745F706F73697469F1
:1025B0006F6E3D00534C4F572050726F626520661E
:1025C00061696C210A003173742050726F6265205A
:1025D0005A3A00203A203C3C3C2072756E5F7A5F8C
:1025E00070726F62650A00202063757272656E7486
:1025F0005F706F736974696F6E3D0046415354207C
:1026000050726F6265206661696C210A00203A2071
:102610003E3E3E2072756E5F7A5F70726F62650A31
:1026200000202063757272656E745F706F736974D9
:10263000696F6E3D003C3C3C2070726F62655F705C
:10264000740A0050726F62696E67206661696C651A
:10265000640A00205A3A200020593A20004265645A
:1026600020583A2000203A200A0020206375727218
:10267000656E745F706F736974696F6E3D005F7231
:10268000656C6174697665290A002C20002C200095
:102690002C20002C20003E3E3E2070726F62655F51
:1026A0007074280073C611241FBECFEFD1E2DEBFC5
:1026B000CDBF00E00CBF15E0A0E0B2E0ECE3F8EA2B
:1026C00001E00BBF02C007900D92A230B107D9F70D
:1026D00023E1A2E0B5E001C01D92A03DB207E1F701
:1026E00013E1C3E5D3E100E006C021970109802F83
:1026F000FE010E94D3D3C235D10780E00807A9F7B5
:102700000E9422C00C941CD40C9400002F923F9283
:102710004F925F926F927F928F929F92AF92BF92F1
:10272000CF92DF92EF92FF920F931F93CF93DF939D
:10273000CDB7DEB7C957D1090FB6F894DEBF0FBECB
:10274000CDBF11E01093E5108091E5058D3411F4B3
:102750000C94C41F843511F40C944C2D873411F063
:102760000C947D2E8091E3059091E4058C319105C8
:1027700009F4A4C67CF4843091053CF482309105C0
:10278000A4F597FF2BC00C94C01F049709F461C6F1
:102790000C94C01F8A32910511F40C945B1D5CF4FB
:1027A0008D31910511F40C94821C4E9711F40C9408
:1027B000861C0C94C01F8B35910511F40C94371EA8
:1027C0008C35910511F40C943B1E8A35910511F05E
:1027D0000C94C01F109206050C947F2E809130023D
:1027E00081110C94842E0C947F2E20913002222390
:1027F00011F40C947F2E11E0029709F010E00E9472
:10280000CA9982E50E949A33882309F45CC10E9428
:1028100020336B017C014090E5125090E6126090ED
:10282000E7127090E8122091E9123091EA1240917B
:10283000EB125091EC1222962CAF3DAF4EAF5FAF32
:1028400022978091800D9091810DA091820DB09181
:10285000830D26968CAF9DAFAEAFBFAF269720916C
:10286000840D3091850D4091860D5091870D2A96EB
:102870002CAF3DAF4EAF5FAF2A9720E030E0A9010B
:10288000C701B6010E946ECC882309F4C8C5A30114
:10289000920126966CAD7DAD8EAD9FAD26970E94C0
:1028A0006ECC811111C022962CAD3DAD4EAD5FAD09
:1028B00022972A966CAD7DAD8EAD9FAD2A970E9472
:1028C0006ECC882309F4ABC520E030E0A901C70134
:1028D000B6010E946ECC881F8827881F18130BC072
:1028E00080E090E0A0E8BFE36A968CAF9DAFAEAF0A
:1028F000BFAF6A970AC020E030E040E85FEB6A961D
:102900002CAF3DAF4EAF5FAF6A97A3019201269601
:102910006CAD7DAD8EAD9FAD26970E94D7D06296EF
:102920006CAF7DAF8EAF9FAF629722962CAD3DAD61
:102930004EAD5FAD22972A966CAD7DAD8EAD9FAD4D
:102940002A970E94D7D066966CAF7DAF8EAF9FAFAF
:10295000669762962CAD3DAD4EAD5FAD6297CA01F4
:10296000B9010E94D3CC4B015C0166962CAD3DAD04
:102970004EAD5FAD6697CA01B9010E94D3CC9B01F1
:10298000AC01C501B4010E94D8D00E9443D32E9659
:102990006CAF7DAF8EAF9FAF2E9720E030E040E070
:1029A0005FE30E94D3CC4B015C01A7019601C701F4
:1029B000B6010E94D3CC6B017C01A5019401C50135
:1029C000B4010E94D3CC9B01AC01C701B6010E94A7
:1029D000D7D00E9443D39B01AC016A966CAD7DAD0C
:1029E0008EAD9FAD6A970E94D3CC4B015C012696B9
:1029F0002CAD3DAD4EAD5FAD2697C301B2010E9437
:102A0000D8D020E030E040E05FE30E94D3CC6B01FF
:102A10007C0166966CAD7DAD8EAD9FAD669790588E
:102A20002E962CAD3DAD4EAD5FAD2E970E94B4D12C
:102A30009B01AC01C501B4010E94D3CC9B01AC0148
:102A4000C701B6010E94D8D0A30192010E94D7D03D
:102A50006B017C012A962CAD3DAD4EAD5FAD2A9742
:102A600022966CAD7DAD8EAD9FAD22970E94D8D0E1
:102A700020E030E040E05FE30E94D3CC2B013C013A
:102A80002E962CAD3DAD4EAD5FAD2E9762966CADE2
:102A90007DAD8EAD9FAD62970E94B4D19B01AC011C
:102AA000C501B4010E94D3CC9B01AC01C301B201AA
:102AB0000E94D8D022962CAD3DAD4EAD5FAD229791
:102AC0000E94D7D014C089E40E949A33882329F049
:102AD0000E9420336B017C0103C0C12CD12C7601F4
:102AE0008AE40E949A338823F9F00E9420332A96C0
:102AF0006CAF7DAF8EAF9FAF2A9720E030E0A90189
:102B0000C701B6010E946ECC81111EC020E030E0EA
:102B1000A9012A966CAD7DAD8EAD9FAD2A970E941E
:102B20006ECC811111C07BC420E030E0A901C70147
:102B3000B6010E946ECC882309F471C42A961CAE9B
:102B40001DAE1EAE1FAE2A97D701C601B058229601
:102B50008CAF9DAFAEAFBFAF22972A962CAD3DADE7
:102B60004EAD5FAD2A97505826962CAF3DAF4EAF75
:102B70005FAF26979C01AD01BC01CD010E94D3CC73
:102B80004B015C0126962CAD3DAD4EAD5FAD269759
:102B9000CA01B9010E94D3CC9B01AC01C501B401AB
:102BA0000E94D8D00E9443D3A6966CAF7DAF8EAF63
:102BB0009FAFA6978091E5129091E612A091E7123F
:102BC000B091E8122E968CAF9DAFAEAFBFAF2E97EF
:102BD000A7019601BC01CD010E94D8D06A966CAFC6
:102BE0007DAF8EAF9FAF6A972091E9123091EA12C4
:102BF0004091EB125091EC1262962CAF3DAF4EAF6C
:102C00005FAF62972A962CAD3DAD4EAD5FAD2A9772
:102C100062966CAD7DAD8EAD9FAD62970E94D8D0AF
:102C2000AA966CAF7DAF8EAF9FAFAA978091800DB3
:102C30009091810DA091820DB091830D66968CAF1D
:102C40009DAFAEAFBFAF66976A962CAD3DAD4EADB2
:102C50005FAD6A97BC01CD010E94D7D06B017C01AA
:102C60002091840D3091850D4091860D5091870DF6
:102C70006E962CAF3DAF4EAF5FAF6E97AA962CAD60
:102C80003DAD4EAD5FADAA976E966CAD7DAD8EAD90
:102C90009FAD6E970E94D7D04B015C018091ED12E1
:102CA0009091EE12A091EF12B091F012A2968CAF1B
:102CB0009DAFAEAFBFAFA2979C01AD016091880DF3
:102CC0007091890D80918A0D90918B0D0E94D7D0C3
:102CD0002B013C0120918C0D30918D0D40918E0D7A
:102CE00050918F0DE2962CAF3DAF4EAF5FAFE297A4
:102CF0008091F1129091F212A091F312B091F4121E
:102D0000AE968CAF9DAFAEAFBFAFAE97A7019601A9
:102D100022966CAD7DAD8EAD9FAD22970E94D3CC37
:102D2000E6966CAF7DAF8EAF9FAFE697A50194019D
:102D300026966CAD7DAD8EAD9FAD26970E94D3CC0F
:102D40009B01AC01E6966CAD7DAD8EAD9FADE69777
:102D50000E94D8D0E6966CAF7DAF8EAF9FAFE6975E
:102D6000A501940122966CAD7DAD8EAD9FAD2297ED
:102D70000E94D3CC4B015C01A701960126966CAD55
:102D80007DAD8EAD9FAD26970E94D3CC9B01AC014B
:102D9000C501B4010E94D7D0E6962CAD3DAD4EAD35
:102DA0005FADE6970E944BD16B017C0120E030E0E3
:102DB000A9010E946ECC87FF0AC02BED3FE049ECD1
:102DC00050E4C701B6010E94D8D06B017C011123E9
:102DD00051F02BED3FE049EC50E4C701B6010E94F1
:102DE000D7D06B017C0120E030E0A901C701B6011A
:102DF0000E946ECC811128C066962CAD3DAD4EADC3
:102E00005FAD66972E966CAD7DAD8EAD9FAD2E9766
:102E10000E946ECC811118C06E962CAD3DAD4EADAA
:102E20005FAD6E9762966CAD7DAD8EAD9FAD6297D6
:102E30000E946ECC811108C07BEDC72E7FE0D72E9B
:102E400079ECE72E70E4F72EA7019601A6966CADFB
:102E50007DAD8EAD9FADA6970E94D3CC4B015C019A
:102E600020E030E0A901C301B2010E946ECC8823AA
:102E7000C9F0A5019401C501B4010E94D3CC4B0156
:102E80005C01A3019201C301B2010E94D3CC9B015A
:102E9000AC01C501B4010E94D8D00E9443D34B01BC
:102EA0005C010DC020E030E0A901C501B4010E9421
:102EB000FED287FF04C0B7FAB094B7F8B0942FE6FB
:102EC00032E143E85AE3C501B4010E946ECC87FFAA
:102ED00002C00C947F2EC501B4010E944DD20E9405
:102EE00021D21B01672B19F422242394312CB10128
:102EF00080E090E00E9472CC4B015C019B01AC0130
:102F0000C701B6010E94B4D12E966CAF7DAF8EAFD3
:102F10009FAF2E97A5019401C301B2010E94B4D1C5
:102F2000A6966CAF7DAF8EAF9FAFA697AE962CAD39
:102F30003DAD4EAD5FADAE97E2966CAD7DAD8EAD65
:102F40009FADE2970E94D7D0A50194010E94B4D111
:102F5000E2966CAF7DAF8EAF9FAFE2972E962CAD11
:102F60003DAD4EAD5FAD2E97CA01B9010E94D3CCE5
:102F700020E030E040E05FE30E94D3CC9B01AC0155
:102F800060E070E080E89FE30E94D7D06E966CAF5F
:102F90007DAF8EAF9FAF6E97A2962CAD3DAD4EAD7F
:102FA0005FADA2972E8F3F8F48A359A3AE968CADED
:102FB0009DADAEADBFADAE978AA39BA3ACA3BDA3A1
:102FC00060915C0270915D02072E000C880B990BDA
:102FD0000E9474CC20917102309172024091730270
:102FE000509174020E94D3CC2AE037ED43E25CE3B7
:102FF0000E94D3CC6AAF7BAF8CAF9DAF0E94B9A4C7
:103000009B01AC0128533F4F4F4F5F4FA2962CAF0F
:103010003DAF4EAF5FAFA2974EAC5FAC21966FACA9
:10302000219722967FAC229741E050E064965FAFF3
:103030004EAF649759E12F965FAF2F9764962EADF0
:103040003FAD64972215330509F473C10E94F3B4B0
:103050000E94B9A4DC01CB01A2962CAD3DAD4EADD2
:103060005FADA297821B930BA40BB50BB7FD10C0ED
:103070000E94B9A49B01AC0128533F4F4F4F5F4FB3
:10308000A2962CAF3DAF4EAF5FAFA2970E9456798C
:103090002F963FAD2F9731502F963FAF2F97332369
:1030A00009F44BC06E962CAD3DAD4EAD5FAD6E9745
:1030B00026966CAD7DAD8EAD9FAD26970E94D3CC8C
:1030C0006B017C012E962CAD3DAD4EAD5FAD2E97C4
:1030D000B201C3010E94D3CCA70196010E94D8D0AF
:1030E0007B018C016E962CAD3DAD4EAD5FAD6E9704
:1030F000B201C3010E94D3CC4B015C012E962CADD2
:103100003DAD4EAD5FAD2E9726966CAD7DAD8EADCF
:103110009FAD26970E94D3CC9B01AC01C501B401A1
:103120000E94D7D02B013C01C701D80126968CAF55
:103130009DAFAEAFBFAF269761C064964EAD5FAD99
:103140006497BA0180E090E00E9472CC2E962CAD7C
:103150003DAD4EAD5FAD2E970E94D3CC4B015C01CF
:103160000E94B1D16B017C01C501B4010E9439D329
:103170004B015C01A701960122966CAD7DAD8EAD31
:103180009FAD22970E94D3CC2B013C01A501940155
:103190002A966CAD7DAD8EAD9FAD2A970E94D3CCA3
:1031A0009B01AC01C301B2010E94D8D02B013C01AC
:1031B000A501940122966CAD7DAD8EAD9FAD229799
:1031C0000E94D3CC4B015C01A70196012A966CADFD
:1031D0007DAD8EAD9FAD2A970E94D3CC9B01AC01F3
:1031E000C501B4010E94D7D026966CAF7DAF8EAFDB
:1031F0009FAF269759E12F965FAF2F979201A301BA
:103200006A966CAD7DAD8EAD9FAD6A970E94D8D0A9
:103210006E8B7F8B888F998F26962CAD3DAD4EADF2
:103220005FAD2697AA966CAD7DAD8EAD9FADAA978A
:103230000E94D8D06A8F7B8F8C8F9D8FA6962CADE5
:103240003DAD4EAD5FADA6976E8D7F8D88A199A1E6
:103250000E94D8D06E8F7F8F88A399A3E2962CAD61
:103260003DAD4EAD5FADE2976AA17BA18CA19DA162
:103270000E94D8D06AA37BA38CA39DA380915B02FC
:10328000882321F0CE0146960E941176E0908C11A1
:103290001AAA1BAA1CAA1DAA0E891F89288D398D5E
:1032A0000EA31FA328A739A74A8D5B8D6C8D7D8D3A
:1032B0004AA75BA76CA77DA78E8D9F8DA8A1B9A1FA
:1032C0008EA79FA7A8ABB9AB09831A832B833C8336
:1032D0004D835E836F83788789879A87AB87BC87A6
:1032E0008AA19BA1ACA1BDA18D879E87AF87B88B1A
:1032F0009E01235F3F4FAE01475F5F4FBE016B5F93
:103300007F4FCE0101960E948D8FCE01C2966C0137
:103310008E01065C1F4F9E012E5D3F4FAE01425D48
:103320005F4FBE01665D7F4F0C970E943F3E81114B
:103330006CC0E0908C111EAA1FAA18AE19AE0091A5
:10334000800D1091810D2091820D3091830D0EA37F
:103350001FA328A739A74091840D5091850D609136
:10336000860D7091870D4AA75BA76CA77DA78091FA
:10337000880D9091890DA0918A0DB0918B0D8EA72B
:103380009FA7A8ABB9AB09831A832B833C834D83DA
:103390005E836F83788789879A87AB87BC878091A4
:1033A0008C0D90918D0DA0918E0DB0918F0D8D870C
:1033B0009E87AF87B88B9E01235F3F4FAE01475F6B
:1033C0005F4FBE016B5F7F4FCE0101960E948D8FD4
:1033D000DE01D6966D018E01065C1F4F2CE83DE0A4
:1033E000AE01425D5F4FBE01665D7F4FCE018696A6
:1033F0000E943F3E80E1E0E8FDE0A5EEB2E10190F1
:103400000D928A95E1F70C947F2E6496EEADFFAD98
:10341000649731966496FFAFEEAF64970FCEE5EEFA
:10342000F4E284918F010F5F1F4F882321F00E94E7
:103430004A34F801F6CFE3ECF1E084918F010F5F9D
:103440001F4F882311F40C947F2E0E944A34F801F8
:10345000F4CF80E50E949A33882329F00E94E0325D
:103460006B017C0103C0C12CD12C760183E50E9445
:103470009A33882361F00E94203320E030E04AE74D
:1034800054E40E94D3CC0E9421D26B017C010E94A3
:10349000FD4C0E94B9A4C60ED71EE81EF91E0E945C
:1034A000B9A4DC01CB018C199D09AE09BF09B7FD98
:1034B00002C00C947F2E0E945679F1CF0E942D738A
:1034C0008091C91385FF0EC0EBE3F2E084918F0178
:1034D0000F5F1F4F882321F00E944A34F801F6CF76
:1034E0000E943C988091B8138770873071F58FE403
:1034F0000E949A33882369F00E941133882329F1AE
:103500008091C91385FD02C00C947F2EE0E2F2E0A9
:1035100004C08FE40E945333F1CF84918F010F5F79
:103520001F4F882321F00E944A34F801F6CFE7E1CB
:10353000F2E084918F010F5F1F4F882311F40C94E8
:103540007F2E0E944A34F801F4CF0E94FD4C80E0A7
:103550000E94C03B30918C1163963FAF639721E08E
:1035600040E050E0BA0180E00E94B3590E94383B2D
:103570008091C91385FF0CC0EEEFF1E084918F01BB
:103580000F5F1F4F882321F00E944A34F801F6CFC5
:1035900011E01093AA0588E50E94533327968FAF58
:1035A000279789E50E945333282E8AE50E945333DA
:1035B0002B968FAF2B9727964FAD2797411105C0BC
:1035C000211005C0382E312607C0211002C0312C31
:1035D00003C02B963FAC2B970E94363482E50E94A5
:1035E0009A33882369F00E9420336B017C0120E02C
:1035F00030E0A9010E946ECC882309F43FC006C0C8
:10360000C12CD12C50EAE52E50E4F52E311008C023
:1036100027965FAD2797511103C0222009F443C1BB
:10362000C092880DD092890DE0928A0DF0928B0D98
:103630002091ED123091EE124091EF125091F01264
:10364000C701B6010E94FED21816C4F48091C913B6
:1036500085FF09C0B701A60182EE91E00E943959A9
:103660008AE00E944A3419821A821B821C82BE019F
:103670006F5F7F4F88E89DE00E94143A311009C0C7
:1036800027968FAD2797882309F4FCC0222009F4E0
:1036900005C11092E9121092EA121092EB121092E8
:1036A000EC121092E5121092E6121092E7121092AC
:1036B000E8120E94623BEEEBF9E1A4916796AFAF8E
:1036C0006797E8E4F9E185909590A590B490ECE4D3
:1036D000F9E1C590D590E590F490A7019601C50158
:1036E000B4010E94FED218162CF4A5019401C70162
:1036F000B60104C0A7019601C501B4010E94B4D16E
:103700002B013C01EBE0F9E1259135914591549174
:1037100022962CAF3DAF4EAF5FAF2297E7E0F9E1C5
:1037200085919591A591B49126968CAF9DAFAEAF42
:10373000BFAF2697BC01CD010E946ECC87FD0DC0A6
:103740001EAD0FAD21969FAD21972F969FAF2F975E
:103750002296AFAD2297AEAF10C023961FAD239730
:1037600024960FAD24972596BFAD25972F96BFAF12
:103770002F972696EFAD2697EEAFA3019201C301D6
:10378000B2010E94D3CC20E030E040E85FE30E9429
:10379000D8D00E9443D39B01AC01612F702F2F968C
:1037A0008FAD2F979EAD0E94D3CC69837A838B8394
:1037B0009C83EFEBF9E114912091ED123091EE1220
:1037C0004091EF125091F01222962CAF3DAF4EAFC8
:1037D0005FAF229720E030E040EC5FE3C701B60125
:1037E0000E94D3CC6B017C01612F110F770B880BEA
:1037F000990B0E9474CC9B01AC01C701B6010E94D9
:10380000D3CC2B013C0120E030E040EC5FE3C5016C
:10381000B4010E94D3CC6B017C0167963FAD6797E2
:10382000632F330F770B880B990B0E9474CC9B018D
:10383000AC01C701B6010E94D3CCAE014F5F5F4F10
:103840006A012296ECACFDAC0EAD1FAD2297A30130
:1038500092010E94E3380E9431981092E91210926E
:10386000EA121092EB121092EC121092E5121092E2
:10387000E6121092E7121092E812311005C02110E2
:1038800003C007C0222079F081E00E94A3763110A6
:1038900005C027969FAD2797992329F080E00E94C5
:1038A000A376311005C02B965FAD2B97552319F0E9
:1038B00082E00E94A3760E94623B8091A9058093DA
:1038C000AA050E94143B21E040E050E0BA01639653
:1038D0008FAD63970E94B3590E9409868091C913E6
:1038E00085FD02C00C947F2EE9EDF1E084918F01FB
:1038F0000F5F1F4F882311F40C947F2E0E944A34CF
:10390000F801F4CF0E94639D0C947F2EC090E512C5
:10391000D090E612E090E712F090E81288E50E945D
:103920009A33811109C020E030E040EA51E4C70138
:10393000B6010E94D8D002C00E9420336E8B7F8BCC
:10394000888F998FC090E912D090EA12E090EB1224
:10395000F090EC1289E50E949A33811109C020E0B1
:1039600030E040E052E4C701B6010E94D8D002C066
:103970000E9420339B01AC0169837A838B839C83F3
:103980006E897F89888D998D0E94A278882311F491
:103990000C947F2E80E00E94C03B0E94383B85E45F
:1039A0000E949A33882321F00E941133182F04C0FB
:1039B00085E40E94533311E086E50E949A33882300
:1039C00021F00E94F032262F01C021E0412FBE01DC
:1039D0006F5F7F4FCE0146960E9452BB6B017C0108
:1039E0009B01AC010E9484D381115FC08E889F88A7
:1039F000A88CB98C20E030E0A901C501B4010E9477
:103A00006ECC87FD05C027E137EB41E558E304C0E4
:103A100027E137EB41E558EBC501B4010E94D8D04E
:103A2000AB01BC018EE492E00E94395989809A80F2
:103A3000AB80BC8020E030E0A901C501B4010E9448
:103A40006ECC87FD05C027E137EB41E558E304C0A4
:103A500027E137EB41E558EBC501B4010E94D8D00E
:103A6000AB01BC0189E492E00E94395920E030E0CA
:103A7000A901C701B6010E946ECC87FD05C027E1F0
:103A800037EB41E558E304C027E137EB41E558EB5C
:103A9000C701B6010E94D8D0AB01BC0184E492E01A
:103AA0000E9439598AE00E944A340E94143B0E94C5
:103AB00009860C947F2E80913002882311F40C9497
:103AC0007F2E89E40E949A33182F882321F00E94C8
:103AD000F032E62E01C0E12C8AE40E949A33082FCE
:103AE000882331F00E94F032F62E111104C00BC071
:103AF000F12C1123C1F084E08E1510F00C94E3300A
:103B0000E6E5F2E004C094E09F15D0F30CC0849188
:103B10008F010F5F1F4F882311F40C947F2E0E949A
:103B20004A34F801F4CF0E9436341123F1F0209189
:103B3000BA113091BB114E2D4203B001439F700D5D
:103B4000112480916E0D90916F0D680F791F072ED3
:103B5000000C880B990B0E9474CC6093800D7093BD
:103B6000810D8093820D9093830D0023F1F02091BD
:103B7000BC113091BD115F2D5203B001539F700DE8
:103B800011242091700D3091710D620F731F072E5B
:103B9000000C880B990B0E9474CC6093840D709379
:103BA000850D8093860D9093870D80E50E949A3352
:103BB0008823E9F00E9411338823A9F11123D9F059
:103BC00020E030E040EA51E46091800D7091810D79
:103BD0008091820D9091830D0E94D7D06093800DCB
:103BE0007093810D8093820D9093830D04C080E5C6
:103BF0000E945333E1CF0023B1F020E030E040E0F9
:103C000052E46091840D7091850D8091860D9091A4
:103C1000870D0E94D7D06093840D7093850D80939B
:103C2000860D9093870D86E40E949A338823D9F0FD
:103C30000E9420336B017C0120E030E0A9010E944A
:103C4000FED2181684F420E030E040E752E4C701C9
:103C5000B6010E94B4D16093710270937202809396
:103C60007302909374020E94FB7D0C947F2E10933C
:103C700006050C947F2E3BE0A32E33E0B32E44E7E1
:103C8000C42E4DE0D42EE12CF12C612C712CD501E9
:103C90008D915D010E949A33882309F411C10E941D
:103CA00020334B018C01B3E07B1659F0F701E3544C
:103CB000FC4E20813181428153810E94D7D04B013B
:103CC0008C01F701EB51FD4E2081318142815381FE
:103CD000B401C8010E94D7D01B012C012DEB37E3A2
:103CE00046E855EB0E94FED287FD0BC02DEB37E373
:103CF00046E855E3C201B1010E946ECC18160CF0E3
:103D0000DFC0E3E07E12CBC010925C1110925D1117
:103D100010925E1110925F1110926C1110926D1141
:103D200010926E1110926F11109270111092711109
:103D30001092721110927311109264111092651109
:103D400010926611109267111092841110928511D1
:103D5000109286111092871110927C1110927D1191
:103D600010927E1110927F111092681110926911B9
:103D700010926A1110926B11109288111092891191
:103D800010928A1110928B11109280111092811151
:103D9000109282111092831180918C1190E0FC019D
:103DA000EE59FE4E2081223061F4880F991F880F52
:103DB000991FFC01E95FFA4F10821182128213826F
:103DC00049C0213009F046C0880F991F880F991FFC
:103DD000FC01E95FFA4F20E030E0A90160817181C8
:103DE000828193810E946ECC8823A1F120E030E093
:103DF000A901B401C8010E946ECC81112BC00DE154
:103E000013E0D8018D918D01882319F00E944A3466
:103E1000F8CF8AE00E944A3420918C11B4E02B9FA5
:103E200090011124F901E95FFA4F80819181A2810B
:103E3000B381B058F901EC59FE4E80839183A2837F
:103E4000B383F901EC57FE4E80839183A283B38341
:103E50004C018D01C401D8018093F1129093F212AC
:103E6000A093F312B093F41202E313E0F8018191EE
:103E70008F01882319F00E944A34F8CF6091F11223
:103E80007091F2128091F3129091F41242E00E942C
:103E90003B378AE00E944A346624639411C0A20131
:103EA0009101D6016D917D918D919C910E94D8D008
:103EB000F6016083718382839383872D0E9454343B
:103EC0007394F4E0CF0ED11C24E0E20EF11C34E038
:103ED0007312DDCE662009F44FC020E030E0A90166
:103EE0006091F1127091F2128091F3129091F4129C
:103EF0000E94D8D02091E1073091E2074091E3077A
:103F00005091E4070E94D3CC0E9409D360932D13F3
:103F100070932E1380932F139093301390910B1363
:103F200080910C13981719F00E949F4C25C00E9495
:103F3000FD4C80916F0081FB992790F981FF05C0AE
:103F400080916F008D7F80936F0040912D13509171
:103F50002E1360912F137091301340931E0D5093C8
:103F60001F0D6093200D7093210D992329F08091EE
:103F70006F00826080936F000E9409860C947F2EF0
:103F80000E9432BE0C947F2E8091E3059091E4054F
:103F90008637910509F413C70CF0D7C08035910519
:103FA00009F475C40CF070C08C33910509F411C389
:103FB000D4F58A32910509F45EC2BCF482319105D0
:103FC00009F495C58F31910509F4B2C1419711F0FB
:103FD0000C94492D5F988A98809108018170809394
:103FE0000601129847980C947F2E8933910509F4A5
:103FF000ECC344F4C09711F00C94492D0E94208921
:104000000C947F2E8A33910509F48FC1CB9711F060
:104010000C94492D10928D1110926211109263111F
:1040200006E913E05FC38134910509F42CC49CF4C4
:104030008E33910509F493C20CF465C28F33910558
:1040400009F4AEC28034910511F00C94492D0E9400
:10405000C0700C947F2E8C34910509F41CC44CF470
:104060008B34910511F00C94492D0E94D73C0C948F
:104070007F2E8D34910509F423C48E34910511F4FB
:104080000C947F2E0C94492D8B36910509F404C5B0
:104090009CF58535910509F45DC584F4823591055B
:1040A00009F41CC50CF40AC58335910509F41AC539
:1040B0008435910509F41BC50C94492D883691056A
:1040C00009F402C47CF48C35910511F00C94492D4F
:1040D0009BE0C92E93E0D92E25EDE22E27E0F22EAB
:1040E00010E053C58936910509F43DC48A3691051F
:1040F00009F4B4C40C94492D8037910509F4FFC329
:104100009CF48D36910509F470C40CF4F4C38E361A
:10411000910509F4DDC38F36910511F00C94492DFA
:104120000E94D4860C947F2E8237910509F4ADC588
:104130000CF4EDC38337910509F4E4C58537910587
:1041400011F40C947F2E0C94492D8D3241E094078C
:1041500011F40C94832A0CF06DC08B3C910509F48A
:1041600000C7A4F58C38910509F443C48CF4883752
:10417000910509F474C60CF46FC68937910511F0E6
:104180000C94492D1092AA051092A9050C947F2E2B
:104190008E3B910509F44BC434F48B39910509F435
:1041A000FDC30C94492D883C910509F45EC6893CF9
:1041B000910511F00C94492DB5EBEB2EB7E0FB2ED9
:1041C0000BE013E084E0D82ED00EB2C68A3D9105F4
:1041D00011F40C946D2A9CF48D3C910509F454C79C
:1041E0000CF4DDC68E3C910509F4CDC7833D9105E5
:1041F00011F00C94492DEFEDF4E20C948F298D3DD4
:10420000910511F40C947D2A3CF48C3D910511F438
:104210000C94702A0C94492D823E910511F40C9453
:10422000802A8831914011F00C94492D0E946C62D3
:104230000C947F2E853AB1E09B0711F40C943C2C32
:10424000A4F58039F1E09F0711F40C94202BC4F4FD
:104250008F3231E0930711F40C94892A14F40C94F2
:10426000862A803351E0950711F40C948C2A83360A
:10427000914011F00C94492DE5EEF4E20C94092BD9
:104280008239B1E09B0711F40C94292B14F40C949F
:10429000232B8A39F1E09F0709F435C3843A914012
:1042A00011F40C942F2B0C94492D873F31E0930788
:1042B00011F40C94D12CE4F4843F51E0950711F4EF
:1042C0000C94CB2C34F48C3A914009F47FC70C94B5
:1042D000492D853FE1E09E0711F40C94CE2C863FDA
:1042E000914011F00C94492D0E94FBAC0C947F2E50
:1042F000833523E0920711F40C94DA2C4CF4883FB8
:10430000914011F00C94492D0E94B25B0C947F2EC9
:104310008B3853E0950711F40C947F2E873E934021
:1043200011F40C94392D0C94492D0FE313E0E3C1E3
:104330000E94DA4FACE3CA2ED12CE12CF12CA7015C
:1043400096010E947AD0762E672ECA01B901A70184
:1043500096010E947AD06B017C01CA01B90128E163
:1043600030E040E050E00E947AD04B015C01C9018E
:104370006DE671E00E94ACD38E010F5F1F4F611597
:10438000710599F06F927F92DF92CF929F928F92F8
:104390009F938F937F936F938DE992E09F938F9379
:1043A0001F930F930E943FCC26C0009789F06F9215
:1043B0007F92DF92CF929F928F929F938F938DE8FF
:1043C00092E09F938F931F930F930E943FCC13C053
:1043D00081149104A104B104B1F06F927F92DF9235
:1043E000CF929F928F9281E892E09F938F931F9339
:1043F0000F930E943FCC0FB6F894DEBF0FBECDBF27
:10440000EFEDF4E223C0C114D104E104F10469F03A
:104410006F927F92DF92CF9289E792E09F938F9382
:104420001F930F930E943FCCE6CF6F927F9285E758
:1044300092E09F938F931F930F930E943FCC0F9016
:104440000F900F900F900F900F90DACF84917F0113
:104450009FEFE91AF90A882321F00E944A34F701F4
:10446000F5CFB80181EB92E00E948B598AE00E945F
:104470004A340C947F2E83E50E949A33882311F4EA
:104480000C947F2E0E940033E82E80E50E949A3320
:10449000882339F00E940033182F87FF03C00C9443
:1044A0007F2E1DE089E40E949A33882349F00E9400
:1044B0001133811111C0EEEBF2E086E38E0F07C0DD
:1044C00089E40E945333F5CF31968E1729F09491E9
:1044D0001913FACF0C94E93061E0812F0E947EA37A
:1044E0006E2D812F0E944FA3F12CB701812F0E94C6
:1044F000BAA3193011F00C947F2EF092A307E0922A
:10450000A2070C947F2E8CE40E945333882319F069
:1045100081E080934B0282E50E945333882319F097
:1045200081E080934A0281E40E945333882329F07A
:1045300081E080934B0280934A0281E080935F0286
:1045400002E613E0D8018D918D01882319F00E94B5
:104550004A34F8CF8AE00E944A340C947F2E8CE4CF
:104560000E945333811110924B0282E50E94533313
:10457000811110924A0281E40E945333882321F072
:1045800010924B0210924A0210925F0204E713E06D
:10459000F80181918F018823E9F20E944A34F8CF13
:1045A0008CE40E94533381111092E71082E50E943F
:1045B000533381111092E61081E40E945333882313
:1045C00021F01092E6101092E7101092E8100C946F
:1045D0007F2E20E030E0A9016091FE127091FF1261
:1045E00080910013909101130E946ECC882379F082
:1045F00010938D1107E813E0D8018D918D01882368
:1046000019F00E944A34F8CF8AE00E944A3410928E
:104610005C1110925D1110925E1110925F11109258
:104620006C1110926D1110926E1110926F11109208
:1046300070111092711110927211109273111092E8
:1046400058111092591110925A1110925B11109238
:10465000641110926511109266111092671181E039
:104660008093680210927411109275111092761155
:104670001092771110927C1110927D1110927E1180
:1046800010927F1110928411109285111092861150
:1046900010928711109268111092691110926A118C
:1046A00010926B1180936902109278111092791117
:1046B00010927A1110927B11109280111092811138
:1046C0001092821110928311109288111092891108
:1046D00010928A1110928B11109261111092601138
:1046E0000C947F2EF80181918F01882309F432CF39
:1046F0000E944A34F7CFD8018D918D01882319F09B
:104700000E944A34F8CF8AE00E944A34E7E0EE2E55
:10471000E5E0FE2EF2E6CF2EF1E1DF2E04E711E117
:10472000412C512C3201332433944801F80180810B
:104730009181A281B381F70181939193A193B19368
:104740007F01D6013D926D016BEAA62E64E0B62E84
:10475000F50181915F01882319F00E944A34F8CF56
:10476000C301B2010E9421375DE3A52E53E0B52EAF
:10477000D5018D915D01882319F00E944A34F8CF4C
:104780000C5F1F4FF401608171818281938142E04F
:104790000E943B378AE00E944A344A9445284628C2
:1047A000472829F0412C512C32014394BECF10925E
:1047B00061111092601110925811109259111092BB
:1047C0005A1110925B110C947F2E85E40E94533392
:1047D000882379F181E090E02091AC053091AD051E
:1047E000232B11F080E090E09093AD058093AC0511
:1047F0000E94EB508091AC059091AD05892B19F486
:1048000006EA13E00EC00CEB13E0D8018D918D0188
:10481000882319F00E944A34F8CF8AE00E944A3473
:104820001AC0F80181918F018823B9F30E944A349C
:10483000F8CF8091581190915911A0915A11B091CF
:104840005B118093880D9093890DA0938A0DB0938E
:104850008B0D0E94FB7D83E50E945333882331F04A
:1048600081E090E09093AF058093AE0582E50E94D1
:104870005333882311F40C947F2E1092AF051092BD
:10488000AE050C947F2E0E9484700C947F2E0E94A3
:104890006F750C947F2E80919705813011F00C94E8
:1048A0007F2E82E0809397050E94B9A460938F05C4
:1048B0007093900580939105909392050C947F2EB0
:1048C0000E94353D0C947F2E0E94F8880C947F2E18
:1048D0008EE40E949A33882311F40C947F2E0E9458
:1048E000F032609304137093051380930613909332
:1048F00007130C947F2E109200020C947F2E84EFED
:1049000092E00E9423790E94D65B0C947F2E83E56F
:104910000E949A33882369F00E9400338D3320F47B
:1049200080935E020C947F2E8CE380935E020C9445
:104930007F2EEFEDF4E284918F010F5F1F4F8823EC
:1049400021F00E944A34F801F6CF40915E0250E017
:1049500060E070E08DEF92E00E941C598AE00E94B6
:104960004A340C947F2E89E690E00E94E53681114E
:1049700011C0E4E0F3E084918F010F5F1F4F8823A3
:1049800021F00E944A34F801F6CF0E94E9A68AE09D
:104990000E944A341092E5100C94EC3083E50E949A
:1049A0009A33882311F40C947F2E0E940033182F21
:1049B0008D3308F01CE31093F5100E94B9A46B012D
:1049C0007C01212F30E0A8EEB3E00E94C8D0C60ED3
:1049D000D71EE81EF91EC092F110D092F210E0929C
:1049E000F310F092F4100C947F2E0E944B870C94DD
:1049F0007F2E8091C91383FF02C00C947F2E83E524
:104A00000E949A33882311F40C947F2E0E94203345
:104A10000E941CD26738710514F067E870E070934B
:104A20009F1160939E110E944CB30C947F2E809135
:104A3000C91383FF02C00C947F2E83E50E949A3332
:104A400067968FAF679781110C94892E82E50E943B
:104A50009A3381110C94892E0C947F2E80E50E944C
:104A60009A33811106C083E50E949A33882361F04E
:104A700006C00E94003381110C947F2EF4CF0E9457
:104A8000F0326F3F710510F06FEF70E07093A30785
:104A90006093A2070C947F2E80E50E949A338111C7
:104AA00006C01092A3071092A2070C947F2E0E94BA
:104AB000F032672B11F00C947F2EF3CF0E9497B346
:104AC0000E94188F1092A3071092A20768EE73E05D
:104AD00080E090E00E9416A60C947F2E10920505AF
:104AE0000C947F2E81E0809305050C947F2E83E546
:104AF0000E949A338823A1F00E94203320E030E006
:104B00004AE754E40E94D3CC0E9421D26093600211
:104B10007093610280936202909363020C947F2EE3
:104B200088E50E94533381110C94223089E50E945C
:104B3000533381110C9422308AE50E945333811142
:104B40000C94223085E40E94533381110C9422305E
:104B50000C944F3083E50E945333882311F40C9456
:104B60007F2E0E94203320E030E04AE754E40E9488
:104B7000D3CC0E9421D26093ED107093EE108093FD
:104B8000EF109093F0100C947F2ED6018D916D0153
:104B90000E945333882309F46DC0133009F063C0B9
:104BA0000E9420334B015C0120E030E040EA51E4F8
:104BB0000E946ECC87FF4EC0A50194016091E10771
:104BC0007091E2078091E3079091E4070E94B4D1CD
:104BD0002B013C019B01AC01609176077091770736
:104BE00080917807909179070E94D3CC60937607E3
:104BF000709377078093780790937907A3019201C8
:104C00006091920770919307809194079091950716
:104C10000E94D3CC6093920770939307809394077C
:104C2000909395076091B1077091B2078091B30797
:104C30009091B4070E9472CCA30192010E94D3CC40
:104C40000E9421D26093B1077093B2078093B3079B
:104C50009093B4078092E1079092E207A092E30755
:104C6000B092E40707C00E942033F701608371838C
:104C7000828393831F5FF4E0EF0EF11C143009F080
:104C800084CF0E94F04D0C947F2E0E94FD4C83E552
:104C90000E949A33882309F46FC90E94F03262306F
:104CA000710509F069C90E9492838BE50E944A341C
:104CB0006091CD107091CE108091CF109091D01056
:104CC00042E00E943B374091D1105091D210609148
:104CD000D3107091D4108EE093E00E943959409126
:104CE000D5105091D6106091D7107091D8108BE0EC
:104CF00093E00E9439598DE50E944A348AE00E946F
:104D00004A34FDC7E0EFF3E084918F010F5F1F4F3E
:104D1000882321F00E944A34F801F6CF60E080EE4B
:104D200093E00E94996461E089ED93E00E949964A8
:104D300061E08EEC93E00E94996461E08EEB93E079
:104D40000E94996460E085EB93E00E94996461E0C1
:104D50008BEA93E00E94996461E081EA93E00E940B
:104D6000996461E089E993E00E94996461E08BE8CD
:104D700093E00E94996460E08DE793E00E9499645B
:104D800060E08EE693E00E94996460E080E693E044
:104D90000E94996460E08AE493E00E94996460E074
:104DA00089E393E00E94996460E084E293E00E94CA
:104DB000996461E081E193E00E949964A0C7009149
:104DC000E1051091E20583E0D12C40E08150E9F04B
:104DD000D8019C91292F2B7F2134C1F711962C915A
:104DE0002133A1F7913421F0953421F441E002C040
:104DF000DD24D39498012E5F3F4F89012F5F3F4FF1
:104E0000F80190819032C9F3E1CF442369F0EFEDCE
:104E1000F4E284917F012FEFE21AF20A882321F055
:104E20000E944A34F701F5CFDD2069F0EAEBF4E0A7
:104E300084917F013FEFE31AF30A882321F00E9457
:104E40004A34F701F5CFD8018D918D01882309F4FB
:104E500081CB0E944A34F7CF0E94059850C781E069
:104E60008093AA058093A9054AC788EC90E00E9428
:104E7000E536811144C784E40E945333882309F442
:104E800054C00E94203311E020E030E0A9010E94CC
:104E90006ECC811101C010E010934711112309F469
:104EA00044C00E942033E091AC11B4E0EB9FF001CC
:104EB0001124E05BFE4E608371838283938320E044
:104EC00030E0A901609150117091511180915211FF
:104ED000909153110E946ECC81110CC080E090E043
:104EE000A0E4B0E48093501190935111A09352111B
:104EF000B093531120E030E0A901609154117091FA
:104F0000551180915611909157110E946ECC8111CC
:104F10000CC080E090E0A0E4B0E480935411909342
:104F20005511A0935611B09357110E944C95E7C6A6
:104F3000F80181918F010E945333882351F00E9420
:104F400020330E9421D2D7016D937D938D939C9342
:104F50001397B4E0EB0EF11CD012EACF0E94D53DBE
:104F6000CEC6F6E8EF2EF7E0FF2E0BE013E0A4E04C
:104F7000DA2ED00EF80181918F010E9453338823DD
:104F800041F00E942033D7016D937D938D939C93C4
:104F90001397B4E0EB0EF11CD012ECCFB0C683E552
:104FA0000E949A338823A1F00E94203360937E07E9
:104FB00070937F07809380079093810760937A07AF
:104FC00070937B0780937C0790937D0710E001C06E
:104FD00011E080E50E949A33882359F00E94203323
:104FE00060937E0770937F0780938007909381077B
:104FF00010E082E50E949A33882359F00E94203302
:10500000609382077093830780938407909385074A
:1050100010E084E50E949A33882359F00E942033DF
:1050200060937A0770937B0780937C0790937D074A
:1050300066C6112309F463C640917E0750917F072D
:10504000609180077091810784EC94E00E94395947
:105050004091820750918307609184077091850782
:1050600081EC94E00E94395940917A0750917B0776
:1050700060917C0770917D078EEB94E00E94395916
:105080008AE00E944A343BC681E50E94533388235C
:1050900051F00E94E03260939607709397078093D7
:1050A00098079093990783E50E945333882351F022
:1050B0000E94203360939E0770939F078093A00700
:1050C0009093A10784E50E945333882351F00E94F6
:1050D000203360939A0770939B0780939C0790936B
:1050E0009D0788E50E945333882351F00E942033A6
:1050F00060936A0770936B0780936C0790936D07BA
:1051000089E50E945333882351F00E942033609335
:105110006E0770936F0780937007909371078AE50D
:105120000E9453338823F1F00E942033609372076A
:105130007093730780937407909375072DEC3CEC84
:105140004CEC5DE30E946ECC181664F0E4EDF4E0E4
:1051500084918F010F5F1F4F882321F00E944A34F2
:10516000F801F6CF85E40E945333882309F4C7C5BC
:105170000E942033609376077093770780937807B7
:1051800090937907BCC57BE0C72E73E0D72EE3EB85
:10519000EE2EE5E0FE2E10E0F60181916F010E94F7
:1051A0005333882359F00E942033D7016D937D93A8
:1051B0008D939C931397812F0E9454341F5FB4E00A
:1051C000EB0EF11C133041F70C94BC1F0E94C6B9C2
:1051D000811195C567E4A62E68E1B62EE5EEF2E1F1
:1051E000FFAFEEAF9E012F5F3F4F49010EEB19E17C
:1051F000190133E0300F23963FAF2397F5016591F6
:10520000759185919491AEADBFADCD90DD90ED904F
:10521000FD90BFAFAEAFA70196010E94D7D02B0182
:105220003C0120E030E040EA51EC0E94FED287FDD4
:1052300010C020E030E040EA51E4C301B2010E9416
:105240006ECC181634F0F101408251826282738272
:105250000DC0F80184911816B4F7F7FAF094F7F836
:10526000F094F101C082D182E282F382D101CD902B
:10527000DD90ED90FD901D0120E030E040EA51EC22
:10528000C701B6010E94FED287FF03C0E5EEF4E23B
:105290000BC020E030E040EA51E4C701B6010E94B3
:1052A0006ECC1816C4F4F2CF84918F010F5F1F4F9C
:1052B000882321F00E944A34F801F6CFE6E0F5E0B9
:1052C00084918F010F5F1F4F882309F418C50E9436
:1052D0004A34F801F5CFB4E0AB0EB11C0F5F1F4F9D
:1052E0002396EFAD2397E01389CF53EBE52E55E0DE
:1052F000F52E10E0F40181919191A191B1914F01AE
:10530000F70181939193A193B1937F01812F0E9423
:1053100054341F5F133071F70E940986F0C48491E2
:105320008F010F5F1F4F882321F00E944A34F8013C
:10533000F6CF83E50E945333882321F00E94113376
:1053400080935B02ECE4F5E084918F010F5F1F4FC7
:10535000882321F00E944A34F801F6CF80915B0245
:10536000811103C0E8E4F5E002C0E4E4F5E08491D3
:105370008F010F5F1F4F882321F00E944A34F801EC
:10538000F6CFECE3F5E084918F010F5F1F4F882388
:1053900021F00E944A34F801F6CF2091BD133091DC
:1053A000BE134091BF135091C01360913D027091A4
:1053B0003E0280913F02909140020E94D8D0AB0102
:1053C000BC018AE395E00E9439592091C1133091C4
:1053D000C2134091C3135091C41360914102709164
:1053E000420280914302909144020E94D8D0AB01C6
:1053F000BC0187E395E00E9439592091C513309193
:10540000C6134091C7135091C81360914502709123
:10541000460280914702909148020E94D8D0AB0189
:10542000BC0184E395E00E943959ECE2F5E08491F7
:105430008F010F5F1F4F882321F00E944A34F8012B
:10544000F6CF2091BD133091BE134091BF13509100
:10545000C0136091310270913202809133029091B9
:1054600034020E94D8D0AB01BC018AE295E00E94D0
:1054700039592091C1133091C2134091C3135091F7
:10548000C413609135027091360280913702909179
:1054900038020E94D8D0AB01BC0187E295E00E949F
:1054A00039592091C5133091C6134091C7135091BB
:1054B000C8136091390270913A0280913B02909139
:1054C0003C020E94D8D0AB01BC0184E295E00E946E
:1054D00039598AE00E944A3412C40E9425640FC4DC
:1054E00083E50E949A33882309F409C40E94F032AC
:1054F00070935D0260935C0202C40E94B063FFC3BC
:105500000E944A63FCC30E94B261F9C30E945C61BD
:10551000F6C30E94105CF3C380E50E9453338823D6
:1055200051F00E94203360935A1270935B12809363
:105530005C1290935D1289E40E945333882381F0BA
:105540000E9420332CEA35EC47E25EE30E94D3CC84
:105550006093561270935712809358129093591279
:1055600084E40E945333882381F00E9420332CEA84
:1055700035EC47E25EE30E94B4D16093521270931F
:1055800053128093541290935512EFEDF4E28491EC
:105590008F010F5F1F4F882321F00E944A34F801CA
:1055A000F6CF40915A1250915B1260915C1270914B
:1055B0005D1284E695E00E9439592CEA35EC47E209
:1055C0005EE360915612709157128091581290913B
:1055D00059120E94B4D1AB01BC0180E695E00E9453
:1055E00039592CEA35EC47E25EE360915212709132
:1055F000531280915412909155120E94D3CCAB015A
:10560000BC018CE595E00E9439598AE00E944A3439
:1056100076C384918F010F5F1F4F882321F00E9472
:105620004A34F801F6CFE8E6F5E084918F010F5F88
:105630001F4F882309F463C30E944A34F801F5CF51
:105640000E94FD4C5CC381E00E94513A0E94098691
:1056500056C380E00E94513A0E94098650C383E5F8
:105660000E945333882341F0DCD7082F811106C0F4
:1056700080E00E94C03B02C00091FD128091E512C3
:105680009091E612A091E712B091E81289839A8373
:10569000AB83BC838091E9129091EA12A091EB1246
:1056A000B091EC128D839E83AF83B8878091ED1209
:1056B0009091EE12A091EF12B091F01289879A8723
:1056C000AB87BC878091BA119091BB11892BA9F14E
:1056D00083E4E9D78111E6C430C093012B964FAD26
:1056E0002B972F965FAD2F976A2D7F2D23968FAD29
:1056F000239727969FAD27970E94D8D020E030E0CF
:1057000040E05FE30E94D3CCA20191010E94D8D077
:105710002B013C012DEB37E346E855EB0E94FED20E
:1057200087FD23C52DEB37E346E855E3C301B201FE
:105730000E946ECC18160CF418C586E5B4D78823E1
:1057400051F08091BA119091BB11892B21F00E94E8
:105750005C380E9448388AE5A6D7882319F070D7AC
:105760000E9431B9802F0E94C03B011103C0EFEDB0
:10577000F4E21CC08091FD128111F9CFE5EEF4E254
:1057800084918F010F5F1F4F882321F00E944A34BC
:10579000F801F6CFE7E9F5E084918F010F5F1F4F25
:1057A000882329F30E944A34F801F6CF84918F01AF
:1057B0000F5F1F4F882321F00E944A34F801F6CF73
:1057C0008091FD12811103C069E173E002C065E1BF
:1057D00073E089E895E00E948B598AE00E944A3480
:1057E000EFEDF4E284918F010F5F1F4F882321F0CA
:1057F0000E944A34F801F6CFECE7F5E084918F017E
:105800000F5F1F4F882321F00E944A34F801F6CF22
:10581000C090FE12D090FF12E0900013F0900113A0
:1058200020E030E0A901C701B6010E94FED218169F
:105830004CF442E0C701B6010E943B378AE00E9467
:105840004A340CC0E7E7F5E084918F010F5F1F4FEA
:10585000882321F00E944A34F801F6CF4CE050E052
:1058600065EE72E1CE0101960E94DBD3892B09F42B
:1058700046C20E94098643C289E45CD7882319F096
:10588000AFD6162F01C01FEF8AE454D7882319F032
:10589000A7D6062F01C00FEF8AE505D7F82E811194
:1058A00004C081E500D7D82E01C0D12C17FD02C05D
:1058B00007FF03C0E5EEF4E205C0F11018C0D110F7
:1058C00016C0F8CF84918F010F5F1F4F882319F006
:1058D000E1D7F801F7CFE5EDF5E084918F010F5F97
:1058E0001F4F882309F40BC2D5D7F801F6CF153026
:1058F00018F0E5EEF4E205C00530D8F714C0CAD7B9
:10590000F80184918F010F5F1F4F8111F8CFE6EBF3
:10591000F5E084918F010F5F1F4F882309F4EFC1D9
:10592000B9D7F801F6CFE12E110FFF08002E000CB9
:10593000110B86D6DD2099F025E02E9DF0012F9DDC
:10594000F00D1124E00FF11FEE0FFF1FEE0FFF1FF0
:10595000E254FE4E208131814281538103C020E018
:1059600030E0A901A5E0AE9DF001AF9DF00D11243E
:105970000E0F1F1F000F111F000F111F02541E4E8C
:105980000E94D8D0D8016D937D938D939C931397EB
:105990000E94A59BB4C10E94A96AB1C10E949D6AE0
:1059A000AEC183E580D6882311F03BD681270E94C3
:1059B000DEA7A5C18AE5BED6882309F435C040D646
:1059C0006B017C0120E030E040EA51EC0E94FED205
:1059D00087FD13C020E030E040EA51E4C701B60182
:1059E0000E946ECC18164CF0C092B913D092BA1324
:1059F000E092BB13F092BC1382C1E5EEF4E2849115
:105A00008F010F5F1F4F81110CC0E7E0F6E084911A
:105A10008F010F5F1F4F882309F471C13BD7F80135
:105A2000F6CF38D7F801EBCFEFEDF4E284918F0198
:105A30000F5F1F4F882319F02DD7F801F7CFE8EF3C
:105A4000F5E084918F010F5F1F4F882319F022D753
:105A5000F801F7CF4091B9135091BA136091BB137D
:105A60007091BC1385EF95E00E9439598AE012D7F6
:105A700046C181E08093300283E55CD6882331F013
:105A8000D0D581113CC10E94E28539C183E50BD696
:105A9000F8CF0E9432BE33C10091E3051091E405B6
:105AA000F02E8091C91385FF12C0B80177278EE6CA
:105AB00096E00E94565989E2EDD68AE0EBD645EE93
:105AC00052E16FE476E08AE596E00E94323A8091F6
:105AD0008C11F81651F083E52DD6882311F0A1D54D
