:100000000C9424130C9455130C9455130C94551301
:100010000C9455130C9455130C9455130C945513C0
:100020000C9455130C9455130C9455130C945513B0
:100030000C9455130C9455130C9455130C945513A0
:100040000C9455130C94676B0C9455130C94551326
:100050000C9455130C9455130C94B4B90C949584CA
:100060000C9455130C94843B0C9455130C94551319
:100070000C9455130C9455130C9455130C94551360
:100080000C94B8730C9455130C9455130C9455138D
:100090000C9455130C9455130C9455130C94DF8445
:1000A0000C9455130C9455130C948A730C9455139B
:1000B0000C9455130C9455130C9455130C945C73B9
:1000C0000C9455130C9455130C9455130C94551310
:1000D0000C9455130C9455130C9455130C94551300
:1000E0000C945513B43BBA3BCB3BD63BDE3BF73BC2
:1000F000E23BF73BE63BEA3BF73BF73BF43B2F8227
:100100003282218225822B82698236823A82408223
:10011000448248824E825282568269825C82608228
:100120006482B183B683BB83C583CF834884D9837C
:10013000E183E983F383FD83078416842084488464
:100140002A8434843E8475B83DB942B96DB979B911
:1001500055B95AB965B8084AD73B3BCE016E84BC45
:10016000BFFDC12F3D6C74319ABD56833DDA3D0011
:10017000C77F11BED9E4BB4C3E916BAAAABE00005A
:1001800000803F05A84CCDB2D44EB93836A9020C38
:1001900050B9918688083CA6AAAA2ABE0000008011
:1001A0003F004E414E494E495459494E46CDCCCC64
:1001B0003D0AD7233C17B7D13877CC2B329595E63B
:1001C000241FB14F0A000020410000C84200401C1B
:1001D0004620BCBE4CCA1B0E5AAEC59D744C45563B
:1001E000454C494E4700434F4D4D554E49434154B0
:1001F000494F4E0044525952554E004552524F52AB
:100200005300494E464F004543484F00205A3A207C
:100210000020593A200042656420583A20004D657C
:10022000736820706F696E742063616E6E6F7420E6
:100230006265207265736F6C7665640A005072693E
:100240006E742074696D653A20000001363726030C
:10025000FFFFFF353C3D380EFFFFFF312E303E12D1
:10026000FFFFFFFF28FF0C0809FFFFFF1A1C18FF04
:10027000FF2A24221EFFFF2C08440AFF4307FF45E4
:1002800046696C616D656E7420757365643A200013
:1002900053746174733A20002C204C6F6E67657341
:1002A00074206A6F623A2000546F74616C20746924
:1002B0006D653A200053746174733A20002C204617
:1002C00061696C65643A20002C2046696E69736828
:1002D00065643A20005072696E74733A200053745A
:1002E0006174733A200007020202FB01F401E60187
:1002F000DD016F66660044454255473A004D313195
:10030000332053006F6B0020573A0020573A002CDF
:1003100020002C2000544845524D414C5F50524F14
:1003200054454354494F4E004155544F5245504F48
:1003300052545F53445F53544154555300454D4507
:100340005247454E43595F50415253455200434135
:1003500053455F4C494748545F4252494748544EC1
:1003600045535300544F47474C455F4C4947485409
:100370005300534F4654574152455F504F574552D3
:10038000004255494C445F50455243454E54004C41
:100390004556454C494E475F44415441005A5F50D1
:1003A000524F4245004155544F4C4556454C005024
:1003B00052494E545F4A4F420050524F47524553A4
:1003C00053004155544F5245504F52545F54454D80
:1003D0005000564F4C554D455452494300454550E9
:1003E000524F4D0053455249414C5F584F4E5F5854
:1003F0004F4646004649524D574152455F4E414D8A
:10040000453A4D61726C696E20312E312E392E378E
:1004100020284769746875622920534F5552434517
:100420005F434F44455F55524C3A68747470733A59
:100430002F2F6769746875622E636F6D2F4D61721F
:100440006C696E4669726D776172652F4D61726C71
:10045000696E2050524F544F434F4C5F5645525394
:10046000494F4E3A312E30204D414348494E455F69
:10047000545950453A3344205072696E7465722065
:1004800045585452554445525F434F554E543A32A5
:1004900020555549443A63656465326132662D34AE
:1004A0003161322D343734382D396231322D633594
:1004B000356336326633363766660A002F2F2000E2
:1004C000205400205200416363656C657261746959
:1004D0006F6E3A2050005741524E494E4721204CF2
:1004E0006F77205A204A65726B206D6179206C65A8
:1004F000616420746F20756E77616E74656420701E
:1005000061757365732E0A00546F6F2066617220E7
:1005100066726F6D207265666572656E63652070C8
:100520006F696E740A00205A00205900580020207C
:100530004D61783A2000205A0020590058002020B0
:100540004D696E3A20004F6E20004F666600536F73
:10055000667420656E6473746F70733A2000486F20
:1005600074656E64206F6666736574733A00432920
:100570000A0061626C656420286D696E2074656D87
:10058000702000436F6C64206578747275646573C5
:1005900020617265200020643A0020693A002070D2
:1005A0003A004E6F2063617365206C696768740A56
:1005B00000454550524F4D204F4B0A003C3C3C20DB
:1005C00067636F64655F540A00203A2041465445D2
:1005D000520A00202063757272656E745F706F73CB
:1005E0006974696F6E3D00203A204245464F52457E
:1005F0000A00202063757272656E745F706F736994
:1006000074696F6E3D003E3E3E2067636F64655FB8
:100610005428006F6B002569730025696D202569DA
:1006200073002569682025696D2025697300256997
:1006300064202569682025696D2025697300256976
:100640007920256964202569682025696D20256940
:1006500073002C20002C2000203A2073796E635FF9
:10066000706C616E5F706F736974696F6E0A0020E1
:100670002063757272656E745F706F736974696FF1
:100680006E3D00656E7175657565696E6720220047
:100690004C696E65204E756D626572206973206EBF
:1006A0006F74204C617374204C696E65204E756DBB
:1006B0006265722B312C204C617374204C696E651D
:1006C0003A20005072696E7465722073746F707096
:1006D00065642064756520746F206572726F727333
:1006E0002E2046697820746865206572726F7220CA
:1006F000616E6420757365204D39393920746F201F
:10070000726573746172742E202854656D70657201
:1007100061747572652069732072657365742E202B
:100720005365742069742061667465722072657304
:1007300074617274696E67290A004E6F20436865A0
:10074000636B73756D2077697468206C696E6520C2
:100750006E756D6265722C204C617374204C696EED
:10076000653A2000636865636B73756D206D69730E
:100770006D617463682C204C617374204C696E65E4
:100780003A20004D3131300020496E76616C696449
:1007900020657874727564657220000000000000A6
:1007A0000020C1000040C000005243008089430087
:1007B0000052430A20736F66745F656E6473746FD2
:1007C000705F6D6178203D20000A20736F66745F52
:1007D000656E6473746F705F6D696E203D20000AF2
:1007E00020706F736974696F6E5F736869667420D7
:1007F0003D200020617869733A0A20686F6D655F5B
:100800006F6666736574203D2000466F7220003C61
:100810003C3C20646F5F626C6F636B696E675F6DF9
:100820006F76655F746F0A003E3E3E20646F5F62C4
:100830006C6F636B696E675F6D6F76655F746F0079
:10084000203A2073657475705F666F725F656E64C1
:1008500073746F705F6F725F70726F62655F6D6FE0
:1008600076650A00202063757272656E745F706F22
:10087000736974696F6E3D00203A20636C65616E28
:100880005F75705F61667465725F656E6473746FC7
:10089000705F6F725F70726F62655F6D6F76650A11
:1008A00000202063757272656E745F706F73697477
:1008B000696F6E3D00646F5F70726F62655F726139
:1008C00069736528006465706C6F793A2000203A7E
:1008D000207365745F70726F62655F6465706C6FC2
:1008E0007965640A00202063757272656E745F70AA
:1008F0006F736974696F6E3D00203A203C3C3C2068
:10090000646F5F70726F62655F6D6F76650A00205D
:100910002063757272656E745F706F736974696F4E
:100920006E3D00203A203E3E3E20646F5F70726F45
:1009300062655F6D6F76650A00202063757272656F
:100940006E745F706F736974696F6E3D007265736A
:1009500065745F6265645F6C6576656C0A0020286B
:10096000646F6E65290A004578747261706F6C61FE
:100970007465205B0042696C696E656172204C652C
:1009800076656C696E6720477269643A0A00537530
:10099000626469766964656420776974682043419C
:1009A000544D554C4C20524F4D204C6576656C692A
:1009B0006E6720477269643A0A003C3C3C20646FD1
:1009C0005F686F6D696E675F6D6F766528005B00AD
:1009D000290A002C20002C20003E3E3E20646F5F40
:1009E000686F6D696E675F6D6F7665280020746F44
:1009F0006F206C6F6E6720657874727573696F6EA7
:100A00002070726576656E7465640A0020636F6C91
:100A10006420657874727573696F6E207072657684
:100A2000656E7465640A00627573793A2070617549
:100A300073656420666F7220696E7075740A006257
:100A40007573793A2070617573656420666F7220E2
:100A5000757365720A00627573793A2070726F63FC
:100A6000657373696E670A004B494C4C206361756E
:100A700073656420627920746F6F206D75636820E0
:100A8000696E6163746976652074696D65202D20D7
:100A900063757272656E7420636F6D6D616E643A1A
:100AA00020005072696E7465722068616C746564B0
:100AB0002E206B696C6C28292063616C6C65642145
:100AC0000A000000000000000000000000003C3CA4
:100AD0003C207365745F617869735F69735F6174EB
:100AE0005F686F6D652800203A200A00202063753A
:100AF0007272656E745F706F736974696F6E3D00BA
:100B00005D203D20003E20686F6D655F6F666673F7
:100B100065745B003E207A70726F62655F7A6F6603
:100B200066736574203D20002A2A2A205A20484FE7
:100B30004D454420574954482050524F42452028A3
:100B40005A5F4D494E5F50524F42455F5553455392
:100B50005F5A5F4D494E5F454E4453544F505F506E
:100B6000494E29202A2A2A0A003E3E3E20736574F7
:100B70005F617869735F69735F61745F686F6D65EA
:100B800028005761726E696E673A20486F6D696E12
:100B9000672042756D702044697669736F72203CDE
:100BA00020310A000202040000A0400000A0400022
:100BB0000000403C3C3C20686F6D6561786973289B
:100BC00000203A203E204146544552207365745F10
:100BD000617869735F69735F61745F686F6D650ADF
:100BE00000202063757272656E745F706F73697434
:100BF000696F6E3D00486F6D65203220536C6F77D2
:100C00003A0A004D6F766520417761793A0A0048CB
:100C10006F6D65203120466173743A0A003E3E3E96
:100C200020686F6D6561786973280020746F6F208C
:100C30006C6F6E6720657874727573696F6E207063
:100C4000726576656E7465640A0020636F6C64205B
:100C5000657874727573696F6E2070726576656EF3
:100C60007465640A00202D20496E76616C696420E9
:100C70006578747275646572206E756D6265722038
:100C8000210A002020506C616E6E657242756666A6
:100C9000657242797465733A20002046726565205A
:100CA0004D656D6F72793A2000436F6D70696C65A8
:100CB000643A204E6F7620333020323032300A00D2
:100CC000207C20417574686F723A20286E6F6E65C3
:100CD0002C2064656661756C7420636F6E6669674D
:100CE000290A00323031382D30382D303100204C77
:100CF00061737420557064617465643A2000312E0C
:100D0000312E392E370A004D61726C696E00205306
:100D10006F6674776172652052657365740A00208E
:100D20005761746368646F672052657365740A0065
:100D30002042726F776E206F7574205265736574F0
:100D40000A002045787465726E616C205265736587
:100D5000740A00506F77657255700A00737461727F
:100D6000740A00205A3A0020593A0020583A006587
:100D70006E6473746F7073206869743A20004572F2
:100D8000726F722077726974696E6720746F204584
:100D90004550524F4D210A00290A0020627974659E
:100DA000733B20637263200053657474696E6773CC
:100DB0002053746F72656420280024F4D43050C32B
:100DC0008E20C2A24017828B7011127A910D816C15
:100DD000D90AA861E108C7586607615143061E4B4E
:100DE0005D05C145A7041A411104093D98037139F5
:100DF00031034036DB0265339102D4305402802E39
:100E00001D02632CEE01752AC501B028A001102730
:100E100081018F2564012B244B01E0223401AC2198
:100E20001F018D200D01801FFC00841EED00971D09
:100E3000DF00B81CD200E61BC600201BBC00641AF1
:100E4000B200B219A8000A19A0006A189900D117B7
:100E5000910040178B00B516840031167E00B31543
:100E600079003A157300C7146F0058146A00EE1326
:100E700066008813630025135E00C7125B006C12C6
:100E8000570015125400C111510070114F0021116B
:100E90004B00D61049008D10470046104400021048
:100EA0004200C00F4000800F3E00420F3C00060F82
:100EB0003B00CB0E3800930E37005C0E3500270E3A
:100EC0003400F30D3200C10D3100900D3000600D83
:100ED0002E00320D2D00050D2C00D90C2B00AE0C70
:100EE0002900850C29005C0C2700350C27000E0C0E
:100EF0002600E80B2400C40B2400A00B23007D0B6C
:100F000023005A0B2100390B2100180B2000F80A8E
:100F10001F00D90A1E00BB0A1E009D0A1D00800A80
:100F20001D00630A1C00470A1B002C0A1B00110A43
:100F30001A00F7091A00DD091900C4091900AB09E4
:100F40001900920917007B091800630917004C0962
:100F5000160036091600200916000A091500F508C2
:100F60001500E0081400CC081400B8081400A40808
:100F70001400900813007D0812006B081300580835
:100F8000120046081200340811002308110012084C
:100F9000110001081100F0071000E0071000D00751
:100FA0001000C0071000B0070F00A1071000910744
:100FB0000E0083070F0074070F0065070E00570728
:100FC0000E0049070E003B070D002E070E002007FC
:100FD0000D0013070D0006070D00F9060C00ED06C5
:100FE0000D00E0060C00D4060C00C8060C00BC0680
:100FF0000C00B0060C00A4060B0099060C008D0630
:101000000B0082060B0077060B006C060B006106D6
:101010000A0057060B004C060A0042060A00380672
:101020000A002E060A0024060A001A060A00100604
:10103000090007060A00FD050900F4050900EB0593
:101040000900E2050900D9050900D0050900C70516
:101050000900BE050900B5050800AD050800A50595
:1010600009009C050800940508008C05080084050B
:1010700008007C050800740508006C05070065057C
:1010800008005D050700560508004E0507004705E6
:1010900007004005080038050700310507002A054C
:1010A0000700230507001C050600160507000F05AD
:1010B00007000805060002050700FB040600F5040A
:1010C0000700EE040600E8040600E2040700DB0463
:1010D0000600D5040600CF040600C9040600C304B8
:1010E0000600BD040600B7040600B1040500AC0408
:1010F0000600A6040600A00405009B040600950453
:101100000500900406008A0405008504050080049B
:1011100006007A04050075040500700405006B04E0
:10112000050066040500610405005C040500570421
:101130000500520405004D04050048040500430461
:1011400005003E0404003A0405003504050030049F
:1011500004002C04050027040400230405001E04D9
:1011600004001A04040016040500110404000D0410
:101170000400090405000404040000040400FC0346
:101180000400F8030400F4030400F0030400EC037B
:101190000400E8030400E4030400E0030400DC03AB
:1011A0000400D8030400D4030400D0030400CC03DB
:1011B0000400C8030300C503030024F404D9201B62
:1011C000C40C5C0E9804C4095F0265077101F40544
:1011D000F900FB04B30048048700C1036900580309
:1011E000550003034500BE023A0084023100530259
:1011F0002A002902250004022000E4011C00C80185
:101200001900AF0117009801140084011300710147
:1012100010006101100051010E0043010D00360164
:101220000B002B010B0020010B00150109000C0124
:10123000090003010800FB000800F3000800EB00B0
:101240000700E4000600DE000600D8000600D20019
:101250000600CC000500C7000500C2000500BD0067
:101260000400B9000400B5000400B1000400AD00A2
:101270000400A9000400A5000300A20003009F00D1
:1012800004009B00030098000300950002009300F7
:101290000300900003008D0002008B000300880013
:1012A00002008600020084000300810002007F002B
:1012B00002007D0002007B0002007900020077003E
:1012C000010076000200740002007200010071004B
:1012D00002006F0002006D0001006C0002006A0055
:1012E000010069000200670001006600010065005E
:1012F0000100640002006200010061000100600062
:1013000001005F0002005D0001005C0001005B0065
:1013100001005A0001005900010058000100570067
:101320000100560001005500010054000100530067
:101330000000530001005200010051000100500064
:1013400001004F0001004E0000004E0001004D0062
:1013500001004C0001004B0000004B0001004A005E
:10136000010049000100480000004800010047005A
:101370000100460000004600010045000000450055
:10138000010044000100430000004300010042004E
:101390000000420001004100000041000100400047
:1013A00001003F0000003F0001003E0000003E0041
:1013B00001003D0000003D0001003C0000003C0039
:1013C00000003C0001003B0000003B0001003A002F
:1013D00000003A0001003900000039000100380027
:1013E000000038000000380001003700000037001E
:1013F0000100360000003600000036000100350014
:101400000000350000003500010034000000340009
:1014100000003400010033000000330000003300FE
:1014200001003200000032000000320001003100F3
:1014300000003100000031000100300000003000E9
:101440000000300001002F0000002F0000002F00DE
:1014500000002F0001002E0000002E0000002E00D2
:1014600001002D0000002D0000002D0000002D00C7
:1014700001002C0000002C0000002C0000002C00BB
:1014800001002B0000002B0000002B0000002B00AF
:1014900001002A0000002A0000002A0000002A00A3
:1014A0000100290000002900000029000000290097
:1014B000000029000100280000002800000028008A
:1014C000000028000000280001002700000027007D
:1014D0000000270000002700000027000100260070
:1014E0000000260000002600000026000000260064
:1014F0000100250000002500000025000000250057
:101500000000250000002500010024000000240048
:10151000000024000000240000002400010023003B
:10152000000023000000230000002300000023002F
:101530000000230000002300010022000000220020
:101540000000220000002200000022000000220013
:101550000100210000002100000021000000210006
:1015600000002100000021000000210001002000F7
:1015700000002000000020000000200000002000EB
:1015800000002000000020000000200001001F00DB
:1015900000001F0000001F0000001F0000001F00CF
:1015A00000001F0000001F0001001E0000001E00C0
:1015B00000001E0000001E000000043700001E296D
:1015C0000000511B00005810000010090000CC045E
:1015D000000078020000410100006265640A002CEE
:1015E0002073797374656D2073746F7070656421F6
:1015F000204865617465725F49443A2000206F7528
:1016000074206F662072616E67650A00536572769A
:101610006F20003A200020536572766F2000496EDB
:1016200076616C69642065787472756465720A000D
:1016300020643A0020693A0020703A0020653A00A0
:101640004B64200023646566696E6520444546410D
:10165000554C545F004B69200023646566696E65D4
:101660002044454641554C545F004B702000236494
:101670006566696E652044454641554C545F00508F
:101680004944204175746F74756E652066696E6992
:1016900073686564212050757420746865206C61DE
:1016A0007374204B702C204B6920616E64204B6456
:1016B00020636F6E7374616E74732066726F6D2039
:1016C00062656C6F7720696E746F20436F6E666918
:1016D0006775726174696F6E2E680A005049442004
:1016E0004175746F74756E65206661696C656421FF
:1016F0002074696D656F75740A0042454420544832
:1017000045524D414C2052554E41574159004531AB
:1017100020544845524D414C2052554E4157415955
:1017200000453220544845524D414C2052554E41BF
:10173000574159004265642068656174696E67208D
:101740006661696C65640045312048656174696E45
:1017500067206661696C6564004532204865617484
:10176000696E67206661696C656400504944204178
:1017700075746F74756E65206661696C656421208F
:1017800054656D706572617475726520746F6F2039
:10179000686967680A00204B643A2000204B693A68
:1017A0002000204B703A20000A20436C617373695B
:1017B0006320504944200A002054753A2000204BF1
:1017C000753A2000206D61783A2000206D696E3AEC
:1017D000200020643A200020626961733A200050A2
:1017E0004944204175746F74756E65206661696C3B
:1017F0006564212054656D70657261747572652031
:10180000746F6F20686967680A0050494420417509
:10181000746F74756E652073746172740A00504938
:1018200044204175746F74756E65206661696C65DE
:101830006421204261642065787472756465722049
:101840006E756D6265720A004F66660A00466164D5
:1018500065204865696768742000426564204C65AE
:1018600076656C696E6720004661696C65642074FA
:101870006F20656E61626C6520426564204C657600
:10188000656C696E670A004D65736820706F696EDC
:10189000742063616E6E6F74206265207265736F71
:1018A0006C7665640A004D34323120696E636F7264
:1018B0007265637420706172616D65746572207504
:1018C000736167650A003A200050726F6265205AA2
:1018D000204F6666736574003F5A206F7574206FE1
:1018E000662072616E676520282D323020746F206B
:1018F0003230290A00496E76616C6964206578741B
:1019000072756465720A0041637469766520457872
:101910007472756465723A2000203A204D6F7665C6
:10192000206261636B0A00202064657374696E61D4
:1019300074696F6E3D00207D0A002C20004F6666A2
:1019400073657420546F6F6C205859206279207B26
:1019500020004E6F206D6F7665206F6E20746F6F64
:101960006C6368616E67650A0070012C0190012745
:1019700001B0012201C0011D01F001180110021384
:101980000130020E016002090190020401C002FF51
:10199000000003FA004003F5008003F000D003EBE1
:1019A000002004E6007004E100E004DC004005D7FC
:1019B00000C005D2004006CD00D006C8008007C395
:1019C000003008BE00F008B900C009B400B00AAF8A
:1019D00000B00BAA00D00CA500000EA000500F9B79
:1019E00000C01096005012910000148C00C01587A2
:1019F00000B0178200B0197D00D01B7800001E7364
:101A00000040206E0090226900F024640040275FAF
:101A10000090295A00E02B5500102E500020304B2A
:101A20000010324600E033410090353C001037375B
:101A30000070383200A0392D00B03A2800A03B23B6
:101A400000603C1E00103D1900903D1400103E0F38
:101A500000703E0A00C03E0500003F0000403FFB12
:101A6000FF803FF6FFC03FF1FF2040002042403A98
:101A70000020403A0000002100240027002A002D09
:101A8000003000330001010000040107010A0100D9
:101A9000002200250028002B002E00310034000217
:101AA000010000050108010B0100002000230026B1
:101AB0000029002C002F0032000001000003010665
:101AC00001090105050505070508080808020202C5
:101AD000020A0A08080404040401010101010101C9
:101AE000010303030303030303040707070C0C0CA0
:101AF0000C0C0C0C0C020202020606060606060678
:101B0000060B0B0B0B0B0B0B0B0102102020080814
:101B1000102040102040800201020108040201014F
:101B20000204081020408080402010080402018038
:101B3000040201804020100804020108040201018F
:101B40000204081020408001020408102040800098
:101B5000000A0B02090C0D0E080703040100000027
:101B60000000000000000000000000000000000075
:101B70000000000000000000000000121110000032
:101B80000000000000000000000000000000000055
:101B9000000000000047322F47332062616420704C
:101BA0006172616D65746572730A0020280041429C
:101BB0004C2041646A7573746D656E74205A002000
:101BC000480020570020590042696C696E656172B7
:101BD00020477269642058005A20466164653A20A3
:101BE000002028656E61626C6564290A0020286403
:101BF000697361626C6564290A0042494C494E452B
:101C00004152004175746F20426564204C657665D1
:101C10006C696E673A2000204E6F7A7A6C65290AEB
:101C20000020262041626F76650020262053616DDA
:101C300065205A2061730020262042656C6F770072
:101C40002D4261636B002028526967687400205A36
:101C50003A0020593A0050726F6265204F666673F1
:101C6000657420583A004649585F4D4F554E5445CB
:101C7000445F50524F42450A0050726F62653A20ED
:101C800000436F72650A004D616368696E65205498
:101C90007970653A20003C3C3C204732390A0020EC
:101CA000636F72726563746564205A3A0047323913
:101CB00020756E636F72726563746564205A3A00B2
:101CC000203A203E2070726F62696E6720636F6DEC
:101CD000706C6574650A00202063757272656E749D
:101CE0005F706F736974696F6E3D002028445259AC
:101CF00052554E2900473239204175746F20426594
:101D000064204C6576656C696E67003F20284C2C1A
:101D1000522C462C4229206F7574206F6620626F0A
:101D2000756E64732E0A003F2856296572626F73C0
:101D300065206C6576656C20697320696D706C61D7
:101D4000757369626C652028302D34292E0A004293
:101D50006164205A2076616C75650A004E6F2062BE
:101D6000696C696E65617220677269640A003C3C47
:101D70003C204732390A003E204175746F2D6C6556
:101D800076656C206E6F74206E65656465642C20CA
:101D9000736B69700A00203A203E3E3E204732397C
:101DA0000A00202063757272656E745F706F7369CC
:101DB00074696F6E3D0050726F7465637465642062
:101DC00050696E0A005374616E64617264204465E8
:101DD00076696174696F6E3A20002052616E6765A2
:101DE0003A2000204D61783A2000204D696E3A205B
:101DF000004D65616E3A200046696E6973686564DE
:101E0000210A002072616E67653A2000206D6178BA
:101E10003A2000206D696E3A2000207369676D6179
:101E20003A2000206D65616E3A20003A207A3A200F
:101E300000206F662000205A0020590020580047DB
:101E40006F696E6720746F3A00436C6F636B7769DC
:101E500073650A00436F756E7465722D00204469C6
:101E600072656374696F6E3A2000202020616E678E
:101E70006C653A20005374617274696E67207261F8
:101E8000646975733A2000506F736974696F6E6985
:101E90006E67207468652070726F62652E2E2E0A40
:101EA000003F4E756D626572206F66206C656773CA
:101EB00020696E206D6F76656D656E74206E6F742F
:101EC00020706C61757369626C652028302D313526
:101ED000292E0A003F2028582C5929206F7574207C
:101EE0006F6620626F756E64732E0A003F53616DDA
:101EF000706C652073697A65206E6F7420706C61F8
:101F0000757369626C652028342D3530292E0A00DE
:101F10004D3438205A2D50726F62652052657065BD
:101F200061746162696C69747920546573740A0024
:101F30003F2856296572626F7365206C6576656C03
:101F400020697320696D706C61757369626C6520BE
:101F500028302D34292E0A00205A3A0020423A0017
:101F600020436F756E7420413A0020453A00205A94
:101F70003A0020593A00583A003A004361703A005A
:101F800020466C6F773A200048617264636F646525
:101F9000642044656661756C742053657474696E61
:101FA0006773204C6F616465640A00DC050000DC27
:101FB000050000DC050000DC05000000007A44009C
:101FC000007A4400007A440000C8420000A04200A9
:101FD00000A0420000484400004C433A0A00202878
:101FE0006D6D290020204D383531205A005A2D5072
:101FF000726F6265204F666673657400204400202E
:10200000490020204D333034205000204400204926
:102010000020204D33303120500020440020490062
:1020200020500020204D33303120450050494420BD
:1020300073657474696E67733A0A00205A00204A07
:102040000020204732392057204900205A00202004
:102050004D3432302053004175746F204265642046
:102060004C6576656C696E673A0A00205900205805
:102070000020204D323138205400486F74656E6462
:10208000206F6666736574733A0A00204500205A13
:102090000020590020204D323036205800486F6D06
:1020A00065206F66667365743A0A00204500205A01
:1020B0000020590020580020540020530020204DBB
:1020C00032303520510020453C6D61785F655F6A94
:1020D00065726B3E0020583C6D61785F785F6A6581
:1020E000726B3E20593C6D61785F795F6A65726BF7
:1020F0003E205A3C6D61785F7A5F6A65726B3E0084
:10210000416476616E6365643A20513C6D696E5F2F
:102110007365676D656E745F74696D655F75733E39
:1021200020533C6D696E5F66656564726174653EDF
:1021300020543C6D696E5F74726176656C5F666594
:102140006564726174653E002054002052002020B6
:102150004D323034205000416363656C65726174A8
:10216000696F6E2028756E6974732F7332293A2057
:10217000503C7072696E745F616363656C3E20529F
:102180003C726574726163745F616363656C3E2069
:10219000543C74726176656C5F616363656C3E0A82
:1021A00000204500205A0020590020204D323031B7
:1021B0002058004D6178696D756D20416363656CD1
:1021C00065726174696F6E2028756E6974732F7300
:1021D00032293A0A00204500205A002059002020C8
:1021E0004D3230332058004D6178696D756D206631
:1021F00065656472617465732028756E6974732FE8
:1022000073293A0A00204500205A00205900202056
:102210004D393220580053746570732070657220F8
:10222000756E69743A0A0020204D323030204430F7
:102230000A0020204D32303020543120440020202C
:102240004D3230302044002044697361626C656413
:102250000A0046696C616D656E74207365747469FB
:102260006E67733A002020473231202020203B0047
:10227000556E6B6E6F776E20636F6D6D616E643A35
:10228000202200203A203C3C3C2072756E5F7A5F31
:1022900070726F62650A00202063757272656E74D9
:1022A0005F706F736974696F6E3D0020446973637A
:1022B000726570616E63793A00326E642050726F9D
:1022C0006265205A3A00203A203C3C3C2072756EF0
:1022D0005F7A5F70726F62650A00202063757272A8
:1022E000656E745F706F736974696F6E3D00534CF7
:1022F0004F572050726F6265206661696C210A0039
:102300003173742050726F6265205A3A00203A206F
:102310003C3C3C2072756E5F7A5F70726F62650A3A
:1023200000202063757272656E745F706F736974DC
:10233000696F6E3D00464153542050726F626520B4
:102340006661696C210A00203A203E3E3E2072758B
:102350006E5F7A5F70726F62650A0020206375722B
:1023600072656E745F706F736974696F6E3D003C67
:102370003C3C2070726F62655F70740A0050726F2F
:1023800062696E67206661696C65640A00205A3A6A
:10239000200020593A200042656420583A2000204D
:1023A0003A200A00202063757272656E745F706F48
:1023B000736974696F6E3D005F72656C61746976F4
:1023C00065290A002C20002C20002C20002C200045
:1023D0003E3E3E2070726F62655F707428003C3C28
:1023E0003C205A5F534146455F484F4D494E470A8E
:1023F00000203A205A5F534146455F484F4D494EB1
:10240000470A00202064657374696E6174696F6E99
:102410003D005A5F534146455F484F4D494E472066
:102420003E3E3E0A00486F6D65205859206669722D
:1024300073740A000000524300808E43000055432D
:102440000000204200002042000020410000000067
:10245000FFFFFF3C3C3C204732380A005261697361
:1024600065205A20286265666F726520686F6D6905
:102470006E672920746F20003E20656E6473746F50
:1024800070732E656E61626C652874727565290AB9
:10249000003C3C3C204732380A003E20686F6D69A2
:1024A0006E67206E6F74206E65656465642C2073A2
:1024B0006B69700A003E3E3E204732380A00545293
:1024C00049474745524544006F70656E003A200009
:1024D0007A5F6D696E00795F6D696E00785F6D6916
:1024E0006E005265706F7274696E6720656E6473FA
:1024F000746F70207374617475730A004265642090
:1025000068656174696E67206661696C6564004521
:10251000312048656174696E67206661696C656425
:102520000045322048656174696E67206661696C98
:102530006564004B494C4C45442E2000202F002957
:102540000A002062797465733B2063726320002067
:1025500073746F7265642073657474696E67732039
:10256000726574726965766564202800202863614D
:102570006C63756C6174656429210A0020213D201B
:1025800000454550524F4D20435243206D69736DB5
:1025900061746368202D202873746F72656429202C
:1025A000002053697A653A2000496E6465783A20C4
:1025B00000204D61726C696E3D563538290A00283D
:1025C000454550524F4D3D00454550524F4D2076A8
:1025D000657273696F6E206D69736D6174636820D5
:1025E000002066697273740A005A00590058004846
:1025F0006F6D6520006563686F3A004572726F7297
:102600003A0042454420544845524D414C205255D1
:102610004E4157415900453120544845524D414C97
:102620002052554E41574159004532205448455299
:102630004D414C2052554E415741590052657365EA
:102640006E643A200000C8CF11241FBECFEFD1E244
:10265000DEBFCDBF00E00CBF15E0A0E0B2E0ECE0D3
:10266000F9EB01E00BBF02C007900D92AA36B1074B
:10267000D9F727E1AAE6B5E001C01D92A531B2075E
:10268000E1F713E1C4E2D3E100E006C021970109BC
:10269000802FFE010E9411DCC332D10780E00807C1
:1026A000A9F70E941ACA0C9484DC0C9400002F92A3
:1026B0003F924F925F926F927F928F929F92AF92D2
:1026C000BF92CF92DF92EF92FF920F931F93CF931F
:1026D000DF93CDB7DEB7AD970FB6F894DEBF0FBE70
:1026E000CDBF41E04093AC088091050A8D3409F4D8
:1026F000A9C3843511F40C948728873411F00C9405
:10270000CD292091030A3091040A2C31310509F4B6
:1027100073C06CF42430310534F42230310574F583
:1027200037FF25C08BC32430310589F187C32A3296
:10273000310509F43EC14CF42D31310509F460C076
:102740002E31310509F460C079C32B35310509F408
:102750000CC22C35310509F40EC22A35310509F0B9
:102760006DC310926E051092C7140C94CF298091FE
:102770005E0281110C94E8290C94CF2981E022306B
:10278000310509F080E00E945A900C94CF2980E531
:102790000E945030882329F00E94962F6B017C0103
:1027A00003C0C12CD12C760183E50E9450308823D0
:1027B00061F00E94D62F20E030E04AE754E40E9406
:1027C00011D50E945FDA6B017C010E94F0AB0E9480
:1027D0008984C60ED71EE81EF91E0E948984DC017A
:1027E000CB018C199D09AE09BF09B7FD02C00C943D
:1027F000CF290E941B3FF1CF0E9480A50C94CF29C6
:102800000E94268A0C94CF29C090B115D090B215A1
:10281000E090B315F090B41588E50E945030811116
:1028200009C020E030E040EA51E4C701B6010E944F
:1028300016D902C00E94D62F6E8B7F8B888F998FFE
:10284000C090B515D090B615E090B715F090B815BA
:1028500089E50E945030811109C020E030E040E05D
:1028600052E4C701B6010E9416D902C00E94D62FB9
:102870009B01AC0169837A838B839C836E897F89FA
:10288000888D998D0E94283E882311F40C94CF29BD
:1028900080E00E94963A0E94DA3885E40E94503027
:1028A000882321F00E94C72F182F04C085E40E94BE
:1028B000093011E086E50E945030882321F00E9403
:1028C000A62F262F01C021E0412FBE016F5F7F4F51
:1028D000CE0146960E94C0A86B017C019B01AC0111
:1028E0000E94C2DB81115FC08E889F88A88CB98C42
:1028F00020E030E0A901C501B4010E94ACD487FDFD
:1029000005C027E137EB41E558E304C027E137EB89
:1029100041E558EBC501B4010E9416D9AB01BC01D9
:1029200086E192E00E94037489809A80AB80BC802B
:1029300020E030E0A901C501B4010E94ACD487FDBC
:1029400005C027E137EB41E558E304C027E137EB49
:1029500041E558EBC501B4010E9416D9AB01BC0199
:1029600081E192E00E94037420E030E0A901C701F8
:10297000B6010E94ACD487FD05C027E137EB41E5E5
:1029800058E304C027E137EB41E558EBC701B60136
:102990000E9416D9AB01BC018CE092E00E94037446
:1029A0008AE00E94BE310E94B6380E9461970C9462
:1029B000CF2980915E02882311F40C94CF2989E4F9
:1029C0000E945030182F882321F00E94A62FE62E57
:1029D00001C0E12C8AE40E945030082F882331F096
:1029E0000E94A62FF62E111104C00BC0F12C11234A
:1029F000C1F024E02E1510F00C94B92BEEE1F2E0BA
:102A000004C034E03F15D0F30CC084918F010F5FF8
:102A10001F4F882311F40C94CF290E94BE31F80176
:102A2000F4CF0E94AA311123F1F020910A143091C1
:102A30000B144E2D4203B001439F700D1124809161
:102A4000A9159091AA15680F791F072E000C880B05
:102A5000990B0E94B2D46093A3147093A414809332
:102A6000A5149093A6140023F1F020910C1430913A
:102A70000D145F2D5203B001539F700D112420914E
:102A8000AB153091AC15620F731F072E000C880B2D
:102A9000990B0E94B2D46093A7147093A8148093EA
:102AA000A9149093AA1480E50E9450308823E9F07D
:102AB0000E94C72F8823A9F11123D9F020E030E02C
:102AC00040EA51E46091A3147091A4148091A5147C
:102AD0009091A6140E9415D96093A3147093A41426
:102AE0008093A5149093A61404C080E50E94093039
:102AF000E1CF0023B1F020E030E040E052E460910B
:102B0000A7147091A8148091A9149091AA140E94FE
:102B100015D96093A7147093A8148093A914909367
:102B2000AA1486E40E9450308823D9F00E94D62F40
:102B30006B017C0120E030E0A9010E943CDB18160B
:102B400084F420E030E040E752E4C701B6010E947F
:102B5000F2D9609367027093680280936902909340
:102B60006A020E9439430C94CF2940936E0540932A
:102B7000C7140C94CF2934E8A32E32E0B32E4CEBCB
:102B8000C42E48E0D42EE12CF12C612C712CD501FF
:102B90008D915D010E945030882309F4EFC00E949E
:102BA000D62F4B018C01B3E07B1659F0F701EB56A1
:102BB000FB4E20813181428153810E9415D94B0106
:102BC0008C01F701EF54FA4E20813181428153810B
:102BD000B401C8010E9415D99B01AC01E3E07E124B
:102BE000BEC01092CC141092CD141092CE1410923C
:102BF000CF141092E4141092E5141092E61410927F
:102C0000E7141092E8141092E9141092EA1410924A
:102C1000EB141092DC141092DD141092DE1410925A
:102C2000DF141092F4141092F5141092F61410920E
:102C3000F7141092EC141092ED141092EE141092FE
:102C4000EF141092E0141092E1141092E21410921A
:102C5000E3141092F8141092F9141092FA141092CE
:102C6000FB141092F0141092F1141092F2141092BE
:102C7000F3148091B31490E0FC01EE52FB4E2081DE
:102C8000213009F047C0880F991F880F991FFC0158
:102C9000EC52FB4E2CEA35EC47E257E36081718140
:102CA000828193810E943CDB1816A4F520E030E07D
:102CB000A901B401C8010E94ACD481112BC007E264
:102CC00013E0D8018D918D01882319F00E94BE3147
:102CD000F8CF8AE00E94BE312091B314B4E02B9F5C
:102CE00090011124F901EC52FB4E80819181A28167
:102CF000B381B058F901E452FB4E80839183A283E3
:102D0000B383F901EC50FB4E80839183A283B3839C
:102D10004C018D01C401D8018093BD159093BE155F
:102D2000A093BF15B093C0150CE313E0F801819197
:102D30008F01882319F00E94BE31F8CF6091BD1534
:102D40007091BE158091BF159091C01542E00E9410
:102D5000DD348AE00E94BE31662463940FC0D60140
:102D60006D917D918D919C910E9416D9F6016083A1
:102D7000718382839383872D0E94C8317394F4E01A
:102D8000CF0ED11C24E0E20EF11C34E07312FFCE12
:102D9000662009F44FC020E030E0A9016091BD1524
:102DA0007091BE158091BF159091C0150E9416D9E3
:102DB00020918C0930918D0940918E0950918F0995
:102DC0000E9411D50E9447DB6093F9157093FA15A4
:102DD0008093FB159093FC159091D7158091D81591
:102DE000981719F00E94E05A25C00E94F0AB80911C
:102DF0006F0081FB992790F981FF05C080916F00DA
:102E00008D7F80936F004091F9155091FA15609174
:102E1000FB157091FC154093FF12509300136093C3
:102E2000011370930213992329F080916F0082603F
:102E300080936F000E9461970C94CF290E94A0ABF1
:102E40000C94CF298091030A9091040A823791054E
:102E500011F40C94CF220CF0D3C08B34910509F4FB
:102E6000DAC50CF058C08B33910509F4C0C26CF57B
:102E70008F31910509F4FCC19CF48131910509F46D
:102E8000F3C144F4029710F00C9484280E949A9D98
:102E90000C94CF29429711F40C94FB210C948428B4
:102EA0008033910509F417C22CF48A9709F405C2FE
:102EB0000C9484288933910509F411C2CA9711F042
:102EC0000C94842809E413E028C28034910509F4A5
:102ED000B4C37CF48D33910509F459C30CF4CDC20D
:102EE0008E33910509F473C3CF9709F48BC30C9407
:102EF00084288334910509F4A2C414F00C94CF29DA
:102F00008134910511F40C94CF298234910509F490
:102F1000F4C30C9484288C35910511F40C94472249
:102F2000C4F58035910509F4B7C49CF48D3491053E
:102F300009F48AC50CF473C58E34910509F488C56B
:102F40008F34910511F00C94842884EB93E00E9457
:102F5000C43E8335910511F40C94F72174F4813546
:102F6000910511F40C94E8218235910511F00C942F
:102F7000842810926D050C94CF298435910511F4A5
:102F80000C94FB218535910511F40C942E220C94A0
:102F900084288C36910511F40C94CF29BCF4893621
:102FA000910509F413C734F48836910509F451C624
:102FB0000C9484288A36910511F40C94BB218B362D
:102FC000910511F40C94D8210C9484288F36910526
:102FD00009F47EC654F48D36910509F439C78E364E
:102FE000910509F462C60C9484288037910511F488
:102FF0000C94CF298137910509F4BCC60C94842820
:10300000883151E0950711F40C9449270CF08EC0DB
:10301000883C910511F40C94BC230CF03FC0883718
:10302000910511F40C94B723ECF48537910511F454
:103030000C94CF294CF48337910511F00C9484281B
:10304000E4EFF3E00C940E238637910511F40C9411
:1030500069238737910511F00C9484280E9451B49C
:103060000C94CF298C38910511F40C94F3205CF466
:103070008937910511F00C9484281092A2141092B3
:10308000A1140C94CF298B39910509F4BAC68E3B53
:10309000910511F40C9411210C9484288E3C910517
:1030A00011F40C944A2514F58B3C910511F40C9401
:1030B000382484F4893C910511F00C948428A0E60E
:1030C000EA2EA9E0FA2E04E812E0B4E0DB2ED00EDE
:1030D0000C941F248C3C910511F40C9456248D3CC7
:1030E000910511F40C94CB240C9484288C3D91050B
:1030F00011F40C94392764F4833D910511F40C9478
:103100004D268A3D910511F40C942D270C948428AA
:103110008D3D910511F40C944627823E910511F0E6
:103120000C9484280E94B1810C94CF29853AB1E097
:103130009B0711F40C9442280CF04BC08336F1E04D
:103140009F0711F40C942028ECF48E3231E09307A1
:1031500011F40C944C274CF48D32914011F00C94E6
:1031600084280E941A800C94CF298F32A1E09A07FC
:1031700011F40C94A0278033914011F40C94A327F0
:103180000C9484288239E1E09E0711F40C943C28C9
:1031900094F4803921E0920711F40C943928813994
:1031A000914011F00C94842881E00E94F3370E9432
:1031B00061970C94CF298A3941E0940709F4D6C568
:1031C000843A914011F00C9484280E9491770C94D9
:1031D000CF29873FA1E09A0711F40C944B28ECF417
:1031E000843FE1E09E0711F40C9445283CF48C3AAE
:1031F000914011F40C94A7250C948428853F31E06C
:10320000930711F40C944828863F914011F00C94D8
:1032100084280E9486A30C94CF29833553E0950718
:1032200011F40C9471289CF4883FB1E09B0711F4D1
:103230000C944E288A39924011F00C9484286FEF38
:1032400088E790E00E949BD803EC13E0DBC38B3847
:10325000F3E09F0711F40C94CF29873E934011F4BB
:103260000C9474280C9484280E942F430C94CF292A
:103270000E94956A6E8B7F8B888F998FBE016F5FDE
:103280007F4FCE0146960E945C30E5EFF5E28491D7
:103290008F010F5F1F4F882321F00E94BE31F8017C
:1032A000F6CFBE016F5F7F4F8DE392E00E945574B1
:1032B0008AE00E94BE310C94CF2983E50E945030F1
:1032C00081110C94ED2984E40E94503081110C94FA
:1032D000ED290C94CF290E942C980C94CF29209191
:1032E000D5093091D6094091D7095091D8096091FC
:1032F000C8147091C9148091CA149091CB140E9483
:1033000015D96093AB147093AC148093AD14909363
:10331000AE140E9439430C94CF29D8018D918D01B0
:10332000882319F00E94BE31F8CF8AE00E94BE3196
:10333000AFE6EA2EA5E0FA2EB2EDCB2EB4E1DB2EFD
:1033400004ED14E1412C512C320133243394480113
:10335000F80180819181A281B381F70181939193DA
:10336000A193B1937F01D6013D926D01ECE6AE2EA3
:10337000E3E0BE2EF50181915F01882319F00E94E0
:10338000BE31F8CFC301B2010E94FA3277E4A72E12
:1033900073E0B72ED5018D915D01882319F00E944D
:1033A000BE31F8CF0C5F1F4FF401608171818281C3
:1033B000938142E00E94DD348AE00E94BE314A944B
:1033C00045284628472829F0412C512C32014394A6
:1033D000BECF1092D1141092D0141092C814109233
:1033E000C9141092CA141092CB140C94CF291092C5
:1033F000FC141092D21410926F0510927005109266
:103400007105109272051092D314109273051092E8
:10341000740510927505109276050EE613E0D8013A
:103420008D918D01882321F10E94BE31F8CF8091CA
:10343000B514882309F48DC466EEC62E62E0D62E3C
:10344000E12CF12C20E08091B51490E00E2C02C00C
:10345000959587950A94E2F780FD63C4FFEFEF1A14
:10346000FF0A32E0C30ED11C46E0E416F10459F71E
:103470008AE00E94BE310C94CF2920E030E0A901FF
:103480006091CA157091CB158091CC159091CD1596
:103490000E94ACD4882381F081E08093FC140EE775
:1034A00013E0F80181918F01882319F00E94BE3149
:1034B000F8CF8AE00E94BE311092CC141092CD1445
:1034C0001092CE141092CF141092E4141092E514BE
:1034D0001092E6141092E7141092E8141092E91476
:1034E0001092EA141092EB141092C8141092C9149E
:1034F0001092CA141092CB141092DC141092DD14A6
:103500001092DE141092DF1481E080936F0210920B
:10351000D4141092D5141092D6141092D71410927D
:10352000EC141092ED141092EE141092EF1410920D
:10353000F4141092F5141092F6141092F7141092DD
:10354000E0141092E1141092E2141092E3148093AC
:1035500070021092D8141092D9141092DA141092AA
:10356000DB141092F0141092F1141092F2141092D5
:10357000F3141092F8141092F9141092FA14109295
:10358000FB141092D1141092D0140C94CF290E94E5
:10359000F0AB8CE40E940930882319F081E080931D
:1035A000140282E50E940930882319F081E080939B
:1035B000130281E40E940930882311F40C94CF296E
:1035C00081E080931402809313020C94CF290E940F
:1035D000F0AB8CE40E94093081111092140282E554
:1035E0000E94093081111092130281E40E94093077
:1035F000882311F40C94CF29109214021092130214
:103600000C94CF290E94F0AB8CE40E940930811108
:103610001092AE0882E50E94093081111092AD0827
:1036200081E40E940930882311F40C94CF29109270
:10363000AD081092AE080C94CF298091140281112C
:1036400003C00DE813E04FC0809113028823C9F333
:1036500002EA13E0D8018D918D01882319F00E94B0
:10366000BE31F8CF8FE00E94F782892B19F000E578
:1036700014E00DC00DE314E0F80181918F0188235F
:1036800019F00E94BE31F8CF06EA13E008C0D80155
:103690008D918D018823C1F30E94BE31F8CFF801CE
:1036A00081918F01882319F00E94BE31F8CF82E00A
:1036B0000E94F782892B19F000E514E00BC00DE39E
:1036C00014E0D8018D918D01882309F4D1CE0E9498
:1036D000BE31F7CFF80181918F01882309F4C8CE5C
:1036E0000E94BE31F7CFD8018D918D01882311F44E
:1036F0000C94CF290E94BE31F6CF81E40E9409309C
:10370000882351F00E94D62F6093EA137093EB1335
:103710008093EC139093ED1382E40E940930882388
:1037200051F00E94D62F6093E6137093E7138093B5
:10373000E8139093E91383E40E940930882351F041
:103740000E94D62F6093E2137093E3138093E413E7
:103750009093E51384E40E940930882351F00E947D
:10376000D62F6093DE137093DF138093E013909352
:10377000E11382E50E940930882311F40C94CF29CB
:103780000BEA13E0F80181918F01882319F00E9460
:10379000BE31F8CF6091EA137091EB138091EC1376
:1037A0009091ED1342E00E94DD340EEA13E0D8015F
:1037B0008D918D01882319F00E94BE31F8CF609160
:1037C000E6137091E7138091E8139091E91342E0BA
:1037D0000E94DD3401EB13E0F80181918F01882311
:1037E00019F00E94BE31F8CF6091E2137091E3139B
:1037F0008091E4139091E51342E00E94DD3409E2E8
:1038000014E0D8018D918D01882319F00E94BE31FA
:10381000F8CF6091DE137091DF138091E0139091E7
:10382000E11342E00E94DD3404EA13E0F8018191E3
:103830008F01882309F41CCE0E94BE31F7CF85E4A6
:103840000E940930882329F01092C9091092C809F2
:103850000BC089E40E940930882331F081E090E0B8
:103860009093C9098093C80983E50E940930882391
:1038700031F081E090E09093CB098093CA0982E512
:103880000E940930882311F40C94CF291092CB099F
:103890001092CA090C94CF2985E50E940930811144
:1038A0000E948F6584E40E94093081110E94CE63DA
:1038B00087E50E940930882331F00E94D62F0E94AC
:1038C0005FDA6093620283E50E940930882331F059
:1038D0000E94D62F0E945FDA609361028FE40E94FB
:1038E0000930882341F00E94D62F0E945ADA709343
:1038F000600260935F028EE40E940930882351F0D9
:103900000E94D62F6093FE137093FF1380930014D0
:10391000909301148DE40E940930882351F00E9495
:10392000D62F6093F6137093F7138093F813909348
:10393000F91389E50E940930882351F00E94D62F9F
:103940006093F2137093F3138093F4139093F51331
:1039500088E50E940930882351F00E94D62F609399
:10396000EE137093EF138093F0139093F11382E4AE
:103970000E940930882351F00E94D62F6093FA13D9
:103980007093FB138093FC139093FD1380E50E94CA
:103990000930882331F00E94D62F0E945FDA6093AD
:1039A000540281E40E940930882359F00E94D62FE6
:1039B0000E945ADA70933A0260933902CB010E9456
:1039C000776384E50E940930882349F00E94D62F4E
:1039D0000E945FDA862F6093CC090E94506789E4C9
:1039E0000E940930882311F40C94CF298091CC09CE
:1039F0000E9450678091390290913A020E94776349
:103A00000C94CF29D8018D918D01882309F430CDF4
:103A10000E94BE31F7CF0E94034B0C94CF298091B6
:103A2000B509813011F00C94CF2982E08093B5095B
:103A30000E9489846093AD097093AE098093AF09A9
:103A40009093B0090C94CF290E94614B0C94CF291C
:103A500083E50E945030811103C0EEEDF2E009C011
:103A60000E94A62F6E347105C1F70E94D14B0C94B1
:103A7000CF2984918F010F5F1F4F882321F00E946F
:103A8000BE31F801F6CFE5EDF2E084918F010F5FD2
:103A90001F4F882321F00E94BE31F801F6CF6091BC
:103AA000B7097091B80980E090E04AE00E9458326E
:103AB000E8ECF2E084918F010F5F1F4F882321F023
:103AC0000E94BE31F801F6CF6091B9097091BA0930
:103AD00080E090E04AE00E945832EDEBF2E0849101
:103AE0008F010F5F1F4F882321F00E94BE31F80124
:103AF000F6CF6091B7097091B8098091B90990919A
:103B0000BA09681B790B8091B509815021E030E03A
:103B1000823010F020E030E0621B730B80E090E018
:103B20004AE00E9458328AE00E94BE31E5EBF2E0A2
:103B300084918F010F5F1F4F882321F00E94BE31B7
:103B4000F801F6CF8091BB099091BC09A091BD0905
:103B5000B091BE098E8B9F8BA88FB98FBE016F5F0E
:103B60007F4FCE0146960E945C30E8EAF2E08491F5
:103B70008F010F5F1F4F811105C0FE0131967F013C
:103B80008F0104C00E94BE31F801F1CFD8018D91A0
:103B90008D01882319F00E94BE31F8CF8091BF09B2
:103BA0009091C009A091C109B091C2098E8B9F8BE1
:103BB000A88FB98FBE016F5F7F4FCE0146960E94DE
:103BC0005C30E8E9F2E084918F010F5F1F4F88239A
:103BD00021F00E94BE31F801F6CFF70181917F01FB
:103BE000882319F00E94BE31F8CF8AE00E94BE31CE
:103BF000E0E9F2E084918F010F5F1F4F882321F0ED
:103C00000E94BE31F801F6CFE0E8F2E084918F0126
:103C10000F5F1F4F882321F00E94BE31F801F6CFBD
:103C200020E030E04AE754E46091C3097091C40990
:103C30008091C5099091C6090E94F2D942E00E9484
:103C4000DD348DE60E94BE318AE00E94BE310C94C4
:103C5000CF2988E690E00E94BE3281110C94CF29D2
:103C60008091B51483FF02C00C94CF2983E50E9494
:103C700050308823B1F00E94D62F0E945ADADC011E
:103C8000CB01609164130E941C310E94D62F20E06A
:103C900030E04AEA52E40E94ACD4181614F00E94B4
:103CA000614B0E94E14B0C94CF298EE40E9450306E
:103CB000882311F40C94CF290E94A62F6093D0156D
:103CC0007093D1158093D2159093D3150C94CF296E
:103CD00083E50E940930882359F083E50E94503023
:103CE000882319F00E94B62F01C080E08093B5149C
:103CF000E5EFF5E284918F010F5F1F4F882321F0DC
:103D00000E94BE31F801F6CFE6EFF2E084918F0118
:103D10000F5F1F4F882309F48ACB0E94BE31F80140
:103D2000F5CFBB24B394B20E222319F08CE20E948B
:103D3000BE31F60125913491F901849189010F5F1B
:103D40001F4F882321F00E94BE319801F5CF2B2D03
:103D500085CBE2EFF2E084918F010F5F1F4F882344
:103D600009F486CB0E94BE31F801F5CF0E945E793E
:103D70000C94CF2983E50E945030882369F00E947B
:103D8000B62F809312028D3310F40C94CF298CE35C
:103D9000809312020C94CF29E5EFF5E284918F0114
:103DA0000F5F1F4F882321F00E94BE31F801F6CF2C
:103DB0004091120250E060E070E08DEF92E00E94CE
:103DC000E6738AE00E94BE310C94CF2989E690E028
:103DD0000E94BE32811111C0E4E0F3E084918F01B2
:103DE0000F5F1F4F882321F00E94BE31F801F6CFEC
:103DF0000E94A3878AE00E94BE311092AC080C9406
:103E0000C22B83E50E945030882311F40C94CF29F3
:103E10000E94B62F182F8D3308F01CE31093BB08B7
:103E20000E9489846B017C01212F30E0A8EEB3E071
:103E30000E9406D9C60ED71EE81EF91EC092B7080A
:103E4000D092B808E092B908F092BA080C94CF2941
:103E50008DE690E00E94BE3281117BC18091B51445
:103E600083FD77C183E50E9450308CA3811105C08A
:103E700082E50E9450308823C9F00E94D62F0E940C
:103E80005ADADC01CB01609164130E941C310E945C
:103E9000D62F20E030E04AEA52E40E94ACD4181653
:103EA00014F40C94312A0E94614B81E08DA70E948A
:103EB000E14B8DA5882309F44CC181E08093000279
:103EC0001C8E1D8E1E8E1F8E1DA21EA21FA218A646
:103ED0001A8E19A65CE35AA78CE18BA796E49CA7DF
:103EE000412C512C40E8C42E5FEBD52E812C912C17
:103EF0005401E0906413F12CF701EE0FFF1FE05A1C
:103F0000FC4E60817181072E000C880B990B0E947A
:103F1000B2D4162F072F782E692E262F372F482F31
:103F2000592FB201C6010E94ACD48823E9F0F701F1
:103F3000EE0FFF1FEE0FFF1FE85AFC4E208131816C
:103F400042815381612F702F872D962D0E94ACD412
:103F5000881F8827881F8A8FACA1AA2349F088234D
:103F600039F080910002F5C0142D052D7C2C6D2CAC
:103F70000E9489846B017C01DC01CB012DA13EA153
:103F80004FA158A5821B930BA40BB50BB7FD3BC0EB
:103F9000D701C60188519C4FAF4FBF4F8DA39EA341
:103FA000AFA3B8A70E94A387E7E0F3E084912F01B5
:103FB0009FEF491A590A882321F00E94BE31F2016D
:103FC000F5CF81149104A104B104B9F0D501C40165
:103FD0008854944FAF4FBF4FBC01CD016C197D0980
:103FE0008E099F0928EE33E040E050E00E94B8D8E7
:103FF000CA01B9010E94FA3203C08FE30E94BE31A8
:104000008AE00E94BE310E941B3F0E948984609317
:10401000AF087093B0088093B1089093B208E09114
:104020006413A4E0EA9FF0011124E85AFC4EB08129
:10403000B8A3218129A332813AA343814BA32B2F1B
:1040400039A14AA15BA1612F702F872D962D0E9467
:1040500015D91B012C0120E030E0A9010E943CDBB6
:1040600087FF04C057FA509457F850948114910474
:10407000A104B10459F420E030E040E85FE3C2015C
:10408000B1010E94ACD487FF0DC00AC020E030E02F
:1040900040E450E4C201B1010E943CDB181614F464
:1040A000460157015A8D5523C1F18C8D9D8DAE8DE2
:1040B000BF8D892B8A2B8B2B61F0D701C6012C8DEC
:1040C0003D8D4E8D5F8D821B930BA40BB50BB7FD01
:1040D00024C028A139A14AA15BA169A57AA58BA515
:1040E0009CA50E9415D920E030E040EC5FE30E94DF
:1040F000ACD487FD36CFD701C601805A9541AF4F6A
:10410000BF4F8C8F9D8FAE8FBF8F98A199A7A9A10C
:10411000AAA7BAA1BBA7EBA1ECA7809100028823B4
:1041200009F41FCF81149104A104B10429F4412E94
:10413000502EC72CD62CDDCEF8EBCF1AFBE0DF0AD1
:10414000E108F108C818D908EA08FB08F7FE09CF0A
:10415000EECF0BED13E0D8018D918D01882319F07E
:104160000E94BE31F8CF84E50E94093081110AC057
:1041700083E50E940930882311F40C94CF2904EFC1
:1041800013E01CC002EF13E0F80181918F01882336
:1041900019F00E94BE31F8CF0E94A62F072E000C06
:1041A000880B990B0E94FA3204EA13E0D8018D9132
:1041B0008D018823E9F20E94BE31F8CFF801819188
:1041C0008F01882319F00E94BE31F8CF0E94A62FDC
:1041D000072E000C880B990B0E94FA328AE00E948D
:1041E000BE310C94CF298091B51483FF02C00C948A
:1041F000CF2983E50E945030882311F40C94CF29F5
:104200000E94D62F0E945ADA6738710514F067E8C9
:1042100070E070935713609356130E94EBB90C949F
:10422000CF298091B51483FD7EC083E50E94503074
:104230008CA3811106C082E50E945030882309F4C6
:1042400072C00E94D62F0E945ADA6738710514F0A6
:104250000C94272B70935713609356130E94EBB95D
:104260000E94D62F20E030E040EA50E40E943CDB80
:10427000181614F40E94034B81E080930002809191
:10428000B314809364131C8E1D8E1E8E1F8E1DA270
:104290001EA21FA218A61A8E19A6FCE3FAA72CE1EB
:1042A0002BA736E43CA7C12CD12C80E8E82E9FEB4D
:1042B000F92E812C912C5401609156137091571353
:1042C000072E000C880B990B0E94B2D4162F072FD3
:1042D000782E692E262F372F482F592FB601C70168
:1042E0000E94ACD4882311F40C94352A20915213E7
:1042F000309153134091541350915513612F702FE7
:10430000872D962D0E94ACD4881F8827881F8A8FFE
:104310004CA1442311F40C94392A882311F40C94F1
:10432000392A8091000206EF13E0D8018D918D01AA
:10433000882319F00E94BE31F8CF83E50E9409302E
:10434000882311F40C94CF2904EF13E0F801819134
:104350008F01882319F00E94BE31F8CF0E94A62F4A
:10436000072E000C880B990B0E94FA328AE00E94FB
:10437000BE310C94CF2980E50E945030811106C0D7
:1043800083E50E945030882361F006C00E94B62F5A
:1043900081110C94CF29F4CF0E94A62F6F3F710595
:1043A00010F06FEF70E070934E0960934D09F7C7FE
:1043B00080E50E945030811105C010924E09109284
:1043C0004D09EDC70E94A62F672B09F0E8C7F5CF6E
:1043D0000E9436BA0E945AAC10924E0910924D09B2
:1043E00068EE73E080E090E00E94D086D8C781E05C
:1043F00080936D05D4C783E50E945030882399F0DF
:104400000E94D62F20E030E04AE754E40E9411D504
:104410000E945FDA60931502709316028093170270
:1044200090931802BCC788E50E94093081110C9452
:104430002B2B89E50E94093081110C942B2B8AE5E6
:104440000E94093081110C942B2B85E40E940930C5
:1044500081110C942B2B0E945AACA1C783E50E94BA
:104460000930882309F49BC70E94D62F20E030E052
:104470004AE754E40E9411D50E945FDA6093B308C2
:104480007093B4088093B5089093B60888C714E871
:10449000C12E12E0D12E00E8E02E09E0F02E10E04F
:1044A000D6018D916D010E940930882309F46DC0F9
:1044B000133009F063C00E94D62F4B015C0120E04D
:1044C00030E040EA51E40E94ACD487FF4EC0A50121
:1044D000940160918C0970918D0980918E09909161
:1044E0008F090E94F2D92B013C019B01AC01609124
:1044F00021097091220980912309909124090E9439
:1045000011D5609321097093220980932309909318
:104510002409A301920160913D0970913E098091A7
:104520003F09909140090E9411D560933D09709315
:104530003E0980933F099093400960915C09709116
:104540005D0980915E0990915F090E94B0D4A3013A
:1045500092010E9411D50E945FDA60935C0970930A
:104560005D0980935E0990935F0980928C09909217
:104570008D09A0928E09B0928F0907C00E94D62F94
:10458000F70160837183828393831F5FF4E0EF0EF2
:10459000F11C143009F084CF0E94225C00C70E94F5
:1045A000F0AB83E50E945030882311F40C941A1765
:1045B0000E94A62F6230710511F00C941A170E9408
:1045C000D0488BE50E94BE316091940870919508A7
:1045D000809196089091970842E00E94DD344091C6
:1045E00098085091990860919A0870919B0882E10F
:1045F00093E00E94037440919C0850919D08609143
:104600009E0870919F088FE093E00E9403748DE5EF
:104610000E94BE318AE00E94BE31C1C684918F01E2
:104620000F5F1F4F882321F00E94BE31F801F6CFA3
:1046300060E084EE93E00E941D9761E08DED93E0D1
:104640000E941D9761E082ED93E00E941D9761E05A
:1046500082EC93E00E941D9760E089EB93E00E945A
:104660001D9761E08FEA93E00E941D9761E085EA63
:1046700093E00E941D9761E08DE993E00E941D97F1
:1046800061E08FE893E00E941D9760E081E893E08D
:104690000E941D9760E082E793E00E941D9760E012
:1046A00084E693E00E941D9760E08EE493E00E9410
:1046B0001D9761E08DE393E00E941D9760E088E222
:1046C00093E00E941D9761E085E193E00E941D97B1
:1046D00066C60091010A1091020A83E0D12C40E0E5
:1046E0008150E9F0D8019C91292F2B7F2134C1F70B
:1046F00011962C912133A1F7913421F0953421F4B6
:1047000041E002C0DD24D39498012E5F3F4F890120
:104710002F5F3F4FF80190819032C9F3E1CF4423DE
:1047200069F0E5EFF5E284917F012FEFE21AF20ADA
:10473000882321F00E94BE31F701F5CFDD2069F01A
:10474000ECEBF4E084917F013FEFE31AF30A882356
:1047500021F00E94BE31F701F5CFD8018D918D0176
:10476000882311F40C94381A0E94BE31F6CF40937E
:10477000A2144093A11413C688EC90E00E94BE32AC
:1047800081110DC684E40E940930882309F454C0C5
:104790000E94D62F11E020E030E0A9010E94ACD4A5
:1047A000811101C010E01093B614112309F444C024
:1047B0000E94D62FE0916413B4E0EB9FF001112426
:1047C000E154FB4E608371838283938320E030E069
:1047D000A9016091BF147091C0148091C11490918F
:1047E000C2140E94ACD481110CC080E090E0A0E41F
:1047F000B0E48093BF149093C014A093C114B093FD
:10480000C21420E030E0A9016091C3147091C41477
:104810008091C5149091C6140E94ACD481110CC033
:1048200080E090E0A0E4B0E48093C3149093C414BB
:10483000A093C514B093C6140E9498B1B0C5F801F6
:1048400081918F010E940930882351F00E94D62F58
:104850000E945FDAD7016D937D938D939C9313979C
:10486000B4E0EB0EF11CD012EACF0E94114C97C5B8
:10487000E1E3EE2EE9E0FE2E04E812E0F4E0DF2EA4
:10488000D00EF80181918F010E940930882341F0F8
:104890000E94D62FD7016D937D938D939C93139790
:1048A000B4E0EB0EF11CD012ECCF79C583E50E9489
:1048B00050308823A1F00E94D62F6093290970936D
:1048C0002A0980932B0990932C09609325097093F2
:1048D0002609809327099093280910E001C011E070
:1048E00080E50E945030882359F00E94D62F6093B3
:1048F000290970932A0980932B0990932C0910E0C1
:1049000082E50E945030882359F00E94D62F609390
:104910002D0970932E0980932F099093300910E090
:1049200084E50E945030882359F00E94D62F60936E
:1049300025097093260980932709909328092FC58C
:10494000112309F42CC54091290950912A0960913D
:104950002B0970912C0986EC94E00E94037440911D
:104960002D0950912E0960912F097091300983EC27
:1049700094E00E94037440912509509126096091AA
:1049800027097091280980EC94E00E9403748AE062
:104990000E94BE3104C581E50E940930882351F090
:1049A0000E94962F609341097093420980934309B6
:1049B0009093440983E50E940930882351F00E94B6
:1049C000D62F6093490970934A0980934B099093BD
:1049D0004C0984E50E940930882351F00E94D62FAB
:1049E000609345097093460980934709909348095D
:1049F00088E50E940930882351F00E94D62F6093E9
:104A0000150970931609809317099093180989E581
:104A10000E940930882351F00E94D62F6093190913
:104A200070931A0980931B0990931C098AE50E94D0
:104A300009308823F1F00E94D62F60931D097093EE
:104A40001E0980931F09909320092DEC3CEC4CEC3F
:104A50005DE30E94ACD4181664F0E6EDF4E08491B6
:104A60008F010F5F1F4F882321F00E94BE31F80194
:104A7000F6CF85E40E940930882309F490C40E948F
:104A8000D62F609321097093220980932309909374
:104A9000240985C489E40E9409308823C1F00DE00F
:104AA00014E0F80181918F01882319F00E94BE3132
:104AB000F8CF60918A1470918B1480918C1490912E
:104AC0008D1442E00E94DD348AE00E94BE3185E40C
:104AD0000E940930882351F00E94D62F60938A14D7
:104AE00070938B1480938C1490938D148AE50E949C
:104AF0000930882351F00E94D62F609302147093DE
:104B00000314809304149093051464E8C62E62E0A5
:104B1000D62E7DECE72E79E0F72E10E0D6018D91B0
:104B20006D010E940930882351F00E94D62FF701B1
:104B30006083718382839383812F0E94C8311F5FBA
:104B4000F4E0EF0EF11C133049F70C941A170E9491
:104B500047C6811124C452EC852E5AE0952E21EBD4
:104B600035E13B8F2A8FAE014F5F5F4F5A0100E561
:104B700014E21A0153E0500F5C8FF40165917591B6
:104B800085919491AA8DBB8DCD90DD90ED90FD9097
:104B9000BB8FAA8FA70196010E9415D92B013C015A
:104BA00020E030E040EA51EC0E943CDB87FD10C081
:104BB00020E030E040EA51E4C301B2010E94ACD4ED
:104BC000181634F0F10140825182628273820EC065
:104BD000F80184911816B4F7F7FAF094F7F8F09406
:104BE000D101CD92DD92ED92FC921397D101CD903F
:104BF000DD90ED90FD901D0120E030E040EA51ECA9
:104C0000C701B6010E943CDB87FF03C0EBEFF5E272
:104C10000BC020E030E040EA51E4C701B6010E9439
:104C2000ACD41816C4F4F2CF84918F010F5F1F4FDC
:104C3000882321F00E94BE31F801F6CFE8E0F5E0CC
:104C400084918F010F5F1F4F882309F4A8C30E942E
:104C5000BE31F801F5CFB4E08B0E911C0F5F1F4FF2
:104C6000EC8DE0138ACF4DECE42E49E0F42E10E0F9
:104C7000F50181919191A191B1915F01F70181932A
:104C80009193A193B1937F01812F0E94C8311F5F3F
:104C9000133071F70E94619782C3E5EFF5E28491CA
:104CA0008F010F5F1F4F882321F00E94BE31F80152
:104CB000F6CF83E50E940930882321F00E94C72F98
:104CC00080930F02EEE4F5E084918F010F5F1F4F98
:104CD000882321F00E94BE31F801F6CF80910F02A7
:104CE000811103C0EAE4F5E002C0E6E4F5E0849156
:104CF0008F010F5F1F4F882321F00E94BE31F80102
:104D0000F6CFEEE3F5E084918F010F5F1F4F88230C
:104D100021F00E94BE31F801F6CF20919514309118
:104D20009614409197145091981460914702709195
:104D300048028091490290914A020E9416D9AB0123
:104D4000BC018CE395E00E9403742091991430918A
:104D50009A1440919B1450919C1460914B02709155
:104D60004C0280914D0290914E020E9416D9AB01E7
:104D7000BC0189E395E00E94037420919D14309159
:104D80009E1440919F145091A01460914F02709115
:104D9000500280915102909152020E9416D9AB01AB
:104DA000BC0186E395E00E940374EEE2F5E0849195
:104DB0008F010F5F1F4F882321F00E94BE31F80141
:104DC000F6CF2091951430919614409197145091FC
:104DD000981460913B0270913C0280913D02909149
:104DE0003E020E9416D9AB01BC018CE295E00E9404
:104DF00003742091991430919A1440919B1450910E
:104E00009C1460913F027091400280914102909108
:104E100042020E9416D9AB01BC0189E295E00E94D2
:104E2000037420919D1430919E1440919F145091D1
:104E3000A0146091430270914402809145029091C8
:104E400046020E9416D9AB01BC0186E295E00E94A1
:104E500003748AE00E94BE31A2C28AED90E00E94F3
:104E6000BE3281119CC280916413882309F497C2D9
:104E70001FC483E50E945030882309F490C20E9429
:104E8000A62F709311026093100289C20E94A89607
:104E900086C20E94D48083C283E50E940930182F05
:104EA000882371F00E94D62F0E945ADA7093220252
:104EB0006093210221E0672B09F020E020934F0945
:104EC00080E50E940930882359F020912102309119
:104ED0002202232B11F00E94C72F80934F095FC23B
:104EE00011115DC2E5EFF5E284918F010F5F1F4F55
:104EF000882321F00E94BE31F801F6CF80914F093E
:104F0000811103C063E273E002C060E273E083E8F2
:104F100095E00E945574609121027091220282E70F
:104F200095E00E942074EEE6F5E084918F010F5F1A
:104F30001F4F882309F433C20E94BE31F801F5CF18
:104F40000E9498792CC280E50E940930882351F094
:104F50000E94D62F60931E1570931F158093201505
:104F60009093211589E40E940930882381F00E94E2
:104F7000D62F2CEA35EC47E25EE30E9411D5609310
:104F80001A1570931B1580931C1590931D1584E4BE
:104F90000E940930882381F00E94D62F2CEA35EC3C
:104FA00047E25EE30E94F2D96093161570931715DD
:104FB0008093181590931915E5EFF5E284918F0110
:104FC0000F5F1F4F882321F00E94BE31F801F6CFFA
:104FD00040911E1550911F1560912015709121155B
:104FE0008EE995E00E9403742CEA35EC47E25EE31B
:104FF00060911A1570911B1580911C1590911D15CB
:105000000E94F2D9AB01BC018AE995E00E940374C9
:105010002CEA35EC47E25EE36091161570911715A6
:1050200080911815909119150E9411D5AB01BC0102
:1050300086E995E00E9403748AE00E94BE31AFC108
:10504000EBEFF5E284918F010F5F1F4F882321F072
:105050000E94BE31F801F6CFE2EAF5E084918F01BB
:105060000F5F1F4F882309F49AC10E94BE31F801D7
:10507000F5CF0E94F0AB93C180E00E94F3370E940D
:1050800061978DC10E94EE768AC10E94685D87C1DA
:105090000E9482C384C10E94E37681C181E0809333
:1050A000AF150E946CBD1092AF15882309F477C12B
:1050B000E5EFF5E284918F010F5F1F4F882321F008
:1050C0000E94BE31F801F6CFE1EBF5E084918F014B
:1050D0000F5F1F4F882309F462C10E94BE31F8019F
:1050E000F5CF0E9472765BC181E080935E0283E51A
:1050F000D7D7882331F04BD7811151C10E940CC8FA
:105100004EC183E586D7F8CF0E94A0AB48C18091FD
:10511000B314809377050091030A1091040AF02ECE
:105120008091B51485FF14C0B801772786E096E01A
:105130000E94207489E20E94BE318AE00E94BE3142
:1051400041EB55E167EE75E082EF95E00E94D437C0
:105150008091B314F81651F083E5A2D7882311F09B
:1051600016D702C083E555D7F82E02C0FF24F3946A
:1051700086E496D7882311F019D703C060E070E069
:10518000CB0120E030E040E752E40E94F2D9AB01CD
:10519000BC012F2D802F0E947D748091B51485FF56
:1051A00014C041EB55E169EC75E083ED95E00E9498
:1051B000D437ECEBF5E084918F010F5F1F4F88230C
:1051C00021F00E94BE31F801F6CF0091030A11E0F0
:1051D00080917705081301C010E0C090B915D090F8
:1051E000BA15E090BB15F090BC158091CC098823CE
:1051F00009F46DC0013009F06AC0112309F467C0D9
:105200000E94F0AB20E030E040E450E4C701B6017A
:105210000E9416D94B015C016093AB147093AC14DF
:105220008093AD149093AE140E9439430E94F0AB6A
:105230000E94CE630E94898440905F025090600279
:10524000052C000C66087708DC01CB018419950950
:10525000A609B709B7FF03C00E941B3FEBCF4090E0
:105260008A1450908B1460908C1470908D14A3014C
:105270009201C501B4010E9416D92091D50930913F
:10528000D6094091D7095091D8090E9415D9609349
:10529000B9157093BA158093BB159093BC154092C5
:1052A000D5095092D6096092D7097092D8090E9408
:1052B00004390E946197C092AB14D092AC14E09272
:1052C000AD14F092AE140E9439430E94F0AB80916D
:1052D000CC09882309F463C0011161C0112309F4CA
:1052E0005EC00E94F0AB0E948F650E9489848B0192
:1052F0009C0180915F0290916002BC01990F880B24
:10530000990B061B170B280B390B37FF03C00E94A4
:105310001B3FEBCF0E9451848090021490900314A5
:10532000A0900414B09005142091D5093091D609AD
:105330004091D7095091D809C501B4010E9415D9EF
:105340009B01AC016091B9157091BA158091BB15A4
:105350009091BC150E9416D96093B9157093BA1537
:105360008093BB159093BC158092D5099092D60975
:10537000A092D709B092D8090E9404390E9461977F
:10538000C092AB14D092AC14E092AD14F092AE1473
:105390000E9439430E94F0AB02C00E94A0AB109261
:1053A000AC08E091CA0DF0E0E752F64F8081882307
:1053B00009F4E8C1E3E1F6E084918F010F5F1F4F2C
:1053C000882319F0DBD7F801F7CF8AE0D7D7DAC105
:1053D0000E94A78F0E943943E2CFC8D5E82E80E50E
:1053E0005FD6882309F43BC0C1D5182F87FDD7CFDE
:1053F00089E456D6882341F0CAD581110FC0EAE46A
:10540000F2E086E38E0F06C089E403D6F6CF31962C
:105410008E1721F094911913FACFB1C184E440D6CC
:1054200061E0882341F0812F0E944E836E2D812FF1
:105430000E941F83B4CF812F0E944E836E2D812F37
:105440000E941F83F12CB701812F0E948A8319309B
:1054500009F0A5CFF0924E09E0924D09A0CF1DE0D2
:10546000C7CF0E94034B0C94551F1C2D0D2D7E2C75
:105470006F2C0E9489846B017C01DC01CB012DA182
:105480003EA14FA158A5821B930BA40BB50BB7FDF2
:1054900038C0D701C60188519C4FAF4FBF4F8DA375
:1054A0009EA3AFA3B8A70E94A387EBE0F3E084918B
:1054B0002F019FEF491A590A882319F05FD7F2018B
:1054C000F6CF81149104A104B104B9F0D501C4014F
:1054D0008854944FAF4FBF4FBC01CD016C197D096B
:1054E0008E099F0928EE33E040E050E00E94B8D8D2
:1054F000CA01B9010E94FA3202C08FE33FD78AE0A5
:105500003DD70E941B3F0E9489846093AF0870932F
:10551000B0088093B1089093B208A0915213A8A349
:10552000B0915313B9A3E0915413EAA3F09155132A
:10553000FBA39D01AF01612F702F872D962D0E9437
:1055400015D91B012C0120E030E0A9010E943CDBB1
:1055500087FF04C057FA509457F85094811491046F
:10556000A104B10459F420E030E040E85FE3C20157
:10557000B1010E94ACD487FF0DC00AC020E030E02A
:1055800040E450E4C201B1010E943CDB181614F45F
:10559000460157012A8D2223D1F18C8D9D8DAE8D30
:1055A000BF8D892B8A2B8B2B61F0D701C6012C8DE7
:1055B0003D8D4E8D5F8D821B930BA40BB50BB7FDFC
:1055C00026C028A139A14AA15BA169A57AA58BA50E
:1055D0009CA50E9415D920E030E040EC5FE30E94DA
:1055E000ACD487FF02C00C949121D701C601805A28
:1055F0009541AF4FBF4F8C8F9D8FAE8FBF8F98A1BE
:1056000099A7A9A1AAA7BAA1BBA7EBA1ECA78091D2
:105610000002882311F40C94912181149104A104B7
:10562000B10431F4C12ED02EE72CF62C0C945C2161
:10563000F8EBCF1AFBE0DF0AE108F108C818D90837
:10564000EA08FB08F7FC02C00C949121EBCF67E855
:1056500070E00C942A210E94F0AB88E5DAD488230C
:1056600031F05F9A8091B4148E7F8093B41489E5F1
:10567000D0D4882331F08A9A8091B4148D7F80939E
:10568000B4148AE5C6D4882359F080910801809526
:105690008170809306018091B4148B7F8093B41441
:1056A00085E4B7D4882309F47ACE0E94A93E77CE48
:1056B00088E5F6D4882309F45AC00091641310E0F9
:1056C00075D4000F111F000F111FF801EE58FB4E8B
:1056D000608371838283938310E089E5E1D488231A
:1056E00081F00091641310E061D4000F111F000FCE
:1056F000111FF801E658FB4E608371838283938308
:105700004ECE112309F44BCEE5EFF5E284918F01E3
:105710000F5F1F4F882319F031D6F801F7CFEEE560
:10572000F5E084918F010F5F1F4F882319F026D673
:10573000F801F7CF02E714E180E220D6D8016D919D
:105740007D918D919D918D0142E00E94DD348CE22E
:1057500015D6F801648175818681978142E00E94A7
:10576000DD34F4E10A371F0739F70C94381A11E0D9
:10577000B4CF01110C940115EDD50C9415150E94B0
:105780007F9D0DCEAD960FB6F894DEBF0FBECDBF98
:10579000DF91CF911F910F91FF90EF90DF90CF900D
:1057A000BF90AF909F908F907F906F905F904F9041
:1057B0003F902F9008958F929F92AF92BF92CF9279
:1057C000DF92EF92FF920F931F93CF93DF93D82F27
:1057D000C62F882329F08630B9F513E084E002C093
:1057E00011E080E09FEF9C0F953028F5D0E02197E5
:1057F00005E0FE01089FE00DF11D1124EE0FFF1FD3
:10580000EE0FFF1FE25FFB4E608171818281938109
:105810009B01AC010E9416D9019FC00DD11D11241E
:10582000CC0FDD1FCC0FDD1FC25FDB4E288139811D
:105830004A815B813EC06C2F8F5FBDDF6B017C01B5
:105840006C2F81E0810F40C0662331F0663009F093
:1058500047C013E064E002C011E060E08FEF8D0FFD
:10586000853050F58D2F90E0019725E0289FE001CD
:10587000299FD00D1124FE01E60FF11DEE0FFF1F31
:10588000EE0FFF1FE25FFB4E608171818281938189
:105890009B01AC010E9416D9FE01E10FF11DEE0F34
:1058A000FF1FEE0FFF1FE25FFB4E2081318142811F
:1058B00053810E9415D928C06F5F8D2F7CDF6B014B
:1058C0007C0161E0610F8D2F76DF4B015C01A70148
:1058D0009601C701B6010E9416D9A5019401E9CF2E
:1058E00090E0019725E0289FF001299FF00D1124F9
:1058F000E60FF11DEE0FFF1FEE0FFF1FE65FFB4EE1
:105900006081718182819381DF91CF911F910F918D
:10591000FF90EF90DF90CF90BF90AF909F908F90CF
:1059200008952DE0829FC0011124FC01E60FF11DB6
:10593000EE0FFF1FEE0FFF1FE051FA4F60817181E4
:1059400082819381089525E0829FC0011124FC018A
:10595000E60FF11DEE0FFF1FEE0FFF1FE25FFB4E84
:105960006081718182819381089580910D1790915A
:105970000E17891759F0E92FF0E0E357F94E8081AF
:105980009F5F9F7790930E1790E008958FEF9FEFA2
:1059900008958F929F92AF92BF92CF92DF92EF9233
:1059A0000F931F93CF93DF93CDB7DEB764970FB6F6
:1059B000F894DEBF0FBECDBFE090B314E1EBF5E18C
:1059C00084859585A685B7854085518562857385D3
:1059D000048115812681378180809180A280B380E7
:1059E00089829A82AB82BC820D831E832F83388783
:1059F00049875A876B877C878D879E87AF87B88B4F
:105A0000198A1A8A1B8A1C8A9E01235F3F4FAE01A6
:105A1000475F5F4FBE016B5F7F4FCE0101960E94D3
:105A2000F1ACCE0141966C0107E612E09E01235FC6
:105A30003F4FAE01475F5F4FBE016B5F7F4F4097A7
:105A40000E947B4C64960FB6F894DEBF0FBECDBFAC
:105A5000DF91CF911F910F91EF90DF90CF90BF908A
:105A6000AF909F908F900895FF920F931F93CF93C5
:105A7000DF93FC0120812B3319F1D091CB0DDA306B
:105A8000F8F4F62EBC01C091C70D0C2F10E0F0E623
:105A9000CF9FC00111248A5F954F0E9435DCF80129
:105AA000E752F64FF082CF5FCA3018F4C093C70DAB
:105AB00002C01092C70DDF5FD093CB0D81E001C013
:105AC00080E0DF91CF911F910F91FF9008952F9269
:105AD0003F924F925F926F927F928F929F92AF927E
