:100000000C9476120C94A7120C94A7120C94A712BD
:100010000C94A7120C94A7120C94A7120C94A7127C
:100020000C94A7120C94A7120C94A7120C94A7126C
:100030000C94A7120C94A7120C94A7120C94A7125C
:100040000C94A7120C94706A0C94A7120C94A7122B
:100050000C94A7120C94A7120C94095A0C94AA564B
:100060000C94A7120C94D9380C94A7120C94A712D4
:100070000C94A7120C94A7120C94A7120C94A7121C
:100080000C94A7120C94A7120C94A7120C94A7120C
:100090000C94A7120C94A7120C94A7120C94A712FC
:1000A0000C94A7120C94A7120C94A7120C94A712EC
:1000B0000C94A7120C94A7120C94A7120C94A712DC
:1000C0000C94A7120C94A7120C94A7120C94A712CC
:1000D0000C94A7120C94A7120C94A7120C94A712BC
:1000E0000C94A7120F3916392A39373941395B393F
:1000F00046395B394B3950395B395839F954FC541E
:10010000EB54EF54F5543355005504550A550E552C
:10011000125518551C552055335526552A552E5520
:10012000C655CB55D055DA55E4555D56EE55F655C6
:10013000FE55085612561C562B5635565D563F56E0
:1001400049565356B55ABA5AE45AE95AC95AD55A71
:100150009F5A084AD73B3BCE016E84BCBFFDC12FDE
:100160003D6C74319ABD56833DDA3D00C77F11BEA8
:10017000D9E4BB4C3E916BAAAABE000000803F05AB
:10018000A84CCDB2D44EB93836A9020C50B99186DC
:1001900088083CA6AAAA2ABE000000803F004E4163
:1001A0004E494E495459494E46CDCCCC3D0AD723F1
:1001B0003C17B7D13877CC2B329595E6241FB14F39
:1001C0000A000020410000C84200401C4620BCBE7E
:1001D0004CCA1B0E5AAEC59D743C3C3C2067636FF5
:1001E00064655F4732380A00203A203E2028686F55
:1001F0006D655F616C6C207C7C20686F6D655A2931
:10020000203E2066696E616C0A0020206375727260
:10021000656E745F706F736974696F6E3D00203A2C
:10022000203E20686F6D65580A0020206375727249
:10023000656E745F706F736974696F6E3D00203A0C
:10024000203E20686F6D65590A0020206375727228
:10025000656E745F706F736974696F6E3D00526193
:10026000697365205A20286265666F726520686F21
:100270006D696E672920746F20003E20656E64737F
:10028000746F70732E656E61626C6528747275652B
:10029000290A003E3E3E2067636F64655F4732383F
:1002A0000A00205A3A200020593A20004265642072
:1002B000583A20004D65736820706F696E74206332
:1002C000616E6E6F74206265207265736F6C766507
:1002D000640A005072696E742074696D653A20007A
:1002E00050726F7465637465642050696E0A0020F3
:1002F000573A002F2F20007A5F6D696E3A200079FF
:100300005F6D696E3A2000785F6D696E3A20005229
:1003100065706F7274696E6720656E6473746F7058
:10032000207374617475730A00000136372603FF69
:100330003C3D380EFF2E303E12FFFF0C0809FFFF38
:10034000FF1A1C18FFFF24221EFFFF08440AFF4368
:1003500007FF45FFFFFFFFFFFF20643A0020693AD7
:100360000020703A0020653A0020643A0020693A83
:100370000020703A0043290A0061626C65642028FD
:100380006D696E2074656D702000436F6C6420652C
:10039000787472756465732061726520004B642007
:1003A0000023646566696E65202044454641554CCE
:1003B000545F004B69200023646566696E652020E8
:1003C00044454641554C545F004B70200023646502
:1003D00066696E65202044454641554C545F005087
:1003E0004944204175746F74756E652066696E6945
:1003F00073686564212050757420746865206C6191
:100400007374204B702C204B6920616E64204B6408
:1004100020636F6E7374616E74732066726F6D20EB
:1004200062656C6F7720696E746F20436F6E6669CA
:100430006775726174696F6E2E680A0050494420B6
:100440004175746F74756E65206661696C656421B1
:100450002074696D656F75740A00504944204175B8
:10046000746F74756E65206661696C6564212054D3
:10047000656D706572617475726520746F6F206848
:100480006967680A00204B643A2000204B693A20D3
:1004900000204B703A20000A20436C61737369633B
:1004A00020504944200A002054753A2000204B7502
:1004B0003A2000206D61783A2000206D696E3A2064
:1004C0000020643A200020626961733A20004F6680
:1004D000660A0046616465204865696768742000A3
:1004E000426564204C6576656C696E6720004661E4
:1004F000696C656420746F20656E61626C65204272
:100500006564204C6576656C696E670A004D65739D
:100510006820706F696E742063616E6E6F74206204
:1005200065207265736F6C7665640A004D343231F4
:1005300020696E636F727265637420706172616DA1
:10054000657465722075736167650A00546F6F206A
:100550006661722066726F6D207265666572656E87
:10056000636520706F696E740A003A20007A5F6DCF
:10057000696E3A20202D3230207A5F6D61783A2002
:10058000203230005A204F666673657420004E6F2B
:100590002063617365206C696768740A003C3C3CA9
:1005A0002067636F64655F540A00203A2041465417
:1005B00045520A00202063757272656E745F706F19
:1005C000736974696F6E3D00203A204245464F5270
:1005D000450A00202063757272656E745F706F73D8
:1005E0006974696F6E3D003E3E3E2067636F6465CF
:1005F0005F542800556E6B6E6F776E20636F6D6D64
:10060000616E643A2022004B494C4C45442E200038
:100610002569730025696D202569730025696820A7
:1006200025696D2025697300256964202569682086
:1006300025696D2025697300256979202569642065
:100640002569682025696D20256973002C20002C00
:100650002000203A2073796E635F706C616E5F706A
:100660006F736974696F6E0A00202063757272651A
:100670006E745F706F736974696F6E3D00656E7143
:1006800075657565696E672022004E6F204C696E36
:1006900065204E756D6265722077697468206368A5
:1006A00065636B73756D2C204C617374204C696E9F
:1006B000653A20005072696E7465722073746F70B1
:1006C0007065642064756520746F206572726F7246
:1006D000732E2046697820746865206572726F7287
:1006E00020616E6420757365204D39393920746F2F
:1006F00020726573746172742E202854656D706564
:100700007261747572652069732072657365742EE9
:100710002053657420697420616674657220726567
:100720007374617274696E67290A004E6F204368A2
:1007300065636B73756D2077697468206C696E658D
:10074000206E756D6265722C204C617374204C694B
:100750006E653A2000636865636B73756D206D6923
:10076000736D617463682C204C617374204C696EE6
:10077000653A20004C696E65204E756D6265722089
:100780006973206E6F74204C617374204C696E65C0
:10079000204E756D6265722B312C204C6173742074
:1007A0004C696E653A20004D3131300020496E763B
:1007B000616C6964206578747275646572200000EC
:1007C00000000000000000000040C0000066430080
:1007D000808943000052430A20736F66745F656E20
:1007E0006473746F705F6D6178203D20000A207320
:1007F0006F66745F656E6473746F705F6D696E2091
:100800003D20000A20706F736974696F6E5F7368B2
:10081000696674203D200020617869733A0A206877
:100820006F6D655F6F6666736574203D2000466F6F
:100830007220003C3C3C20646F5F626C6F636B69AC
:100840006E675F6D6F76655F746F0A003E3E3E2097
:10085000646F5F626C6F636B696E675F6D6F766507
:100860005F746F00203A2073657475705F666F72F5
:100870005F656E6473746F705F6F725F70726F62CA
:10088000655F6D6F76650A00202063757272656E14
:10089000745F706F736974696F6E3D00203A2063F6
:1008A0006C65616E5F75705F61667465725F656EC1
:1008B0006473746F705F6F725F70726F62655F6D8B
:1008C0006F76650A00202063757272656E745F70C2
:1008D0006F736974696F6E3D006465706C6F793A0F
:1008E0002000203A207365745F70726F62655F64E8
:1008F00065706C6F7965640A00202063757272659B
:100900006E745F706F736974696F6E3D00726573AA
:1009100065745F6265645F6C6576656C0A002028AB
:10092000646F6E65290A004578747261706F6C613E
:100930007465205B0042696C696E656172204C656C
:1009400076656C696E6720477269643A0A00537570
:1009500062646976696465642077697468204341DC
:10096000544D554C4C20524F4D204C6576656C696A
:100970006E6720477269643A0A004C4556454C49F7
:100980004E4700434F4D4D554E49434154494F4EFC
:100990000044525952554E004552524F525300494D
:1009A0004E464F004543484F002040002042403A09
:1009B0000020403A006F6B0020573A00A4099F09BD
:1009C0009809910983097A096F6666004445425582
:1009D000473A004D313133205300205A3A0020422B
:1009E0003A0020436F756E7420413A0020453A006A
:1009F000205A3A0020593A00583A004361703A456B
:100A00004D455247454E43595F5041525345523A26
:100A1000310A004361703A434153455F4C494748AE
:100A2000545F4252494748544E4553533A300A00A6
:100A30004361703A544F47474C455F4C49474854CF
:100A4000533A300A004361703A534F46545741526B
:100A5000455F504F5745523A300A004361703A4C57
:100A60004556454C494E475F444154413A310A008E
:100A70004361703A5A5F50524F42453A310A00433F
:100A800061703A4155544F4C4556454C3A310A0035
:100A90004361703A5052494E545F4A4F423A310ACC
:100AA000004361703A50524F47524553533A300A0F
:100AB000004361703A4155544F5245504F52545F74
:100AC00054454D503A310A004361703A4545505201
:100AD0004F4D3A310A004649524D574152455F4EFB
:100AE000414D453A4D61726C696E20312E312E3484
:100AF0002E362E3120284769746875622920534F9D
:100B0000555243455F434F44455F55524C3A6874D4
:100B10007470733A2F2F6769746875622E636F6DF6
:100B20002F4D61726C696E4669726D776172652FC7
:100B30004D61726C696E2050524F544F434F4C5F61
:100B400056455253494F4E3A312E30204D4143487D
:100B5000494E455F545950453A3344205072696EAE
:100B60007465722045585452554445525F434F5561
:100B70004E543A3220555549443A636564653261B2
:100B800032662D343161322D343734382D396231AB
:100B9000322D6335356336326633363766660A0082
:100BA00053657474696E672054726176656C204178
:100BB0006363656C65726174696F6E3A200053659A
:100BC0007474696E67205265747261637420416346
:100BD00063656C65726174696F6E3A200053657469
:100BE00074696E67205072696E7420416363656C2E
:100BF00065726174696F6E3A200053657474696E32
:100C000067205072696E7420616E64205472617640
:100C1000656C20416363656C65726174696F6E3ADF
:100C20002000205A00205900580020204D61783AB9
:100C30002000205A00205900580020204D696E3AAB
:100C400020004F6E20004F666600536F667420656B
:100C50006E6473746F70733A2000486F74656E64CD
:100C6000206F6666736574733A003C3C3C20646F89
:100C70005F686F6D696E675F6D6F766528002C2009
:100C8000002C20003E3E3E20646F5F686F6D696EF1
:100C9000675F6D6F7665280047322F4733206261AA
:100CA0006420706172616D65746572730A004142FF
:100CB0004C2041646A7573746D656E74205A00200F
:100CC00028656E61626C6564290A00202864697376
:100CD00061626C6564290A0042494C494E454152A3
:100CE000004175746F20426564204C6576656C69BF
:100CF0006E673A2000204E6F7A7A6C65290A0020D0
:100D0000262041626F76650020262053616D6520A4
:100D10005A2061730020262042656C6F77002D42B7
:100D200061636B002028526967687400205A3A009A
:100D300020593A0050726F6265204F666673657481
:100D400020583A004649585F4D4F554E5445445F30
:100D500050524F42450A0050726F62653A2000437C
:100D60006F72650A004D616368696E652054797021
:100D7000653A200020706F736974696F6E206F751B
:100D800074206F662072616E67652E0A003F507294
:100D90006F626520003C3C3C2067636F64655F4781
:100DA00032390A0020636F72726563746564205A79
:100DB0003A0047323920756E636F727265637465ED
:100DC00064205A3A00203A203E2070726F62696EA9
:100DD0006720636F6D706C6574650A002020637511
:100DE0007272656E745F706F736974696F6E3D00C7
:100DF00052756E6E696E6720696E204452592D528D
:100E0000554E206D6F64650A004732392041757474
:100E10006F20426564204C6576656C696E670A00D8
:100E200028422961636B00284629726F6E7400287E
:100E300052296967687400284C29656674003F2848
:100E400056296572626F7365206C6576656C2069E2
:100E50007320696D706C61757369626C65202830F0
:100E60002D34292E0A00426164205A2076616C7567
:100E7000650A004E6F2062696C696E656172206759
:100E80007269640A00203A203E3E3E2067636F6428
:100E9000655F4732390A00202063757272656E748F
:100EA0005F706F736974696F6E3D006265640A00FC
:100EB0002C2073797374656D2073746F7070656422
:100EC00021204865617465725F49443A2000486595
:100ED0006174696E67206661696C6564004865616C
:100EE00074696E67206661696C6564004865617449
:100EF000696E67206661696C656400486561746944
:100F00006E67206661696C65640070012C01900158
:100F10002701B0012201C0011D01F00118011002DA
:100F2000130130020E016002090190020401C002A7
:100F3000FF000003FA004003F5008003F000D00337
:100F4000EB002004E6007004E100E004DC00400552
:100F5000D700C005D2004006CD00D006C8008007EB
:100F6000C3003008BE00F008B900C009B400B00AE0
:100F7000AF00B00BAA00D00CA500000EA000500FCF
:100F80009B00C01096005012910000148C00C015F8
:100F90008700B0178200B0197D00D01B7800001EBA
:100FA000730040206E0090226900F0246400402706
:100FB0005F0090295A00E02B5500102E5000203081
:100FC0004B0010324600E033410090353C001037B2
:100FD000370070383200A0392D00B03A2800A03B0D
:100FE0002300603C1E00103D1900903D1400103E8F
:100FF0000F00703E0A00C03E0500003F0000403F69
:10100000FBFF803FF6FFC03FF1FF4572723A204D73
:10101000494E54454D5020424544004572723A2095
:101020004D494E54454D50004D494E54454D50206C
:10103000747269676765726564004572723A204D23
:10104000415854454D5020424544004572723A2063
:101050004D415854454D50004D415854454D502038
:10106000747269676765726564000000210024007E
:1010700027002A002D003000330001010000040188
:1010800007010A0100002200250028002B002E0085
:101090003100340002010000050108010B01416329
:1010A000746976652045787472756465723A2000BB
:1010B000203A204D6F7665206261636B0A00202024
:1010C00064657374696E6174696F6E3D00203A20C7
:1010D00053796E6320416674657220546F6F6C6340
:1010E00068616E67650A00202063757272656E74B0
:1010F0005F706F736974696F6E3D00207D0A002C0C
:1011000020004F666673657420546F6F6C205859C9
:10111000206279207B20004E6F206D6F7665206FF6
:101120006E20746F6F6C6368616E67650A0045724C
:10113000726F722077726974696E6720746F2045D0
:101140004550524F4D210A00290A002062797465EA
:10115000733B20637263200053657474696E677318
:101160002053746F726564202800202863616C63CB
:10117000756C6174656429210A0020213D200045B9
:101180004550524F4D20435243206D69736D617439
:101190006368202D202873746F72656429200029EC
:1011A0000A002062797465733B206372632000201B
:1011B00073746F7265642073657474696E677320ED
:1011C000726574726965766564202800204D6172CD
:1011D0006C696E3D563339290A0028454550524FF7
:1011E0004D3D00454550524F4D2076657273696FF5
:1011F0006E206D69736D61746368200024F4D430CF
:1012000050C38E20C2A24017828B7011127A910DAA
:10121000816CD90AA861E108C75866076151430685
:101220001E4B5D05C145A7041A411104093D9803F1
:10123000713931034036DB0265339102D4305402F8
:10124000802E1D02632CEE01752AC501B028A00175
:10125000102781018F2564012B244B01E0223401EA
:10126000AC211F018D200D01801FFC00841EED00AC
:10127000971DDF00B81CD200E61BC600201BBC0077
:10128000641AB200B219A8000A19A0006A189900DD
:10129000D117910040178B00B516840031167E00DF
:1012A000B31579003A157300C7146F0058146A001B
:1012B000EE1366008813630025135E00C7125B00FF
:1012C0006C12570015125400C111510070114F00DB
:1012D00021114B00D61049008D10470046104400E4
:1012E00002104200C00F4000800F3E00420F3C0041
:1012F000060F3B00CB0E3800930E37005C0E350016
:10130000270E3400F30D3200C10D3100900D300076
:10131000600D2E00320D2D00050D2C00D90C2B0078
:10132000AE0C2900850C29005C0C2700350C270029
:101330000E0C2600E80B2400C40B2400A00B230095
:101340007D0B23005A0B2100390B2100180B2000C4
:10135000F80A1F00D90A1E00BB0A1E009D0A1D00C4
:10136000800A1D00630A1C00470A1B002C0A1B0090
:10137000110A1A00F7091A00DD091900C409190039
:10138000AB091900920917007B09180063091700BF
:101390004C09160036091600200916000A09150026
:1013A000F5081500E0081400CC081400B808140073
:1013B000A4081400900813007D0812006B081300A5
:1013C00058081200460812003408110023081100C2
:1013D0001208110001081100F0071000E0071000CA
:1013E000D0071000C0071000B0070F00A1071000C1
:1013F00091070E0083070F0074070F0065070E00AA
:1014000057070E0049070E003B070D002E070E0080
:1014100020070D0013070D0006070D00F9060C004C
:10142000ED060D00E0060C00D4060C00C8060C000A
:10143000BC060C00B0060C00A4060B0099060C00BC
:101440008D060B0082060B0077060B006C060B0066
:1014500061060A0057060B004C060A0042060A0005
:1014600038060A002E060A0024060A001A060A0098
:101470001006090007060A00FD050900F405090029
:10148000EB050900E2050900D9050900D0050900AE
:10149000C7050900BE050900B5050800AD0508002F
:1014A000A50509009C050800940508008C050800A6
:1014B000840508007C050800740508006C05070019
:1014C000650508005D050700560508004E05070084
:1014D00047050700400508003805070031050700EB
:1014E0002A050700230507001C050600160507004E
:1014F0000F0507000805060002050700FB040600AB
:10150000F5040700EE040600E8040600E204070004
:10151000DB040600D5040600CF040600C90406005B
:10152000C3040600BD040600B7040600B1040500AC
:10153000AC040600A6040600A00405009B040600F7
:1015400095040500900406008A0405008504050042
:10155000800406007A040500750405007004050087
:101560006B04050066040500610405005C040500C9
:1015700057040500520405004D0405004804050009
:10158000430405003E0404003A0405003504050048
:10159000300404002C040500270404002304050083
:1015A0001E0404001A0404001604050011040400BB
:1015B0000D040400090405000404040000040400F0
:1015C000FC030400F8030400F4030400F003040027
:1015D000EC030400E8030400E4030400E003040057
:1015E000DC030400D8030400D4030400D003040087
:1015F000CC030400C8030300C503030024F404D98A
:10160000201BC40C5C0E9804C4095F0265077101BD
:10161000F405F900FB04B30048048700C103690026
:101620005803550003034500BE023A00840231000E
:1016300053022A002902250004022000E4011C00B4
:10164000C8011900AF0117009801140084011300AC
:10165000710110006101100051010E0043010D00E5
:1016600036010B002B010B0020010B0015010900B6
:101670000C01090003010800FB000800F30008004A
:10168000EB000700E4000600DE000600D8000600BC
:10169000D2000600CC000500C7000500C20005000E
:1016A000BD000400B9000400B5000400B10004004E
:1016B000AD000400A9000400A5000300A20003007F
:1016C0009F0004009B0003009800030095000200A7
:1016D00093000300900003008D0002008B000300C4
:1016E00088000200860002008400030081000200DE
:1016F0007F0002007D0002007B00020079000200F2
:101700007700010076000200740002007200010000
:10171000710002006F0002006D0001006C00020009
:101720006A00010069000200670001006600010014
:101730006500010064000200620001006100010018
:10174000600001005F0002005D0001005C0001001C
:101750005B0001005A00010059000100580001001F
:10176000570001005600010055000100540001001F
:10177000530000005300010052000100510001001D
:10178000500001004F0001004E0000004E0001001B
:101790004D0001004C0001004B0000004B00010017
:1017A0004A00010049000100480000004800010013
:1017B000470001004600000046000100450000000F
:1017C0004500010044000100430000004300010007
:1017D0004200000042000100410000004100010001
:1017E000400001003F0000003F0001003E000000FB
:1017F0003E0001003D0000003D0001003C000000F3
:101800003C0000003C0001003B0000003B000100E8
:101810003A0000003A0001003900000039000100E0
:1018200038000000380000003800010037000000D8
:1018300037000100360000003600000036000100CD
:1018400035000000350000003500010034000000C4
:1018500034000000340001003300000033000000B9
:1018600033000100320000003200000032000100AD
:1018700031000000310000003100010030000000A4
:1018800030000000300001002F0000002F00000099
:101890002F0000002F0001002E0000002E0000008D
:1018A0002E0001002D0000002D0000002D00000082
:1018B0002D0001002C0000002C0000002C00000076
:1018C0002C0001002B0000002B0000002B0000006A
:1018D0002B0001002A0000002A0000002A0000005E
:1018E0002A00010029000000290000002900000052
:1018F0002900000029000100280000002800000045
:101900002800000028000000280001002700000037
:10191000270000002700000027000000270001002A
:10192000260000002600000026000000260000001F
:101930002600010025000000250000002500000011
:101940002500000025000000250001002400000003
:1019500024000000240000002400000024000100F6
:1019600023000000230000002300000023000000EB
:1019700023000000230000002300010022000000DB
:1019800022000000220000002200000022000000CF
:1019900022000100210000002100000021000000C1
:1019A00021000000210000002100000021000100B2
:1019B00020000000200000002000000020000000A7
:1019C0002000000020000000200000002000010096
:1019D0001F0000001F0000001F0000001F0000008B
:1019E0001F0000001F0000001F0001001E0000007B
:1019F0001E0000001E0000001E000000000020006D
:101A00002300260029002C002F00320000010000D6
:101A10000301060109010505050507050808080871
:101A2000020202020A0A0808040404040101010176
:101A30000101010103030303030303030407070771
:101A40000C0C0C0C0C0C0C0C020202020606060616
:101A5000060606060B0B0B0B0B0B0B0B01021020E3
:101A600020080810204010204080020102010804D4
:101A70000201010204081020408080402010080468
:101A800002018004020180402010080402010804C1
:101A90000201010204081020408001020408102005
:101AA000408000000A0B02090C0D0E080703040118
:101AB0000000000000000000000000000000000026
:101AC00000000000000000000000000000001211F3
:101AD00010000000000000000000000000000000F6
:101AE00000000000000000004B494C4C45442E20F3
:101AF00000202D20496E76616C69642065787472CF
:101B000075646572206E756D62657220210A0045EC
:101B100072726F723A002020506C616E6E65724274
:101B2000756666657242797465733A200020467264
:101B30006565204D656D6F72793A2000436F6D7059
:101B4000696C65643A20466562203131203230315B
:101B5000390A00207C20417574686F723A20286E23
:101B60006F6E652C2064656661756C7420636F6EA2
:101B7000666967290A00323031372D30372D30340D
:101B80002031323A303000204C617374205570643B
:101B9000617465643A2000312E312E342E362E3198
:101BA0000A004D61726C696E0020536F6674776134
:101BB00072652052657365740A002057617463680A
:101BC000646F672052657365740A002042726F77F4
:101BD0006E206F75742052657365740A0020457815
:101BE0007465726E616C2052657365740A00506F83
:101BF00077657255700A0073746172740A00205A16
:101C00003A0020593A0020583A00656E6473746FA8
:101C10007073206869743A20000000A0400000A0A2
:101C200040000000402044697363726570616E6318
:101C3000793A00326E642050726F6265205A3A0021
:101C4000203A203C3C3C2072756E5F7A5F70726F68
:101C500062650A00202063757272656E745F706F32
:101C6000736974696F6E3D003173742050726F62D6
:101C700065205A3A00203A203E3E3E2072756E5F43
:101C80007A5F70726F62650A0020206375727265F8
:101C90006E745F706F736974696F6E3D003C3C3C9D
:101CA0002070726F62655F70740A00205A3A2000DB
:101CB00020593A200042656420583A2000203A20FA
:101CC0000A00202063757272656E745F706F7369AD
:101CD00074696F6E3D0073746F77290A002C2000C1
:101CE0002C20003E3E3E2070726F62655F7074284B
:101CF00000526573656E643A20006F6B0020746F4C
:101D00006F206C6F6E6720657874727573696F6E83
:101D10002070726576656E7465640A0020636F6C6E
:101D20006420657874727573696F6E207072657661
:101D3000656E7465640A00627573793A2070617526
:101D400073656420666F7220696E7075740A006234
:101D50007573793A2070617573656420666F7220BF
:101D6000757365720A00627573793A2070726F63D9
:101D7000657373696E670A004B494C4C45442E20CD
:101D8000004B494C4C206361757365642062792077
:101D9000746F6F206D75636820696E616374697616
:101DA000652074696D65202D2063757272656E748F
:101DB00020636F6D6D616E643A200020746F6F2038
:101DC0006C6F6E6720657874727573696F6E2070C2
:101DD000726576656E7465640A0020636F6C6420BA
:101DE000657874727573696F6E2070726576656E52
:101DF0007465640A005374616E64617264204465A2
:101E000076696174696F6E3A20002052616E676571
:101E10003A2000204D61783A2000204D696E3A202A
:101E2000004D65616E3A200046696E6973686564AD
:101E300021002072616E67653A2000206D61783A5A
:101E40002000206D696E3A2000207369676D613A49
:101E50002000206D65616E3A20003A207A3A200019
:101E6000206F662000205A00205900205800476F3C
:101E7000696E6720746F3A00436C6F636B776973A8
:101E8000650A00436F756E7465722D002044697297
:101E9000656374696F6E3A2000202020616E676C64
:101EA000653A20005374617274696E6720726164D0
:101EB0006975733A2000506F736974696F6E696E4B
:101EC00067207468652070726F62652E2E2E0A007E
:101ED0003F4E756D626572206F66206C656773207A
:101EE000696E206D6F76656D656E74206E6F7420FF
:101EF000706C61757369626C652028302D313529ED
:101F00002E0A00590058003F53616D706C652073B4
:101F1000697A65206E6F7420706C61757369626C8C
:101F2000652028342D3530292E0A004D3438205AAA
:101F30002D50726F626520526570656174616269CF
:101F40006C69747920546573740A003F28562965BA
:101F500072626F7365206C6576656C2069732069A9
:101F60006D706C61757369626C652028302D342941
:101F70002E0A006D0046696C616D656E7420757384
:101F800065643A200053746174733A20002C204C2D
:101F90006F6E67657374206A6F623A2000546F74C5
:101FA000616C2074696D653A200053746174733AF2
:101FB00020002C204661696C65643A20002C204684
:101FC000696E69736865643A20005072696E747353
:101FD0003A200053746174733A2000202F00486146
:101FE0007264636F6465642044656661756C742017
:101FF00053657474696E6773204C6F616465640A1D
:1020000000FA000000FA00000032000000DC0500C9
:102010000000007A4400007A440000A0400000C89C
:1020200042006001450000A0420000484400004C0E
:102030004320204D383531205A005A2D50726F629E
:1020400065204F666673657420286D6D293A0A0015
:1020500020440020490020204D33303420500020FF
:10206000440020490020204D3330312050002044CE
:102070000020490020500020204D33303120450001
:102080005049442073657474696E67733A0A00207E
:102090005A0020204D3432302053004175746F2097
:1020A000426564204C6576656C696E673A0A00206B
:1020B000590020580020204D323138205400486FFC
:1020C00074656E64206F6666736574733A0A0020E7
:1020D0005A0020590020204D323036205800486FD9
:1020E0006D65206F66667365743A0A0020450020AE
:1020F0005A0020590020580020420020540020207F
:102100004D323035205300416476616E6365643A28
:1021100020533C6D696E5F66656564726174653EEF
:1021200020543C6D696E5F74726176656C5F6665A4
:102130006564726174653E20423C6D696E5F7365D3
:10214000676D656E745F74696D655F6D733E205871
:102150003C6D61785F78795F6A65726B3E205A3CAE
:102160006D61785F7A5F6A65726B3E20453C6D6198
:10217000785F655F6A65726B3E0A002054002052EA
:102180000020204D323034205000416363656C657F
:10219000726174696F6E2028756E6974732F733263
:1021A000293A20503C7072696E745F616363656C9C
:1021B0003E20523C726574726163745F6163636553
:1021C0006C3E20543C74726176656C5F616363653C
:1021D0006C3E0A00204500205A0020590020204D66
:1021E0003230312058004D6178696D756D20416342
:1021F00063656C65726174696F6E2028756E6974B1
:10220000732F7332293A0A00204500205A002059C2
:102210000020204D3230332058004D6178696D75B3
:102220006D206665656472617465732028756E69DA
:1022300074732F73293A0A00204500205A00205950
:102240000020204D3932205800537465707320707F
:10225000657220756E69743A0A0020204D32303064
:102260002044300A0020204D3230302054312044A8
:102270000020204D323030204400204469736162D8
:102280006C65640A0046696C616D656E74207365E7
:102290007474696E67733A00202047323120202021
:1022A000203B20556E69747320696E206D6D0A00A5
:1022B000203A203C3C3C20646F5F70726F62655F27
:1022C0006D6F76650A00202063757272656E745FAB
:1022D000706F736974696F6E3D00203A203E3E3E18
:1022E00020646F5F70726F62655F6D6F76650A0064
:1022F000202063757272656E745F706F73697469A4
:102300006F6E3D00646F5F70726F62655F726169CE
:10231000736528002066697273740A005A005900B8
:102320005800486F6D6520006563686F3A00544837
:1023300045524D414C2052554E4157415900546829
:1023400065726D616C2052756E61776179005072B3
:10235000696E7465722068616C7465642E206B69A7
:102360006C6C28292063616C6C6564210A00000094
:10237000000000000000000000003C3C3C207365B1
:10238000745F617869735F69735F61745F686F6DB3
:10239000652800203A200A00202063757272656E5D
:1023A000745F706F736974696F6E3D005D203D20CE
:1023B000003E20686F6D655F6F66667365745B00D5
:1023C0003E207A70726F62655F7A6F6666736574BD
:1023D000203D20002A2A2A205A20484F4D454420DB
:1023E000574954482050524F424520285A5F4D4982
:1023F0004E5F50524F42455F555345535F5A5F4DB4
:10240000494E5F454E4453544F505F50494E29202A
:102410002A2A2A0A003E3E3E207365745F6178696D
:10242000735F69735F61745F686F6D65280000009A
:1024300020420000204200002041000000005761BF
:10244000726E696E673A20486F6D696E67204275DB
:102450006D702044697669736F72203C20310A00E8
:102460000202040000664300808943000055433C9B
:102470003C3C20686F6D65617869732800203A20C4
:102480003E204146544552207365745F61786973FC
:102490005F69735F61745F686F6D650A0020206318
:1024A000757272656E745F706F736974696F6E3D7B
:1024B00000486F6D65203220536C6F773A0A004DEB
:1024C0006F766520417761793A0A00486F6D652023
:1024D0003120466173743A0A00FFFFFF3E3E3E2002
:1024E000686F6D6561786973280042B411241FBE5E
:1024F000CFEFD1E2DEBFCDBF00E00CBF15E0A0E022
:10250000B2E0E0E7F1E801E00BBF02C007900D92F6
:10251000A435B107D9F723E1A4E5B5E001C01D92C8
:10252000A332B207E1F712E1C6E7D2E100E006C04C
:1025300021970109802FFE010E948EC0C537D10767
:1025400080E00807A9F70E94A1B00C94B6C00C94D3
:1025500000002F923F924F925F926F927F928F92E4
:102560009F92AF92BF92CF92DF92EF92FF920F9322
:102570001F93CF93DF93CDB7DEB7CB55D1090FB6FD
:10258000F894DEBF0FBECDBF0091DE0D20E6029FA6
:102590008001112407581A4F8091BC1280FF1AC085
:1025A000E8E2F3E284917F013FEFE31AF30A81113D
:1025B00002C0780104C00E947931F701F3CFD7013E
:1025C0008D917D01882319F00E947931F8CF8AE03E
:1025D0000E94793181E090E0909317118093161159
:1025E0001092FA061092F9068FE380931507109265
:1025F00014071092130710926E0510926F05109237
:10260000700510927105F80180810F5F1F4F8032B5
:10261000D1F38E34B1F4818190ED980F9A3020F08F
:102620008D3211F08B3269F43296DF0131962C91A4
:1026300020532A30D0F3CD01FC01019620812032B5
:10264000D9F3F0932011E0931F117F01BFEFEB1A34
:10265000FB0A10816AE270E0C7010E9496C00097F1
:1026600031F0FC01319780818032E1F311821D3419
:1026700029F0143519F0173409F0CFC0F701808123
:102680002FEFE21AF20A8032C9F380538A3008F041
:10269000C4C01093150720911307309114074AE026
:1026A0003196429FC001439F900D1124DF01119785
:1026B0002C91022E000C330B20533109280F391FA7
:1026C000808180538A3060F330931407209313077E
:1026D000DF0131968C918032D9F31D3449F040915D
:1026E000F9065091FA0600911F1161E070E058C0A0
:1026F0002E31310591F03CF42731310571F02C3148
:10270000310569F70AC0253731054CF32737310504
:1027100024F0203A43E0340711F7B093FA06A0936F
:10272000F9067BC0813209F445C09FEBB92EB80E83
:1027300089E1A82EAB1408F45EC0DF01FD01908191
:1027400011969032D9F3A0EDA90FAA3008F047C036
:102750004F01EB2CF12C6701A3E0D594C794AA9507
:10276000E1F7C60182599A4F6C018B2D8770DB010E
:1027700002C0AA0FBB1F8A95E2F7CD01D6019C913A
:10278000892B8C9381149104A1F1801AC7018C5A72
:102790009A4FDC018C92808181548A3188F5DF0167
:1027A000FD0131968C918111BDCF5093FA06409373
:1027B000F90633C01D3409F0B8CF2032310509F0D5
:1027C000B4CFF093FA06E093F90663E270E0CF012C
:1027D0000E9496C0009709F1DC011C921EC0A3ED77
:1027E000A90FA23008F4B4CF9B3211F00C947929D0
:1027F000AFCF812CCBCF4115510569F6AD01CBCFC1
:10280000DF0131969C9190539A30D0F3CD01FC01B9
:102810000196A081A032D9F3C2CF809115078D34E3
:1028200009F4B4C4843511F40C940129873411F0EF
:102830000C94582920911307309114072C3131053D
:1028400009F484C07CF4243031053CF42230310595
:10285000BCF537FF29C00C94722924303105C9F129
:102860000C9472292A32310509F4A5C354F42D3190
:10287000310509F437C22E31310509F437C20C9401
:1028800072292B35310509F4B9C22C35310509F40B
:10289000BCC22A35310511F00C94722910927805CA
:1028A00010929D110C94722980910102882311F4D9
:1028B0000C9472290E9449430E94647C0C947229F2
:1028C00081E02230310509F080E00E94EB430C9456
:1028D000722980E50E94A230882329F00E940030EE
:1028E0006B017C0103C0C12CD12C760183E50E94D1
:1028F000A230882361F00E94403020E030E04AE7B7
:1029000054E40E949AB90E94E8BE6B017C010E94C7
:102910006F5E0E946E318091211190912211A091E1
:102920002311B0912411C80ED91EEA1EFB1E0E946D
:102930009E56DC01CB018C199D09AE09BF09B7FD7C
:1029400002C00C9472290E944D77F1CF8091BC1285
:1029500085FF0EC0E3E9F2E084918F010F5F1F4F06
:10296000882321F00E947931F801F6CF0E945E425F
:102970000E946F5E80E00E94412FA090D011AAA219
:1029800021E040E050E0BA0180E00E9424680E940B
:1029900051388091BC1285FF0CC0EAE7F2E08491C7
:1029A0008F010F5F1F4F882321F00E947931F801BA
:1029B000F6CF11E01093610288E50E947330382E43
:1029C00089E50E947330082F8AE50E947330282E13
:1029D000311004C0011104C0182705C0011102C044
:1029E00010E001C0182F0E947D2F111105C0311079
:1029F00003C0002309F43FC120E030E040EA50E486
:102A00006091B8127091B9128091BA129091BB1274
:102A10000E949FBD6B017C0160935708709358081A
:102A20008093590890935A082091A4123091A512CE
:102A30004091A6125091A7120E94C5BF1816E4F447
:102A40008091BC1285FF09C0B701A6018EE592E016
:102A50000E94D9718AE00E94793119821A821B8200
:102A60001C829E012F5F3F4F47E558E060EA72E10C
:102A70008CE992E10E949236111106C0332009F4CC
:102A8000D2C0002309F4E5C01092A0121092A11246
:102A90001092A2121092A31210929C1210929D12E8
:102AA00010929E1210929F120E947B38E9EDF4E280
:102AB000B490BEA2E3E6F4E2C590D590E590F49020
:102AC000E7E6F4E285909590A590B490A501940175
:102AD000C701B6010E94C5BF18162CF4A7019601C4
:102AE000C501B40104C0A5019401C701B6010E944B
:102AF0007BBE6E8F7F8F88A399A35EE2652E54E222
:102B0000752EF3016591759185919491E2E34E2EB6
:102B1000E4E25E2EF20125913591459154910E9497
:102B200035B987FF02C0F30101C0F201459055900D
:102B3000659074902E8D3F8D48A159A1CA01B901AD
:102B40000E949AB920E030E040E85FE30E949FBD18
:102B50000E940AC09B01AC01C301B2010E949AB954
:102B60006A8F7B8F8C8F9D8FEAEDF4E224912E8FFC
:102B700020E030E040EC5FE3C501B4010E949AB967
:102B80002B013C01AE8C6A2DAA0C770B880B990B9C
:102B90000E943BB99B01AC01C301B2010E949AB9EA
:102BA00069837A838B839C8320E030E040EC5FE391
:102BB000C701B6010E949AB96B017C01BEA06B2DC2
:102BC000BB0C770B880B990B0E943BB99B01AC01A6
:102BD000C701B6010E949AB96E8B7F8B888F998F3F
:102BE0009E01265E3F4F44EA52E1BE016F5F7F4F78
:102BF000CE0146960E94923610929B121092A0121D
:102C00001092A1121092A2121092A31210929C1272
:102C100010929D1210929E1210929F12111105C0D7
:102C2000011103C014C0002331F181E090E00E9443
:102C300075A98091BC1285FF08C04CE952E16EE392
:102C400072E08AE492E00E94B537111102C033208D
:102C500091F080E090E00E9475A98091BC1285FF00
:102C600008C04CE952E16EE172E08AE292E00E9413
:102C7000B537111102C0222081F082E090E00E945D
:102C800075A98091BC1285FF08C04CE952E168EE3D
:102C900071E08AE092E00E94B5370E947B38809113
:102CA0001C12809361020E942D3821E040E050E028
:102CB000BA018AA10E94AA390E943A3C8091BC12B2
:102CC00085FD02C00C947229E9EDF1E084918F0139
:102CD0000F5F1F4F882311F40C9472290E947931E1
:102CE000F801F4CF0E94134C0C947229C0909C12EE
:102CF000D0909D12E0909E12F0909F1288E50E9465
:102D0000A230811109C020E030E040E951E4C70160
:102D1000B6010E949FBD02C00E9440306E8B7F8B27
:102D2000888F998FC090A012D090A112E090A2122B
:102D3000F090A31289E50E94A230811109C020E021
:102D400030E040E052E4C701B6010E949FBD02C0DE
:102D50000E9440306B017C0169837A838B839C8362
:102D60004090B4125090B5126090B6127090B712A5
:102D70002091B0123091B1124091B2125091B31221
:102D80006E897F89888D998D0E949EBD4B015C0163
:102D900024EF3DEF4FE851E40E94C5BF87FF02C01A
:102DA0000C94722922E430E046E653E4C501B401F4
:102DB0000E9435B9181614F40C947229A3019201DB
:102DC000C701B6010E949EBD6B017C0124EF3DEF5F
:102DD0004FEF51E40E94C5BF87FF02C00C947229D7
:102DE00021E230E849E853E4C701B6010E9435B951
:102DF000181614F40C9472290C94832981E08093A2
:102E0000780580939D110C94722985E40E94A2306C
:102E10008E8F81110C94D5290E946F5E25EF32E0D0
:102E20003FA32EA33CE9232E32E1332E4FE5A42EFF
:102E300048E0B42E00E010E01AA2AEA1BFA18D912F
:102E4000BFA3AEA30E94A230882309F466C0D101BB
:102E50002D913D914D915C912EA73FA748AB59AB69
:102E60000E9440306B017C010330110599F5809080
:102E7000D011B4E08B9E40011124F401E55FF84FBE
:102E8000FBA7EAA7408051806280738020E030E099
:102E9000A901C301B2010E9435B98823D9F0730199
:102EA0006201F7FAF094F7F8F094F401E853FE4E5B
:102EB000C082D182E282F382F401EC54FE4EC082E1
:102EC000D182E282F382AAA5BBA51D921D921D921A
:102ED0001C921397F101C082D182E282F382033007
:102EE0001105D9F02EA53FA548A959A9C701B601DA
:102EF0000E949EBD9B01AC01D5016D917D918D918C
:102F00009C910E949FBDF5016083718382839383AE
:102F1000C8010E94C431F1E0FAA30F5F1F4F24E003
:102F2000220E311C34E0A30EB11C0430110509F04F
:102F300084CFAAA0AA2019F00E947B3838C0BE8C8A
:102F4000BB20A9F1C090A812D090A912E090AA12BB
:102F5000F090AB122091A4083091A5084091A608EA
:102F60005091A708C701B6010E949AB90E94D0BF2C
:102F70006093E0127093E1128093E2129093E31257
:102F8000C701B6010E94E3BE2FB7F8946093A4076F
:102F90007093A5078093A6079093A7072FBF109261
:102FA000D0121092D1121092D2121092D3120E940B
:102FB0003A3C0C94722980910102882311F40C94FC
:102FC000722989E40E94A230182F882321F00E94E0
:102FD0001030F62E01C0F12C8AE40E94A230082F96
:102FE000882331F00E941030E62E111104C00BC06E
:102FF000E12C1123C1F024E02F1510F00C94222DA8
:10300000E4EBF2E004C034E03E15D0F30CC0849150
:103010008F010F5F1F4F882311F40C9472290E94B7
:103020007931F801F4CF0E947D2F112341F12091D5
:103030006F08309170084F2D4203B001439F700D0F
:10304000112480916B0890916C08680F791F072EEE
:10305000000C880B990B0E943BB92091B012309163
:10306000B1124091B2125091B3120E949FBD609371
:103070004F08709350088093510890935208002392
:1030800041F120917108309172085E2D5203B00118
:10309000539F700D112420916D0830916E08620FBE
:1030A000731F072E000C880B990B0E943BB92091CF
:1030B000B4123091B5124091B6125091B7120E94DD
:1030C0009FBD609353087093540880935508909364
:1030D000560880E50E9473308823A1F10E943130A8
:1030E000882381F11123B1F020E030E040E951E480
:1030F00060914F087091500880915108909152084A
:103100000E949EBD60934F087093500880935108B1
:10311000909352080023B1F020E030E040E052E408
:103120006091530870915408809155089091560809
:103130000E949EBD60935308709354088093550875
:103140009093560886E40E94A2308823D9F00E940A
:1031500040306B017C0120E030E0A9010E94C5BF36
:10316000181684F420E030E040E752E4C701B601CD
:103170000E947BBE60936602709367028093680230
:10318000909369020E94647C0C94722980911307C9
:10319000909114078E36910509F43DC70CF0E7C0F5
:1031A0008434910509F4BBC50CF073C08A339105D2
:1031B00009F4CFC10CF043C08231910509F47CC7FA
:1031C000D4F497FF02C00C947229823091050CF45C
:1031D000D3C1419711F00C9472295F988A989FB7D8
:1031E000F894809108018E7F809308019FBF129808
:1031F00047980C9472298A32910509F458C2B4F4A4
:103200004F9711F00C94722986EE92E10E947C5D3A
:103210006E8B7F8B888F998FBE016F5F7F4FCE0142
:1032200046960E94AE30E8E2F3E22BC2803391056D
:1032300009F44BC2C99709F4F1C30C9472298F3376
:10324000910509F446C27CF48C33910509F491C2CE
:103250000CF429C38D33910509F46DC2CE9709F49E
:1032600051C20C9472298134910509F486C50CF47D
:10327000BBC58234910509F458C58334910511F01A
:103280000C94722981E080931D120E94205F0C949F
:1032900072298235910509F406C7F4F58B3491053E
:1032A00009F48FC6ECF48634910509F46DC60CF46C
:1032B0005DC68734910509F46BC68834910511F019
:1032C0000C94722980E293E0A0E0B0E08093520277
:1032D00090935302A0935402B09355020C94722918
:1032E0008D34910509F48BC60CF46FC68E349105AC
:1032F00009F489C68135910511F00C9472290E9458
:103300008D580E946F5E0E94D37B10921112109212
:10331000101200E010E0B0C68836910509F477C6B7
:103320009CF48435910509F4C7C60CF4C0C68535F4
:10333000910509F4C5C68C35910511F00C947229DC
:103340000E944C3D0C9472298A36910509F48CC672
:103350000CF469C68B36910509F48AC68D36910541
:1033600011F00C9472290E946F400C9472298C3DCC
:10337000910511F40C94BC210CF06EC08B399105B1
:1033800009F459C69CF58637910509F4A3C6DCF407
:103390008137910509F443C64CF48F36910511F03D
:1033A0000C9472290E949D3E0C94722982379105DB
:1033B00009F48AC68337910511F00C9472290E9492
:1033C000B13B0C9472298837910509F420C70CF49D
:1033D000B8C68937910509F421C78C38910511F0D9
:1033E0000C9472290E945A3E0C9472298C3C9105CF
:1033F00009F4B6C7F4F4883C910509F415C734F410
:103400008E3B910509F41BC60C947229893C9105E9
:1034100009F470C78B3C910511F00C94722924EFCC
:10342000E22E21E1F22E05EF12E034E0D32ED00E91
:1034300088C78E3C910509F499C70CF494C7833D65
:10344000910509F496C78A3D910511F00C947229F3
:103450000E94DE390C9472298239A1E09A0711F496
:103460000C949E26E4F58F32E1E09E0711F40C9453
:103470009423BCF4823E910509F4A4C734F48D3D35
:10348000910509F486C70C9472298D3221E09207C8
:1034900009F4C2C78E32914011F40C9440230C946D
:1034A0007229833641E0940711F40C94DA283CF435
:1034B0008033914011F40C94C3220C94722980390A
:1034C000B1E09B0711F40C949B268139914011F0D7
:1034D0000C94722981E00E94D4370C947229853FA4
:1034E000F1E09F0711F40C949228ECF4853A31E056
:1034F000930711F40C9443273CF4843A914011F45F
:103500000C94A2260C9472298C3AA1E09A0711F42B
:103510000C94DD27843F914011F00C9472290E9495
:10352000205F0C947229873FE1E09E0711F40C9410
:10353000982814F40C949528833523E0920711F40D
:103540000C94A428873E934011F40C94F3280C9417
:10355000722910920B0710920C0710920D0710920F
:103560000E0710920F071092100710921107109279
:10357000120708E113E0EEC1E090F906F090FA06B8
:1035800080E50E94A230882359F00E9400304B0150
:103590005C0111E0672B682B692B31F410E004C04B
:1035A00010E0812C912C540183E50E94A2308823E5
:1035B00099F00E94403020E030E04AE754E40E9455
:1035C0009AB90E94E8BE4B015C0111110CC0672B37
:1035D000682B692B41F43CC0111105C0E114F104C2
:1035E00011F00C941F2A83E090E0909317118093C0
:1035F000161181E0809372050E946F5E0E946E3109
:1036000081149104A104B104A9F180912111909138
:103610002211A0912311B091241175016401C80EEB
:10362000D91EEA1EFB1E0E949E56DC01CB018C199E
:103630009D09AE09BF09B7FD04C0109272050C9434
:103640007229809172058823C1F30E944D77EBCFD8
:10365000E114F10411F00C941F2A83E090E09093A0
:1036600017118093161181E0809372050E946F5E9E
:103670000E946E31809172058823F9F20E944D7785
:10368000F9CF84918F010F5F1F4F882321F00E9493
:103690007931F801F6CFBE016F5F7F4F83ED92E085
:1036A0000E9452728AE00E9479310C94722983E55B
:1036B0000E94A23081110C943B2A84E40E94A23023
:1036C00081110C943B2A0C9472290E9463990C94EA
:1036D00072298CE40E947330811110922A1182E5C4
:1036E0000E94733081111092291181E40E9473307D
:1036F000882311F40C9472291092291110922A1126
:103700000C9472298CE40E947330811110927D0216
:1037100082E50E947330811110927C0281E40E9444
:103720007330882311F40C94722910927D02109248
:103730007C020C9472298CE40E947330882319F067
:1037400081E080937D0282E50E947330882319F026
:1037500081E080937C0281E40E947330882311F41D
:103760000C94722981E080937D0280937C020C94FA
:10377000722920E030E0A9016091D2117091D3113B
:103780008091D4119091D5110E9435B9882381F090
:1037900081E08093D1110BE313E0D8018D918D016D
:1037A000882319F00E947931F8CF8AE00E9479319C
:1037B0001092A2111092A3111092A4111092A511AF
:1037C0001092A8111092A9111092AA111092AB1187
:1037D0001092C4111092C5111092C6111092C71107
:1037E00010929E1110929F111092A0111092A1118F
:1037F0001092C8111092C9111092CA111092CB11D7
:1038000081E0809383021092BC111092BD1110923E
:10381000BE111092BF111092AC111092AD11109206
:10382000AE111092AF1110920B0710920C0710926C
:103830000D0710920E071092B4111092B51110924C
:10384000B6111092B7111092CC111092CD111092A6
:10385000CE111092CF11809384021092C011109259
:10386000C1111092C2111092C3111092B011109296
:10387000B1111092B2111092B31110920F07109261
:10388000100710921107109212071092B81110929F
:10389000B9111092BA111092BB111092A711109287
:1038A000A6110C9472291092D11110920B0710924C
:1038B0000C0710920D0710920E0710920F0710922E
:1038C000100710921107109212070AE413E0F80192
:1038D00081918F018823C9F10E947931F8CF8AE55F
:1038E0000E947330882311F40C94CC280E9440303D
:1038F0006B017C0120E030E040EA51EC0E94C5BF42
:1039000087FF02C00C94BE2820E030E040EA51E47A
:10391000C701B6010E9435B9181614F40C94BE28DC
:10392000C092AC12D092AD12E092AE12F092AF12F1
:103930000E9405A96091AC127091AD128091AE12F7
:103940009091AF1242E00E94EA348AE00E947931FD
:103950000C947229D8018D918D01882319F00E9451
:103960007931F8CF8AE00E9479312BE0822E27E06E
:10397000922E0CEB11E1C12CD12C7601B1E5AB2ECE
:10398000B5E0BB2EF50181915F01882319F00E94FB
:103990007931F8CFC701B6010E940F3399E2A92E01
:1039A00094E0B92ED5018D915D01882319F00E9414
:1039B0007931F8CFF801608171818281938142E091
:1039C0000E94EA348AE00E947931F8018081918175
:1039D000A281B381F40181939193A193B1934F019B
:1039E000D8011D921D921D921D928D01CA94CD2861
:1039F000CE28CF2829F0C12CD12C7601C394BECF7C
:103A00001092A7111092A61110929E1110929F1160
:103A10001092A0111092A1110C94722986E40E94B8
:103A20007330882341F00E9440300E94E3BE7093BF
:103A30000A076093090783E50E947330882351F0D9
:103A40000E94403060930507709306078093070734
:103A50009093080785E50E947330882351F00E94F7
:103A6000403060930107709302078093030790939F
:103A7000040784E40E947330882351F00E94403090
:103A80006093FD067093FE068093FF0690930007F7
:103A900084E50E947330882341F00E9440300E94E8
:103AA000E3BE7093FC066093FB064090FB065090CB
:103AB000FC062091010730910207409103075091C5
:103AC00004072EA33FA348A759A78091FD06909114
:103AD000FE06A091FF06B09100078AA79BA7ACA79E
:103AE000BDA79090050780900607309007072090AB
:103AF0000807A0900907B0900A07BBA2AAA2C12C90
:103B0000D12C76019501215031093F8F2E8F052C44
:103B1000000C660877084E8D5F8D4230510560F4C9
:103B200060E082E00E94635561E08EE00E94635590
:103B300060E08EE00E943455892D982DA32DB22D82
:103B400080934F0890935008A0935108B093520867
:103B50000E94647C0E946F5E8401510120E137E283
:103B600082E06B962FAF6B976C963FAF6C970E947D
:103B700021776B962FAD6B976C963FAD6C97019745
:103B8000F9F4812F902FAB2DBA2D80934F0890938D
:103B90005008A0935108B09352080E94647C0E9480
:103BA0006F5E2FE632E143E85AE3612F702F8B2DD1
:103BB0009A2D0E949FBD162F072FB82EA92ECECF6B
:103BC0002150310969F6C701B6010E940F332EE872
:103BD00034E0D9018D919D01882379F06B962FAF48
:103BE0006B976C963FAF6C970E9479316C963FADA6
:103BF0006C976B962FAD6B97ECCF20E030E04AE7E7
:103C000054E4612F702F8B2D9A2D0E949AB942E0B7
:103C10000E94EA348AE00E947931EE8DFF8D32975E
:103C2000A0F461E08EE00E94345564E670E080E02C
:103C300090E00E94665660E08EE00E94345564E693
:103C400070E080E090E00E946656892D982DA32DAB
:103C5000B22D80934F0890935008A0935108B093D1
:103C600052080E94647C0E946F5E2E8D3F8D223030
:103C70003105D8F40E946E310E949E5600912111A8
:103C8000109122112091231130912411040D151D42
:103C9000261D371DDC01CB01801B910BA20BB30B42
:103CA000B7FF2EC00E944D77E7CF4AA15BA14330FA
:103CB000510531F58EA19FA1A8A5B9A580935708FC
:103CC00090935808A0935908B0935A080E94647CB6
:103CD0000E946F5E64E670E080E090E00E946656AD
:103CE0002AA53BA54CA55DA52093570830935808FD
:103CF0004093590850935A080E94647C0E946F5E5A
:103D00003FEFC31AD30AE30AF30A44EFC41641E0B3
:103D1000D406E104F10409F0FECE0C94722910924D
:103D20001D120E94205F0C94722980911D12811136
:103D30000BC00AE513E0D8018D918D01882309F4A9
:103D400004CE0E947931F7CF813019F007E713E0F4
:103D50000BC000EB13E0F80181918F01882309F477
:103D6000F4CD0E947931F7CFD8018D918D01882350
:103D700009F4EBCD0E947931F7CF85E40E947330CE
:103D8000882361F00E9440300E94E3BE60939B0252
:103D900070939C0280939D0290939E0281E40E9406
:103DA0007330882361F00E9440300E94E3BE60932C
:103DB0009702709398028093990290939A0282E5F9
:103DC0000E947330882361F00E9440300E94E3BE5D
:103DD000609393027093940280939502909396025D
:103DE0000E94205F0C94722980911D12882319F083
:103DF0000EEC13E060C080917D02811103C003EFDF
:103E000013E04FC080917C028823C9F308E014E0DE
:103E1000F80181918F01882319F00E947931F8CF40
:103E20008FE00E942177892B19F004E415E00DC082
:103E300001E315E0D8018D918D01882319F00E94CE
:103E40007931F8CF0CE014E008C0F80181918F01BE
:103E50008823C1F30E947931F8CFD8018D918D016B
:103E6000882319F00E947931F8CF82E00E942177EF
:103E7000892B19F004E415E00BC001E315E0F8010B
:103E800081918F01882309F460CD0E947931F7CFA9
:103E9000D8018D918D01882309F457CD0E94793185
:103EA000F7CFF80181918F01882311F40C947229C6
:103EB0000E947931F6CFD8018D918D01882319F0B8
:103EC0000E947931F8CF8AE00E94793101E114E053
:103ED000F80181918F01882319F00E947931F8CF80
:103EE0008AE00E94793160919B0270919C028091DE
:103EF0009D0290919E020E940F338AE00E947931C8
:103F00000EE114E0D8018D918D01882319F00E94F3
:103F10007931F8CF8AE00E947931609197027091EF
:103F200098028091990290919A020E940F338AE040
:103F30000E9479310BE214E0F80181918F0188230E
:103F400019F00E947931F8CF8AE00E9479316091AE
:103F500093027091940280919502909196020E9432
:103F60000F338AE00E9479310C94722910927A0DF5
:103F700010927B0D10927C0D10927D0D10921E11EF
:103F800010921D110C94722910927E020C947229C9
:103F900081E080937E0210927A0D10927B0D109238
:103FA0007C0D10927D0D80E293E0A0E0B0E0809364
:103FB000520290935302A0935402B09355020C9472
:103FC00072290E94A8A80C9472298091E6129091FF
:103FD000E712019711F00C94722982E090E090931F
:103FE000E7128093E6120E949E566093F01270933F
:103FF000F1128093F2129093F3120C9472290E94A2
:10400000FAA40C9472290E943A980C9472290E9486
:1040100000980C9472290E940F3F0C9472290E9400
:10402000733E0C9472290E9409421092171110924B
:1040300016110C944F2D0E944F3F0C9472298091C1
:10404000BC1283FF02C00C94722983E50E94A23047
:104050008EA381110C948E2A82E50E94A2308111D8
:104060000C948E2A0C9472290E942E3F0C94722973
:104070000E941F3F0C94722962E370E080E090E0A0
:104080000E9466560E94095C0F5F1F4F03311105A5
:1040900099F762E370E080E090E00E9466560E942B
:1040A000095C0C947229109277050C94722981E0B6
:1040B000809377050C9472290E94023E0C94722919
:1040C0000E94EA3D0C9472290E946F5E0E943A3C65
:1040D0000C94722985E40E947330882381F00E9439
:1040E0003130882361F0E8E2F3E284918F010F5FC1
:1040F0001F4F882321F00E947931F801F6CF81E427
:104100000E947330882381F00E943130882361F04F
:10411000E3EFF2E084918F010F5F1F4F882321F0BE
:104120000E947931F801F6CF0091F9061091FA0654
:10413000D8018D918D01882309F407CC0E94793133
:10414000F7CFEFE0F3E084918F010F5F1F4F8823DB
:1041500021F00E947931F801F6CFE7E0F3E0849195
:104160008F010F5F1F4F882321F00E947931F801E2
:10417000F6CF659903C009EF12E002C00EEF12E01E
:10418000F80181918F01882319F00E947931F8CFCD
:104190008AE00E947931EFEFF2E084918F010F5FA6
:1041A0001F4F882321F00E947931F801F6CF8091CA
:1041B000030181FD03C009EF12E002C00EEF12E01F
:1041C000D8018D918D01882319F00E947931F8CFA3
:1041D0008AE00E947931E7EFF2E084918F010F5F6E
:1041E0001F4F882321F00E947931F801F6CF4B9BB5
:1041F00003C009EF12E002C00EEF12E0F801819156
:104200008F01882309F4A1CB0E947931F7CF81E097
:104210008093610280931C120C94722910926102A7
:1042200010921C120C94722988EC90E00E94D332F8
:1042300081110C94722984E40E947330882309F45C
:1042400056C00E94403011E020E030E0A9010E94F9
:1042500035B9811101C010E010933612112309F411
:1042600046C00091730510E00E944030000F111FFE
:10427000000F111FF801E156FD4F608371838283A7
:10428000938320E030E0A90160919F027091A00229
:104290008091A1029091A2020E9435B981110CC0B7
:1042A00080E090E0A0E4B0E480939F029093A002AD
:1042B000A093A102B093A20220E030E0A901609196
:1042C000A3027091A4028091A5029091A6020E947F
:1042D00035B981110CC080E090E0A0E4B0E4809397
:1042E000A3029093A402A093A502B093A6020E94F9
:1042F000E37BF8C748E8E42E48E0F42E05EF12E02F
:1043000054E0D52ED00ED8018D918D010E947330CE
:10431000882349F00E9440300E94E8BEF701608384
:10432000718382839383F4E0EF0EF11CD012EBCF04
:104330000E94CD72D7C7F4E0EF0EF11CD01609F43D
:10434000D1C7D8018D918D010E947330882399F3D4
:104350000E944030F7016083718382839383EBCFA7
:104360000E94483BBFC70E94DE3ABCC70E94F53C92
:10437000B9C70E94483AB6C783E50E94A230882395
:1043800009F4B0C70E9410307093760260937502F2
:10439000A9C78DED90E00E94D3328111A3C783E5B8
:1043A0000E94A230882309F49DC70091730510E094
:1043B0000E941030000F111FF801E957FD4F718363
:1043C000608390C780E50E947330882309F48AC710
:1043D0000E941030F62EC62ED72E83E50E94A23002
:1043E000882321F00E9410308B0102C00FEF1FEFD5
:1043F000C8010196039708F075C7D7FC73C7E9E2B7
:10440000F3E080E38E0F9491F91609F46BC73196AF
:104410008E13F9CF0C94282D85E40E94A2308823B6
:1044200039F00E942030082F823008F094C001C07B
:1044300000E080E50E947330882361F00E944030E4
:1044400024E0029FF0011124E65FFD4F6083718339
:104450008283938389E40E9473308823A9F00E94A9
:10446000403044E0049F90011124D901AE5FBD4F5C
:104470007D012CEA35EC47E25EE30E949AB9F70130
:10448000608371838283938384E40E9473308823E2
:10449000B1F00E944030F4E00F9F90011124A90177
:1044A0004E5E5D4F7A012CEA35EC47E25EE30E94F6
:1044B0007BBED7016D937D938D939C931397E8E218
:1044C000F3E284917F01BFEFEB1AFB0A882321F00E
:1044D0000E947931F701F5CF10E0B80185E693E04D
:1044E0000E941D72000F111F000F111FF801E65FDF
:1044F000FD4F408151816281738181E693E00E948A
:10450000D971F801EE5FFD4F2CEA35EC47E25EE32E
:1045100060817181828193810E947BBEAB01BC016D
:104520008DE593E00E94BC71F801EE5EFD4F2CEA30
:1045300035EC47E25EE360817181828193810E9464
:104540009AB9AB01BC0189E593E00E94BC718AE095
:104550000E947931C7C6EFE0FBE184918F010F5FC4
:104560001F4F811103C001E414E004C00E9479319F
:10457000F801F3CFF80181918F01882309F4E5C98F
:104580000E947931F7CF80E50E947330882351F083
:104590000E94403060932202709323028093240291
:1045A0009093250289E40E947330882381F00E9451
:1045B00040302CEA35EC47E25EE30E949AB9609302
:1045C0001E0270931F02809320029093210284E4C4
:1045D0000E947330882381F00E9440302CEA35EC31
:1045E00047E25EE30E947BBE60931A0270931B0257
:1045F00080931C0290931D02E8E2F3E284918F0104
:104600000F5F1F4F882321F00E947931F801F6CF08
:104610004091220250912302609124027091250260
:1046200081E793E00E94D9712CEA35EC47E25EE322
:1046300060911E0270911F028091200290912102D0
:104640000E947BBEAB01BC018DE693E00E94BC7171
:104650002CEA35EC47E25EE360911A0270911B028E
:1046600080911C0290911D020E949AB9AB01BC017D
:1046700089E693E00E94BC718AE00E94793132C6DB
:1046800083E50E947330182F882371F00E94403018
:104690000E94E3BE709386026093850221E0672B3F
:1046A00009F020E02093D71180E50E947330882321
:1046B00059F02091850230918602232B11F00E943F
:1046C00031308093D7110EC611110CC6E8E2F3E227
:1046D00084918F010F5F1F4F882321F00E94793151
:1046E000F801F6CF8091D711811103C068E073E023
:1046F00002C06BEF72E08AE893E00E945272609110
:1047000085027091860289E793E00E941D72E5E7B9
:10471000F3E084918F010F5F1F4F882309F4E2C5F6
:104720000E947931F801F5CF85E40E94A2308823F8
:1047300021F00E9410301B0102C0212C312C83E497
:104740000E94A230882339F00E94103064967FAF17
:104750006EAF649706C025E030E064963FAF2EAFA1
:10476000649785E50E94733029968FAF2997882337
:1047700029F00E94313029968FAF299737FC07C066
:10478000C12CD12C16E1E12E13E4F12E06C0C12C70
:10479000D12CBCE8EB2EB2E4FB2E83E50E94A230C4
:1047A000882321F00E9440306B017C01C701B601D3
:1047B0000E94E3BE32E02316310410F42092730508
:1047C0001092171110921611072E000C880B990BDE
:1047D0000E943BB96AAF7BAF8CAF9DAF0E949E56E3
:1047E0004B015C01C1010196039718F402E514E046
:1047F0000EC005E614E0D8018D918D01882319F0D3
:104800000E947931F8CF8AE00E9479316BC5F801B6
:1048100081918F01882319F00E947931F8CF8AE0C5
:104820000E9479310E948D588FE7FFEF2F163F06C7
:1048300019F48093BC0704C0F101E354F84F80835E
:1048400081E0809300022E968CAE9DAEAEAEBFAEE0
:104850002E9768968CAE9DAEAEAEBFAE68971EAE7C
:1048600020E42FAF3CE121963FAF219746E422960A
:104870004FAF229723961FAE239724961FAE2497FF
:1048800025961FAE259726961FAE26971EAA1FAA0D
:1048900018AE19AE1AAA1BAA1CAA1DAAC12CD12C8B
:1048A0007601FFE74F2E512C612C712C8FE790E0A1
:1048B000A0E0B0E08AA79BA7ACA7BDA762961CAEFC
:1048C0001DAE1EAE1FAE629791E02A969FAF2A974B
:1048D0001FA61EA61E8E1AA200E010E0D101A3544E
:1048E000B84F6A96BFAFAEAF6A97C101880F991FE4
:1048F000880F991FFC01E855F84F2896FFAFEEAFDF
:10490000289780910002882309F40EC20E949E56C7
:104910006EA37FA388A799A78091BB07882309F47A
:10492000DEC00E946B59FFEF2F163F0659F420910D
:10493000B0072E8F3091B1073AA30091B2071091C2
:10494000B30715C02896AEADBFAD2897BC91BE8FFA
:104950002896EEADFFAD2897F181FAA32896AEAD6B
:10496000BFAD289712960C91129713961C912E8D1D
:104970003AA1A80123966FAD239724967FAD249783
:1049800025968FAD259726969FAD26970E9435B91F
:1049900087FF0EC0BE8D2396BFAF2397EAA1249652
:1049A000EFAF249725960FAF259726961FAF269732
:1049B0002E8D3AA1A8016EAD7FAD21968FAD2197C6
:1049C00022969FAD22970E94C5BF181654F4FE8D03
:1049D000FEAF2AA12FAF21960FAF219722961FAFCE
:1049E00022972A963FAD2A972AAD332309F457C060
:1049F0003BAD4CAD5DAD6E8D7AA1C8010E94C5BFC7
:104A000018160CF06CC04EA15FA168A579A54819D5
:104A100059096A097B09DB01CA0188589341A10938
:104A2000B109B7FD5CC08AA59BA5ACA5BDA584193D
:104A30009509A609B709B595A79597958795EFEFBD
:104A40002E163E0619F48093BC0705C06A96EEAD9B
:104A5000FFAD6A97808362964CAF5DAF6EAF7FAF5C
:104A60006297FAAD2396FFAF23972BAD24962FAF15
:104A700024973CAD25963FAF25974DAD26964FAF79
:104A800026978EA19FA1A8A5B9A52E968CAF9DAF04
:104A9000AEAFBFAF2E972A961FAE2A9720C03BAD70
:104AA0004CAD5DAD6E8D7AA1C8010E9435B987FF0E
:104AB00016C08EA19FA1A8A5B9A52E962CAD3DAD7F
:104AC0004EAD5FAD2E97821B930BA40BB50BAC01C3
:104AD000BD01485853416109710977FF53C620E071
:104AE00030E040EA51E46AAD7BAD8CAD9DAD0E94F3
:104AF0009FBD9B01AC016E8D7AA1C8010E94C5BF0C
:104B000018166CF4EAE5F4E084918F010F5F1F4FF3
:104B1000882309F4E7C30E947931F801F5CF80E3D7
:104B200098EFAFEFBFEF68962CAD3DAD4EAD5FADEA
:104B30006897821B930BA40BB50B2EA13FA148A530
:104B400059A5820F931FA41FB51FB7FD0FC00E9468
:104B50007D3F8AE00E9479318EA19FA1A8A5B9A5C9
:104B600068968CAF9DAFAEAFBFAF68978EA19FA187
:104B7000A8A5B9A5880F991FAA1FBB1F2E962CADFB
:104B80003DAD4EAD5FAD2E97821B930BA40BB50BC5
:104B900088199909AA09BB0981389F44A241B10526
:104BA00068F0ECE3F4E084918F010F5F1F4F8823DE
:104BB00009F498C30E947931F801F5CF4EA55FA59D
:104BC00064968EAD9FAD6497841795070CF099CECF
:104BD000EFEDF3E084918F010F5F1F4F882321F0E9
:104BE0000E947931F801F6CF9FEF2916390619F0A6
:104BF0000BE014E002C00CE013E0B8018DEC93E090
:104C00000E945272B701A60189EC93E00E94D9710B
:104C10008AE00E947931B80187EB93E00E945272DA
:104C20004AA95BA96CA97DA983EB93E00E94D97185
:104C30008AE00E947931B80181EA93E00E945272C1
:104C40004EA95FA968AD79AD8DE993E00E94D97155
:104C50008AE00E9479312996AFAC2997AA2009F4FD
:104C600041C32FEF2216320669F5C0922202D0927C
:104C70002302E0922402F09225022CEA35EC47E26E
:104C80005EE36AA97BA98CA99DA90E949AB9609349
:104C90001E0270931F0280932002909321022CEA3F
:104CA00035EC47E25EE36EA97FA988AD99AD0E941D
:104CB0007BBE60931A0270931B0280931C02909338
:104CC0001D0210C38101000F111F000F111FF801F9
:104CD000E65FFD4FC082D182E282F382A8014E5F7F
:104CE0005D4F5A012CEA35EC47E25EE36AA97BA9E5
:104CF0008CA99DA90E949AB9D5016D937D938D933E
:104D00009C9313970E5E1D4F2CEA35EC47E25EE351
:104D10006EA97FA988AD99AD0E947BBEF801608322
:104D2000718382839383DEC2809100028111DAC293
:104D30000E948D58D7C20E946F5ED4C280E00E944C
:104D4000D437D0C286E50E947330882351F0809119
:104D50006F0890917008892B21F00E940B360E94F9
:104D6000F73583E50E947330182F882319F00E94CD
:104D70003130182F83E50E947330882319F0812F7A
:104D80000E94412F8AE50E947330882321F00E94FF
:104D900040300E94F92EF090D611111103C0E8E2C4
:104DA000F3E21AC0F110FBCFEFE0FBE184918F0139
:104DB0000F5F1F4F882321F00E947931F801F6CF51
:104DC000EEEEF4E084918F010F5F1F4F882339F3DB
:104DD0000E947931F801F6CF84918F010F5F1F4F48
:104DE000882321F00E947931F801F6CFF11003C039
:104DF00064E173E002C060E173E080EE94E00E9441
:104E000052728AE00E947931E8E2F3E284918F01E4
:104E10000F5F1F4F882321F00E947931F801F6CFF0
:104E2000E3EDF4E084918F010F5F1F4F882321F0A1
:104E30000E947931F801F6CFC090D211D090D311F1
:104E4000E090D411F090D51120E030E0A901C70125
:104E5000B6010E94C5BF18166CF0EEECF4E0849128
:104E60008F010F5F1F4F882309F43CC20E947931E4
:104E7000F801F5CF42E0C701B6010E94EA348AE0AA
:104E80000E9479312FC289E40E94A230882321F048
:104E90000E941030162F01C01FEF8AE40E94A2303A
:104EA000882321F00E941030062F01C00FEF8AE501
:104EB0000E947330F82E811105C081E50E94733085
:104EC000D82E01C0D12C17FD02C007FF03C0EFE0B0
:104ED000FBE105C0F1101AC0D11018C0F8CF8491C1
:104EE0008F010F5F1F4F882321F00E947931F80155
:104EF000F6CFECE2F5E084918F010F5F1F4F88231E
:104F000009F4F0C10E947931F801F5CF153018F09D
:104F1000EFE0FBE106C00530D8F716C00E947931FA
:104F2000F80184918F010F5F1F4F8111F7CFEDE0E2
:104F3000F5E084918F010F5F1F4F882309F4D2C1E0
:104F40000E947931F801F5CFE12E110FFF08002EF4
:104F5000000C110B0E944030DD2099F025E02E9DC1
:104F6000F0012F9DF00D1124E00FF11FEE0FFF1F38
:104F7000EE0FFF1FE95CFD4E20813181428153819C
:104F800003C020E030E0A901A5E0AE9DF001AF9D97
:104F9000F00D11240E0F1F1F000F111F000F111F06
:104FA000095C1D4E0E949FBDD8016D937D938D932A
:104FB0009C9313970E94554A95C182EBC82E8DE0B1
:104FC000D82E9CE9E92E92E1F92E2DEB222E22E13A
:104FD000322E00E010E0F101ED5BF241FF8FEE8F29
:104FE000D1018D911D01882309F48BC0F701408008
:104FF000518062807380F801E65DFD4F2081318130
:1050000042815381F801EA5CFD4F608171818281A8
:1050100093810E949FBD20E030E040E05FE30E946A
:105020009AB99B01AC01C301B2010E94C5BF181619
:1050300044F4F801E259FC4D85909590A590B49008
:1050400003C0812C912C5401F801E055FD4E2081C4
:10505000318142815381C301B2010E949EBD9B01F7
:10506000AC01C501B4010E949EBD4B015C0120E072
:1050700030E040EA51EC0E94C5BF87FD29C020E026
:1050800030E040EA51E4C501B4010E9435B9181678
:10509000FCF0D6012D913D914D915C91C501B4017B
:1050A0000E949EBD9B01AC01C301B2010E949FBD45
:1050B000F7016083718382839383D6018D929D92E1
:1050C000AD92BC9213978E8D9F8D0E94C43119C0F2
:1050D000EFE0FBE184918F010F5F1F4F882321F0E8
:1050E0000E947931F801F6CFECE4F5E084918F016C
:1050F0000F5F1F4F882309F4F5C00E947931F80132
:10510000F5CFB4E0CB0ED11C0C5F1F4FE4E0EE0EE8
:10511000F11C0C30110509F05ECF0E947B380E9413
:105120003A3CE0C00E94BE62DDC00E9448A3DAC0E3
:1051300083E5D9D7882311F094D701C081E091E0AD
:1051400089270E94C89ECEC0E8E2F3E284918F01D5
:105150000F5F1F4F882321F00E947931F801F6CFAD
:10516000E4E8F5E084918F010F5F1F4F882311F46D
:105170000C946F1C0E947931F801F4CFEDE6F5E054
:1051800084918F010F5F1F4F882311F40C94A51C8D
:105190000E947931F801F4CF4091AC125091AD12D8
:1051A0006091AE127091AF128AE695E00E94D971BB
:1051B0000C94A51CEFE0FBE184918F010F5F1F4F62
:1051C000882321F00E947931F801F6CFEEE8F5E06E
:1051D00084918F010F5F1F4F882309F483C00E94C1
:1051E0007931F801F5CF81E08093010283E57BD727
:1051F000811103C00E94A98475C033D7811172C088
:10520000F9CFE0901307F09014071E2D8091BC1287
:1052100085FF14C0B701772787EE95E00E941D72C5
:1052200089E20E9479318AE00E9479314CE952E1A9
:1052300068EC75E083ED95E00E94B5378091D01160
:10524000181741F083E54FD7182F882321F009D78D
:10525000182F01C011E086E475D7882311F010D70C
:1052600003C060E070E0CB0120E030E040E752E4B2
:105270000E947BBEAB01BC01212F8E2D0E94AA395A
:105280008091BC1285FF2EC04CE952E16AEA75E0BC
:1052900084EB95E00E94B537EDE9F5E084918F014C
:1052A0000F5F1F4F8823F1F00E947931F801F6CF8C
:1052B000E8E2F3E284918F010F5F1F4F882321F012
:1052C0000E947931F801F6CF60911F117091201181
:1052D00084EF95E00E94527282E20E9479318AE066
:1052E0000E94793110921711109216110E948A842F
:1052F000D6C34115510519F4AF0141505109812C14
:10530000912C0C94A91380E0BCD50E94513883E500
:10531000EAD6882309F447C0A4D621E0482FBE016D
:105320006F5F7F4FCE0146960E9484746B017C01B3
:105330009B01AC010E944BC0811130C02CEA35ECBE
:1053400047E257E36E897F89888D998D0E949FBDC2
:10535000AB01BC018CEA92E00E94BC712CEA35ECF6
:1053600047E257E369817A818B819C810E949FBDCE
:10537000AB01BC0187EA92E00E94BC712CEA35ECDB
:1053800047E257E3C701B6010E949FBDAB01BC01D4
:1053900082EA92E00E94BC718AE0ABD70E942D386D
:1053A0000E943A3C9FCF81E0B8CF1092A211109298
:1053B000A3111092A4111092A5111092A81110928D
:1053C000A9111092AA111092AB111092C41110924F
:1053D000C5111092C6111092C7111092C8111092E7
:1053E000C9111092CA111092CB111092B4111092DF
:1053F000B5111092B6111092B7111092AC11109213
:10540000AD111092AE111092AF111092CC111092FA
:10541000CD111092CE111092CF111092B81110929E
:10542000B9111092BA111092BB111092B0111092D2
:10543000B1111092B2111092B3110C940E17D70142
:105440008C91882311F40C94F31AE8E2F3E284912E
:105450008F010F5F1F4F882319F04BD7F801F7CF4B
:10546000F70181917F01882311F043D7F9CF8AE0BA
:1054700040D70C94F31AE4D5E82E80E563D6882350
:1054800039F1CED58B0177FD2DCF902FE9E2F3E0F6
:1054900080E38E0F2491921721F031968E13FACF6C
:1054A0001AC0EFE0FBE184918F010F5F1F4F88234B
:1054B00019F01FD7F801F7CFE0EEF2E084918F01E9
:1054C0000F5F1F4F882309F40DCF13D7F801F6CFD4
:1054D0000DE010E0DACF84E435D6882349F061E0AE
:1054E000802F0E9463556E2D802F0E943455FACE76
:1054F00061E0802F0E9463556E2D802F0E943455ED
:10550000F12CB701802F0E949F550930110509F039
:10551000E9CEF0921112E0921012E4CEB1D50E94C1
:10552000E3BE6739710514F066E970E07093B60761
:105530006093B5070E94EC57A3D520E030E040EA25
:1055400050E40E94C5BF181614F40E94A8A881E078
:105550008093000210921711109216118091D011B1
:10556000809373051AA21BA21CA21DA21AA61BA639
:105570001CA61DA61E8E1EA6FCE3FAAB2CE12EABCC
:1055800036E43AAFC12CD12CF0E8EF2EAFEBFA2E77
:10559000812C912C54016091B5077091B607072EAC
:1055A000000C880B990B0E943BB9162F072F782E01
:1055B000692E262F372F482F592FB601C7010E9479
:1055C00035B98823D1F02091B0073091B1074091CF
:1055D000B2075091B307612F702F872D962D0E942F
:1055E00035B9881F8827881F8E8F4EA1442349F024
:1055F000882339F08091000275CE1C2D0D2D7E2C54
:105600006F2C0E949E566B017C01DC01CB012AA508
:105610003BA54CA55DA5821B930BA40BB50BB7FD59
:1056200037C0D701C60188519C4FAF4FBF4F8AA7E3
:105630009BA7ACA7BDA70E947D3FEFEEF2E084914F
:105640002F019FEF491A590A882319F052D6F20107
:10565000F6CF81149104A104B104B1F0D501C401C5
:105660008854944FAF4FBF4FBC01CD016C197D09D9
:105670008E099F0928EE33E040E050E00E9441BDD2
:10568000CA01B901CCD702C08FE333D68AE031D644
:105690000E944D7723D62090B0073090B1074090FC
:1056A000B2075090B3079101A201612F702F872D8F
:1056B000962D0E949EBD9F7781149104A104B10490
:1056C00049F420E030E040E85FE30E9435B987FF0D
:1056D0000BC008C020E030E040E450E40E94C5BFA9
:1056E000181614F446015701AE8DAA2379F12AA1A8
:1056F0003BA14CA15DA1211531054105510541F0AA
:10570000D701C601821B930BA40BB50BB7FD1EC0BE
:105710009101A2016EA57AA98EA99AAD0E949EBDA3
:1057200020E030E040EC5FE30E9435B987FD62CFB6
:10573000D701C601805A9541AF4FBF4F8AA39BA3A3
:10574000ACA3BDA32EA63AAA4EAA5AAE80910002DF
:10575000882309F44FCF81149104A104B10429F4E2
:10576000C12ED02EE72CF62C16CF98EBC91A9BE051
:10577000D90AE108F108C818D908EA08FB08F7FEB9
:1057800039CFEECFAEA4BFA41A141B040CF027C16E
:1057900062968CAC9DACAEACBFAC6297880E991E85
:1057A000AA1EBB1E62962CAD3DAD4EAD5FAD62979D
:1057B000281B390B4A0B5B0BCA01B901A3019201EB
:1057C0000E9432BDA50194010E9463BD4AA45BA45E
:1057D0006CA47DA4420E531E641E751E34E1431654
:1057E0005104610471040CF14CEE4416510461043F
:1057F00071043CF450E845165104610471041CF135
:1058000005C05BEE452E512C612C712C4AA65BA67F
:105810006CA67DA68EEF90E0A0E0B0E0841995091B
:10582000A609B7092C013D0112C024E130E040E097
:1058300050E02AA73BA74CA75DA744E1442E512C7A
:10584000612C712C04C04AA65BA66CA67DA64AA555
:105850005BA56CA57DA586EC94E00E94F671B30172
:10586000A20181EC94E00E94F6714EAD5FAD2196ED
:105870006FAD219722967FAD22978AEB94E00E942C
:10588000D97123964FAD239724965FAD2497259623
:105890006FAD259726967FAD269783EB94E00E9407
:1058A000D9714EA55FA5433051050CF498C0C301D2
:1058B000B2010E943BB920E030E040E850E40E9491
:1058C0009AB96B017C012EAD3FAD21964FAD21976A
:1058D00022965FAD229723966FAD239724967FADD6
:1058E000249725968FAD259726969FAD26970E94E3
:1058F0009EBD2BED3FE049E450E40E949AB920E0C0
:1059000030E040E05FE30E949AB99B01AC01C7011F
:10591000B6010E947BBE6B017C01C501B4010E94EF
:105920003BB92FE632E143E85AE30E949AB94B01B2
:105930005C01B701A6018DEA94E00E94D971B5011E
:10594000A40187EA94E00E94D9712AE939E949E182
:105950005FE3C701B6010E949AB96B017C019B010C
:10596000AC010E949FBDA50194010E947BBE6AAB61
:105970007BAB8CAB9DABA5019401C701B6010E9426
:105980009AB920E030E040E05EE30E949AB96EAB45
:105990007FAB88AF99AFE7E9F4E084915F015FEFF7
:1059A000A51AB50A882319F0A4D4F501F6CFB701DA
:1059B000A60181E994E00E94D9714AA95BA96CA96A
:1059C0007DA98BE894E00E94D9714EA95FA968ADCA
:1059D00079AD85E894E00E94D9718AE08AD48AA5DD
:1059E0009BA5ACA5BDA5840D951DA61DB71DB595A0
:1059F000A79597958795EFEF2E163E0619F480939D
:105A0000BC0705C06A96EEADFFAD6A9780832EA5F0
:105A10003FA52F5F3F4F3FA72EA7AAACAEAEBBACB2
:105A2000BFAEACAC2196AFAE2197BDAC2296BFAE57
:105A300022978EA09FA0A8A4B9A421E02A962FAFF8
:105A40002A974DC801110C94031857D20C941718BB
:105A50000E946F5E60E08F2D0E9463550F3FFFEF45
:105A60001F0759F48F2D0E94217731E020E0892B08
:105A700009F030E0032F122F05C00130110561F04D
:105A800000E010E08F2D0E9421778017910709F424
:105A900029CC0E944D77F6CF01E010E0F3CFC55A34
:105AA000DF4F0FB6F894DEBF0FBECDBFDF91CF91B1
:105AB0001F910F91FF90EF90DF90CF90BF90AF902C
:105AC0009F908F907F906F905F904F903F902F901E
:105AD00008952DE0829FC0011124FC01E60FF11D05
