:100000000C9439130C946A130C946A130C946A13AD
:100010000C946A130C946A130C946A130C946A136C
:100020000C946A130C946A130C946A130C946A135C
:100030000C946A130C946A130C946A130C946A134C
:100040000C946A130C941E500C946A130C946A134B
:100050000C946A130C946A130C94D5800C943E9102
:100060000C946A130C9417390C946A130C946A1349
:100070000C946A130C946A130C946A130C946A130C
:100080000C946E580C946A130C946A130C946A13B3
:100090000C946A130C946A130C946A130C946A13EC
:1000A0000C946A130C946A130C9440580C946A13C1
:1000B0000C946A130C946A130C946A130C941258DF
:1000C0000C946A130C946A130C946A130C946A13BC
:1000D0000C946A130C946A130C946A130C946A13AC
:1000E0000C946A1347394D395E396939713986394B
:1000F0007539863979397D39863983392E84F68484
:10010000FB84268532850E8513851E841C8F1F8FE8
:100110000E8F128F188F568F238F278F2D8F318F31
:10012000358F3B8F3F8F438F568F498F4D8F518F28
:100130005A905F9064906E907890F19082908A903F
:1001400092909C90A690B090BF90C990F190D3905F
:10015000DD90E790084AD73B3BCE016E84BCBFFDE3
:10016000C12F3D6C74319ABD56833DDA3D00C77F87
:1001700011BED9E4BB4C3E916BAAAABE0000008020
:100180003F05A84CCDB2D44EB93836A9020C50B9AF
:10019000918688083CA6AAAA2ABE000000803F00DB
:1001A0004E414E494E495459494E46CDCCCC3D0A5C
:1001B000D7233C17B7D13877CC2B329595E6241F3F
:1001C000B14F0A000020410000C84200401C4620F8
:1001D000BCBE4CCA1B0E5AAEC59D743C3C3C205A5A
:1001E0005F534146455F484F4D494E470A00203A0C
:1001F000205A5F534146455F484F4D494E470A00DC
:10020000202064657374696E6174696F6E3D005A75
:100210005F534146455F484F4D494E47203E3E3E65
:100220000A00486F6D652058592066697273740A18
:10023000003C3C3C204732380A005261697365201B
:100240005A20286265666F726520686F6D696E67F7
:100250002920746F20003E20656E6473746F707384
:100260002E656E61626C652874727565290A003CA2
:100270003C3C204732380A003E20686F6D696E674B
:10028000206E6F74206E65656465642C20736B69E5
:10029000700A003E3E3E204732380A00205A3A207B
:1002A0000020593A200042656420583A20004D65EC
:1002B000736820706F696E742063616E6E6F742056
:1002C0006265207265736F6C7665640A00256973D8
:1002D0000025696D20256973002569682025696DF1
:1002E0002025697300256964202569682025696DCA
:1002F00020256973002569792025696420256968AE
:100300002025696D20256973005072696E74207410
:10031000696D653A200020573A002F2F20002054A5
:1003200000205200416363656C65726174696F6E91
:100330003A2050005741524E494E4721204C6F778A
:10034000205A204A65726B206D6179206C6561646A
:1003500020746F20756E77616E74656420706175AE
:100360007365732E0A00546F6F2066617220667287
:100370006F6D207265666572656E636520706F696A
:100380006E740A00205A00205900580020204D6148
:10039000783A2000205A00205900580020204D694A
:1003A0006E3A20004F6E20004F666600536F6674F1
:1003B00020656E6473746F70733A2000486F7465C3
:1003C0006E64206F6666736574733A0020466C6FC6
:1003D000773A2000000136372603FFFFFF353C3D0A
:1003E000380EFFFFFF312E303E12FFFFFFFF28FFC8
:1003F0000C0809FFFFFF1A1C18FFFF2A24221EFF0A
:10040000FF2C08440AFF4307FF45206F7574206FD7
:10041000662072616E67650A00536572766F200010
:100420003A200020536572766F2000496E76616C29
:1004300069642065787472756465720A0020643A94
:100440000020693A0020703A0020653A0043290AEA
:100450000061626C656420286D696E2074656D7042
:100460002000436F6C642065787472756465732036
:1004700061726520004B64200023646566696E65C7
:100480002044454641554C545F004B69200023648D
:100490006566696E652044454641554C545F004B86
:1004A00070200023646566696E65204445464155A9
:1004B0004C545F00504944204175746F74756E65EB
:1004C0002066696E697368656421205075742074B4
:1004D0006865206C617374204B702C204B6920611F
:1004E0006E64204B6420636F6E7374616E7473204E
:1004F00066726F6D2062656C6F7720696E746F2015
:10050000436F6E66696775726174696F6E2E680AF3
:1005100000504944204175746F74756E65206661A2
:10052000696C6564212074696D656F75740A004299
:10053000454420544845524D414C2052554E415758
:10054000415900546865726D616C2052756E617717
:10055000617900453120544845524D414C20525557
:100560004E4157415900453220544845524D414C67
:100570002052554E415741590042656420686561DB
:1005800074696E67206661696C65640048656174B2
:10059000696E67206661696C656400453120486555
:1005A0006174696E67206661696C6564004532201C
:1005B00048656174696E67206661696C65640050A6
:1005C0004944204175746F74756E65206661696C6D
:1005D0006564212054656D70657261747572652063
:1005E000746F6F20686967680A00204B643A2000C6
:1005F000204B693A2000204B703A20000A20436CBF
:10060000617373696320504944200A002054753A8D
:100610002000204B753A2000206D61783A200020A0
:100620006D696E3A200020643A200020626961738F
:100630003A2000504944204175746F74756E6520EE
:100640006661696C6564212054656D7065726174C2
:1006500075726520746F6F20686967680A00504979
:1006600044204175746F74756E6520737461727483
:100670000A00504944204175746F74756E65206698
:1006800061696C65642120426164206578747275CB
:10069000646572206E756D6265720A0020643A00AE
:1006A00020693A0020703A004E6F20636173652024
:1006B0006C696768740A004D65736820706F696EB5
:1006C000742063616E6E6F74206265207265736F53
:1006D0006C7665640A004D34323120696E636F7246
:1006E0007265637420706172616D657465722075E6
:1006F000736167650A00454550524F4D204F4B0AC4
:10070000003A200050726F6265205A204F6666736F
:100710006574003F5A206F7574206F662072616E99
:10072000676520282D323020746F203230290A006E
:100730003C3C3C2067636F64655F540A00203A20AC
:1007400041465445520A00202063757272656E74EA
:100750005F706F736974696F6E3D00203A20424587
:10076000464F52450A00202063757272656E745FB1
:10077000706F736974696F6E3D003E3E3E20676323
:100780006F64655F5428002C20002C2000203A2044
:1007900073796E635F706C616E5F706F736974699B
:1007A0006F6E0A00202063757272656E745F706FE1
:1007B000736974696F6E3D00656E71756575656905
:1007C0006E672022004C696E65204E756D62657201
:1007D000206973206E6F74204C617374204C696EB5
:1007E00065204E756D6265722B312C204C617374DF
:1007F000204C696E653A20005072696E74657220F3
:1008000073746F707065642064756520746F206503
:1008100072726F72732E2046697820746865206545
:1008200072726F7220616E6420757365204D393964
:100830003920746F20726573746172742E2028548D
:10084000656D70657261747572652069732072657B
:100850007365742E20536574206974206166746515
:10086000722072657374617274696E67290A004E32
:100870006F20436865636B73756D207769746820BA
:100880006C696E65206E756D6265722C204C6173AB
:1008900074204C696E653A2000636865636B7375FC
:1008A0006D206D69736D617463682C204C61737485
:1008B000204C696E653A20004D3131300020496E80
:1008C00076616C6964206578747275646572200065
:1008D00000000000000020C1000040C000004843AC
:1008E00000808943000052430A20736F66745F657D
:1008F0006E6473746F705F6D6178203D20000A2014
:10090000736F66745F656E6473746F705F6D696E2C
:10091000203D20000A20706F736974696F6E5F73E9
:1009200068696674203D200020617869733A0A2066
:10093000686F6D655F6F6666736574203D20004665
:100940006F7220003C3C3C20646F5F626C6F636B95
:10095000696E675F6D6F76655F746F0A003E3E3E3D
:1009600020646F5F626C6F636B696E675F6D6F763B
:10097000655F746F00203A2073657475705F666FF1
:10098000725F656E6473746F705F6F725F70726FA9
:1009900062655F6D6F76650A00202063757272650F
:1009A0006E745F706F736974696F6E3D00203A20DA
:1009B000636C65616E5F75705F61667465725F65BB
:1009C0006E6473746F705F6F725F70726F62655F79
:1009D0006D6F76650A00202063757272656E745FB4
:1009E000706F736974696F6E3D00646F5F70726FD2
:1009F00062655F726169736528006465706C6F7908
:100A00003A2000203A207365745F70726F62655FF0
:100A10006465706C6F7965640A002020637572727A
:100A2000656E745F706F736974696F6E3D00203A14
:100A3000203C3C3C20646F5F70726F62655F6D6F3D
:100A400076650A00202063757272656E745F706F40
:100A5000736974696F6E3D00203A203E3E3E20640B
:100A60006F5F70726F62655F6D6F76650A00202040
:100A700063757272656E745F706F736974696F6E9F
:100A80003D0072657365745F6265645F6C65766571
:100A90006C0A002028646F6E65290A00457874721C
:100AA00061706F6C617465205B004B494C4C454430
:100AB0002E2000202D20496E76616C6964206578B7
:100AC000747275646572206E756D62657220210A9C
:100AD000002020506C616E6E6572427566666572AC
:100AE00042797465733A20002046726565204D6531
:100AF0006D6F72793A2000436F6D70696C65643A6E
:100B00002046656220323720323032300A00207CA5
:100B100020417574686F723A20286E6F6E652C20C4
:100B200064656661756C7420636F6E666967290A17
:100B300000323031382D30382D303100204C617387
:100B40007420557064617465643A2000312E312E32
:100B5000342E392E330A004D61726C696E002053B9
:100B60006F6674776172652052657365740A002040
:100B70005761746368646F672052657365740A0017
:100B80002042726F776E206F7574205265736574A2
:100B90000A002045787465726E616C205265736539
:100BA000740A00506F77657255700A007374617231
:100BB000740A00205A3A0020593A0020583A006539
:100BC0006E6473746F7073206869743A2000627584
:100BD00073793A2070617573656420666F7220695D
:100BE0006E7075740A00627573793A20706175735E
:100BF000656420666F7220757365720A0062757392
:100C0000793A2070726F63657373696E670A004B7F
:100C1000494C4C45442E20004B494C4C2063617597
:100C200073656420627920746F6F206D756368202E
:100C3000696E6163746976652074696D65202D2025
:100C400063757272656E7420636F6D6D616E643A68
:100C500020005072696E7465722068616C746564FE
:100C60002E206B696C6C28292063616C6C65642193
:100C70000A000000000000000000000000003C3CF2
:100C80003C207365745F617869735F69735F617439
:100C90005F686F6D652800203A200A002020637588
:100CA0007272656E745F706F736974696F6E3D0008
:100CB0005D203D20003E20686F6D655F6F66667346
:100CC00065745B003E207A70726F62655F7A6F6652
:100CD00066736574203D20002A2A2A205A20484F36
:100CE0004D454420574954482050524F42452028F2
:100CF0005A5F4D494E5F50524F42455F55534553E1
:100D00005F5A5F4D494E5F454E4453544F505F50BC
:100D1000494E29202A2A2A0A003E3E3E2073657445
:100D20005F617869735F69735F61745F686F6D6538
:100D30002800000020420000204200002041000066
:100D400000005761726E696E673A20486F6D696E78
:100D5000672042756D702044697669736F72203C1C
:100D600020310A000202040000A0400000A0400060
:100D70000000400000484300808E43000055433C83
:100D80003C3C20686F6D65617869732800203A20CB
:100D90003E204146544552207365745F6178697303
:100DA0005F69735F61745F686F6D650A002020631F
:100DB000757272656E745F706F736974696F6E3D82
:100DC00000486F6D65203220536C6F773A0A004DF2
:100DD0006F766520417761793A0A00486F6D65202A
:100DE0003120466173743A0A00FFFFFF3E3E3E2009
:100DF000686F6D656178697328004C4556454C49AC
:100E00004E4700434F4D4D554E49434154494F4E77
:100E10000044525952554E004552524F52530049C8
:100E20004E464F004543484F0050726F74656374DF
:100E300065642050696E0A005374616E6461726467
:100E400020446576696174696F6E3A2000205261B2
:100E50006E67653A2000204D61783A2000204D6988
:100E60006E3A20004D65616E3A200046696E6973E6
:100E7000686564210A002072616E67653A2000206F
:100E80006D61783A2000206D696E3A200020736908
:100E9000676D613A2000206D65616E3A20003A204E
:100EA0007A3A2000206F662000205A002059002046
:100EB0005800476F696E6720746F3A00436C6F6328
:100EC0006B776973650A00436F756E7465722D00E8
:100ED00020446972656374696F6E3A200020202097
:100EE000616E676C653A20005374617274696E6755
:100EF000207261646975733A2000506F7369746978
:100F00006F6E696E67207468652070726F62652EFF
:100F10002E2E0A003F4E756D626572206F66206C42
:100F200065677320696E206D6F76656D656E7420E0
:100F30006E6F7420706C61757369626C6520283007
:100F40002D3135292E0A003F2028582C5929206F91
:100F50007574206F6620626F756E64732E0A003F91
:100F600053616D706C652073697A65206E6F7420B3
:100F7000706C61757369626C652028342D35302979
:100F80002E0A004D3438205A2D50726F626520525F
:100F900065706561746162696C6974792054657308
:100FA000740A003F2856296572626F7365206C656C
:100FB00076656C20697320696D706C617573696208
:100FC0006C652028302D34292E0A006F6B002057C5
:100FD0003A00240E1F0E180E110E030EFA0D6F6646
:100FE000660044454255473A0024F4D43050C38E3D
:100FF00020C2A24017828B7011127A910D816CD998
:101000000AA861E108C7586607615143061E4B5D97
:1010100005C145A7041A411104093D9803713931EE
:10102000034036DB0265339102D4305402802E1D1A
:1010300002632CEE01752AC501B028A0011027819A
:10104000018F2564012B244B01E0223401AC211FC8
:10105000018D200D01801FFC00841EED00971DDF17
:1010600000B81CD200E61BC600201BBC00641AB2EC
:1010700000B219A8000A19A0006A189900D11791A6
:101080000040178B00B516840031167E00B3157929
:10109000003A157300C7146F0058146A00EE136607
:1010A000008813630025135E00C7125B006C1257A3
:1010B0000015125400C111510070114F0021114B45
:1010C00000D61049008D104700461044000210421F
:1010D00000C00F4000800F3E00420F3C00060F3B57
:1010E00000CB0E3800930E37005C0E3500270E340F
:1010F00000F30D3200C10D3100900D3000600D2E57
:1011000000320D2D00050D2C00D90C2B00AE0C2942
:1011100000850C29005C0C2700350C27000E0C26DE
:1011200000E80B2400C40B2400A00B23007D0B233C
:10113000005A0B2100390B2100180B2000F80A1F60
:1011400000D90A1E00BB0A1E009D0A1D00800A1D50
:1011500000630A1C00470A1B002C0A1B00110A1A14
:1011600000F7091A00DD091900C4091900AB0919B3
:1011700000920917007B091800630917004C091633
:101180000036091600200916000A091500F5081591
:1011900000E0081400CC081400B8081400A40814D7
:1011A00000900813007D0812006B08130058081205
:1011B000004608120034081100230811001208111B
:1011C0000001081100F0071000E0071000D0071020
:1011D00000C0071000B0070F00A107100091070E14
:1011E0000083070F0074070F0065070E0057070EF6
:1011F0000049070E003B070D002E070E0020070DCB
:101200000013070D0006070D00F9060C00ED060D92
:1012100000E0060C00D4060C00C8060C00BC060C4E
:1012200000B0060C00A4060B0099060C008D060BFE
:101230000082060B0077060B006C060B0061060AA5
:101240000057060B004C060A0042060A0038060A40
:10125000002E060A0024060A001A060A00100609D3
:101260000007060A00FD050900F4050900EB050961
:1012700000E2050900D9050900D0050900C70509E4
:1012800000BE050900B5050800AD050800A5050963
:10129000009C050800940508008C050800840508DA
:1012A000007C050800740508006C0507006505084A
:1012B000005D050700560508004E050700470507B5
:1012C000004005080038050700310507002A05071A
:1012D00000230507001C050600160507000F05077B
:1012E000000805060002050700FB040600F50407D8
:1012F00000EE040600E8040600E2040700DB040632
:1013000000D5040600CF040600C9040600C3040685
:1013100000BD040600B7040600B1040500AC0406D5
:1013200000A6040600A00405009B04060095040521
:1013300000900406008A0405008504050080040668
:10134000007A04050075040500700405006B0405AF
:101350000066040500610405005C040500570405EF
:1013600000520405004D040500480405004304052F
:10137000003E0404003A040500350405003004046E
:10138000002C04050027040400230405001E0404A7
:10139000001A04040016040500110404000D0404DE
:1013A00000090405000404040000040400FC030414
:1013B00000F8030400F4030400F0030400EC030449
:1013C00000E8030400E4030400E0030400DC030479
:1013D00000D8030400D4030400D0030400CC0304A9
:1013E00000C8030300C503030024F404D9201BC470
:1013F0000C5C0E9804C4095F0265077101F405F9DD
:1014000000FB04B30048048700C10369005803557A
:101410000003034500BE023A008402310053022A51
:10142000002902250004022000E4011C00C8011963
:1014300000AF01170098011400840113007101101E
:10144000006101100051010E0043010D0036010B37
:10145000002B010B0020010B00150109000C0109F4
:101460000003010800FB000800F3000800EB000780
:1014700000E4000600DE000600D8000600D20006E8
:1014800000CC000500C7000500C2000500BD000437
:1014900000B9000400B5000400B1000400AD000470
:1014A00000A9000400A5000300A20003009F00049F
:1014B000009B0003009800030095000200930003C6
:1014C00000900003008D0002008B000300880002E2
:1014D000008600020084000300810002007F0002F9
:1014E000007D0002007B000200790002007700010D
:1014F0000076000200740002007200010071000218
:10150000006F0002006D0001006C0002006A000123
:10151000006900020067000100660001006500012B
:10152000006400020062000100610001006000012F
:10153000005F0002005D0001005C0001005B000133
:10154000005A000100590001005800010057000135
:101550000056000100550001005400010053000036
:101560000053000100520001005100010050000131
:10157000004F0001004E0000004E0001004D000130
:10158000004C0001004B0000004B0001004A00012C
:101590000049000100480000004800010047000128
:1015A0000046000000460001004500000045000123
:1015B000004400010043000000430001004200001D
:1015C0000042000100410000004100010040000114
:1015D000003F0000003F0001003E0000003E00010F
:1015E000003D0000003D0001003C0000003C000008
:1015F000003C0001003B0000003B0001003A0000FD
:10160000003A0001003900000039000100380000F4
:1016100000380000003800010037000000370001EA
:1016200000360000003600000036000100350000E2
:1016300000350000003500010034000000340000D7
:1016400000340001003300000033000000330001CB
:1016500000320000003200000032000100310000C2
:1016600000310000003100010030000000300000B7
:1016700000300001002F0000002F0000002F0000AC
:10168000002F0001002E0000002E0000002E00019F
:10169000002D0000002D0000002D0000002D000195
:1016A000002C0000002C0000002C0000002C000189
:1016B000002B0000002B0000002B0000002B00017D
:1016C000002A0000002A0000002A0000002A000171
:1016D0000029000000290000002900000029000066
:1016E0000029000100280000002800000028000058
:1016F000002800000028000100270000002700004B
:10170000002700000027000000270001002600003D
:101710000026000000260000002600000026000130
:101720000025000000250000002500000025000025
:101730000025000000250001002400000024000016
:101740000024000000240000002400010023000009
:1017500000230000002300000023000000230000FD
:1017600000230000002300010022000000220000EE
:1017700000220000002200000022000000220001E0
:1017800000210000002100000021000000210000D5
:1017900000210000002100000021000100200000C5
:1017A00000200000002000000020000000200000B9
:1017B000002000000020000000200001001F0000A9
:1017C000001F0000001F0000001F0000001F00009D
:1017D000001F0000001F0001001E0000001E00008E
:1017E000001E0000001E000000043700001E29003B
:1017F00000511B00005810000010090000CC04002C
:1018000000780200004101000020746F6F206C6FAF
:101810006E6720657874727573696F6E207072657B
:1018200076656E7465640A0020636F6C6420657869
:1018300074727573696F6E2070726576656E74650B
:10184000640A004572726F722077726974696E67FC
:1018500020746F20454550524F4D210A00290A003F
:101860002062797465733B20637263200053657452
:1018700074696E67732053746F7265642028004228
:10188000696C696E656172204C6576656C696E671E
:1018900020477269643A0A00537562646976696424
:1018A00065642077697468204341544D554C4C2041
:1018B000524F4D204C6576656C696E6720477269A2
:1018C000643A0A003C3C3C20646F5F686F6D696E4F
:1018D000675F6D6F766528005B00290A002C200089
:1018E0002C20003E3E3E20646F5F686F6D696E671E
:1018F0005F6D6F7665280047322F47332062616441
:1019000020706172616D65746572730A0020280031
:1019100041424C2041646A7573746D656E74205A3F
:101920000020480020570020590042696C696E650C
:10193000617220477269642058005A2046616465CC
:101940003A20002028656E61626C6564290A0020D7
:101950002864697361626C6564290A0042494C49D4
:101960004E454152004175746F20426564204C65BC
:1019700076656C696E673A2000204E6F7A7A6C65E6
:10198000290A0020262041626F7665002026205318
:10199000616D65205A2061730020262042656C6FBE
:1019A00077002D4261636B002028526967687400DC
:1019B000205A3A0020593A0050726F6265204F66F3
:1019C0006673657420583A004649585F4D4F554E2E
:1019D0005445445F50524F42450A0050726F626551
:1019E0003A2000436F72650A004D616368696E6555
:1019F00020547970653A20006265640A002C2073D7
:101A0000797374656D2073746F70706564212048FC
:101A100065617465725F49443A20004D41585445F0
:101A20004D5020747269676765726564004D494E58
:101A300054454D5020747269676765726564004251
:101A400065642068656174696E67206661696C65AC
:101A5000640048656174696E67206661696C6564DD
:101A60000048656174696E67206661696C65640031
:101A700045312048656174696E67206661696C65EF
:101A8000640045322048656174696E67206661694B
:101A90006C6564004B494C4C45442E2000202F00BF
:101AA0004D313133205300205A3A0020423A002071
:101AB000436F756E7420413A0020453A00205A3A2F
:101AC0000020593A00583A002C20002C20003A00FF
:101AD0004361703A00544845524D414C5F50524F5B
:101AE00054454354494F4E004155544F5245504F71
:101AF00052545F53445F53544154555300454D4530
:101B00005247454E43595F5041525345520043415D
:101B100053455F4C494748545F4252494748544EE9
:101B200045535300544F47474C455F4C4947485431
:101B30005300534F4654574152455F504F574552FB
:101B4000004255494C445F50455243454E54004C69
:101B50004556454C494E475F44415441005A5F50F9
:101B6000524F4245004155544F4C4556454C00504C
:101B700052494E545F4A4F420050524F47524553CC
:101B800053004155544F5245504F52545F54454DA8
:101B90005000564F4C554D45545249430045455011
:101BA000524F4D0053455249414C5F584F4E5F587C
:101BB0004F4646004649524D574152455F4E414DB2
:101BC000453A4D61726C696E20312E312E342E39BA
:101BD0002E3320284769746875622920534F555267
:101BE00043455F434F44455F55524C3A68747470A7
:101BF000733A2F2F6769746875622E636F6D2F4D6E
:101C000061726C696E4669726D776172652F4D61A4
:101C1000726C696E2050524F544F434F4C5F564583
:101C20005253494F4E3A312E30204D414348494E90
:101C3000455F545950453A3344205072696E74657B
:101C4000722045585452554445525F434F554E54A7
:101C50003A3220555549443A6365646532613266CB
:101C60002D343161322D343734382D396231322DF3
:101C70006335356336326633363766660A004F663B
:101C8000660A0046616465204865696768742000DB
:101C9000426564204C6576656C696E67200046611C
:101CA000696C656420746F20656E61626C652042AA
:101CB0006564204C6576656C696E670A00496E76CE
:101CC000616C69642065787472756465720A00419C
:101CD00063746976652045787472756465723A201C
:101CE00000203A204D6F7665206261636B0A002008
:101CF0002064657374696E6174696F6E3D00207D48
:101D00000A002C20004F666673657420546F6F6C58
:101D1000205859206279207B20004E6F206D6F760D
:101D200065206F6E20746F6F6C6368616E67650A03
:101D30000070012C0190012701B0012201C0011D9A
:101D400001F00118011002130130020E01600209B6
:101D50000190020401C002FF000003FA004003F5F5
:101D6000008003F000D003EB002004E6007004E1E3
:101D700000E004DC004005D700C005D2004006CDDD
:101D800000D006C8008007C3003008BE00F008B9C4
:101D900000C009B400B00AAF00B00BAA00D00CA577
:101DA00000000EA000500F9B00C010960050129132
:101DB0000000148C00C0158700B0178200B0197D98
:101DC00000D01B7800001E730040206E0090226936
:101DD00000F024640040275F0090295A00E02B5552
:101DE00000102E500020304B0010324600E03341EE
:101DF0000090353C001037370070383200A0392D84
:101E000000B03A2800A03B2300603C1E00103D19A2
:101E100000903D1400103E0F00703E0A00C03E05C9
:101E200000003F0000403FFBFF803FF6FFC03FF156
:101E3000FF2040002042403A0020403A00000021AC
:101E400000240027002A002D00300033000101008B
:101E500000040107010A0100002200250028002BD0
:101E6000002E003100340002010000050108010BC2
:101E700001000020002300260029002C002F003242
:101E80000000010000030106010901050505050721
:101E90000508080808020202020A0A0808040404E5
:101EA0000401010101010101010303030303030311
:101EB00003040707070C0C0C0C0C0C0C0C020202A0
:101EC0000206060606060606060B0B0B0B0B0B0B93
:101ED0000B01021020200808102040102040800232
:101EE0000102010804020101020408102040808060
:101EF00040201008040201800402018040201008E4
:101F000004020108040201010204081020408001BB
:101F10000204081020408000000A0B02090C0D0E7C
:101F2000080703040100000000000000000000009A
:101F300000000000000000000000000000000000A1
:101F4000000000121110000000000000000000005E
:101F50000000000000000000000000000048617266
:101F600064636F6465642044656661756C742053B6
:101F7000657474696E6773204C6F616465640A00F0
:101F8000DC050000DC050000DC050000DC050000CD
:101F900000007A4400007A4400007A440000C842FD
:101FA0000000A0420000A0420000484400004C4352
:101FB0003A0A0020286D6D290020204D3835312047
:101FC0005A005A2D50726F6265204F6666736574B1
:101FD0000020440020490020204D333034205000A0
:101FE00020440020490020204D3330312050002073
:101FF000440020490020500020204D33303120453E
:10200000005049442073657474696E67733A0A001E
:10201000205A00204A00202047323920572049000A
:10202000205A0020204D3432302053004175746F07
:1020300020426564204C6576656C696E673A0A00DB
:1020400020590020580020204D32313820540048BB
:102050006F74656E64206F6666736574733A0A0008
:10206000205A0020590020204D3230362058004898
:102070006F6D65206F66667365743A0A00204500CF
:10208000205A0020590020580020540020530020DE
:10209000204D32303520510020453C6D61785F6520
:1020A0005F6A65726B3E0020583C6D61785F785FB7
:1020B0006A65726B3E20593C6D61785F795F6A6535
:1020C000726B3E205A3C6D61785F7A5F6A65726B15
:1020D0003E00416476616E6365643A20513C6D69EF
:1020E0006E5F7365676D656E745F74696D655F754E
:1020F000733E20533C6D696E5F6665656472617402
:10210000653E20543C6D696E5F74726176656C5FEC
:1021100066656564726174653E002054002052005B
:1021200020204D323034205000416363656C65726D
:102130006174696F6E2028756E6974732F7332290C
:102140003A20503C7072696E745F616363656C3EE7
:1021500020523C726574726163745F616363656C85
:102160003E20543C74726176656C5F616363656C9C
:102170003E0A00204500205A0020590020204D3200
:1021800030312058004D6178696D756D2041636371
:10219000656C65726174696F6E2028756E69747301
:1021A0002F7332293A0A00204500205A0020590096
:1021B00020204D3230332058004D6178696D756DA7
:1021C000206665656472617465732028756E697434
:1021D000732F73293A0A00204500205A0020590025
:1021E00020204D393220580053746570732070657B
:1021F0007220756E69743A0A0020204D323030200A
:1022000044300A0020204D32303020543120440028
:1022100020204D3230302044002044697361626CCC
:1022200065640A0046696C616D656E74207365743F
:1022300074696E67733A00202047323120202020D5
:102240003B00290A002062797465733B2063726346
:1022500020002073746F7265642073657474696EF6
:102260006773207265747269657665642028002042
:102270002863616C63756C6174656429210A0020B0
:10228000213D2000454550524F4D20435243206D83
:1022900069736D61746368202D202873746F726593
:1022A000642920002053697A653A2000496E6465EC
:1022B000783A2000204D61726C696E3D56353729A1
:1022C0000A0028454550524F4D3D00454550524F5C
:1022D0004D2076657273696F6E206D69736D6174E0
:1022E00063682000486F6D696E67206661696C6580
:1022F0006400545249474745524544006F70656E2B
:10230000003A20007A5F6D696E00795F6D696E003A
:10231000785F6D696E005265706F7274696E6720C8
:10232000656E6473746F70207374617475730A00E2
:102330003C3C3C204732390A0020636F727265636F
:10234000746564205A3A0047323920756E636F72A3
:10235000726563746564205A3A00203A203E20700A
:10236000726F62696E6720636F6D706C6574650A69
:1023700000202063757272656E745F706F7369748C
:10238000696F6E3D00202844525952554E2900472E
:102390003239204175746F20426564204C65766542
:1023A0006C696E67003F20284C2C522C462C422929
:1023B000206F7574206F6620626F756E64732E0ACD
:1023C000003F2856296572626F7365206C657665DB
:1023D0006C20697320696D706C61757369626C65DE
:1023E0002028302D34292E0A00426164205A20769C
:1023F000616C75650A004E6F2062696C696E65617B
:102400007220677269640A003C3C3C204732390AFA
:10241000003E204175746F2D6C6576656C206E6F83
:1024200074206E65656465642C20736B69700A00A6
:10243000203A203E3E3E204732390A002020637574
:102440007272656E745F706F736974696F6E3D0050
:102450002066697273740A005A0059005800486F68
:102460006D6520006563686F3A004572726F723A5D
:102470000042454420544845524D414C2052554E4F
:102480004157415900546865726D616C2052756EF8
:102490006177617900453120544845524D414C20C7
:1024A00052554E4157415900453220544845524DEE
:1024B000414C2052554E4157415900526573656E4B
:1024C000643A20006F6B0020746F6F206C6F6E6732
:1024D00020657874727573696F6E207072657665A9
:1024E0006E7465640A0020636F6C64206578747292
:1024F0007573696F6E2070726576656E7465640AB7
:1025000000556E6B6E6F776E20636F6D6D616E64DC
:102510003A202200203A203C3C3C2072756E5F7AC3
:102520005F70726F62650A00202063757272656E5B
:10253000745F706F736974696F6E3D0020446973D6
:1025400063726570616E63793A00326E6420507216
:102550006F6265205A3A00203A203C3C3C2072755C
:102560006E5F7A5F70726F62650A00202063757219
:1025700072656E745F706F736974696F6E3D00533E
:102580004C4F572050726F6265206661696C210A5A
:10259000003173742050726F6265205A3A00203AFD
:1025A000203C3C3C2072756E5F7A5F70726F626592
:1025B0000A00202063757272656E745F706F7369B4
:1025C00074696F6E3D00464153542050726F6265CE
:1025D000206661696C210A00203A203E3E3E20724E
:1025E000756E5F7A5F70726F62650A002020637596
:1025F0007272656E745F706F736974696F6E3D009F
:102600003C3C3C2070726F62655F70740A005072CF
:102610006F62696E67206661696C65640A00205AA2
:102620003A200020593A200042656420583A2000A0
:10263000203A200A00202063757272656E745F7004
:102640006F736974696F6E3D005F72656C61746968
:102650007665290A002C20002C20002C20002C203C
:10266000003E3E3E2070726F62655F70742800000D
:1026700044C911241FBECFEFD1E2DEBFCDBF00E0C1
:102680000CBF14E0A0E0B2E0E0EDFBEA01E00BBF1C
:1026900002C007900D92A834B107D9F723E1A8E44E
:1026A000B4E001C01D92A133B207E1F713E1C9E321
:1026B000D3E100E006C021970109802FFE010E94AE
:1026C00077D5C833D10780E00807A9F70E944BC32C
:1026D0000C94E6D50C9400002F923F924F925F929B
:1026E0006F927F928F929F92AF92BF92CF92DF9222
:1026F000EF92FF920F931F93CF93DF93CDB7DEB787
:10270000C656D1090FB6F894DEBF0FBECDBF41E06B
:102710004093C00680912B058D3409F4D0C48435D4
:1027200011F40C94A429873411F00C94E52A20911B
:10273000290530912A052C31310509F46FC084F444
:10274000243031054CF42230310554F537FDB3C443
:102750000E94CD7A0C94E72A2430310551F1ABC4A4
:102760002A32310509F4C1C34CF42D31310509F485
:10277000E3C22E31310509F4E3C29DC42B35310586
:1027800009F48FC42C35310509F491C42A3531057B
:1027900009F091C410924D0410926E0E0C94E72A29
:1027A00081E02230310509F080E00E947F740C94B2
:1027B000E72A80E50E944F30882329F00E94952F58
:1027C0006B017C0103C0C12CD12C760183E50E94F2
:1027D0004F30882361F00E94D52F20E030E04AE797
:1027E00054E40E9477CE0E94C5D36B017C010E9405
:1027F000D9670E943291C60ED71EE81EF91E0E94AC
:102800003291DC01CB018C199D09AE09BF09B7FDDE
:1028100002C00C94E72A0E94F73DF1CF0E94CA4300
:1028200021E040E050E0BA0180E00E941F888091E2
:10283000E21285FF0EC0E3E9F2E084918F010F5FA1
:102840001F4F882321F00E94FD30F801F6CF0E942F
:10285000F1728091D1128770873071F58FE40E94F8
:102860004F30882369F00E94C62F882329F1809178
:10287000E21285FD02C00C94E72AE8E7F2E004C00A
:102880008FE40E940830F1CF84918F010F5F1F4FBA
:10289000882321F00E94FD30F801F6CFEFE6F2E048
:1028A00084918F010F5F1F4F882311F40C94E72A46
:1028B0000E94FD30F801F4CF0E94D96780E00E94A9
:1028C0002A382091A30E28A721E040E050E0BA0169
:1028D00080E00E941F880E94A2378091E21285FF4B
:1028E0000CC0E6E5F2E084918F010F5F1F4F882353
:1028F00021F00E94FD30F801F6CF11E01093F204B0
:1029000088E50E9408308AA389E50E940830282EB5
:102910008AE50E9408308EA33AA1311105C021102A
:1029200005C0382E312605C0211002C0312C01C04F
:102930003EA00E94E93082E50E944F30882361F07A
:102940000E94D52F6B017C0120E030E0A9010E949C
:1029500012CE8823E9F106C0C12CD12C10EAE12E59
:1029600010E4F12E311006C04AA1411103C022200B
:1029700009F421C1C092E206D092E306E092E40697
:10298000F092E5062091AF0E3091B00E4091B10E5D
:102990005091B20EC701B6010E94A2D41816C4F419
:1029A0008091E21285FF09C0B701A6018AE392E097
:1029B0000E94B9588AE00E94FD3019821A821B8257
:1029C0001C82BE016F5F7F4F82EE96E00E947E36D2
:1029D000311007C05AA1552309F4DEC0222009F4A2
:1029E000E5C01092AB0E1092AC0E1092AD0E10928C
:1029F000AE0E1092A70E1092A80E1092A90E109271
:102A0000AA0E0E94CC37E9EEFDE0949199A7E3E786
:102A1000FDE085909590A590B490E7E7FDE0C59026
:102A2000D590E590F490A7019601C501B4010E94EC
:102A3000A2D418162CF4A5019401C701B60104C054
:102A4000A7019601C501B4010E9458D32B013C0196
:102A5000E6E3FDE025913591459154912A8F3B8F16
:102A60004C8F5D8FE2E3FDE085919591A591B49146
:102A70008E8F9F8FA8A3B9A3BC01CD010E9412CE57
:102A800087FD07C01A8D0B8D9C8D9FA3AD8DAA8FDE
:102A900006C01E8D0F8DB8A1BFA3E9A1EA8FA301C7
:102AA0009201C301B2010E9477CE20E030E040E8FD
:102AB0005FE30E947CD20E94E7D49B01AC01612FAE
:102AC000702F8FA19A8D0E9477CE69837A838B8332
:102AD0009C83EAEEFDE014912091AF0E3091B00E90
:102AE0004091B10E5091B20E2A8F3B8F4C8F5D8F6B
:102AF00020E030E040EC5FE3C701B6010E9477CEF2
:102B00006B017C01612F110F770B880B990B0E94D1
:102B100018CE9B01AC01C701B6010E9477CE2B01F4
:102B20003C0120E030E040EC5FE3C501B4010E94CD
:102B300077CE6B017C0139A5632F330F770B880BA0
:102B4000990B0E9418CE9B01AC01C701B6010E94EF
:102B500077CEAE014F5F5F4F6A01EA8CFB8C0C8D24
:102B60001D8DA30192010E9450350E94EFA8109282
:102B7000AB0E1092AC0E1092AD0E1092AE0E1092E3
:102B8000A70E1092A80E1092A90E1092AA0E311044
:102B900005C0211003C007C0222069F081E00E9417
:102BA0000C3B311003C08AA1882329F080E00E94E9
:102BB0000C3B311004C05EA1552309F498C08091EC
:102BC000D11283708330C9F0E4E6F4E284918F017E
:102BD0000F5F1F4F882321F00E94FD30F801F6CFD0
:102BE000E2E2F2E084918F010F5F1F4F882309F426
:102BF0007EC00E94FD30F801F5CF8091E21285FF82
:102C00000CC0EFE0F2E084918F010F5F1F4F88232B
:102C100021F00E94FD30F801F6CF0E94CC37809160
:102C2000AF0E9091B00EA091B10EB091B20E809304
:102C3000E2069093E306A093E406B093E50680E0F5
:102C400090E0A0EAB2E48093DA069093DB06A093CA
:102C5000DC06B093DD0680E090E0A2EDB2E4809364
:102C6000DE069093DF06A093E006B093E106809124
:102C7000E21285FF08C04AED56E06EEE71E080E09A
:102C800092E00E949C3619821A821B821C82E0907C
:102C9000AF0EF090B00E0091B10E1091B20E2091D7
:102CA000DE063091DF064091E0065091E10660912A
:102CB000DA067091DB068091DC069091DD06DE017C
:102CC00011966D010E94503582E00E940C3B80916C
:102CD000E21285FF0CC0EBEDF1E084918F010F5FF4
:102CE0001F4F882321F00E94FD30F801F6CF0E948B
:102CF000CC378091F1048093F2040E947E3721E06A
:102D000040E050E0BA0188A50E941F880E94F18A25
:102D10008091E21285FD02C00C94E72AE1E3F2E023
:102D200084918F010F5F1F4F882311F40C94E72AC1
:102D30000E94FD30F801F4CF0E94FAA80C94E72A13
:102D4000C090A70ED090A80EE090A90EF090AA0E09
:102D500088E50E944F30811109C020E030E040EA50
:102D600051E4C701B6010E947CD202C00E94D52F57
:102D70006E8B7F8B888F998FC090AB0ED090AC0EEE
:102D8000E090AD0EF090AE0E89E50E944F308111BB
:102D900009C020E030E040E052E4C701B6010E94E3
:102DA0007CD202C00E94D52F9B01AC0169837A833B
:102DB0008B839C836E897F89888D998D0E94063DC7
:102DC000882311F40C94E72A80E00E942A380E949C
:102DD000A23785E40E944F30882321F00E94C62F3D
:102DE000182F04C085E40E94083011E086E50E9497
:102DF0004F30882321F00E94A52F262F01C021E00B
:102E0000412FBE016F5F7F4FCE0146960E946DBB82
:102E10006B017C019B01AC010E9428D581115FC030
:102E20008E889F88A88CB98C20E030E0A901C5016C
:102E3000B4010E9412CE87FD05C027E137EB41E5C2
:102E400058E304C027E137EB41E558EBC501B40175
:102E50000E947CD2AB01BC0186EA92E00E94B95884
:102E600089809A80AB80BC8020E030E0A901C50158
:102E7000B4010E9412CE87FD05C027E137EB41E582
:102E800058E304C027E137EB41E558EBC501B40135
:102E90000E947CD2AB01BC0181EA92E00E94B95849
:102EA00020E030E0A901C701B6010E9412CE87FDE3
:102EB00005C027E137EB41E558E304C027E137EBD4
:102EC00041E558EBC701B6010E947CD2AB01BC01C1
:102ED0008CE992E00E94B9588AE00E94FD300E947D
:102EE0007E370E94F18A0C94E72A8091440288235D
:102EF00011F40C94E72A89E40E944F30182F88239C
:102F000021F00E94A52FE62E01C0E12C8AE40E9448
:102F10004F30082F882331F00E94A52FF62E111173
:102F200004C00BC0F12C1123C1F0B4E0BE1510F0A9
:102F30000C943F2EEEEAF2E004C0E4E0EF15D0F38B
:102F40000CC084918F010F5F1F4F882311F40C94E4
:102F5000E72A0E94FD30F801F4CF0E94E9301123E6
:102F6000F1F02091D60D3091D70D4E2D4203B001D6
:102F7000439F700D11248091560E9091570E680F4B
:102F8000791F072E000C880B990B0E9418CE6093B6
:102F9000DA067093DB068093DC069093DD0600234F
:102FA000F1F02091D80D3091D90D5F2D5203B00171
:102FB000539F700D11242091580E3091590E620FBD
:102FC000731F072E000C880B990B0E9418CE60937C
:102FD000DE067093DF068093E0069093E10680E5BD
:102FE0000E944F308823E9F00E94C62F8823A9F160
:102FF0001123D9F020E030E040EA51E46091DA0694
:103000007091DB068091DC069091DD060E947BD2F8
:103010006093DA067093DB068093DC069093DD06FE
:1030200004C080E50E940830E1CF0023B1F020E029
:1030300030E040E052E46091DE067091DF0680915E
:10304000E0069091E1060E947BD26093DE067093C9
:10305000DF068093E0069093E10686E40E944F30FD
:103060008823D9F00E94D52F6B017C0120E030E04D
:10307000A9010E94A2D4181684F420E030E040E7B1
:1030800052E4C701B6010E9458D360936302709363
:10309000640280936502909366020E945FB30C9471
:1030A000E72A40934D0440936E0E0C94E72A0E9449
:1030B000AA4D0C94E72A0E944BBE0C94E72A8091FB
:1030C000290590912A058237910509F4CAC50CF0AB
:1030D000FCC08C34910509F41CC50CF08AC08B33FC
:1030E000910509F4AAC30CF059C08F31910509F478
:1030F00087C27CF48131910509F477C22CF40297E0
:1031000008F4EDC10C94A129429709F4A2C50C94CE
:10311000A1298033910509F424C32CF48A9709F47A
:1031200012C30C94A1298933910509F41EC3CA97CF
:1031300011F00C94A12980917B0E90917C0EA091AE
:103140007D0EB0917E0E80934E0490934F04A09319
:103150005004B093510481E08093790E40917F0E2A
:103160005091800E6091810E7091820E40935204B6
:1031700050935304609354047093550480937A0ED3
:103180001092780E1092770E10926F0E1092700EB1
:103190001092710E1092720E0C94E72A80349105F1
:1031A00009F4E8C394F48D33910509F4DBC30CF4FE
:1031B0005CC38E33910509F4D9C3CF9711F00C94F9
:1031C000A1290E94AB6F0C94E72A8B3491050CF077
:1031D0009CC48334910514F00C94E72A8134910542
:1031E00011F40C94E72A8234910509F4C7C30C94B6
:1031F000A1298C35910509F430C564F58135910517
:1032000009F40EC5A4F48E34910511F40C94E72A48
:103210000CF494C48F34910509F473C4803591057E
:1032200011F00C94A1290E94D2700C94E72A8335E6
:10323000910509F409C50CF403C58435910509F419
:1032400008C58535910511F00C94A1290E94628E64
:103250000C94E72A8C36910511F40C94E72AC4F4F7
:103260008936910509F4B1C434F48836910509F41E
:1032700069C40C94A1298A36910509F4CDC48B3612
:10328000910511F00C94A1290E94C5470C94E72ADE
:103290008F36910509F495C454F48D36910509F4DF
:1032A0009EC48E36910509F479C40C94A129803707
:1032B000910511F40C94E72A8137910511F00C94D3
:1032C000A1290E94D78E0C94E72A8831A1E09A07A1
:1032D00011F40C942E220CF077C0883C910509F46F
:1032E00017C5DCF58837910509F40CC5E4F485377A
:1032F000910511F40C94E72A4CF48337910511F0F1
:103300000C94A1290E94A28A0C94E72A8637910581
:1033100009F4ABC48737910511F00C94A1290E94E0
:10332000C6A80C94E72A8C38910509F45CC45CF4B7
:103330008937910511F00C94A1291092F204109292
:10334000F1040C94E72A8B39910509F444C48E3BAF
:10335000910509F44CC40C94A1298E3C910509F403
:10336000F3C5C4F48B3C910509F4D6C44CF4893CF4
:10337000910511F00C94A1290E94178A0C94E72A58
:103380008C3C910509F4E7C48D3C910509F45BC5BB
:103390000C94A1298C3D910509F4B1C754F4833DE7
:1033A000910509F4BCC68A3D910509F499C70C94AE
:1033B000A1298D3D910509F4B1C7823E910511F413
:1033C0000C94FF210C94A129843AE1E09E0711F4AA
:1033D0000C946B280CF03FC0833621E0920711F467
:1033E0000C944628DCF48E3241E0940711F40C94DE
:1033F000A6233CF48D32914011F40C94EE220C94EF
:10340000A1298F32B1E09B0711F40C94FA23803389
:10341000914011F40C94CB270C94A1298139F1E04F
:103420009F0711F40C945F284CF48039914011F0FF
:103430000C94A1290E94D9670C94E72A823941E0B3
:10344000940711F40C9465288A39914011F40C9476
:10345000E72A0C94A129863FA1E09A0711F40C9465
:103460000429E4F48C3AE1E09E0709F4B0C53CF489
:10347000853A914011F40C946E280C94A129843F54
:1034800031E0930711F40C940129853F914011F02C
:103490000C94A1290E9438A10C94E72A833553E0AB
:1034A000950711F40C9432296CF4873FB1E09B0727
:1034B00011F40C940729883F914011F40C941129C0
:1034C0000C94A1298B38F3E09F0711F40C94E72AA0
:1034D000873E934011F40C9491290C94A1290091FA
:1034E00027051091280580E50E944F30882361F060
:1034F0000E94952F6B017C01BB24B394672B682B32
:10350000692B31F4B12C04C0B12CC12CD12C760123
:1035100083E50E944F30882311F40C94EC2A0E941A
:10352000D52F20E030E04AE754E40E9477CE0E9495
:10353000C5D36B017C01B1100BC0672B682B692BC5
:1035400039F40115110521F0D8018C91811102C0C7
:10355000B12C02C0BB24B3940E94D967BB20C1F038
:10356000E4E6F4E284915F01BFEFAB1ABB0A882363
:1035700021F00E94FD30F501F5CFF80181918F0116
:10358000882319F00E94FD30F8CF8AE00E94FD30B8
:1035900083E08093C00681E080934804C114D10485
:1035A000E104F104D9F00E943291C60ED71EE81E44
:1035B000F91E0E943291DC01CB018C199D09AE09E4
:1035C000BF09B7FD04C0109248040C94E72A80910B
:1035D00048048823C1F30E94F73DEBCF8091480453
:1035E000882389F30E94F73DF9CF5F988A988091EC
:1035F0000801817080930601129847980C94E72A7D
:103600000E940987BCE3CB2ED12CE12CF12CA70121
:1036100096010E941ED2762E672ECA01B901A7011B
:1036200096010E941ED26B017C01CA01B90128E1FA
:1036300030E040E050E00E941ED24B015C01C90125
:103640006DE671E00E9450D58E010F5F1F4F61152E
:10365000710599F06F927F92DF92CF929F928F9235
:103660009F938F937F936F9385EF92E09F938F93B8
:103670001F930F930E94E3CD26C0009789F06F92AD
:103680007F92DF92CF929F928F929F938F9385EE3E
:1036900092E09F938F931F930F930E94E3CD13C0EB
:1036A00081149104A104B104B1F06F927F92DF9272
:1036B000CF929F928F9289ED92E09F938F931F9369
:1036C0000F930E94E3CD0FB6F894DEBF0FBECDBFBF
:1036D000E4E6F4E223C0C114D104E104F10469F08A
:1036E0006F927F92DF92CF9281ED92E09F938F93C2
:1036F0001F930F930E94E3CDE6CF6F927F928DECE4
:1037000092E09F938F931F930F930E94E3CD0F90AE
:103710000F900F900F900F900F90DACF84917F0150
:10372000BFEFEB1AFB0A882321F00E94FD30F7015E
:10373000F5CFB80189E093E00E9483BE8AE00E9441
:10374000FD300C94E72A83E50E944F3081110C94E0
:10375000F12A84E40E944F3081110C94F12A0C94D8
:10376000E72A0E943B480C94E72A85E40E9408302F
:10377000882379F181E090E02091F4043091F50400
:10378000232B11F080E090E09093F5048093F404F3
:103790000E945D508091F4049091F504892B19F4F6
:1037A00008E113E00EC00EE213E0F80181918F01F1
:1037B000882319F00E94FD30F8CF8AE00E94FD3086
:1037C00024C0D8018D918D018823B9F30E94FD306A
:1037D000F8CF2091010530910205409103055091E9
:1037E000040560916F0E7091700E8091710E909132
:1037F000720E0E947BD26093E2067093E306809380
:10380000E4069093E5060E945FB383E50E940830CA
:10381000882331F081E090E09093F7048093F604E0
:1038200082E50E940830882311F40C94E72A109254
:10383000F7041092F6040C94E72A1092A40E10924A
:10384000790E10924E0410924F0410925004109270
:10385000510410927A0E1092520410925304109256
:103860005404109255040C94E72A20E030E0A9019A
:103870006091C00E7091C10E8091C20E9091C30EE6
:103880000E9412CE882319F081E08093A40E10923A
:10389000730E1092740E1092750E1092760E109296
:1038A0008B0E10928C0E10928D0E10928E0E109226
:1038B0008F0E1092900E1092910E1092920E109206
:1038C0006F0E1092700E1092710E1092720E109276
:1038D000830E1092840E1092850E1092860E81E057
:1038E0008093500210927B0E10927C0E10927D0EEF
:1038F00010927E0E1092930E1092940E1092950ECE
:103900001092960E10929B0E10929C0E10929D0E8D
:1039100010929E0E1092870E1092880E1092890EB1
:1039200010928A0E8093510210927F0E1092800E98
:103930001092810E1092820E1092970E1092980E95
:103940001092990E10929A0E10929F0E1092A00E45
:103950001092A10E1092A20E1092780E1092770E75
:103960000C94E72A0E94D96F0C94E72A0E94C26F38
:103970000C94E72A0E94536F0C94E72A81E40E947A
:103980000830882351F00E94D52F6093B20D7093B8
:10399000B30D8093B40D9093B50D82E40E9408306E
:1039A000882351F00E94D52F6093AE0D7093AF0D18
:1039B0008093B00D9093B10D83E40E94083088236A
:1039C00051F00E94D52F6093AA0D7093AB0D809398
:1039D000AC0D9093AD0D84E40E940830882351F023
:1039E0000E94D52F6093A60D7093A70D8093A80D0C
:1039F0009093A90D82E50E940830882311F40C945D
:103A0000E72A0BE313E0F80181918F01882319F075
:103A10000E94FD30F8CF6091B20D7091B30D80918E
:103A2000B40D9091B50D42E00E94D0330EE313E047
:103A3000D8018D918D01882319F00E94FD30F8CFB7
:103A40006091AE0D7091AF0D8091B00D9091B10D60
:103A500042E00E94D03301E413E0F80181918F012C
:103A6000882319F00E94FD30F8CF6091AA0D709163
:103A7000AB0D8091AC0D9091AD0D42E00E94D03322
:103A800004E413E0D8018D918D01882319F00E9480
:103A9000FD30F8CF6091A60D7091A70D8091A80D13
:103AA0009091A90D42E00E94D03303ED13E0F8019C
:103AB00081918F01882301F10E94FD30F8CF0EE340
:103AC0001EE080E20E94FD30D8016D917D918D91C4
:103AD0009D918D0142E00E94D0338CE20E94FD3026
:103AE000F801648175818681978142E00E94D0331C
:103AF000FEE006341F0729F78AE00E94FD300C948F
:103B0000E72A87E493E00E94A03D0E94ABBE0C949C
:103B1000E72A8091DF04813011F00C94E72A82E0DB
:103B20008093DF040E9432916093D7047093D8048D
:103B30008093D9049093DA040C94E72A0E9409BF79
:103B40000C94E72A88E690E00E947A3381110C9465
:103B5000E72A8091E21283FF02C00C94E72A83E5F2
:103B60000E944F308823B1F00E94D52F0E94C0D30D
:103B7000DC01CB0160919C0D0E945B300E94D52F2F
:103B800020E030E04AEA52E40E9412CE181614F007
:103B90000E9409BF0E9479BF0C94E72A8EE40E941C
:103BA0004F30882311F40C94E72A0E94A52F6093CC
:103BB000C60E7093C70E8093C80E9093C90E0C94D6
:103BC000E72A0E9488450C94E72A0E941E4810921A
:103BD000C0060C94452E0E94F0470C94E72A0E94E0
:103BE00018460C94E72A0E94FF450C94E72A80911E
:103BF000E21283FF02C00C94E72A83E50E944F3053
:103C000089A781110C94352B82E50E944F308111D8
:103C10000C94352B0C94E72A0E94D4470C94E72A85
:103C20000E9457810E9443681092AA0C1092A90C1E
:103C300068EE73E080E090E00E9448920C94E72ADE
:103C400010924C040C94E72A81E080934C040C946D
:103C5000E72A0E947A8E0C94E72A0E94C48D0C9465
:103C6000E72A0E94898D0C94E72A0091270510917C
:103C7000280583E0D12C40E08150E9F0D8019C91E7
:103C8000292F2B7F2134C1F711962C912133A1F7D5
:103C9000913421F0953421F441E002C0DD24D39425
:103CA00098012E5F3F4F89012F5F3F4FF8019081B0
:103CB0009032C9F3E1CF442369F0E4E6F4E2849161
:103CC0007F012FEFE21AF20A882321F00E94FD30D3
:103CD000F701F5CFDD2069F0EAE1F3E084917F019F
:103CE0003FEFE31AF30A882321F00E94FD30F70129
:103CF000F5CFD8018D918D01882309F4FDCE0E9466
:103D0000FD30F7CF4093F2044093F1040C94E72A7E
:103D10000E943C8A0C94E72A7DE8E72E7CE0F72E8F
:103D200003E812E0E4E0DE2ED00EF80181918F016D
:103D30000E940830882341F00E94D52FD7016D934F
:103D40007D938D939C931397B4E0EB0EF11CD012EE
:103D5000ECCF0C94E72A83E50E944F308823A1F032
:103D60000E94D52F6093850C7093860C8093870CEE
:103D70009093880C6093810C7093820C8093830CD9
:103D80009093840C10E001C011E080E50E944F3058
:103D9000882359F00E94D52F6093850C7093860C70
:103DA0008093870C9093880C10E082E50E944F303E
:103DB000882359F00E94D52F6093890C70938A0C48
:103DC00080938B0C90938C0C10E084E50E944F3014
:103DD000882361F00E94D52F6093810C7093820C30
:103DE0008093830C9093840C0C94E72A112311F494
:103DF0000C94E72A4091850C5091860C6091870CB9
:103E00007091880C84E293E00E94B9584091890C2B
:103E100050918A0C60918B0C70918C0C81E293E034
:103E20000E94B9584091810C5091820C6091830C92
:103E30007091840C8EE193E00E94B9588AE00E9450
:103E4000FD300C94E72A81E50E940830882351F068
:103E50000E94952F60939D0C70939E0C80939F0CF5
:103E60009093A00C83E50E940830882351F00E94B3
:103E7000D52F6093A50C7093A60C8093A70C9093FC
:103E8000A80C84E50E940830882351F00E94D52FA9
:103E90006093A10C7093A20C8093A30C9093A40C3C
:103EA00088E50E940830882351F00E94D52F609346
:103EB000710C7093720C8093730C9093740C89E561
:103EC0000E940830882351F00E94D52F6093750C12
:103ED0007093760C8093770C9093780C8AE50E940F
:103EE00008308823F1F00E94D52F6093790C7093ED
:103EF0007A0C80937B0C90937C0C2DEC3CEC4CEC7E
:103F00005DE30E9412CE181664F0E4E3F3E08491BE
:103F10008F010F5F1F4F882321F00E94FD30F801B1
:103F2000F6CF85E40E940830882311F40C94E72A28
:103F30000E94D52F60937D0C70937E0C80937F0C34
:103F40009093800C0C94E72A85E40E940830882323
:103F500051F00E94D52F6093CE0D7093CF0D8093BA
:103F6000D00D9093D10D8AE50E940830882351F03E
:103F70000E94D52F6093CA0D7093CB0D8093CC0D0A
:103F80009093CD0D53E8C52E52E0D52E69EFE62E65
:103F900064E0F62E10E0F60181916F010E94083076
:103FA000882359F00E94D52FD7016D937D938D936F
:103FB0009C931397812F0E9407311F5FB4E0EB0E93
:103FC000F11C133041F70E94F18A0C94E72A0E94F9
:103FD00013B181110C94E72A42E7A42E4CE0B42ED1
:103FE000E7EAFEE0FB8FEA8F9E012F5F3F4F49011A
:103FF00009EE1DE0190133E0300F3E8FF5016591A8
:10400000759185919491AA8DBB8DCD90DD90ED90A9
:10401000FD90BB8FAA8FA70196010E947BD22B0136
:104020003C0120E030E040EA51EC0E94A2D487FD40
:1040300010C020E030E040EA51E4C301B2010E9428
:1040400012CE181634F0F1014082518262827382DE
:104050000DC0F80184911816B4F7F7FAF094F7F848
:10406000F094F101C082D182E282F382D101CD903D
:10407000DD90ED90FD901D0120E030E040EA51EC34
:10408000C701B6010E94A2D487FF03C0EAE6F4E2AA
:104090000BC020E030E040EA51E4C701B6010E94C5
:1040A00012CE1816CCF4F2CF84918F010F5F1F4F00
:1040B000882321F00E94FD30F801F6CFE6E6F3E018
:1040C00084918F010F5F1F4F882311F40C94E72A0E
:1040D0000E94FD30F801F4CFB4E0AB0EB11C0F5FCD
:1040E0001F4FEE8DE0138ACF39EFE32E34E0F32E2D
:1040F00010E0F40181919191A191B1914F01F701EB
:1041000081939193A193B1937F01812F0E940731F5
:104110001F5F133071F70E94F18A0C94E72AE4E6DE
:10412000F4E284918F010F5F1F4F882321F00E94DA
:10413000FD30F801F6CF83E50E940830882321F096
:104140000E94C62F80935C02ECEAF3E084918F0119
:104150000F5F1F4F882321F00E94FD30F801F6CF3A
:1041600080915C02811103C0E8EAF3E002C0E4EA56
:10417000F3E084918F010F5F1F4F882321F00E948D
:10418000FD30F801F6CFECE9F3E084918F010F5F89
:104190001F4F882321F00E94FD30F801F6CF2091B7
:1041A000D6123091D7124091D8125091D912609105
:1041B00022027091230280912402909125020E9494
:1041C0007CD2AB01BC018AE993E00E94B9582091EE
:1041D000DA123091DB124091DC125091DD126091C5
:1041E00026027091270280912802909129020E9454
:1041F0007CD2AB01BC0187E993E00E94B9582091C1
:10420000DE123091DF124091E0125091E112609184
:104210002A0270912B0280912C0290912D020E9413
:104220007CD2AB01BC0184E993E00E94B958ECE870
:10423000F3E084918F010F5F1F4F882321F00E94CC
:10424000FD30F801F6CF2091D6123091D71240916F
:10425000D8125091D9126091160270911702809174
:104260001802909119020E947CD2AB01BC018AE82D
:1042700093E00E94B9582091DA123091DB124091FC
:10428000DC125091DD1260911A0270911B02809134
:104290001C0290911D020E947CD2AB01BC0187E8F8
:1042A00093E00E94B9582091DE123091DF124091C4
:1042B000E0125091E11260911E0270911F028091F4
:1042C0002002909121020E947CD2AB01BC0184E8C3
:1042D00093E00E94B9588AE00E94FD300C94E72ACE
:1042E0008AED90E00E947A3381110C94E72A809144
:1042F0009C0D882311F40C94E72A0C948D2C83E5F3
:104300000E944F30882311F40C94E72A0E94A52FB5
:1043100070935E0260935D020C94E72A8DED90E04D
:104320000E947A3381110C94E72A83E50E944F3072
:104330008823E1F100919C0D10E00E94A52F000F51
:10434000111FF801E45BFD4F7183608380919C0D28
:1043500090E08C01000F111F000F111F9801285CC5
:104360003D4F7901880F991FFC01E45BFD4F60818F
:104370007181072E000C880B990B0E9418CE2AE041
:1043800037ED43E25CE30E9477CEF801E25AF14F49
:1043900020813181428153810E9477CED7016D9374
:1043A0007D938D939C9313970C94E72AE4E6F4E2B3
:1043B00084918F010F5F1F4F882321F00E94FD30F1
:1043C000F801F6CF85E40E94FD3080919C0D805D60
:1043D0000E94FD30E0919C0DF0E0EE0FFF1FE45BCA
:1043E000FD4F608171818CEC93E00E94FD5885E265
:1043F0000E94FD308AE00E94FD300C94E72A80E59F
:104400000E940830882311F40C94E72A0E94A52FFB
:104410006B017C0183E50E944F30882321F00E94CC
:10442000A52F8B0102C00FEF1FEFC8010196039764
:1044300010F00C94E72AD7FE02C00C94E72A9C2DBA
:10444000E4EDF3E086E38E0F2491921711F40C94BF
:10445000D32C31968E13F8CF0C94D62C80E50E9485
:104460000830882311F40C94E72A0E94A52F6B01D1
:104470007C018B01672B09F093C083E50E94083013
:104480008823D9F00E94A52F6B017C0160E070E0C9
:1044900080E69FE00E94D8B287FF02C00C94E72A12
:1044A000B60180E69FE00E9489576CE271E080E0EF
:1044B00090E00E9448920C94E72AE4E6F4E28491AA
:1044C0007F01BFEFEB1AFB0A882321F00E94FD3029
:1044D000F701F5CF60E070E083E294E00E94FD58C0
:1044E0008091620F28E532E06901C81AD10887FD82
:1044F000D394CC0CDD1CCC0CDD1C0D2C000CEE0878
:10450000FF088091610F28E830E04901881A91087E
:1045100087FD9394880C991C880C991C092C000C1D
:10452000AA08BB088091600F8F3FB9F090E0FC01B2
:10453000EE0FFF1F8E0F9F1FFC01ED50F14F018109
:10454000128133E0000F111F3A95E1F744E0169510
:1045500007954A95E1F70E5F1F4F98012F5F3F4F78
:10456000C901330FAA0BBB0B9C01AD0128193909F6
:104570004A095B09A4EBB0E00E945CD2A701960156
:10458000281939094A095B090E9440D2B90180E221
:1045900094E00E94FD588AE00E94FD300C94E72AC6
:1045A000EAE6F4E284918F010F5F1F4F882321F028
:1045B0000E94FD30F801F6CFB60189E194E00E9437
:1045C000FD58EAE0F4E084918F010F5F1F4F8823CC
:1045D00009F4FDC70E94FD30F801F5CF85E40E9483
:1045E0004F30882339F00E94B52F082F823008F011
:1045F00094C001C000E080E50E940830882361F08B
:104600000E94D52F24E0029FF0011124EB51F34FBB
:10461000608371838283938389E40E9408308823B6
:10462000A9F00E94D52F44E0049F90011124D901E4
:10463000A352B34F7D012CEA35EC47E25EE30E94C2
:1046400077CEF701608371838283938384E40E9431
:1046500008308823B1F00E94D52FF4E00F9F90011D
:104660001124A9014351534F7A012CEA35EC47E25A
:104670005EE30E9458D3D7016D937D938D939C93F5
:104680001397E4E6F4E284917F01BFEFEB1AFB0A93
:10469000882321F00E94FD30F701F5CF10E0B8012A
:1046A00089E494E00E94FD58000F111F000F111FB4
:1046B000F801EB51F34F408151816281738185E4B0
:1046C00094E00E94B958F801E352F34F2CEA35EC1C
:1046D00047E25EE360817181828193810E9458D3B9
:1046E000AB01BC0181E494E00E94B958F801E351A8
:1046F000F34F2CEA35EC47E25EE360817181828101
:1047000093810E9477CEAB01BC018DE394E00E94BF
:10471000B9588AE00E94FD305AC7EAE6F4E2849173
:104720008F010F5F1F4F882321F00E94FD30F80199
:10473000F6CFEBE2F4E084918F010F5F1F4F8823E7
:1047400009F445C70E94FD30F801F5CF83E50E94CA
:104750000830182F882371F00E94D52F0E94C0D3F3
:10476000709341026093400221E0672B09F020E042
:104770002093AB0C80E50E940830882359F02091EB
:10478000400230914102232B11F00E94C62F8093EA
:10479000AB0C1DC711111BC7E4E6F4E284918F0135
:1047A0000F5F1F4F882321F00E94FD30F801F6CFE4
:1047B0008091AB0C811103C060E173E002C06DE039
:1047C00073E082E694E00E9483BE609140027091A3
:1047D000410281E594E00E94FD58EDE4F4E084910B
:1047E0008F010F5F1F4F882309F4F1C60E94FD302F
:1047F000F801F5CF85E40E944F30882321F00E9414
:10480000A52F7B0102C0E12CF12C83E40E944F30E4
:10481000882331F00E94A52F21966FAF219704C005
:10482000E5E02196EFAF219785E50E944F30882380
:1048300019F00E94C62F03C085E50E9408302D960E
:104840008FAF2D97F7FC07C0412C512C16E1612E3C
:1048500013E4712E06C0412C512CBCE86B2EB2E43F
:104860007B2E83E50E944F30882321F00E94D52FB4
:104870002B013C01F2E0EF16F10410F4E0929C0DE4
:104880000E2D0E9432914B015C01E7FC04C0ADE2A9
:10489000CA2ED12C03C0FAE5CF2ED12C61E06E0DCB
:1048A000633068F0E2E7F6E084918F010F5F1F4FFD
:1048B000882309F48CC60E94FD30F801F5CF07FD6E
:1048C00012C0E02FEE0FFF0BE55FFD4F608171819D
:1048D0006F507109072E000C880B990B0E9418CE9F
:1048E0009B01AC0104C020E030E047E053E4C30189
:1048F000B201A0962FAFA097A1963FAFA197A29625
:104900004FAFA297A3965FAFA3970E94C0D3072E85
:10491000000C880B990B0E9418CE6EA37FA388A76A
:1049200099A7A0962FADA097A1963FADA197A2966B
:104930004FADA297A3965FADA3970E94A2D418167D
:104940006CF4E3E3F6E084918F010F5F1F4F88233F
:1049500009F43DC60E94FD30F801F5CFEEE5F6E022
:1049600084917F012FEFE21AF20A882321F00E943E
:10497000FD30F701F5CF0E94578107FF04C08FE794
:104980008093890D08C0E02F002E000CFF0BE95723
:10499000F24F8FE780839601A8EEB3E00E946CD2BD
:1049A00061966CAF7DAF8EAF9FAF6197DC01CB019D
:1049B000880D991DAA1DBB1D6D968CAF9DAFAEAF26
:1049C000BFAF6D9781E08093000228968CAE9DAEBC
:1049D000AEAEBFAE289765968CAE9DAEAEAEBFAE06
:1049E000659724961FAE249769961CAE1DAE1EAE29
:1049F0001FAE69971EAA90E49FABACE1A8AFB6E4E6
:104A0000B9AF1AAE1BAE1CAE1DAE1AAA1BAA1CAAC9
:104A10001DAA1EA61FA618AA19AAC12CD12C760160
:104A20002FE730E040E050E02AA33BA34CA35DA376
:104A30007FE7472E512C612C712C2C961CAE1DAE9D
:104A40001EAE1FAE2C9731E023963FAF23971BA6D7
:104A50001AA610E01A8E212C312C802F002E000C6B
:104A6000990BAC014957524F6F965FAF4EAF6F979E
:104A7000880F991F880F991FDC01A057B24FBFAF55
:104A8000AEAF2196EFAD21970E2E000CFF0B2296B4
:104A9000FFAFEEAF229780910002882309F4DEC0B9
:104AA0000E9432916E8F7F8F88A399A38091030D0E
:104AB000882309F4B8C00E94828207FF0AC01091BF
:104AC0008A0DF0918B0DFA8F20908C0D30908D0D0A
:104AD0000AC0AEADBFAD1C911196BC91BA8FEEADC0
:104AE000FFAD22803380212F3A8DA1016AAD7BADCD
:104AF0008CAD9DAD0E9412CE87FF05C01AAFFA8D16
:104B0000FBAF2CAE3DAE212F3A8DA1016EA97FA93E
:104B100088AD99AD0E94A2D418162CF41EAB2A8D34
:104B20002FAB28AE39AE23963FAD23972EA133236A
:104B300009F459C03FA148A559A5612F7A8DC1013B
:104B40000E94A2D418160CF06EC08E8D9F8DA8A165
:104B5000B9A188199909AA09BB09A7968CAF9DAF7D
:104B6000AEAFBFAFA79788589341A109B109B7FD70
:104B70005AC0D301C2012AA13BA14CA15DA1821B55
:104B8000930BA40BB50BB595A7959795879507FF44
:104B900003C08093890D05C06F96EEADFFAD6F9792
:104BA0008083A7962CAD3DAD4EAD5FADA7972C96FB
:104BB0002CAF3DAF4EAF5FAF2C973EA13AAF4FA1A8
:104BC0004BAF58A55CAF89A58DAF2E8D3F8D48A109
:104BD00059A128962CAF3DAF4EAF5FAF28972396D3
:104BE0001FAE239720C03FA148A559A5612F7A8DFC
:104BF000C1010E9412CE87FF16C08E8D9F8DA8A185
:104C0000B9A128962CAD3DAD4EAD5FAD2897821B66
:104C1000930BA40BB50BAC01BD014858534161097E
:104C2000710977FFEBC620E030E040EA51E46EA165
:104C30007FA188A599A50E947CD29B01AC01612F20
:104C40007A8DC1010E94A2D418167CF4EFEBF5E036
:104C500084918F010F5F1F4F811103C00E94578104
:104C6000B6C40E94FD30F801F3CF8E8D9F8DA8A1B0
:104C7000B9A165962CAD3DAD4EAD5FAD6597821B7C
:104C8000930BA40BB50BB7FDA8C00E941B938AE041
:104C90000E94FD308E8D9F8DA8A1B9A18053984FA1
:104CA000AF4FBF4F65968CAF9DAFAEAFBFAF6597AF
:104CB00024969FAD249791116CC069962CAD3DADA3
:104CC0004EAD5FAD6997612F7A8DC1010E94A2D46C
:104CD00018160CF03FC020E030E040E85FE3612FA1
:104CE0007A8DC1010E947CD269966CAF7DAF8EAF88
:104CF0009FAF69972E8D3F8D48A159A161968CADCC
:104D00009DADAEADBFAD6197280F391F4A1F5B1F28
:104D10006D962CAF3DAF4EAF5FAF6D9720E030E0AA
:104D200040EA50E46EA17FA188A599A50E947BD29C
:104D30009B01AC0191E024969FAF2497612F7A8D5F
:104D4000C1010E94A2D418160CF447C024961FAECD
:104D5000249743C08E8D9F8DA8A1B9A16D962CADCF
:104D60003DAD4EAD5FAD6D97821B930BA40BB50BA4
:104D7000B7FD33C00F3F29F0013031F04BE955E06A
:104D800005C049E755E002C04DEA55E06CE875E022
:104D900021C020E030E040EA51E46EA17FA188A567
:104DA00099A50E947BD29B01AC01612F7A8DC10134
:104DB0000E9412CE87FF11C00F3F29F0013031F061
:104DC00043E555E005C04FE255E002C046E655E038
:104DD00063E475E0802F0E94B3828E8D9F8DA8A121
:104DE000B9A1880F991FAA1FBB1F28962CAD3DADF6
:104DF0004EAD5FAD2897821B930BA40BB50B8819A2
:104E00009909AA09BB0981389F44A241B10568F0FC
:104E1000E1E1F5E084918F010F5F1F4F882309F4D2
:104E20001DCF0E94FD30F801F5CF4AA55BA5229663
:104E30008EAD9FAD2297841795070CF02CCEE4EB36
:104E4000F4E084915F019FEFA91AB90A882321F049
:104E50000E94FD30F501F5CF07FD05C014EDA12E30
:104E600013E0B12E04C0B4E1AB2EB3E0BB2EB5010C
:104E700083EA94E00E9483BEB701A6018FE994E023
:104E80000E94B9588AE00E94FD30B5018EE894E096
:104E90000E9483BE4EA55FA568A979A98AE894E01F
:104EA0000E94B9588AE00E94FD30B50189E794E07C
:104EB0000E9483BE4AA95BA96CA97DA985E794E0FD
:104EC0000E94B9588AE00E94FD302D96AFAD2D9713
:104ED000AA2309F47CC307FF2DC0C092FD0CD09219
:104EE000FE0CE092FF0CF092000D2CEA35EC47E24C
:104EF0005EE36EA57FA588A999A90E9477CE6093ED
:104F0000F90C7093FA0C8093FB0C9093FC0C2CEA38
:104F100035EC47E25EE36AA97BA98CA99DA90E94B2
:104F200058D36093F50C7093F60C8093F70C909324
:104F3000F80C4DC3B4E00B0280011124F801EB51D1
:104F4000F34FC082D182E282F382F801E352F34F41
:104F50005F012CEA35EC47E25EE36EA57FA588A9E8
:104F600099A90E9477CED5016D937D938D939C93E3
:104F700013970351134F2CEA35EC47E25EE36AA91D
:104F80007BA98CA99DA90E9458D3F80160837183E5
:104F9000828393831CC380E50E940830882351F0EC
:104FA0000E94D52F6093FD0C7093FE0C8093FF0C34
:104FB0009093000D89E40E940830882379F0F5D79A
:104FC0002CEA35EC47E25EE30E9477CE6093F90C61
:104FD0007093FA0C8093FB0C9093FC0C84E40E9479
:104FE0000830882379F0E1D72CEA35EC47E25EE31C
:104FF0000E9458D36093F50C7093F60C8093F70CD5
:105000009093F80CE4E6F4E284918F010F5F1F4F58
:10501000882321F00E94FD30F801F6CF4091FD0C6D
:105020005091FE0C6091FF0C7091000D84EA96E0A7
:105030000E94B9582CEA35EC47E25EE36091F90C26
:105040007091FA0C8091FB0C9091FC0C0E9458D34B
:10505000AB01BC0180EA96E00E94B9582CEA35EC1D
:1050600047E25EE36091F50C7091F60C8091F70CCD
:105070009091F80C0E9477CEAB01BC018CE996E0D0
:105080000E94B9588AE00E94FD30A1C2EAE6F4E22B
:1050900084918F010F5F1F4F882321F00E94FD3004
:1050A000F801F6CFE8EAF6E084918F010F5F1F4F19
:1050B000882309F48CC20E94FD30F801F5CF81E00D
:1050C0000E94BB360E94F18A82C280E00E94BB36F9
:1050D0000E94F18A7CC20E94BC8B79C289E4DFD72E
:1050E000882319F032D7162F01C01FEF8AE4D7D7D3
:1050F000882319F02AD7062F01C00FEF8AE588D739
:10510000F82E811104C081E583D7D82E01C0D12C9F
:1051100017FD02C007FF03C0EAE6F4E205C0F11084
:105120001AC0D11018C0F8CF84918F010F5F1F4FA4
:10513000882321F00E94FD30F801F6CFE6EDF6E07D
:1051400084918F010F5F1F4F882309F440C20E9492
:10515000FD30F801F5CF153018F0EAE6F4E206C0AC
:105160000530D8F716C00E94FD30F80184918F01F8
:105170000F5F1F4F8111F7CFE7EBF6E084918F01AE
:105180000F5F1F4F882309F422C20E94FD30F801EF
:10519000F5CFE12E110FFF08002E000C110B05D7E3
:1051A000DD2099F025E02E9DF0012F9DF00D1124BA
:1051B000E00FF11FEE0FFF1FEE0FFF1FE652F24F41
:1051C000208131814281538103C020E030E0A90178
:1051D000A5E0AE9DF001AF9DF00D11240E0F1F1F35
:1051E000000F111F000F111F0652124F0E947CD298
:1051F000D8016D937D938D939C9313970E940D7CA2
:10520000E6C10E944E69E3C10E942D99E0C183E589
:10521000FFD6882319F0BAD691E089270E9410940E
:10522000D6C181E080935C0E0E94279B10925C0E99
:10523000882309F4CCC1E4E6F4E284918F010F5F86
:105240001F4F882319F0D9D7F801F7CFE6EFF6E022
:1052500084918F010F5F1F4F882309F4B8C1CDD708
:10526000F801F6CF8AE51BD7882309F435C09DD60F
:105270006B017C0120E030E040EA51EC0E94A2D4B6
:1052800087FD13C020E030E040EA51E4C701B601D9
:105290000E9412CE18164CF0C092D212D092D312A5
:1052A000E092D412F092D51292C1EAE6F4E284912F
:1052B0008F010F5F1F4F81110CC0E3E1F7E0849174
:1052C0008F010F5F1F4F882309F481C196D7F80122
:1052D000F6CF93D7F801EBCFE4E6F4E284918F01A7
:1052E0000F5F1F4F882319F088D7F801F7CFE4E04C
:1052F000F7E084918F010F5F1F4F882319F07DD74E
:10530000F801F7CF4091D2125091D3126091D4128C
:105310007091D51281E097E00E94B9588AE06DD76C
:1053200056C181E08093440283E5B9D6882331F0E9
:105330002DD681114CC10E9446BB49C183E568D678
:10534000F8CF0E944BBE43C18091A30E80935604B8
:105350000091290510912A05F02E8091E21285FF17
:1053600012C0B80177278AE797E00E94FD5889E2CA
:1053700044D78AE042D747EA5EE06BE577E086E60D
:1053800097E00E949C368091A30EF81651F083E5B9
:1053900086D6882311F0FAD502C083E539D6F82ED7
:1053A00002C0FF24F39486E47AD6882311F0FDD559
:1053B00003C060E070E0CB0120E030E040E752E461
:1053C0000E9458D3AB01BC012F2D802F0E941F8853
:1053D0008091E21285FF13C047EA5EE06DE377E05B
:1053E00087E497E00E949C36E0E3F7E084918F0128
:1053F0000F5F1F4F882319F000D7F801F7CF0091F6
:10540000290511E080915604081301C010E0609155
:10541000AF0E7091B00E8091B10E9091B20E2091AE
:10542000F804222309F477C0013009F074C0112375
:1054300009F471C0A0966FAFA097A1967FAFA19716
:10544000A2968FAFA297A3969FAFA3970E94D9670A
:1054500020E030E040E450E4A0966FADA097A19624
:105460007FADA197A2968FADA297A3969FADA3976C
:105470000E947CD26B017C016093E2067093E3068C
:105480008093E4069093E5060E945FB30E94D9677B
:105490000E940C420E943291409148025091490270
:1054A0004A01550FAA08BB08DC01CB0188199909EC
:1054B000AA09BB09B7FF03C00E94F73DEBCF80905C
:1054C000CE0D9090CF0DA090D00DB090D10DA50134
:1054D0009401C701B6010E947CD220910105309150
:1054E000020540910305509104050E947BD2609310
:1054F000AF0E7093B00E8093B10E9093B20E809267
:10550000010590920205A0920305B09204050E9445
:10551000CC370E94F18A8091F804882309F457C09F
:10552000011155C0112309F452C00E94D9670E948D
:10553000CA430E9432918B019C0180914802909154
:105540004902BC01990F880B990B061B170B280BFE
:10555000390B37FF03C00E94F73DEBCF0E94FA9052
:10556000C090CA0DD090CB0DE090CC0DF090CD0D39
:1055700020910105309102054091030550910405E9
:10558000C701B6010E947BD29B01AC016091AF0EB6
:105590007091B00E8091B10E9091B20E0E947CD2AB
:1055A0006093AF0E7093B00E8093B10E9093B20ED5
:1055B000C0920105D0920205E0920305F092040525
:1055C0000E94CC370E94F18A02C00E944BBE10920A
:1055D000C0060E9429BB59C3B1100C94A81A0C94A0
:1055E000A11AC3D4E82E80E55AD5882309F43BC01C
:1055F000BCD4182F87FDEBCF89E451D5882341F027
:10560000C5D481110FC0E4EDF3E086E38E0F06C030
:1056100089E4FED4F6CF31968E1721F094911913B8
:10562000FACFC1C184E43BD561E0882341F0812FEA
:105630000E94F78F6E2D812F0E94C88FC8CF812FB7
:105640000E94F78F6E2D812F0E94C88FF12CB70119
:10565000812F0E943390193009F0B9CFF092AA0C33
:10566000E092A90CB4CF1DE0C7CF9FD40E94C0D355
:10567000673871050CF04EC170938F0D60938E0DDD
:105680000E940C8192D420E030E040EA50E40E9475
:10569000A2D4181614F40E94ABBE81E080930002DD
:1056A0008091A30E80939C0D1E8E1F8E18A219A2AE
:1056B0001AA61BA61CA61DA61A8E1EA6FCE3FAABF4
:1056C0002CE12EAB36E43FABC12CD12CF0E8EF2E11
:1056D000AFEBFA2E812C912C540160918E0D7091BC
:1056E0008F0D072E000C880B990B0E9418CE162FD9
:1056F000072F782E692E262F372F482F592FB601C6
:10570000C7010E9412CE8823D1F020918A0D3091DA
:105710008B0D40918C0D50918D0D612F702F872D29
:10572000962D0E9412CE881F8827881F8A8F49A530
:10573000442349F0882339F08091000248CF1C2D82
:105740000D2D7E2C6F2C0E9432916B017C01DC01AF
:10575000CB012AA53BA54CA55DA5821B930BA40BF1
:10576000B50BB7FD37C0D701C60188519C4FAF4F6D
:10577000BF4F8AA79BA7ACA7BDA70E941B93E6E1DA
:10578000F3E084912F019FEF491A590A882319F0F9
:1057900034D5F201F6CF81149104A104B104B1F023
:1057A000D501C4018854944FAF4FBF4FBC01CD0108
:1057B0006C197D098E099F0928EE33E040E050E026
:1057C0000E941ED2CA01B901D1D702C08FE315D5FC
:1057D0008AE013D50E94F73D0E9432916093C10682
:1057E0007093C2068093C3069093C406A0918A0D5D
:1057F000AAA3B0918B0DBEA3E0918C0DEFA3F09105
:105800008D0DF8A79D01AF01612F702F872D962D6B
:105810000E947BD21B012C0120E030E0A9010E94F4
:10582000A2D487FF04C057FA509457F850948114BB
:105830009104A104B10459F420E030E040E85FE3B2
:10584000C201B1010E9412CE87FF0DC00AC020E044
:1058500030E040E450E4C201B1010E94A2D4181625
:1058600014F4460157012A8D2223C1F18E8D9F8D9C
:10587000A8A1B9A1892B8A2B8B2B61F0D701C60176
:105880002E8D3F8D48A159A1821B930BA40BB50B04
:10589000B7FD24C02AA13EA14FA158A56EA57AA9A3
:1058A0008EA99FA90E947BD220E030E040EC5FE30C
:1058B0000E9412CE87FD40CFD701C601805A954184
:1058C000AF4FBF4F8E8F9F8FA8A3B9A39AA19EA75A
:1058D000AEA1AAABBFA1BEABE8A5EFAB8091000221
:1058E000882309F429CF81149104A104B10429F477
:1058F000C12ED02EE72CF62CF0CEF8EBCF1AFBE021
:10590000DF0AE108F108C818D908EA08FB08F7FE21
:1059100013CFEECF67E870E0AFCE88E5C0D3882321
:1059200009F43FC000919C0D10E03FD3000F111F00
:10593000000F111FF801E25CF14F608371838283D5
:10594000938310E089E5ABD3882381F000919C0D0F
:1059500010E02BD3000F111F000F111FF801EA5B9D
:10596000F14F608371838283938331CE112309F4D5
:105970002ECEE4E6F4E284918F010F5F1F4F88235F
:1059800019F03BD4F801F7CFECEBF3E084918F01F1
:105990000F5F1F4F882311F40C945F1D2ED4F80164
:1059A000F5CF11E0CFCF0E948F4D11CE0E94D96765
:1059B000BC2C60E08C2D0E94F78F0F3FFFEF1F077C
:1059C00059F48C2D0E94A08F31E020E0892B09F042
:1059D00030E0032F122F05C00130110561F000E007
:1059E00010E08B2D0E94A08F8017910709F4EFCD56
:1059F0000E94F73DF6CF01E010E0F3CF4AA55BA58A
:105A0000452B09F40EC12C968CAC9DACAEACBFAC52
:105A10002C97880E991EAA1EBB1E2C962CAD3DAD50
:105A20004EAD5FAD2C97281B390B4A0B5B0BCA019F
:105A3000B9012AA13BA14CA15DA10E940FD2A501F1
:105A400094010E9440D2D301C201820F931FA41F70
:105A5000B51F84319105A105B105FCF02C013D0174
:105A60008C3E9105A105B1052CF05BEE452E512C25
:105A7000612C712C40E84416510461047104DCF07F
:105A80008EEF90E0A0E0B0E084199509A609B7096F
:105A90008AA39BA3ACA3BDA312C044E1442E512C06
:105AA000612C712C24E130E040E050E02AA33BA3BC
:105AB0004CA35DA304C04AA25BA26CA27DA2B30169
:105AC000A2018BE296E00E94D6584AA15BA16CA18C
:105AD0007DA186E296E00E94D6584EA95FA968ADE6
