:100000000C9443130C9474130C9474130C94741385
:100010000C9474130C9474130C9474130C94741344
:100020000C9474130C9474130C9474130C94741334
:100030000C9474130C9474130C9474130C94741324
:100040000C9474130C9404500C9474130C94741347
:100050000C9474130C9474130C9478A50C94148859
:100060000C9474130C94053C0C9474130C9474133A
:100070000C9474130C9474130C9474130C947413E4
:100080000C9455580C9474130C9474130C947413AE
:100090000C9474130C9474130C9474130C947413C4
:1000A0000C9474130C9474130C9427580C947413BC
:1000B0000C9474130C9474130C9474130C94F957DB
:1000C0000C9474130C9474130C9474130C94741394
:1000D0000C9474130C9474130C9474130C94741384
:1000E0000C947413F285F585E485E885EE852C86FD
:1000F000F985FD85038607860B8611861586198688
:100100002C861F8623862786308735873A87448743
:100110004E87C78758876087688772877C878687FE
:1001200095879F87C787A987B387BD873AA414A5FA
:1001300019A544A550A52CA531A52AA4084AD73B4A
:100140003BCE016E84BCBFFDC12F3D6C74319ABDA6
:1001500056833DDA3D00C77F11BED9E4BB4C3E91CA
:100160006BAAAABE000000803F05A84CCDB2D44EB9
:10017000B93836A9020C50B9918688083CA6AAAABB
:100180002ABE000000803F004E414E494E4954595E
:10019000494E46CDCCCC3D0AD7233C17B7D1387752
:1001A000CC2B329595E6241FB14F0A000020410068
:1001B00000C84200401C4620BCBE4CCA1B0E5AAEB2
:1001C000C59D744C4556454C494E4700434F4D4DD7
:1001D000554E49434154494F4E0044525952554E91
:1001E000004552524F525300494E464F0045434836
:1001F0004F0047322F473320626164207061726183
:100200006D65746572730A003C3C3C204732380AC5
:10021000005261697365205A20286265666F7265B5
:1002200020686F6D696E672920746F20003E20651D
:100230006E6473746F70732E656E61626C65287482
:10024000727565290A003C3C3C204732380A003E62
:1002500020686F6D696E67206E6F74206E656564CF
:1002600065642C20736B69700A003E3E3E20473265
:10027000380A00205A3A200020593A20004265648A
:1002800020583A20004D65736820706F696E7420A5
:1002900063616E6E6F74206265207265736F6C7639
:1002A00065640A002569730025696D20256973005E
:1002B0002569682025696D202569730025696420FA
:1002C0002569682025696D202569730025697920D5
:1002D000256964202569682025696D2025697300DA
:1002E0005072696E742074696D653A2000000136A1
:1002F000372603FFFFFF353C3D380EFFFFFF312E51
:10030000303E12FFFFFFFF28FF0C0809FFFFFF1A16
:100310001C18FFFF2A24221EFFFF2C08440AFF435B
:1003200007FF45ED01E801E101DA01CC01C3016FEE
:1003300066660044454255473A004B494C4C45449B
:100340002E200020573A00205400205200416363C1
:10035000656C65726174696F6E3A20500057415246
:100360004E494E4721204C6F77205A204A65726BC8
:10037000206D6179206C65616420746F20756E77E3
:10038000616E746564207061757365732E0A005424
:100390006F6F206661722066726F6D207265666590
:1003A00072656E636520706F696E740A00205A0072
:1003B000205900580020204D61783A2000205A0032
:1003C000205900580020204D696E3A20004F6E20C1
:1003D000004F666600536F667420656E6473746FB9
:1003E00070733A2000486F74656E64206F666673A0
:1003F0006574733A004E6F2063617365206C6967A2
:1004000068740A004F66660A0046616465204865A4
:10041000696768742000426564204C6576656C6984
:100420006E6720004661696C656420746F20656E9C
:1004300061626C6520426564204C6576656C696E0E
:10044000670A004D65736820706F696E7420636180
:100450006E6E6F74206265207265736F6C76656472
:100460000A004D34323120696E636F7272656374B5
:1004700020706172616D6574657220757361676566
:100480000A00454550524F4D204F4B0A003A20007C
:1004900050726F6265205A204F6666736574003F24
:1004A0005A206F7574206F662072616E6765202810
:1004B0002D323020746F203230290A003C3C3C2021
:1004C00067636F64655F540A00203A2041465445D3
:1004D000520A00202063757272656E745F706F73CC
:1004E0006974696F6E3D00203A204245464F52457F
:1004F0000A00202063757272656E745F706F736995
:1005000074696F6E3D003E3E3E2067636F64655FB9
:100510005428002C20002C2000203A2073796E6390
:100520005F706C616E5F706F736974696F6E0A00E3
:10053000202063757272656E745F706F7369746981
:100540006F6E3D00656E7175657565696E67202219
:10055000004C696E65204E756D626572206973206E
:100560006E6F74204C617374204C696E65204E75FB
:100570006D6265722B312C204C617374204C696E56
:10058000653A20004B494C4C45442E20005072697E
:100590006E7465722073746F707065642064756525
:1005A00020746F206572726F72732E2046697820F6
:1005B000746865206572726F7220616E6420757355
:1005C00065204D39393920746F20726573746172FA
:1005D000742E202854656D70657261747572652083
:1005E00069732072657365742E2053657420697475
:1005F0002061667465722072657374617274696ECD
:1006000067290A004E6F20436865636B73756D2020
:1006100077697468206C696E65206E756D626572AD
:100620002C204C617374204C696E653A200063681D
:1006300065636B73756D206D69736D617463682C90
:10064000204C617374204C696E653A20004D313145
:10065000300020496E76616C69642065787472752B
:10066000646572200000000000000020C10000400E
:10067000C00000524300808943000052430A2073A7
:100680006F66745F656E6473746F705F6D61782000
:100690003D20000A20736F66745F656E6473746F2B
:1006A000705F6D696E203D20000A20706F73697461
:1006B000696F6E5F7368696674203D200020617801
:1006C00069733A0A20686F6D655F6F66667365745B
:1006D000203D2000466F7220003C3C3C20646F5F50
:1006E000626C6F636B696E675F6D6F76655F746F69
:1006F0000A003E3E3E20646F5F626C6F636B696E02
:10070000675F6D6F76655F746F00203A2073657464
:1007100075705F666F725F656E6473746F705F6F24
:10072000725F70726F62655F6D6F76650A00202080
:1007300063757272656E745F706F736974696F6EE2
:100740003D00203A20636C65616E5F75705F616685
:100750007465725F656E6473746F705F6F725F70E3
:10076000726F62655F6D6F76650A00202063757237
:1007700072656E745F706F736974696F6E3D00644B
:100780006F5F70726F62655F726169736528006484
:1007900065706C6F793A2000203A207365745F7041
:1007A000726F62655F6465706C6F7965640A0020C2
:1007B0002063757272656E745F706F736974696FB0
:1007C0006E3D00203A203C3C3C20646F5F70726FAD
:1007D00062655F6D6F76650A0020206375727265D1
:1007E0006E745F706F736974696F6E3D00203A209C
:1007F0003E3E3E20646F5F70726F62655F6D6F7624
:10080000650A00202063757272656E745F706F7385
:100810006974696F6E3D0072657365745F626564CB
:100820005F6C6576656C0A002028646F6E65290A26
:10083000004578747261706F6C617465205B004272
:10084000696C696E656172204C6576656C696E676E
:1008500020477269643A0A00537562646976696474
:1008600065642077697468204341544D554C4C2091
:10087000524F4D204C6576656C696E6720477269F2
:10088000643A0A004B494C4C45442E2000202D2050
:10089000496E76616C6964206578747275646572FE
:1008A000206E756D62657220210A00000020002311
:1008B00000260029002C002F003200000100000358
:1008C00001060109010505050507050808080802D4
:1008D0000202020A0A0808040404040101010101D9
:1008E0000101010303030303030303040707070CC8
:1008F0000C0C0C0C0C0C0C0202020206060606067E
:100900000606060B0B0B0B0B0B0B0B01021020202A
:100910000808102040102040800201020108040253
:1009200001010204081020408080402010080402C9
:100930000180040201804020100804020108040222
:100940000101020408102040800102040810204028
:10095000802020506C616E6E6572427566666572AD
:1009600042797465733A20002046726565204D65B2
:100970006D6F72793A2000436F6D70696C65643AEF
:10098000204E6F7620203720323031390A00207C0B
:1009900020417574686F723A20286E6F6E652C2046
:1009A00064656661756C7420636F6E666967290A99
:1009B00000323031382D30382D303100204C617309
:1009C0007420557064617465643A2000312E312EB4
:1009D000350A004D61726C696E0020536F66747742
:1009E0006172652052657365740A002057617463F3
:1009F00068646F672052657365740A002042726FE5
:100A0000776E206F75742052657365740A002045F7
:100A1000787465726E616C2052657365740A00505B
:100A20006F77657255700A0073746172740A0020E2
:100A30005A3A0020593A0020583A00656E6473749F
:100A40006F7073206869743A200020746F6F206C97
:100A50006F6E6720657874727573696F6E2070723F
:100A60006576656E7465640A0020636F6C6420654A
:100A70007874727573696F6E2070726576656E74C6
:100A800065640A0024F4D43050C38E20C2A24017FB
:100A9000828B7011127A910D816CD90AA861E108DC
:100AA000C7586607615143061E4B5D05C145A70443
:100AB0001A411104093D9803713931034036DB02B4
:100AC00065339102D4305402802E1D02632CEE0156
:100AD000752AC501B028A001102781018F25640166
:100AE0002B244B01E0223401AC211F018D200D018C
:100AF000801FFC00841EED00971DDF00B81CD20093
:100B0000E61BC600201BBC00641AB200B219A80084
:100B10000A19A0006A189900D117910040178B009C
:100B2000B516840031167E00B31579003A157300AE
:100B3000C7146F0058146A00EE1366008813630030
:100B400025135E00C7125B006C125700151254008B
:100B5000C111510070114F0021114B00D6104900F6
:100B60008D1047004610440002104200C00F4000A4
:100B7000800F3E00420F3C00060F3B00CB0E3800BA
:100B8000930E37005C0E3500270E3400F30D320053
:100B9000C10D3100900D3000600D2E00320D2D0082
:100BA000050D2C00D90C2B00AE0C2900850C29005A
:100BB0005C0C2700350C27000E0C2600E80B2400E7
:100BC000C40B2400A00B23007D0B23005A0B210033
:100BD000390B2100180B2000F80A1F00D90A1E004B
:100BE000BB0A1E009D0A1D00800A1D00630A1C002E
:100BF000470A1B002C0A1B00110A1A00F7091A00E9
:100C0000DD091900C4091900AB0919009209170080
:100C10007B091800630917004C09160036091600F5
:100C2000200916000A091500F5081500E00814004F
:100C3000CC081400B8081400A4081400900813008D
:100C40007D0812006B0813005808120046081200B5
:100C500034081100230811001208110001081100C6
:100C6000F0071000E0071000D0071000C0071000C8
:100C7000B0070F00A107100091070E0083070F00B7
:100C800074070F0065070E0057070E0049070E0096
:100C90003B070D002E070E0020070D0013070D0067
:100CA00006070D00F9060C00ED060D00E0060C002D
:100CB000D4060C00C8060C00BC060C00B0060C00E4
:100CC000A4060B0099060C008D060B0082060B0093
:100CD00077060B006C060B0061060A0057060B0036
:100CE0004C060A0042060A0038060A002E060A00D0
:100CF00024060A001A060A001006090007060A0060
:100D0000FD050900F4050900EB050900E2050900ED
:100D1000D9050900D0050900C7050900BE0509006D
:100D2000B5050800AD050800A50509009C050800EB
:100D3000940508008C050800840508007C0508005F
:100D4000740508006C050700650508005D050700CF
:100D5000560508004E050700470507004005080036
:100D600038050700310507002A050700230507009D
:100D70001C050600160507000F05070008050600FC
:100D800002050700FB040600F5040700EE04060058
:100D9000E8040600E2040700DB040600D5040600B0
:100DA000CF040600C9040600C3040600BD04060003
:100DB000B7040600B1040500AC040600A604060052
:100DC000A00405009B04060095040500900406009D
:100DD0008A04050085040500800406007A040500E5
:100DE00075040500700405006B0405006604050029
:100DF000610405005C040500570405005204050069
:100E00004D04050048040500430405003E040400A9
:100E10003A04050035040500300404002C040500E4
:100E200027040400230405001E0404001A0404001F
:100E300016040500110404000D0404000904050053
:100E40000404040000040400FC030400F80304008C
:100E5000F4030400F0030400EC030400E8030400BE
:100E6000E4030400E0030400DC030400D8030400EE
:100E7000D4030400D0030400CC030400C80303001F
:100E8000C503030024F404D9201BC40C5C0E980491
:100E9000C4095F0265077101F405F900FB04B300A2
:100EA00048048700C1036900580355000303450047
:100EB000BE023A008402310053022A0029022500B2
:100EC00004022000E4011C00C8011900AF01170052
:100ED00098011400840113007101100061011000D9
:100EE00051010E0043010D0036010B002B010B00D8
:100EF00020010B00150109000C0109000301080085
:100F0000FB000800F3000800EB000700E400060007
:100F1000DE000600D8000600D2000600CC00050066
:100F2000C7000500C2000500BD000400B9000400B0
:100F3000B5000400B1000400AD000400A9000400E5
:100F4000A5000300A20003009F0004009B00030013
:100F50009800030095000200930003009000030036
:100F60008D0002008B000300880002008600020052
:100F700084000300810002007F0002007D00020067
:100F80007B00020079000200770001007600020079
:100F90007400020072000100710002006F00020084
:100FA0006D0001006C0002006A000100690002008F
:100FB0006700010066000100650001006400020096
:100FC0006200010061000100600001005F0002009A
:100FD0005D0001005C0001005B0001005A0001009F
:100FE000590001005800010057000100560001009F
:100FF000550001005400010053000000530001009F
:101000005200010051000100500001004F0001009A
:101010004E0000004E0001004D0001004C00010098
:101020004B0000004B0001004A0001004900010094
:101030004800000048000100470001004600000091
:101040004600010045000000450001004400010089
:101050004300000043000100420000004200010084
:101060004100000041000100400001003F0000007D
:101070003F0001003E0000003E0001003D00000076
:101080003D0001003C0000003C0000003C0001006D
:101090003B0000003B0001003A0000003A00010064
:1010A000390000003900010038000000380000005D
:1010B0003800010037000000370001003600000052
:1010C0003600000036000100350000003500000049
:1010D000350001003400000034000000340001003D
:1010E0003300000033000000330001003200000034
:1010F0003200000032000100310000003100000029
:10110000310001003000000030000000300001001C
:101110002F0000002F0000002F0000002F00010012
:101120002E0000002E0000002E0001002D00000007
:101130002D0000002D0000002D0001002C000000FB
:101140002C0000002C0000002C0001002B000000EF
:101150002B0000002B0000002B0001002A000000E3
:101160002A0000002A0000002A00010029000000D7
:1011700029000000290000002900000029000100CA
:1011800028000000280000002800000028000000BF
:1011900028000100270000002700000027000000B1
:1011A00027000000270001002600000026000000A4
:1011B0002600000026000000260001002500000097
:1011C000250000002500000025000000250000008B
:1011D000250001002400000024000000240000007D
:1011E0002400000024000100230000002300000070
:1011F0002300000023000000230000002300000063
:101200002300010022000000220000002200000054
:101210002200000022000000220001002100000046
:10122000210000002100000021000000210000003A
:10123000210000002100010020000000200000002B
:10124000200000002000000020000000200000001E
:1012500020000000200001001F0000001F0000000F
:101260001F0000001F0000001F0000001F00000002
:101270001F0001001E0000001E0000001E000000F4
:101280001E000000043700001E290000511B000052
:101290005810000010090000CC0400007802000083
:1012A000410100006265640A002C20737973746543
:1012B0006D2073746F70706564212048656174657A
:1012C000725F49443A20003C3C3C20646F5F686F89
:1012D0006D696E675F6D6F766528005B00290A0097
:1012E0002C20002C20003E3E3E20646F5F686F6D16
:1012F000696E675F6D6F7665280020280041424C5B
:101300002041646A7573746D656E74205A002048BC
:101310000020570020590042696C696E6561722097
:10132000477269642058005A20466164653A20007B
:101330002028656E61626C6564290A002028646952
:101340007361626C6564290A0042494C494E45410B
:1013500052004175746F20426564204C6576656C5F
:10136000696E673A2000204E6F7A7A6C65290A0010
:1013700020262041626F76650020262053616D652E
:10138000205A2061730020262042656C6F77002D63
:101390004261636B002028526967687400205A3AE2
:1013A0000020593A0050726F6265204F666673657F
:1013B0007420583A004649585F4D4F554E544544A5
:1013C0005F50524F42450A0050726F62653A2000EA
:1013D000436F72650A004D616368696E65205479D8
:1013E00070653A20003C3C3C204732390A002063BB
:1013F0006F72726563746564205A3A00473239200F
:10140000756E636F72726563746564205A3A00206A
:101410003A203E2070726F62696E6720636F6D7054
:101420006C6574650A00202063757272656E745F66
:10143000706F736974696F6E3D0020284452595271
:10144000554E2900473239204175746F204265643A
:10145000204C6576656C696E67003F20284C2C52E5
:101460002C462C4229206F7574206F6620626F75A0
:101470006E64732E0A003F2856296572626F736589
:10148000206C6576656C20697320696D706C617580
:101490007369626C652028302D34292E0A00426160
:1014A00064205A2076616C75650A004E6F2062696F
:1014B0006C696E65617220677269640A003C3C3C2D
:1014C000204732390A003E204175746F2D6C6576D5
:1014D000656C206E6F74206E65656465642C207386
:1014E0006B69700A00203A203E3E3E204732390A9E
:1014F00000202063757272656E745F706F7369741B
:10150000696F6E3D0020466C6F773A2000206F7542
:1015100074206F662072616E67650A00536572768B
:101520006F20003A200020536572766F2000496ECC
:1015300076616C69642065787472756465720A00FE
:1015400020643A0020693A0020703A0020653A0091
:1015500020643A0020693A0020703A0043290A00CA
:1015600061626C656420286D696E2074656D702001
:1015700000436F6C642065787472756465732061D4
:10158000726520004B64200023646566696E6520E7
:1015900044454641554C545F004B69200023646527
:1015A00066696E652044454641554C545F004B705A
:1015B000200023646566696E652044454641554CAC
:1015C000545F00504944204175746F74756E6520F6
:1015D00066696E697368656421205075742074684B
:1015E00065206C617374204B702C204B6920616EF8
:1015F00064204B6420636F6E7374616E7473206635
:10160000726F6D2062656C6F7720696E746F204316
:101610006F6E66696775726174696F6E2E680A0015
:10162000504944204175746F74756E652066616918
:101630006C6564212074696D656F75740A0042459C
:101640004420544845524D414C2052554E4157413B
:101650005900546865726D616C2052756E617761D6
:101660007900453120544845524D414C2052554E49
:101670004157415900453220544845524D414C2074
:1016800052554E4157415900426564206865617466
:10169000696E67206661696C65640048656174699C
:1016A0006E67206661696C6564004531204865613C
:1016B00074696E67206661696C6564004532204814
:1016C000656174696E67206661696C656400504984
:1016D00044204175746F74756E65206661696C6530
:1016E00064212054656D7065726174757265207433
:1016F0006F6F20686967680A00204B643A200020F9
:101700004B693A2000204B703A20000A20436C615C
:101710007373696320504944200A002054753A20AD
:1017200000204B753A2000206D61783A2000206D32
:10173000696E3A200020643A200020626961733AA1
:101740002000504944204175746F74756E652066A1
:1017500061696C6564212054656D70657261747592
:10176000726520746F6F20686967680A0050494489
:10177000204175746F74756E652073746172740A9C
:1017800000504944204175746F74756E6520666120
:10179000696C6564212042616420657874727564A7
:1017A0006572206E756D6265720A00496E76616CB5
:1017B00069642065787472756465720A00416374A7
:1017C0006976652045787472756465723A200020E8
:1017D0003A204D6F7665206261636B0A00202064B9
:1017E000657374696E6174696F6E3D00207D0A00D7
:1017F0002C20004F666673657420546F6F6C205800
:1018000059206279207B20004E6F206D6F76652015
:101810006F6E20746F6F6C6368616E67650A00524B
:101820006573656E643A20006F6B0020746F6F20E3
:101830006C6F6E6720657874727573696F6E207057
:10184000726576656E7465640A0020636F6C64204F
:10185000657874727573696F6E2070726576656EE7
:101860007465640A00627573793A207061757365F6
:101870006420666F7220696E7075740A00627573F9
:10188000793A2070617573656420666F7220757394
:1018900065720A00627573793A2070726F636573BE
:1018A00073696E670A00005EBCE2613FDD83C29C23
:1018B0007E20A3FD1F41009D23BE46DB65F88C11F1
:1018C000AF32CA57E9744B494C4C45442E20004B6B
:1018D000494C4C2063617573656420627920746F94
:1018E0006F206D75636820696E6163746976652029
:1018F00074696D65202D2063757272656E74206346
:101900006F6D6D616E643A20004572726F72207760
:10191000726974696E6720746F20454550524F4D4F
:10192000210A00290A002062797465733B206372E2
:1019300063200053657474696E67732053746F720B
:10194000656420280070012C0190012701B001225C
:1019500001C0011D01F00118011002130130020E37
:10196000016002090190020401C002FF000003FAB5
:10197000004003F5008003F000D003EB002004E6F4
:10198000007004E100E004DC004005D700C005D28F
:10199000004006CD00D006C8008007C3003008BE56
:1019A00000F008B900C009B400B00AAF00B00BAA3B
:1019B00000D00CA500000EA000500F9B00C0109698
:1019C000005012910000148C00C0158700B01782DF
:1019D00000B0197D00D01B7800001E730040206EFF
:1019E0000090226900F024640040275F0090295A8B
:1019F00000E02B5500102E500020304B00103246D6
:101A000000E033410090353C001037370070383229
:101A100000A0392D00B03A2800A03B2300603C1EF6
:101A200000103D1900903D1400103E0F00703E0A5A
:101A300000C03E0500003F0000403FFBFF803FF636
:101A4000FFC03FF1FF2040002042403A0020403AD2
:101A50000000002100240027002A002D0030003360
:101A60000001010000040107010A01000022002515
:101A70000028002B002E0031003400020100000578
:101A80000108010B0100000A0B02090C0D0E0807EA
:101A9000030401000000000000000000000000003E
:101AA0000000000000000000000000000000000036
:101AB00000121110000000000000000000000000F3
:101AC0000000000000000000000000486172646334
:101AD0006F6465642044656661756C742053657439
:101AE00074696E6773204C6F616465640A00DC057D
:101AF0000000DC05000032000000DC0500000000F2
:101B00007A4400007A44000048420000C8420000C5
:101B1000A0420000A0420000484400004C433A0AA2
:101B20000020286D6D290020204D383531205A00C5
:101B30005A2D50726F6265204F666673657400207F
:101B4000440020490020204D3330342050002044F0
:101B50000020490020204D33303120500020440027
:101B600020490020500020204D33303120450050C6
:101B700049442073657474696E67733A0A00205A89
:101B800000204A0020204732392057204900205A9F
:101B90000020204D3432302053004175746F2042B4
:101BA0006564204C6576656C696E673A0A00205959
:101BB0000020580020204D323138205400486F74E6
:101BC000656E64206F6666736574733A0A00205A06
:101BD0000020590020204D323036205800486F6DCB
:101BE00065206F66667365743A0A00204500205AC6
:101BF0000020590020580020540020530020204D80
:101C000032303520510020453C6D61785F655F6A58
:101C100065726B3E0020583C6D61785F785F6A6545
:101C2000726B3E20593C6D61785F795F6A65726BBB
:101C30003E205A3C6D61785F7A5F6A65726B3E0048
:101C4000416476616E6365643A20513C6D696E5FF4
:101C50007365676D656E745F74696D655F75733EFE
:101C600020533C6D696E5F66656564726174653EA4
:101C700020543C6D696E5F74726176656C5F666559
:101C80006564726174653E0020540020520020207B
:101C90004D323034205000416363656C657261746D
:101CA000696F6E2028756E6974732F7332293A201C
:101CB000503C7072696E745F616363656C3E205264
:101CC0003C726574726163745F616363656C3E202E
:101CD000543C74726176656C5F616363656C3E0A47
:101CE00000204500205A0020590020204D3230317C
:101CF0002058004D6178696D756D20416363656C96
:101D000065726174696F6E2028756E6974732F73C4
:101D100032293A0A00204500205A0020590020208C
:101D20004D3230332058004D6178696D756D2066F5
:101D300065656472617465732028756E6974732FAC
:101D400073293A0A00204500205A0020590020201B
:101D50004D393220580053746570732070657220BD
:101D6000756E69743A0A0020204D323030204430BC
:101D70000A0020204D3230302054312044002020F1
:101D80004D3230302044002044697361626C6564D8
:101D90000A0046696C616D656E74207365747469C0
:101DA0006E67733A002020473231202020203B000C
:101DB000486F6D696E67206661696C656400545296
:101DC00049474745524544006F70656E003A200010
:101DD0007A5F6D696E00795F6D696E00785F6D691D
:101DE0006E005265706F7274696E6720656E647301
:101DF000746F70207374617475730A00290A00206F
:101E000062797465733B2063726320002073746F82
:101E10007265642073657474696E6773207265748B
:101E2000726965766564202800202863616C63759B
:101E30006C6174656429210A0020213D200045451C
:101E400050524F4D20435243206D69736D6174634E
:101E500068202D202873746F726564292000205338
:101E6000697A653A2000496E6465783A2000204D11
:101E700061726C696E3D563537290A002845455018
:101E8000524F4D3D00454550524F4D20766572737F
:101E9000696F6E206D69736D6174636820004265BF
:101EA000642068656174696E67206661696C656449
:101EB0000048656174696E67206661696C656400DD
:101EC00048656174696E67206661696C6564004588
:101ED000312048656174696E67206661696C65646C
:101EE0000045322048656174696E67206661696CDF
:101EF0006564004572723A204D415854454D50205A
:101F0000424544004D415854454D50207472696714
:101F10006765726564004531204572723A204D4113
:101F20005854454D50004532204572723A204D417B
:101F30005854454D50004572723A204D494E544513
:101F40004D5020424544004D494E54454D5020745B
:101F50007269676765726564004531204572723A3F
:101F6000204D494E54454D50004532204572723A3D
:101F7000204D494E54454D5000202F0050726F7433
:101F800065637465642050696E0A005374616E6401
:101F900061726420446576696174696F6E3A2000ED
:101FA0002052616E67653A2000204D61783A20002A
:101FB000204D696E3A20004D65616E3A20004669F9
:101FC0006E6973686564210A002072616E67653A04
:101FD0002000206D61783A2000206D696E3A200063
:101FE000207369676D613A2000206D65616E3A204B
:101FF000003A207A3A2000206F662000205A002004
:102000005900205800476F696E6720746F3A00438B
:102010006C6F636B776973650A00436F756E7465E7
:10202000722D0020446972656374696F6E3A2000F6
:10203000202020616E676C653A20005374617274D1
:10204000696E67207261646975733A2000506F731E
:102050006974696F6E696E67207468652070726F4D
:1020600062652E2E2E0A003F4E756D626572206FDE
:1020700066206C65677320696E206D6F76656D658F
:102080006E74206E6F7420706C61757369626C651C
:102090002028302D3135292E0A003F2028582C5970
:1020A00029206F7574206F6620626F756E64732EC1
:1020B0000A003F53616D706C652073697A65206E0C
:1020C0006F7420706C61757369626C652028342DA3
:1020D0003530292E0A004D3438205A2D50726F6247
:1020E00065205265706561746162696C69747920FC
:1020F000546573740A003F2856296572626F7365D0
:10210000206C6576656C20697320696D706C6175F3
:102110007369626C652028302D34292E0A006F6B9C
:102120000020573A004D313133205300205A3A00F5
:1021300020423A0020436F756E7420413A002045DA
:102140003A00205A3A0020593A00583A002C200010
:102150002C20003A004361703A00544845524D41EA
:102160004C5F50524F54454354494F4E00415554D3
:102170004F5245504F52545F53445F53544154554E
:102180005300454D455247454E43595F50415253C8
:10219000455200434153455F4C494748545F4252C2
:1021A000494748544E45535300544F47474C455FA9
:1021B0004C494748545300534F4654574152455F8A
:1021C000504F574552004255494C445F5045524389
:1021D000454E54004C4556454C494E475F4441548A
:1021E00041005A5F50524F4245004155544F4C45B3
:1021F00056454C005052494E545F4A4F420050528F
:102200004F4752455353004155544F5245504F523A
:10221000545F54454D5000564F4C554D455452490E
:102220004300454550524F4D0053455249414C5F84
:10223000584F4E5F584F4646004649524D574152FF
:10224000455F4E414D453A4D61726C696E20312EAD
:10225000312E3520284769746875622920534F55FF
:102260005243455F434F44455F55524C3A6874743E
:1022700070733A2F2F6769746875622E636F6D2FC4
:102280004D61726C696E4669726D776172652F4D32
:1022900061726C696E2050524F544F434F4C5F56E1
:1022A000455253494F4E3A312E30204D4143484913
:1022B0004E455F545950453A3344205072696E740C
:1022C00065722045585452554445525F434F554E10
:1022D000543A3220555549443A6365646532613257
:1022E000662D343161322D343734382D3962313234
:1022F0002D6335356336326633363766660A002F0E
:102300002F20005072696E7465722068616C74656C
:10231000642E206B696C6C28292063616C6C656489
:10232000210A000000000000000000000000003C46
:102330003C3C207365745F617869735F69735F61AA
:10234000745F686F6D652800203A200A00202063C2
:10235000757272656E745F706F736974696F6E3DCC
:10236000005D203D20003E20686F6D655F6F6666F2
:102370007365745B003E207A70726F62655F7A6F7E
:102380006666736574203D20002A2A2A205A204858
:102390004F4D454420574954482050524F42452004
:1023A000285A5F4D494E5F50524F42455F55534545
:1023B000535F5A5F4D494E5F454E4453544F505FF3
:1023C00050494E29202A2A2A0A003E3E3E207365A3
:1023D000745F617869735F69735F61745F686F6D63
:1023E000652800000020420000204200002041003B
:1023F0000000005761726E696E673A20486F6D6920
:102400006E672042756D702044697669736F722023
:102410003C20310A000202040000A0400000A0405D
:10242000000000400000524300808E4300005543EE
:102430003C3C3C20686F6D65617869732800203AE8
:10244000203E204146544552207365745F6178698F
:10245000735F69735F61745F686F6D650A00202048
:1024600063757272656E745F706F736974696F6E95
:102470003D00486F6D65203220536C6F773A0A003B
:102480004D6F766520417761793A0A00486F6D6536
:10249000203120466173743A0A00FFFFFF3E3E3E42
:1024A00020686F6D656178697328002066697273B2
:1024B000740A005A0059005800486F6D6520006585
:1024C00063686F3A004572726F723A004245442069
:1024D000544845524D414C2052554E4157415900A8
:1024E000546865726D616C2052756E617761790018
:1024F000453120544845524D414C2052554E41578C
:10250000415900453220544845524D414C205255C6
:102510004E4157415900556E6B6E6F776E20636F59
:102520006D6D616E643A202200203A203C3C3C20D4
:1025300072756E5F7A5F70726F62650A0020206349
:10254000757272656E745F706F736974696F6E3DDA
:10255000002044697363726570616E63793A00327A
:102560006E642050726F6265205A3A00203A203C17
:102570003C3C2072756E5F7A5F70726F62650A0014
:10258000202063757272656E745F706F7369746911
:102590006F6E3D00534C4F572050726F626520663E
:1025A00061696C210A003173742050726F6265207A
:1025B0005A3A00203A203C3C3C2072756E5F7A5FAC
:1025C00070726F62650A00202063757272656E74A6
:1025D0005F706F736974696F6E3D0046415354209C
:1025E00050726F6265206661696C210A00203A2092
:1025F0003E3E3E2072756E5F7A5F70726F62650A52
:1026000000202063757272656E745F706F736974F9
:10261000696F6E3D003C3C3C2070726F62655F707C
:10262000740A0050726F62696E67206661696C653A
:10263000640A00205A3A200020593A20004265647A
:1026400020583A2000203A200A0020206375727238
:10265000656E745F706F736974696F6E3D005F7251
:10266000656C6174697665290A002C20002C2000B5
:102670002C20002C20003E3E3E2070726F62655F71
:10268000707428002FC911241FBECFEFD1E2DEBF26
:10269000CDBF00E00CBF14E0A0E0B2E0E4EBFDEA47
:1026A00001E00BBF02C007900D92A238B107D9F725
:1026B00023E1A2E8B4E001C01D92AA36B207E1F717
:1026C00013E1C3E4D3E100E006C021970109802FA4
:1026D000FE010E948FD6C234D10780E00807A9F717
:1026E0000E94DBC20C94D8D60C9400002F923F922B
:1026F0004F925F926F927F928F929F92AF92BF9212
:10270000CF92DF92EF92FF920F931F93CF93DF93BD
:10271000CDB7DEB7C957D1090FB6F894DEBF0FBEEB
:10272000CDBF11E010933A10809167058D3411F4FC
:102730000C945E1F843511F40C94922D873411F0A3
:102740000C94D32E80916505909166058C3191058E
:1027500009F474C694F4843091053CF482309105F8
:10276000CCF597FF30C00C945A1F049711F00C94CD
:102770005A1F0E949F5A0C94D52E8A32910511F44B
:102780000C941B1D5CF48D31910511F40C94421CCA
:102790004E9711F40C94461C0C945A1F8B359105DE
:1027A00011F40C94F71D8C35910511F40C94FD1D5A
:1027B0008A35910511F00C945A1F109286041092DC
:1027C00089110C94D52E8091320281110C94DA2E4D
:1027D0000C94D52E20913202222311F40C94D52E84
:1027E00011E0029709F010E00E94DB5A82E50E9496
:1027F000F232882309F45CC10E9478326B017C01BB
:1028000040907F12509080126090811270908212DE
:10281000209183123091841240918512509186123A
:1028200022962CAF3DAF4EAF5FAF229780919210B2
:1028300090919310A0919410B091951026968CAF22
:102840009DAFAEAFBFAF26972091961030919710F5
:1028500040919810509199102A962CAF3DAF4EAFF1
:102860005FAF2A9720E030E0A901C701B6010E94BE
:102870002ACF882309F4C8C5A301920126966CAD1E
:102880007DAD8EAD9FAD26970E942ACF811111C0DC
:1028900022962CAD3DAD4EAD5FAD22972A966CAD24
:1028A0007DAD8EAD9FAD2A970E942ACF882309F473
:1028B000ABC520E030E0A901C701B6010E942ACFD4
:1028C000881F8827881F18130BC080E090E0A0E8BD
:1028D000BFE36A968CAF9DAFAEAFBFAF6A970AC039
:1028E00020E030E040E85FEB6A962CAF3DAF4EAFA2
:1028F0005FAF6A97A301920126966CAD7DAD8EAD58
:102900009FAD26970E9493D362966CAF7DAF8EAF3A
:102910009FAF629722962CAD3DAD4EAD5FAD229735
:102920002A966CAD7DAD8EAD9FAD2A970E9493D354
:1029300066966CAF7DAF8EAF9FAF669762962CADFB
:102940003DAD4EAD5FAD6297CA01B9010E948FCF18
:102950004B015C0166962CAD3DAD4EAD5FAD66970B
:10296000CA01B9010E948FCF9B01AC01C501B4011E
:102970000E9494D30E94FFD52E966CAF7DAF8EAF90
:102980009FAF2E9720E030E040E05FE30E948FCFC2
:102990004B015C01A7019601C701B6010E948FCFD0
:1029A0006B017C01A5019401C501B4010E948FCF88
:1029B0009B01AC01C701B6010E9493D30E94FFD5D1
:1029C0009B01AC016A966CAD7DAD8EAD9FAD6A97F3
:1029D0000E948FCF4B015C0126962CAD3DAD4EADD4
:1029E0005FAD2697C301B2010E9494D320E030E08E
:1029F00040E05FE30E948FCF6B017C0166966CAD77
:102A00007DAD8EAD9FAD669790582E962CAD3DADA9
:102A10004EAD5FAD2E970E9470D49B01AC01C501F5
:102A2000B4010E948FCF9B01AC01C701B6010E9487
:102A300094D3A30192010E9493D36B017C012A9647
:102A40002CAD3DAD4EAD5FAD2A9722966CAD7DAD00
:102A50008EAD9FAD22970E9494D320E030E040E0FD
:102A60005FE30E948FCF2B013C012E962CAD3DAD34
:102A70004EAD5FAD2E9762966CAD7DAD8EAD9FADC8
:102A800062970E9470D49B01AC01C501B4010E9401
:102A90008FCF9B01AC01C301B2010E9494D3229657
:102AA0002CAD3DAD4EAD5FAD22970E9493D314C0C7
:102AB00089E40E94F232882329F00E9478326B0167
:102AC0007C0103C0C12CD12C76018AE40E94F23231
:102AD0008823F9F00E9478322A966CAF7DAF8EAFD2
:102AE0009FAF2A9720E030E0A901C701B6010E94FC
:102AF0002ACF81111EC020E030E0A9012A966CADDA
:102B00007DAD8EAD9FAD2A970E942ACF811111C055
:102B10007BC420E030E0A901C701B6010E942ACFA2
:102B2000882309F471C42A961CAE1DAE1EAE1FAEDA
:102B30002A97D701C601B05822968CAF9DAFAEAF91
:102B4000BFAF22972A962CAD3DAD4EAD5FAD2A9713
:102B5000505826962CAF3DAF4EAF5FAF26979C01E5
:102B6000AD01BC01CD010E948FCF4B015C012696C7
:102B70002CAD3DAD4EAD5FAD2697CA01B9010E94A7
:102B80008FCF9B01AC01C501B4010E9494D30E9478
:102B9000FFD5A6966CAF7DAF8EAF9FAFA697809105
:102BA0007F1290918012A0918112B09182122E9684
:102BB0008CAF9DAFAEAFBFAF2E97A7019601BC0102
:102BC000CD010E9494D36A966CAF7DAF8EAF9FAF5C
:102BD0006A9720918312309184124091851250910E
:102BE000861262962CAF3DAF4EAF5FAF62972A96CA
:102BF0002CAD3DAD4EAD5FAD2A9762966CAD7DAD0F
:102C00008EAD9FAD62970E9494D3AA966CAF7DAFB4
:102C10008EAF9FAFAA978091921090919310A09140
:102C20009410B091951066968CAF9DAFAEAFBFAFCC
:102C300066976A962CAD3DAD4EAD5FAD6A97BC010F
:102C4000CD010E9493D36B017C01209196103091AD
:102C5000971040919810509199106E962CAF3DAFFF
:102C60004EAF5FAF6E97AA962CAD3DAD4EAD5FAD4A
:102C7000AA976E966CAD7DAD8EAD9FAD6E970E949E
:102C800093D34B015C018091871290918812A0919F
:102C90008912B0918A12A2968CAF9DAFAEAFBFAF32
:102CA000A2979C01AD0160919A1070919B10809148
:102CB0009C1090919D100E9493D32B013C01209178
:102CC0009E1030919F104091A0105091A110E2965B
:102CD0002CAF3DAF4EAF5FAFE29780918B129091DA
:102CE0008C12A0918D12B0918E12AE968CAF9DAFCA
:102CF000AEAFBFAFAE97A701960122966CAD7DAD8A
:102D00008EAD9FAD22970E948FCFE6966CAF7DAFC0
:102D10008EAF9FAFE697A501940126966CAD7DAD71
:102D20008EAD9FAD26970E948FCF9B01AC01E6969A
:102D30006CAD7DAD8EAD9FADE6970E9494D3E696C7
:102D40006CAF7DAF8EAF9FAFE697A5019401229641
:102D50006CAD7DAD8EAD9FAD22970E948FCF4B01A4
:102D60005C01A701960126966CAD7DAD8EAD9FAD41
:102D700026970E948FCF9B01AC01C501B4010E9430
:102D800093D3E6962CAD3DAD4EAD5FADE6970E9478
:102D900007D46B017C0120E030E0A9010E942ACF1A
:102DA00087FF0AC02BED3FE049EC50E4C701B601B4
:102DB0000E9494D36B017C01112351F02BED3FE075
:102DC00049EC50E4C701B6010E9493D36B017C012A
:102DD00020E030E0A901C701B6010E942ACF81118D
:102DE00028C066962CAD3DAD4EAD5FAD66972E9674
:102DF0006CAD7DAD8EAD9FAD2E970E942ACF811117
:102E000018C06E962CAD3DAD4EAD5FAD6E9762961F
:102E10006CAD7DAD8EAD9FAD62970E942ACF8111C2
:102E200008C08BEDC82E8FE0D82E89ECE82E80E408
:102E3000F82EA7019601A6966CAD7DAD8EAD9FAD27
:102E4000A6970E948FCF4B015C0120E030E0A901E2
:102E5000C301B2010E942ACF8823C9F0A5019401C1
:102E6000C501B4010E948FCF4B015C01A301920107
:102E7000C301B2010E948FCF9B01AC01C501B40117
:102E80000E9494D30E94FFD54B015C010DC020E04D
:102E900030E0A901C501B4010E94BAD587FF04C082
:102EA000B7FAB094B7F8B0942FE632E143E85AE3AA
:102EB000C501B4010E942ACF87FF02C00C94D52E11
:102EC000C501B4010E9409D50E94DDD41B01672B06
:102ED00019F422242394312CB10180E090E00E9467
:102EE0002ECF4B015C019B01AC01C701B6010E94D2
:102EF00070D42E966CAF7DAF8EAF9FAF2E97A5018D
:102F00009401C301B2010E9470D4A6966CAF7DAF4C
:102F10008EAF9FAFA697AE962CAD3DAD4EAD5FADDB
:102F2000AE97E2966CAD7DAD8EAD9FADE2970E94FF
:102F300093D3A50194010E9470D4E2966CAF7DAF4B
:102F40008EAF9FAFE2972E962CAD3DAD4EAD5FADEF
:102F50002E97CA01B9010E948FCF20E030E040E0F7
:102F60005FE30E948FCF9B01AC0160E070E080E8DE
:102F70009FE30E9493D36E966CAF7DAF8EAF9FAFF1
:102F80006E97A2962CAD3DAD4EAD5FADA2972E8F44
:102F90003F8F48A359A3AE968CAD9DADAEADBFADEE
:102FA000AE978AA39BA3ACA3BDA360913E02709190
:102FB0003F02072E000C880B990B0E9430CF209106
:102FC00075023091760240917702509178020E940A
:102FD0008FCF2AE037ED43E25CE30E948FCF6AAFE8
:102FE0007BAF8CAF9DAF0E9408889B01AC0128533A
:102FF0003F4F4F4F5F4FA2962CAF3DAF4EAF5FAFED
:10300000A2974EAC5FAC21966FAC219722967FAC15
:10301000229741E050E064965FAF4EAF649759E16C
:103020002F965FAF2F9764962EAD3FAD6497221514
:10303000330509F473C10E9456A70E940888DC0179
:10304000CB01A2962CAD3DAD4EAD5FADA297821BDC
:10305000930BA40BB50BB7FD10C00E9408889B0111
:10306000AC0128533F4F4F4F5F4FA2962CAF3DAF5F
:103070004EAF5FAFA2970E94436F2F963FAD2F9741
:1030800031502F963FAF2F97332309F44BC06E96E4
:103090002CAD3DAD4EAD5FAD6E9726966CAD7DAD62
:1030A0008EAD9FAD26970E948FCF6B017C012E962F
:1030B0002CAD3DAD4EAD5FAD2E97B201C3010E9468
:1030C0008FCFA70196010E9494D37B018C016E964D
:1030D0002CAD3DAD4EAD5FAD6E97B201C3010E9408
:1030E0008FCF4B015C012E962CAD3DAD4EAD5FAD4B
:1030F0002E9726966CAD7DAD8EAD9FAD26970E9426
:103100008FCF9B01AC01C501B4010E9493D32B0169
:103110003C01C701D80126968CAF9DAFAEAFBFAFC3
:10312000269761C064964EAD5FAD6497BA0180E0AA
:1031300090E00E942ECF2E962CAD3DAD4EAD5FADF2
:103140002E970E948FCF4B015C010E946DD46B01C2
:103150007C01C501B4010E94F5D54B015C01A701BA
:10316000960122966CAD7DAD8EAD9FAD22970E94EB
:103170008FCF2B013C01A50194012A966CAD7DAD4A
:103180008EAD9FAD2A970E948FCF9B01AC01C301EA
:10319000B2010E9494D32B013C01A5019401229617
:1031A0006CAD7DAD8EAD9FAD22970E948FCF4B0150
:1031B0005C01A70196012A966CAD7DAD8EAD9FADE9
:1031C0002A970E948FCF9B01AC01C501B4010E94D8
:1031D00093D326966CAF7DAF8EAF9FAF269759E104
:1031E0002F965FAF2F979201A3016A966CAD7DADCC
:1031F0008EAD9FAD6A970E9494D36E8B7F8B888F24
:10320000998F26962CAD3DAD4EAD5FAD2697AA9613
:103210006CAD7DAD8EAD9FADAA970E9494D36A8FA1
:103220007B8F8C8F9D8FA6962CAD3DAD4EAD5FAD47
:10323000A6976E8D7F8D88A199A10E9494D36E8FE1
:103240007F8F88A399A3E2962CAD3DAD4EAD5FADC7
:10325000E2976AA17BA18CA19DA10E9494D36AA34D
:103260007BA38CA39DA380913D02882321F0CE01F6
:1032700046960E94E8B5E090BE111AAA1BAA1CAAA5
:103280001DAA0E891F89288D398D0EA31FA328A77B
:1032900039A74A8D5B8D6C8D7D8D4AA75BA76CA786
:1032A0007DA78E8D9F8DA8A1B9A18EA79FA7A8AB42
:1032B000B9AB09831A832B833C834D835E836F8371
:1032C000788789879A87AB87BC878AA19BA1ACA1A5
:1032D000BDA18D879E87AF87B88B9E01235F3F4F2F
:1032E000AE01475F5F4FBE016B5F7F4FCE0101961E
:1032F0000E945A93CE01C2966C018E01065C1F4F4C
:103300009E012E5D3F4FAE01425D5F4FBE01665D87
:103310007F4F0C970E94973D81116CC0E090BE11C9
:103320001EAA1FAA18AE19AE009192101091931008
:1033300020919410309195100EA31FA328A739A7B0
:10334000409196105091971060919810709199103B
:103350004AA75BA76CA77DA780919A1090919B10BC
:10336000A0919C10B0919D108EA79FA7A8ABB9AB60
:1033700009831A832B833C834D835E836F83788715
:1033800089879A87AB87BC8780919E1090919F1008
:10339000A091A010B091A1108D879E87AF87B88BA8
:1033A0009E01235F3F4FAE01475F5F4FBE016B5FE2
:1033B0007F4FCE0101960E945A93DE01D6966D0191
:1033C0008E01065C1F4F2EE930E1AE01425D5F4F7A
:1033D000BE01665D7F4FCE0186960E94973D80E1DB
:1033E000E2E9F0E1AFE7B2E101900D928A95E1F7F1
:1033F0000C94D52E6496EEADFFAD6497319664962D
:10340000FFAFEEAF64970FCEE5ECF4E284918F014D
:103410000F5F1F4F882321F00E94A233F801F6CFDF
:10342000E2EFF1E084918F010F5F1F4F882311F4C9
:103430000C94D52E0E94A233F801F4CF0E9458B309
:103440008091631385FF0EC0EAE6F2E084918F015C
:103450000F5F1F4F882321F00E94A233F801F6CF9F
:103460000E941A59809152138770873071F58FE44A
:103470000E94F232882369F00E946932882329F180
:103480008091631385FD02C00C94D52EEFE4F2E029
:1034900004C08FE40E94AB32F1CF84918F010F5FA3
:1034A0001F4F882321F00E94A233F801F6CFE6E4F3
:1034B000F2E084918F010F5F1F4F882311F40C9469
:1034C000D52E0E94A233F801F4CF0E94554C80E023
:1034D0000E94183B3091BE1163963FAF639721E085
:1034E00040E050E0BA0180E00E94FE630E94903A02
:1034F0008091631385FF0CC0EDE2F2E084918F01AF
:103500000F5F1F4F882321F00E94A233F801F6CFEE
:1035100011E010932C0588E50E94AB3227968FAFFF
:10352000279789E50E94AB32282E8AE50E94AB32AC
:103530002B968FAF2B9727964FAD2797411105C03C
:10354000211005C0382E312607C0211002C0312CB1
:1035500003C02B963FAC2B970E948E3382E50E94CE
:10356000F232882369F00E9478326B017C0120E0FE
:1035700030E0A9010E942ACF882309F43FC006C089
:10358000C12CD12C10EAE12E10E4F12E311008C02C
:1035900027965FAD2797511103C0222009F443C13C
:1035A000C0929A10D0929B10E0929C10F0929D10C5
:1035B00020918712309188124091891250918A127D
:1035C000C701B6010E94BAD51816C4F480916313DE
:1035D00085FF09C0B701A60181E192E00E94A058D1
:1035E0008AE00E94A23319821A821B821C82BE01C9
:1035F0006F5F7F4F8AE990E10E946C39311009C0FA
:1036000027968FAD2797882309F4FCC0222009F460
:1036100005C110928312109284121092851210929A
:10362000861210927F1210928012109281121092C4
:1036300082120E94BA3AEAE9F4E2A4916796AFAF27
:103640006797E4E2F4E285909590A590B490E8E263
:10365000F4E2C590D590E590F490A7019601C501DC
:10366000B4010E94BAD518162CF4A5019401C70123
:10367000B60104C0A7019601C501B4010E9470D42F
:103680002B013C01E7EEF3E22591359145915491F0
:1036900022962CAF3DAF4EAF5FAF2297E3EEF3E241
:1036A00085919591A591B49126968CAF9DAFAEAFC3
:1036B000BFAF2697BC01CD010E942ACF87FD0DC068
:1036C0001EAD0FAD21969FAD21972F969FAF2F97DF
:1036D0002296AFAD2297AEAF10C023961FAD2397B1
:1036E00024960FAD24972596BFAD25972F96BFAF93
:1036F0002F972696EFAD2697EEAFA3019201C30157
:10370000B2010E948FCF20E030E040E85FE30E94EA
:1037100094D30E94FFD59B01AC01612F702F2F968F
:103720008FAD2F979EAD0E948FCF69837A838B8355
:103730009C83EBE9F4E21491209187123091881276
:103740004091891250918A1222962CAF3DAF4EAF14
:103750005FAF229720E030E040EC5FE3C701B601A5
:103760000E948FCF6B017C01612F110F770B880BAB
:10377000990B0E9430CF9B01AC01C701B6010E949A
:103780008FCF2B013C0120E030E040EC5FE3C5012E
:10379000B4010E948FCF6B017C0167963FAD6797A4
:1037A000632F330F770B880B990B0E9430CF9B014F
:1037B000AC01C701B6010E948FCFAE014F5F5F4FD2
:1037C0006A012296ECACFDAC0EAD1FAD2297A301B1
:1037D00092010E943B380E94C49A10928312109268
:1037E0008412109285121092861210927F121092FB
:1037F00080121092811210928212311005C0211095
:1038000003C007C0222079F081E00E947AB631100F
:1038100005C027969FAD2797992329F080E00E9445
:103820007AB6311005C02B965FAD2B97552319F052
:1038300082E00E947AB60E94BA3A80912B0580936A
:103840002C050E946C3A21E040E050E0BA016396FA
:103850008FAD63970E94FE630E9429AF809163132E
:1038600085FD02C00C94D52EE8E0F2E084918F0132
:103870000F5F1F4F882311F40C94D52E0E94A233A2
:10388000F801F4CF0E947F5E0C94D52EC0907F1279
:10389000D0908012E0908112F090821288E50E9410
:1038A000F232811109C020E030E040EA51E4C70162
:1038B000B6010E9494D302C00E9478326E8B7F8B37
:1038C000888F998FC0908312D0908412E0908512D7
:1038D000F090861289E50E94F232811109C020E041
:1038E00030E040E052E4C701B6010E9494D302C028
:1038F0000E9478329B01AC0169837A838B839C831D
:103900006E897F89888D998D0E9479B8882311F4FA
:103910000C94D52E80E00E94183B0E94903A85E4DA
:103920000E94F232882321F00E946932182F04C0CD
:1039300085E40E94AB3211E086E50E94F2328823D2
:1039400021F00E944832262F01C021E0412FBE0104
:103950006F5F7F4FCE0146960E940CBE6B017C01CB
:103960009B01AC010E9440D681115FC08E889F8868
:10397000A88CB98C20E030E0A901C501B4010E94F7
:103980002ACF87FD05C027E137EB41E558E304C0A6
:1039900027E137EB41E558EBC501B4010E9494D310
:1039A000AB01BC018DE792E00E94A05889809A800B
:1039B000AB80BC8020E030E0A901C501B4010E94C9
:1039C0002ACF87FD05C027E137EB41E558E304C066
:1039D00027E137EB41E558EBC501B4010E9494D3D0
:1039E000AB01BC0188E792E00E94A05820E030E0E3
:1039F000A901C701B6010E942ACF87FD05C027E1B2
:103A000037EB41E558E304C027E137EB41E558EBDC
:103A1000C701B6010E9494D3AB01BC0183E792E0D9
:103A20000E94A0588AE00E94A2330E946C3A0E9431
:103A300029AF0C94D52E80913202882311F40C9476
:103A4000D52E89E40E94F232182F882321F00E949B
:103A50004832E62E01C0E12C8AE40E94F232082F9F
:103A6000882331F00E944832F62E111104C00BC099
:103A7000F12C1123C1F084E08E1510F00C94173056
:103A8000E5E8F2E004C094E09F15D0F30CC0849107
:103A90008F010F5F1F4F882311F40C94D52E0E94C5
:103AA000A233F801F4CF0E948E331123F1F020915C
:103AB000F8103091F9104E2D4203B001439F700D64
:103AC00011248091C1119091C211680F791F072EA6
:103AD000000C880B990B0E9430CF6093921070936A
:103AE000931080939410909395100023F1F02091FF
:103AF000FA103091FB105F2D5203B001539F700DEF
:103B000011242091C3113091C411620F731F072E2D
:103B1000000C880B990B0E9430CF60939610709325
:103B20009710809398109093991080E50E94F2323C
:103B30008823E9F00E9469328823A9F11123D9F082
:103B400020E030E040EA51E46091921070919310CF
:103B500080919410909195100E9493D3609392104D
:103B600070939310809394109093951004C080E507
:103B70000E94AB32E1CF0023B1F020E030E040E022
:103B800052E46091961070919710809198109091E6
:103B900099100E9493D3609396107093971080931E
:103BA00098109093991086E40E94F2328823D9F0FD
:103BB0000E9478326B017C0120E030E0A9010E9474
:103BC000BAD5181684F420E030E040E752E4C7018B
:103BD000B6010E9470D46093750270937602809350
:103BE0007702909378020E9416740C94D52E10934D
:103BF0008604109389110C94D52E85E193E09FAF34
:103C00008EAFB2E78B2EB2E19B2EA12CB12C10E02F
:103C1000312CAEADBFAD8D91BFAFAEAF0E94F232D1
:103C2000882309F4E7C00E9478326B017C01B3E07D
:103C30003B1659F0F501E95AFC4E20813181428151
:103C400053810E9493D36B017C01F501E158FD4E35
:103C50002081318142815381B601C7010E9493D3F3
:103C60009B01AC01E3E03E12B5C010928E111092A0
:103C70008F1110929011109291111092A611109222
:103C8000A7111092A8111092A9111092AA111092C6
:103C9000AB111092AC111092AD1110929E111092B6
:103CA0009F111092A0111092A1111092B6111092B2
:103CB000B7111092B8111092B9111092AE11109262
:103CC000AF111092B0111092B1111092A211109276
:103CD000A3111092A4111092A5111092BA11109272
:103CE000BB111092BC111092BD111092B211109222
:103CF000B3111092B4111092B5110091BE1110E0E1
:103D0000F801EC56FE4E8081823061F4000F111FE5
:103D1000000F111FF801EA56FE4E10821182128226
:103D2000138234C0813091F5000F111F000F111F55
:103D3000F801EA56FE4E40805180628073802CEA82
:103D400035EC47E257E3C301B2010E94BAD5181619
:103D5000ECF420E030E0A901B601C7010E942ACFAF
:103D6000811114C077FA709477F87094F801E256D4
:103D7000FE4E4082518262827382F801EA54FE4E06
:103D8000408251826282738262017301C601D7014F
:103D900080938B1290938C12A0938D12B0938E12FD
:103DA00001E213E0D8018D918D01882319F00E9462
:103DB000A233F8CF60918B1270918C1280918D128A
:103DC00090918E1242E00E9493368AE00E94A233C4
:103DD00011E010C0F40160817181828193810E94A1
:103DE00094D3D4016D937D938D939C931397832DDE
:103DF0000E94AC333394B4E08B0E911CE4E0AE0E21
:103E0000B11CF4E03F1205CF112309F44FC020E0AC
:103E100030E0A90160918B1270918C1280918D120B
:103E200090918E120E9494D3209163073091640781
:103E300040916507509166070E948FCF0E94C5D5BB
:103E40006093C7127093C8128093C9129093CA12DC
:103E50009091A5128091A612981719F00E94F74B25
:103E600025C00E94554C80916F0081FB992790F9E5
:103E700081FF05C080916F008D7F80936F0040911E
:103E8000C7125091C8126091C9127091CA12409322
:103E9000A40C5093A50C6093A60C7093A70C9923C7
:103EA00029F080916F00826080936F000E9429AF9B
:103EB0000C94D52E0E94EBC00C94D52E80916505F4
:103EC000909166058337910511F40C9413280CF03A
:103ED000C7C08D34910509F4DDC50CF058C08D3391
:103EE000910509F4B4C3B4F58033910509F4B8C25F
:103EF000F4F48231910511F40C940D287CF441976F
:103F000011F00C948F2D5F988A9880910801817030
:103F100080930601129847980C94D52E8F31910505
:103F200009F4EDC18A9709F48DC20C948F2D8A3360
:103F3000910509F4B1C12CF4C99709F495C20C9408
:103F40008F2D8B33910509F4EDC2CC9709F402C390
:103F50000C948F2D8234910509F4CBC484F48F33F3
:103F6000910509F4E0C30CF4BDC38034910509F454
:103F7000F3C38134910509F44FC40C948F2D8B3415
:103F8000910509F46EC514F40C94D52E6EC58836CF
:103F9000910509F483C584F58235910511F40C94DB
:103FA0000628A4F48F34910509F473C114F40C9419
:103FB000D52E8035910509F4A9C48135910511F0FC
:103FC0000C948F2D0E9442B10C94D52E843591050E
:103FD00011F40C940D2814F40C94092885359105DE
:103FE00011F40C9410288C35910511F00C948F2D40
:103FF0000E942FB00C94D52E8D36910509F410C671
:104000009CF48A36910509F4FBC70CF4DCC58B36A9
:10401000910509F4F8C78C36910511F00C948F2D99
:10402000109202020C94D52E8037910509F4C3C575
:1040300054F48E36910509F45DC58F36910509F467
:104040006CC50C948F2D8137910509F4B8C5823762
:10405000910511F00C948F2D0E94F4AF0C94D52E85
:10406000883121E0920711F40C942E2B0CF07FC0C4
:10407000893C910509F4E5C7CCF58937910509F428
:10408000DBC7E4F48637910509F4D0C73CF48537E3
:10409000910511F40C94D52E0C948F2D8737910532
:1040A00009F4C7C78837910511F00C948F2D81E072
:1040B00080932C0580932B050C94D52E8B3991057C
:1040C00009F487C534F48C38910509F47CC70C9445
:1040D0008F2D8E3B910509F490C7883C910511F016
:1040E0000C948F2D0E94DA6E0C94D52E833D910591
:1040F00011F40C94342A04F58C3C910509F4D7C7CB
:104100007CF48B3C910511F00C948F2D08E0E02E8F
:1041100007E0F02E05E113E084E0D82ED00EB8C7FA
:104120008D3C910511F40C94CC288E3C910511F432
:104130000C944B290C948F2D8C3D910511F40C940B
:10414000202B3CF48A3D910511F40C94142B0C9413
:104150008F2D8D3D910511F40C942B2B823E9105F2
:1041600011F00C948F2D0E94006E0C94D52E843A81
:1041700041E0940711F40C945C2B0CF045C083369D
:10418000A1E09A0711F40C94372BFCF48E32E1E095
:104190009E0711F40C94312B4CF48D32914011F0A8
:1041A0000C948F2D0E94686C0C94D52E8F3231E0C8
:1041B000930711F40C94342B8033914011F00C943C
:1041C0008F2D0E94E96B0C94D52E813951E0950713
:1041D00011F40C94502B4CF48039914011F00C9454
:1041E0008F2D0E94554C0C94D52E8239E1E09E070C
:1041F00011F40C94562B8A39914011F00C948F2DA8
:104200000E9400660C94D52E863F21E0920711F49F
:104210000C94F22CECF48C3A41E0940711F40C94D9
:104220008B293CF4853A914011F40C94602C0C9449
:104230008F2D843FB1E09B0711F40C94EF2C853F48
:10424000914011F00C948F2D0E94E0A00C94D52E7B
:104250008335F3E09F0711F40C94202D6CF4873F15
:1042600031E0930711F40C94F52C883F914011F440
:104270000C94FF2C0C948F2D8B3853E0950711F480
:104280000C94D52E873E934011F40C947F2D0C9402
:104290008F2D0EE213E031C380919611909197110A
:1042A000A0919811B09199118093870490938804FC
:1042B000A0938904B0938A0481E080939411409183
:1042C0009A1150919B1160919C1170919D11409396
:1042D0008B0450938C0460938D0470938E048093B0
:1042E0009511109293111092921110928A111092BE
:1042F0008B1110928C1110928D110C94D52E0E945E
:10430000324FECE3CE2ED12CE12CF12CA7019601FB
:104310000E9436D3762E672ECA01B901A7019601F5
:104320000E9436D36B017C01CA01B90128E130E05B
:1043300040E050E00E9436D34B015C01C9016DE6BC
:1043400071E00E9468D68E010F5F1F4F61157105E5
:1043500099F06F927F92DF92CF929F928F929F936C
:104360008F937F936F938CEC92E09F938F931F9327
:104370000F930E94FBCE26C0009789F06F927F9228
:10438000DF92CF929F928F929F938F938CEB92E0CC
:104390009F938F931F930F930E94FBCE13C08114A2
:1043A0009104A104B104B1F06F927F92DF92CF9299
:1043B0009F928F9280EB92E09F938F931F930F9326
:1043C0000E94FBCE0FB6F894DEBF0FBECDBFEFEB61
:1043D000F4E223C0C114D104E104F10469F06F9246
:1043E0007F92DF92CF9288EA92E09F938F931F9300
:1043F0000F930E94FBCEE6CF6F927F9284EA92E009
:104400009F938F931F930F930E94FBCE0F900F905B
:104410000F900F900F900F90DACF84917F019FEF54
:10442000E91AF90A882321F00E94A233F701F5CF97
:10443000B80180EE92E00E94F2588AE00E94A23316
:104440000C94D52E83E50E94F23281110C94DF2E5C
:1044500084E40E94F23281110C94DF2E0C94D52E4C
:104460000E94D6A80C94D52E85E40E94AB328823F6
:1044700079F181E090E020912E0530912F05232BDA
:1044800011F080E090E090932F0580932E050E941C
:10449000435080912E0590912F05892B19F407E444
:1044A00013E00EC00DE513E0D8018D918D01882336
:1044B00019F00E94A233F8CF8AE00E94A2331AC0FA
:1044C000F80181918F018823B9F30E94A233F8CFBC
:1044D00080918A1190918B11A0918C11B0918D11C6
:1044E00080939A1090939B10A0939C10B0939D1072
:1044F0000E94167483E50E94AB32882331F081E07C
:1045000090E0909331058093300582E50E94AB32B4
:10451000882311F40C94D52E109231051092300599
:104520000C94D52E1092BF11109294111092870402
:10453000109288041092890410928A0410929511A6
:1045400010928B0410928C0410928D0410928E04A1
:104550000C94D52E20E030E0A90160919812709162
:10456000991280919A1290919B120E942ACF8823CF
:1045700019F081E08093BF1110928E1110928F116B
:1045800010929011109291111092A6111092A711F1
:104590001092A8111092A9111092AA111092AB11A9
:1045A0001092AC111092AD1110928A1110928B11D1
:1045B00010928C1110928D1110929E1110929F11D9
:1045C0001092A0111092A11181E0809354021092D8
:1045D00096111092971110929811109299111092B1
:1045E000AE111092AF111092B0111092B111109241
:1045F000B6111092B7111092B8111092B911109211
:10460000A2111092A3111092A4111092A5118093DF
:10461000550210929A1110929B1110929C111092B7
:104620009D111092B2111092B3111092B411109208
:10463000B5111092BA111092BB111092BC111092C8
:10464000BD1110929311109292110C94D52E8CE4FE
:104650000E94AB3281111093010282E50E94AB32BD
:10466000882319F081E08093000281E40E94AB323C
:10467000882329F081E0809301028093000281E089
:10468000809342020AE613E0D8018D918D018823C0
:1046900021F10E94A233F8CF80916313882309F49B
:1046A0007DC273E2C72E73E0D72EE12CF12C20E0FF
:1046B0008091631390E00E2C02C0959587950A9423
:1046C000E2F780FD53C2FFEFEF1AFF0A32E0C30E9C
:1046D000D11C46E0E416F10459F78AE00E94A233A7
:1046E0000C94D52E8CE40E94AB3281111092010201
:1046F00082E50E94AB3281111092000281E40E9497
:10470000AB32882321F01092010210920002109225
:1047100042020CE713E0F80181918F018823E9F24E
:104720000E94A233F8CF8CE40E94AB328111109228
:10473000900482E50E94AB32811110928F0481E4D3
:104740000E94AB32882321F010928F0410929004C3
:1047500010923B100C94D52E80910102811103C060
:104760000FE813E04FC0809100028823C9F304EAE8
:1047700013E0D8018D918D01882319F00E94A23396
:10478000F8CF8FE00E947686892B19F008EA13E0B3
:104790000DC005E413E0F80181918F01882319F021
:1047A0000E94A233F8CF0AEA13E008C0D8018D9125
:1047B0008D018823C1F30E94A233F8CFF8018191C3
:1047C0008F01882319F00E94A233F8CF82E00E9463
:1047D0007686892B19F008EA13E00BC005E413E094
:1047E000D8018D918D01882309F477CF0E94A233DF
:1047F000F7CFF80181918F01882309F46ECF0E94D1
:10480000A233F7CFD8018D918D01882311F40C9438
:10481000D52E0E94A233F6CF8EE40E94AB328823BD
:1048200051F00E94783200913205109133050E94B8
:10483000DDD4F801648389E40E94AB32882369F0F7
:104840000E94783200913205109133050E94D8D42D
:10485000D8015A967C936E9359978DE40E94AB329F
:10486000882359F00E947832009132051091330567
:104870000E94D8D4F801748F638F84E50E94AB3214
:10488000882331F00E9478320E94DDD46093410287
:104890008FE40E94AB32882351F00E9478326093FB
:1048A00048027093490280934A0290934B0288E534
:1048B0000E94AB32882341F01092D4101092D51090
:1048C0001092D6101092D71089E50E94AB3288233F
:1048D00011F40C94D52E80E090E0A0E8BFE3809323
:1048E000D4109093D510A093D610B093D7100C94F9
:1048F000D52E0E94A8820C94D52ED8018D918D01C1
:10490000882309F4EACE0E94A233F7CF85E50E94FE
:10491000AB3281110E9458B384E40E94AB32811102
:104920000E941D8487E50E94AB32882331F00E94EB
:1049300078320E94DDD460934F0283E50E94AB324F
:10494000882331F00E9478320E94DDD460934E02B9
:104950008FE40E94AB32882341F00E9478320E949B
:10496000D8D470934D0260934C028EE40E94AB3217
:10497000882351F00E9478326093E8107093E91018
:104980008093EA109093EB108DE40E94AB32882361
:1049900051F00E9478326093E0107093E1108093A0
:1049A000E2109093E31089E50E94AB32882351F026
:1049B0000E9478326093DC107093DD108093DE10DB
:1049C0009093DF1088E50E94AB32882351F00E945B
:1049D00078326093D8107093D9108093DA10909346
:1049E000DB1082E40E94AB32882351F00E947832BF
:1049F0006093E4107093E5108093E6109093E710B5
:104A000081E40E94AB32882359F00E9478320E94E0
:104A1000D8D47093120260931102CB010E94488394
:104A200084E50E94AB32882349F00E9478320E94CC
:104A3000DDD4862F609334050E949C8389E40E9414
:104A4000AB32882311F40C94D52E809134050E944A
:104A50009C8380911102909112020E9448830C94D1
:104A6000D52E0E942F3C0C94D52E809119058130B3
:104A700011F00C94D52E82E0809319050E940888CD
:104A8000609311057093120580931305909314059C
:104A90000C94D52E0E948D3C0C94D52E88E690E087
:104AA0000E943D3681110C94D52E8091631383FFB3
:104AB00002C00C94D52E83E50E94F2328823B1F017
:104AC0000E9478320E94D8D4DC01CB016091BA10E8
:104AD0000E94FE320E94783220E030E04AEA52E43E
:104AE0000E942ACF181614F00E948D3C0E94FD3CB3
:104AF0000C94D52E8EE40E94F232882311F40C948B
:104B0000D52E0E94483260939E1270939F1280931C
:104B1000A0129093A1120C94D52E83E50E94AB3283
:104B2000882359F083E50E94F232882319F00E940D
:104B3000583201C080E080936313EFEBF4E284917C
:104B40008F010F5F1F4F882321F00E94A233F801CD
:104B5000F6CFE3E3F3E084918F010F5F1F4F8823CB
:104B600009F49ACD0E94A233F801F5CFBB24B39487
:104B7000B20E222319F08CE20E94A233F601259195
:104B80003491F901849189010F5F1F4F882321F02F
:104B90000E94A2339801F5CF2B2D95CDEFE2F3E0E3
:104BA00084918F010F5F1F4F882309F496CD0E94D7
:104BB000A233F801F5CF8AE393E00E94FAB80E948D
:104BC00050B10C94D52E0E943BB310923A100C9425
:104BD000203083E50E94F232882311F40C94D52E04
:104BE0000E945832182F8D3308F01CE310934810A0
:104BF0000E9408886B017C01212F30E0A8EEB3E011
:104C00000E9484D3C60ED71EE81EF91EC09244101F
:104C1000D0924510E0924610F09247100C94D52E99
:104C20008DE690E00E943D3681110C94D52E809146
:104C3000631383FF02C00C94D52E83E50E94F232E9
:104C400067968FAF6797811105C082E50E94F232A7
:104C50008823C9F00E9478320E94D8D4DC01CB01AD
:104C60006091BA100E94FE320E94783220E030E05B
:104C70004AEA52E40E942ACF181614F40C94232F07
:104C80000E948D3C81E0EA968FAFEA970E94FD3C3E
:104C9000EA968FADEA97882311F40C94D52E81E023
:104CA0008093020226961CAE1DAE1EAE1FAE269746
:104CB000AA961CAE1DAE1EAE1FAEAA971EAE6B9678
:104CC0001FAE6B975CE36F965FAF6F978CE1AB960F
:104CD0008FAFAB9796E4A3969FAFA397412C512C2F
:104CE00050E8C52E6FEBD62E812C912C5401E0900C
:104CF000BA10F12CF701EE0FFF1FEA54FF4E60814E
:104D00007181072E000C880B990B0E9430CF162F53
:104D1000072F782E692E262F372F482F592FB201B3
:104D2000C6010E942ACF882301F1F701EE0FFF1F71
:104D3000EE0FFF1FE255FF4E2081318142815381EA
:104D4000612F702F872D962D0E942ACF881F8827CC
:104D5000881F8EAF6796AFAD6797AA2351F088235F
:104D600041F0809102020C94D52E142D052D7C2C3F
:104D70006D2C0E9408886B017C01DC01CB01AA9696
:104D80002CAD3DAD4EAD5FADAA97821B930BA40B2E
:104D9000B50BB7FD3DC0D701C60188519C4FAF4F41
:104DA000BF4FAA968CAF9DAFAEAFBFAFAA970E9480
:104DB000388AE3E4F3E084912F019FEF491A590AFE
:104DC000882321F00E94A233F201F5CF81149104CF
:104DD000A104B104B9F0D501C4018854944FAF4F78
:104DE000BF4FBC01CD016C197D098E099F0928EECA
:104DF00033E040E050E00E9436D3CA01B9010E947E
:104E0000793603C08FE30E94A2338AE00E94A23366
:104E10000E94436F0E94088860933C1070933D107D
:104E200080933E1090933F10E091BA10A4E0EA9F67
:104E3000F0011124E255FF4EB0812796BFAF2797AE
:104E400021812B962FAF2B9732812F963FAF2F9733
:104E5000438163964FAF63972B2F2B963FAD2B97D4
:104E60002F964FAD2F9763965FAD6397612F702F8D
:104E7000872D962D0E9493D31B012C0120E030E05A
:104E8000A9010E94BAD587FF04C057FA509457F879
:104E9000509481149104A104B10459F420E030E04D
:104EA00040E85FE3C201B1010E942ACF87FF0DC035
:104EB0000AC020E030E040E450E4C201B1010E94A9
:104EC000BAD5181614F4460157015EAD552309F4FE
:104ED0005EC026968CAD9DADAEADBFAD2697892B3D
:104EE0008A2B8B2B71F0D701C60126962CAD3DADD8
:104EF0004EAD5FAD2697821B930BA40BB50BB7FD90
:104F000046C027962FAD27972B963FAD2B972F9610
:104F10004FAD2F9763965FAD63976B966FAD6B97B1
:104F20006F967FAD6F97AB968FADAB97A3969FAD06
:104F3000A3970E9493D320E030E040EC5FE30E940F
:104F40002ACF87FD0ECFD701C601805A9541AF4FBA
:104F5000BF4F26968CAF9DAFAEAFBFAF26972796BB
:104F60009FAD27976B969FAF6B972B96AFAD2B9707
:104F70006F96AFAF6F972F96BFAD2F97AB96BFAF22
:104F8000AB976396EFAD6397A396EFAFA39780912E
:104F90000202882309F4E5CE81149104A104B1042E
:104FA00029F4412E502EC72CD62CA1CEF8EBCF1AC7
:104FB000FBE0DF0AE108F108C818D908EA08FB0895
:104FC000F7FECFCEEECF8091631383FDEEC683E56F
:104FD0000E94F232882309F4E8C60E9478320E94C7
:104FE000D8D46738710514F067E870E07093AD109D
:104FF0006093AC100E94AFA5D8C60E947AB1D5C606
:105000000E941FB3D2C60E9410B3CFC6109285046F
:10501000CCC681E080938504C8C60E94E5B0C5C6B1
:105020000E94CDB0C2C60E94DAAEBFC60E9488AE52
:10503000BCC60E94989AB9C610922C0510922B05F6
:10504000B4C697E3E92E97E0F92E05E113E024E0DA
:10505000D22ED00ED8018D918D010E94AB328823C3
:1050600049F00E9478320E94DDD4F7016083718399
:1050700082839383F4E0EF0EF11CD012EBCF0E94F9
:105080002D3D93C6F4E0EF0EF11CD01609F48DC649
:10509000D8018D918D010E94AB32882399F30E9433
:1050A0007832F7016083718382839383EBCF83E54A
:1050B0000E94F2328823A1F00E94783260930007A8
:1050C0007093010780930207909303076093FC0697
:1050D0007093FD068093FE069093FF0610E001C0DA
:1050E00011E080E50E94F232882359F00E94783264
:1050F0006093000770930107809302079093030762
:1051000010E082E50E94F232882359F00E94783242
:105110006093040770930507809306079093070731
:1051200010E084E50E94F232882359F00E94783220
:105130006093FC067093FD068093FE069093FF0635
:1051400034C6112309F431C640910007509101077C
:1051500060910207709103078DE493E00E94A058CC
:105160004091040750910507609106077091070769
:105170008AE493E00E94A0584091FC065091FD06FD
:105180006091FE067091FF0687E493E00E94A058AC
:105190008AE00E94A23309C681E50E94AB328823CF
:1051A00051F00E943832609318077093190780936A
:1051B0001A0790931B0783E50E94AB32882351F0B6
:1051C0000E94783260932007709321078093220712
:1051D0009093230784E50E94AB32882351F00E940C
:1051E000783260931C0770931D0780931E0790937D
:1051F0001F0788E50E94AB32882351F00E94783265
:105200006093EC067093ED068093EE069093EF06A4
:1052100089E50E94AB32882351F00E947832609376
:10522000F0067093F1068093F2069093F3068AE5F8
:105230000E94AB328823F1F00E9478326093F4062A
:105240007093F5068093F6069093F7062DEC3CECF0
:105250004CEC5DE30E942ACF181664F0EDE5F3E014
:1052600084918F010F5F1F4F882321F00E94A2338A
:10527000F801F6CF85E40E94AB32882309F495C586
:105280000E9478326093F8067093F9068093FA06CC
:105290009093FB068AC585E40E94AB32882351F0C7
:1052A0000E9478326093F0107093F1108093F210A6
:1052B0009093F3108AE50E94AB32882351F00E944C
:1052C00078326093EC107093ED108093EE10909311
:1052D000EF10B5E1CB2EB3E0DB2E15E3E12E15E0A8
:1052E000F12E10E0D6018D916D010E94AB32882322
:1052F00051F00E947832F701608371838283938337
:10530000812F0E94AC331F5FF4E0EF0EF11C1330CD
:1053100049F70C94561F0E9480BC811146C5A3E238
:10532000AA2EA3E2BA2E2FE732E13FAF2EAFAE0195
:105330004F5F5F4F4A010AE914E21A0153E0500F30
:1053400023965FAF2397F5016591759185919491AF
:10535000AEADBFADCD90DD90ED90FD90BFAFAEAFE7
:10536000A70196010E9493D32B013C0120E030E07D
:1053700040EA51EC0E94BAD587FD10C020E030E031
:1053800040EA51E4C301B2010E942ACF181634F05A
:10539000F10140825182628273820DC0F8018491D2
:1053A0001816B4F7F7FAF094F7F8F094F101C08208
:1053B000D182E282F382D101CD90DD90ED90FD901B
:1053C0001D0120E030E040EA51ECC701B6010E9427
:1053D000BAD587FF03C0E5ECF4E20BC020E030E073
:1053E00040EA51E4C701B6010E942ACF1816C4F45E
:1053F000F2CF84918F010F5F1F4F882321F00E940D
:10540000A233F801F6CFEFE8F3E084918F010F5F4C
:105410001F4F882309F4C9C40E94A233F801F5CFB5
:10542000B4E0AB0EB11C0F5F1F4F2396EFAD239777
:10543000E01389CFF5E3EF2EF5E0FF2E10E0F40145
:1054400081919191A191B1914F01F7018193919334
:10545000A193B1937F01812F0E94AC331F5F133062
:1054600071F70E9429AFA1C4EFEBF4E284918F01A0
:105470000F5F1F4F882321F00E94A233F801F6CF5F
:1054800083E50E94AB32882321F00E946932809329
:105490003D02E5EDF3E084918F010F5F1F4F8823FC
:1054A00021F00E94A233F801F6CF80913D028111D4
:1054B00003C0E1EDF3E002C0EDECF3E084918F0175
:1054C0000F5F1F4F882321F00E94A233F801F6CF0F
:1054D000E5ECF3E084918F010F5F1F4F882321F0EB
:1054E0000E94A233F801F6CF209157133091581340
:1054F0004091591350915A13609165027091660260
:1055000080916702909168020E9494D3AB01BC0124
:1055100083EC93E00E94A05820915B1330915C13C0
:1055200040915D1350915E136091690270916A021F
:1055300080916B0290916C020E9494D3AB01BC01EC
:1055400080EC93E00E94A05820915F13309160138B
:10555000409161135091621360916D0270916E02DF
:1055600080916F02909170020E9494D3AB01BC01B4
:105570008DEB93E00E94A058E5EBF3E084918F015E
:105580000F5F1F4F882321F00E94A233F801F6CF4E
:1055900020915713309158134091591350915A1339
:1055A0006091590270915A0280915B0290915C0265
:1055B0000E9494D3AB01BC0183EB93E00E94A058FE
:1055C00020915B1330915C1340915D1350915E13F9
:1055D00060915D0270915E0280915F029091600225
:1055E0000E9494D3AB01BC0180EB93E00E94A058D1
:1055F00020915F13309160134091611350916213B9
:1056000060916102709162028091630290916402E4
:105610000E9494D3AB01BC018DEA93E00E94A05894
:105620008AE00E94A233C1C38AED90E00E943D3619
:105630008111BBC38091BA10882309F4B6C307C493
:1056400083E5D0D7882309F4B0C322D770933F02F3
:1056500060933E02AAC30E94656EA7C30E94226D9A
:10566000A4C30E94936BA1C30E943A669EC3E5EC5B
:10567000F4E284918F010F5F1F4F882321F00E9475
:10568000A233F801F6CFE5EFF3E084918F010F5FCD
:105690001F4F882309F489C30E94A233F801F5CF74
:1056A00081E00E94A9390E9429AF7FC380E00E9457
:1056B000A9390E9429AF79C383E54DD7882341F0EA
:1056C00008D7082F811106C080E00E94183B02C055
:1056D0000091971280917F1290918012A091811277
:1056E000B091821289839A83AB83BC8380918312A9
:1056F00090918412A0918512B09186128D839E8321
:10570000AF83B8878091871290918812A0918912F7
:10571000B0918A1289879A87AB87BC878091F810ED
:105720009091F910892BA9F183E415D78111EEC36B
:1057300030C0930123964FAD239727965FAD2797EF
:105740006A2D7F2D2B968FAD2B972F969FAD2F9780
:105750000E9494D320E030E040E05FE30E948FCFCE
:10576000A20191010E9494D32B013C012DEB37E360
:1057700046E855EB0E94BAD587FD2BC42DEB37E3E5
:1057800046E855E3C301B2010E942ACF18160CF473
:1057900020C486E5E0D6882351F08091F8109091DE
:1057A000F910892B21F00E94B4370E94A0378AE5B6
:1057B000D2D6882319F09CD60E94EBBB802F0E9482
:1057C000183B011103C0EFEBF4E21AC0809197126D
:1057D0008111F9CFE5ECF4E284918F010F5F1F4F47
:1057E000882319F0AFD7F801F7CFE4E2F4E0849111
:1057F0008F010F5F1F4F882331F3A4D7F801F7CF34
:1058000084918F010F5F1F4F882319F09BD7F801F8
:10581000F7CF80919712811103C06DE173E002C050
:1058200069E173E086E194E00E94F2588AE08AD749
:10583000EFEBF4E284918F010F5F1F4F882319F083
:1058400081D7F801F7CFE9E0F4E084918F010F5F91
:105850001F4F882319F076D7F801F7CFC090981220
:10586000D0909912E0909A12F0909B1220E030E0D4
:10587000A901C701B6010E94BAD5181644F442E046
:10588000C701B6010E9493368AE05CD70BC0E4E002
:10589000F4E084918F010F5F1F4F882319F052D7D6
:1058A000F801F7CF4CE050E06FE772E1CE010196CE
:1058B0000E9497D6892B09F478C20E9429AF75C23D
:1058C00089E490D6882319F0E3D5162F01C01FEF85
:1058D0008AE488D6882319F0DBD5062F01C00FEFA4
:1058E0008AE539D6F82E811104C081E534D6D82E48
:1058F00001C0D12C17FD02C007FF03C0E5ECF4E2A4
:1059000005C0F11018C0D11016C0F8CF84918F01D6
:105910000F5F1F4F882319F015D7F801F7CFE2E684
:10592000F4E084918F010F5F1F4F882309F43DC27B
:1059300009D7F801F6CF153018F0E5ECF4E205C010
:105940000530D8F714C0FED6F80184918F010F5F9F
:105950001F4F8111F8CFE3E4F4E084918F010F5FD2
:105960001F4F882309F421C2EDD6F801F6CFE12EAE
:10597000110FFF08002E000C110BBAD5DD2099F095
:1059800025E02E9DF0012F9DF00D1124E00FF11F59
:10599000EE0FFF1FEE0FFF1FE450FF4E20813181FD
:1059A0004281538103C020E030E0A901A5E0AE9D13
:1059B000F001AF9DF00D11240E0F1F1F000F111FDE
:1059C000000F111F04501F4E0E9494D3D8016D93F5
:1059D0007D938D939C9313970E94C15CE6C10E94B6
:1059E000987CE3C10E944A90E0C183E5B4D5882346
:1059F00019F06FD591E089270E942D8BD6C181E0E7
:105A00008093C7110E94CF9A1092C711882309F47E
:105A1000CCC1EFEBF4E284918F010F5F1F4F88231D
:105A200019F090D6F801F7CFE2E8F4E084918F0105
:105A30000F5F1F4F882309F4B8C184D6F801F6CF51
:105A40008AE5D0D5882309F435C052D56B017C0195
:105A500020E030E040EA51EC0E94BAD587FD13C047
:105A600020E030E040EA51E4C701B6010E942ACFAD
:105A700018164CF0C0925313D0925413E092551361
:105A8000F092561392C1E5ECF4E284918F010F5F1E
:105A90001F4F81110CC0EFE9F4E084918F010F5F7B
:105AA0001F4F882309F481C14DD6F801F6CF4AD69D
:105AB000F801EBCFEFEBF4E284918F010F5F1F4F02
:105AC000882319F03FD6F801F7CFE0E9F4E084919C
:105AD0008F010F5F1F4F882319F034D6F801F7CFDD
