:100000000C9481120C94B2120C94B2120C94B21291
:100010000C94B2120C94B2120C94B2120C94B21250
:100020000C94B2120C94B2120C94B2120C94B21240
:100030000C94B2120C94B2120C94B2120C94B21230
:100040000C94B2120C94556A0C94B2120C94B21225
:100050000C94B2120C94B2120C94245D0C94C559F9
:100060000C94B2120C942F390C94B2120C94B2125C
:100070000C94B2120C94B2120C94B2120C94B212F0
:100080000C94B2120C94B2120C94B2120C94B212E0
:100090000C94B2120C94B2120C94B2120C94B212D0
:1000A0000C94B2120C94B2120C94B2120C94B212C0
:1000B0000C94B2120C94B2120C94B2120C94B212B0
:1000C0000C94B2120C94B2120C94B2120C94B212A0
:1000D0000C94B2120C94B2120C94B2120C94B21290
:1000E0000C94B21265396C3980398D399739B13930
:1000F0009C39B139A139A639B139AE3914581758DC
:1001000006580A5810584E581B581F582558295839
:100110002D58335837583B584E5841584558495830
:10012000E158E658EB58F558FF58785909591159D4
:10013000195923592D5937594659505978595A59EF
:1001400064596E59D05DD55DFF5D045EE45DF05D80
:10015000BA5D084AD73B3BCE016E84BCBFFDC12FC0
:100160003D6C74319ABD56833DDA3D00C77F11BEA8
:10017000D9E4BB4C3E916BAAAABE000000803F05AB
:10018000A84CCDB2D44EB93836A9020C50B99186DC
:1001900088083CA6AAAA2ABE000000803F004E4163
:1001A0004E494E495459494E46CDCCCC3D0AD723F1
:1001B0003C17B7D13877CC2B329595E6241FB14F39
:1001C0000A000020410000C84200401C4620BCBE7E
:1001D0004CCA1B0E5AAEC59D743C3C3C2067636FF5
:1001E00064655F4732380A00203A203E2028686F55
:1001F0006D655F616C6C207C7C20686F6D655A2931
:10020000203E2066696E616C0A0020206375727260
:10021000656E745F706F736974696F6E3D00203A2C
:10022000203E20686F6D65580A0020206375727249
:10023000656E745F706F736974696F6E3D00203A0C
:10024000203E20686F6D65590A0020206375727228
:10025000656E745F706F736974696F6E3D00526193
:10026000697365205A20286265666F726520686F21
:100270006D696E672920746F20003E20656E64737F
:10028000746F70732E656E61626C6528747275652B
:10029000290A003E3E3E2067636F64655F4732383F
:1002A0000A00205A3A200020593A20004265642072
:1002B000583A20004D65736820706F696E74206332
:1002C000616E6E6F74206265207265736F6C766507
:1002D000640A005072696E742074696D653A20007A
:1002E0004D31313320530020573A004361703A4575
:1002F0004D455247454E43595F5041525345523A3E
:10030000310A004361703A434153455F4C494748C5
:10031000545F4252494748544E4553533A300A00BD
:100320004361703A544F47474C455F4C49474854E6
:10033000533A300A004361703A534F465457415282
:10034000455F504F5745523A300A004361703A4C6E
:100350004556454C494E475F444154413A310A00A5
:100360004361703A5A5F50524F42453A310A004356
:1003700061703A4155544F4C4556454C3A310A004C
:100380004361703A5052494E545F4A4F423A310AE3
:10039000004361703A50524F47524553533A300A26
:1003A000004361703A4155544F5245504F52545F8B
:1003B00054454D503A310A004361703A4545505218
:1003C0004F4D3A310A004649524D574152455F4E12
:1003D000414D453A4D61726C696E20312E312E349B
:1003E0002E362E3120284769746875622920534FB4
:1003F000555243455F434F44455F55524C3A6874EC
:100400007470733A2F2F6769746875622E636F6D0D
:100410002F4D61726C696E4669726D776172652FDE
:100420004D61726C696E2050524F544F434F4C5F78
:1004300056455253494F4E3A312E30204D41434894
:10044000494E455F545950453A3344205072696EC5
:100450007465722045585452554445525F434F5578
:100460004E543A3220555549443A636564653261C9
:1004700032662D343161322D343734382D396231C2
:10048000322D6335356336326633363766660A0099
:100490002F2F20007A5F6D696E3A2000795F6D69B9
:1004A0006E3A2000785F6D696E3A20005265706F79
:1004B0007274696E6720656E6473746F70207374F4
:1004C000617475730A00000136372603FF3C3D381E
:1004D0000EFF2E303E12FFFF0C0809FFFFFF1A1C13
:1004E00018FFFF24221EFFFF08440AFF4307FF45B1
:1004F000FFFFFFFFFFFF20643A0020693A002070F1
:100500003A0020653A0020643A0020693A002070E1
:100510003A0043290A0061626C656420286D696EA7
:100520002074656D702000436F6C64206578747270
:10053000756465732061726520004B64200023643C
:100540006566696E65202044454641554C545F0000
:100550004B69200023646566696E6520204445462A
:1005600041554C545F004B70200023646566696EF2
:1005700065202044454641554C545F005049442075
:100580004175746F74756E652066696E6973686510
:1005900064212050757420746865206C6173742028
:1005A0004B702C204B6920616E64204B6420636F7C
:1005B0006E7374616E74732066726F6D2062656C09
:1005C0006F7720696E746F20436F6E66696775720E
:1005D0006174696F6E2E680A005049442041757439
:1005E0006F74756E65206661696C6564212074693D
:1005F0006D656F75740A00504944204175746F74BD
:10060000756E65206661696C6564212054656D7046
:100610006572617475726520746F6F2068696768B0
:100620000A00204B643A2000204B693A2000204BFE
:10063000703A20000A20436C61737369632050494B
:1006400044200A002054753A2000204B753A2000BF
:10065000206D61783A2000206D696E3A2000206498
:100660003A200020626961733A20004F66660A00F2
:100670004661646520486569676874200042656466
:10068000204C6576656C696E6720004661696C6513
:100690006420746F20656E61626C65204265642021
:1006A0004C6576656C696E670A004D6573682070ED
:1006B0006F696E742063616E6E6F74206265207264
:1006C00065736F6C7665640A004D34323120696E53
:1006D000636F727265637420706172616D657465B9
:1006E000722075736167650A00546F6F20666172CE
:1006F0002066726F6D207265666572656E63652037
:10070000706F696E740A003A20007A5F6D696E3A04
:1007100020202D3230207A5F6D61783A20203230EF
:10072000005A204F666673657420004E6F20636127
:100730007365206C696768740A003C3C3C20676301
:100740006F64655F540A00203A2041465445520ABE
:1007500000202063757272656E745F706F736974C8
:10076000696F6E3D00203A204245464F52450A00CF
:10077000202063757272656E745F706F736974693F
:100780006F6E3D003E3E3E2067636F64655F542898
:1007900000556E6B6E6F776E20636F6D6D616E646A
:1007A0003A2022004B494C4C45442E2000256973C9
:1007B0000025696D20256973002569682025696D0C
:1007C0002025697300256964202569682025696DE5
:1007D00020256973002569792025696420256968C9
:1007E0002025696D20256973002C20002C20002015
:1007F0003A2073796E635F706C616E5F706F7369BE
:1008000074696F6E0A00202063757272656E745F82
:10081000706F736974696F6E3D00656E7175657593
:1008200065696E672022004E6F204C696E65204E10
:10083000756D626572207769746820636865636BA3
:1008400073756D2C204C617374204C696E653A2071
:10085000005072696E7465722073746F7070656495
:100860002064756520746F206572726F72732E201C
:1008700046697820746865206572726F7220616EB7
:100880006420757365204D39393920746F20726585
:1008900073746172742E202854656D706572617472
:1008A0007572652069732072657365742E205365B7
:1008B0007420697420616674657220726573746156
:1008C0007274696E67290A004E6F20436865636B16
:1008D00073756D2077697468206C696E65206E751C
:1008E0006D6265722C204C617374204C696E653AA0
:1008F0002000636865636B73756D206D69736D614E
:100900007463682C204C617374204C696E653A20C6
:10091000004C696E65204E756D62657220697320AA
:100920006E6F74204C617374204C696E65204E7537
:100930006D6265722B312C204C617374204C696E92
:10094000653A20004D3131300020496E76616C6986
:100950006420657874727564657220000000000080
:1009600000000000000040C0000066430080894392
:10097000000052430A20736F66745F656E6473747F
:100980006F705F6D6178203D20000A20736F667480
:100990005F656E6473746F705F6D696E203D2000DB
:1009A0000A20706F736974696F6E5F73686966742B
:1009B000203D200020617869733A0A20686F6D65D8
:1009C0005F6F6666736574203D2000466F7220007D
:1009D0003C3C3C20646F5F626C6F636B696E675F69
:1009E0006D6F76655F746F0A003E3E3E20646F5FF8
:1009F000626C6F636B696E675F6D6F76655F746F56
:100A000000203A2073657475705F666F725F656E63
:100A10006473746F705F6F725F70726F62655F6D29
:100A20006F76650A00202063757272656E745F7060
:100A30006F736974696F6E3D00203A20636C656165
:100A40006E5F75705F61667465725F656E64737406
:100A50006F705F6F725F70726F62655F6D6F7665EA
:100A60000A00202063757272656E745F706F73691F
:100A700074696F6E3D006465706C6F793A20002078
:100A80003A207365745F70726F62655F6465706C45
:100A90006F7965640A00202063757272656E745FF9
:100AA000706F736974696F6E3D0072657365745F12
:100AB0006265645F6C6576656C0A002028646F6E01
:100AC00065290A004578747261706F6C61746520E5
:100AD0005B0042696C696E656172204C6576656C7D
:100AE000696E6720477269643A0A005375626469E7
:100AF00076696465642077697468204341544D5574
:100B00004C4C20524F4D204C6576656C696E6720C9
:100B1000477269643A0A00416374697665204578D2
:100B20007472756465723A2000203A204D6F7665C4
:100B3000206261636B0A00202064657374696E61D2
:100B400074696F6E3D00203A2053796E63204166D0
:100B500074657220546F6F6C6368616E67650A001C
:100B6000202063757272656E745F706F736974694B
:100B70006F6E3D00207D0A002C20004F6666736575
:100B80007420546F6F6C205859206279207B2000AC
:100B90004E6F206D6F7665206F6E20746F6F6C6383
:100BA00068616E67650A004572726F7220777269BC
:100BB00074696E6720746F20454550524F4D210A6D
:100BC00000290A002062797465733B2063726320F8
:100BD0000053657474696E67732053746F72656433
:100BE000202800202863616C63756C61746564293A
:100BF000210A0020213D2000454550524F4D204301
:100C00005243206D69736D61746368202D202873D1
:100C1000746F726564292000290A00206279746566
:100C2000733B2063726320002073746F72656420CD
:100C300073657474696E6773207265747269657622
:100C40006564202800204D61726C696E3D56333911
:100C5000290A0028454550524F4D3D004545505208
:100C60004F4D2076657273696F6E206D69736D618B
:100C700074636820003C3C3C20646F5F686F6D6962
:100C80006E675F6D6F766528002C20002C20003E7B
:100C90003E3E20646F5F686F6D696E675F6D6F7653
:100CA00065280047322F47332062616420706172EB
:100CB000616D65746572730A0041424C2041646A3B
:100CC0007573746D656E74205A002028656E6162BC
:100CD0006C6564290A00202864697361626C65642C
:100CE000290A0042494C494E454152004175746FF2
:100CF00020426564204C6576656C696E673A200019
:100D0000204E6F7A7A6C65290A0020262041626F96
:100D100076650020262053616D65205A206173009E
:100D200020262042656C6F77002D4261636B0020A6
:100D300028526967687400205A3A0020593A0050D6
:100D4000726F6265204F666673657420583A00467C
:100D500049585F4D4F554E5445445F50524F4245A0
:100D60000A0050726F62653A2000436F72650A0094
:100D70004D616368696E6520547970653A20002082
:100D8000706F736974696F6E206F7574206F662061
:100D900072616E67652E0A003F50726F62652000B7
:100DA0003C3C3C2067636F64655F4732390A002032
:100DB000636F72726563746564205A3A0047323912
:100DC00020756E636F72726563746564205A3A00B1
:100DD000203A203E2070726F62696E6720636F6DEB
:100DE000706C6574650A00202063757272656E749C
:100DF0005F706F736974696F6E3D0052756E6E69D6
:100E00006E6720696E204452592D52554E206D6FE9
:100E100064650A00473239204175746F2042656469
:100E2000204C6576656C696E670A0028422961630B
:100E30006B00284629726F6E740028522969676812
:100E40007400284C29656674003F28562965726233
:100E50006F7365206C6576656C20697320696D70B1
:100E60006C61757369626C652028302D34292E0AF7
:100E700000426164205A2076616C75650A004E6FED
:100E80002062696C696E65617220677269640A002C
:100E9000203A203E3E3E2067636F64655F473239EB
:100EA0000A00202063757272656E745F706F7369DB
:100EB00074696F6E3D006265640A002C207379735B
:100EC00074656D2073746F7070656421204865616E
:100ED0007465725F49443A200048656174696E67C1
:100EE000206661696C65640048656174696E67209D
:100EF0006661696C65640048656174696E67206647
:100F000061696C65640048656174696E672066613B
:100F1000696C65640070012C0190012701B0012209
:100F200001C0011D01F00118011002130130020E71
:100F3000016002090190020401C002FF000003FAEF
:100F4000004003F5008003F000D003EB002004E62E
:100F5000007004E100E004DC004005D700C005D2C9
:100F6000004006CD00D006C8008007C3003008BE90
:100F700000F008B900C009B400B00AAF00B00BAA75
:100F800000D00CA500000EA000500F9B00C01096D2
:100F9000005012910000148C00C0158700B0178219
:100FA00000B0197D00D01B7800001E730040206E39
:100FB0000090226900F024640040275F0090295AC5
:100FC00000E02B5500102E500020304B0010324610
:100FD00000E033410090353C001037370070383264
:100FE00000A0392D00B03A2800A03B2300603C1E31
:100FF00000103D1900903D1400103E0F00703E0A95
:1010000000C03E0500003F0000403FFBFF803FF670
:10101000FFC03FF1FF4572723A204D494E54454D95
:101020005020424544004572723A204D494E544585
:101030004D50004D494E54454D50207472696767BC
:1010400065726564004572723A204D415854454DB1
:101050005020424544004572723A204D4158544553
:101060004D50004D415854454D502074726967678A
:10107000657265640000002100240027002A002D0D
:10108000003000330001010000040107010A0100E3
:10109000002200250028002B002E00310034000221
:1010A000010000050108010B0150726F7465637443
:1010B00065642050696E0A005374616E64617264E5
:1010C00020446576696174696F6E3A200020526130
:1010D0006E67653A2000204D61783A2000204D6906
:1010E0006E3A20004D65616E3A200046696E697364
:1010F00068656421002072616E67653A2000206D8A
:1011000061783A2000206D696E3A2000207369678B
:101110006D613A2000206D65616E3A20003A207AB8
:101120003A2000206F662000205A002059002058E5
:1011300000476F696E6720746F3A00436C6F636B92
:10114000776973650A00436F756E7465722D0020B0
:10115000446972656374696F6E3A200020202061D3
:101160006E676C653A20005374617274696E672013
:101170007261646975733A2000506F736974696FA6
:101180006E696E67207468652070726F62652E2EBE
:101190002E0A003F4E756D626572206F66206C6589
:1011A000677320696E206D6F76656D656E74206E55
:1011B0006F7420706C61757369626C652028302DC6
:1011C0003135292E0A00590058003F53616D706C6B
:1011D000652073697A65206E6F7420706C61757319
:1011E00069626C652028342D3530292E0A004D3473
:1011F00038205A2D50726F62652052657065617497
:101200006162696C69747920546573740A003F28BF
:1012100056296572626F7365206C6576656C20690E
:101220007320696D706C61757369626C652028301C
:101230002D34292E0A006D0046696C616D656E744F
:1012400020757365643A200053746174733A20000A
:101250002C204C6F6E67657374206A6F623A2000B1
:10126000546F74616C2074696D653A200053746129
:1012700074733A20002C204661696C65643A200042
:101280002C2046696E69736865643A200050726963
:101290006E74733A200053746174733A2000202FE7
:1012A000002040002042403A0020403A006F6B008E
:1012B00024F4D43050C38E20C2A24017828B701108
:1012C000127A910D816CD90AA861E108C7586607A6
:1012D000615143061E4B5D05C145A7041A41110427
:1012E000093D9803713931034036DB0265339102C1
:1012F000D4305402802E1D02632CEE01752AC501E4
:10130000B028A001102781018F2564012B244B01F7
:10131000E0223401AC211F018D200D01801FFC0053
:10132000841EED00971DDF00B81CD200E61BC6002E
:10133000201BBC00641AB200B219A8000A19A00050
:101340006A189900D117910040178B00B5168400D8
:1013500031167E00B31579003A157300C7146F007B
:1013600058146A00EE1366008813630025135E00AC
:10137000C7125B006C12570015125400C1115100C6
:1013800070114F0021114B00D61049008D104700FD
:101390004610440002104200C00F4000800F3E0083
:1013A000420F3C00060F3B00CB0E3800930E370077
:1013B0005C0E3500270E3400F30D3200C10D3100F4
:1013C000900D3000600D2E00320D2D00050D2C000B
:1013D000D90C2B00AE0C2900850C29005C0C2700D1
:1013E000350C27000E0C2600E80B2400C40B24004B
:1013F000A00B23007D0B23005A0B2100390B210089
:10140000180B2000F80A1F00D90A1E00BB0A1E0094
:101410009D0A1D00800A1D00630A1C00470A1B006C
:101420002C0A1B00110A1A00F7091A00DD0919001D
:10143000C4091900AB091900920917007B091800AB
:10144000630917004C09160036091600200916001A
:101450000A091500F5081500E0081400CC0814006E
:10146000B8081400A4081400900813007D081200A6
:101470006B081300580812004608120034081100C7
:10148000230811001208110001081100F0071000D4
:10149000E0071000D0071000C0071000B0070F00D1
:1014A000A107100091070E0083070F0074070F00BB
:1014B00065070E0057070E0049070E003B070D0099
:1014C0002E070E0020070D0013070D0006070D0064
:1014D000F9060C00ED060D00E0060C00D4060C0029
:1014E000C8060C00BC060C00B0060C00A4060B00DD
:1014F00099060C008D060B0082060B0077060B0088
:101500006C060B0061060A0057060B004C060A0029
:1015100042060A0038060A002E060A0024060A00BF
:101520001A060A001006090007060A00FD05090050
:10153000F4050900EB050900E2050900D9050900D9
:10154000D0050900C7050900BE050900B50508005A
:10155000AD050800A50509009C05080094050800D4
:101560008C050800840508007C0508007405080047
:101570006C050700650508005D05070056050800B5
:101580004E0507004705070040050800380507001D
:10159000310507002A050700230507001C05060082
:1015A000160507000F0507000805060002050700DD
:1015B000FB040600F5040700EE040600E80406003C
:1015C000E2040700DB040600D5040600CF04060091
:1015D000C9040600C3040600BD040600B7040600E3
:1015E000B1040500AC040600A6040600A004050032
:1015F0009B04060095040500900406008A0405007B
:1016000085040500800406007A04050075040500C1
:10161000700405006B040500660405006104050004
:101620005C04050057040500520405004D04050044
:1016300048040500430405003E0404003A04050084
:1016400035040500300404002C04050027040400C0
:10165000230405001E0404001A04040016040500F7
:10166000110404000D04040009040500040404002E
:1016700000040400FC030400F8030400F403040065
:10168000F0030400EC030400E8030400E403040096
:10169000E0030400DC030400D8030400D4030400C6
:1016A000D0030400CC030400C8030300C5030300F7
:1016B00024F404D9201BC40C5C0E9804C4095F02F6
:1016C00065077101F405F900FB04B30048048700C5
:1016D000C10369005803550003034500BE023A00E8
:1016E0008402310053022A0029022500040220004E
:1016F000E4011C00C8011900AF0117009801140093
:1017000084011300710110006101100051010E00ED
:1017100043010D0036010B002B010B0020010B00D3
:10172000150109000C01090003010800FB00080075
:10173000F3000800EB000700E4000600DE000600EE
:10174000D8000600D2000600CC000500C700050046
:10175000C2000500BD000400B9000400B50004008B
:10176000B1000400AD000400A9000400A5000300BE
:10177000A20003009F0004009B00030098000300E8
:101780009500020093000300900003008D0002000A
:101790008B00030088000200860002008400030022
:1017A000810002007F0002007D0002007B00020039
:1017B0007900020077000100760002007400020048
:1017C00072000100710002006F0002006D00010054
:1017D0006C0002006A00010069000200670001005D
:1017E0006600010065000100640002006200010063
:1017F00061000100600001005F0002005D00010067
:101800005C0001005B0001005A000100590001006A
:10181000580001005700010056000100550001006A
:101820005400010053000000530001005200010069
:1018300051000100500001004F0001004E00000067
:101840004E0001004D0001004C0001004B00000063
:101850004B0001004A00010049000100480000005F
:10186000480001004700010046000000460001005A
:101870004500000045000100440001004300000055
:10188000430001004200000042000100410000004E
:1018900041000100400001003F0000003F00010046
:1018A0003E0000003E0001003D0000003D00010040
:1018B0003C0000003C0000003C0001003B00000038
:1018C0003B0001003A0000003A000100390000002E
:1018D0003900010038000000380000003800010025
:1018E000370000003700010036000000360000001D
:1018F0003600010035000000350000003500010011
:101900003400000034000000340001003300000007
:1019100033000000330001003200000032000000FC
:1019200032000100310000003100000031000100F0
:101930003000000030000000300001002F000000E7
:101940002F0000002F0000002F0001002E000000DB
:101950002E0000002E0001002D0000002D000000D0
:101960002D0000002D0001002C0000002C000000C4
:101970002C0000002C0001002B0000002B000000B8
:101980002B0000002B0001002A0000002A000000AC
:101990002A0000002A0001002900000029000000A0
:1019A0002900000029000000290001002800000093
:1019B0002800000028000000280000002800010086
:1019C000270000002700000027000000270000007B
:1019D000270001002600000026000000260000006D
:1019E0002600000026000100250000002500000060
:1019F0002500000025000000250000002500010052
:101A00002400000024000000240000002400000046
:101A10002400010023000000230000002300000038
:101A20002300000023000000230000002300010029
:101A3000220000002200000022000000220000001E
:101A4000220000002200010021000000210000000F
:101A50002100000021000000210000002100000002
:101A600021000100200000002000000020000000F4
:101A700020000000200000002000000020000000E6
:101A8000200001001F0000001F0000001F000000D8
:101A90001F0000001F0000001F0000001F000100C9
:101AA0001E0000001E0000001E0000001E000000BE
:101AB000000020002300260029002C002F00320007
:101AC00000010000030106010901050505050705E0
:101AD00008080808020202020A0A080804040404AA
:101AE00001010101010101010303030303030303D6
:101AF000040707070C0C0C0C0C0C0C0C0202020265
:101B000006060606060606060B0B0B0B0B0B0B0B4D
:101B100001021020200808102040102040800201FF
:101B200002010804020101020408102040808040E4
:101B300020100804020180040201804020100804E3
:101B40000201080402010102040810204080010281
:101B500004081020408000000A0B02090C0D0E083A
:101B60000703040100000000000000000000000066
:101B70000000000000000000000000000000000065
:101B80000000121110000000000000000000000022
:101B90000000000000000000000000004B494C4C19
:101BA00045442E2000202D20496E76616C6964200A
:101BB0006578747275646572206E756D62657220E9
:101BC000210A004572726F723A002020506C616EDB
:101BD0006E657242756666657242797465733A2005
:101BE000002046726565204D656D6F72793A200060
:101BF000436F6D70696C65643A20466562203238C7
:101C000020323031390A00207C20417574686F72AF
:101C10003A20286E6F6E652C2064656661756C7461
:101C200020636F6E666967290A00323031372D30C4
:101C3000372D30342031323A303000204C6173740B
:101C400020557064617465643A2000312E312E3461
:101C50002E362E310A004D61726C696E0020536F72
:101C60006674776172652052657365740A00205747
:101C700061746368646F672052657365740A00203D
:101C800042726F776E206F75742052657365740AA7
:101C9000002045787465726E616C205265736574BE
:101CA0000A00506F77657255700A00737461727420
:101CB0000A00205A3A0020593A0020583A00656E2E
:101CC0006473746F7073206869743A20000000A018
:101CD000400000A04000000040204469736372652A
:101CE00070616E63793A00326E642050726F626583
:101CF000205A3A00203A203C3C3C2072756E5F7AB4
:101D00005F70726F62650A00202063757272656E83
:101D1000745F706F736974696F6E3D003173742006
:101D200050726F6265205A3A00203A203E3E3E20B3
:101D300072756E5F7A5F70726F62650A0020206351
:101D4000757272656E745F706F736974696F6E3DE2
:101D5000003C3C3C2070726F62655F70740A00202A
:101D60005A3A200020593A200042656420583A200F
:101D700000203A200A00202063757272656E745F3D
:101D8000706F736974696F6E3D0073746F77290AA1
:101D9000002C20002C20003E3E3E2070726F6265B9
:101DA0005F70742800526573656E643A20006F6B33
:101DB0000020746F6F206C6F6E6720657874727589
:101DC00073696F6E2070726576656E7465640A0063
:101DD00020636F6C6420657874727573696F6E2010
:101DE00070726576656E7465640A00627573793A1F
:101DF0002070617573656420666F7220696E7075FE
:101E0000740A00627573793A207061757365642095
:101E1000666F7220757365720A00627573793A2075
:101E200070726F63657373696E670A004B494C4C3F
:101E300045442E20004B494C4C206361757365640A
:101E400020627920746F6F206D75636820696E6100
:101E500063746976652074696D65202D20637572E1
:101E600072656E7420636F6D6D616E643A20002040
:101E7000746F6F206C6F6E6720657874727573690C
:101E80006F6E2070726576656E7465640A002063FB
:101E90006F6C6420657874727573696F6E207072F0
:101EA0006576656E7465640A004C4556454C494E2E
:101EB0004700434F4D4D554E49434154494F4E0005
:101EC00044525952554E004552524F525300494EBA
:101ED000464F004543484F0020573A00D31ECE1EC0
:101EE000C71EC01EB21EA91E6F666600444542553D
:101EF000473A00205A3A0020423A0020436F756E5C
:101F00007420413A0020453A00205A3A0020593ABC
:101F100000583A0053657474696E67205472617694
:101F2000656C20416363656C65726174696F6E3ABC
:101F3000200053657474696E672052657472616322
:101F40007420416363656C65726174696F6E3A20D9
:101F50000053657474696E67205072696E74204115
:101F60006363656C65726174696F6E3A20005365D6
:101F70007474696E67205072696E7420616E64209B
:101F800054726176656C20416363656C657261743F
:101F9000696F6E3A2000205A002059005800202016
:101FA0004D61783A2000205A002059005800202026
:101FB0004D696E3A20004F6E20004F666600536FE9
:101FC000667420656E6473746F70733A2000486F96
:101FD00074656E64206F6666736574733A00486159
:101FE0007264636F6465642044656661756C742017
:101FF00053657474696E6773204C6F616465640A1D
:1020000000F4010000F401000032000000DC0500D3
:102010000000007A4400007A44000048420000C8F2
:1020200042006001450000A0420000484400004C0E
:102030004320204D383531205A005A2D50726F629E
:1020400065204F666673657420286D6D293A0A0015
:1020500020440020490020204D33303420500020FF
:10206000440020490020204D33303120453120509C
:102070000020440020490020204D333031204530DD
:1020800020500020440020490020500020204D33E3
:1020900030312045005049442073657474696E677F
:1020A000733A0A00205A0020204D34323020530069
:1020B0004175746F20426564204C6576656C696E6D
:1020C000673A0A0020590020580020204D3231384C
:1020D000205400486F74656E64206F666673657483
:1020E000733A0A00205A0020590020204D32303621
:1020F000205800486F6D65206F66667365743A0AF4
:1021000000204500205A002059002058002042009D
:1021100020540020204D3230352053004164766138
:102120006E6365643A20533C6D696E5F66656564F5
:10213000726174653E20543C6D696E5F74726176A5
:10214000656C5F66656564726174653E20423C6DD6
:10215000696E5F7365676D656E745F74696D655FE9
:102160006D733E20583C6D61785F78795F6A657267
:102170006B3E205A3C6D61785F7A5F6A65726B3E98
:1021800020453C6D61785F655F6A65726B3E0A0051
:1021900020540020520020204D3230342050004185
:1021A0006363656C65726174696F6E2028756E6912
:1021B00074732F7332293A20503C7072696E745FC9
:1021C000616363656C3E20523C7265747261637436
:1021D0005F616363656C3E20543C74726176656C2C
:1021E0005F616363656C3E0A00204500205A002051
:1021F000590020204D3230312058004D6178696DF2
:10220000756D20416363656C65726174696F6E20E2
:1022100028756E6974732F7332293A0A00204500BD
:10222000205A0020590020204D3230332058004DD4
:102230006178696D756D206665656472617465733A
:102240002028756E6974732F73293A0A002045009F
:10225000205A0020590020204D3932205800537454
:102260006570732070657220756E69743A0A00207B
:10227000204D3230302044300A0020204D323030A2
:1022800020543120440020204D32303020440020A2
:1022900044697361626C65640A0046696C616D65CE
:1022A0006E742073657474696E67733A00202047FA
:1022B0003231202020203B20556E69747320696ED6
:1022C000206D6D0A00203A203C3C3C20646F5F701A
:1022D000726F62655F6D6F76650A002020637572AC
:1022E00072656E745F706F736974696F6E3D002004
:1022F0003A203E3E3E20646F5F70726F62655F6D94
:102300006F76650A00202063757272656E745F7067
:102310006F736974696F6E3D00646F5F70726F6296
:10232000655F726169736528002066697273740A5B
:10233000005A0059005800486F6D652000656368B9
:102340006F3A00544845524D414C2052554E41572A
:10235000415900546865726D616C2052756E6177E9
:102360006179005072696E7465722068616C746581
:10237000642E206B696C6C28292063616C6C656429
:10238000210A000000000000000000000000003CE6
:102390003C3C207365745F617869735F69735F614A
:1023A000745F686F6D652800203A200A0020206362
:1023B000757272656E745F706F736974696F6E3D6C
:1023C000005D203D20003E20686F6D655F6F666692
:1023D0007365745B003E207A70726F62655F7A6F1E
:1023E0006666736574203D20002A2A2A205A2048F8
:1023F0004F4D454420574954482050524F424520A4
:10240000285A5F4D494E5F50524F42455F555345E4
:10241000535F5A5F4D494E5F454E4453544F505F92
:1024200050494E29202A2A2A0A003E3E3E20736542
:10243000745F617869735F69735F61745F686F6D02
:1024400065280000002042000020420000204100DA
:102450000000005761726E696E673A20486F6D69BF
:102460006E672042756D702044697669736F7220C3
:102470003C20310A000202040000664300808943C8
:10248000000055433C3C3C20686F6D656178697382
:102490002800203A203E204146544552207365745E
:1024A0005F617869735F69735F61745F686F6D65A1
:1024B0000A00202063757272656E745F706F7369B5
:1024C00074696F6E3D00486F6D65203220536C6FEC
:1024D000773A0A004D6F766520417761793A0A00B4
:1024E000486F6D65203120466173743A0A00FFFF22
:1024F000FF3E3E3E20686F6D65617869732800007D
:10250000C5B411241FBECFEFD1E2DEBFCDBF00E0C6
:102510000CBF15E0A0E0B2E0E6E7F2E801E00BBF97
:1025200002C007900D92A436B107D9F723E1A4E6C3
:10253000B5E001C01D92A333B207E1F712E1C1E893
:10254000D2E100E006C021970109802FFE010E9420
:1025500011C1C038D10780E00807A9F70E9424B153
:102560000C9439C10C9400002F923F924F925F92CD
:102570006F927F928F929F92AF92BF92CF92DF9293
:10258000EF92FF920F931F93CF93DF93CDB7DEB7F8
:10259000CB55D1090FB6F894DEBF0FBECDBF009169
:1025A000EE0D20E6029F8001112407571A4F8091FB
:1025B000CC1280FF1AC0EDE3F3E284917F013FEF7C
:1025C000E31AF30A811102C0780104C00E94CF31DE
:1025D000F701F3CFD7018D917D01882319F00E9477
:1025E000CF31F8CF8AE00E94CF3181E090E0909324
:1025F00027118093261110920A07109209078FE382
:1026000080932507109224071092230710927E05CD
:1026100010927F051092800510928105F80180814B
:102620000F5F1F4F8032D1F38E34B1F4818190ED72
:10263000980F9A3020F08D3211F08B3269F4329677
:10264000DF0131962C9120532A30D0F3CD01FC01CB
:10265000019620812032D9F3F0933011E0932F11AD
:102660007F01BFEFEB1AFB0A10816AE270E0C7013D
:102670000E9419C1009731F0FC01319780818032AE
:10268000E1F311821D3429F0143519F0173409F0E3
:10269000CFC0F70180812FEFE21AF20A8032C9F32E
:1026A00080538A3008F0C4C0109325072091230777
:1026B000309124074AE03196429FC001439F900D1C
:1026C0001124DF0111972C91022E000C330B2053A3
:1026D0003109280F391F808180538A3060F330938D
:1026E000240720932307DF0131968C918032D9F3A0
:1026F0001D3449F04091090750910A0700912F11AC
:1027000061E070E058C02E31310591F03CF4273182
:10271000310571F02C31310569F70AC025373105D3
:102720004CF32737310524F0203A43E0340711F702
:10273000B0930A07A09309077BC0813209F445C012
:102740009FEBB92EB80E89E1A82EAB1408F45EC039
:10275000DF01FD01908111969032D9F3A0EDA90F10
:10276000AA3008F047C04F01EB2CF12C6701A3E021
:10277000D594C794AA95E1F7C60182589A4F6C0187
:102780008B2D8770DB0102C0AA0FBB1F8A95E2F771
:10279000CD01D6019C91892B8C9381149104A1F1D8
:1027A000801AC7018C599A4FDC018C928081815428
:1027B0008A3188F5DF01FD0131968C918111BDCF01
:1027C00050930A074093090733C01D3409F0B8CF6E
:1027D0002032310509F0B4CFF0930A07E0930907DE
:1027E00063E270E0CF010E9419C1009709F1DC019A
:1027F0001C921EC0A3EDA90FA23008F4B4CF9B32E7
:1028000011F00C94222AAFCF812CCBCF411551056A
:1028100069F6AD01CBCFDF0131969C9190539A3090
:10282000D0F3CD01FC010196A081A032D9F3C2CF33
:10283000809125078D3409F4B4C4843511F40C94C7
:10284000AE29873411F00C94042A2091230730918B
:1028500024072C31310509F484C07CF4243031057F
:102860003CF422303105BCF537FF29C00C941B2AFB
:1028700024303105C9F10C941B2A2A32310509F4A0
:10288000A5C354F42D31310509F437C22E31310579
:1028900009F437C20C941B2A2B35310509F4B9C24F
:1028A0002C35310509F4BCC22A35310511F00C94E0
:1028B0001B2A109288051092AD110C941B2A80914E
:1028C0000102882311F40C941B2A0E9464460E9482
:1028D000567C0C941B2A81E02230310509F080E0FF
:1028E0000E9406470C941B2A80E50E94F83088233A
:1028F00029F00E9456306B017C0103C0C12CD12C01
:10290000760183E50E94F830882361F00E949630BA
:1029100020E030E04AE754E40E941DBA0E946BBFF9
:102920006B017C010E948A610E94C4318091311147
:1029300090913211A0913311B0913411C80ED91E6B
:10294000EA1EFB1E0E94B959DC01CB018C199D09BE
:10295000AE09BF09B7FD02C00C941B2A0E94327752
:10296000F1CF8091CC1285FF0EC0E3E9F2E08491B3
:102970008F010F5F1F4F882321F00E94CF31F80194
:10298000F6CF0E9479450E948A6180E00E94972FCD
:10299000A090E011AAA221E040E050E0BA0180E05E
:1029A0000E94DB430E94A7388091CC1285FF0CC0A7
:1029B000EAE7F2E084918F010F5F1F4F882321F037
:1029C0000E94CF31F801F6CF11E01093490288E55B
:1029D0000E94C930382E89E50E94C930082F8AE547
:1029E0000E94C930282E311004C0011104C01827DC
:1029F00005C0011102C010E001C0182F0E94D32FA2
:102A0000111105C0311003C0002309F43FC120E0BB
:102A100030E040EA50E46091C8127091C912809190
:102A2000CA129091CB120E9422BE6B017C0160936E
:102A3000A2077093A3078093A4079093A507209102
:102A4000B4123091B5124091B6125091B7120E9453
:102A500048C01816E4F48091CC1285FF09C0B70174
:102A6000A6018EE592E00E94BE718AE00E94CF31FD
:102A700019821A821B821C829E012F5F3F4F42EAFD
:102A800057E060EB72E18CEA92E10E94E8361111A6
:102A900006C0332009F4D2C0002309F4E5C0109227
:102AA000B0121092B1121092B2121092B312109290
:102AB000AC121092AD121092AE121092AF120E9490
:102AC000D138EEEEF4E2B490BEA2E8E7F4E2C590AD
:102AD000D590E590F490ECE7F4E285909590A59080
:102AE000B490A5019401C701B6010E9448C0181610
:102AF0002CF4A7019601C501B40104C0A5019401FD
:102B0000C701B6010E94FEBE6E8F7F8F88A399A376
:102B100083E4682E84E2782EF301659175918591A6
:102B2000949127E4422E24E2522EF2012591359110
:102B3000459154910E94B8B987FF02C0F30101C0CA
:102B4000F20145905590659074902E8D3F8D48A16F
:102B500059A1CA01B9010E941DBA20E030E040E845
:102B60005FE30E9422BE0E948DC09B01AC01C301A5
:102B7000B2010E941DBA6A8F7B8F8C8F9D8FEFEE02
:102B8000F4E224912E8F20E030E040EC5FE3C501B9
:102B9000B4010E941DBA2B013C01AE8C6A2DAA0C17
:102BA000770B880B990B0E94BEB99B01AC01C30146
:102BB000B2010E941DBA69837A838B839C8320E0D3
:102BC00030E040EC5FE3C701B6010E941DBA6B0123
:102BD0007C01BEA06B2DBB0C770B880B990B0E9460
:102BE000BEB99B01AC01C701B6010E941DBA6E8B34
:102BF0007F8B888F998F9E01265E3F4F44EB52E179
:102C0000BE016F5F7F4FCE0146960E94E83610925C
:102C1000AB121092B0121092B1121092B212109226
:102C2000B3121092AC121092AD121092AE1210921A
:102C3000AF12111105C0011103C014C0002331F1FE
:102C400081E090E00E94F8A98091CC1285FF08C035
:102C50004CEA52E16EE372E08AE492E00E940B38A3
:102C6000111102C0332091F080E090E00E94F8A999
:102C70008091CC1285FF08C04CEA52E16EE172E00F
:102C80008AE292E00E940B38111102C0222081F0EA
:102C900082E090E00E94F8A98091CC1285FF08C0E4
:102CA0004CEA52E168EE71E08AE092E00E940B3853
:102CB0000E94D13880912C12809349020E9483385F
:102CC00021E040E050E0BA018AA10E94AE970E9444
:102CD000769A8091CC1285FD02C00C941B2AE9EDF6
:102CE000F1E084918F010F5F1F4F882311F40C9442
:102CF0001B2A0E94CF31F801F4CF0E942E4F0C9472
:102D00001B2AC090AC12D090AD12E090AE12F090A1
:102D1000AF1288E50E94F830811109C020E030E050
:102D200040EA51E4C701B6010E9422BE02C00E94DF
:102D300096306E8B7F8B888F998FC090B012D09019
:102D4000B112E090B212F090B31289E50E94F8300F
:102D5000811109C020E030E040E052E4C701B60133
:102D60000E9422BE02C00E9496306B017C016983E2
:102D70007A838B839C834090C4125090C5126090DC
:102D8000C6127090C7122091C0123091C1124091AA
:102D9000C2125091C3126E897F89888D998D0E94CD
:102DA00021BE4B015C0124EF3DEF4FE951E40E944D
:102DB00048C087FF02C00C941B2A22E430E046E69C
:102DC00053E4C501B4010E94B8B9181614F40C9468
:102DD0001B2AA3019201C701B6010E9421BE6B010B
:102DE0007C0124EF3DEF4FEF51E40E9448C087FF84
:102DF00002C00C941B2A21E230E849E853E4C701E1
:102E0000B6010E94B8B9181614F40C941B2A0C943D
:102E10002C2A81E0809388058093AD110C941B2AA5
:102E200085E40E94F8308AA381110C947E2A0E94C6
:102E30008A6125EF32E03F8F2E8FACEA2A2EA2E185
:102E40003A2EBAEAAB2EB7E0BB2E00E010E01EA28D
:102E5000AE8DBF8D8D91BF8FAE8F0E94F8308823CD
:102E600009F466C0D1012D913D914D915C912EA741
:102E70003FA748AB59AB0E9496306B017C010330F1
:102E8000110599F58090E011B4E08B9E400111246A
:102E9000F401E55EF84FFBA7EAA74080518062800D
:102EA000738020E030E0A901C301B2010E94B8B9EB
:102EB0008823D9F073016201F7FAF094F7F8F094DF
:102EC000F401E852FE4EC082D182E282F382F40124
:102ED000EC53FE4EC082D182E282F382AAA5BBA54A
:102EE0001D921D921D921C921397F101C082D182F6
:102EF000E282F38203301105D9F02EA53FA548A93F
:102F000059A9C701B6010E9421BE9B01AC01D501A0
:102F10006D917D918D919C910E9422BEF5016083FF
:102F2000718382839383C8010E941A32F1E0FEA369
:102F30000F5F1F4F24E0220E311C34E0A30EB11CA2
:102F40000430110509F084CFAEA0AA2019F00E9428
:102F5000D13838C0BAA0BB20A9F1C090B812D09027
:102F6000B912E090BA12F090BB122091B4083091DF
:102F7000B5084091B6085091B708C701B6010E9444
:102F80001DBA0E9453C06093F0127093F1128093A7
:102F9000F2129093F312C701B6010E9466BF2FB7D9
:102FA000F8946093D9077093DA078093DB079093C6
:102FB000DC072FBF1092E0121092E1121092E21281
:102FC0001092E3120E94769A0C941B2A80910102BF
:102FD000882311F40C941B2A89E40E94F830182FDE
:102FE000882321F00E946630F62E01C0F12C8AE47D
:102FF0000E94F830082F882331F00E946630E62EB8
:10300000111104C00BC0E12C1123C1F024E02F15D5
:1030100010F00C94782DE4EBF2E004C034E03E159F
:10302000D0F30CC084918F010F5F1F4F882311F4E0
:103030000C941B2A0E94CF31F801F4CF0E94D32FA9
:10304000112341F12091BA073091BB074F2D420364
:10305000B001439F700D11248091B6079091B7077E
:10306000680F791F072E000C880B990B0E94BEB9C0
:103070002091C0123091C1124091C2125091C312DE
:103080000E9422BE60939A0770939B0780939C07CF
:1030900090939D07002341F12091BC073091BD071B
:1030A0005E2D5203B001539F700D11242091B8077B
:1030B0003091B907620F731F072E000C880B990B14
:1030C0000E94BEB92091C4123091C5124091C6121F
:1030D0005091C7120E9422BE60939E0770939F0773
:1030E0008093A0079093A10780E50E94C9308823B0
:1030F000A1F10E948730882381F11123B1F020E0F3
:1031000030E040EA51E460919A0770919B0780910A
:103110009C0790919D070E9421BE60939A0770932F
:103120009B0780939C0790939D070023B1F020E0BC
:1031300030E040E052E460919E0770919F078091DB
:10314000A0079091A1070E9421BE60939E077093F3
:103150009F078093A0079093A10786E40E94F83010
:103160008823D9F00E9496306B017C0120E030E08A
:10317000A9010E9448C0181684F420E030E040E71E
:1031800052E4C701B6010E94FEBE60934E027093E6
:103190004F0280935002909351020E94567C0C94EF
:1031A0001B2A80912307909124078E36910509F4FC
:1031B0002BC70CF0D9C08434910509F4A9C50CF0D3
:1031C00068C08A33910509F4C7C1CCF582319105F5
:1031D00009F4B2C784F497FF02C00C941B2A823012
:1031E00091050CF4CCC1419711F00C941B2A0E945C
:1031F000C87B0C941B2A8A32910509F45BC2B4F493
:103200004F9711F00C941B2A86EF92E10E94976071
:103210006E8B7F8B888F998FBE016F5F7F4FCE0142
:1032200046960E940431EDE3F3E22EC2803391050D
:1032300009F444C2C99709F4EAC30C941B2A8F33DA
:10324000910509F43FC27CF48C33910509F48AC2DC
:103250000CF422C38D33910509F466C2CE9709F4AC
:103260004AC20C941B2A8134910509F47FC50CF4E1
:10327000B4C58234910509F451C58334910511F028
:103280000C941B2A81E080932D120E94A73A0C9483
:103290001B2A8235910509F446C7ACF58B3491059C
:1032A00009F488C6ECF48634910509F466C60CF47A
:1032B00056C68734910509F464C68834910511F027
:1032C0000C941B2A80E293E0A0E0B0E080933A02E5
:1032D00090933B02A0933C02B0933D020C941B2AB6
:1032E0008D34910509F484C60CF468C68E349105BA
:1032F00009F482C68135910511F00C941B2A0E94B5
:10330000FD9B0C941B2A8836910509F479C6CCF4F0
:103310008435910509F410C70CF409C7853591056A
:1033200009F40EC78C35910511F00C941B2A25EF7A
:10333000C22E22E0D22E38EAE32E38E0F32E10E03F
:1033400003C78A36910509F4E6C60CF49CC68B3691
:10335000910509F4E4C68D36910511F00C941B2AF1
:103360000E94AC9C0C941B2A8C3D910511F40C948A
:1033700074220CF070C08B39910509F48CC6ACF541
:103380008637910509F4F6C7D4F48137910509F41D
:103390004EC64CF48F36910511F00C941B2A0E94F6
:1033A0003A9C0C941B2A8237910509F44DC7833748
:1033B000910511F00C941B2AE6ECF3E04BC788371B
:1033C000910511F40C94572214F40C94F1218937CF
:1033D000910511F40C945D228C38910511F00C9438
:1033E0001B2A0E94219C0C941B2A8C3C910511F4F1
:1033F0000C946822D4F4883C910511F40C94622258
:1034000034F48E3B910509F471C60C941B2A893C57
:10341000910511F40C9465228B3C910511F00C94EC
:103420001B2A0E94C5990C941B2A8E3C910511F40D
:103430000C946E2214F40C946B22833D910511F4CC
:103440000C9471228A3D910511F00C941B2A0E9464
:10345000EF970C941B2A8239A1E09A0711F40C947F
:103460004C270CF03FC08F32E1E09E0711F40C9422
:103470004224D4F4823E910511F40C9490223CF441
:103480008D3D910511F40C9477220C941B2A8D32FA
:1034900021E0920711F40C94BA228E32914011F47B
:1034A0000C94EE230C941B2A833641E0940711F40C
:1034B0000C9487293CF48033914011F40C947123CF
:1034C0000C941B2A8039B1E09B0711F40C94492716
:1034D0008139914011F00C941B2A81E00E942A3816
:1034E0000C941B2A853FF1E09F0711F40C943F29AF
:1034F000ECF4853A31E0930711F40C94F0273CF496
:10350000843A914011F40C9450270C941B2A8C3A65
:10351000A1E09A0711F40C948A28843F914011F09D
:103520000C941B2A0E94A73A0C941B2A873FE1E0C7
:103530009E0711F40C94452914F40C944229833508
:1035400023E0920711F40C945129873E934011F423
:103550000C94A0290C941B2A10921B0710921C0794
:1035600010921D0710921E0710921F07109220073D
:10357000109221071092220708E113E0E4C1E090C5
:103580000907F0900A0780E50E94F830882359F077
:103590000E9456304B015C0111E0672B682B692BB0
:1035A00031F410E004C010E0812C912C540183E52B
:1035B0000E94F830882399F00E94963020E030E095
:1035C0004AE754E40E941DBA0E946BBF4B015C01A4
:1035D00011110CC0672B682B692B41F43CC01111F1
:1035E00005C0E114F10411F00C94C82A83E090E0C6
:1035F000909327118093261181E0809382050E9489
:103600008A610E94C43181149104A104B104A9F11A
:103610008091311190913211A0913311B0913411F8
:1036200075016401C80ED91EEA1EFB1E0E94B9591D
:10363000DC01CB018C199D09AE09BF09B7FD04C09F
:10364000109282050C941B2A809182058823C1F375
:103650000E943277EBCFE114F10411F00C94C82AE8
:1036600083E090E0909327118093261181E080936E
:1036700082050E948A610E94C4318091820588235C
:10368000F9F20E943277F9CF84918F010F5F1F4FBB
:10369000882321F00E94CF31F801F6CFBE016F5F81
:1036A0007F4F83ED92E00E9437728AE00E94CF3113
:1036B0000C941B2A0E9496690C941B2A0E94316468
:1036C0000C941B2A8CE40E94C930811110923A118B
:1036D00082E50E94C93081111092391181E40E9463
:1036E000C930882311F40C941B2A109239111092BE
:1036F0003A110C941B2A8CE40E94C930811110925B
:10370000650282E50E94C93081111092640281E451
:103710000E94C930882311F40C941B2A1092650270
:10372000109264020C941B2A8CE40E94C9308823F6
:1037300019F081E08093650282E50E94C9308823F8
:1037400019F081E08093640281E40E94C9308823EB
:1037500011F40C941B2A81E080936502809364022B
:103760000C941B2A20E030E0A9016091E2117091D5
:10377000E3118091E4119091E5110E94B8B988237A
:1037800081F081E08093E1110BE313E0D8018D918A
:103790008D01882319F00E94CF31F8CF8AE00E9472
:1037A000CF311092B2111092B3111092B411109245
:1037B000B5111092B8111092B9111092BA1110925D
:1037C000BB111092D4111092D5111092D6111092F3
:1037D000D7111092AE111092AF111092B011109239
:1037E000B1111092D8111092D9111092DA111092D1
:1037F000DB1181E080936B021092CC111092CD11FD
:103800001092CE111092CF111092BC111092BD11D6
:103810001092BE111092BF1110921B0710921C073C
:1038200010921D0710921E071092C4111092C5111C
:103830001092C6111092C7111092DC111092DD1176
:103840001092DE111092DF1180936C021092D01151
:103850001092D1111092D2111092D3111092C01166
:103860001092C1111092C2111092C31110921F0731
:103870001092200710922107109222071092C8116F
:103880001092C9111092CA111092CB111092B71157
:103890001092B6110C941B2A1092E11110921B0782
:1038A00010921C0710921D0710921E0710921F07FE
:1038B0001092200710922107109222070AE413E0C9
:1038C000F80181918F018823C9F10E94CF31F8CF8F
:1038D0008AE50E94C930882311F40C9479290E944A
:1038E00096306B017C0120E030E040EA51EC0E9410
:1038F00048C087FF02C00C946B2920E030E040EA0A
:1039000051E4C701B6010E94B8B9181614F40C941A
:103910006B29C092BC12D092BD12E092BE12F092FE
:10392000BF120E94F6A86091BC127091BD128091E6
:10393000BE129091BF1242E00E9440358AE00E9480
:10394000CF310C941B2AD8018D918D01882319F059
:103950000E94CF31F8CF8AE00E94CF31FBE18F2E59
:10396000F7E09F2E0CEC11E1C12CD12C760162E620
:10397000A62E65E0B62EF50181915F01882319F02E
:103980000E94CF31F8CFC701B6010E946533E9E24A
:10399000AE2EE4E0BE2ED5018D915D01882319F095
:1039A0000E94CF31F8CFF8016081718182819381CB
:1039B00042E00E9440358AE00E94CF31F8018081C8
:1039C0009181A281B381F40181939193A193B193E9
:1039D0004F01D8011D921D921D921D928D01CA9416
:1039E000CD28CE28CF2829F0C12CD12C7601C39424
:1039F000BECF1092B7111092B6111092AE11109264
:103A0000AF111092B0111092B1110C941B2A86E4E0
:103A10000E94C930882341F00E9496300E9466BF00
:103A200070931A076093190783E50E94C9308823B1
:103A300051F00E949630609315077093160780939B
:103A400017079093180785E50E94C930882351F025
:103A50000E949630609311077093120780931307AA
:103A60009093140784E40E94C930882351F00E9487
:103A7000963060930D0770930E0780930F07909315
:103A8000100784E50E94C930882341F00E949630D7
:103A90000E9466BF70930C0760930B0740900B0762
:103AA00050900C0720911107309112074091130795
:103AB000509114072EA33FA348A759A780910D0743
:103AC00090910E07A0910F07B09110078AA79BA7AE
:103AD000ACA7BDA7909015078090160730901707E8
:103AE00020901807A0901907B0901A07BBA2AAA2AD
:103AF000C12CD12C76019501215031093F8F2E8F99
:103B0000052C000C660877084E8D5F8D42305105FC
:103B100060F460E082E00E947E5861E08EE00E94E6
:103B20007E5860E08EE00E944F58892D982DA32D7D
:103B3000B22D80939A0790939B07A0939C07B09314
:103B40009D070E94567C0E948A618401510120E1F8
:103B500037E282E06B962FAF6B976C963FAF6C9716
:103B60000E9406776B962FAD6B976C963FAD6C9766
:103B70000197F9F4812F902FAB2DBA2D80939A07DE
:103B800090939B07A0939C07B0939D070E94567C3F
:103B90000E948A612FE632E143E85AE3612F702FD9
:103BA0008B2D9A2D0E9422BE162F072FB82EA92EDC
:103BB000CECF2150310969F6C701B6010E946533A5
:103BC0002EE834E0D9018D919D01882379F06B9620
:103BD0002FAF6B976C963FAF6C970E94CF316C966E
:103BE0003FAD6C976B962FAD6B97ECCF20E030E03C
:103BF0004AE754E4612F702F8B2D9A2D0E941DBA35
:103C000042E00E9440358AE00E94CF31EE8DFF8D68
:103C10003297A0F461E08EE00E944F5864E670E0B5
:103C200080E090E00E94815960E08EE00E944F5851
:103C300064E670E080E090E00E948159892D982D23
:103C4000A32DB22D80939A0790939B07A0939C0776
:103C5000B0939D070E94567C0E948A612E8D3F8DF5
:103C600022303105D8F40E94C4310E94B959009124
:103C70003111109132112091331130913411040D12
:103C8000151D261D371DDC01CB01801B910BA20BDE
:103C9000B30BB7FF2EC00E943277E7CF4AA15BA1DA
:103CA0004330510531F58EA19FA1A8A5B9A58093F8
:103CB000A2079093A307A093A407B093A5070E941F
:103CC000567C0E948A6164E670E080E090E00E9489
:103CD00081592AA53BA54CA55DA52093A207309349
:103CE000A3074093A4075093A5070E94567C0E9407
:103CF0008A613FEFC31AD30AE30AF30A44EFC416FA
:103D000041E0D406E104F10409F0FECE0C941B2A34
:103D100010922D120E94A73A0C941B2A80912D120A
:103D200081110BC00AE513E0D8018D918D01882324
:103D300009F404CE0E94CF31F7CF813019F007E7A4
:103D400013E00BC000EB13E0F80181918F01882391
:103D500009F4F4CD0E94CF31F7CFD8018D918D01B8
:103D6000882309F4EBCD0E94CF31F7CF85E40E9480
:103D7000C930882361F00E9496300E9466BF60932C
:103D8000830270938402809385029093860281E47B
:103D90000E94C930882361F00E9496300E9466BF5D
:103DA00060937F02709380028093810290938202DD
:103DB00082E50E94C930882361F00E9496300E94FB
:103DC00066BF60937B0270937C0280937D02909328
:103DD0007E020E94A73A0C941B2A80912D12882300
:103DE00019F00EEC13E060C080916502811103C0F0
:103DF00003EF13E04FC0809164028823C9F308E009
:103E000014E0F80181918F01882319F00E94CF31CD
:103E1000F8CF8FE00E940677892B19F004E415E0B3
:103E20000DC001E315E0D8018D918D01882319F0B3
:103E30000E94CF31F8CF0CE014E008C0F801819166
:103E40008F018823C1F30E94CF31F8CFD8018D9123
:103E50008D01882319F00E94CF31F8CF82E00E94B3
:103E60000677892B19F004E415E00BC001E315E097
:103E7000F80181918F01882309F460CD0E94CF3130
:103E8000F7CFD8018D918D01882309F457CD0E9479
:103E9000CF31F7CFF80181918F01882311F40C9471
:103EA0001B2A0E94CF31F6CFD8018D918D01882336
:103EB00019F00E94CF31F8CF8AE00E94CF3101E1A2
:103EC00014E0F80181918F01882319F00E94CF310D
:103ED000F8CF8AE00E94CF31609183027091840212
:103EE00080918502909186020E9465338AE00E944B
:103EF000CF310EE114E0D8018D918D01882319F0A6
:103F00000E94CF31F8CF8AE00E94CF3160917F02CA
:103F10007091800280918102909182020E946533AB
:103F20008AE00E94CF310BE214E0F80181918F0109
:103F3000882319F00E94CF31F8CF8AE00E94CF3158
:103F400060917B0270917C0280917D0290917E0253
:103F50000E9465338AE00E94CF310C941B2A109294
:103F60008A0D10928B0D10928C0D10928D0D109267
:103F70002E1110922D110C941B2A109266020C9493
:103F80001B2A81E08093660210928A0D10928B0D9D
:103F900010928C0D10928D0D80E293E0A0E0B0E0C5
:103FA00080933A0290933B02A0933C02B0933D026F
:103FB0000C941B2A0E9499A80C941B2A8091F6123B
:103FC0009091F712019711F00C941B2A82E090E077
:103FD0009093F7128093F6120E94B95960930013E0
:103FE0007093011380930213909303130C941B2A74
:103FF0000E94EBA40C941B2A0E9408630C941B2AB9
:104000000E94CF620C941B2A8EE40E94F830882311
:1040100011F40C941B2A0E9466306093720E709308
:10402000730E8093740E9093750E0C941B2A83E587
:104030000E94F830882369F00E94763080935F02F6
:104040008D3310F40C941B2A8CE380935F020C9444
:104050001B2AEDE3F3E284918F010F5F1F4F88234A
:1040600021F00E94CF31F801F6CF40915F0250E07D
:1040700060E070E080EE92E00E9484718AE00E942D
:10408000CF310C941B2A0E94B36210922711109218
:1040900026110C94A52D83E50E94F830882311F495
:1040A0000C941B2A0E94763080932C118D3318F0CB
:1040B0008CE380932C110E94B9596B017C012091F3
:1040C0002C1130E0A8EEB3E00E9412BEDC01CB015F
:1040D0008C0D9D1DAE1DBF1D80932811909329113D
:1040E000A0932A11B0932B110C941B2A8091CC120F
:1040F00083FF02C00C941B2A83E50E94F8308EA334
:1041000081110C94E42A82E50E94F83081110C940C
:10411000E42A0C941B2A0E94559E0C941B2A0E9490
:10412000469E0C941B2A109287050C941B2A81E052
:10413000809387050C941B2A0E94A59B0C941B2A34
:104140000E948D9B0C941B2AD6018D916D010E94BB
:10415000C930882309F46DC0133009F063C00E9490
:1041600096304B015C0120E030E040EA51E40E94CF
:10417000B8B987FF4EC0A50194016091B408709151
:10418000B5088091B6089091B7080E94FEBE2B0139
:104190003C019B01AC016091F4117091F51180918B
:1041A000F6119091F7110E941DBA6093F41170936B
:1041B000F5118093F6119093F711A301920160918C
:1041C00010127091111280911212909113120E948C
:1041D0001DBA609310127093111280931212909373
:1041E00013126091940870919508809196089091AF
:1041F00097080E94BCB9A30192010E941DBA0E94B7
:104200006BBF609394087093950880939608909381
:1042100097088092B4089092B508A092B608B09220
:10422000B70807C00E949630F701608371838283CC
:1042300093831F5FF4E0EF0EF11C143009F084CF7C
:104240000E94E9730C941B2A0E948A610E94769A4C
:104250000C941B2A84918F010F5F1F4F882321F03C
:104260000E94CF31F801F6CFE8EBF3E084918F01A3
:104270000F5F1F4F882321F00E94CF31F801F6CF46
:10428000E1EAF3E084918F010F5F1F4F882321F053
:104290000E94CF31F801F6CFE1E9F3E084918F017C
:1042A0000F5F1F4F882321F00E94CF31F801F6CF16
:1042B000E0E8F3E084918F010F5F1F4F882321F026
:1042C0000E94CF31F801F6CFEFE6F3E084918F0141
:1042D0000F5F1F4F882321F00E94CF31F801F6CFE6
:1042E000E0E6F3E084918F010F5F1F4F882321F0F8
:1042F0000E94CF31F801F6CFEBE4F3E084918F0117
:104300000F5F1F4F882321F00E94CF31F801F6CFB5
:10431000E5E3F3E084918F010F5F1F4F882321F0C5
:104320000E94CF31F801F6CFE0E2F3E084918F01F3
:104330000F5F1F4F882321F00E94CF31F801F6CF85
:10434000E3E0F3E084918F010F5F1F4F882321F09A
:104350000E94CF31F801F6CFEBEEF2E084918F01AD
:104360000F5F1F4F882311F40C941B2A0E94CF313A
:10437000F801F4CF85E40E94C930882381F00E94BF
:104380008730882361F0EDE3F3E284918F010F5FC2
:104390001F4F882321F00E94CF31F801F6CF81E42E
:1043A0000E94C930882381F00E948730882361F001
:1043B000E0E9F4E084918F010F5F1F4F882321F023
:1043C0000E94CF31F801F6CF0091090710910A073A
:1043D000D8018D918D01882309F4B0CA0E94CF3194
:1043E000F7CFECEAF4E084918F010F5F1F4F882331
:1043F00021F00E94CF31F801F6CFE4EAF4E0849195
:104400008F010F5F1F4F882321F00E94CF31F801E9
:10441000F6CF659903C009EF12E002C00EEF12E07B
:10442000F80181918F01882319F00E94CF31F8CFD4
:104430008AE00E94CF31ECE9F4E084918F010F5FB4
:104440001F4F882321F00E94CF31F801F6CF8091D1
:10445000030181FD03C009EF12E002C00EEF12E07C
:10446000D8018D918D01882319F00E94CF31F8CFAA
:104470008AE00E94CF31E4E9F4E084918F010F5F7C
:104480001F4F882321F00E94CF31F801F6CF4B9BBC
:1044900003C009EF12E002C00EEF12E0F8018191B3
:1044A0008F01882309F44ACA0E94CF31F7CF81E0F7
:1044B0008093490280932C12BEC710924902109239
:1044C0002C12B9C70E940C9AB6C70E94E799B3C7CD
:1044D0000E945C99B0C70E94F298ADC70E94359BBC
:1044E000AAC70E945C98A7C70E94E397A4C78DED56
:1044F00090E00E94293381119EC783E50E94F83025
:10450000882309F498C70091830510E00E94663063
:10451000000F111FF801E159FD4F718360838BC7B4
:1045200080E50E94C930882309F485C70E9466305F
:10453000F62EC62ED72E83E50E94F830882321F070
:104540000E9466308B0102C00FEF1FEFC801019679
:10455000039708F070C7D7FC6EC7E6ECF4E080E381
:104560008E0F9491F91609F466C731968E13F9CF20
:104570000C947E2D85E40E94F830882339F00E9447
:104580007630082F823008F094C001C000E080E54A
:104590000E94C930882361F00E94963024E0029F77
:1045A000F0011124E65FFD4F608371838283938362
:1045B00089E40E94C9308823A9F00E94963044E023
:1045C000049F90011124D901AE5FBD4F7D012CEAFB
:1045D00035EC47E25EE30E941DBAF7016083718308
:1045E0008283938384E40E94C9308823B1F00E94BF
:1045F0009630F4E00F9F90011124A9014E5E5D4FAB
:104600007A012CEA35EC47E25EE30E94FEBED70158
:104610006D937D938D939C931397EDE3F3E28491D7
:104620007F01BFEFEB1AFB0A882321F00E94CF31F4
:10463000F701F5CF10E0B80182E095E00E94027228
:10464000000F111F000F111FF801E65FFD4F4081A1
:104650005181628173818EEF94E00E94BE71F801F6
:10466000EE5FFD4F2CEA35EC47E25EE3608171813D
:10467000828193810E94FEBEAB01BC018AEF94E06F
:104680000E94A171F801EE5EFD4F2CEA35EC47E285
:104690005EE360817181828193810E941DBAAB01CA
:1046A000BC0186EF94E00E94A1718AE00E94CF31A4
:1046B000C2C6E3ECFBE184918F010F5F1F4F8111B4
:1046C00003C001E414E004C00E94CF31F801F3CF2D
:1046D000F80181918F01882309F430C90E94CF31FC
:1046E000F7CF80E50E94C930882351F00E949630B0
:1046F00060932202709323028093240290932502F8
:1047000089E40E94C930882381F00E9496302CEA07
:1047100035EC47E25EE30E941DBA60931E0270937F
:104720001F02809320029093210284E40E94C930EA
:10473000882381F00E9496302CEA35EC47E25EE354
:104740000E94FEBE60931A0270931B0280931C02AB
:1047500090931D02EDE3F3E284918F010F5F1F4FF1
:10476000882321F00E94CF31F801F6CF4091220238
:104770005091230260912402709125028EE095E011
:104780000E94BE712CEA35EC47E25EE360911E02A6
:1047900070911F0280912002909121020E94FEBE22
:1047A000AB01BC018AE095E00E94A1712CEA35ECD6
:1047B00047E25EE360911A0270911B0280911C0235
:1047C00090911D020E941DBAAB01BC0186E095E0EC
:1047D0000E94A1718AE00E94CF312DC683E50E941C
:1047E000C930182F882371F00E9496300E9466BF4E
:1047F00070936E0260936D0221E0672B09F020E058
:104800002093E71180E50E94C930882359F0209158
:104810006D0230916E02232B11F00E94873080933D
:10482000E71109C6111107C6EDE3F3E284918F0188
:104830000F5F1F4F882321F00E94CF31F801F6CF80
:104840008091E711811103C068E073E002C06BEF53
:1048500072E087E295E00E94377260916D0270917C
:104860006E0286E195E00E940272E2E1F5E0849139
:104870008F010F5F1F4F882309F4DDC50E94CF31E0
:10488000F801F5CF85E40E94F830882321F00E94DA
:1048900066301B0102C0212C312C83E40E94F830C9
:1048A000882339F00E94663064967FAF6EAF6497BC
:1048B00006C025E030E064963FAF2EAF649785E5F3
:1048C0000E94C93029968FAF2997882329F00E942A
:1048D000873029968FAF299737FC07C0C12CD12C80
:1048E00016E1E12E13E4F12E06C0C12CD12CBCE858
:1048F000EB2EB2E4FB2E83E50E94F830882321F0F2
:104900000E9496306B017C01C701B6010E9466BF10
:1049100032E02316310410F42092830510922711FF
:1049200010922611072E000C880B990B0E94BEB91D
:104930006AAF7BAF8CAF9DAF0E94B9594B015C0150
:10494000C1010196039718F402E514E00EC005E6D4
:1049500014E0D8018D918D01882319F00E94CF3188
:10496000F8CF8AE00E94CF3166C5F80181918F01AE
:10497000882319F00E94CF31F8CF8AE00E94CF310E
:104980000E94A85B8FE7FFEF2F163F0619F4809374
:10499000F10704C0F101EE50F84F808381E080936D
:1049A00000022E968CAE9DAEAEAEBFAE2E97689630
:1049B0008CAE9DAEAEAEBFAE68971EAE20E42FAFFC
:1049C0003CE121963FAF219746E422964FAF2297D4
:1049D00023961FAE239724961FAE249725961FAECD
:1049E000259726961FAE26971EAA1FAA18AE19AEA7
:1049F0001AAA1BAA1CAA1DAAC12CD12C7601FFE75A
:104A00004F2E512C612C712C8FE790E0A0E0B0E08C
:104A10008AA79BA7ACA7BDA762961CAE1DAE1EAE13
:104A20001FAE629791E02A969FAF2A971FA61EA6F7
:104A30001E8E1AA200E010E0D101AE50B84F6A9667
:104A4000BFAFAEAF6A97C101880F991F880F991F3A
:104A5000FC01E352F84F2896FFAFEEAF2897809104
:104A60000002882309F40EC20E94B9596EA37FA3E5
:104A700088A799A78091F007882309F4DEC00E94D7
:104A8000865CFFEF2F163F0659F42091E5072E8F25
:104A90003091E6073AA30091E7071091E80715C0A7
:104AA0002896AEADBFAD2897BC91BE8F2896EEADCF
:104AB000FFAD2897F181FAA32896AEADBFAD289738
:104AC00012960C91129713961C912E8D3AA1A80163
:104AD00023966FAD239724967FAD249725968FADAF
:104AE000259726969FAD26970E94B8B987FF0EC0DE
:104AF000BE8D2396BFAF2397EAA12496EFAF2497EC
:104B000025960FAF259726961FAF26972E8D3AA193
:104B1000A8016EAD7FAD21968FAD219722969FADF6
:104B200022970E9448C0181654F4FE8DFEAF2AA1A9
:104B30002FAF21960FAF219722961FAF22972A966B
:104B40003FAD2A972AAD332309F457C03BAD4CAD96
:104B50005DAD6E8D7AA1C8010E9448C018160CF098
:104B60006CC04EA15FA168A579A5481959096A09C9
:104B70007B09DB01CA0188589341A109B109B7FD3E
:104B80005CC08AA59BA5ACA5BDA584199509A609FD
:104B9000B709B595A79597958795EFEF2E163E0621
:104BA00019F48093F10705C06A96EEADFFAD6A97E0
:104BB000808362964CAF5DAF6EAF7FAF6297FAAD08
:104BC0002396FFAF23972BAD24962FAF24973CADB0
:104BD00025963FAF25974DAD26964FAF26978EA1D0
:104BE0009FA1A8A5B9A52E968CAF9DAFAEAFBFAFC4
:104BF0002E972A961FAE2A9720C03BAD4CAD5DADD7
:104C00006E8D7AA1C8010E94B8B987FF16C08EA127
:104C10009FA1A8A5B9A52E962CAD3DAD4EAD5FAD1B
:104C20002E97821B930BA40BB50BAC01BD0148580A
:104C300053416109710977FFFBC520E030E040EA8C
:104C400051E46AAD7BAD8CAD9DAD0E9422BE9B014F
:104C5000AC016E8D7AA1C8010E9448C018166CF490
:104C6000E7EFF5E084918F010F5F1F4F882309F470
:104C7000E2C30E94CF31F801F5CF80E398EFAFEFA8
:104C8000BFEF68962CAD3DAD4EAD5FAD6897821B12
:104C9000930BA40BB50B2EA13FA148A559A5820FDC
:104CA000931FA41FB51FB7FD0FC00E94C5618AE006
:104CB0000E94CF318EA19FA1A8A5B9A568968CAFFF
:104CC0009DAFAEAFBFAF68978EA19FA1A8A5B9A5B4
:104CD000880F991FAA1FBB1F2E962CAD3DAD4EAD60
:104CE0005FAD2E97821B930BA40BB50B8819990906
:104CF000AA09BB0981389F44A241B10568F0E9EDDA
:104D0000F5E084918F010F5F1F4F882309F493C34F
:104D10000E94CF31F801F5CF4EA55FA564968EAD08
:104D20009FAD6497841795070CF099CEECE7F5E0FA
:104D300084918F010F5F1F4F882321F00E94CF3194
:104D4000F801F6CF9FEF2916390619F00BE014E0B1
:104D500002C00CE013E0B8018AE695E00E943772C9
:104D6000B701A60186E695E00E94BE718AE00E9426
:104D7000CF31B80184E595E00E9437724AA95BA95A
:104D80006CA97DA980E595E00E94BE718AE00E9431
:104D9000CF31B8018EE395E00E9437724EA95FA92A
:104DA00068AD79AD8AE395E00E94BE718AE00E9409
:104DB000CF312996AFAC2997AA2009F43CC32FEF35
:104DC0002216320669F5C0922202D0922302E092A6
:104DD0002402F09225022CEA35EC47E25EE36AA950
:104DE0007BA98CA99DA90E941DBA60931E02709395
:104DF0001F0280932002909321022CEA35EC47E2B7
:104E00005EE36EA97FA988AD99AD0E94FEBE609356
:104E10001A0270931B0280931C0290931D020BC315
:104E20008101000F111F000F111FF801E65FFD4FF8
:104E3000C082D182E282F382A8014E5F5D4F5A01A7
:104E40002CEA35EC47E25EE36AA97BA98CA99DA90F
:104E50000E941DBAD5016D937D938D939C931397FA
:104E60000E5E1D4F2CEA35EC47E25EE36EA97FA98A
:104E700088AD99AD0E94FEBEF80160837183828384
:104E80009383D9C2809100028111D5C20E94A85B90
:104E9000D2C20E948A61CFC280E00E942A38CBC26F
:104EA00086E50E94C930882351F08091BA0790911D
:104EB000BB07892B21F00E9461360E944D3683E5A5
:104EC0000E94C930182F882319F00E948730182FAC
:104ED00083E50E94C930882319F0812F0E94972F03
:104EE0008AE50E94C930882319F00E949630D7D7EE
:104EF000F090E611111103C0EDE3F3E21AC0F110D6
:104F0000FBCFE3ECFBE184918F010F5F1F4F882300
:104F100021F00E94CF31F801F6CFEBE8F6E0849162
:104F20008F010F5F1F4F882339F30E94CF31F801A3
:104F3000F6CF84918F010F5F1F4F882321F00E94CD
:104F4000CF31F801F6CFF11003C064E173E002C085
:104F500060E173E08DE796E00E9437728AE00E947C
:104F6000CF31EDE3F3E284918F010F5F1F4F882370
:104F700021F00E94CF31F801F6CFE0E7F6E084910E
:104F80008F010F5F1F4F882321F00E94CF31F8015E
:104F9000F6CFC090E211D090E311E090E411F090D0
:104FA000E51120E030E0A901C701B6010E9448C028
:104FB00018166CF0EBE6F6E084918F010F5F1F4F3F
:104FC000882309F438C20E94CF31F801F5CF42E0BE
:104FD000C701B6010E9440358AE00E94CF312BC242
:104FE00089E40E94F830882321F00E946630162F51
:104FF00001C01FEF8AE40E94F830882321F00E944C
:105000006630062F01C00FEF8AE50E94C930F82EE6
:10501000811105C081E50E94C930D82E01C0D12C74
:1050200017FD02C007FF03C0E3ECFBE105C0F11070
:105030001AC0D11018C0F8CF84918F010F5F1F4F95
:10504000882321F00E94CF31F801F6CFE9ECF6E099
:1050500084918F010F5F1F4F882309F4ECC10E94D8
:10506000CF31F801F5CF153018F0E3ECFBE106C0C5
:105070000530D8F716C00E94CF31F80184918F0116
:105080000F5F1F4F8111F7CFEAEAF6E084918F019D
:105090000F5F1F4F882309F4CEC10E94CF31F80162
:1050A000F5CFE12E110FFF08002E000C110B0E940E
:1050B0009630DD2099F025E02E9DF0012F9DF00D1A
:1050C0001124E00FF11FEE0FFF1FEE0FFF1FE95B32
:1050D000FD4E208131814281538103C020E030E0C8
:1050E000A901A5E0AE9DF001AF9DF00D11240E0FBA
:1050F0001F1F000F111F000F111F095B1D4E0E9483
:1051000022BED8016D937D938D939C9313970E943B
:10511000704D91C182ECC82E8DE0D82E9CEAE92E0C
:1051200092E1F92E2DEC222E22E1322E00E010E049
:10513000F101ED5CF241FF8FEE8FD1018D911D01E8
:10514000882309F48BC0F70140805180628073800E
:10515000F801ED56FD4F2081318142815381F801E4
:10516000E156FD4F60817181828193810E9422BE50
:1051700020E030E040E05FE30E941DBA9B01AC01FB
:10518000C301B2010E9448C0181644F4F801ED575B
:10519000FC4D85909590A590B49003C0812C912CE6
:1051A0005401F801E054FD4E208131814281538148
:1051B000C301B2010E9421BE9B01AC01C501B40133
:1051C0000E9421BE4B015C0120E030E040EA51EC3E
:1051D0000E9448C087FD29C020E030E040EA51E449
:1051E000C501B4010E94B8B91816FCF0D6012D9182
:1051F0003D914D915C91C501B4010E9421BE9B017E
:10520000AC01C301B2010E9422BEF7016083718329
:1052100082839383D6018D929D92AD92BC92139717
:105220008E8D9F8D0E941A3219C0E3ECFBE18491B0
:105230008F010F5F1F4F882321F00E94CF31F801AB
:10524000F6CFE9EEF6E084918F010F5F1F4F8823C0
:1052500009F4F1C00E94CF31F801F5CFB4E0CB0ED4
:10526000D11C0C5F1F4FE4E0EE0EF11C0C30110559
:1052700009F05ECF0E94D1380E94769ADCC00E946D
:10528000453ED9C00E9439A3D6C083E582D7882382
:1052900011F03DD701C081E091E089270E94769E00
:1052A000CAC0EDE3F3E284918F010F5F1F4F8823A3
:1052B00021F00E94CF31F801F6CFE1E2F7E08491CE
:1052C0008F010F5F1F4F882311F40C94681C0E94FC
:1052D000CF31F801F4CFEAE0F7E084918F010F5F5E
:1052E0001F4F882311F40C949E1C0E94CF31F801AB
:1052F000F4CF4091BC125091BD126091BE127091DA
:10530000BF1287E097E00E94BE710C949E1CE3ECF4
:10531000FBE184918F010F5F1F4F882321F00E94D2
:10532000CF31F801F6CFEBE2F7E084918F010F5F08
:105330001F4F882309F47FC00E94CF31F801F5CFB9
:1053400081E08093010283E524D7811103C00E948C
:10535000AD8471C0DCD681116EC0F9CFE090230717
:10536000F09024071E2D8091CC1285FF14C0B70148
:10537000772784E897E00E94027289E20E94CF3189
:105380008AE00E94CF314CEA52E165E677E080E79F
:1053900097E00E940B388091E011181741F083E5E7
:1053A000F8D6182F882321F0B2D6182F01C011E0AB
:1053B00086E41ED7882311F0B9D603C060E070E000
:1053C000CB0120E030E040E752E40E94FEBEAB019A
:1053D000BC01212F8E2D0E94AE978091CC1285FFAB
:1053E0002AC04CEA52E167E477E081E597E00E9449
:1053F0000B38EAE3F7E084918F010F5F1F4F88239A
:10540000D1F0CDD7F801F7CFEDE3F3E284918F012E
:105410000F5F1F4F882319F0C2D7F801F7CF6091B3
:105420002F117091301181E997E00E94377282E26A
:10543000B6D78AE0B4D710922711109226110E9495
:105440008E8483C34115510519F4AF0141505109B0
:10545000812C912C0C94B41380E069D50E94A7385C
:1054600083E597D6882309F447C051D621E0482F19
:10547000BE016F5F7F4FCE0146960E9469746B013B
:105480007C019B01AC010E94CEC0811130C02CEA8E
:1054900035EC47E257E36E897F89888D998D0E94AC
:1054A00022BEAB01BC018CEA92E00E94A1712CEA01
:1054B00035EC47E257E369817A818B819C810E94B8
:1054C00022BEAB01BC0187EA92E00E94A1712CEAE6
:1054D00035EC47E257E3C701B6010E9422BEAB019B
:1054E000BC0182EA92E00E94A1718AE058D70E9432
:1054F00083380E94769A9FCF81E0B8CF1092B21184
:105500001092B3111092B4111092B5111092B811FB
:105510001092B9111092BA111092BB111092D411BD
:105520001092D5111092D6111092D7111092D81155
:105530001092D9111092DA111092DB111092C4114D
:105540001092C5111092C6111092C7111092BC1181
:105550001092BD111092BE111092BF111092DC1169
:105560001092DD111092DE111092DF111092C8110D
:105570001092C9111092CA111092CB111092C01141
:105580001092C1111092C2111092C3110C941917EC
:10559000D7018C91882311F40C94F61AEDE3F3E211
:1055A00084918F010F5F1F4F882319F0F8D6F801FF
:1055B000F7CFF70181917F01882311F0F0D6F9CF61
:1055C0008AE0EDD60C94F61AB1D50E9466BF673911
:1055D000710514F066E970E07093EB076093EA07D9
:1055E0000E94075BA3D520E030E040EA50E40E942F
:1055F00048C0181614F40E9499A881E08093000214
:1056000010922711109226118091E011809383054A
:105610001AA21BA21CA21DA21AA61BA61CA61DA68E
:105620001E8E1EA6FCE3FAAB2CE12EAB36E43AAF9D
:10563000C12CD12C40E8E42E5FEBF52E812C912C6F
:1056400054016091EA077091EB07072E000C880B5C
:10565000990B0E94BEB9162F072F782E692E262F80
:10566000372F482F592FB601C7010E94B8B9882398
:10567000D1F02091E5073091E6074091E70750917E
:10568000E807612F702F872D962D0E94B8B9881FCB
:105690008827881F8E8F4EA1442349F0882339F034
:1056A00080910002C8CE1C2D0D2D7E2C6F2C0E94E7
:1056B000B9596B017C01DC01CB012AA53BA54CA5A6
:1056C0005DA5821B930BA40BB50BB7FD37C0D701AB
:1056D000C60188519C4FAF4FBF4F8AA79BA7ACA76D
:1056E000BDA70E94C561E7EEF2E084912F019FEF14
:1056F000491A590A882319F052D6F201F6CF8114BB
:105700009104A104B104B1F0D501C4018854944FAF
:10571000AF4FBF4FBC01CD016C197D098E099F09A8
:1057200028EE33E040E050E00E94C4BDCA01B90158
:10573000CCD702C08FE333D68AE031D60E943277CD
:1057400023D62090E5073090E6074090E707509079
:10575000E8079101A201612F702F872D962D0E94DD
:1057600021BE9F7781149104A104B10449F420E083
:1057700030E040E85FE30E94B8B987FF0BC008C083
:1057800020E030E040E450E40E9448C0181614F4D1
:1057900046015701AE8DAA2379F12AA13BA14CA164
:1057A0005DA1211531054105510541F0D701C60123
:1057B000821B930BA40BB50BB7FD1EC09101A20178
:1057C0006EA57AA98EA99AAD0E9421BE20E030E094
:1057D00040EC5FE30E94B8B987FD62CFD701C601F4
:1057E000805A9541AF4FBF4F8AA39BA3ACA3BDA3E3
:1057F0002EA63AAA4EAA5AAE80910002882309F436
:105800004FCF81149104A104B10429F4C12ED02EEC
:10581000E72CF62C16CF98EBC91A9BE0D90AE108C1
:10582000F108C818D908EA08FB08F7FE39CFEECF0F
:10583000AEA4BFA41A141B040CF027C162968CAC52
:105840009DACAEACBFAC6297880E991EAA1EBB1E63
:1058500062962CAD3DAD4EAD5FAD6297281B390B06
:105860004A0B5B0BCA01B901A30192010E94B5BDAD
:10587000A50194010E94E6BD4AA45BA46CA47DA48A
:10588000420E531E641E751E34E14316510461041A
:1058900071040CF14CEE44165104610471043CF4A3
:1058A00050E845165104610471041CF105C05BEE1B
:1058B000452E512C612C712C4AA65BA66CA67DA6A8
:1058C0008EEF90E0A0E0B0E084199509A609B70931
:1058D0002C013D0112C024E130E040E050E02AA755
:1058E0003BA74CA75DA744E1442E512C612C712CA1
:1058F00004C04AA65BA66CA67DA64AA55BA56CA5BE
:105900007DA583E696E00E94DB71B301A2018EE5DE
:1059100096E00E94DB714EAD5FAD21966FAD219791
:1059200022967FAD229787E596E00E94BE7123966E
:105930004FAD239724965FAD249725966FAD25979D
:1059400026967FAD269780E596E00E94BE714EA513
:105950005FA5433051050CF498C0C301B2010E9409
:10596000BEB920E030E040E850E40E941DBA6B016F
:105970007C012EAD3FAD21964FAD219722965FADB4
:10598000229723966FAD239724967FAD2497259673
:105990008FAD259726969FAD26970E9421BE2BEDB1
:1059A0003FE049E450E40E941DBA20E030E040E0CE
:1059B0005FE30E941DBA9B01AC01C701B6010E94C2
:1059C000FEBE6B017C01C501B4010E94BEB92FE689
:1059D00032E143E85AE30E941DBA4B015C01B70172
:1059E000A6018AE496E00E94BE71B501A40184E498
:1059F00096E00E94BE712AE939E949E15FE3C701F7
:105A0000B6010E941DBA6B017C019B01AC010E9492
:105A100022BEA50194010E94FEBE6AAB7BAB8CAB9B
:105A20009DABA5019401C701B6010E941DBA20E0FB
:105A300030E040E05EE30E941DBA6EAB7FAB88AF02
:105A400099AFE4E3F6E084915F015FEFA51AB50A30
:105A5000882319F0A4D4F501F6CFB701A6018EE290
:105A600096E00E94BE714AA95BA96CA97DA988E253
:105A700096E00E94BE714EA95FA968AD79AD82E241
:105A800096E00E94BE718AE08AD48AA59BA5ACA547
:105A9000BDA5840D951DA61DB71DB595A795979518
:105AA0008795EFEF2E163E0619F48093F10705C097
:105AB0006A96EEADFFAD6A9780832EA53FA52F5F56
:105AC0003F4F3FA72EA7AAACAEAEBBACBFAEACACAF
:105AD0002196AFAE2197BDAC2296BFAE22978EA085
