:100000000C942C130C945D130C945D130C945D13E1
:100010000C945D130C945D130C945D130C945D13A0
:100020000C945D130C945D130C945D130C945D1390
:100030000C945D130C945D130C945D130C945D1380
:100040000C945D130C94EC430C945D130C945D13B1
:100050000C945D130C945D130C94405D0C94A659A4
:100060000C945D130C94A63D0C945D130C945D13DD
:100070000C945D130C945D130C945D130C945D1340
:100080000C945D130C945D130C945D130C945D1330
:100090000C945D130C945D130C945D130C945D1320
:1000A0000C945D130C945D130C945D130C945D1310
:1000B0000C945D130C945D130C945D130C945D1300
:1000C0000C945D130C945D130C945D130C945D13F0
:1000D0000C945D130C945D130C945D130C945D13E0
:1000E0000C945D13D63DDC3DED3DF83D003E153EE4
:1000F000043E153E083E0C3E153E123E4E575157EB
:10010000405744574A578857555759575F57635771
:1001100067576D577157755788577B577F57835768
:100120008C5891589658A058AA582359B458BC587E
:10013000C458CE58D858E258F158FB58235905599D
:100140000F591959025CDC5CE15C0C5D185DF45CD4
:10015000F95CF25B084AD73B3BCE016E84BCBFFD25
:10016000C12F3D6C74319ABD56833DDA3D00C77F87
:1001700011BED9E4BB4C3E916BAAAABE0000008020
:100180003F05A84CCDB2D44EB93836A9020C50B9AF
:10019000918688083CA6AAAA2ABE000000803F00DB
:1001A0004E414E494E495459494E46CDCCCC3D0A5C
:1001B000D7233C17B7D13877CC2B329595E6241F3F
:1001C000B14F0A000020410000C84200401C4620F8
:1001D000BCBE4CCA1B0E5AAEC59D744C4556454C10
:1001E000494E4700434F4D4D554E49434154494FA9
:1001F0004E0044525952554E004552524F525300F0
:10020000494E464F004543484F0047322F47332061
:1002100062616420706172616D65746572730A0059
:100220004D65736820706F696E742063616E6E6FC8
:1002300074206265207265736F6C7665640A0025B0
:1002400069730025696D202569730025696820257B
:10025000696D20256973002569642025696820255A
:10026000696D202569730025697920256964202539
:1002700069682025696D20256973005072696E7464
:100280002074696D653A2000000136372603FFFFB0
:10029000FF353C3D380EFFFFFF312E303E12FFFF91
:1002A000FFFF28FF0C0809FFFFFF1A1C18FFFF2A99
:1002B00024221EFFFF2C08440AFF4307FF450502C6
:1002C0000002F901F201E401DB016F6666004445BA
:1002D0004255473A004D3131332053006F6B0020B7
:1002E000573A002C20002C2000544845524D414CD8
:1002F0005F50524F54454354494F4E004155544F5F
:100300005245504F52545F53445F535441545553D8
:1003100000454D455247454E43595F504152534564
:100320005200434153455F4C494748545F4252494C
:100330004748544E45535300544F47474C455F4C34
:10034000494748545300534F4654574152455F5014
:100350004F574552004255494C445F504552434522
:100360004E54004C4556454C494E475F444154411C
:10037000005A5F50524F4245004155544F4C45562C
:10038000454C005052494E545F4A4F420050524F24
:100390004752455353004155544F5245504F5254C4
:1003A0005F54454D5000564F4C554D4554524943AE
:1003B00000454550524F4D0053455249414C5F58FE
:1003C0004F4E5F584F4646004649524D57415245A1
:1003D0005F4E414D453A4D61726C696E20312E3150
:1003E0002E342E3920284769746875622920534FAE
:1003F000555243455F434F44455F55524C3A6874EC
:100400007470733A2F2F6769746875622E636F6D0D
:100410002F4D61726C696E4669726D776172652FDE
:100420004D61726C696E2050524F544F434F4C5F78
:1004300056455253494F4E3A312E30204D41434894
:10044000494E455F545950453A3344205072696EC5
:100450007465722045585452554445525F434F5578
:100460004E543A3220555549443A636564653261C9
:1004700032662D343161322D343734382D396231C2
:10048000322D6335356336326633363766660A0099
:100490002F2F200043290A0061626C656420286DBB
:1004A000696E2074656D702000436F6C6420657800
:1004B0007472756465732061726520004B6420005E
:1004C00023646566696E652044454641554C545F1A
:1004D000004B69200023646566696E6520444546CB
:1004E00041554C545F004B70200023646566696E73
:1004F000652044454641554C545F005049442041D5
:1005000075746F74756E652066696E69736865646D
:10051000212050757420746865206C617374204BC1
:10052000702C204B6920616E64204B6420636F6ED9
:100530007374616E74732066726F6D2062656C6F88
:100540007720696E746F20436F6E6669677572619C
:1005500074696F6E2E680A00504944204175746FAB
:1005600074756E65206661696C6564212074696DBF
:10057000656F75740A0042454420544845524D4108
:100580004C2052554E4157415900546865726D6177
:100590006C2052756E617761790045312054484571
:1005A000524D414C2052554E415741590045322041
:1005B000544845524D414C2052554E4157415900E7
:1005C0004265642068656174696E67206661696C64
:1005D00065640048656174696E67206661696C6571
:1005E000640045312048656174696E672066616901
:1005F0006C65640045322048656174696E672066E9
:1006000061696C656400504944204175746F74756C
:100610006E65206661696C6564212054656D706546
:1006200072617475726520746F6F20686967680AFB
:1006300000204B643A2000204B693A2000204B7088
:100640003A20000A20436C61737369632050494467
:10065000200A002054753A2000204B753A200020D3
:100660006D61783A2000206D696E3A200020643A6E
:10067000200020626961733A20005049442041758E
:10068000746F74756E65206661696C6564212054B1
:10069000656D706572617475726520746F6F206826
:1006A0006967680A00504944204175746F74756E1B
:1006B000652073746172740A005049442041757456
:1006C0006F74756E65206661696C65642120426196
:1006D00064206578747275646572206E756D6265EC
:1006E000720A0020643A0020693A0020703A004EF5
:1006F0006F2063617365206C696768740A004F66D8
:10070000660A004661646520486569676874200070
:10071000426564204C6576656C696E6720004661B1
:10072000696C656420746F20656E61626C6520423F
:100730006564204C6576656C696E670A004D65736B
:100740006820706F696E742063616E6E6F742062D2
:1007500065207265736F6C7665640A004D343231C2
:1007600020696E636F727265637420706172616D6F
:10077000657465722075736167650A00454550525E
:100780004F4D204F4B0A003A200050726F62652097
:100790005A204F6666736574003F5A206F75742047
:1007A0006F662072616E676520282D323020746F6D
:1007B000203230290A003C3C3C2067636F64655F4F
:1007C000540A00203A2041465445520A0020206332
:1007D000757272656E745F706F736974696F6E3D68
:1007E00000203A204245464F52450A0020206375BA
:1007F0007272656E745F706F736974696F6E3D00BD
:100800003E3E3E2067636F64655F5428002C2000E5
:100810002C2000203A2073796E635F706C616E5FEC
:10082000706F736974696F6E0A002020637572724D
:10083000656E745F706F736974696F6E3D00656E8D
:100840007175657565696E672022004C696E65205B
:100850004E756D626572206973206E6F74204C61F5
:100860007374204C696E65204E756D6265722B3114
:100870002C204C617374204C696E653A20005072D4
:10088000696E7465722073746F707065642064752E
:100890006520746F206572726F72732E20466978BE
:1008A00020746865206572726F7220616E642075B5
:1008B0007365204D39393920746F20726573746106
:1008C00072742E202854656D70657261747572653E
:1008D0002069732072657365742E205365742069D6
:1008E00074206166746572207265737461727469D4
:1008F0006E67290A004E6F20436865636B73756DE0
:100900002077697468206C696E65206E756D62650C
:10091000722C204C617374204C696E653A20006320
:100920006865636B73756D206D69736D6174636861
:100930002C204C617374204C696E653A20004D3157
:1009400031300020496E76616C696420657874727C
:1009500075646572200000000000000000000000C7
:1009600040C00000524300808943000052430A20E7
:10097000736F66745F656E6473746F705F6D6178BA
:10098000203D20000A20736F66745F656E64737487
:100990006F705F6D696E203D20000A20706F736973
:1009A00074696F6E5F7368696674203D2000206112
:1009B0007869733A0A20686F6D655F6F6666736564
:1009C00074203D2000466F7220003C3C3C20646F48
:1009D0005F626C6F636B696E675F6D6F76655F7486
:1009E0006F0A003E3E3E20646F5F626C6F636B690E
:1009F0006E675F6D6F76655F746F00203A20736578
:100A00007475705F666F725F656E6473746F705F2C
:100A10006F725F70726F62655F6D6F76650A00203E
:100A20002063757272656E745F706F736974696F3D
:100A30006E3D00203A20636C65616E5F75705F618A
:100A4000667465725F656E6473746F705F6F725FFA
:100A500070726F62655F6D6F76650A002020637546
:100A60007272656E745F706F736974696F6E3D004A
:100A7000646F5F70726F62655F7261697365280091
:100A80006465706C6F793A2000203A207365745F5A
:100A900070726F62655F6465706C6F7965640A007F
:100AA000202063757272656E745F706F736974690C
:100AB0006F6E3D00203A203C3C3C20646F5F7072BA
:100AC0006F62655F6D6F76650A00202063757272D4
:100AD000656E745F706F736974696F6E3D00203A64
:100AE000203E3E3E20646F5F70726F62655F6D6F87
:100AF00076650A00202063757272656E745F706F90
:100B0000736974696F6E3D0072657365745F6265C9
:100B1000645F6C6576656C0A002028646F6E6529D9
:100B20000A004578747261706F6C617465205B00B7
:100B30004B494C4C45442E2000202D20496E7661B7
:100B40006C6964206578747275646572206E756D69
:100B500062657220210A002020506C616E6E657201
:100B600042756666657242797465733A2000204664
:100B7000726565204D656D6F72793A2000436F6D27
:100B800070696C65643A20446563202036203230F9
:100B900031390A00207C20417574686F723A202830
:100BA0006E6F6E652C2064656661756C7420636F72
:100BB0006E666967290A00323031382D30382D30A1
:100BC0003100204C61737420557064617465643A1F
:100BD0002000312E312E342E390A004D61726C699D
:100BE0006E0020536F66747761726520526573657D
:100BF000740A00205761746368646F6720526573DC
:100C000065740A002042726F776E206F75742052EF
:100C1000657365740A002045787465726E616C2096
:100C200052657365740A00506F77657255700A00DB
:100C300073746172740A00205A3A0020593A0020F5
:100C4000583A00656E6473746F7073206869743A03
:100C5000200024F4D43050C38E20C2A24017828BCF
:100C60007011127A910D816CD90AA861E108C758F8
:100C70006607615143061E4B5D05C145A7041A4135
:100C80001104093D9803713931034036DB026533A5
:100C90009102D4305402802E1D02632CEE01752A7D
:100CA000C501B028A001102781018F2564012B24E4
:100CB0004B01E0223401AC211F018D200D01801F6A
:100CC000FC00841EED00971DDF00B81CD200E61B5F
:100CD000C600201BBC00641AB200B219A8000A1991
:100CE000A0006A189900D117910040178B00B51623
:100CF000840031167E00B31579003A157300C714CD
:100D00006F0058146A00EE13660088136300251301
:100D10005E00C7125B006C12570015125400C1111F
:100D2000510070114F0021114B00D61049008D1059
:100D300047004610440002104200C00F4000800FE0
:100D40003E00420F3C00060F3B00CB0E3800930ED6
:100D500037005C0E3500270E3400F30D3200C10D54
:100D60003100900D3000600D2E00320D2D00050D6C
:100D70002C00D90C2B00AE0C2900850C29005C0C32
:100D80002700350C27000E0C2600E80B2400C40BAE
:100D90002400A00B23007D0B23005A0B2100390BEC
:100DA0002100180B2000F80A1F00D90A1E00BB0AF8
:100DB0001E009D0A1D00800A1D00630A1C00470AD0
:100DC0001B002C0A1B00110A1A00F7091A00DD0982
:100DD0001900C4091900AB091900920917007B0911
:100DE0001800630917004C0916003609160020097F
:100DF00016000A091500F5081500E0081400CC08D3
:100E00001400B8081400A4081400900813007D080A
:100E100012006B081300580812004608120034082C
:100E20001100230811001208110001081100F00739
:100E30001000E0071000D0071000C0071000B00736
:100E40000F00A107100091070E0083070F00740721
:100E50000F0065070E0057070E0049070E003B07FD
:100E60000D002E070E0020070D0013070D000607CA
:100E70000D00F9060C00ED060D00E0060C00D4068E
:100E80000C00C8060C00BC060C00B0060C00A40642
:100E90000B0099060C008D060B0082060B007706EE
:100EA0000B006C060B0061060A0057060B004C068F
:100EB0000A0042060A0038060A002E060A00240626
:100EC0000A001A060A001006090007060A00FD05B6
:100ED0000900F4050900EB050900E2050900D90540
:100EE0000900D0050900C7050900BE050900B505C0
:100EF0000800AD050800A50509009C05080094053B
:100F000008008C050800840508007C0508007405AD
:100F100008006C050700650508005D05070056051B
:100F200008004E0507004705070040050800380582
:100F30000700310507002A050700230507001C05E7
:100F40000600160507000F05070008050600020544
:100F50000700FB040600F5040700EE040600E804A1
:100F60000600E2040700DB040600D5040600CF04F7
:100F70000600C9040600C3040600BD040600B70449
:100F80000600B1040500AC040600A6040600A00497
:100F900005009B04060095040500900406008A04E1
:100FA000050085040500800406007A040500750428
:100FB0000500700405006B0405006604050061046B
:100FC00005005C04050057040500520405004D04AB
:100FD000050048040500430405003E0404003A04EB
:100FE000050035040500300404002C040500270426
:100FF0000400230405001E0404001A04040016045F
:101000000500110404000D04040009040500040493
:10101000040000040400FC030400F8030400F403CB
:101020000400F0030400EC030400E8030400E403FC
:101030000400E0030400DC030400D8030400D4032C
:101040000400D0030400CC030400C8030300C5035C
:10105000030024F404D9201BC40C5C0E9804C409BA
:101060005F0265077101F405F900FB04B300480451
:101070008700C10369005803550003034500BE0201
:101080003A008402310053022A002902250004029A
:101090002000E4011C00C8011900AF0117009801ED
:1010A000140084011300710110006101100051014E
:1010B0000E0043010D0036010B002B010B00200137
:1010C0000B00150109000C01090003010800FB00D9
:1010D0000800F3000800EB000700E4000600DE0053
:1010E0000600D8000600D2000600CC000500C700AC
:1010F0000500C2000500BD000400B9000400B500F1
:101100000400B1000400AD000400A9000400A50023
:101110000300A20003009F0004009B00030098004E
:1011200003009500020093000300900003008D006F
:1011300002008B0003008800020086000200840089
:101140000300810002007F0002007D0002007B009E
:1011500002007900020077000100760002007400AE
:10116000020072000100710002006F0002006D00B9
:1011700001006C0002006A000100690002006700C3
:1011800001006600010065000100640002006200C9
:10119000010061000100600001005F0002005D00CD
:1011A00001005C0001005B0001005A0001005900D1
:1011B00001005800010057000100560001005500D1
:1011C00001005400010053000000530001005200D0
:1011D000010051000100500001004F0001004E00CD
:1011E00000004E0001004D0001004C0001004B00CA
:1011F00000004B0001004A000100490001004800C6
:1012000000004800010047000100460000004600C1
:1012100001004500000045000100440001004300BA
:1012200000004300010042000000420001004100B4
:10123000000041000100400001003F0000003F00AD
:1012400001003E0000003E0001003D0000003D00A6
:1012500001003C0000003C0000003C0001003B009D
:1012600000003B0001003A0000003A000100390094
:10127000000039000100380000003800000038008C
:101280000100370000003700010036000000360082
:101290000000360001003500000035000000350078
:1012A000010034000000340000003400010033006D
:1012B0000000330000003300010032000000320063
:1012C0000000320001003100000031000000310058
:1012D00001003000000030000000300001002F004D
:1012E00000002F0000002F0000002F0001002E0042
:1012F00000002E0000002E0001002D0000002D0037
:1013000000002D0000002D0001002C0000002C002A
:1013100000002C0000002C0001002B0000002B001E
:1013200000002B0000002B0001002A0000002A0012
:1013300000002A0000002A00010029000000290006
:1013400000002900000029000000290001002800F9
:1013500000002800000028000000280000002800ED
:1013600001002700000027000000270000002700E0
:1013700000002700010026000000260000002600D3
:1013800000002600000026000100250000002500C6
:1013900000002500000025000000250000002500B9
:1013A00001002400000024000000240000002400AC
:1013B000000024000100230000002300000023009F
:1013C0000000230000002300000023000000230091
:1013D0000100220000002200000022000000220084
:1013E0000000220000002200010021000000210076
:1013F0000000210000002100000021000000210069
:10140000000021000100200000002000000020005A
:10141000000020000000200000002000000020004C
:101420000000200001001F0000001F0000001F003E
:1014300000001F0000001F0000001F0000001F0030
:1014400001001E0000001E0000001E0000001E0023
:101450000000043700001E290000511B0000581036
:10146000000010090000CC040000780200004101D7
:1014700000006265640A002C2073797374656D2026
:1014800073746F7070656421204865617465725F64
:1014900049443A20004265642068656174696E675A
:1014A000206661696C65640048656174696E6720D7
:1014B0006661696C65640048656174696E67206681
:1014C00061696C65640045312048656174696E67C7
:1014D000206661696C656400453220486561746905
:1014E0006E67206661696C6564004B494C4C4544ED
:1014F0002E200042696C696E656172204C657665CC
:101500006C696E6720477269643A0A0053756264B9
:101510006976696465642077697468204341544D35
:10152000554C4C20524F4D204C6576656C696E676A
:1015300020477269643A0A003C3C3C20646F5F6853
:101540006F6D696E675F6D6F766528005B00290AB5
:10155000002C20002C20003E3E3E20646F5F686F10
:101560006D696E675F6D6F766528002028004142C7
:101570004C2041646A7573746D656E74205A002046
:10158000480020570020590042696C696E656172FD
:1015900020477269642058005A20466164653A20E9
:1015A000002028656E61626C6564290A0020286449
:1015B000697361626C6564290A0042494C494E4571
:1015C0004152004175746F20426564204C65766518
:1015D0006C696E673A2000204E6F7A7A6C65290A32
:1015E0000020262041626F76650020262053616D21
:1015F00065205A2061730020262042656C6F7700B9
:101600002D4261636B002028526967687400205A7C
:101610003A0020593A0050726F6265204F66667337
:10162000657420583A004649585F4D4F554E544511
:10163000445F50524F42450A0050726F62653A2033
:1016400000436F72650A004D616368696E652054DE
:101650007970653A20003C3C3C204732390A002032
:10166000636F72726563746564205A3A0047323959
:1016700020756E636F72726563746564205A3A00F8
:10168000203A203E2070726F62696E6720636F6D32
:10169000706C6574650A00202063757272656E74E3
:1016A0005F706F736974696F6E3D002028445259F2
:1016B00052554E2900473239204175746F204265DA
:1016C00064204C6576656C696E67003F20284C2C61
:1016D000522C462C4229206F7574206F6620626F51
:1016E000756E64732E0A003F2856296572626F7307
:1016F00065206C6576656C20697320696D706C611E
:10170000757369626C652028302D34292E0A0042D9
:101710006164205A2076616C75650A004E6F206204
:10172000696C696E65617220677269640A003C3C8D
:101730003C204732390A003E204175746F2D6C659C
:1017400076656C206E6F74206E65656465642C2010
:10175000736B69700A00203A203E3E3E20473239C2
:101760000A00202063757272656E745F706F736912
:1017700074696F6E3D0070012C0190012701B0016A
:101780002201C0011D01F0011801100213013002F5
:101790000E016002090190020401C002FF00000373
:1017A000FA004003F5008003F000D003EB002004B2
:1017B000E6007004E100E004DC004005D700C0054D
:1017C000D2004006CD00D006C8008007C300300814
:1017D000BE00F008B900C009B400B00AAF00B00BF9
:1017E000AA00D00CA500000EA000500F9B00C01056
:1017F00096005012910000148C00C0158700B0179D
:101800008200B0197D00D01B7800001E73004020BC
:101810006E0090226900F024640040275F00902948
:101820005A00E02B5500102E500020304B00103293
:101830004600E033410090353C00103737007038E7
:101840003200A0392D00B03A2800A03B2300603CB4
:101850001E00103D1900903D1400103E0F00703E18
:101860000A00C03E0500003F0000403FFBFF803FF4
:10187000F6FFC03FF1FF4572723A204D4158544582
:101880004D5020424544004D415854454D50207420
:101890007269676765726564004531204572723A06
:1018A000204D415854454D50004532204572723A02
:1018B000204D415854454D50004572723A204D49D3
:1018C0004E54454D5020424544004D494E54454DDF
:1018D0005020747269676765726564004531204500
:1018E00072723A204D494E54454D500045322045C4
:1018F00072723A204D494E54454D5000202F002021
:1019000040002042403A0020403A000000210024DC
:101910000027002A002D00300033000101000004E0
:101920000107010A0100002200250028002B002EDB
:10193000003100340002010000050108010B010024
:101940000020002300260029002C002F0032000078
:101950000100000301060109010505050507050849
:10196000080808020202020A0A0808040404040122
:101970000101010101010103030303030303030444
:101980000707070C0C0C0C0C0C0C0C0202020206D4
:10199000060606060606060B0B0B0B0B0B0B0B01C4
:1019A0000210202008081020401020408002010270
:1019B0000108040201010204081020408080402038
:1019C0001008040201800402018040201008040273
:1019D00001080402010102040810204080010204F1
:1019E000081020408000000A0B02090C0D0E0807A9
:1019F00003040100000000000000000000000000DF
:101A000000000000000000000000000000000000D6
:101A10000012111000000000000000000000000093
:101A2000000000000000000000000020573A0020E5
:101A30005A3A0020423A0020436F756E7420413AB2
:101A40000020453A00205A3A0020593A00583A00FE
:101A50003A004361703A0020540020520041636311
:101A6000656C65726174696F6E3A2050005741521F
:101A70004E494E4721204C6F77205A204A65726BA1
:101A8000206D6179206C65616420746F20756E77BC
:101A9000616E746564207061757365732E0A002031
:101AA0005A00205900580020204D61783A2000202B
:101AB0005A00205900580020204D696E3A20004FEE
:101AC0006E20004F666600536F667420656E647307
:101AD000746F70733A2000486F74656E64206F668F
:101AE00066736574733A0020466C6F773A2000493C
:101AF0006E76616C69642065787472756465720ACB
:101B00000020643A0020693A0020703A0020653ACB
:101B100000546F6F206661722066726F6D2072656F
:101B2000666572656E636520706F696E740A004940
:101B30006E76616C69642065787472756465720A8A
:101B400000416374697665204578747275646572C6
:101B50003A2000203A204D6F7665206261636B0A5F
:101B600000202064657374696E6174696F6E3D0056
:101B7000207D0A002C20004F666673657420546F28
:101B80006F6C205859206279207B20004E6F206DA9
:101B90006F7665206F6E20746F6F6C6368616E671F
:101BA000650A0020746F6F206C6F6E672065787413
:101BB000727573696F6E2070726576656E74656498
:101BC0000A0020636F6C6420657874727573696FA6
:101BD0006E2070726576656E7465640A00000000A0
:101BE0000000000000000000003C3C3C20736574D5
:101BF0005F617869735F69735F61745F686F6D655A
:101C00002800203A200A00202063757272656E74E5
:101C10005F706F736974696F6E3D005D203D2000D9
:101C20003E20686F6D655F6F66667365745B003E2E
:101C3000207A70726F62655F7A6F66667365742072
:101C40003D20002A2A2A205A20484F4D454420573B
:101C50004954482050524F424520285A5F4D494E22
:101C60005F50524F42455F555345535F5A5F4D4950
:101C70004E5F454E4453544F505F50494E29202AE1
:101C80002A2A0A003E3E3E207365745F61786973BC
:101C90005F69735F61745F686F6D6528005761727B
:101CA0006E696E673A20486F6D696E672042756D88
:101CB000702044697669736F72203C20310A0002FB
:101CC00002040000A0400000A040000000403C3C96
:101CD0003C20686F6D65617869732800203A203E6A
:101CE000204146544552207365745F617869735F83
:101CF00069735F61745F686F6D650A0020206375AA
:101D00007272656E745F706F736974696F6E3D0097
:101D1000486F6D65203220536C6F773A0A004D6F23
:101D2000766520417761793A0A00486F6D65203108
:101D300020466173743A0A003E3E3E20686F6D652E
:101D40006178697328004572726F722077726974C6
:101D5000696E6720746F20454550524F4D210A002F
:101D6000290A002062797465733B20637263200046
:101D700053657474696E67732053746F7265642061
:101D800028006F6B0020746F6F206C6F6E6720658A
:101D90007874727573696F6E2070726576656E7493
:101DA00065640A0020636F6C6420657874727573D3
:101DB000696F6E2070726576656E7465640A006284
:101DC0007573793A2070617573656420666F72204F
:101DD000696E7075740A00627573793A2070617566
:101DE00073656420666F7220757365720A00627590
:101DF00073793A2070726F63657373696E670A0056
:101E00004B494C4C45442E20004B494C4C206361BF
:101E10007573656420627920746F6F206D756368D7
:101E200020696E6163746976652074696D65202D23
:101E30002063757272656E7420636F6D6D616E6480
:101E40003A20005072696E7465722068616C746526
:101E5000642E206B696C6C28292063616C6C65644E
:101E6000210A0048617264636F646564204465669A
:101E700061756C742053657474696E6773204C6F60
:101E8000616465640A00DC050000DC0500003200C6
:101E90000000DC05000000007A4400007A440000E5
:101EA00048420000C8420000A0420000A0420000DA
:101EB000484400004C433A0A0020286D6D29002058
:101EC000204D383531205A005A2D50726F626520EE
:101ED0004F66667365740020440020490020204D41
:101EE00033303420500020440020490020204D335E
:101EF0003031205000204400204900205000202094
:101F00004D33303120450050494420736574746965
:101F10006E67733A0A00205A00204A002020473298
:101F2000392057204900205A0020204D34323020DB
:101F300053004175746F20426564204C6576656C72
:101F4000696E673A0A0020590020580020204D325F
:101F50003138205400486F74656E64206F66667374
:101F60006574733A0A00205A0020590020204D322F
:101F70003036205800486F6D65206F666673657453
:101F80003A0A00204500205A00205900205800201D
:101F9000540020530020204D323035205100204580
:101FA0003C6D61785F655F6A65726B3E0020583CEE
:101FB0006D61785F785F6A65726B3E20593C6D6138
:101FC000785F795F6A65726B3E205A3C6D61785F1D
:101FD0007A5F6A65726B3E00416476616E63656428
:101FE0003A20513C6D696E5F7365676D656E745F15
:101FF00074696D655F75733E20533C6D696E5F66F5
:10200000656564726174653E20543C6D696E5F74F1
:10201000726176656C5F66656564726174653E00C9
:1020200020540020520020204D32303420500041F6
:102030006363656C65726174696F6E2028756E6983
:1020400074732F7332293A20503C7072696E745F3A
:10205000616363656C3E20523C72657472616374A7
:102060005F616363656C3E20543C74726176656C9D
:102070005F616363656C3E0A00204500205A0020C2
:10208000590020204D3230312058004D6178696D63
:10209000756D20416363656C65726174696F6E2054
:1020A00028756E6974732F7332293A0A002045002F
:1020B000205A0020590020204D3230332058004D46
:1020C0006178696D756D20666565647261746573AC
:1020D0002028756E6974732F73293A0A0020450011
:1020E000205A0020590020204D39322058005374C6
:1020F0006570732070657220756E69743A0A0020ED
:10210000204D3230302044300A0020204D32303013
:1021100020543120440020204D3230302044002013
:1021200044697361626C65640A0046696C616D653F
:102130006E742073657474696E67733A002020476B
:102140003231202020203B00205A3A200020593AEA
:10215000200042656420583A200050726F74656315
:102160007465642050696E0A005374616E64617214
:102170006420446576696174696F6E3A200020526C
:10218000616E67653A2000204D61783A2000204D4D
:10219000696E3A20004D65616E3A200046696E69AD
:1021A00073686564210A002072616E67653A2000D9
:1021B000206D61783A2000206D696E3A200020730E
:1021C00069676D613A2000206D65616E3A20003AC2
:1021D000207A3A2000206F662000205A0020590003
:1021E000205800476F696E6720746F3A00436C6F28
:1021F000636B776973650A00436F756E7465722D42
:102200000020446972656374696F6E3A2000202073
:1022100020616E676C653A20005374617274696E58
:1022200067207261646975733A2000506F73697436
:10223000696F6E696E67207468652070726F626581
:102240002E2E2E0A003F4E756D626572206F66203D
:102250006C65677320696E206D6F76656D656E7451
:10226000206E6F7420706C61757369626C652028D4
:10227000302D3135292E0A003F2028582C5929208D
:102280006F7574206F6620626F756E64732E0A001E
:102290003F53616D706C652073697A65206E6F7451
:1022A00020706C61757369626C652028342D35303F
:1022B000292E0A004D3438205A2D50726F62652045
:1022C0005265706561746162696C697479205465E6
:1022D00073740A003F2856296572626F7365206C1B
:1022E0006576656C20697320696D706C61757369C2
:1022F000626C652028302D34292E0A00290A00201E
:1023000062797465733B2063726320002073746F7D
:102310007265642073657474696E67732072657486
:10232000726965766564202800202863616C637596
:102330006C6174656429210A0020213D2000454517
:1023400050524F4D20435243206D69736D61746349
:1023500068202D202873746F726564292000205333
:10236000697A653A2000496E6465783A2000204D0C
:1023700061726C696E3D563536290A002845455014
:10238000524F4D3D00454550524F4D20766572737A
:10239000696F6E206D69736D617463682000486FAA
:1023A0006D696E67206661696C65640054524947C7
:1023B0004745524544006F70656E003A20007A5FD1
:1023C0006D696E00795F6D696E00785F6D696E0092
:1023D0005265706F7274696E6720656E6473746F96
:1023E00070207374617475730A000000524300809A
:1023F00089430000554300002042000020420000B5
:10240000204100000000FFFFFF3C3C3C20473238E9
:102410000A005261697365205A20286265666F72EE
:102420006520686F6D696E672920746F20003E20FB
:10243000656E6473746F70732E656E61626C65286F
:1024400074727565290A003C3C3C204732380A000A
:102450003E20686F6D696E67206E6F74206E6565D3
:102460006465642C20736B69700A003E3E3E204711
:1024700032380A002066697273740A005A005900E3
:102480005800486F6D6520006563686F3A004572BB
:10249000726F723A0042454420544845524D414CB7
:1024A0002052554E4157415900546865726D616C18
:1024B0002052756E6177617900453120544845524C
:1024C0004D414C2052554E41574159004532205400
:1024D0004845524D414C2052554E415741590055A7
:1024E0006E6B6E6F776E20636F6D6D616E643A20F8
:1024F0002200203A203C3C3C2072756E5F7A5F706F
:10250000726F62650A00202063757272656E745F77
:10251000706F736974696F6E3D00204469736372F4
:102520006570616E63793A00326E642050726F623A
:1025300065205A3A00203A203C3C3C2072756E5F80
:102540007A5F70726F62650A00202063757272652F
:102550006E745F706F736974696F6E3D00534C4F9A
:10256000572050726F6265206661696C210A0031E4
:1025700073742050726F6265205A3A00203A203CF2
:102580003C3C2072756E5F7A5F70726F62650A0004
:10259000202063757272656E745F706F7369746901
:1025A0006F6E3D00464153542050726F6265206645
:1025B00061696C210A00203A203E3E3E2072756E11
:1025C0005F7A5F70726F62650A00202063757272B5
:1025D000656E745F706F736974696F6E3D003C3C2B
:1025E0003C2070726F62655F70740A0050726F6297
:1025F000696E67206661696C65640A00205A3A203A
:102600000020593A200042656420583A2000203AC0
:10261000200A00202063757272656E745F706F739C
:102620006974696F6E3D005F72656C61746976658F
:10263000290A002C20002C20002C20002C20003EF9
:102640003E3E2070726F62655F7074280052657341
:10265000656E643A20000EBD11241FBECFEFD1E29B
:10266000DEBFCDBF00E00CBF14E0A0E0B2E0E8EBBD
:10267000F2E901E00BBF02C007900D92A431B1074F
:10268000D9F722E1A4E1B4E001C01D92A936B20756
:10269000E1F713E1CCE2D3E100E006C021970109A4
:1026A000802FFE010E941AC9CB32D10780E00807B3
:1026B000A9F70E94DBB60C945AC90C9400002F9223
:1026C0003F924F925F926F927F928F929F92AF92C2
:1026D000BF92CF92DF92EF92FF920F931F93CF930F
:1026E000DF93CDB7DEB7C25AD1090FB6F894DEBF7B
:1026F0000FBECDBF21E02093D50F8091F3048D3420
:1027000011F40C943B1C843511F40C942E2E873458
:1027100011F00C94852E8091F1049091F2048C318B
:10272000910509F4A4C67CF4843091053CF4823010
:102730009105A4F597FF2BC00C94371C049709F45E
:1027400061C60C94371C8A32910509F498C664F46A
:102750008D31910509F48FC64E9711F00C94371CFA
:102760000E94F9990C94872E8B35910509F463C763
:102770008C35910509F465C78A35910511F00C94E3
:10278000371C109219041092DE100C94872E809141
:10279000180281110C948C2E0C94872E2091180213
:1027A000222311F40C94872E11E0029709F010E017
:1027B0000E94E64D82E50E94DC34882309F45CC166
:1027C0000E9462346B017C0140902B1150902C11BF
:1027D00060902D1170902E1120912F113091301199
:1027E000409131115091321122962CAF3DAF4EAF36
:1027F0005FAF22978091171190911811A091191134
:10280000B0911A1126968CAF9DAFAEAFBFAF269791
:1028100020911B1130911C1140911D1150911E11DE
:102820002E962CAF3DAF4EAF5FAF2E9720E030E03D
:10283000A901C701B6010E94C1C1882309F4C8C516
:10284000A301920126966CAD7DAD8EAD9FAD26970E
:102850000E94C1C1811111C022962CAD3DAD4EAD7B
:102860005FAD22972E966CAD7DAD8EAD9FAD2E9750
:102870000E94C1C1882309F4ABC520E030E0A90162
:10288000C701B6010E94C1C1881F8827881F18137D
:102890000BC080E090E0A0E8BFE36A968CAF9DAFEC
:1028A000AEAFBFAF6A970AC020E030E040E85FEB10
:1028B0006A962CAF3DAF4EAF5FAF6A97A30192010E
:1028C00026966CAD7DAD8EAD9FAD26970E942AC633
:1028D00062966CAF7DAF8EAF9FAF629722962CADA4
:1028E0003DAD4EAD5FAD22972E966CAD7DAD8EADFC
:1028F0009FAD2E970E942AC666966CAF7DAF8EAFB5
:102900009FAF669762962CAD3DAD4EAD5FAD6297C1
:10291000CA01B9010E9426C24B015C0166962CAD2A
:102920003DAD4EAD5FAD6697CA01B9010E9426C2AA
:102930009B01AC01C501B4010E942BC60E9496C840
:102940002A966CAF7DAF8EAF9FAF2A9720E030E024
:1029500040E05FE30E9426C24B015C01A7019601A3
:10296000C701B6010E9426C26B017C01A50194013A
:10297000C501B4010E9426C29B01AC01C701B6018A
:102980000E942AC60E9496C89B01AC016A966CAD53
:102990007DAD8EAD9FAD6A970E9426C24B015C0152
:1029A00026962CAD3DAD4EAD5FAD2697C301B2016D
:1029B0000E942BC620E030E040E05FE30E9426C288
:1029C0006B017C0166966CAD7DAD8EAD9FAD66975B
:1029D00090582A962CAD3DAD4EAD5FAD2A970E9422
:1029E00007C79B01AC01C501B4010E9426C29B012F
:1029F000AC01C701B6010E942BC6A30192010E943F
:102A00002AC66B017C012E962CAD3DAD4EAD5FAD5F
:102A10002E9722966CAD7DAD8EAD9FAD22970E9414
:102A20002BC620E030E040E05FE30E9426C22B018D
:102A30003C012A962CAD3DAD4EAD5FAD2A97629616
:102A40006CAD7DAD8EAD9FAD62970E9407C79B01B7
:102A5000AC01C501B4010E9426C29B01AC01C301B7
:102A6000B2010E942BC622962CAD3DAD4EAD5FAD9E
:102A700022970E942AC614C089E40E94DC3488236D
:102A800029F00E9462346B017C0103C0C12CD12C5F
:102A900076018AE40E94DC348823F9F00E946234D3
:102AA0002E966CAF7DAF8EAF9FAF2E9720E030E0BB
:102AB000A901C701B6010E94C1C181111EC020E059
:102AC00030E0A9012E966CAD7DAD8EAD9FAD2E97F9
:102AD0000E94C1C1811111C07BC420E030E0A90176
:102AE000C701B6010E94C1C1882309F471C42E96A2
:102AF0001CAE1DAE1EAE1FAE2E97D701C601B0583C
:102B000022968CAF9DAFAEAFBFAF22972E962CAD65
:102B10003DAD4EAD5FAD2E97505826962CAF3DAFD4
:102B20004EAF5FAF26979C01AD01BC01CD010E9465
:102B300026C24B015C0126962CAD3DAD4EAD5FAD7E
:102B40002697CA01B9010E9426C29B01AC01C501AA
:102B5000B4010E942BC60E9496C8A6966CAF7DAFAA
:102B60008EAF9FAFA69780912B1190912C11A091C1
:102B70002D11B0912E112A968CAF9DAFAEAFBFAF85
:102B80002A97A7019601BC01CD010E942BC66A9627
:102B90006CAF7DAF8EAF9FAF6A9720912F113091B0
:102BA0003011409131115091321162962CAF3DAFEE
:102BB0004EAF5FAF62972E962CAD3DAD4EAD5FAD83
:102BC0002E9762966CAD7DAD8EAD9FAD62970E94E3
:102BD0002BC6AA966CAF7DAF8EAF9FAFAA978091A0
:102BE000171190911811A0911911B0911A116696B0
:102BF0008CAF9DAFAEAFBFAF66976A962CAD3DADC3
:102C00004EAD5FAD6A97BC01CD010E942AC66B0133
:102C10007C0120911B1130911C1140911D1150918C
:102C20001E116E962CAF3DAF4EAF5FAF6E97AA965A
:102C30002CAD3DAD4EAD5FADAA976E966CAD7DAD42
:102C40008EAD9FAD6E970E942AC64B015C018091AC
:102C5000331190913411A0913511B0913611A29693
:102C60008CAF9DAFAEAFBFAFA2979C01AD0160919D
:102C70001F117091201180912111909122110E94B9
:102C80002AC62B013C01209123113091241140913F
:102C9000251150912611E2962CAF3DAF4EAF5FAF9C
:102CA000E2978091371190913811A0913911B0912C
:102CB0003A11AE968CAF9DAFAEAFBFAFAE97A70146
:102CC000960122966CAD7DAD8EAD9FAD22970E9490
:102CD00026C2E6966CAF7DAF8EAF9FAFE697A5019B
:102CE000940126966CAD7DAD8EAD9FAD26970E946A
:102CF00026C29B01AC01E6966CAD7DAD8EAD9FAD5D
:102D0000E6970E942BC6E6966CAF7DAF8EAF9FAF65
:102D1000E697A501940122966CAD7DAD8EAD9FAD79
:102D200022970E9426C24B015C01A70196012696BC
:102D30006CAD7DAD8EAD9FAD26970E9426C29B01E6
:102D4000AC01C501B4010E942AC6E6962CAD3DAD8A
:102D50004EAD5FADE6970E949EC66B017C0120E000
:102D600030E0A9010E94C1C187FF0AC02BED3FE0FE
:102D700049EC50E4C701B6010E942BC66B017C01EF
:102D8000112351F02BED3FE049EC50E4C701B601AF
:102D90000E942AC66B017C0120E030E0A901C70136
:102DA000B6010E94C1C1811128C066962CAD3DAD0F
:102DB0004EAD5FAD66972A966CAD7DAD8EAD9FAD85
:102DC0002A970E94C1C1811118C06E962CAD3DADED
:102DD0004EAD5FAD6E9762966CAD7DAD8EAD9FAD25
:102DE00062970E94C1C1811108C00BEDC02E0FE097
:102DF000D02E09ECE02E00E4F02EA7019601A69655
:102E00006CAD7DAD8EAD9FADA6970E9426C24B01E5
:102E10005C0120E030E0A901C301B2010E94C1C100
:102E20008823C9F0A5019401C501B4010E9426C2FE
:102E30004B015C01A3019201C301B2010E9426C2B1
:102E40009B01AC01C501B4010E942BC60E9496C82B
:102E50004B015C010DC020E030E0A901C501B401C7
:102E60000E9451C887FF04C0B7FAB094B7F8B09475
:102E70002FE632E143E85AE3C501B4010E94C1C123
:102E800087FF02C00C94872EC501B4010E94A0C721
:102E90000E9474C71B01672B19F422242394312C40
:102EA000B10180E090E00E94C5C14B015C019B0133
:102EB000AC01C701B6010E9407C72A966CAF7DAF6F
:102EC0008EAF9FAF2A97A5019401C301B2010E9462
:102ED00007C7A6966CAF7DAF8EAF9FAFA697AE9695
:102EE0002CAD3DAD4EAD5FADAE97E2966CAD7DAD18
:102EF0008EAD9FADE2970E942AC6A50194010E9463
:102F000007C7E2966CAF7DAF8EAF9FAFE2972A9670
:102F10002CAD3DAD4EAD5FAD2A97CA01B9010E94FF
:102F200026C220E030E040E05FE30E9426C29B0121
:102F3000AC0160E070E080E89FE30E942AC66E96D4
:102F40006CAF7DAF8EAF9FAF6E97A2962CAD3DADAF
:102F50004EAD5FADA2972E8F3F8F48A359A3AE967B
:102F60008CAD9DADAEADBFADAE978AA39BA3ACA318
:102F7000BDA36091490270914A02072E000C880B94
:102F8000990B0E94C7C1209168023091690240915B
:102F90006A0250916B020E9426C22AE037ED43E29A
:102FA0005CE30E9426C26AAF7BAF8CAF9DAF0E94EC
:102FB0009A599B01AC0128533F4F4F4F5F4FA29648
:102FC0002CAF3DAF4EAF5FAFA2974EAC5FAC21963A
:102FD0006FAC219722967FAC229741E050E0649637
:102FE0005FAF4EAF649759E12F965FAF2F9764960E
:102FF0002EAD3FAD64972215330509F473C10E94CD
:1030000091410E949A59DC01CB01A2962CAD3DADB5
:103010004EAD5FADA297821B930BA40BB50BB7FD12
:1030200010C00E949A599B01AC0128533F4F4F4F4B
:103030005F4FA2962CAF3DAF4EAF5FAFA2970E94FD
:10304000F6812F963FAD2F9731502F963FAF2F9798
:10305000332309F44BC06E962CAD3DAD4EAD5FAD44
:103060006E9726966CAD7DAD8EAD9FAD26970E9476
:1030700026C26B017C012A962CAD3DAD4EAD5FADF5
:103080002A97B201C3010E9426C2A70196010E949D
:103090002BC67B018C016E962CAD3DAD4EAD5FAD68
:1030A0006E97B201C3010E9426C24B015C012A96B1
:1030B0002CAD3DAD4EAD5FAD2A9726966CAD7DAD86
:1030C0008EAD9FAD26970E9426C29B01AC01C50123
:1030D000B4010E942AC62B013C01C701D8012696E3
:1030E0008CAF9DAFAEAFBFAF269761C064964EADBB
:1030F0005FAD6497BA0180E090E00E94C5C12A9656
:103100002CAD3DAD4EAD5FAD2A970E9426C24B015E
:103110005C010E9404C76B017C01C501B4010E94DF
:103120008CC84B015C01A701960122966CAD7DAD68
:103130008EAD9FAD22970E9426C22B013C01A501B6
:1031400094012E966CAD7DAD8EAD9FAD2E970E94F5
:1031500026C29B01AC01C301B2010E942BC62B0108
:103160003C01A501940122966CAD7DAD8EAD9FAD65
:1031700022970E9426C24B015C01A70196012E9660
:103180006CAD7DAD8EAD9FAD2E970E9426C29B018A
:10319000AC01C501B4010E942AC626966CAF7DAF72
:1031A0008EAF9FAF269759E12F965FAF2F97920171
:1031B000A3016A966CAD7DAD8EAD9FAD6A970E94FE
:1031C0002BC66E8B7F8B888F998F26962CAD3DAD4D
:1031D0004EAD5FAD2697AA966CAD7DAD8EAD9FAD21
:1031E000AA970E942BC66A8F7B8F8C8F9D8FA69685
:1031F0002CAD3DAD4EAD5FADA6976E8D7F8D88A198
:1032000099A10E942BC66E8F7F8F88A399A3E29607
:103210002CAD3DAD4EAD5FADE2976AA17BA18CA117
:103220009DA10E942BC66AA37BA38CA39DA3809122
:103230004802882321F0CE0146960E94997EE090B4
:1032400027111AAA1BAA1CAA1DAA0E891F89288D3C
:10325000398D0EA31FA328A739A74A8D5B8D6C8DCE
:103260007D8D4AA75BA76CA77DA78E8D9F8DA8A19A
:10327000B9A18EA79FA7A8ABB9AB09831A832B83EB
:103280003C834D835E836F83788789879A87AB877A
:10329000BC878AA19BA1ACA1BDA18D879E87AF876A
:1032A000B88B9E01235F3F4FAE01475F5F4FBE016A
:1032B0006B5F7F4FCE0101960E9440A1CE01C29666
:1032C0006C018E01065C1F4F9E012E5D3F4FAE01CB
:1032D000425D5F4FBE01665D7F4F0C970E94B268F2
:1032E00081116CC0E09027111EAA1FAA18AE19AE5A
:1032F00000911711109118112091191130911A1184
:103300000EA31FA328A739A740911B1150911C1190
:1033100060911D1170911E114AA75BA76CA77DA734
:1033200080911F1190912011A0912111B091221133
:103330008EA79FA7A8ABB9AB09831A832B833C83C5
:103340004D835E836F83788789879A87AB87BC8735
:103350008091231190912411A0912511B0912611F3
:103360008D879E87AF87B88B9E01235F3F4FAE014D
:10337000475F5F4FBE016B5F7F4FCE0101960E949A
:1033800040A1DE01D6966D018E01065C1F4F23E23F
:1033900031E1AE01425D5F4FBE01665D7F4FCE0100
:1033A00086960E94B26880E1E7E1F1E1ABE2B1E12B
:1033B00001900D928A95E1F70C94872E6496EEADFC
:1033C000FFAD649731966496FFAFEEAF64970FCE72
:1033D000EEE8F4E284918F010F5F1F4F882321F004
:1033E0000E948C35F801F6CFEAE0F2E084918F017B
:1033F0000F5F1F4F882311F40C94872E0E948C3589
:10340000F801F4CF80E50E94DC34882329F00E9483
:1034100022346B017C0103C0C12CD12C760183E5E1
:103420000E94DC34882361F00E94623420E030E0A6
:103430004AE754E40E9426C20E9474C76B017C01D3
:103440000E9475770E949A59C60ED71EE81EF91E73
:103450000E949A59DC01CB018C199D09AE09BF0964
:10346000B7FD02C00C94872E0E94F681F1CF0E9416
:1034700074AC0C94872E0E94B7510C94872E8091C7
:103480001802882311F40C94872E89E40E94DC34FE
:10349000182F882321F00E943234E62E01C0E12C3F
:1034A0008AE40E94DC34082F882331F00E943234F1
:1034B000F62E111104C00BC0F12C1123C1F034E021
:1034C0003E1510F00C94C932E0E2F2E004C044E092
:1034D0004F15D0F30CC084918F010F5F1F4F8823CD
:1034E00011F40C94872E0E948C35F801F4CF0E94C1
:1034F00078351123F1F020914610309147105E2D60
:103500005203B001539F700D11248091C610909109
:10351000C710680F791F072E000C880B990B0E94AB
:10352000C7C160931711709318118093191190936C
:103530001A110023F1F020914810309149104F2DBD
:103540004203B001439F700D11242091C8103091A7
:10355000C910620F731F072E000C880B990B0E9475
:10356000C7C160931B1170931C1180931D11909320
:103570001E1180E50E94DC348823E9F00E94533458
:103580008823A9F11123D9F020E030E040EA51E48A
:1035900060911711709118118091191190911A1161
:1035A0000E942AC660931711709318118093191105
:1035B00090931A1104C080E50E949534E1CF002356
:1035C000B1F020E030E040E052E460911B117091D6
:1035D0001C1180911D1190911E110E942AC66093AA
:1035E0001B1170931C1180931D1190931E1186E482
:1035F0000E94DC348823D9F00E9462346B017C0184
:1036000020E030E0A9010E9451C8181684F420E09F
:1036100030E040E752E4C701B6010E9407C760935B
:1036200068027093690280936A0290936B020E9411
:10363000DD850C94872E209319042093DE100C94C2
:10364000872EAEECAA2EA2E0BA2EB9E1CB2EBDE0B9
:10365000DB2EE12CF12C00E010E0D5018D915D0115
:103660000E94DC34882309F4A2C00E946234133023
:1036700049F0F701EB52FE4E2081318142815381A6
:103680000E942AC669837A838B839C83F701E55D58
:10369000FE4E20813181428153810E942AC69B01C6
:1036A000AC01133009F074C01092E3101092E410D2
:1036B0001092E5101092E6101092FB101092FC1080
:1036C0001092FD101092FE101092FF101092001137
:1036D00010920111109202111092F3101092F41036
:1036E0001092F5101092F61010920B1110920C110E
:1036F00010920D1110920E111092031110920411DC
:1037000010920511109206111092F7101092F810F5
:103710001092F9101092FA1010920F1110921011CD
:10372000109211111092121110920711109208119B
:103730001092091110920A11CE0101960E94B8BC94
:1037400089819A81AB81BC81809337119093381124
:10375000A0933911B0933A11F9E18F2EF3E09F2E27
:10376000F40181914F01882319F00E948C35F8CF24
:1037700060913711709138118091391190913A11FF
:1037800042E00E945F388AE00E948C3501E00FC061
:10379000D6016D917D918D919C910E942BC6F60171
:1037A0006083718382839383812F0E9496351F5F8C
:1037B000F4E0CF0ED11C24E0E20EF11C143009F02D
:1037C0004CCF002309F44FC020E030E0A901609104
:1037D0003711709138118091391190913A110E94EE
:1037E0002BC62091A2113091A3114091A4115091A8
:1037F000A5110E9426C20E945CC86093C6117093F6
:10380000C7118093C8119093C91190917B06809144
:103810007C06981719F00E94177725C00E947577CB
:1038200080916F0081FB992790F981FF05C08091FD
:103830006F008D7F80936F004091C6115091C7112A
:103840006091C8117091C9114093B70B5093B80B98
:103850006093B90B7093BA0B992329F080916F0094
:10386000826080936F000E9435650C94872E0E94C1
:10387000C4B40C94872E8091F1049091F2048137A6
:10388000910509F465C60CF0EEC08B34910509F47E
:10389000B5C50CF079C08B33910509F49BC30CF0CE
:1038A00059C08F31910509F478C27CF481319105BA
:1038B00009F468C22CF4029708F4DEC10C942B2E94
:1038C000429709F428C70C942B2E8033910509F4F4
:1038D00015C32CF48A9709F403C30C942B2E893357
:1038E000910509F40FC3CA9711F00C942B2E809107
:1038F000EB109091EC10A091ED10B091EE10809330
:103900001A0490931B04A0931C04B0931D0481E03F
:103910008093E9104091EF105091F0106091F110F8
:103920007091F21040931E0450931F046093200482
:10393000709321048093EA101092E8101092E7101F
:103940001092DF101092E0101092E1101092E2102D
:103950000C94872E8034910509F421C47CF48D33B6
:10396000910509F4CCC30CF44DC38E33910509F4D1
:10397000E4C3CF9709F4FAC30C942B2E823491053B
:1039800011F00C94872E8FC48535910509F4F8C683
:103990004CF58035910511F40C94872E9CF48D34F0
:1039A000910509F444C50CF42DC58E34910511F42C
:1039B0000C94872E8F34910511F00C942B2E06E277
:1039C00013E013C58235910509F49CC60CF479C641
:1039D0008335910509F49AC68435910509F49BC68F
:1039E0000C942B2E8B36910509F459C6F4F48836C5
:1039F000910509F420C57CF48C35910511F00C94E7
:103A00002B2E3EECC32E32E0D32E46E9E42E41E1CC
:103A1000F42E10E0D0C68936910509F4C5C58A3662
:103A2000910509F41EC60C942B2E8E36910509F4CF
:103A30002EC574F48C36910511F40C94872E8D36B6
:103A4000910511F00C942B2E0E9405670C94872E83
:103A50008F36910509F42EC58037910511F40C9429
:103A6000872E0C942B2E823E910511F40C94362651
:103A70000CF074C08E3B910509F4DCC56CF58737FA
:103A8000910509F4FDC7C4F48337910509F453C7C0
:103A90000CF411C78537910511F40C94872E8637E5
:103AA000910511F00C942B2E0091EF041091F0046D
:103AB00083E0D12C40E0A3C78937910509F4EBC717
:103AC0000CF4E2C78C38910509F4B0C58B39910527
:103AD00009F485C50C942B2E8D3C910511F40C94A2
:103AE000F825D4F4893C910511F40C94B62534F4EE
:103AF000883C910509F4D5C70C942B2E8B3C91057D
:103B000011F40C94D9258C3C910511F00C942B2EBA
:103B10000E947A640C94872E8A3D910511F40C94CE
:103B2000232674F48E3C910511F40C94FC25833DFE
:103B3000910511F00C942B2E0E941B630C94872E80
:103B40008C3D910511F40C9427268D3D910511F0C3
:103B50000C942B2E0E9432620C94872E843A31E012
:103B6000930711F40C94E72B0CF041C0833651E01D
:103B7000950711F40C94C22BECF48E32B1E09B0744
:103B800011F40C943A264CF48D32914011F00C94BF
:103B90002B2E0E9412610C94872E8F3221E0920707
:103BA00011F40C9490268033914011F40C94452B21
:103BB0000C942B2E813941E0940711F40C94DB2BEB
:103BC0004CF48039914011F00C942B2E0E947577A3
:103BD0000C94872E8239B1E09B0711F40C94E12BF1
:103BE0008A39914011F40C94872E0C942B2E863F29
:103BF000F1E09F0711F40C948E2DECF48C3A31E037
:103C0000930711F40C941F263CF4853A914011F46B
:103C10000C94F82C0C942B2E843FA1E09A0711F4FD
:103C20000C948B2D853F914011F00C942B2E0E940B
:103C300001A10C94872E8335E3E09E0711F40C94C8
:103C4000BC2D6CF4873F21E0920711F40C94912D68
:103C5000883F914011F40C949B2D0C942B2E8B38A3
:103C600043E0940711F40C94872E873E934011F49F
:103C70000C941B2E0C942B2E0091EF041091F00449
:103C800080E50E94DC34882361F00E9422346B01BD
:103C90007C01BB24B394672B682B692B31F4B12CC6
:103CA00004C0B12CC12CD12C760183E50E94DC34F8
:103CB000882311F40C94912E0E94623420E030E0AD
:103CC0004AE754E40E9426C20E9474C76B017C013B
:103CD000B1100BC0672B682B692B39F40115110546
:103CE00021F0D8018C91811102C0B12C02C0BB24FB
:103CF000B3940E947577BB20C1F0E8E8F4E28491A8
:103D00005F01BFEFAB1ABB0A882321F00E948C35FC
:103D1000F501F5CFF80181918F01882319F00E94F8
:103D20008C35F8CF8AE00E948C3583E08093D50FE4
:103D300081E080931404C114D104E104F104D9F0AA
:103D40000E949A59C60ED71EE81EF91E0E949A5963
:103D5000DC01CB018C199D09AE09BF09B7FD04C078
:103D6000109214040C94872E809114048823C1F3BC
:103D70000E94F681EBCF80911404882389F30E947E
:103D8000F681F9CF5F988A988091080181708093BD
:103D90000601129847980C94872E0E941A43ECE370
:103DA000CE2ED12CE12CF12CA70196010E94CDC57D
:103DB000762E672ECA01B901A70196010E94CDC5D2
:103DC0006B017C01CA01B90128E130E040E050E01C
:103DD0000E94CDC54B015C01C9016DE671E00E94F6
:103DE000F3C88E010F5F1F4F6115710599F06F9237
:103DF0007F92DF92CF929F928F929F938F937F9328
:103E00006F9387E692E09F938F931F930F930E9487
:103E100092C126C0009789F06F927F92DF92CF9275
:103E20009F928F929F938F9387E592E09F938F93BA
:103E30001F930F930E9492C113C081149104A10497
:103E4000B104B1F06F927F92DF92CF929F928F92E6
:103E50008BE492E09F938F931F930F930E9492C1E4
:103E60000FB6F894DEBF0FBECDBFE8E8F4E223C082
:103E7000C114D104E104F10469F06F927F92DF92E2
:103E8000CF9283E492E09F938F931F930F930E94AE
:103E900092C1E6CF6F927F928FE392E09F938F93D0
:103EA0001F930F930E9492C10F900F900F900F904D
:103EB0000F900F90DACF84917F01BFEFEB1AFB0ACE
:103EC000882321F00E948C35F701F5CFB8018BE7EC
:103ED00092E00E94F5AE8AE00E948C350C94872E09
:103EE00083E50E94DC3481110C94962E84E40E94B8
:103EF000DC3481110C94962E0C94872E0E948E94A3
:103F00000C94872E85E40E949534882379F181E012
:103F100090E02091BD043091BE04232B11F080E08D
:103F200090E09093BE048093BD040E942B44809146
:103F3000BD049091BE04892B19F40FE313E00EC069
:103F400005E513E0F80181918F01882319F00E94A3
:103F50008C35F8CF8AE00E948C3524C0D8018D9131
:103F60008D018823B9F30E948C35F8CF2091C904C4
:103F70003091CA044091CB045091CC046091DF1081
:103F80007091E0108091E1109091E2100E942AC699
:103F900060931F117093201180932111909322112F
:103FA0000E94DD8583E50E949534882331F081E00D
:103FB00090E09093C0048093BF0482E50E94953402
:103FC000882311F40C94872E1092C0041092BF0421
:103FD0000C94872E109213111092E91010921A046B
:103FE00010921B0410921C0410921D041092EA10EF
:103FF00010921E0410921F041092200410922104AB
:104000000C94872E20E030E0A9016091441170915A
:10401000451180914611909147110E94C1C188239A
:1040200019F081E0809313111092E3101092E410C4
:104030001092E5101092E6101092FB101092FC10F6
:104040001092FD101092FE101092FF1010920011AD
:1040500010920111109202111092DF101092E010D4
:104060001092E1101092E2101092F3101092F410DE
:104070001092F5101092F61081E080935602109283
:10408000EB101092EC101092ED101092EE101092B6
:104090000311109204111092051110920611109242
:1040A0000B1110920C1110920D1110920E11109212
:1040B000F7101092F8101092F9101092FA108093E5
:1040C00057021092EF101092F0101092F11010920F
:1040D000F21010920711109208111092091110920B
:1040E0000A1110920F1110921011109211111092CA
:1040F00012111092E8101092E7100C94872E8CE4A5
:104100000E949534882319F081E080934D0282E566
:104110000E949534882319F081E080934C0281E459
:104120000E949534882311F40C94872E81E08093AB
:104130004D0280934C020C94872E8CE40E9495349F
:10414000811110924D0282E50E94953481111092E6
:104150004C0281E40E949534882311F40C94872E3C
:1041600010924D0210924C020C94872E8CE40E9407
:10417000953481111092D70F82E50E9495348111F8
:104180001092D60F81E40E949534882311F40C9488
:10419000872E1092D60F1092D70F0C94872E8091F5
:1041A0004D02811103C002E613E073C080914C02FE
:1041B0008823C9F307E713E0F80181918F01882371
:1041C00019F00E948C35F8CF8FE00E94D257892BCE
:1041D00019F00EEC13E00DC00DE313E0D8018D9142
:1041E0008D01882319F00E948C35F8CF0BE713E07E
:1041F00008C0F80181918F018823C1F30E948C359A
:10420000F8CFD8018D918D01882319F00E948C354B
:10421000F8CF82E00E94D257892B19F00EEC13E000
:1042200030C00DE313E0F80181918F01882321F163
:104230000E948C35F8CF80912911882309F47BC125
:104240007EEBC72E72E0D72EE12CF12C20E080917E
:10425000291190E00E2C02C0959587950A94E2F7FB
:1042600080FD51C1FFEFEF1AFF0A32E0C30ED11CEF
:1042700046E0E416F10459F78AE00E948C350C946C
:10428000872ED8018D918D018823B1F30E948C3542
:10429000F8CFF80181918F01882311F40C94872EB7
:1042A0000E948C35F6CF81E40E949534882351F02A
:1042B0000E94623460933E1070933F1080934010D0
:1042C0009093411082E40E949534882351F00E941B
:1042D000623460933A1070933B1080933C1090933B
:1042E0003D1083E40E949534882351F00E9462348B
:1042F0006093361070933710809338109093391074
:1043000084E40E949534882351F00E9462346093C3
:10431000321070933310809334109093351082E5EF
:104320000E949534882311F40C94872E00E813E042
:10433000D8018D918D01882319F00E948C35F8CF1A
:1043400060913E1070913F1080914010909141100B
:1043500042E00E945F3803E813E0F80181918F0189
:10436000882319F00E948C35F8CF60913A10709133
:104370003B1080913C1090913D1042E00E945F38CC
:1043800006E813E0D8018D918D01882319F00E9471
:104390008C35F8CF609136107091371080913810BD
:1043A0009091391042E00E945F3809E813E0F8016B
:1043B00081918F01882319F00E948C35F8CF60918C
:1043C000321070913310809134109091351042E08A
:1043D0000E945F3809E713E0D8018D918D01882391
:1043E00009F44ACF0E948C35F7CFF80181918F01F3
:1043F000882309F441CF0E948C35F7CF0E941DAF6E
:104400000C94872E8091AA04813011F00C94872E91
:1044100082E08093AA040E949A596093A204709348
:10442000A3048093A4049093A5040C94872E0E9467
:104430007BAF0C94872E88E690E00E9409388111AA
:104440000C94872E8091291183FF02C00C94872E33
:1044500083E50E94DC348823B1F00E9462340E941C
:104460006FC7DC01CB016091B70C0E94E8340E9459
:10447000623420E030E04AEA52E40E94C1C11816DA
:1044800014F00E947BAF0E94EBAF0C94872E8EE459
:104490000E94DC34882311F40C94872E0E9432345D
:1044A00060934A1170934B1180934C1190934D116E
:1044B0000C94872E83E50E949534882359F083E578
:1044C0000E94DC34882319F00E94423401C080E04D
:1044D00080932911E8E8F4E284918F010F5F1F4F68
:1044E000882321F00E948C35F801F6CFEEECF2E043
:1044F00084918F010F5F1F4F882309F49CCE0E9487
:104500008C35F801F5CFBB24B394B20E222319F0F9
:104510008CE20E948C35F60125913491F901849149
:1045200089010F5F1F4F882321F00E948C3598016D
:10453000F5CF2B2D97CEEAECF2E084918F010F5F3F
:104540001F4F882309F498CE0E948C35F801F5CFCF
:1045500083E50E94DC34882369F00E9442348D3365
:1045600020F480934B020C94872E8CE380934B02B3
:104570000C94872EE8E8F4E284918F010F5F1F4FBF
:10458000882321F00E948C35F801F6CF40914B0230
:1045900050E060E070E085ED92E00E94584B8AE0C8
:1045A0000E948C350C94872E89E690E00E94093891
:1045B000811111C0ECEDF2E084918F010F5F1F4F6C
:1045C000882321F00E948C35F801F6CF0E94A15A71
:1045D0008AE00E948C351092D50F0C94D23283E57C
:1045E0000E94DC34882311F40C94872E0E944234FC
:1045F000182F8D3308F01CE31093E40F0E949A5992
:104600006B017C01212F30E0A8EEB3E00E941BC6B5
:10461000C60ED71EE81EF91EC092E00FD092E10F21
:10462000E092E20FF092E30F0C94872E0E94EC666A
:104630000C94872E8091291183FF02C00C94872E41
:1046400083E50E94DC3467968FAF679781110C94E5
:10465000DA2E82E50E94DC3481110C94DA2E0C945F
:10466000872E80E50E94DC34811106C083E50E941C
:10467000DC34882361F006C00E94423481110C941E
:10468000872EF4CF0E9432346F3F710510F06FEF28
:1046900070E07093110D6093100D0C94872E80E5DF
:1046A0000E94DC34811106C01092110D1092100D81
:1046B0000C94872E0E943234672B11F00C94872EB5
:1046C000F3CF0E94C15D0E94DF771092110D10920E
:1046D000100D00E010E062E370E080E090E00E94E6
:1046E0002C590E9491410F5F1F4F0331110599F71B
:1046F00062E370E080E090E00E942C590E949141BA
:104700000C94872E109218040C94872E81E08093CD
:1047100018040C94872E83E50E94DC348823A1F0D2
:104720000E94623420E030E04AE754E40E9426C24E
:104730000E9474C760934E0270934F0280935002A0
:10474000909351020C94872E88E50E949534811134
:104750000C94743089E50E94953481110C94743066
:104760008AE50E94953481110C94743085E40E948E
:10477000953481110C9474300E94DF770C94872E4D
:1047800083E50E949534882311F40C94872E0E94AF
:10479000623420E030E04AE754E40E9426C20E94DE
:1047A00074C76093DC0F7093DD0F8093DE0F9093DE
:1047B000DF0F0C94872ED6018D916D010E949534E8
:1047C000882309F46DC0133009F063C00E9462347D
:1047D0004B015C0120E030E040EA51E40E94C1C19D
:1047E00087FF4EC0A50194016091A2117091A311A1
:1047F0008091A4119091A5110E9407C72B013C0143
:104800009B01AC016091E40C7091E50C8091E60C89
:104810009091E70C0E9426C26093E40C7093E50C23
:104820008093E60C9093E70CA30192016091000D38
:104830007091010D8091020D9091030D0E9426C28E
:104840006093000D7093010D8093020D9093030D02
:104850006091721170917311809174119091751122
:104860000E94C5C1A30192010E9426C20E9474C782
:1048700060937211709373118093741190937511FA
:104880008092A2119092A311A092A411B092A511AE
:1048900007C00E946234F70160837183828393832F
:1048A0001F5FF4E0EF0EF11C143009F084CF0E947A
:1048B0006AB10C94872E0E94757783E50E94DC34E0
:1048C000882311F40C94331C0E9432346230710539
:1048D00011F00C94331C0E94738B8BE50E948C3575
:1048E00060917D0670917E0680917F069091800692
:1048F00042E00E945F3840918106509182066091AB
:1049000083067091840686EE92E00E94754B40917A
:10491000850650918606609187067091880683EE21
:1049200092E00E94754B8DE50E948C358AE00E94D2
:104930008C350C94872EE8ECF3E084918F010F5FA7
:104940001F4F882321F00E948C35F801F6CF60E0DC
:1049500088EB93E00E94F16461E081EB93E00E94B8
:10496000F16461E086EA93E00E94F16461E086E927
:1049700093E00E94F16460E08DE893E00E94F164AE
:1049800061E083E893E00E94F16461E089E793E0ED
:104990000E94F16461E081E793E00E94F16461E0CC
:1049A00083E693E00E94F16460E085E593E00E9475
:1049B000F16460E086E493E00E94F16460E088E3E3
:1049C00093E00E94F16460E082E293E00E94F1646F
:1049D00061E081E193E00E94F16460E08CEF92E09D
:1049E0000E94F16461E089EE92E00E94F1640C940F
:1049F000872ED8019C91292F2B7F213419F08150CB
:104A0000C1F717C011962C912133C9F7913421F0C9
:104A1000953421F441E002C0DD24D39498012E5F47
:104A20003F4F89012F5F3F4FF80190819032C9F3CA
:104A3000E6CF442369F0E8E8F4E284917F012FEFA8
:104A4000E21AF20A882321F00E948C35F701F5CF93
:104A5000DD2069F0E0E9F4E084917F013FEFE31AA3
:104A6000F30A882321F00E948C35F701F5CFD80195
:104A70008D918D01882309F4FFCB0E948C35F7CFEF
:104A80000E94A0A80C94872E81E080931611809339
:104A900015110C94872E10921611109215110C946A
:104AA000872E88EC90E00E94093881110C94872EA3
:104AB00084E40E949534882309F454C00E9462342F
:104AC00011E020E030E0A9010E94C1C1811101C0C4
:104AD00010E01093CD10112309F444C00E946234F9
:104AE000E091B70CB4E0EB9FF0011124EA52FF4EC5
:104AF000608371838283938320E030E0A901609119
:104B0000D6107091D7108091D8109091D9100E9432
:104B1000C1C181110CC080E090E0A0E4B0E48093BA
:104B2000D6109093D710A093D810B093D91020E04E
:104B300030E0A9016091DA107091DB108091DC10F7
:104B40009091DD100E94C1C181110CC080E090E005
:104B5000A0E4B0E48093DA109093DB10A093DC1013
:104B6000B093DD100E94E7A50C94872E96E7E92EFE
:104B700091E1F92E0EEC12E024E0D22ED00EF801D5
:104B800081918F010E949534882351F00E946234F4
:104B90000E9474C7D7016D937D938D939C93139757
:104BA000B4E0EB0EF11CD012EACF0E941BB00C94C3
:104BB000872EB4EFEB2EBCE0FB2E0EEC12E084E06F
:104BC000D82ED00EF80181918F010E949534882350
:104BD00041F00E946234D7016D937D938D939C9335
:104BE0001397B4E0EB0EF11CD012ECCF0C94872E8F
:104BF0000E94F9630C94872EFEECCF2EF2E0DF2E9C
:104C0000A1ECEA2EA4E0FA2E10E0F60181916F01EA
:104C10000E949534882359F00E946234D7016D9325
:104C20007D938D939C931397812F0E9496351F5FE0
:104C3000B4E0EB0EF11C133041F70C94331C0E94CE
:104C400000660C94872E0E94A7620C94872E83E541
:104C50000E94DC34882311F40C94872E0E94323495
:104C600070934A02609349020C94872E0E94CC6193
:104C70000C94872E83E50E949534182F882371F0B9
:104C80000E9462340E946FC77093250260932402D1
:104C900021E0672B09F020E02093120D80E50E94AF
:104CA0009534882361F02091240230912502232B32
:104CB00011F00E9453348093120D0C94872E111121
:104CC0000C94872EE8E8F4E284918F010F5F1F4F68
:104CD000882321F00E948C35F801F6CF8091120DC7
:104CE000811103C069E073E002C066E073E089EA05
:104CF00094E00E94F5AE609124027091250288E94B
:104D000094E00E94C0AEE4E9F4E084918F010F5F6B
:104D10001F4F882309F4FBC70E948C35F801F5CF9B
:104D200085E40E94DC34882321F00E9432347B0128
:104D300002C0E12CF12C83E40E94DC34882331F0A2
:104D40000E943234ED966FAFED9704C0E5E0ED962A
:104D5000EFAFED9785E50E94DC34882319F00E94BF
:104D6000533403C085E50E949534C857DF4F8883CC
:104D7000C858D040F7FC07C0412C512CE6E16E2EFC
:104D8000E3E47E2E06C0412C512C7CE8672E72E4B1
:104D9000772E83E50E94DC34882321F00E94623460
:104DA0002B013C01F2E0EF16F10410F4E092B70C95
:104DB0000E2D0E949A594B015C01E7FC04C06DE284
:104DC000C62ED12C03C05AE5C52ED12C61E06E0D44
:104DD000633068F0E9EBF6E084918F010F5F1F4FBD
:104DE000882309F494C70E948C35F801F5CF07FD9C
:104DF00012C0E02FEE0FFF0BE55FFD4F6081718168
:104E00006F507109072E000C880B990B0E94C7C1C7
:104E10009B01AC0104C020E030E047E053E4C30153
:104E2000B201C556DF4F2883CB59D040C456DF4F5F
:104E30003883CC59D040C356DF4F4883CD59D0403A
:104E4000C256DF4F5883CE59D0400E946FC7072EFD
:104E5000000C880B990B0E94C7C127966FAF27974C
:104E60002F967FAF2F9763968FAF639767969FAF0D
:104E70006797C556DF4F2881CB59D040C456DF4FC6
:104E80003881CC59D040C356DF4F4881CD59D040EE
:104E9000C256DF4F5881CE59D0400E9451C81816D3
:104EA0006CF4EAE7F6E084918F010F5F1F4F8823CF
:104EB00009F42DC70E948C35F801F5CFE5EAF6E03C
:104EC00084917F012FEFE21AF20A882321F00E94D9
:104ED0008C35F701F5CF0E94C15D07FF04C08FE755
:104EE0008093A40C08C0E02F002E000CFF0BEE55A1
:104EF000F34F8FE780839601A8EEB3E00E941BC6B4
:104F0000C757DF4F688379838A839B83C958D04012
:104F1000DC01CB01880D991DAA1DBB1DCB56DF4FAF
:104F200088839983AA83BB83C559D04081E080934D
:104F30000002C058DF4F88829982AA82BB82C05883
:104F4000D040C357DF4F88829982AA82BB82CD5856
:104F5000D040C158DF4F1882CF57D040CF56DF4FD7
:104F6000188219821A821B82C159D040AB961FAE9B
:104F7000AB9790E4A3969FAFA397ACE1AF96AFAF8A
:104F8000AF97B6E4E396BFAFE397E7961FAEE79718
:104F9000E8961FAEE897E9961FAEE997EA961FAE2E
:104FA000EA97A2961CAE1DAE1EAE1FAEA2976E96DD
:104FB0001CAE1DAE1EAE1FAE6E97C12CD12C76015D
:104FC0002FE730E040E050E02E962CAF3DAF4EAFE3
:104FD0005FAF2E973FE7432E512C612C712CCC579D
:104FE000DF4F188219821A821B82C458D04031E0E8
:104FF000EF963FAFEF97A8961FAE1EAEA89710E0B2
:105000001EAE212C312C802F002E000C990BAC01F0
:105010004E55534FC756DF4F59834883C959D04027
:10502000880F991F880F991FDC01A555B34FEC9687
:10503000BFAFAEAFEC97ED96EFADED970E2E000C37
:10504000FF0BEE96FFAFEEAFEE9780910002882344
:1050500009F43EC10E949A5926966CAF7DAF8EAF7F
:105060009FAF26978091A10C882309F40EC10E945E
:10507000EB5E07FF0AC01091A50CF091A60CFEAFE5
:105080002090A70C3090A80C0EC0EC96AEADBFAD32
:10509000EC971C911196BC91BEAFEC96EEADFFADB6
:1050A000EC9722803380212F3EADA101E7966FADB2
:1050B000E797E8967FADE897E9968FADE997EA968E
:1050C0009FADEA970E94C1C187FF0DC0E7961FAF51
:1050D000E797FEADE896FFAFE897E9962FAEE99720
:1050E000EA963FAEEA97212F3EADA101AB966FAD98
:1050F000AB97A3967FADA397AF968FADAF97E3968F
:105100009FADE3970E9451C818166CF4AB961FAF81
:10511000AB972EADA3962FAFA397AF962FAEAF97B9
:10512000E3963FAEE397EF963FADEF9727962FAD0F
:105130002797332309F47FC02F963FAD2F976396AF
:105140004FAD639767965FAD6797612F7EADC101E5
:105150000E9451C818160CF098C026968CAD9DADD3
:10516000AEADBFAD269788199909AA09BB09C156EA
:10517000DF4F88839983AA83BB83CF59D040885857
:105180009341A109B109B7FD80C0D301C2012E9698
:105190002CAD3DAD4EAD5FAD2E97821B930BA40B96
:1051A000B50BB595A7959795879507FF03C0809395
:1051B000A40C07C0C756DF4FE881F981C959D04018
:1051C0008083C156DF4F288139814A815B81CF5965
:1051D000D040CC57DF4F288339834A835B83C45840
:1051E000D04027963FAD2797E7963FAFE7972F969A
:1051F0004FAD2F97E8964FAFE89763965FAD6397F3
:10520000E9965FAFE99767968FAD6797EA968FAF9C
:10521000EA9726962CAD3DAD4EAD5FAD2697C058B2
:10522000DF4F288339834A835B83C058D040EF9691
:105230001FAEEF972AC02F963FAD2F9763964FADC5
:10524000639767965FAD6797612F7EADC1010E943E
:10525000C1C187FF1AC026968CAD9DADAEADBFAD66
:105260002697C058DF4F288139814A815B81C05819
:10527000D040821B930BA40BB50BAC01BD01485869
:1052800053416109710977FF5CC720E030E040EAD3
:1052900051E427966FAD27972F967FAD2F97639692
:1052A0008FAD639767969FAD67970E942BC69B0152
:1052B000AC01612F7EADC1010E9451C818167CF46B
:1052C000E6E0F6E084918F010F5F1F4F811103C06C
:1052D0000E94C15D1CC50E948C35F801F3CF269653
:1052E0008CAD9DADAEADBFAD2697C357DF4F2881C6
:1052F00039814A815B81CD58D040821B930BA40B2E
:10530000B50BB7FDD0C00E94A15A8AE00E948C352F
:1053100026968CAD9DADAEADBFAD26978053984F10
:10532000AF4FBF4FC357DF4F88839983AA83BB8397
:10533000CD58D040C158DF4F9881CF57D040911100
:1053400086C0CF56DF4F288139814A815B81C159A0
:10535000D040612F7EADC1010E9451C818160CF0DB
:1053600053C020E030E040E050E4612F7EADC10149
:105370000E942BC6CF56DF4F688379838A839B8335
:10538000C159D04026962CAD3DAD4EAD5FAD2697B0
:10539000C757DF4F88819981AA81BB81C958D04006
:1053A000280F391F4A1F5B1FCB56DF4F28833983D5
:1053B0004A835B83C559D04020E030E040EC50E4A4
:1053C00027966FAD27972F967FAD2F9763968FAD5A
:1053D000639767969FAD67970E942AC69B01AC01B1
:1053E00091E0C158DF4F9883CF57D040612F7EADF9
:1053F000C1010E9451C818160CF455C0C158DF4FA6
:105400001882CF57D0404FC026968CAD9DADAEAD23
:10541000BFAD2697CB56DF4F288139814A815B810A
:10542000C559D040821B930BA40BB50BB7FD3BC0F5
:105430000F3F29F0013031F042EE55E005C040EC5D
:1054400055E002C044EF55E063ED75E029C020E06F
:1054500030E040EA51E427966FAD27972F967FAD55
:105460002F9763968FAD639767969FAD67970E945E
:105470002AC69B01AC01612F7EADC1010E94C1C152
:1054800087FF11C00F3F29F0013031F04AE955E0A4
:1054900005C046E755E002C04DEA55E06AE875E010
:1054A000802F0E94244126968CAD9DADAEADBFAD40
:1054B0002697880F991FAA1FBB1FC058DF4F28814E
:1054C00039814A815B81C058D040821B930BA40B69
:1054D000B50B88199909AA09BB0981389F44A241D3
:1054E000B10568F0E8E5F5E084918F010F5F1F4F8B
:1054F000882309F4EDCE0E948C35F801F5CFA896EB
:105500004EAD5FADA897EE968EAD9FADEE9784172A
:1055100095070CF09ACDEBEFF4E084915F019FEFDB
:10552000A91AB90A882321F00E948C35F501F5CF1C
:1055300007FD05C06AE7A62E63E0B62E04C05DE055
:10554000A52E53E0B52EB5018AEE94E00E94F5AE8B
:10555000B701A60186EE94E00E94754B8AE00E9496
:105560008C35B50185ED94E00E94F5AE6E964CAD9C
:105570005DAD6EAD7FAD6E9781ED94E00E94754B91
:105580008AE00E948C35B50180EC94E00E94F5AE73
:10559000A2964CAD5DAD6EAD7FADA2978CEB94E065
:1055A0000E94754B8AE00E948C35C857DF4FA88156
:1055B000C858D040AA2309F4AAC307FF31C0C0923B
:1055C000DB0BD092DC0BE092DD0BF092DE0B2CEAD1
:1055D00035EC47E25EE36E966CAD7DAD8EAD9FAD72
:1055E0006E970E9426C26093D70B7093D80B80935E
:1055F000D90B9093DA0B2CEA35EC47E25EE3A296E6
:105600006CAD7DAD8EAD9FADA2970E9407C7609334
:10561000D30B7093D40B8093D50B9093D60B77C399
:10562000B4E00B0280011124F801ED53F44FC08265
:10563000D182E282F382F801E554F44F5F012CEA53
:1056400035EC47E25EE36E966CAD7DAD8EAD9FAD01
:105650006E970E9426C2D5016D937D938D939C9386
:1056600013970553144F2CEA35EC47E25EE3A296FC
:105670006CAD7DAD8EAD9FADA2970E9407C7F801BE
:10568000608371838283938342C380E50E94953453
:10569000882351F00E9462346093DB0B7093DC0B23
:1056A0008093DD0B9093DE0B89E40E949534882370
:1056B00081F00E9462342CEA35EC47E25EE30E94FE
:1056C00026C26093D70B7093D80B8093D90B90931D
:1056D000DA0B84E40E949534882381F00E946234BE
:1056E0002CEA35EC47E25EE30E9407C76093D30BD8
:1056F0007093D40B8093D50B9093D60BE8E8F4E22B
:1057000084918F010F5F1F4F882321F00E948C35F9
:10571000F801F6CF4091DB0B5091DC0B6091DD0B73
:105720007091DE0B8BEE96E00E94754B2CEA35EC07
:1057300047E25EE36091D70B7091D80B8091D90B53
:105740009091DA0B0E9407C7AB01BC0187EE96E08F
:105750000E94754B2CEA35EC47E25EE36091D30B77
:105760007091D40B8091D50B9091D60B0E9426C2DC
:10577000AB01BC0183EE96E00E94754B8AE00E946B
:105780008C35C5C2EEE8F4E284918F010F5F1F4FA4
:10579000882321F00E948C35F801F6CFEFEEF6E079
:1057A00084918F010F5F1F4F882309F4B0C20E94BC
:1057B0008C35F801F5CF81E00E944A3B0E943565A7
:1057C000A6C280E00E944A3B0E943565A0C283E5E4
:1057D0000E949534882349F00E945334082F811188
:1057E00006C080E00E94B93C02C000914311809144
:1057F0002B1190912C11A0912D11B0912E11898314
:105800009A83AB83BC8380912F1190913011A0912A
:105810003111B09132118D839E83AF83B88780910F
:10582000331190913411A0913511B09136118987BF
:105830009A87AB87BC878091461090914710892B3F
:10584000B1F183E40E949534811112C630C09301F6
:1058500027964FAD27972F965FAD2F976A2D7F2DF7
:1058600023968FAD23972B969FAD2B970E942BC627
:1058700020E030E040E05FE30E9426C2A2019101F7
:105880000E942BC62B013C012DEB37E346E855EB7C
:105890000E9451C887FD4FC62DEB37E346E855E31C
:1058A000C301B2010E94C1C118160CF444C686E5BA
:1058B0000E949534882351F08091461090914710B2
:1058C000892B21F00E94A1510E948B518AE50E94F0
:1058D0009534882319F0F6D70E94D7AA802F0E940A
:1058E000B93C011103C0E8E8F4E21CC08091431107
:1058F0008111F9CFEEE8F4E284918F010F5F1F4F21
:10590000882321F00E948C35F801F6CFEEE1F7E014
:1059100084918F010F5F1F4F882329F30E948C35DC
:10592000F801F6CF84918F010F5F1F4F882321F07C
:105930000E948C35F801F6CF80914311811103C08C
:1059400065E173E002C061E173E080E197E00E94ED
:10595000F5AE8AE00E948C35E8E8F4E284918F018C
:105960000F5F1F4F882321F00E948C35F801F6CF7E
:10597000E3E0F7E084918F010F5F1F4F882321F050
:105980000E948C35F801F6CFC0904411D09045119B
:10599000E0904611F090471120E030E0A901C701E6
:1059A000B6010E9451C818164CF442E0C701B60176
:1059B0000E945F388AE00E948C350CC0EEEFF6E062
:1059C00084918F010F5F1F4F882321F00E948C3537
:1059D000F801F6CF4CE050E06BE271E1CE010196A8
:1059E0000E9422C9892B09F492C10E9435658FC19A
:1059F00089E4E2D7882319F035D7162F01C01FEFAD
:105A00008AE4DAD7882319F02DD7062F01C00FEFCB
:105A10008AE58BD7F82E811104C081E586D7D82E70
:105A200001C0D12C17FD02C007FF03C0EEE8F4E26D
:105A300005C0F1101AC0D11018C0F8CF84918F01A1
:105A40000F5F1F4F882321F00E948C35F801F6CF9D
:105A5000ECE5F7E084918F010F5F1F4F882309F475
:105A600056C10E948C35F801F5CF153018F0EEE8DC
:105A7000F4E206C00530D8F716C00E948C35F80154
:105A800084918F010F5F1F4F8111F7CFEDE3F7E096
:105A900084918F010F5F1F4F882309F438C10E9442
:105AA0008C35F801F5CFE12E110FFF08002E000C08
:105AB000110B08D7DD2099F025E02E9DF0012F9DD8
:105AC000F00D1124E00FF11FEE0FFF1FEE0FFF1F6F
:105AD000E65BFF4E208131814281538103C020E08B
