:100000000C9472120C94A3120C94A3120C94A312CD
:100010000C94A3120C94A3120C94A3120C94A3128C
:100020000C94A3120C94A3120C94A3120C94A3127C
:100030000C94A3120C94A3120C94A3120C94A3126C
:100040000C94A3120C9436460C94A3120C94A31295
:100050000C94A3120C94A3120C94E5900C94588E5B
:100060000C94A3120C94BF390C94A3120C94A312F9
:100070000C94A3120C94A3120C94A3120C94A3122C
:100080000C94A3120C94A3120C94A3120C94A3121C
:100090000C94A3120C94A3120C94A3120C94A3120C
:1000A0000C94A3120C94A3120C94A3120C94A312FC
:1000B0000C94A3120C94A3120C94A3120C94A312EC
:1000C0000C94A3120C94A3120C94A3120C94A312DC
:1000D0000C94A3120C94A3120C94A3120C94A312CC
:1000E0000C94A312F539FC39103A1D3A273A413ADB
:1000F0002C3A413A313A363A413A3E3AB75BBA5B2A
:10010000A95BAD5BB35BF15BBE5BC25BC85BCC5B09
:10011000D05BD65BDA5BDE5BF15BE45BE85BEC5B00
:10012000D05CD55CDA5CE45CEE5C675DF85C005D3D
:10013000085D125D1C5D265D355D3F5D675D495D57
:10014000535D5D5D91919691C091C591A591B191DD
:100150007B91084AD73B3BCE016E84BCBFFDC12FCB
:100160003D6C74319ABD56833DDA3D00C77F11BEA8
:10017000D9E4BB4C3E916BAAAABE000000803F05AB
:10018000A84CCDB2D44EB93836A9020C50B99186DC
:1001900088083CA6AAAA2ABE000000803F004E4163
:1001A0004E494E495459494E46CDCCCC3D0AD723F1
:1001B0003C17B7D13877CC2B329595E6241FB14F39
:1001C0000A000020410000C84200401C4620BCBE7E
:1001D0004CCA1B0E5AAEC59D743C3C3C2067636FF5
:1001E00064655F4732380A00203A203E2028686F55
:1001F0006D655F616C6C207C7C20686F6D655A2931
:10020000203E2066696E616C0A0020206375727260
:10021000656E745F706F736974696F6E3D00203A2C
:10022000203E20686F6D65580A0020206375727249
:10023000656E745F706F736974696F6E3D00203A0C
:10024000203E20686F6D65590A0020206375727228
:10025000656E745F706F736974696F6E3D00526193
:10026000697365205A20286265666F726520686F21
:100270006D696E672920746F20003E20656E64737F
:10028000746F70732E656E61626C6528747275652B
:10029000290A003E3E3E2067636F64655F4732383F
:1002A0000A00205A3A200020593A20004265642072
:1002B000583A20004D65736820706F696E74206332
:1002C000616E6E6F74206265207265736F6C766507
:1002D000640A005072696E742074696D653A20007A
:1002E00020573A004361703A454D455247454E43C9
:1002F000595F5041525345523A310A004361703AB6
:10030000434153455F4C494748545F42524947482F
:10031000544E4553533A300A004361703A544F47A4
:10032000474C455F4C49474854533A300A004361B3
:10033000703A534F4654574152455F504F574552BC
:100340003A300A004361703A4C4556454C494E4795
:100350005F444154413A310A004361703A5A5F5058
:10036000524F42453A310A004361703A4155544F69
:100370004C4556454C3A310A004361703A50524957
:100380004E545F4A4F423A310A004361703A50522C
:100390004F47524553533A300A004361703A415532
:1003A000544F5245504F52545F54454D503A310AC4
:1003B000004361703A454550524F4D3A310A00466C
:1003C00049524D574152455F4E414D453A4D61723C
:1003D0006C696E20312E312E342E352028476974F9
:1003E0006875622920534F555243455F434F44453A
:1003F0005F55524C3A68747470733A2F2F67697462
:100400006875622E636F6D2F4D61726C696E4669FF
:10041000726D776172652F4D61726C696E205052FA
:100420004F544F434F4C5F56455253494F4E3A310C
:100430002E30204D414348494E455F545950453A6E
:100440003344205072696E74657220455854525579
:100450004445525F434F554E543A32205555494416
:100460003A63656465326132662D343161322D3410
:100470003734382D396231322D6335356336326683
:1004800033363766660A002F2F20007A5F6D696E5B
:100490003A2000795F6D696E3A2000785F6D696E71
:1004A0003A20005265706F7274696E6720656E64E1
:1004B00073746F70207374617475730A00486F747D
:1004C000656E64206F6666736574733A000001366A
:1004D000372603FF3C3D380EFF2E303E12FFFF0C47
:1004E0000809FFFFFF1A1C18FFFF24221EFFFF0848
:1004F000440AFF4307FF45FFFFFFFFFFFF20643A69
:100500000020693A0020703A0020643A0020693ADD
:100510000020703A0043290A0061626C656420285B
:100520006D696E2074656D702000436F6C6420658A
:10053000787472756465732061726520004B642065
:100540000023646566696E65202044454641554C2C
:10055000545F004B69200023646566696E65202046
:1005600044454641554C545F004B70200023646560
:1005700066696E65202044454641554C545F0050E5
:100580004944204175746F74756E652066696E69A3
:1005900073686564212050757420746865206C61EF
:1005A0007374204B702C204B6920616E64204B6467
:1005B00020636F6E7374616E74732066726F6D204A
:1005C00062656C6F7720696E746F20436F6E666929
:1005D0006775726174696F6E2E680A005049442015
:1005E0004175746F74756E65206661696C65642110
:1005F0002074696D656F75740A0050494420417517
:10060000746F74756E65206661696C656421205431
:10061000656D706572617475726520746F6F2068A6
:100620006967680A00204B643A2000204B693A2031
:1006300000204B703A20000A20436C617373696399
:1006400020504944200A002054753A2000204B7560
:100650003A2000206D61783A2000206D696E3A20C2
:100660000020643A200020626961733A20004F66DE
:10067000660A004661646520486569676874200001
:10068000426564204C6576656C696E672000466142
:10069000696C656420746F20656E61626C652042D0
:1006A0006564204C6576656C696E670A004D6573FC
:1006B0006820706F696E742063616E6E6F74206263
:1006C00065207265736F6C7665640A004D34323153
:1006D00020696E636F727265637420706172616D00
:1006E000657465722075736167650A00546F6F20C9
:1006F0006661722066726F6D207265666572656EE6
:10070000636520706F696E740A003A20007A5F6D2D
:10071000696E3A20202D3230207A5F6D61783A2060
:10072000203230005A204F666673657420004E6F89
:100730002063617365206C696768740A003C3C3C07
:100740002067636F64655F540A00203A2041465475
:1007500045520A00202063757272656E745F706F77
:10076000736974696F6E3D00203A204245464F52CE
:10077000450A00202063757272656E745F706F7336
:100780006974696F6E3D003E3E3E2067636F64652D
:100790005F542800556E6B6E6F776E20636F6D6DC2
:1007A000616E643A2022004B494C4C45442E200097
:1007B0002569730025696D20256973002569682006
:1007C00025696D20256973002569642025696820E5
:1007D00025696D20256973002569792025696420C4
:1007E0002569682025696D20256973002C20002C5F
:1007F0002000203A2073796E635F706C616E5F70C9
:100800006F736974696F6E0A002020637572726578
:100810006E745F706F736974696F6E3D00656E71A1
:1008200075657565696E672022004E6F204C696E94
:1008300065204E756D626572207769746820636803
:1008400065636B73756D2C204C617374204C696EFD
:10085000653A20005072696E7465722073746F700F
:100860007065642064756520746F206572726F72A4
:10087000732E2046697820746865206572726F72E5
:1008800020616E6420757365204D39393920746F8D
:1008900020726573746172742E202854656D7065C2
:1008A0007261747572652069732072657365742E48
:1008B00020536574206974206166746572207265C6
:1008C0007374617274696E67290A004E6F20436801
:1008D00065636B73756D2077697468206C696E65EC
:1008E000206E756D6265722C204C617374204C69AA
:1008F0006E653A2000636865636B73756D206D6982
:10090000736D617463682C204C617374204C696E44
:10091000653A20004C696E65204E756D62657220E7
:100920006973206E6F74204C617374204C696E651E
:10093000204E756D6265722B312C204C61737420D2
:100940004C696E653A20004D3131300020496E7699
:10095000616C69642065787472756465722000004A
:1009600000000000000000000040C00000664300DE
:10097000808943000052430A20736F66745F656E7E
:100980006473746F705F6D6178203D20000A20737E
:100990006F66745F656E6473746F705F6D696E20EF
:1009A0003D20000A20706F736974696F6E5F736811
:1009B000696674203D200020617869733A0A2068D6
:1009C0006F6D655F6F6666736574203D2000466FCE
:1009D0007220003C3C3C20646F5F626C6F636B690B
:1009E0006E675F6D6F76655F746F0A003E3E3E20F6
:1009F000646F5F626C6F636B696E675F6D6F766566
:100A00005F746F00203A2073657475705F666F7253
:100A10005F656E6473746F705F6F725F70726F6228
:100A2000655F6D6F76650A00202063757272656E72
:100A3000745F706F736974696F6E3D00203A206354
:100A40006C65616E5F75705F61667465725F656E1F
:100A50006473746F705F6F725F70726F62655F6DE9
:100A60006F76650A00202063757272656E745F7020
:100A70006F736974696F6E3D006465706C6F793A6D
:100A80002000203A207365745F70726F62655F6446
:100A900065706C6F7965640A0020206375727265F9
:100AA0006E745F706F736974696F6E3D0072657309
:100AB00065745F6265645F6C6576656C0A0020280A
:100AC000646F6E65290A004578747261706F6C619D
:100AD0007465205B0042696C696E656172204C65CB
:100AE00076656C696E6720477269643A0A005375CF
:100AF000626469766964656420776974682043413B
:100B0000544D554C4C20524F4D204C6576656C69C8
:100B10006E6720477269643A0A00202863616C633B
:100B2000756C6174656429210A0020213D2000450F
:100B30004550524F4D20435243206D69736D61748F
:100B40006368202D202873746F7265642920002942
:100B50000A002062797465733B2063726320002071
:100B600073746F7265642073657474696E67732043
:100B7000726574726965766564202800204D617223
:100B80006C696E3D563339290A0028454550524F4D
:100B90004D3D00454550524F4D2076657273696F4B
:100BA0006E206D69736D61746368200048617264C2
:100BB000636F6465642044656661756C7420536579
:100BC0007474696E6773204C6F616465640A00FA1F
:100BD000000000FA00000032000000DC0500000008
:100BE000007A4400007A440000A0400000C842009F
:100BF00000A0420000A0420000484400004C4320F6
:100C0000204D383531205A005A2D50726F626520C0
:100C10004F666673657420286D6D293A0A0020447A
:100C20000020490020204D33303420500020440063
:100C300020490020204D3330312050002044002036
:100C4000490020500020204D3330312045005049CC
:100C5000442073657474696E67733A0A00205A0001
:100C600020204D3432302053004175746F2042658E
:100C700064204C6576656C696E673A0A00205900FD
:100C800020580020204D323138205400486F7465C0
:100C90006E64206F6666736574733A0A00205A00AA
:100CA00020590020204D323036205800486F6D65A5
:100CB000206F66667365743A0A00204500205A006A
:100CC00020590020580020420020540020204D329E
:100CD0003035205300416476616E6365643A205379
:100CE0003C6D696E5F66656564726174653E205433
:100CF0003C6D696E5F74726176656C5F6665656494
:100D0000726174653E20423C6D696E5F7365676D0C
:100D1000656E745F74696D655F6D733E20583C6DE0
:100D200061785F78795F6A65726B3E205A3C6D61CD
:100D3000785F7A5F6A65726B3E20453C6D61785FD3
:100D4000655F6A65726B3E0A0020540020520020E5
:100D5000204D323034205000416363656C65726110
:100D600074696F6E2028756E6974732F7332293A17
:100D700020503C7072696E745F616363656C3E20E5
:100D8000523C726574726163745F616363656C3E4B
:100D900020543C74726176656C5F616363656C3E80
:100DA0000A00204500205A0020590020204D3230F2
:100DB000312058004D6178696D756D204163636520
:100DC0006C65726174696F6E2028756E6974732F1B
:100DD0007332293A0A00204500205A002059002089
:100DE000204D3230332058004D6178696D756D208B
:100DF0006665656472617465732028756E697473C5
:100E00002F73293A0A00204500205A00205900205B
:100E1000204D39322058005374657073207065720C
:100E200020756E69743A0A0020204D32303020441B
:100E3000300A0020204D3230302054312044002030
:100E4000204D3230302044002044697361626C656B
:100E5000640A0046696C616D656E74207365747414
:100E6000696E67733A002020473231202020203BF2
:100E700020556E69747320696E206D6D0A0024F42C
:100E8000D43050C38E20C2A24017828B7011127AC8
:100E9000910D816CD90AA861E108C75866076151B4
:100EA00043061E4B5D05C145A7041A411104093DC7
:100EB0009803713931034036DB0265339102D43037
:100EC0005402802E1D02632CEE01752AC501B02844
:100ED000A001102781018F2564012B244B01E02202
:100EE0003401AC211F018D200D01801FFC00841EE8
:100EF000ED00971DDF00B81CD200E61BC600201BCA
:100F0000BC00641AB200B219A8000A19A0006A183D
:100F10009900D117910040178B00B5168400311647
:100F20007E00B31579003A157300C7146F0058148A
:100F30006A00EE1366008813630025135E00C71273
:100F40005B006C12570015125400C1115100701152
:100F50004F0021114B00D61049008D10470046105C
:100F6000440002104200C00F4000800F3E00420FBC
:100F70003C00060F3B00CB0E3800930E37005C0E92
:100F80003500270E3400F30D3200C10D3100900DF5
:100F90003000600D2E00320D2D00050D2C00D90CF7
:100FA0002B00AE0C2900850C29005C0C2700350CA9
:100FB00027000E0C2600E80B2400C40B2400A00B15
:100FC00023007D0B23005A0B2100390B2100180B45
:100FD0002000F80A1F00D90A1E00BB0A1E009D0A45
:100FE0001D00800A1D00630A1C00470A1B002C0A12
:100FF0001B00110A1A00F7091A00DD091900C409BB
:101000001900AB091900920917007B091800630940
:1010100017004C09160036091600200916000A09A7
:101020001500F5081500E0081400CC081400B808F5
:101030001400A4081400900813007D0812006B0827
:101040001300580812004608120034081100230843
:1010500011001208110001081100F0071000E0074C
:101060001000D0071000C0071000B0070F00A10744
:10107000100091070E0083070F0074070F0065072B
:101080000E0057070E0049070E003B070D002E0704
:101090000E0020070D0013070D0006070D00F906CE
:1010A0000C00ED060D00E0060C00D4060C00C8068E
:1010B0000C00BC060C00B0060C00A4060B00990640
:1010C0000C008D060B0082060B0077060B006C06E9
:1010D0000B0061060A0057060B004C060A00420688
:1010E0000A0038060A002E060A0024060A001A061C
:1010F0000A001006090007060A00FD050900F405AC
:101100000900EB050900E2050900D9050900D00531
:101110000900C7050900BE050900B5050800AD05B1
:101120000800A50509009C050800940508008C0529
:101130000800840508007C050800740508006C059B
:101140000700650508005D050700560508004E0507
:10115000070047050700400508003805070031056E
:1011600007002A050700230507001C0506001605D1
:1011700007000F0507000805060002050700FB042D
:101180000600F5040700EE040600E8040600E20489
:101190000700DB040600D5040600CF040600C904DE
:1011A0000600C3040600BD040600B7040600B1042F
:1011B0000500AC040600A6040600A00405009B047C
:1011C000060095040500900406008A0405008504C5
:1011D0000500800406007A0405007504050070040B
:1011E00005006B04050066040500610405005C044D
:1011F000050057040500520405004D04050048048D
:101200000500430405003E0404003A0405003504CB
:101210000500300404002C04050027040400230406
:1012200005001E0404001A0404001604050011043D
:1012300004000D0404000904050004040400000473
:101240000400FC030400F8030400F4030400F003AA
:101250000400EC030400E8030400E4030400E003DA
:101260000400DC030400D8030400D4030400D0030A
:101270000400CC030400C8030300C503030024F4E6
:1012800004D9201BC40C5C0E9804C4095F026507D6
:101290007101F405F900FB04B30048048700C103A1
:1012A00069005803550003034500BE023A0084025A
:1012B000310053022A002902250004022000E40123
:1012C0001C00C8011900AF01170098011400840127
:1012D0001300710110006101100051010E00430163
:1012E0000D0036010B002B010B0020010B00150136
:1012F00009000C01090003010800FB000800F300CD
:101300000800EB000700E4000600DE000600D8003D
:101310000600D2000600CC000500C7000500C20090
:101320000500BD000400B9000400B5000400B100D0
:101330000400AD000400A9000400A5000300A20001
:1013400003009F0004009B00030098000300950029
:10135000020093000300900003008D0002008B0048
:101360000300880002008600020084000300810060
:1013700002007F0002007D0002007B000200790075
:101380000200770001007600020074000200720083
:101390000100710002006F0002006D0001006C008E
:1013A00002006A0001006900020067000100660097
:1013B000010065000100640002006200010061009C
:1013C0000100600001005F0002005D0001005C00A0
:1013D00001005B0001005A000100590001005800A3
:1013E00001005700010056000100550001005400A3
:1013F00001005300000053000100520001005100A1
:101400000100500001004F0001004E0000004E009E
:1014100001004D0001004C0001004B0000004B009A
:1014200001004A0001004900010048000000480096
:101430000100470001004600000046000100450091
:10144000000045000100440001004300000043008B
:101450000100420000004200010041000000410084
:101460000100400001003F0000003F0001003E007D
:1014700000003E0001003D0000003D0001003C0076
:1014800000003C0000003C0001003B0000003B006D
:1014900001003A0000003A00010039000000390064
:1014A000010038000000380000003800010037005B
:1014B0000000370001003600000036000000360052
:1014C0000100350000003500000035000100340047
:1014D000000034000000340001003300000033003D
:1014E0000000330001003200000032000000320032
:1014F0000100310000003100000031000100300027
:10150000000030000000300001002F0000002F001C
:1015100000002F0000002F0001002E0000002E0010
:1015200000002E0001002D0000002D0000002D0005
:1015300000002D0001002C0000002C0000002C00F9
:1015400000002C0001002B0000002B0000002B00ED
:1015500000002B0001002A0000002A0000002A00E1
:1015600000002A00010029000000290000002900D5
:1015700000002900000029000100280000002800C8
:1015800000002800000028000000280001002700BB
:1015900000002700000027000000270000002700AF
:1015A00001002600000026000000260000002600A2
:1015B0000000260001002500000025000000250095
:1015C0000000250000002500000025000100240087
:1015D000000024000000240000002400000024007B
:1015E000010023000000230000002300000023006E
:1015F000000023000000230000002300010022005F
:101600000000220000002200000022000000220052
:101610000000220001002100000021000000210044
:101620000000210000002100000021000000210036
:101630000100200000002000000020000000200029
:10164000000020000000200000002000000020001A
:1016500001001F0000001F0000001F0000001F000D
:1016600000001F0000001F0000001F0001001E00FE
:1016700000001E0000001E0000001E00000020747C
:101680006F6F206C6F6E6720657874727573696F09
:101690006E2070726576656E7465640A0020636FF3
:1016A0006C6420657874727573696F6E20707265F2
:1016B00076656E7465640A00627573793A207061AC
:1016C0007573656420666F7220696E7075740A00A8
:1016D000627573793A2070617573656420666F7204
:1016E00020757365720A00627573793A2070726FA3
:1016F00063657373696E670A004B494C4C45442E11
:1017000020004B494C4C20636175736564206279FD
:1017100020746F6F206D75636820696E61637469F2
:1017200076652074696D65202D2063757272656E13
:101730007420636F6D6D616E643A20005072696E43
:101740007465722068616C7465642E206B696C6CC2
:1017500028292063616C6C6564210A000000000088
:1017600000000000000000003C3C3C207365745FFA
:10177000617869735F69735F61745F686F6D652815
:1017800000203A200A00202063757272656E745F33
:10179000706F736974696F6E3D005D203D20003E7F
:1017A00020686F6D655F6F66667365745B003E20D1
:1017B0007A70726F62655F7A6F6666736574203DDA
:1017C00020002A2A2A205A20484F4D4544205749B4
:1017D00054482050524F424520285A5F4D494E5F91
:1017E00050524F42455F555345535F5A5F4D494EE6
:1017F0005F454E4453544F505F50494E29202A2A8A
:101800002A0A003E3E3E207365745F617869735F0B
:1018100069735F61745F686F6D6528000000204226
:101820000000204200002041000000005761726E5D
:10183000696E673A20486F6D696E672042756D70FA
:101840002044697669736F72203C20310A000202DD
:10185000040000664300808943000055433C3C3C43
:1018600020686F6D65617869732800203A203E20FA
:101870004146544552207365745F617869735F69AE
:10188000735F61745F686F6D650A00202063757215
:1018900072656E745F706F736974696F6E3D004836
:1018A0006F6D65203220536C6F773A0A004D6F766A
:1018B0006520417761793A0A00486F6D65203120D3
:1018C000466173743A0A00FFFFFF3E3E3E20686F98
:1018D0006D656178697328000000210024002700ED
:1018E0002A002D003000330001010000040107012F
:1018F0000A0100002200250028002B002E003100E4
:10190000340002010000050108010B010000200065
:101910002300260029002C002F00320000010000C7
:101920000301060109010505050507050808080862
:10193000020202020A0A0808040404040101010167
:101940000101010103030303030303030407070762
:101950000C0C0C0C0C0C0C0C020202020606060607
:10196000060606060B0B0B0B0B0B0B0B01021020D4
:1019700020080810204010204080020102010804C5
:101980000201010204081020408080402010080459
:1019900002018004020180402010080402010804B2
:1019A00002010102040810204080010204081020F6
:1019B000408000000A0B02090C0D0E080703040109
:1019C0000000000000000000000000000000000017
:1019D00000000000000000000000000000001211E4
:1019E00010000000000000000000000000000000E7
:1019F00000000000000000004B494C4C45442E20E4
:101A000000202D20496E76616C69642065787472BF
:101A100075646572206E756D62657220210A0045DD
:101A200072726F723A002020506C616E6E65724265
:101A3000756666657242797465733A200020467255
:101A40006565204D656D6F72793A2000436F6D704A
:101A5000696C65643A204E6F762031332032303124
:101A6000380A00207C20417574686F723A20286E15
:101A70006F6E652C2064656661756C7420636F6E93
:101A8000666967290A00323031372D30372D3034FE
:101A90002031323A303000204C617374205570642C
:101AA000617465643A2000312E312E342E350A00DF
:101AB0004D61726C696E0020536F66747761726558
:101AC0002052657365740A00205761746368646FFF
:101AD000672052657365740A002042726F776E202A
:101AE0006F75742052657365740A002045787465BB
:101AF000726E616C2052657365740A00506F776571
:101B00007255700A0073746172740A00205A3A00A8
:101B100020593A0020583A00656E6473746F7073F0
:101B2000206869743A20003C3C3C20646F5F686F19
:101B30006D696E675F6D6F766528002C20002C2024
:101B4000003E3E3E20646F5F686F6D696E675F6D3B
:101B50006F7665280047322F47332062616420701A
:101B60006172616D65746572730A0041424C204177
:101B7000646A7573746D656E74205A002028656EF2
:101B800061626C6564290A00202864697361626C73
:101B90006564290A0042494C494E4541520041754D
:101BA000746F20426564204C6576656C696E673A97
:101BB0002000204E6F7A7A6C65290A002026204189
:101BC000626F76650020262053616D65205A206182
:101BD000730020262042656C6F77002D4261636B95
:101BE000002028526967687400205A3A0020593A48
:101BF0000050726F6265204F666673657420583AB4
:101C0000004649585F4D4F554E5445445F50524F22
:101C100042450A0050726F62653A2000436F726558
:101C20000A004D616368696E6520547970653A20D9
:101C30000020706F736974696F6E206F7574206F08
:101C4000662072616E67652E0A003F50726F626592
:101C500020003C3C3C2067636F64655F4732390A73
:101C60000020636F72726563746564205A3A00479E
:101C7000323920756E636F72726563746564205AC1
:101C80003A00203A203E2070726F62696E672063CE
:101C90006F6D706C6574650A0020206375727265E3
:101CA0006E745F706F736974696F6E3D0052756E0C
:101CB0006E696E6720696E204452592D52554E2030
:101CC0006D6F64650A00473239204175746F204298
:101CD0006564204C6576656C696E670A0028422948
:101CE00061636B00284629726F6E7400285229695F
:101CF00067687400284C29656674003F285629657A
:101D000072626F7365206C6576656C2069732069FB
:101D10006D706C61757369626C652028302D342993
:101D20002E0A00426164205A2076616C75650A00B3
:101D30004E6F2062696C696E6561722067726964BA
:101D40000A00203A203E3E3E2067636F64655F478D
:101D500032390A00202063757272656E745F706F8D
:101D6000736974696F6E3D004C4556454C494E474A
:101D700000434F4D4D554E49434154494F4E004449
:101D8000525952554E004552524F525300494E46F9
:101D90004F004543484F00202F0020400020424084
:101DA0003A0020403A006F6B0020573A00921D8D98
:101DB0001D861D7F1D711D681D6F666600444542AE
:101DC00055473A004D313133205300205A3A002014
:101DD000423A0020436F756E7420413A0020453A24
:101DE00000205A3A0020593A00583A00536574745A
:101DF000696E672054726176656C20416363656C1F
:101E000065726174696F6E3A200053657474696E0F
:101E100067205265747261637420416363656C6509
:101E2000726174696F6E3A200053657474696E67ED
:101E3000205072696E7420416363656C65726174D1
:101E4000696F6E3A200053657474696E6720507232
:101E5000696E7420616E642054726176656C2041F5
:101E60006363656C65726174696F6E3A2000205A15
:101E700000205900580020204D61783A2000205A57
:101E800000205900580020204D696E3A20004F6E06
:101E900020004F666600536F667420656E6473742D
:101EA0006F70733A200020746F6F206C6F6E672024
:101EB000657874727573696F6E2070726576656E81
:101EC0007465640A0020636F6C64206578747275B1
:101ED00073696F6E2070726576656E7465640A0052
:101EE00050726F7465637465642050696E0A0053A4
:101EF00074616E6461726420446576696174696FAF
:101F00006E3A20002052616E67653A2000204D61D4
:101F1000783A2000204D696E3A20004D65616E3A96
:101F2000200046696E697368656421002072616EE5
:101F300067653A2000206D61783A2000206D696E57
:101F40003A2000207369676D613A2000206D656159
:101F50006E3A20003A207A3A2000206F6620002056
:101F60005A00205900205800476F696E6720746F2F
:101F70003A00436C6F636B776973650A00436F7552
:101F80006E7465722D0020446972656374696F6EAA
:101F90003A2000202020616E676C653A200053745F
:101FA000617274696E67207261646975733A2000AA
:101FB000506F736974696F6E696E6720746865200D
:101FC00070726F62652E2E2E0A003F4E756D62652F
:101FD00072206F66206C65677320696E206D6F7666
:101FE000656D656E74206E6F7420706C61757369B9
:101FF000626C652028302D3135292E0A0059005891
:10200000003F53616D706C652073697A65206E6F57
:102010007420706C61757369626C652028342D358D
:1020200030292E0A004D3438205A2D50726F6265C7
:10203000205265706561746162696C6974792054BD
:102040006573740A003F2856296572626F736520B4
:102050006C6576656C20697320696D706C61757351
:1020600069626C652028302D34292E0A006D0046E7
:10207000696C616D656E7420757365643A200053F8
:10208000746174733A20002C204C6F6E6765737412
:10209000206A6F623A2000546F74616C2074696D1D
:1020A000653A200053746174733A20002C20466115
:1020B000696C65643A20002C2046696E6973686516
:1020C000643A20005072696E74733A200053746150
:1020D00074733A20006265640A002C20737973746B
:1020E000656D2073746F707065642120486561743C
:1020F00065725F49443A200048656174696E6720E3
:102100006661696C65640048656174696E67206624
:1021100061696C65640048656174696E6720666119
:10212000696C65640048656174696E672066616901
:102130006C65640070012C0190012701B00122013F
:10214000C0011D01F00118011002130130020E013F
:102150006002090190020401C002FF000003FA00BE
:102160004003F5008003F000D003EB002004E600FC
:102170007004E100E004DC004005D700C005D20097
:102180004006CD00D006C8008007C3003008BE005E
:10219000F008B900C009B400B00AAF00B00BAA0043
:1021A000D00CA500000EA000500F9B00C0109600A0
:1021B0005012910000148C00C0158700B0178200E7
:1021C000B0197D00D01B7800001E730040206E0007
:1021D00090226900F024640040275F0090295A0093
:1021E000E02B5500102E500020304B0010324600DE
:1021F000E033410090353C00103737007038320032
:10220000A0392D00B03A2800A03B2300603C1E00FE
:10221000103D1900903D1400103E0F00703E0A0062
:10222000C03E0500003F0000403FFBFF803FF6FF3F
:10223000C03FF1FF544845524D414C2052554E414C
:1022400057415900546865726D616C2052756E611A
:10225000776179004572723A204D494E54454D5090
:1022600020424544004572723A204D494E54454D36
:1022700050004D494E54454D502074726967676552
:10228000726564004572723A204D415854454D5074
:1022900020424544004572723A204D415854454D04
:1022A00050004D415854454D502074726967676520
:1022B000726564000000A0400000A04000000040E3
:1022C0002044697363726570616E63793A00326E9F
:1022D000642050726F6265205A3A00203A203C3CDC
:1022E0003C2072756E5F7A5F70726F62650A0020C3
:1022F0002063757272656E745F706F736974696F55
:102300006E3D003173742050726F6265205A3A003E
:10231000203A203E3E3E2072756E5F7A5F70726F8B
:1023200062650A00202063757272656E745F706F5B
:10233000736974696F6E3D003C3C3C2070726F6243
:10234000655F70740A00205A3A200020593A200034
:1023500042656420583A2000203A200A0020206379
:10236000757272656E745F706F736974696F6E3DBC
:102370000073746F77290A002C20002C20003E3E49
:102380003E2070726F62655F70742800203A203CB6
:102390003C3C20646F5F70726F62655F6D6F766545
:1023A0000A00202063757272656E745F706F7369C6
:1023B00074696F6E3D00203A203E3E3E20646F5FA0
:1023C00070726F62655F6D6F76650A0020206375BD
:1023D0007272656E745F706F736974696F6E3D00C1
:1023E000646F5F70726F62655F7261697365280008
:1023F0002066697273740A005A0059005800486FC9
:102400006D6520006563686F3A00416374697665A5
:102410002045787472756465723A2000203A204D28
:102420006F7665206261636B0A00202064657374B7
:10243000696E6174696F6E3D00203A2053796E6356
:1024400020416674657220546F6F6C6368616E67BB
:10245000650A00202063757272656E745F706F7319
:102460006974696F6E3D00207D0A002C20004F6664
:102470006673657420546F6F6C2058592062792000
:102480007B20004E6F206D6F7665206F6E20746F1D
:102490006F6C6368616E67650A004572726F7220C7
:1024A00077726974696E6720746F20454550524F8A
:1024B0004D210A00290A002062797465733B20636C
:1024C0007263200053657474696E67732053746F70
:1024D000726564202800526573656E643A20006F4F
:1024E0006B0040AE11241FBECFEFD1E2DEBFCDBFE7
:1024F00000E00CBF14E0A0E0B2E0E8E7F5E701E09F
:102500000BBF02C007900D92A43FB107D9F722E19B
:10251000A4EFB4E001C01D92A33BB207E1F712E1C2
:10252000C2E7D2E100E006C021970109802FFE0139
:102530000E948CBAC137D10780E00807A9F70E9432
:102540009FAA0C94BABA0C9400002F923F924F921B
:102550005F926F927F928F929F92AF92BF92CF9233
:10256000DF92EF92FF920F931F93CF93DF93CDB73C
:10257000DEB7C955D1090FB6F894DEBF0FBECDBF87
:102580000091170D20E6029F80011124075E1A4F6B
:102590008091EE0E80FF1AC0E4E0F4E284917F01A6
:1025A0003FEFE31AF30A811102C0780104C00E94D0
:1025B0005F32F701F3CFD7018D917D01882319F0A8
:1025C0000E945F32F8CF8AE00E945F3281E090E0A3
:1025D00090937F0C80937E0C10929A06109299062D
:1025E0008FE38093A9061092A8061092A706109276
:1025F0000E0510920F051092100510921105F801AA
:1026000080810F5F1F4F8032D1F38E34B1F481810E
:1026100090ED980F9A3020F08D3211F08B3269F4E2
:102620003296DF0131962C9120532A30D0F3CD0120
:10263000FC01019620812032D9F3F093880CE093BD
:10264000870C7F01BFEFEB1AFB0A10816AE270E092
:10265000C7010E949ABA009731F0FC01319780813E
:102660008032E1F311821D3429F0143519F017344A
:1026700009F0CEC0F70180812FEFE21AF20A803212
:10268000C9F380538A3008F0C3C01093A906209183
:10269000A7063091A8064AE03196429FC001439FA9
:1026A000900D1124DF0111972C91022E000C330B99
:1026B00020533109280F391F808180538A3060F3FD
:1026C0003093A8062093A706DF0131968C918032C3
:1026D000D9F31D3451F00091870C609199067091E7
:1026E0009A0688248394912C55C02E31310591F09F
:1026F0003CF42731310571F02C31310561F70AC006
:102700002537310544F32737310524F0203A43E0DB
:10271000340709F7B0939A06A093990679C041321D
:1027200009F442C0EFEBE40FEA3108F05DC0DC01D0
:102730007D015D915032E1F3C701A0EDA50FAA30F4
:1027400008F046C0DC01EE2EF12C6701F3E0D594D1
:10275000C794FA95E1F7A601425F5A4F6A014E2FDE
:102760004770F40102C0EE0FFF1F4A95E2F7AF0178
:10277000F6015081452B40831097A1F1A01BA701C2
:102780004C505B4FFA01A083DC014C9141544A311B
:1027900080F5DC01CD0101964C914111C0CF7093C1
:1027A0009A066093990634C01D3409F0BBCF2032DD
:1027B000310509F0B7CF90939A068093990663E2AA
:1027C00070E00E949ABA009719F1DC011C9220C0B7
:1027D000A3EDA50FA23008F4B5CF5B3211F00C9435
:1027E0004529B0CFA0E0CBCF6115710569F6BD01D9
:1027F000CBCFAD011196FA01908190539A30C8F376
:10280000CA014F5F5F4FFC01A081A032C9F3C1CF65
:102810008091A9068D3409F407C5843511F40C9410
:10282000C928873411F00C9424292091A7063091EF
:10283000A8062C31310509F484C07CF4243031051C
:102840003CF422303105BCF537FF29C00C943E29F9
:1028500024303105C9F10C943E292A32310509F49E
:10286000F8C354F42D31310509F437C22E31310546
:1028700009F437C20C943E292B35310509F4B9C24D
:102880002C35310509F4BCC22A35310511F00C9400
:102890003E29109218051092290D0C943E29809122
:1028A0005402882311F40C943E290E94CE5E0E94AB
:1028B000485A0C943E2981E02230310509F080E02D
:1028C0000E94705F0C943E2980E50E948831882325
:1028D00029F00E94E6306B017C0103C0C12CD12C91
:1028E000760183E50E948831882361F00E942631B9
:1028F00020E030E04AE754E40E9498B30E94E6B832
:102900006B017C010E940B970E9454328091890CCC
:1029100090918A0CA0918B0CB0918C0CC80ED91E92
:10292000EA1EFB1E0E944C8EDC01CB018C199D0916
:10293000AE09BF09B7FD02C00C943E290E94425562
:10294000F1CF8091EE0E85FF0EC0E3E9F2E08491B5
:102950008F010F5F1F4F882321F00E945F32F80123
:10296000F6CF0E94E35D0E940B9780E00E94273023
:10297000A090580DAAA221E040E050E0BA0180E00A
:102980000E9457A10E9437398091EE0E85FF0CC03E
:10299000EAE7F2E084918F010F5F1F4F882321F057
:1029A0000E945F32F801F6CF11E010933F0288E5F4
:1029B0000E945931382E89E50E945931082F8AE545
:1029C0000E945931282E311004C0011104C018276B
:1029D00005C0011102C010E001C0182F0E94633031
:1029E000111105C0311003C0002309F43FC120E0DC
:1029F00030E040EA50E46091EA0E7091EB0E809175
:102A0000EC0E9091ED0E0E949DB76B017C016093DE
:102A1000490F70934A0F80934B0F90934C0F209166
:102A2000D60E3091D70E4091D80E5091D90E0E94FB
:102A3000C3B91816E4F48091EE0E85FF09C0B70102
:102A4000A6018EE592E00E949F4D8AE00E945F32CF
:102A500019821A821B821C829E012F5F3F4F49E41C
:102A60005FE062ED7EE08EEC9EE00E94783711110F
:102A700006C0332009F4D2C0002309F4E5C0109247
:102A8000D20E1092D30E1092D40E1092D50E109238
:102A9000CE0E1092CF0E1092D00E1092D10E0E9438
:102AA0006139E7ECF8E1B490BEA2E1E5F8E1C59048
:102AB000D590E590F490E5E5F8E185909590A590A6
:102AC000B490A5019401C701B6010E94C3B91816BC
:102AD0002CF4A7019601C501B40104C0A50194011D
:102AE000C701B6010E9479B86E8F7F8F88A399A322
:102AF0004CE1642E48E1742EF30165917591859146
:102B0000949150E2452E58E1552EF20125913591D0
:102B1000459154910E9433B387FF02C0F30101C075
:102B2000F20145905590659074902E8D3F8D48A18F
:102B300059A1CA01B9010E9498B320E030E040E8F1
:102B40005FE30E949DB70E9408BA9B01AC01C301DC
:102B5000B2010E9498B36A8F7B8F8C8F9D8FE8ECB7
:102B6000F8E124912E8F20E030E040EC5FE3C501D6
:102B7000B4010E9498B32B013C01AE8C6A2DAA0CC3
:102B8000770B880B990B0E9439B39B01AC01C301F1
:102B9000B2010E9498B369837A838B839C8320E07F
:102BA00030E040EC5FE3C701B6010E9498B36B01CF
:102BB0007C01BEA06B2DBB0C770B880B990B0E9480
:102BC00039B39B01AC01C701B6010E9498B36E8B6B
:102BD0007F8B888F998F9E01265E3F4F46ED5EE08A
:102BE000BE016F5F7F4FCE0146960E9478371092EC
:102BF000CD0E1092D20E1092D30E1092D40E1092CF
:102C0000D50E1092CE0E1092CF0E1092D00E1092C2
:102C1000D10E111105C0011103C014C0002331F100
:102C200081E090E00E940B538091EE0E85FF08C07A
:102C30004EEC5EE06EE372E08AE492E00E949B3824
:102C4000111102C0332091F080E090E00E940B53FC
:102C50008091EE0E85FF08C04EEC5EE06EE172E002
:102C60008AE292E00E949B38111102C0222081F07A
:102C700082E090E00E940B538091EE0E85FF08C029
:102C80004EEC5EE068EE71E08AE092E00E949B38D4
:102C90000E9461398091270780933F020E94133977
:102CA00021E040E050E0BA018AA10E94656C0E94D8
:102CB000286E8091EE0E85FD02C00C943E29E9ED50
:102CC000F1E084918F010F5F1F4F882311F40C9462
:102CD0003E290E945F32F801F4CF0E9448660C94AE
:102CE0003E29C090CE0ED090CF0EE090D00EF09046
:102CF000D10E88E50E948831811109C020E030E0C2
:102D000040E951E4C701B6010E949DB702C00E948C
:102D100026316E8B7F8B888F998FC090D20ED0908A
:102D2000D30EE090D40EF090D50E89E50E94883144
:102D3000811109C020E030E040E052E4C701B60153
:102D40000E949DB702C00E9426316B017C016983FD
:102D50007A838B839C834090E60E5090E70E6090C0
:102D6000E80E7090E90E2091E20E3091E30E409152
:102D7000E40E5091E50E6E897F89888D998D0E94B1
:102D80009CB74B015C0124EF3DEF4FE851E40E94FA
:102D9000C3B987FF02C00C943E2922E430E046E626
:102DA00053E4C501B4010E9433B3181614F40C9413
:102DB0003E29A3019201C701B6010E949CB76B0195
:102DC0007C0124EF3DEF4FEF51E40E94C3B987FF30
:102DD00002C00C943E2921E230E849E853E4C701DF
:102DE000B6010E9433B3181614F40C943E290C94C7
:102DF0004F2981E0809318058093290D0C943E297A
:102E000085E40E9488318E8F811102C00E940B9749
:102E10001092250D1092260D1092270D1092280D5C
:102E2000AE8CAA2009F448C01092A3061092A40602
:102E30001092A5061092A6061092300D1092310D38
:102E40001092320D1092330D10924C0D10924D0DC8
:102E500010924E0D10924F0D1092500D1092510D78
:102E60001092520D1092530D10923C0D10923D0D88
:102E700010923E0D10923F0D1092340D1092350DB0
:102E80001092360D1092370D1092540D1092550D70
:102E90001092560D1092570D1092400D1092410D48
:102EA0001092420D1092430D1092380D1092390D70
:102EB00010923A0D10923B0D23EE32E03BA32AA371
:102EC0002EEC222E2EE0322E31E5A32E3FE0B32E43
:102ED00000E010E01EA2AAA1BBA18D91BBA3AAA3F2
:102EE0000E948831882309F466C0D1012D913D915B
:102EF0004D915C912EA73FA748AB59AB0E9426315C
:102F00006B017C010330110599F58090580DB4E0F8
:102F10008B9E40011124F401E556F94FFBA7EAA767
:102F2000408051806280738020E030E0A901C301BD
:102F3000B2010E9433B38823D9F073016201F7FA1A
:102F4000F094F7F8F094F401E05BF24FC082D18284
:102F5000E282F382F401E45CF24FC082D182E28229
:102F6000F382AAA5BBA51D921D921D921C921397D8
:102F7000F101C082D182E282F38203301105D9F0DF
:102F80002EA53FA548A959A9C701B6010E949CB723
:102F90009B01AC01D5016D917D918D919C910E9419
:102FA0009DB7F5016083718382839383C8010E947A
:102FB000AA32F1E0FEA30F5F1F4F24E0220E311C66
:102FC00034E0A30EB11C0430110509F084CFAEA08B
:102FD000AA2019F00E94613938C0BE8CBB20A9F12B
:102FE000C090DA0ED090DB0EE090DC0EF090DD0E9B
:102FF00020917207309173074091740750917507C3
:10300000C701B6010E9498B30E94CEB96093120F17
:103010007093130F8093140F9093150FC701B6018F
:103020000E94E1B82FB7F8946093B20D7093B30D7E
:103030008093B40D9093B50D2FBF1092020F109294
:10304000030F1092040F1092050F0E94286E0C942B
:103050003E2980915402882311F40C943E2989E47E
:103060000E948831182F882321F00E94F630F62E16
:1030700001C0F12C8AE40E948831082F882331F0A6
:103080000E94F630E62E111104C00BC0E12C112372
:10309000C1F024E02F1510F00C94B82CE4EBF2E012
:1030A00004C034E03E15D0F30CC084918F010F5F53
:1030B0001F4F882311F40C943E290E945F32F801BF
:1030C000F4CF0E946330112341F120912307309106
:1030D00024074F2D4203B001439F700D11248091AE
:1030E0001F0790912007680F791F072E000C880B8F
:1030F000990B0E9439B32091E20E3091E30E40917A
:10310000E40E5091E50E0E949DB76093410F7093BD
:10311000420F8093430F9093440F002341F120917D
:103120002507309126075E2D5203B001539F700D85
:1031300011242091210730912207620F731F072E5F
:10314000000C880B990B0E9439B32091E60E309148
:10315000E70E4091E80E5091E90E0E949DB76093F2
:10316000450F7093460F8093470F9093480F80E56B
:103170000E9459318823A1F10E941731882381F1DF
:103180001123B1F020E030E040E951E46091410FBB
:103190007091420F8091430F9091440F0E949CB711
:1031A0006093410F7093420F8093430F9093440FAD
:1031B0000023B1F020E030E040E052E46091450FA0
:1031C0007091460F8091470F9091480F0E949CB7D5
:1031D0006093450F7093460F8093470F9093480F6D
:1031E00086E40E9488318823D9F00E9426316B0141
:1031F0007C0120E030E0A9010E94C3B9181684F4D4
:1032000020E030E040E752E4C701B6010E9479B8FF
:1032100060937502709376028093770290937802A0
:103220000E94485A0C943E298091A7069091A806C6
:103230008F36910509F467C50CF0E2C0853491051D
:1032400009F4F3C40CF084C08B33910509F448C32E
:103250000CF055C08231910509F48FC5D4F497FF65
:1032600002C00C943E29823091050CF4ACC1419708
:1032700011F00C943E295F988A989FB7F89480913A
:1032800008018E7F809308019FBF129847980C9485
:103290003E298A32910509F431C2B4F44F9711F0F6
:1032A0000C943E2988E19FE00E9418966E8B7F8BDC
:1032B000888F998FBE016F5F7F4FCE0146960E9427
:1032C0009431E4E0F4E204C28033910509F41AC2B7
:1032D000CA9711F00C943E2910929B0610929C06FE
:1032E00010929D0610929E0610929F061092A006C4
:1032F0001092A1061092A2060CE013E02FC38034B6
:10330000910509F4F5C37CF48D33910509F430C2BD
:103310000CF44CC28E33910509F411C2CF9709F415
:10332000F5C10C943E298234910509F482C30CF452
:10333000A8C38334910509F475C38434910511F051
:103340000C943E29109228070E94909D0C943E29CF
:103350008335910509F40CC55CF58C34910509F4AD
:103360009DC49CF48734910509F471C40CF46BC4BA
:103370008834910509F484C48B34910511F00C94C0
:103380003E290E94E1990C943E298E34910509F45E
:10339000A3C40CF49DC48135910509F4E5C48235BC
:1033A000910511F00C943E29109217050C943E29BA
:1033B0008936910509F4ABC49CF48535910509F46F
:1033C00013C50CF4DAC48C35910509F428C5883688
:1033D000910511F00C943E290E941A730C943E2919
:1033E0008B36910509F4BCC40CF4B6C48D36910536
:1033F00009F499C48E36910509F472C40C943E29DF
:103400008C3D910509F46DC70CF061C08B399105B5
:1034100009F485C44CF58637910509F421C68CF46E
:103420008237910509F484C58337910509F486C56F
:103430008137910511F00C943E290E947C6F0C9409
:103440003E298837910509F4A8C60CF440C689378F
:10345000910509F4A9C68C38910511F00C943E2908
:103460000E94636F0C943E298C3C910509F420C79F
:10347000F4F4883C910509F49DC634F48E3B910523
:1034800009F455C40C943E29893C910509F4F8C609
:103490008B3C910511F00C943E293CE7E32E3DE076
:1034A000F32E03EE12E044E0D42ED00EF2C68E3C92
:1034B000910509F403C70CF4FEC6833D910509F498
:1034C00000C78A3D910509F4FFC60C943E29823954
:1034D000A1E09A0711F40C943426DCF58F32E1E078
:1034E0009E0711F40C943023BCF4823E910509F43C
:1034F0001EC734F48D3D910509F400C70C943E2994
:103500008D3221E0920709F43CC78E32914011F4CC
:103510000C94DC220C943E29833641E0940711F48C
:103520000C94A02834F48033914009F4C8C70C945B
:103530003E298039B1E09B0711F40C943126813982
:10354000914011F00C943E2981E00E94BA380C940D
:103550003E29853FF1E09F0711F40C942528ECF4F7
:10356000853A31E0930711F40C94D7263CF4843A61
:10357000914011F40C9438260C943E298C3AA1E029
:103580009A0711F40C947027843F914011F00C9429
:103590003E290E94909D0C943E29873FE1E09E07C2
:1035A00011F40C942B2814F40C942828833523E070
:1035B000920711F40C943928873E934011F40C942F
:1035C000B9280C943E29E0909906F0909A0680E57F
:1035D0000E948831882359F00E94E6304B015C013B
:1035E00011E0672B682B692B31F410E004C010E068
:1035F000812C912C540183E50E948831882399F015
:103600000E94263120E030E04AE754E40E9498B35B
:103610000E94E6B84B015C0111110CC0672B682BAE
:10362000692B41F43CC0111105C0E114F10411F003
:103630000C94A32983E090E090937F0C80937E0C00
:1036400081E0809312050E940B970E9454328114EE
:103650009104A104B104A9F18091890C90918A0C84
:10366000A0918B0CB0918C0C75016401C80ED91E11
:10367000EA1EFB1E0E944C8EDC01CB018C199D09B9
:10368000AE09BF09B7FD04C0109212050C943E2983
:10369000809112058823C1F30E944255EBCFE114BB
:1036A000F10411F00C94A32983E090E090937F0C37
:1036B00080937E0C81E0809312050E940B970E94FC
:1036C0005432809112058823F9F20E944255F9CFB5
:1036D00084918F010F5F1F4F882321F00E945F327A
:1036E000F801F6CFBE016F5F7F4F83ED92E00E943D
:1036F000184E8AE00E945F320C943E290E94038B90
:103700000C943E290E949F850C943E298CE40E94D3
:10371000593181111092920C82E50E945931811128
:103720001092910C81E40E945931882311F40C9479
:103730003E291092910C1092920C0C943E298CE42C
:103740000E94593181111092330282E50E94593151
:1037500081111092320281E40E945931882311F4C0
:103760000C943E2910923302109232020C943E299E
:103770008CE40E945931882319F081E08093330250
:1037800082E50E945931882319F081E0809332024A
:1037900081E40E945931882311F40C943E2981E080
:1037A00080933302809332020C943E2920E030E073
:1037B000A90160915A0D70915B0D80915C0D909103
:1037C0005D0D0E9433B3882381F081E08093590D11
:1037D0000FE213E0D8018D918D01882319F00E942A
:1037E0005F32F8CF8AE00E945F321092A3061092F7
:1037F000A4061092A5061092A6061092300D109203
:10380000310D1092320D1092330D10924C0D10921A
:103810004D0D10924E0D10924F0D10922A0D1092D8
:103820002B0D10922C0D10922D0D1092500D109208
:10383000510D1092520D1092530D81E0809344026D
:103840001092440D1092450D1092460D1092470DA6
:103850001092340D1092350D1092360D1092370DD6
:1038600010929B0610929C0610929D0610929E0646
:1038700010923C0D10923D0D10923E0D10923F0D96
:103880001092540D1092550D1092560D1092570D26
:10389000809345021092480D1092490D10924A0DE6
:1038A00010924B0D1092380D1092390D10923A0D66
:1038B00010923B0D10929F061092A0061092A10646
:1038C0001092A2061092400D1092410D1092420DDE
:1038D0001092430D10922F0D10922E0D0C943E2934
:1038E0001092590D10929B0610929C0610929D0604
:1038F00010929E0610929F061092A0061092A106AA
:103900001092A2060EE313E0F80181918F01882343
:1039100001F10E945F32F8CF09E217E080E20E94D5
:103920005F32D8016D917D918D919D918D0142E025
:103930000E94D0358CE20E945F32F801648175816B
:103940008681978142E00E94D035F7E001331F075E
:1039500029F78AE00E945F320C943E29D8018D91AC
:103960008D01882319F00E945F32F8CF8AE00E940F
:103970005F329BE9892E96E0992E04E41DE0C12C6C
:10398000D12C7601AEEEAA2EA4E0BA2EF5018191DB
:103990005F01882319F00E945F32F8CFC701B6019A
:1039A0000E94F5338CE1A82E84E0B82ED5018D91CC
:1039B0005D01882319F00E945F32F8CFF801608121
:1039C00071818281938142E00E94D0358AE00E9419
:1039D0005F32F80180819181A281B381F4018193EA
:1039E0009193A193B1934F01D8011D921D921D9205
:1039F0001D928D01CA94CD28CE28CF2829F0C12C44
:103A0000D12C7601C394BECF10922F0D10922E0DA3
:103A100010922A0D10922B0D10922C0D10922D0D3C
:103A20000C943E2981E0809328070E94909D0C947D
:103A30003E298091280781110BC00EE413E0F801A4
:103A400081918F01882309F484CF0E945F32F7CFE0
:103A5000813019F00BE613E00BC004EA13E0D80143
:103A60008D918D01882309F474CF0E945F32F7CFC6
:103A7000F80181918F01882309F46BCF0E945F3296
:103A8000F7CF85E40E945931882361F00E942631E6
:103A90000E94E1B86093090270930A0280930B02BE
:103AA00090930C0281E40E945931882361F00E94B6
:103AB00026310E94E1B8609305027093060280935C
:103AC00007029093080282E50E945931882361F031
:103AD0000E9426310E94E1B86093010270930202B5
:103AE00080930302909304020E94909D0C943E29BF
:103AF00080912807882319F002EC13E03BC08091E5
:103B00003302811103C007EE13E02BC08091320213
:103B10008823C9F30BEF13E0D8018D918D01882321
:103B200019F00E945F32F8CF6091920C70E080E053
:103B300090E00E94F5330FEF13E0F80181918F01BF
:103B4000882319F00E945F32F8CF6091910C70E0E9
:103B500080E090E00E94F5338AE00E945F320C948E
:103B60003E29D8018D918D01882309F4F2CE0E945F
:103B70005F32F7CFF80181918F01882319F00E94FD
:103B80005F32F8CF8AE00E945F3204E014E0D8018F
:103B90008D918D01882319F00E945F32F8CF8AE061
:103BA0000E945F326091090270910A0280910B02BB
:103BB00090910C020E94F5338AE00E945F3201E18D
:103BC00014E0F80181918F01882319F00E945F327F
:103BD000F8CF8AE00E945F32609105027091060280
:103BE00080910702909108020E94F5338AE00E94BA
:103BF0005F320EE114E0D8018D918D01882319F018
:103C00000E945F32F8CF8AE00E945F326091010229
:103C10007091020280910302909104020E94F53398
:103C20008AE00E945F320C943E291092480C109258
:103C3000490C10924A0C10924B0C1092860C109268
:103C4000850C0C943E29109234020C943E2981E09C
:103C5000809334021092480C1092490C10924A0C36
:103C600010924B0C80E293E0A0E0B0E0809325023C
:103C700090932602A0932702B09328020C943E2929
:103C800080E293E0A0E0B0E08093250290932602CA
:103C9000A0932702B09328020C943E298091180F1C
:103CA0009091190F019711F00C943E2982E090E059
:103CB0009093190F8093180F0E944C8E6093220FDF
:103CC0007093230F8093240F9093250F0C943E291B
:103CD0000E947C970C943E290E9476840C943E2985
:103CE0008EE40E948831882311F40C943E290E94AE
:103CF000F6306093E10F7093E20F8093E30F90939F
:103D0000E40F0C943E290E94A66F0C943E290E9459
:103D1000FE7210927F0C10927E0C0C94E52C0E9487
:103D200048700C943E290E9464710C943E29809145
:103D3000EE0E83FF02C00C943E2983E50E94883179
:103D40008EA381110C94C22982E50E9488318111D1
:103D50000C94C2290C943E290E9427700C943E2991
:103D60000E9418700C943E290E943F6F0C943E29CB
:103D700081E0809317050C943E2983E50E948831E9
:103D80008823A1F00E94263120E030E04AE754E485
:103D90000E9498B30E94E6B860932E0270932F029F
:103DA00080933002909331020C943E2988E50E9462
:103DB000593181110C94F82A89E50E9459318111F9
:103DC0000C94F82A8AE50E94593181110C94F82A42
:103DD00085E40E94593181110C94F82A0E940B97B6
:103DE0000E9402550C943E2983E50E945931882394
:103DF00011F40C943E290E94263120E030E04AE77D
:103E000054E40E9498B30E94E6B860938D0C7093BE
:103E10008E0C80938F0C9093900C0C943E2963EE43
:103E2000C62E62E0D62E76E6E72E77E0F72E10E07B
:103E3000D6018D916D010E945931882309F46DC01E
:103E4000133009F063C00E9426314B015C0120E071
:103E500030E040EA51E40E9433B387FF4EC0A50131
:103E6000940160917207709173078091740790912B
:103E700075070E9479B82B013C019B01AC01609150
:103E80006C0D70916D0D80916E0D90916F0D0E9473
:103E900098B360936C0D70936D0D80936E0D90933D
:103EA0006F0DA30192016091880D7091890D809131
:103EB0008A0D90918B0D0E9498B36093880D70933A
:103EC000890D80938A0D90938B0D609152077091AC
:103ED000530780915407909155070E9437B3A3016F
:103EE00092010E9498B30E94E6B8609352077093C3
:103EF00053078093540790935507809272079092CE
:103F00007307A0927407B092750707C00E9426310C
:103F1000F70160837183828393831F5FF4E0EF0E68
:103F2000F11C143009F084CF0E94CA4F0C943E2932
:103F30000E940B970E94286E0C943E29EFEBF3E051
:103F400084918F010F5F1F4F882321F00E945F3201
:103F5000F801F6CFE1EBF3E084918F010F5F1F4F83
:103F6000882321F00E945F32F801F6CFEAE9F3E0FE
:103F700084918F010F5F1F4F882321F00E945F32D1
:103F8000F801F6CFEAE8F3E084918F010F5F1F4F4D
:103F9000882321F00E945F32F801F6CFE9E7F3E0D1
:103FA00084918F010F5F1F4F882321F00E945F32A1
:103FB000F801F6CFE8E6F3E084918F010F5F1F4F21
:103FC000882321F00E945F32F801F6CFE9E5F3E0A3
:103FD00084918F010F5F1F4F882321F00E945F3271
:103FE000F801F6CFE4E4F3E084918F010F5F1F4FF7
:103FF000882321F00E945F32F801F6CFEEE2F3E071
:1040000084918F010F5F1F4F882321F00E945F3240
:10401000F801F6CFE9E1F3E084918F010F5F1F4FC4
:10402000882321F00E945F32F801F6CFECEFF2E036
:1040300084918F010F5F1F4F882321F00E945F3210
:10404000F801F6CFE4EEF2E084918F010F5F1F4F8D
:10405000882311F40C943E290E945F32F801F4CFBA
:1040600085E40E945931882381F00E94173188230A
:1040700061F0E4E0F4E284918F010F5F1F4F882329
:1040800021F00E945F32F801F6CF81E40E9459319D
:10409000882381F00E941731882361F0E7E8F4E07B
:1040A00084918F010F5F1F4F882321F00E945F32A0
:1040B000F801F6CF0091990610919A06D8018D91DA
:1040C0008D01882309F445CC0E945F32F7CFE3EAE3
:1040D000F4E084918F010F5F1F4F882321F00E942D
:1040E0005F32F801F6CFEBE9F4E084918F010F5FC6
:1040F0001F4F882321F00E945F32F801F6CF6599A7
:1041000003C00DEE12E002C002EF12E0F80181914F
:104110008F01882319F00E945F32F8CF8AE00E9455
:104120005F32E3E9F4E084918F010F5F1F4F882332
:1041300021F00E945F32F801F6CF8091030181FDEA
:1041400003C00DEE12E002C002EF12E0D8018D9123
:104150008D01882319F00E945F32F8CF8AE00E9417
:104160005F32EBE8F4E084918F010F5F1F4F8823EB
:1041700021F00E945F32F801F6CF4B9B03C00DEE99
:1041800012E002C002EF12E0F80181918F01882352
:1041900009F4DFCB0E945F32F7CF81E080933F02CA
:1041A000809327070C943E2910923F021092270714
:1041B0000C943E2988EC90E00E94B93381110C9454
:1041C0003E2984E40E945931882309F456C00E9494
:1041D000263111E020E030E0A9010E9433B38111C3
:1041E00001C010E010934107112309F446C000916B
:1041F000130510E00E942631000F111F000F111F40
:10420000F801E35FFD4F608371838283938320E035
:1042100030E0A90160910D0270910E0280910F02B1
:10422000909110020E9433B381110CC080E090E0A5
:10423000A0E4B0E480930D0290930E02A0930F02CD
:10424000B093100220E030E0A9016091110270915A
:10425000120280911302909114020E9433B38111D3
:104260000CC080E090E0A0E4B0E480931102909351
:104270001202A0931302B09314020E94C759FEC702
:104280000E94036EFBC7F4E0EF0EF11CD01609F498
:10429000F5C7D8018D918D010E945931882399F37A
:1042A0000E942631F7016083718382839383EBCF71
:1042B0000E949A6DE3C70E94306DE0C70E94E76ECE
:1042C000DDC70E949A6CDAC78AED90E00E94B9338C
:1042D0008111D4C710911305112309F4CFC70C9491
:1042E0001E2B83E50E948831882309F4C7C70E94EA
:1042F000F63070932C0260932B02C0C78DED90E0D6
:104300000E94B9338111BAC783E50E94883188239E
:1043100009F4B4C70091130510E00E94F630000FB5
:10432000111FF801E85BFD4F71836083A7C780E52B
:104330000E945931882309F4A1C70E94F630F62E55
:10434000C62ED72E83E50E948831882321F00E9453
:10435000F6308B0102C00FEF1FEFC80101960397E3
:1043600008F08CC7D7FC8AC7EDECF4E080E38E0F31
:104370009491F91609F482C731968E13F9CF0C94F3
:10438000BE2C85E40E948831811110C080E50E9416
:104390005931882391F00E9426316093590270931D
:1043A0005A0280935B0290935C0207C00E94063120
:1043B000823060F3EFE1FAE171C089E40E94593183
:1043C000882381F00E9426312CEA35EC47E25EE337
:1043D0000E9498B3609355027093560280935702DF
:1043E0009093580284E40E945931882381F00E94FE
:1043F00026312CEA35EC47E25EE30E9479B86093FF
:104400005D0270935E0280935F0290936002E4E02D
:10441000F4E284918F010F5F1F4F882321F00E94E7
:104420005F32F801F6CF4091590250915A026091E3
:104430005B0270915C0285E095E00E949F4D2CEA42
:1044400035EC47E25EE3609155027091560280912F
:104450005702909158020E9479B8AB01BC0181E0EB
:1044600095E00E94824D2CEA35EC47E25EE36091D4
:104470005D0270915E0280915F02909160020E94E5
:1044800098B3AB01BC018DEF94E00E94824D8AE0AD
:104490000E945F32F3C60E945F32F80184918F015F
:1044A0000F5F1F4F8111F7CF04E314E0D8018D9106
:1044B0008D01882309F44DCA0E945F32F7CF80E551
:1044C0000E945931882351F00E942631609369027D
:1044D00070936A0280936B0290936C0289E40E944D
:1044E0005931882381F00E9426312CEA35EC47E2CD
:1044F0005EE30E9498B360936502709366028093B6
:1045000067029093680284E40E945931882381F005
:104510000E9426312CEA35EC47E25EE30E9479B82E
:1045200060936102709362028093630290936402CD
:10453000E4E0F4E284918F010F5F1F4F882321F0A4
:104540000E945F32F801F6CF4091690250916A02F1
:1045500060916B0270916C0281E195E00E949F4D29
:104560002CEA35EC47E25EE36091650270916602E9
:1045700080916702909168020E9479B8AB01BC01FA
:104580008DE095E00E94824D2CEA35EC47E25EE337
:104590006091610270916202809163029091640265
:1045A0000E9498B3AB01BC0189E095E00E94824D66
:1045B0008AE00E945F3262C683E50E945931182F5B
:1045C000882371F00E9426310E94E1B8709347025F
:1045D0006093460221E0672B09F020E020935F0DF5
:1045E00080E50E945931882359F02091460230918C
:1045F0004702232B11F00E94173180935F0D3EC6B6
:1046000011113CC6E4E0F4E284918F010F5F1F4F6B
:10461000882321F00E945F32F801F6CF80915F0D70
:10462000811103C06CEF72E002C06FEE72E08AE2AB
:1046300095E00E94184E609146027091470289E110
:1046400095E00E94E34DE5E1F5E084918F010F5F75
:104650001F4F882309F412C60E945F32F801F5CF7C
:1046600085E40E948831882321F00E94F6301B01E6
:1046700002C0212C312C83E40E948831882339F038
:104680000E94F63064967FAF6EAF649706C0E5E097
:10469000F0E06496FFAFEEAF649785E50E94593174
:1046A00029968FAF2997882329F00E9417312996E0
:1046B0008FAF299737FC07C0C12CD12C16E1E12E12
:1046C00013E4F12E06C0C12CD12CBCE8EB2EB2E4D1
:1046D000FB2E83E50E948831882321F00E94263139
:1046E0006B017C01F2E02F16310410F420921305C7
:1046F00010927F0C10927E0C0E944C8E2B013C017C
:10470000C1010196039718F405E414E00EC008E512
:1047100014E0D8018D918D01882319F00E945F3239
:10472000F8CF8AE00E945F32A9C5F80181918F011C
:10473000882319F00E945F32F8CF8AE00E945F322E
:104740000E943B908FE7FFEF2F163F0619F48093EE
:10475000CA0D04C0F101E553F24F8083C701B601D1
:104760000E94E1B8072E000C880B990B0E9439B308
:104770006AAF7BAF8CAF9DAF81E0809300022E9635
:104780004CAE5DAE6EAE7FAE2E9768964CAE5DAE13
:104790006EAE7FAE68971EAE20E42FAF3CE121964F
:1047A0003FAF219746E422964FAF229723961FAE44
:1047B000239724961FAE249725961FAE25972696FD
:1047C0001FAE26971EAA1FAA18AE19AE1AAA1BAAB8
:1047D0001CAA1DAAC12CD12C7601FFE78F2E912C8B
:1047E000A12CB12C8FE790E0A0E0B0E08AA79BA7B6
:1047F000ACA7BDA762961CAE1DAE1EAE1FAE6297E3
:1048000091E02A969FAF2A971FA61EA61E8E1AA277
:1048100000E010E0D101A553B24F6A96BFAFAEAF32
:104820006A97C101880F991F880F991FFC01EA54EC
:10483000F24F2896FFAFEEAF2897809100028823B1
:1048400009F408C20E944C8E6EA37FA388A799A783
:104850008091C90D882309F4DEC00E946E94FFEF99
:104860002F163F0659F42091BE0D2E8F3091BF0DAB
:104870003AA30091C00D1091C10D15C02896AEADA0
:10488000BFAD2897BC91BE8F2896EEADFFAD28979F
:10489000F181FAA32896AEADBFAD289712960C9180
:1048A000129713961C912E8D3AA1A80123966FADF5
:1048B000239724967FAD249725968FAD259726962E
:1048C0009FAD26970E9433B387FF0EC0BE8D2396FF
:1048D000BFAF2397EAA12496EFAF249725960FAF99
:1048E000259726961FAF26972E8D3AA1A8016EAD6B
:1048F0007FAD21968FAD219722969FAD22970E9482
:10490000C3B9181654F4FE8DFEAF2AA12FAF21961D
:104910000FAF219722961FAF22972A963FAD2A9775
:104920002AAD332309F457C03BAD4CAD5DAD6E8D60
:104930007AA1C8010E94C3B918160CF06CC04EA130
:104940005FA168A579A54419550966097709DB01B6
:10495000CA0188589341A109B109B7FD5CC08AA575
:104960009BA5ACA5BDA588199909AA09BB09B59550
:10497000A79597958795EFEF2E163E0619F480932D
:10498000CA0D05C06A96EEADFFAD6A978083629648
:104990004CAF5DAF6EAF7FAF6297FAAD2396FFAFBE
:1049A00023972BAD24962FAF24973CAD25963FAF90
:1049B00025974DAD26964FAF26978EA19FA1A8A50E
:1049C000B9A52E968CAF9DAFAEAFBFAF2E972A96EE
:1049D0001FAE2A9720C03BAD4CAD5DAD6E8D7AA168
:1049E000C8010E9433B387FF16C08EA19FA1A8A55E
:1049F000B9A52E962CAD3DAD4EAD5FAD2E97821B69
:104A0000930BA40BB50BAC01BD0148585341610990
:104A1000710977FF4DC620E030E040EA51E46AAD0D
:104A20007BAD8CAD9DAD0E949DB79B01AC016E8DA1
:104A30007AA1C8010E94C3B918166CF4EAEFF5E038
:104A400084918F010F5F1F4F882309F417C40E94C0
:104A50005F32F801F5CF80E398EFAFEFBFEF6896D4
:104A60002CAD3DAD4EAD5FAD6897821B930BA40B93
:104A7000B50B2EA13FA148A559A5820F931FA41FD6
:104A8000B51FB7FD0FC00E9476708AE00E945F32AA
:104A90008EA19FA1A8A5B9A568968CAF9DAFAEAF1A
:104AA000BFAF68978EA19FA1A8A5B9A5880F991F30
:104AB000AA1FBB1F2E962CAD3DAD4EAD5FAD2E9700
:104AC000821B930BA40BB50B84199509A609B70992
:104AD00081389F44A241B10568F0ECEDF5E0849186
:104AE0008F010F5F1F4F882309F4C8C30E945F32F4
:104AF000F801F5CF4EA55FA564968EAD9FAD649786
:104B0000841795070CF099CEEFE7F5E084918F01BB
:104B10000F5F1F4F882321F00E945F32F801F6CF0C
:104B20009FEF2916390619F00EEF13E002C000E0DE
:104B300013E0B8018DE695E00E94184EB701A6017A
:104B400089E695E00E949F4D8AE00E945F32B8019D
:104B500087E595E00E94184E4AA95BA96CA97DA93A
:104B600083E595E00E949F4D8AE00E945F32B80184
:104B700081E495E00E94184E4EA95FA968AD79AD19
:104B80008DE395E00E949F4D8AE00E945F32299656
:104B9000AFAC2997AA2009F471C32320209469F5AA
:104BA000C0926902D0926A02E0926B02F0926C02AB
:104BB0002CEA35EC47E25EE36AA97BA98CA99DA9A2
:104BC0000E9498B3609365027093660280936702B7
:104BD000909368022CEA35EC47E25EE36EA97FA968
:104BE00088AD99AD0E9479B86093610270936202BA
:104BF000809363029093640241C3C0925902D092A1
:104C00005A02E0925B02F0925C022CEA35EC47E239
:104C10005EE36AA97BA98CA99DA90E9498B36093C1
:104C200055027093560280935702909358022CEAD3
:104C300035EC47E25EE36EA97FA988AD99AD0E948D
:104C400079B860935D0270935E0280935F029093E7
:104C5000600214C380910002811110C30E943B9036
:104C60000DC30E940B970AC380E00E94BA3806C3A6
:104C700086E50E945931882351F080912307909155
:104C80002407892B21F00E94F1360E94DD3683E54E
:104C90000E945931182F882319F00E941731182FBC
:104CA00083E50E945931882319F0812F0E94273013
:104CB0008AE50E945931882321F00E9426310E9402
:104CC000DF2FF0905E0D111103C0E4E0F4E218C094
:104CD000F110FBCF0FE11AE1F8018491882329F04C
:104CE0000F5F1F4F0E945F32F7CF0EE816E0F8010A
:104CF0008491882351F30F5F1F4F0E945F32F7CFDB
:104D000084918F010F5F1F4F882321F00E945F3233
:104D1000F801F6CFF11003C068E073E002C064E070
:104D200073E080E896E00E94184E8AE00E945F32AD
:104D3000E4E0F4E284918F010F5F1F4F882321F09C
:104D40000E945F32F801F6CFE3E7F6E084918F012D
:104D50000F5F1F4F882321F00E945F32F801F6CFCA
:104D6000C0905A0DD0905B0DE0905C0DF0905D0D01
:104D700020E030E0A901C701B6010E94C3B91816AE
:104D80006CF0EEE6F6E084918F010F5F1F4F8823F1
:104D900009F474C20E945F32F801F5CF42E0C70106
:104DA000B6010E94D0358AE00E945F3267C289E472
:104DB0000E948831882321F00E94F630162F01C00E
:104DC0001FEF8AE40E948831882321F00E94F63088
:104DD000062F01C00FEF8AE50E945931F82E81118C
:104DE00005C081E50E945931D82E01C0D12C17FD94
:104DF00002C007FF03C0EFE1FAE105C0F1101AC0DD
:104E0000D11018C0F8CF84918F010F5F1F4F8823F6
:104E100021F00E945F32F801F6CFECECF6E08491CD
:104E20008F010F5F1F4F882309F428C20E945F3251
:104E3000F801F5CF153018F0EFE1FAE106C00530C2
:104E4000D8F716C00E945F32F80184918F010F5F7E
:104E50001F4F8111F7CFEDEAF6E084918F010F5FCC
:104E60001F4F882309F40AC20E945F32F801F5CF70
:104E7000E12E110FFF08002E000C110B0E942631AD
:104E8000DD2099F025E02E9DF0012F9DF00D1124DD
:104E9000E00FF11FEE0FFF1FEE0FFF1FE759F14F5D
:104EA000208131814281538103C020E030E0A9019B
:104EB000A5E0AE9DF001AF9DF00D11240E0F1F1F58
:104EC000000F111F000F111F0759114F0E949DB7AE
:104ED000D8016D937D938D939C93139720D7CEC16A
:104EE0008BEEC82E8CE0D82E9EECE92E9EE0F92E9B
:104EF0002FEE222E2EE0322E00E010E0F101EF5EC8
:104F0000FE40FF8FEE8FD1018D911D01882309F4A2
:104F10008BC0F7014080518062807380F801E358B4
:104F2000FD4F2081318142815381F801E757FD4FC8
:104F300060817181828193810E949DB720E030E081
:104F400040E05FE30E9498B39B01AC01C301B20152
:104F50000E94C3B9181644F4F801E45AF84E85903B
:104F60009590A590B49003C0812C912C5401F80128
:104F7000EE51F14F2081318142815381C301B20151
:104F80000E949CB79B01AC01C501B4010E949CB773
:104F90004B015C0120E030E040EA51EC0E94C3B9D3
:104FA00087FD29C020E030E040EA51E4C501B401AA
:104FB0000E9433B31816FCF0D6012D913D914D910E
:104FC0005C91C501B4010E949CB79B01AC01C30177
:104FD000B2010E949DB7F70160837183828393833E
:104FE000D6018D929D92AD92BC9213978E8D9F8D1E
:104FF0000E94AA3219C0EFE1FAE184918F010F5F9C
:105000001F4F882321F00E945F32F801F6CFECEEAB
:10501000F6E084918F010F5F1F4F882309F42EC1A2
:105020000E945F32F801F5CFB4E0CB0ED11C0C5FCB
:105030001F4FE4E0EE0EF11C0C30110509F05ECFBD
:105040000E9461390E94286E19C10E94984016C1C1
:105050000E94FE3E13C183E50E945931882319F056
:105060000E94173101C081E091E089270E94903AA7
:1050700005C1E4E0F4E284918F010F5F1F4F8823A4
:1050800021F00E945F32F801F6CFE4E2F7E084916C
:105090008F010F5F1F4F882321F00E945F32F801BC
:1050A000F6CF8AE50E945931882309F43BC00E945B
:1050B00026316B017C0120E030E040EA51EC0E9497
:1050C000C3B987FD21C020E030E040EA51E4C701C8
:1050D000B6010E9433B31816BCF0C092DE0ED09217
:1050E000DF0EE092E00EF092E10E0E943D9A609198
:1050F000DE0E7091DF0E8091E00E9091E10E42E0A5
:105100000E94D0350C94A91CEDE0F7E084918F014A
:105110000F5F1F4F882311F40C94A91C0E945F326B
:10512000F801F4CF4091DE0E5091DF0E6091E00E59
:105130007091E10E8AE097E00E949F4D0C94A91CAB
:10514000EFE1FAE184918F010F5F1F4F882321F077
:105150000E945F32F801F6CFEEE2F7E084918F0112
:105160000F5F1F4F882309F489C00E945F32F80146
:10517000F5CF81E08093540283E50E94593181117B
:1051800003C00E94A2A87AC00E941731811176C084
:10519000F8CFE090A706F090A8061E2D8091EE0EA5
:1051A00085FF14C0B701772787E897E00E94E34D99
:1051B00089E20E945F328AE00E945F324EEC5EE03C
:1051C00068E677E083E797E00E949B388091580D6E
:1051D000181751F083E50E945931182F882329F0C0
:1051E0000E941731182F01C011E086E40E94883117
:1051F000882319F00E94263103C060E070E0CB01E3
:1052000020E030E040E752E40E9479B8AB01BC01F5
:10521000212F8E2D0E94656C8091EE0E85FF2EC091
:105220004EEC5EE06AE477E084E597E00E949B380C
:10523000EDE3F7E084918F010F5F1F4F8823F1F0BA
:105240000E945F32F801F6CFE4E0F4E284918F012E
:105250000F5F1F4F882321F00E945F32F801F6CFC5
:105260006091870C7091880C84E997E00E94184E39
:1052700082E20E945F328AE00E945F3210927F0CCD
:1052800010927E0C0E9483A8A0C36115710519F4C9
:10529000BC0161507109A0E0B0E00C94A31380E060
:1052A000D6D60E94373983E50E945931882309F404
:1052B00048C0BDD721E0482FBE016F5F7F4FCE01B0
:1052C00046960E94AD9A6B017C019B01AC010E9445
:1052D00049BA811131C02CEA35EC47E257E36E89B7
:1052E0007F89888D998D0E949DB7AB01BC018CEAA6
:1052F00092E00E94824D2CEA35EC47E257E3698147
:105300007A818B819C810E949DB7AB01BC0187EAA9
:1053100092E00E94824D2CEA35EC47E257E3C70148
:10532000B6010E949DB7AB01BC0182EA92E00E94E7
:10533000824D8AE00E945F320E9413390E94286EDB
:105340009DCF81E0B7CFD7018C91882311F40C94C5
:105350001A1BE4E0F4E284918F010F5F1F4F882352
:1053600021F00E945F32F801F6CFF70181917F01B1
:10537000882319F00E945F32F8CF8AE00E945F32E2
:105380000C941A1B63D70E94E1B86739710514F0B9
:1053900066E970E07093C40D6093C30D0E949A8F0C
:1053A00055D720E030E040EA50E40E94C3B9181617
:1053B00014F40E94E19981E08093000210927F0C26
:1053C00010927E0C8091580D809313051AA21BA297
:1053D0001CA21DA21AA61BA61CA61DA61E8E1EA6DA
:1053E000BCE3BAABECE1EEABF6E4FAAFC12CD12CE6
:1053F000E0E8EE2EFFEBFF2E812C912C5401609102
:10540000C30D7091C40D072E000C880B990B0E94E0
:1054100039B3162F072F782E692E262F372F482FB6
:10542000592FB601C7010E9433B38823D1F02091D0
:10543000BE0D3091BF0D4091C00D5091C10D612F37
:10544000702F872D962D0E9433B3881F8827881FC1
:105450008E8F2EA1222349F0882339F080910002FB
:105460000DCF1C2D0D2D7E2C6F2C0E944C8E6B01B0
:105470007C01DC01CB012AA53BA54CA55DA5821BC7
:10548000930BA40BB50BB7FD39C0D701C6018851EA
:105490009C4FAF4FBF4F8AA79BA7ACA7BDA70E9449
:1054A0007670E0EEF2E084912F019FEF491A590ADD
:1054B000882321F00E945F32F201F5CF811491041C
:1054C000A104B104B9F0D501C4018854944FAF4F81
:1054D000BF4FBC01CD016C197D098E099F0928EED3
:1054E00033E040E050E00E943FB7CA01B9010E949A
:1054F000F53302C08FE3E3D78AE0E1D70E9442553B
:10550000D3D72090BE0D3090BF0D4090C00D50906D
:10551000C10D9101A201612F702F872D962D0E9440
:105520009CB79F7781149104A104B10449F420E051
:1055300030E040E85FE30E9433B387FF0BC008C050
:1055400020E030E040E450E40E94C3B9181614F49F
:1055500046015701AE8DAA2379F12AA13BA14CA1A6
:105560005DA1211531054105510541F0D701C60165
:10557000821B930BA40BB50BB7FD1EC09101A201BA
:105580006EA57AA98EA99AAD0E949CB720E030E062
:1055900040EC5FE30E9433B387FD60CFD701C601C3
:1055A000805A9541AF4FBF4F8AA39BA3ACA3BDA325
:1055B0002EA63AAA4EAA5AAE80910002882309F478
:1055C0004DCF81149104A104B10429F4C12ED02E31
:1055D000E72CF62C14CF98EBC91A9BE0D90AE10806
:1055E000F108C818D908EA08FB08F7FE37CFEECF54
:1055F0000E940B9788E55DD6882319F05F9A109278
:10560000E70C89E556D6882319F08A9A1092E80C9F
:105610008AE54FD6882351F09FB7F894809108010E
:105620008160809308019FBF1092E90C85E441D608
:10563000882309F423CE0E94FF5420CE88E568D643
:10564000882359F003D624E0129FF0011124E75D6E
:10565000F84F608371838283938389E559D68823C9
:1056600079F00091130510E0F1D5000F111F000F24
:10567000111FF801EF5CF84F60837183828393837D
:10568000E4E0F4E284918F010F5F1F4F882319F04B
:1056900016D7F801F7CFEDEBF4E084918F010F5F9F
:1056A0001F4F882311F40C948C1C09D7F801F5CFF7
:1056B0004EA55FA5141615060CF027C162964CACDA
:1056C0005DAC6EAC7FAC6297480E591E6A1E7B1EA5
:1056D00062962CAD3DAD4EAD5FAD6297281B390B88
:1056E0004A0B5B0BCA01B901A50194010E9430B7B6
:1056F000A30192010E9461B78AA49BA4ACA4BDA49B
:10570000820E931EA41EB51E34E183169104A104DB
:10571000B1040CF14CEE84169104A104B1043CF4E4
:1057200050E885169104A104B1041CF105C05BEE9C
:10573000852E912CA12CB12C8AA69BA6ACA6BDA629
:105740008EEF90E0A0E0B0E088199909AA09BB09A2
:105750004C015D0112C024E130E040E050E02AA796
:105760003BA74CA75DA744E1842E912CA12CB12C22
:1057700004C08AA69BA6ACA6BDA64AA55BA56CA53F
:105780007DA586E696E00E94BC4DB501A40181E6A8
:1057900096E00E94BC4D4EAD5FAD21966FAD219756
:1057A00022967FAD22978AE596E00E949F4D239630
:1057B0004FAD239724965FAD249725966FAD25971F
:1057C00026967FAD269783E596E00E949F4D4EA5D5
:1057D0005FA5433051050CF498C0C501B4010E9487
:1057E00039B320E030E040E850E40E9498B36B0108
:1057F0007C012EAD3FAD21964FAD219722965FAD36
:10580000229723966FAD239724967FAD24972596F4
:105810008FAD259726969FAD26970E949CB72BEDBE
:105820003FE049E450E40E9498B320E030E040E0DB
:105830005FE30E9498B39B01AC01C701B6010E94CF
:1058400079B86B017C01C301B2010E9439B32FE624
:1058500032E143E85AE30E9498B32B013C01B701BF
:10586000A6018DE496E00E949F4DB301A20187E45A
:1058700096E00E949F4D2AE939E949E15FE3C701BB
:10588000B6010E9498B36B017C019B01AC010E94A0
:105890009DB7A30192010E9479B86AAB7BAB8CAB38
:1058A0009DABA3019201C701B6010E9498B320E00D
:1058B00030E040E05EE30E9498B36EAB7FAB88AF10
:1058C00099AFE7E3F6E084913F015FEF651A750A4F
:1058D000882319F0F4D5F301F6CFB701A60181E3CF
:1058E00096E00E949F4D4AA95BA96CA97DA98BE215
:1058F00096E00E949F4D4EA95FA968AD79AD85E203
:1059000096E00E949F4D8AE0DAD58AA59BA5ACA5BA
:10591000BDA5880D991DAA1DBB1DB595A795979589
:105920008795EFEF2E163E0619F48093CA0D05C039
:105930006A96EEADFFAD6A9780832EA53FA52F5FD7
:105940003F4F3FA72EA73AAD3EAF4BAD4FAF5CAD3B
:1059500021965FAF21978DAD22968FAF22974EA0F3
:105960005FA068A479A491E02A969FAF2A9753C8B4
:1059700001110C945118A7D30C9465180E940B9731
:1059800060E08F2D0E946D5C0F3FFFEF1F0759F401
:105990008F2D0E94165C31E020E0892B09F030E069
:1059A000032F122F05C00130110561F000E010E057
:1059B0008F2D0E94165C8017910709F45FCC0E941E
:1059C0004255F6CF01E010E0F3CFC75ADF4F0FB6D4
:1059D000F894DEBF0FBECDBFDF91CF911F910F9125
:1059E000FF90EF90DF90CF90BF90AF909F908F90FF
:1059F0007F906F905F904F903F902F9008958F927F
:105A00009F92AF92BF92CF92DF92EF92FF920F934D
:105A10001F93CF93DF93D82FC62F882329F086308A
:105A2000B9F513E084E002C011E080E09FEF9C0F25
:105A3000953028F5D0E0219705E0FE01089FE00DA4
:105A4000F11D1124EE0FFF1FEE0FFF1FE759F14F5D
:105A500060817181828193819B01AC010E949DB71D
:105A6000019FC00DD11D1124CC0FDD1FCC0FDD1FF8
:105A7000C759D14F288139814A815B813EC06C2F43
:105A80008F5FBDDF6B017C016C2F81E0810F40C017
:105A9000662331F0663009F047C013E064E002C0CD
:105AA00011E060E08FEF8D0F853050F58D2F90E085
:105AB000019725E0289FE001299FD00D1124FE01C8
:105AC000E60FF11DEE0FFF1FEE0FFF1FE759F14F1D
:105AD00060817181828193819B01AC010E949DB79D
