:100000000C9474120C94A5120C94A5120C94A512C5
:100010000C94A5120C94A5120C94A5120C94A51284
:100020000C94A5120C94A5120C94A5120C94A51274
:100030000C94A5120C94A5120C94A5120C94A51264
:100040000C94A5120C943E810C94A5120C94A5124C
:100050000C94A5120C94A5120C949F5F0C94405C18
:100060000C94A5120C94E4380C94A5120C94A512CF
:100070000C94A5120C94A5120C94A5120C94A51224
:100080000C94A5120C94A5120C94A5120C94A51214
:100090000C94A5120C94A5120C94A5120C94A51204
:1000A0000C94A5120C94A5120C94A5120C94A512F4
:1000B0000C94A5120C94A5120C94A5120C94A512E4
:1000C0000C94A5120C94A5120C94A5120C94A512D4
:1000D0000C94A5120C94A5120C94A5120C94A512C4
:1000E0000C94A5121A392139353942394C396639FF
:1000F0005139663956395B39663963398F5A925AA4
:10010000815A855A8B5AC95A965A9A5AA05AA45A51
:10011000A85AAE5AB25AB65AC95ABC5AC05AC45A48
:100120005C5B615B665B705B7A5BF35B845B8C5BE7
:10013000945B9E5BA85BB25BC15BCB5BF35BD55B07
:10014000DF5BE95B4B6050607A607F605F606B6093
:100150003560084AD73B3BCE016E84BCBFFDC12F42
:100160003D6C74319ABD56833DDA3D00C77F11BEA8
:10017000D9E4BB4C3E916BAAAABE000000803F05AB
:10018000A84CCDB2D44EB93836A9020C50B99186DC
:1001900088083CA6AAAA2ABE000000803F004E4163
:1001A0004E494E495459494E46CDCCCC3D0AD723F1
:1001B0003C17B7D13877CC2B329595E6241FB14F39
:1001C0000A000020410000C84200401C4620BCBE7E
:1001D0004CCA1B0E5AAEC59D744C4556454C494EF3
:1001E0004700434F4D4D554E49434154494F4E00F2
:1001F00044525952554E004552524F525300494EA7
:10020000464F004543484F0047322F473320626135
:100210006420706172616D65746572730A00205AA2
:100220003A200020593A200042656420583A2000C4
:100230004D65736820706F696E742063616E6E6FB8
:1002400074206265207265736F6C7665640A005075
:1002500072696E742074696D653A2000000136374A
:100260002603FF3C3D380EFF2E303E12FFFF0C08E8
:1002700009FFFFFF1A1C18FFFF24221EFFFF08447E
:100280000AFF4307FF45FFFFFFFFFFFF50726F7438
:1002900065637465642050696E0A006D0046696C80
:1002A000616D656E7420757365643A2000537461E6
:1002B00074733A20002C204C6F6E67657374206A4B
:1002C0006F623A2000546F74616C2074696D653AF6
:1002D000200053746174733A20002C204661696CCD
:1002E00065643A20002C2046696E69736865643A3B
:1002F00020005072696E74733A20005374617473F5
:100300003A20000302FE01F701F001E201D9016F7A
:1003100066660044454255473A004D31313320531B
:10032000006F6B0020573A0020573A004361703A43
:10033000454D455247454E43595F504152534552F2
:100340003A310A004361703A434153455F4C494793
:1003500048545F4252494748544E4553533A300A35
:10036000004361703A544F47474C455F4C494748FA
:1003700054533A300A004361703A534F4654574140
:1003800052455F504F5745523A300A004361703A28
:100390004C4556454C494E475F444154413A310A19
:1003A000004361703A5A5F50524F42453A310A0059
:1003B0004361703A4155544F4C4556454C3A310AC9
:1003C000004361703A5052494E545F4A4F423A31AD
:1003D0000A004361703A50524F47524553533A30E6
:1003E0000A004361703A4155544F5245504F5254A0
:1003F0005F54454D503A310A004361703A454550CB
:10040000524F4D3A310A004649524D574152455FCD
:100410004E414D453A4D61726C696E20312E312E40
:10042000342E362E3120284769746875622920538E
:100430004F555243455F434F44455F55524C3A68D0
:10044000747470733A2F2F6769746875622E636FC6
:100450006D2F4D61726C696E4669726D7761726560
:100460002F4D61726C696E2050524F544F434F4C68
:100470005F56455253494F4E3A312E30204D41433D
:1004800048494E455F545950453A334420507269AB
:100490006E7465722045585452554445525F434F1F
:1004A000554E543A3220555549443A636564653295
:1004B0006132662D343161322D343734382D396252
:1004C00031322D6335356336326633363766660A28
:1004D000002F2F20007A5F6D696E3A2000795F6DE2
:1004E000696E3A2000785F6D696E3A20005265703F
:1004F0006F7274696E6720656E6473746F702073B9
:1005000074617475730A004F66660A00466164651B
:10051000204865696768742000426564204C6576F0
:10052000656C696E6720004661696C656420746F54
:1005300020656E61626C6520426564204C6576655D
:100540006C696E670A004D65736820706F696E7420
:100550002063616E6E6F74206265207265736F6CCC
:100560007665640A004D34323120696E636F7272B1
:1005700065637420706172616D6574657220757356
:100580006167650A00546F6F206661722066726F42
:100590006D207265666572656E636520706F696E49
:1005A000740A003A20007A5F6D696E3A20202D327D
:1005B00030207A5F6D61783A20203230005A204F27
:1005C000666673657420004E6F2063617365206CEE
:1005D000696768740A003C3C3C2067636F64655F30
:1005E000540A00203A2041465445520A0020206314
:1005F000757272656E745F706F736974696F6E3D4A
:1006000000203A204245464F52450A00202063759B
:100610007272656E745F706F736974696F6E3D009E
:100620003E3E3E2067636F64655F542800556E6BE5
:100630006E6F776E20636F6D6D616E643A2022007D
:100640004B494C4C45442E20002569730025696DAB
:1006500020256973002569682025696D2025697347
:1006600000256964202569682025696D2025697346
:100670000025697920256964202569682025696D30
:1006800020256973002C20002C2000203A2073794B
:100690006E635F706C616E5F706F736974696F6EAB
:1006A0000A00202063757272656E745F706F7369E3
:1006B00074696F6E3D00656E7175657565696E670D
:1006C0002022004E6F204C696E65204E756D62656C
:1006D00072207769746820636865636B73756D2C2D
:1006E000204C617374204C696E653A200050726929
:1006F0006E7465722073746F7070656420647565C4
:1007000020746F206572726F72732E204669782094
:10071000746865206572726F7220616E64207573F3
:1007200065204D39393920746F2072657374617298
:10073000742E202854656D70657261747572652021
:1007400069732072657365742E2053657420697413
:100750002061667465722072657374617274696E6B
:1007600067290A004E6F20436865636B73756D20BF
:1007700077697468206C696E65206E756D6265724C
:100780002C204C617374204C696E653A20006368BC
:1007900065636B73756D206D69736D617463682C2F
:1007A000204C617374204C696E653A20004C696E70
:1007B00065204E756D626572206973206E6F7420BE
:1007C0004C617374204C696E65204E756D62657264
:1007D0002B312C204C617374204C696E653A2000DB
:1007E0004D3131300020496E76616C696420657846
:1007F0007472756465722000000000000000000043
:10080000000040C00000664300808943000052435E
:100810000A20736F66745F656E6473746F705F6DCA
:100820006178203D20000A20736F66745F656E64F6
:1008300073746F705F6D696E203D20000A20706FC9
:10084000736974696F6E5F7368696674203D200018
:1008500020617869733A0A20686F6D655F6F66661C
:10086000736574203D2000466F7220003C3C3C20A4
:10087000646F5F626C6F636B696E675F6D6F7665E7
:100880005F746F0A003E3E3E20646F5F626C6F6370
:100890006B696E675F6D6F76655F746F00203A20DD
:1008A00073657475705F666F725F656E6473746F85
:1008B000705F6F725F70726F62655F6D6F76650AF1
:1008C00000202063757272656E745F706F73697457
:1008D000696F6E3D00203A20636C65616E5F7570D4
:1008E0005F61667465725F656E6473746F705F6F6D
:1008F000725F70726F62655F6D6F76650A002020AF
:1009000063757272656E745F706F736974696F6E10
:100910003D006465706C6F793A2000203A20736561
:10092000745F70726F62655F6465706C6F79656427
:100930000A00202063757272656E745F706F736950
:1009400074696F6E3D0072657365745F6265645FA4
:100950006C6576656C0A002028646F6E65290A0054
:100960004578747261706F6C617465205B004269D8
:100970006C696E656172204C6576656C696E672086
:10098000477269643A0A00537562646976696465FE
:10099000642077697468204341544D554C4C205273
:1009A0004F4D204C6576656C696E672047726964AF
:1009B0003A0A005374616E6461726420446576691A
:1009C0006174696F6E3A20002052616E67653A204B
:1009D00000204D61783A2000204D696E3A20004D8C
:1009E00065616E3A200046696E697368656421002E
:1009F0002072616E67653A2000206D61783A2000B0
:100A0000206D696E3A2000207369676D613A20009D
:100A1000206D65616E3A20003A207A3A2000206FFE
:100A2000662000205A00205900205800476F696E48
:100A30006720746F3A00436C6F636B776973650A64
:100A400000436F756E7465722D0020446972656392
:100A500074696F6E3A2000202020616E676C653AE1
:100A600020005374617274696E67207261646975E5
:100A7000733A2000506F736974696F6E696E6720F6
:100A80007468652070726F62652E2E2E0A003F4ECC
:100A9000756D626572206F66206C65677320696E84
:100AA000206D6F76656D656E74206E6F7420706C4E
:100AB00061757369626C652028302D3135292E0AE5
:100AC00000590058003F53616D706C652073697A5E
:100AD00065206E6F7420706C61757369626C65203F
:100AE00028342D3530292E0A004D3438205A2D5007
:100AF000726F6265205265706561746162696C69CC
:100B0000747920546573740A003F2856296572620F
:100B10006F7365206C6576656C20697320696D70F4
:100B20006C61757369626C652028302D34292E0A3A
:100B300000202F002040002042403A0020403A0090
:100B4000205A3A0020423A0020436F756E742041CB
:100B50003A0020453A00205A3A0020593A00583AC3
:100B60000053657474696E672054726176656C20F9
:100B7000416363656C65726174696F6E3A200053FE
:100B8000657474696E672052657472616374204184
:100B90006363656C65726174696F6E3A20005365BA
:100BA0007474696E67205072696E74204163636566
:100BB0006C65726174696F6E3A2000536574746974
:100BC0006E67205072696E7420616E642054726189
:100BD00076656C20416363656C65726174696F6EE4
:100BE0003A2000205A00205900580020204D6178FA
:100BF0003A2000205A00205900580020204D696EEC
:100C00003A20004F6E20004F666600536F667420D6
:100C1000656E6473746F70733A200020746F6F2078
:100C20006C6F6E6720657874727573696F6E207073
:100C3000726576656E7465640A0020636F6C64206B
:100C4000657874727573696F6E2070726576656E03
:100C50007465640A006265640A002C2073797374F9
:100C6000656D2073746F70706564212048656174D0
:100C700065725F49443A200048656174696E672077
:100C80006661696C65640048656174696E672066B9
:100C900061696C65640048656174696E67206661AE
:100CA000696C65640048656174696E672066616996
:100CB0006C65640070012C0190012701B0012201D4
:100CC000C0011D01F00118011002130130020E01D4
:100CD0006002090190020401C002FF000003FA0053
:100CE0004003F5008003F000D003EB002004E60091
:100CF0007004E100E004DC004005D700C005D2002C
:100D00004006CD00D006C8008007C3003008BE00F2
:100D1000F008B900C009B400B00AAF00B00BAA00D7
:100D2000D00CA500000EA000500F9B00C010960034
:100D30005012910000148C00C0158700B01782007B
:100D4000B0197D00D01B7800001E730040206E009B
:100D500090226900F024640040275F0090295A0027
:100D6000E02B5500102E500020304B001032460072
:100D7000E033410090353C001037370070383200C6
:100D8000A0392D00B03A2800A03B2300603C1E0093
:100D9000103D1900903D1400103E0F00703E0A00F7
:100DA000C03E0500003F0000403FFBFF803FF6FFD4
:100DB000C03FF1FF4572723A204D494E54454D50A7
:100DC00020424544004572723A204D494E54454DEB
:100DD00050004D494E54454D502074726967676507
:100DE000726564004572723A204D415854454D5029
:100DF00020424544004572723A204D415854454DB9
:100E000050004D415854454D5020747269676765D4
:100E10007265640000002100240027002A002D00D4
:100E20003000330001010000040107010A01000045
:100E30002200250028002B002E0031003400020182
:100E40000000050108010B0100002000230026001E
:100E500029002C002F0032000001000003010601D0
:100E60000901050505050705080808080202020230
:100E70000A0A080804040404010101010101010136
:100E80000303030303030303040707070C0C0C0C01
:100E90000C0C0C0C020202020606060606060606EA
:100EA0000B0B0B0B0B0B0B0B010210202008081077
:100EB00020401020408002010201080402010102CA
:100EC00004081020408080402010080402018004A3
:100ED00002018040201008040201080402010102FE
:100EE0000408102040800102040810204080000007
:100EF0000A0B02090C0D0E08070304010000000094
:100F000000000000000000000000000000000000E1
:100F1000000000000000000000001211100000009E
:100F200000000000000000000000000000000000C1
:100F3000000000004B494C4C45442E2000202D2041
:100F4000496E76616C696420657874727564657247
:100F5000206E756D62657220210A004572726F7293
:100F60003A002020506C616E6E657242756666654F
:100F70007242797465733A20002046726565204D8F
:100F8000656D6F72793A2000436F6D70696C6564AE
:100F90003A204A616E20323520323031390A002041
:100FA0007C20417574686F723A20286E6F6E652CD4
:100FB0002064656661756C7420636F6E666967296D
:100FC0000A00323031372D30372D30342031323A6B
:100FD000303000204C617374205570646174656416
:100FE0003A2000312E312E342E362E310A004D613A
:100FF000726C696E0020536F66747761726520525F
:10100000657365740A00205761746368646F6720B4
:1010100052657365740A002042726F776E206F7597
:10102000742052657365740A002045787465726E89
:10103000616C2052657365740A00506F7765725554
:10104000700A0073746172740A00205A3A002059C1
:101050003A0020583A00656E6473746F70732068AC
:1010600069743A20000000A0400000A04000000089
:10107000402044697363726570616E63793A00322F
:101080006E642050726F6265205A3A00203A203C0C
:101090003C3C2072756E5F7A5F70726F62650A0009
:1010A000202063757272656E745F706F7369746906
:1010B0006F6E3D003173742050726F6265205A3A32
:1010C00000203A203E3E3E2072756E5F7A5F70725D
:1010D0006F62650A00202063757272656E745F70BE
:1010E0006F736974696F6E3D003C3C3C2070726F99
:1010F00062655F70740A00205A3A200020593A2035
:101100000042656420583A2000203A200A0020203E
:1011100063757272656E745F706F736974696F6EF8
:101120003D0073746F77290A002C20002C20003EAC
:101130003E3E2070726F62655F7074280052657366
:10114000656E643A20006F6B0020746F6F206C6FC7
:101150006E6720657874727573696F6E2070726542
:1011600076656E7465640A0020636F6C6420657830
:1011700074727573696F6E2070726576656E7465D2
:10118000640A00627573793A207061757365642032
:10119000666F7220696E7075740A00627573793AB1
:1011A0002070617573656420666F72207573657257
:1011B0000A00627573793A2070726F6365737369A0
:1011C0006E670A004B494C4C45442E20004B494C5D
:1011D0004C2063617573656420627920746F6F20A1
:1011E0006D75636820696E616374697665207469E2
:1011F0006D65202D2063757272656E7420636F6D4E
:101200006D616E643A20003C3C3C20646F5F686F07
:101210006D696E675F6D6F766528002C20002C204D
:10122000003E3E3E20646F5F686F6D696E675F6D64
:101230006F7665280041424C2041646A7573746D75
:10124000656E74205A002028656E61626C656429A1
:101250000A00202864697361626C6564290A00428F
:10126000494C494E454152004175746F20426564B6
:10127000204C6576656C696E673A2000204E6F7A67
:101280007A6C65290A0020262041626F766500206D
:10129000262053616D65205A20617300202620426C
:1012A000656C6F77002D4261636B0020285269677F
:1012B000687400205A3A0020593A0050726F6265F3
:1012C000204F666673657420583A004649585F4D52
:1012D0004F554E5445445F50524F42450A0050729C
:1012E0006F62653A2000436F72650A004D61636862
:1012F000696E6520547970653A200020706F7369BB
:1013000074696F6E206F7574206F662072616E67EE
:10131000652E0A003F50726F626520003C3C3C2005
:1013200067636F64655F4732390A0020636F7272CA
:101330006563746564205A3A0047323920756E63DC
:101340006F72726563746564205A3A00203A203ED9
:101350002070726F62696E6720636F6D706C657468
:10136000650A00202063757272656E745F706F731A
:101370006974696F6E3D0052756E6E696E672069A3
:101380006E204452592D52554E206D6F64650A00EF
:10139000473239204175746F20426564204C657670
:1013A000656C696E670A0028422961636B002846F4
:1013B00029726F6E74002852296967687400284C7E
:1013C00029656674003F2856296572626F7365202F
:1013D0006C6576656C20697320696D706C617573DE
:1013E00069626C652028302D34292E0A0042616420
:1013F000205A2076616C75650A004E6F2062696C18
:10140000696E65617220677269640A00203A203E45
:101410003E3E2067636F64655F4732390A002020D3
:1014200063757272656E745F706F736974696F6EE5
:101430003D0024F4D43050C38E20C2A24017828BCA
:101440007011127A910D816CD90AA861E108C75810
:101450006607615143061E4B5D05C145A7041A414D
:101460001104093D9803713931034036DB026533BD
:101470009102D4305402802E1D02632CEE01752A95
:10148000C501B028A001102781018F2564012B24FC
:101490004B01E0223401AC211F018D200D01801F82
:1014A000FC00841EED00971DDF00B81CD200E61B77
:1014B000C600201BBC00641AB200B219A8000A19A9
:1014C000A0006A189900D117910040178B00B5163B
:1014D000840031167E00B31579003A157300C714E5
:1014E0006F0058146A00EE1366008813630025131A
:1014F0005E00C7125B006C12570015125400C11138
:10150000510070114F0021114B00D61049008D1071
:1015100047004610440002104200C00F4000800FF8
:101520003E00420F3C00060F3B00CB0E3800930EEE
:1015300037005C0E3500270E3400F30D3200C10D6C
:101540003100900D3000600D2E00320D2D00050D84
:101550002C00D90C2B00AE0C2900850C29005C0C4A
:101560002700350C27000E0C2600E80B2400C40BC6
:101570002400A00B23007D0B23005A0B2100390B04
:101580002100180B2000F80A1F00D90A1E00BB0A10
:101590001E009D0A1D00800A1D00630A1C00470AE8
:1015A0001B002C0A1B00110A1A00F7091A00DD099A
:1015B0001900C4091900AB091900920917007B0929
:1015C0001800630917004C09160036091600200997
:1015D00016000A091500F5081500E0081400CC08EB
:1015E0001400B8081400A4081400900813007D0823
:1015F00012006B0813005808120046081200340845
:101600001100230811001208110001081100F00751
:101610001000E0071000D0071000C0071000B0074E
:101620000F00A107100091070E0083070F00740739
:101630000F0065070E0057070E0049070E003B0715
:101640000D002E070E0020070D0013070D000607E2
:101650000D00F9060C00ED060D00E0060C00D406A6
:101660000C00C8060C00BC060C00B0060C00A4065A
:101670000B0099060C008D060B0082060B00770606
:101680000B006C060B0061060A0057060B004C06A7
:101690000A0042060A0038060A002E060A0024063E
:1016A0000A001A060A001006090007060A00FD05CE
:1016B0000900F4050900EB050900E2050900D90558
:1016C0000900D0050900C7050900BE050900B505D8
:1016D0000800AD050800A50509009C050800940553
:1016E00008008C050800840508007C0508007405C6
:1016F00008006C050700650508005D050700560534
:1017000008004E050700470507004005080038059A
:101710000700310507002A050700230507001C05FF
:101720000600160507000F0507000805060002055C
:101730000700FB040600F5040700EE040600E804B9
:101740000600E2040700DB040600D5040600CF040F
:101750000600C9040600C3040600BD040600B70461
:101760000600B1040500AC040600A6040600A004AF
:1017700005009B04060095040500900406008A04F9
:10178000050085040500800406007A040500750440
:101790000500700405006B04050066040500610483
:1017A00005005C04050057040500520405004D04C3
:1017B000050048040500430405003E0404003A0403
:1017C000050035040500300404002C04050027043E
:1017D0000400230405001E0404001A040400160477
:1017E0000500110404000D040400090405000404AC
:1017F000040000040400FC030400F8030400F403E4
:101800000400F0030400EC030400E8030400E40314
:101810000400E0030400DC030400D8030400D40344
:101820000400D0030400CC030400C8030300C50374
:10183000030024F404D9201BC40C5C0E9804C409D2
:101840005F0265077101F405F900FB04B300480469
:101850008700C10369005803550003034500BE0219
:101860003A008402310053022A00290225000402B2
:101870002000E4011C00C8011900AF011700980105
:101880001400840113007101100061011000510166
:101890000E0043010D0036010B002B010B0020014F
:1018A0000B00150109000C01090003010800FB00F1
:1018B0000800F3000800EB000700E4000600DE006B
:1018C0000600D8000600D2000600CC000500C700C4
:1018D0000500C2000500BD000400B9000400B50009
:1018E0000400B1000400AD000400A9000400A5003C
:1018F0000300A20003009F0004009B000300980067
:1019000003009500020093000300900003008D0087
:1019100002008B00030088000200860002008400A1
:101920000300810002007F0002007D0002007B00B6
:1019300002007900020077000100760002007400C6
:10194000020072000100710002006F0002006D00D1
:1019500001006C0002006A000100690002006700DB
:1019600001006600010065000100640002006200E1
:10197000010061000100600001005F0002005D00E5
:1019800001005C0001005B0001005A0001005900E9
:1019900001005800010057000100560001005500E9
:1019A00001005400010053000000530001005200E8
:1019B000010051000100500001004F0001004E00E5
:1019C00000004E0001004D0001004C0001004B00E2
:1019D00000004B0001004A000100490001004800DE
:1019E00000004800010047000100460000004600DA
:1019F00001004500000045000100440001004300D3
:101A000000004300010042000000420001004100CC
:101A1000000041000100400001003F0000003F00C5
:101A200001003E0000003E0001003D0000003D00BE
:101A300001003C0000003C0000003C0001003B00B5
:101A400000003B0001003A0000003A0001003900AC
:101A500000003900010038000000380000003800A4
:101A6000010037000000370001003600000036009A
:101A70000000360001003500000035000000350090
:101A80000100340000003400000034000100330085
:101A9000000033000000330001003200000032007B
:101AA0000000320001003100000031000000310070
:101AB00001003000000030000000300001002F0065
:101AC00000002F0000002F0000002F0001002E005A
:101AD00000002E0000002E0001002D0000002D004F
:101AE00000002D0000002D0001002C0000002C0043
:101AF00000002C0000002C0001002B0000002B0037
:101B000000002B0000002B0001002A0000002A002A
:101B100000002A0000002A0001002900000029001E
:101B20000000290000002900000029000100280011
:101B30000000280000002800000028000000280005
:101B400001002700000027000000270000002700F8
:101B500000002700010026000000260000002600EB
:101B600000002600000026000100250000002500DE
:101B700000002500000025000000250000002500D1
:101B800001002400000024000000240000002400C4
:101B900000002400010023000000230000002300B7
:101BA00000002300000023000000230000002300A9
:101BB000010022000000220000002200000022009C
:101BC000000022000000220001002100000021008E
:101BD0000000210000002100000021000000210081
:101BE0000000210001002000000020000000200073
:101BF0000000200000002000000020000000200065
:101C00000000200001001F0000001F0000001F0056
:101C100000001F0000001F0000001F0000001F0048
:101C200001001E0000001E0000001E0000001E003B
:101C300000005072696E7465722068616C7465642E
:101C40002E206B696C6C28292063616C6C656421A3
:101C50000A000000000000000000000000003C3C02
:101C60003C207365745F617869735F69735F617449
:101C70005F686F6D652800203A200A002020637598
:101C80007272656E745F706F736974696F6E3D0018
:101C90005D203D20003E20686F6D655F6F66667356
:101CA00065745B003E207A70726F62655F7A6F6662
:101CB00066736574203D20002A2A2A205A20484F46
:101CC0004D454420574954482050524F4245202802
:101CD0005A5F4D494E5F50524F42455F55534553F1
:101CE0005F5A5F4D494E5F454E4453544F505F50CD
:101CF000494E29202A2A2A0A003E3E3E2073657456
:101D00005F617869735F69735F61745F686F6D6548
:101D100028005761726E696E673A20486F6D696E70
:101D2000672042756D702044697669736F72203C3C
:101D300020310A000202043C3C3C20686F6D656162
:101D40007869732800203A203E20414654455220AD
:101D50007365745F617869735F69735F61745F68ED
:101D60006F6D650A00202063757272656E745F7016
:101D70006F736974696F6E3D00486F6D6520322026
:101D8000536C6F773A0A004D6F7665204177617921
:101D90003A0A00486F6D65203120466173743A0A33
:101DA000003E3E3E20686F6D656178697328004192
:101DB00063746976652045787472756465723A203B
:101DC00000203A204D6F7665206261636B0A002027
:101DD0002064657374696E6174696F6E3D00203AAA
:101DE0002053796E6320416674657220546F6F6C66
:101DF0006368616E67650A00202063757272656EA4
:101E0000745F706F736974696F6E3D00207D0A00A6
:101E10002C20004F666673657420546F6F6C2058D9
:101E200059206279207B20004E6F206D6F766520EF
:101E30006F6E20746F6F6C6368616E67650A004532
:101E400072726F722077726974696E6720746F2086
:101E5000454550524F4D210A00290A0020627974ED
:101E600065733B20637263200053657474696E6709
:101E7000732053746F72656420280020204D38351C
:101E800031205A005A2D50726F6265204F6666737A
:101E9000657420286D6D293A0A002044002049000D
:101EA00020204D33303420500020440020490020B1
:101EB000204D333031205000204400204900205074
:101EC0000020204D333031204500504944207365B7
:101ED0007474696E67733A0A00205A0020204D34EA
:101EE00032302053004175746F20426564204C6588
:101EF00076656C696E673A0A002059002058002008
:101F0000204D323138205400486F74656E64206F64
:101F10006666736574733A0A00205A0020590020DF
:101F2000204D323036205800486F6D65206F666650
:101F30007365743A0A00204500205A002059002099
:101F4000580020420020540020204D3230352053CC
:101F500000416476616E6365643A20533C6D696E3E
:101F60005F66656564726174653E20543C6D696EA0
:101F70005F74726176656C5F6665656472617465D5
:101F80003E20423C6D696E5F7365676D656E745F80
:101F900074696D655F6D733E20583C6D61785F7844
:101FA000795F6A65726B3E205A3C6D61785F7A5F3B
:101FB0006A65726B3E20453C6D61785F655F6A655E
:101FC000726B3E0A0020540020520020204D323017
:101FD00034205000416363656C65726174696F6E93
:101FE0002028756E6974732F7332293A20503C7023
:101FF00072696E745F616363656C3E20523C72650A
:1020000074726163745F616363656C3E20543C74F9
:10201000726176656C5F616363656C3E0A002045A2
:1020200000205A0020590020204D32303120580025
:102030004D6178696D756D20416363656C65726192
:1020400074696F6E2028756E6974732F7332293A24
:102050000A00204500205A0020590020204D32302F
:10206000332058004D6178696D756D206665656433
:1020700072617465732028756E6974732F73293AC1
:102080000A00204500205A0020590020204D3932F6
:1020900020580053746570732070657220756E69E6
:1020A000743A0A0020204D3230302044300A00209B
:1020B000204D32303020543120440020204D323029
:1020C000302044002044697361626C65640A0046F4
:1020D000696C616D656E742073657474696E677385
:1020E0003A002020473231202020203B20556E69C5
:1020F000747320696E206D6D0A00486F74656E649C
:10210000206F6666736574733A0020643A00206934
:102110003A0020703A0020643A0020693A002070AA
:102120003A0043290A0061626C656420286D696E7B
:102130002074656D702000436F6C64206578747244
:10214000756465732061726520004B642000236410
:102150006566696E65202044454641554C545F00D4
:102160004B69200023646566696E652020444546FE
:1021700041554C545F004B70200023646566696EC6
:1021800065202044454641554C545F005049442049
:102190004175746F74756E652066696E69736865E4
:1021A00064212050757420746865206C61737420FC
:1021B0004B702C204B6920616E64204B6420636F50
:1021C0006E7374616E74732066726F6D2062656CDD
:1021D0006F7720696E746F20436F6E6669677572E2
:1021E0006174696F6E2E680A00504944204175740D
:1021F0006F74756E65206661696C65642120746911
:102200006D656F75740A00504944204175746F7490
:10221000756E65206661696C6564212054656D701A
:102220006572617475726520746F6F206869676884
:102230000A00204B643A2000204B693A2000204BD2
:10224000703A20000A20436C61737369632050491F
:1022500044200A002054753A2000204B753A200093
:10226000206D61783A2000206D696E3A200020646C
:102270003A200020626961733A2000203A203C3CF9
:102280003C20646F5F70726F62655F6D6F76650A88
:1022900000202063757272656E745F706F7369746D
:1022A000696F6E3D00203A203E3E3E20646F5F70B5
:1022B000726F62655F6D6F76650A002020637572CC
:1022C00072656E745F706F736974696F6E3D000044
:1022D000006643008089430000554300002042000F
:1022E0000020420000204100000000FFFFFF3C3CB6
:1022F0003C2067636F64655F4732380A00203A20EC
:102300003E2028686F6D655F616C6C207C7C206866
:102310006F6D655A29203E2066696E616C0A002047
:102320002063757272656E745F706F736974696F24
:102330006E3D00203A203E20686F6D65580A0020EF
:102340002063757272656E745F706F736974696F04
:102350006E3D00203A203E20686F6D65590A0020CE
:102360002063757272656E745F706F736974696FE4
:102370006E3D005261697365205A20286265666F60
:10238000726520686F6D696E672920746F20003E4A
:1023900020656E6473746F70732E656E61626C6518
:1023A0002874727565290A003E3E3E2067636F649B
:1023B000655F4732380A00646F5F70726F62655FF5
:1023C000726169736528002066697273740A005A25
:1023D0000059005800486F6D6520006563686F3ACA
:1023E00000544845524D414C2052554E4157415999
:1023F00000546865726D616C2052756E6177617909
:1024000000202863616C63756C6174656429210A1E
:102410000020213D2000454550524F4D204352435E
:10242000206D69736D61746368202D202873746F4B
:10243000726564292000290A002062797465733B63
:102440002063726320002073746F7265642073656B
:102450007474696E677320726574726965766564F9
:10246000202800204D61726C696E3D563339290A6F
:102470000028454550524F4D3D00454550524F4D67
:102480002076657273696F6E206D69736D61746318
:1024900068200048617264636F6465642044656607
:1024A00061756C742053657474696E6773204C6F2A
:1024B000616465640A00FA000000FA00000032005E
:1024C0000000DC05000000007A4400007A440000AF
:1024D000A0400000C8420000A0420000A04200004E
:1024E000484400004C43E9B111241FBECFEFD1E2B4
:1024F000DEBFCDBF00E00CBF15E0A0E0B2E0EEEB28
:10250000FCE701E00BBF02C007900D92A230B107BB
:10251000D9F722E1A2E0B5E001C01D92A13CB207CB
:10252000E1F712E1C4E7D2E100E006C0219701091A
:10253000802FFE010E9435BEC337D10780E0080717
:10254000A9F70E9448AE0C945DBE0C9400002F9237
:102550003F924F925F926F927F928F929F92AF9233
:10256000BF92CF92DF92EF92FF920F931F93CF9380
:10257000DF93CDB7DEB7CD55D1090FB6F894DEBFE6
:102580000FBECDBF0091D40820E6029F8001112428
:10259000085D1A4F8091521280FF1AC0EBEDF3E2F2
:1025A00084917F013FEFE31AF30A811102C07801A1
:1025B00004C00E949531F701F3CFD7018D917D01C1
:1025C000882319F00E949531F8CF8AE00E94953156
:1025D00081E090E09093710C8093700C1092210533
:1025E000109220058FE38093B2061092B1061092EC
:1025F000B00610921C0510921D0510921E05109237
:102600001F05F80180810F5F1F4F8032D1F38E3498
:10261000B1F4818190ED980F9A3020F08D3211F055
:102620008B3269F43296DF0131962C9120532A3097
:10263000D0F3CD01FC01019620812032D9F3F09333
:102640007A0CE093790C7F01BFEFEB1AFB0A108143
:102650006AE270E0C7010E943DBE009731F0FC01C4
:10266000319780818032E1F311821D3429F01435D5
:1026700019F0173409F0CBC0F70180812FEFE21A6F
:10268000F20A8032C9F380538A3008F0C0C0109338
:10269000B2062091B0063091B1064AE03196429FD1
:1026A000C001439F900D1124DF0111972C91022E40
:1026B000000C330B20533109280F391F80818053C0
:1026C0008A3060F33093B1062093B006DF01319673
:1026D0008C918032D9F31D34D1F42E31310591F033
:1026E0003CF42731310571F02C31310581F40AC0F9
:1026F0002537310564F02737310524F0203A43E0CF
:10270000340729F4B0932105A093200580C01092CE
:102710002105109220050091790C61E070E0FD0127
:1027200031968C91882309F472C08132A1F41D3452
:1027300091F42032310579F4F0932105E0932005DE
:1027400063E270E0CF010E943DBE009709F45FC0D4
:10275000DC011C925CC09FEBD92ED80E49E1C42E3F
:10276000CD14C0F1AF01FA0190814F5F5F4F9032FD
:10277000D1F340ED490F4A3040F043ED490F42306C
:1027800020F09B3211F00C946B2AAF01AD2CB12CD0
:102790007501A3E0F594E794AA95E1F7C701845E7B
:1027A0009A4F7C018D2D8770DB0102C0AA0FBB1FE1
:1027B0008A95E2F7CD01D7019C91892B8C93411525
:1027C000510511F0401B01C040E0D501AE5FBA4F8A
:1027D0004C930AC08091200590912105892B21F40A
:1027E000B0932105A0932005808181548A3110F493
:1027F000DF0195CFDF0131969C9190539A30D0F351
:10280000CD01FC01019640814032D9F3F1CF809196
:10281000B2068D3411F40C944D1C843511F40C94D3
:10282000F929873411F00C944D2A8091B0069091CB
:10283000B1068C31910509F4D8C57CF4843091053A
:102840003CF482309105B4F597FF28C00C94642ABB
:10285000049709F48DC50C94642A8A32910509F411
:1028600031C74CF48D31910509F4C3C54E9709F475
:10287000C4C50C94642A8B35910509F446C68C3581
:10288000910509F449C68A35910511F00C94642A22
:102890001092270510922B070C94642A8091210234
:1028A000882311F40C94642A0E94C3770E94CE6C92
:1028B0000C94642A20912102222311F40C94642A9E
:1028C00011E0029709F010E00E94C37782E50E94B0
:1028D000BE30882309F430C10E945C306B017C015A
:1028E0004090321250903312609034127090351232
:1028F000209136123091371240913812509139128E
:102900002EA33FA348A759A780912112909122128C
:10291000A0912312B09124128AA79BA7ACA7BDA7B0
:1029200020912512309126124091271250912812A1
:102930002AAB3BAB4CAB5DAB20E030E0A901C7015B
:10294000B6010E94DCB6882309F4F8C4A301920101
:102950006AA57BA58CA59DA50E94DCB681110DC042
:102960002EA13FA148A559A56AA97BA98CA99DA91B
:102970000E94DCB6882309F4E1C420E030E0A9011C
:10298000C701B6010E94DCB6881F8827881F18136C
:102990000BC080E090E0A0E8BFE322968CAF9DAF33
:1029A000AEAFBFAF22970AC020E030E040E85FEB57
:1029B00022962CAF3DAF4EAF5FAF2297A30192019D
:1029C0006AA57BA58CA59DA50E9445BB6EAB7FAB80
:1029D00088AF99AF2EA13FA148A559A56AA97BA9A7
:1029E0008CA99DA90E9445BB6AAF7BAF8CAF9DAF00
:1029F0002EA93FA948AD59ADCA01B9010E9441B7FE
:102A00004B015C012AAD3BAD4CAD5DADCA01B901D6
:102A10000E9441B79B01AC01C501B4010E9446BBB5
:102A20000E94B1BD6EA77FA788AB99AB20E030E0D4
:102A300040E05FE30E9441B74B015C01A7019601B2
:102A4000C701B6010E9441B76B017C01A501940149
:102A5000C501B4010E9441B79B01AC01C701B60199
:102A60000E9445BB0E94B1BD9B01AC0122966CAD9A
:102A70007DAD8EAD9FAD22970E9441B74B015C01A9
:102A80002AA53BA54CA55DA5C301B2010E9446BB8A
:102A900020E030E040E05FE30E9441B76B017C0141
:102AA0006AAD7BAD8CAD9DAD90582EA53FA548A9D4
:102AB00059A90E9422BC9B01AC01C501B4010E942E
:102AC00041B79B01AC01C701B6010E9446BBA301FF
:102AD00092010E9445BB6B017C012AA93BA94CA92C
:102AE0005DA96EA17FA188A599A50E9446BB20E0A3
:102AF00030E040E05FE30E9441B72B013C012EA58E
:102B00003FA548A959A96EA97FA988AD99AD0E9492
:102B100022BC9B01AC01C501B4010E9441B79B01DD
:102B2000AC01C301B2010E9446BB2EA13FA148A542
:102B300059A50E9445BB14C089E40E94BE30882379
:102B400029F00E945C306B017C0103C0C12CD12CA8
:102B500076018AE40E94BE308823D9F00E945C305E
:102B60006AAB7BAB8CAB9DAB20E030E0A901C70129
:102B7000B6010E94DCB681111AC020E030E0A90144
:102B80006AA97BA98CA99DA90E94DCB681110FC0FE
:102B9000D5C320E030E0A901C701B6010E94DCB630
:102BA000882309F4CBC31AAA1BAA1CAA1DAAD70101
:102BB000C601B0588EA39FA3A8A7B9A72AA93BA96D
:102BC0004CA95DA950582AA73BA74CA75DA79C011B
:102BD000AD01BC01CD010E9441B74B015C012AA5AA
:102BE0003BA54CA55DA5CA01B9010E9441B79B0157
:102BF000AC01C501B4010E9446BB0E94B1BD629602
:102C00006CAF7DAF8EAF9FAF629780913212909183
:102C10003312A0913412B09135128EA79FA7A8ABA2
:102C2000B9ABA7019601BC01CD010E9446BB22961B
:102C30006CAF7DAF8EAF9FAF22972091361230914F
:102C4000371240913812509139122EAB3FAB48AF3A
:102C500059AF2AA93BA94CA95DA96EA97FA988AD46
:102C600099AD0E9446BB26966CAF7DAF8EAF9FAFED
:102C700026978091211290912212A0912312B09157
:102C800024122A968CAF9DAFAEAFBFAF2A97229683
:102C90002CAD3DAD4EAD5FAD2297BC01CD010E9484
:102CA00045BB6B017C012091251230912612409189
:102CB0002712509128122E962CAF3DAF4EAF5FAF2A
:102CC0002E9726962CAD3DAD4EAD5FAD26972E9638
:102CD0006CAD7DAD8EAD9FAD2E970E9445BB4B0177
:102CE0005C0180913A1290913B12A0913C12B091FC
:102CF0003D126A968CAF9DAFAEAFBFAF6A979C0195
:102D0000AD016091291270912A1280912B1290913D
:102D10002C120E9445BB6AAF7BAF8CAF9DAF209158
:102D20002D1230912E1240912F1250913012669632
:102D30002CAF3DAF4EAF5FAF669780913E12909142
:102D40003F12A0914012B09141126E968CAF9DAF90
:102D5000AEAFBFAF6E97A70196016EA17FA188A508
:102D600099A50E9441B72B013C01A50194016AA5D8
:102D70007BA58CA59DA50E9441B79B01AC01C30119
:102D8000B2010E9446BB2B013C01A50194016EA13A
:102D90007FA188A599A50E9441B74B015C01A701BD
:102DA00096016AA57BA58CA59DA50E9441B79B01B4
:102DB000AC01C501B4010E9445BBA30192010E9470
:102DC000B9BB6B017C0120E030E0A9010E94DCB6B8
:102DD00087FF0AC02BED3FE049EC50E4C701B60184
:102DE0000E9446BB6B017C01112351F02BED3FE0AB
:102DF00049EC50E4C701B6010E9445BB6B017C0160
:102E000020E030E0A901C701B6010E94DCB68111C3
:102E100024C02A962CAD3DAD4EAD5FAD2A976EA570
:102E20007FA588A999A90E94DCB6811116C02E96AB
:102E30002CAD3DAD4EAD5FAD2E976EA97FA988AD8F
:102E400099AD0E94DCB6811108C02BEDC22E2FE097
:102E5000D22E29ECE22E20E4F22E62962CAD3DAD6E
:102E60004EAD5FAD6297C701B6010E9441B79B01AD
:102E7000AC010E9441B74B015C012AAD3BAD4CADAA
:102E80005DADCA01B9010E9441B79B01AC01C5010A
:102E9000B4010E9446BB0E94B1BD4B015C012FE60C
:102EA00032E143E85AE30E94DCB687FD43C2C50124
:102EB000B4010E94BBBC0E948FBC7FAB6EABDB0138
:102EC000AB2B21F4E1E0F0E0FFABEEAB2EA93FA984
:102ED000B90180E090E00E94E0B64B015C019B01EB
:102EE000AC01C701B6010E9422BC6EA77FA788ABC8
:102EF00099ABA50194016AAD7BAD8CAD9DAD0E94EF
:102F000022BC62966CAF7DAF8EAF9FAF62976E961C
:102F10002CAD3DAD4EAD5FAD6E9766966CAD7DADA3
:102F20008EAD9FAD66970E9445BBA50194010E949E
:102F300022BC66966CAF7DAF8EAF9FAF66972EA515
:102F40003FA548A959A9CA01B9010E9441B720E08B
:102F500030E040E05FE30E9441B79B01AC0160E0DC
:102F600070E080E89FE30E9445BB6AAF7BAF8CAF07
:102F70009DAF6A968CAD9DADAEADBFAD6A978E8F9D
:102F80009F8FA8A3B9A36E962CAD3DAD4EAD5FAD9E
:102F90006E972AA33BA34CA35DA360915F0270913F
:102FA0006002072E000C880B990B0E94E2B620915C
:102FB0004C0230914D0240914E0250914F020E94BE
:102FC00041B72AE037ED43E25CE30E9441B72A961D
:102FD0006CAF7DAF8EAF9FAF2A970E94345C9B0190
:102FE000AC0128533F4F4F4F5F4F2E962CAF3DAF54
:102FF0004EAF5FAF2E974EA05FA068A479A42224A5
:103000002394312C99E1D92E4EA95FA924163506B7
:1030100009F43DC10E949F610E94345CDC01CB0138
:103020002E962CAD3DAD4EAD5FAD2E97821B930B12
:10303000A40BB50BB7FD10C00E94345C9B01AC0122
:1030400028533F4F4F4F5F4F2E962CAF3DAF4EAFA3
:103050005FAF2E970E94A967DA94DD20E9F12AADCF
:103060003BAD4CAD5DAD6AA57BA58CA59DA50E9431
:1030700041B74B015C012EA53FA548A959A9B20152
:10308000C3010E9441B7A50194010E9446BB7B0188
:103090008C012AAD3BAD4CAD5DADB201C3010E94C8
:1030A00041B74B015C012EA53FA548A959A96AA5C6
:1030B0007BA58CA59DA50E9441B79B01AC01C501D4
:1030C000B4010E9445BB2B013C01C701D8018AA76E
:1030D0009BA7ACA7BDA74FC0B10180E090E00E94C4
:1030E000E0B62EA53FA548A959A90E9441B74B01BA
:1030F0005C010E941FBC6B017C01C501B4010E94F0
:10310000A7BD4B015C01A70196016EA17FA188A517
:1031100099A50E9441B72B013C01A50194016AA920
:103120007BA98CA99DA90E9441B79B01AC01C30159
:10313000B2010E9446BB2B013C01A50194016EA186
:103140007FA188A599A50E9441B74B015C01A70109
:1031500096016AA97BA98CA99DA90E9441B79B01F0
:10316000AC01C501B4010E9445BB6AA77BA78CA72F
:103170009DA709E1D02E9201A30122966CAD7DADF1
:103180008EAD9FAD22970E9446BB6E8B7F8B888F42
:10319000998F2AA53BA54CA55DA526966CAD7DAD66
:1031A0008EAD9FAD26970E9446BB6A8F7B8F8C8F1A
:1031B0009D8F62962CAD3DAD4EAD5FAD62976E8D2D
:1031C0007F8D88A199A10E9446BB6E8F7F8F88A3B7
:1031D00099A366962CAD3DAD4EAD5FAD66976AA1E5
:1031E0007BA18CA19DA10E9446BB6AA37BA38CA35B
:1031F0009DA380915E02882321F0CE0146960E9415
:10320000C58EC09031128E899F89A88DB98D898312
:103210009A83AB83BC838A8D9B8DAC8DBD8D8D8352
:103220009E83AF83B8878E8D9F8DA8A1B9A1898712
:103230009A87AB87BC878AA19BA1ACA1BDA18D87D2
:103240009E87AF87B88B9E012F5E3F4FAE01475FD1
:103250005F4FBE016B5F7F4FCE0101960E946352AC
:103260002A96ECACFDAC0EAD1FAD2A979E012E5DEB
:103270003F4FAE01475F5F4FBE016B5F7F4FCE0197
:1032800001960E942E443FEF231A330ABDCEC09010
:1032900031128091211290912212A0912312B091AB
:1032A000241289839A83AB83BC83809125129091E9
:1032B0002612A0912712B09128128D839E83AF838E
:1032C000B8878091291290912A12A0912B12B09167
:1032D0002C1289879A87AB87BC8780912D12909199
:1032E0002E12A0912F12B09130128D879E87AF873A
:1032F000B88B9E012F5E3F4FAE01475F5F4FBE010F
:103300006B5F7F4FCE0101960E9463522A96ECAC10
:10331000FDAC0EAD1FAD2A972DE232E1AE01475F45
:103320005F4FBE016B5F7F4FCE0101960E942E441E
:103330000E94A32F0E948A310C94642AEBE5FFE0DF
:1033400084918F010F5F1F4F882321F00E949531D8
:10335000F801F6CFE8E0F2E084918F010F5F1F4F94
:10336000882311F40C94642A0E949531F801F4CF5B
:1033700080E50E94BE30882329F00E941C306B013A
:103380007C0103C0C12CD12C760183E50E94BE30A4
:10339000882361F00E945C3020E030E04AE754E48A
:1033A0000E9441B70E948FBC6B017C010E940564A2
:1033B0000E948A3180917B0C90917C0CA0917D0CB5
:1033C000B0917E0CC80ED91EEA1EFB1E0E94345C12
:1033D000DC01CB018C199D09AE09BF09B7FD02C004
:1033E0000C94642A0E94A967F1CF0E942FA30C9429
:1033F000642A0E94027B0C94642AC0903212D090FE
:103400003312E0903412F090351288E50E94BE30FD
:10341000811109C020E030E040E951E4C701B60164
:103420000E9446BB02C00E945C306E8B7F8B888FEF
:10343000998FC0903612D0903712E0903812F090E9
:10344000391289E50E94BE30811109C020E030E0C8
:1034500040E052E4C701B6010E9446BB02C00E9490
:103460005C306B017C0169837A838B839C83409001
:103470004A1250904B1260904C1270904D12209155
:1034800046123091471240914812509149126E896C
:103490007F89888D998D0E9445BB4B015C0124EF8B
:1034A0003DEF4FE851E40E946CBD87FF02C00C94D1
:1034B000642A22E430E046E653E4C501B4010E94E8
:1034C000DCB6181614F40C94642AA3019201C70107
:1034D000B6010E9445BB6B017C0124EF3DEF4FEF2D
:1034E00051E40E946CBD87FF02C00C94642A21E263
:1034F00030E849E853E4C701B6010E94DCB618166B
:1035000014F40C94642A0C947C2A81E0809327059F
:1035100080932B070C94642A85E40E94BE308EA30E
:1035200081110C94CE2A0E94056485EB92E09BAB3E
:103530008AABB2E32B2EB2E13B2E18EFA12E11E1A4
:10354000B12E00E010E01AA6AAA9BBA98D91BBABD1
:10355000AAAB0E94BE30882309F466C0D1012D9128
:103560003D914D915C912EAB3FAB48AF59AF0E945E
:103570005C306B017C010330110599F580903112AC
:10358000B4E08B9E40011124F401E855F94FFFA7E8
:10359000EEA7408051806280738020E030E0A90176
:1035A000C301B2010E94DCB68823D9F07301620125
:1035B000F7FAF094F7F8F094F401EA5AF84FC08261
:1035C000D182E282F382F401EE5BF84FC082D182B5
:1035D000E282F382AEA5BFA51D921D921D921C92A0
:1035E0001397F101C082D182E282F3820330110588
:1035F000D9F02EA93FA948AD59ADC701B6010E9427
:1036000045BB9B01AC01D5016D917D918D919C9144
:103610000E9446BBF5016083718382839383C80156
:103620000E94E031F1E0FAA70F5F1F4F24E0220E65
:10363000311C34E0A30EB11C0430110509F084CF15
:10364000CAA4CC2019F00E94863838C0DEA0DD2044
:10365000A9F1C0903E12D0903F12E0904012F0903D
:1036600041122091CB073091CC074091CD0750916A
:10367000CE07C701B6010E9441B70E9477BD609393
:103680007612709377128093781290937912C70113
:10369000B6010E948ABC2FB7F8946093EF0770932D
:1036A000F0078093F1079093F2072FBF10926612F4
:1036B0001092671210926812109269120E944E3B8B
:1036C0000C94642A80912102882311F40C94642ABA
:1036D00089E40E94BE30182F882321F00E942C30EC
:1036E000F62E01C0F12C8AE40E94BE30082F8823F8
:1036F00031F00E942C30E62E111104C00BC0E12CD9
:103700001123C1F024E02F1510F00C941B2EE0E3E0
:10371000F2E004C034E03E15D0F30CC084918F0178
:103720000F5F1F4F882311F40C94642A0E94953177
:10373000F801F4CF0E94992F112341F12091B61284
:103740003091B7124F2D4203B001439F700D1124E9
:103750008091B2129091B312680F791F072E000C5E
:10376000880B990B0E94E2B62091461230914712C5
:1037700040914812509149120E9446BB6093211219
:10378000709322128093231290932412002341F10C
:103790002091B8123091B9125E2D5203B001539F9F
:1037A000700D11242091B4123091B512620F731F65
:1037B000072E000C880B990B0E94E2B620914A124A
:1037C00030914B1240914C1250914D120E9446BBC9
:1037D00060932512709326128093271290932812DB
:1037E00080E50E948F308823A1F10E944D3088230C
:1037F00081F11123B1F020E030E040E951E4609123
:1038000021127091221280912312909124120E9411
:1038100045BB6093211270932212809323129093E0
:1038200024120023B1F020E030E040E052E4609147
:1038300025127091261280912712909128120E94D1
:1038400045BB6093251270932612809327129093A4
:10385000281286E40E94BE308823D9F00E945C3092
:103860006B017C0120E030E0A9010E946CBD1816BC
:1038700084F420E030E040E752E4C701B6010E9442
:1038800022BC60934C0270934D0280934E02909341
:103890004F020E94CE6C0C94642A8091B0069091E5
:1038A000B1068E36910509F408C70CF0EAC08434DD
:1038B000910509F44BC40CF073C08A33910509F4E7
:1038C000E2C10CF043C08231910511F40C94B12493
:1038D00084F497FF02C00C94642A823091050CF4A2
:1038E000E5C1419711F00C94642A0E94406C0C943D
:1038F000642A8A32910509F4F3C1B4F44F9711F0A8
:103900000C94642A8CE792E10E9412636E8B7F8B89
:10391000888F998FBE016F5F7F4FCE0146960E94C0
:10392000CA30EBEDF3E2C6C18033910509F4E6C17C
:10393000C99711F00C94642AC12CD12C7601412C2A
:10394000512C60E8662E60E4762EBAC38F33910561
:1039500009F4D8C17CF48C33910509F423C20CF42A
:10396000BBC28D33910509F4FFC1CE9709F4E3C1C1
:103970000C94642A8134910509F416C40CF44BC4E8
:103980008234910509F4E8C38334910511F00C9455
:10399000642A81E08093BA120E949C890C94642A64
:1039A0008235910509F4D6C7F4F58B34910509F4F5
:1039B0001FC5ECF48634910509F4FDC40CF4EDC484
:1039C0008734910509F4FBC48834910511F00C94F7
:1039D000642A80E293E0A0E0B0E080936D029093CF
:1039E0006E02A0936F02B09370020C94642A8D341F
:1039F000910509F41BC50CF4FFC48E34910509F43C
:103A000019C58135910511F00C94642A0E94235E3A
:103A10000E9405640E94306C10929E0710929D07D0
:103A200000E010E081C78836910509F413C6CCF494
:103A30008435910509F495C70CF48FC78535910538
:103A400009F4C1C78C35910511F00C94642A45EB3B
:103A5000C42E42E0D42E5FEBE52E57E0F52E10E0A9
:103A6000CBC78A36910509F433C70CF4C3C68B362D
:103A7000910509F44AC78D36910509F401C70C94E4
:103A8000642A8C3D910511F40C945E270CF074C0EF
:103A90008B39910509F4CBC694F58637910511F45D
:103AA0000C940F26CCF48137910509F460C634F4E8
:103AB0008F36910509F412C60C94642A8237910559
:103AC00011F40C947B258337910511F00C94642A32
:103AD000E7E0F4E00C9480258837910511F40C940C
:103AE000AC2614F40C9446268937910511F40C94F5
:103AF000B2268C38910509F463C60C94642A8C3C78
:103B0000910511F40C9452270CF5883C910511F4A1
:103B10000C94B72634F48E3B910509F4C7C60C9477
:103B2000642A893C910511F40C941C278B3C910567
:103B300011F00C94642AB1E8EB2EB7E0FB2E05EBF4
:103B400012E084E0D82ED00E0C9443278E3C9105D1
:103B500011F40C94582714F40C945527833D9105C7
:103B600011F40C945B278A3D910511F00C94642AA2
:103B70000E947B9F0C94642A8239A1E09A0711F479
:103B80000C946D270CF045C08F32E1E09E0711F4D4
:103B90000C946727F4F4823E910511F40C9461278C
:103BA0004CF48D3D910511F00C94642A0E94549FB1
:103BB0000C94642A8D3221E0920711F40C9464274E
:103BC0008E32914011F00C94642A0E94879D0C94CF
:103BD000642A833641E0940711F40C94D4294CF400
:103BE0008033914011F00C94642A0E94DD9D0C9466
:103BF000642A8039B1E09B0711F40C946A2781395B
:103C0000914011F00C94642A81E00E94DF370C94FB
:103C1000642A853FF1E09F0711F40C945E29ECF4CF
:103C2000853A31E0930711F40C9410283CF4843A5F
:103C3000914011F40C9471270C94642A8C3AA1E001
:103C40009A0711F40C94A928843F914011F00C9428
:103C5000642A0E949C890C94642A873FE1E09E07B5
:103C600011F40C94642914F40C946129833523E035
:103C7000920711F40C947029873E934011F40C9430
:103C8000EB290C94642A1092A8061092A9061092AF
:103C9000AA061092AB061092AC061092AD061092D6
:103CA000AE061092AF0604E013E058C10E94F3750F
:103CB0000C94642A84918F010F5F1F4F882321F099
:103CC0000E949531F801F6CFBE016F5F7F4F8FE400
:103CD00092E00E94F9888AE00E9495310C94642A4F
:103CE00083E50E94BE3081110C94182B84E40E945D
:103CF000BE3081110C94182B0C94642A0E944E3D06
:103D00000C94642A8CE40E948F3081111092840CF0
:103D100082E50E948F3081111092830C81E40E9411
:103D20008F30882311F40C94642A1092830C109223
:103D3000840C0C94642A8CE40E948F3081111092C0
:103D4000670282E50E948F3081111092660281E441
:103D50000E948F30882311F40C94642A1092670219
:103D6000109266020C94642A8CE40E948F3088239F
:103D700019F081E08093670282E50E948F308823EA
:103D800019F081E08093660281E40E948F308823DD
:103D900011F40C94642A81E0809367028093660298
:103DA0000C94642A20E030E0A90160915F077091D3
:103DB000600780916107909162070E94DCB68823BA
:103DC00081F081E080935E0707E213E0D8018D91D6
:103DD0008D01882319F00E949531F8CF8AE00E9466
:103DE00095311092300710923107109232071092DD
:103DF0003307109236071092370710923807109247
:103E000039071092520710925307109254071092DC
:103E1000550710922C0710922D0710922E07109222
:103E20002F071092560710925707109258071092BA
:103E3000590781E08093050210924A0710924B07C0
:103E400010924C0710924D0710923A0710923B07C0
:103E500010923C0710923D071092A8061092A906F6
:103E60001092AA061092AB061092420710924307D6
:103E7000109244071092450710925A0710925B0760
:103E800010925C0710925D078093060210924E0715
:103E900010924F07109250071092510710923E0750
:103EA00010923F0710924007109241071092AC0603
:103EB0001092AD061092AE061092AF061092460711
:103EC0001092470710924807109249071092350741
:103ED000109234070C94642A10925E071092A80680
:103EE0001092A9061092AA061092AB061092AC0688
:103EF0001092AD061092AE061092AF0606E313E0E4
:103F0000F80181918F01882321F10E949531F8CF2A
:103F100080915212882309F41DC403E0C02E03E0EF
:103F2000D02EE12CF12C20E08091521290E00E2C4A
:103F300002C0959587950A94E2F780FDF3C3FFEFE1
:103F4000EF1AFF0A32E0C30ED11C46E0E416F1047A
:103F500059F78AE00E9495310C94642AD8018D911A
:103F60008D01882319F00E949531F8CF8AE00E94D4
:103F70009531A8EA8A2EA6E09A2E0AE417E0C12C11
:103F8000D12C760174E4A72E74E0B72EF50181914F
:103F90005F01882319F00E949531F8CFC701B6015F
:103FA0000E942B33F5E1AF2EF4E0BF2ED5018D91A9
:103FB0005D01882319F00E949531F8CFF8016081E6
:103FC00071818281938142E00E94F5348AE00E94EF
:103FD0009531F80180819181A281B381F4018193AF
:103FE0009193A193B1934F01D8011D921D921D92FF
:103FF0001D928D01CA94CD28CE28CF2829F0C12C3E
:10400000D12C7601C394BECF10923507109234079D
:1040100010922C0710922D0710922E0710922F0746
:104020000C94642A20E030E04AE754E4C501B4016E
:104030000E9441B742E00E94F5348AE00E94953127
:1040400040922112509222126092231270922412F6
:104050000E94CE6C0E94056420E030E04CE951ECF7
:104060002093291230932A1240932B1250932C1232
:104070000E94CE6C0E94056464E670E080E090E0EF
:104080000E94FC5B80E090E0A0E8BFE380932912EF
:1040900090932A12A0932B12B0932C120E94CE6CF4
:1040A0000E9405649FEFC91AD90AE90AF90AA4EF28
:1040B000CA16A1E0DA06E104F10411F40C94642AB2
:1040C00060E082E00E94F95A40922112509222123E
:1040D00060922312709224120E94CE6C0E9405649A
:1040E000812C912C50E8A52E50E4B52E00E117E26A
:1040F00082E00E947D670197B9F48092211290922C
:104100002212A0922312B09224120E94CE6C0E941E
:1041100005642AE037ED43E25BE3C501B4010E9488
:1041200046BB4B015C01E2CF0150110909F7C70101
:10413000B6010E942B330DE214E0F80181918F014A
:10414000882309F46FCF0E949531F7CF1092BA12ED
:104150000E949C890C94642A8091BA1281110BC030
:1041600006E413E0F80181918F01882309F4F1CE70
:104170000E949531F7CF813019F003E613E00BC0B0
:104180000CE913E0D8018D918D01882309F4E1CE6B
:104190000E949531F7CFF80181918F01882309F4AE
:1041A000D8CE0E949531F7CF85E40E948F308823C6
:1041B00061F00E945C300E948ABC60939B02709305
:1041C0009C0280939D0290939E0281E40E948F3016
:1041D000882361F00E945C300E948ABC6093970241
:1041E000709398028093990290939A0282E50E94BC
:1041F0008F30882361F00E945C300E948ABC6093FB
:1042000093027093940280939502909396020E9479
:104210009C890C94642A8091BA12882319F00AEBC5
:1042200013E060C080916702811103C00FED13E0BD
:104230004FC0809166028823C9F304EF13E0D801D0
:104240008D918D01882319F00E949531F8CF8FE070
:104250000E947D67892B19F006E914E00DC003E880
:1042600014E0F80181918F01882319F00E949531A3
:10427000F8CF08EF13E008C0D8018D918D01882395
:10428000C1F30E949531F8CFF80181918F01882305
:1042900019F00E949531F8CF82E00E947D67892B4A
:1042A00019F006E914E00BC003E814E0D8018D9181
:1042B0008D01882309F44DCE0E949531F7CFF80186
:1042C00081918F01882309F444CE0E949531F7CF64
:1042D000D8018D918D01882311F40C94642A0E94D9
:1042E0009531F6CFF80181918F01882319F00E9452
:1042F0009531F8CF8AE00E9495310DEF13E0D80197
:104300008D918D01882319F00E949531F8CF8AE0B4
:104310000E94953160919B0270919C0280919D0258
:1043200090919E020E942B338AE00E9495310AE010
:1043300014E0F80181918F01882319F00E949531D2
:10434000F8CF8AE00E9495316091970270919802AF
:104350008091990290919A020E942B338AE00E94E8
:10436000953107E114E0D8018D918D01882319F072
:104370000E949531F8CF8AE00E94953160919302B6
:104380007091940280919502909196020E942B3335
:104390008AE00E9495310C94642A1092CE111092FA
:1043A000CF111092D0111092D1111092780C10925E
:1043B000770C0C94642A109268020C94642A81E0B1
:1043C000809368021092CE111092CF111092D011EA
:1043D0001092D11180E293E0A0E0B0E080936D02F2
:1043E00090936E02A0936F02B09370020C94642AB3
:1043F0000E940E640C94642A80917C1290917D122C
:10440000019711F00C94642A82E090E090937D1261
:1044100080937C120E94345C6093861270938712A2
:1044200080938812909389120C94642A0E94E89FCA
:104430000C94642A83E50E94BE30882359F00E94C0
:104440002C306E34710531F48CE792E10E94B14258
:104450000C94642A1E8A1F8A188E198EEBEFF2E0E4
:1044600084918F010F5F1F4F882321F00E949531A7
:10447000F801F6CFE2EFF2E084918F010F5F1F4F5A
:10448000882321F00E949531F801F6CF60918A12BD
:1044900070918B1280E090E04AE00E948932E5EE54
:1044A000F2E084918F010F5F1F4F882321F00E945B
:1044B0009531F801F6CF60918C1270918D1280E0E9
:1044C00090E04AE00E948932EAEDF2E084918F01A7
:1044D0000F5F1F4F882321F00E949531F801F6CF1E
:1044E00060918A1270918B1280918C1290918D1232
:1044F000681B790B80917C1290917D12019721E0CD
:1045000030E0029710F020E030E0621B730B80E097
:1045100090E04AE00E9489328AE00E949531E2ED03
:10452000F2E084918F010F5F1F4F882321F00E94DA
:104530009531F801F6CF80918E1290918F12A09153
:104540009012B09191128E8B9F8BA88FB98FBE0164
:104550006F5F7F4FCE0146960E94CA30E5ECF2E0D5
:1045600084918F010F5F1F4F811105C0FE013196AD
:104570007F018F0104C00E949531F801F1CFD8016D
:104580008D918D01882319F00E949531F8CF80918B
:10459000921290919312A0919412B09195128E8BD9
:1045A0009F8BA88FB98FBE016F5F7F4FCE0146965C
:1045B0000E94CA30E5EBF2E084918F010F5F1F4F3C
:1045C000882321F00E949531F801F6CFF7018191FF
:1045D0007F01882319F00E949531F8CF8AE00E946C
:1045E0009531EDEAF2E084918F010F5F1F4F882330
:1045F00021F00E949531F801F6CFEDE9F2E08491C7
:104600008F010F5F1F4F882321F00E949531F80121
:10461000F6CF20E030E04AE754E4609196127091C2
:10462000971280919812909199120E9422BC42E0B8
:104630000E94F534EBE9F2E084918F010F5F1F4F88
:10464000882321F00E949531F801F6CF8AE00E947C
:1046500095313AC788E690E00E94EF32811134C765
:104660008091521283FD30C783E50E94BE308823BB
:1046700009F10E945C30F09022052F2D30E0220FCE
:10468000331F89010E5F174F0E948ABCD8016D93BA
:104690007C938F2D0E94CC5D0E945C3020E030E046
:1046A0004AEA52E40E94DCB6181614F00E94E89F11
:1046B0000E945C300E94C74207C78EE40E94BE3051
:1046C000882309F401C70E942C306093BC097093C1
:1046D000BD098093BE099093BF09F6C683E50E9489
:1046E000BE30882319F00E943C3001C080E08093E6
:1046F0005212EBEDF3E284918F010F5F1F4F88237D
:1047000021F00E949531F801F6CFE3E1F3E08491C6
:104710008F010F5F1F4F882309F4FACB0E94953158
:10472000F801F5CFBB24B394B20E222319F08CE22A
:104730000E949531F60125913491F9018491890106
:104740000F5F1F4F882321F00E9495319801F5CF0C
:104750002B2DF5CBEFE0F3E084918F010F5F1F4F1E
:10476000882309F4F6CB0E949531F801F5CF83E553
:104770000E94BE30882359F00E943C308093610231
:104780008D3308F4A1C68CE3809361029DC6EBEDE6
:10479000F3E284918F010F5F1F4F882321F00E9465
:1047A0009531F801F6CF4091610250E060E070E091
:1047B0008AE193E00E946D888AE00E94953184C668
:1047C0008091521283FD80C683E50E94BE3088230B
:1047D00009F47AC60E945C300E948ABC6739710570
:1047E00014F066E970E070930108609300080E947D
:1047F000825D6AC689E690E00E94EF32811111C0A5
:10480000E1E2F3E084918F010F5F1F4F882321F0D5
:104810000E949531F801F6CF0E94603C8AE00E9428
:1048200095311092710C1092700C0C94212E83E52E
:104830000E94BE30882309F447C60E943C30809312
:10484000760C8D3318F08CE38093760C0E94345CE8
:104850006B017C012091760C30E0A8EEB3E00E9461
:1048600036BBDC01CB018C0D9D1DAE1DBF1D8093A1
:10487000720C9093730CA093740CB093750C24C6B7
:104880008DE690E00E94EF3281111EC68091521297
:1048900083FD1AC683E50E94BE308AAB81111BC717
:1048A00082E50E94BE30811116C70EC68091521259
:1048B00083FD0AC683E50E94BE308AAB81110C9449
:1048C000B62C82E50E94BE3081110C94B62CFCC53A
:1048D00083E50E94BE30882339F00E942C308B0182
:1048E0006F3F710519F010F00FEF10E080E50E94A6
:1048F000BE30811105C010939E0700939D07E4C54B
:104900000E943C308823B9F3DFC580E50E94BE30A9
:10491000811105C010929E0710929D07D5C50E9477
:104920002C30672BB9F3D0C562E370E080E090E0F3
:104930000E94FC5B0E949F610F5F1F4F03311105B6
:1049400099F762E370E080E090E00E94FC5B0E94D7
:104950009F61BAC510922605B7C581E080932605F0
:10496000B3C583E50E94BE30882399F00E945C3075
:1049700020E030E04AE754E40E9441B70E948FBC37
:104980006093620270936302809364029093650265
:104990009BC588E50E948F3081110C94F02D89E52C
:1049A0000E948F3081110C94F02D8AE50E948F3087
:1049B00081110C94F02D85E40E948F3081110C94AC
:1049C000F02D0C94162E83E50E948F30882309F475
:1049D0007BC50E945C3020E030E04AE754E40E944E
:1049E00041B70E948FBC60937F0C7093800C8093C2
:1049F000810C9093820C68C5D6018D916D010E9447
:104A00008F30882309F46DC0133009F063C00E9411
:104A10005C304B015C0120E030E040EA51E40E9450
:104A2000DCB687FF4EC0A50194016091CB07709161
:104A3000CC078091CD079091CE070E9422BC2B011C
:104A40003C019B01AC0160917107709172078091EC
:104A50007307909174070E9441B760937107709338
:104A600072078093730790937407A301920160917A
:104A70008D0770918E0780918F07909190070E940B
:104A800041B760938D0770938E0780938F07909343
:104A900090076091AB077091AC078091AD07909142
:104AA000AE070E94E0B6A30192010E9441B70E94A6
:104AB0008FBC6093AB077093AC078093AD07909366
:104AC000AE078092CB079092CC07A092CD07B09210
:104AD000CE0707C00E945C30F70160837183828338
:104AE00093831F5FF4E0EF0EF11C143009F084CFC4
:104AF0000E941457E9C40E9405640E944E3BE4C41E
:104B000084918F010F5F1F4F882321F00E94953100
:104B1000F801F6CFE9EFF3E084918F010F5F1F4FAB
:104B2000882321F00E949531F801F6CFE2EEF3E000
:104B300084918F010F5F1F4F882321F00E949531D0
:104B4000F801F6CFE2EDF3E084918F010F5F1F4F84
:104B5000882321F00E949531F801F6CFE1ECF3E0D3
:104B600084918F010F5F1F4F882321F00E949531A0
:104B7000F801F6CFE0EBF3E084918F010F5F1F4F58
:104B8000882321F00E949531F801F6CFE1EAF3E0A5
:104B900084918F010F5F1F4F882321F00E94953170
:104BA000F801F6CFECE8F3E084918F010F5F1F4F1F
:104BB000882321F00E949531F801F6CFE6E7F3E073
:104BC00084918F010F5F1F4F882321F00E94953140
:104BD000F801F6CFE1E6F3E084918F010F5F1F4FFC
:104BE000882321F00E949531F801F6CFE4E4F3E048
:104BF00084918F010F5F1F4F882321F00E94953110
:104C0000F801F6CFECE2F3E084918F010F5F1F4FC4
:104C1000882309F459C40E949531F801F5CF85E441
:104C20000E948F30882381F00E944D30882361F0EC
:104C3000EBEDF3E284918F010F5F1F4F882321F08A
:104C40000E949531F801F6CF81E40E948F308823CD
:104C500081F00E944D30882361F0E1EDF4E0849111
:104C60008F010F5F1F4F882321F00E949531F801BB
:104C7000F6CF0091200510912105D8018D918D016D
:104C8000882309F466C90E949531F7CFEDEEF4E070
:104C900084918F010F5F1F4F882321F00E9495316F
:104CA000F801F6CFE5EEF4E084918F010F5F1F4F1E
:104CB000882321F00E949531F801F6CF659903C051
:104CC0000DEE12E002C002EF12E0F80181918F01B7
:104CD000882319F00E949531F8CF8AE00E9495311F
:104CE000EDEDF4E084918F010F5F1F4F882321F0D9
:104CF0000E949531F801F6CF8091030181FD03C038
:104D00000DEE12E002C002EF12E0D8018D918D018C
:104D1000882319F00E949531F8CF8AE00E949531DE
:104D2000E5EDF4E084918F010F5F1F4F882321F0A0
:104D30000E949531F801F6CF4B9B03C00DEE12E0B7
:104D400002C002EF12E0F80181918F01882309F47B
:104D500000C90E949531F7CF81E080939202809341
:104D60001F12B2C31092920210921F12ADC388ECB0
:104D700090E00E94EF328111A7C384E40E948F303B
:104D8000882309F456C00E945C3011E020E030E036
:104D9000A9010E94DCB6811101C010E010931C1221
:104DA000112309F446C00091220510E00E945C30F6
:104DB000000F111F000F111FF801E657FD4F608310
:104DC00071838283938320E030E0A90160918A029D
:104DD00070918B0280918C0290918D020E94DCB6C2
:104DE00081110CC080E090E0A0E4B0E480938A02DE
:104DF00090938B02A0938C02B0938D0220E030E060
:104E0000A90160918E0270918F0280919002909121
:104E100091020E94DCB681110CC080E090E0A0E419
:104E2000B0E480938E0290938F02A0939002B0938F
:104E300091020E944D6C48C39FEAE92E97E0F92E3B
:104E400005EB12E024E0D22ED00ED8018D918D0119
:104E50000E948F30882349F00E945C300E948FBCF2
:104E6000F7016083718382839383F4E0EF0EF11C7A
:104E7000D012EBCF0E94F74227C3F4E0EF0EF11CF3
:104E8000D01609F421C3D8018D918D010E948F3075
:104E9000882399F30E945C30F701608371838283D9
:104EA0009383EBCF0E94E53A0FC30E947B3A0CC379
:104EB0000E94093C09C30E94E53906C30E946F9F06
:104EC00003C30E94F99E00C30E945C9EFDC20E9423
:104ED0005099FAC20E940564F7C280E00E94DF3751
:104EE000F3C286E50E948F30882351F08091B6127C
:104EF0009091B712892B21F00E9416360E9402363B
:104F000083E50E948F30182F882319F00E944D30BE
:104F1000182F83E50E948F30882311F0812FCDD781
:104F20008AE50E948F30882319F00E945C307DD77B
:104F3000F0906307111103C0EBEDF3E21AC0F1101A
:104F4000FBCFEBE5FFE084918F010F5F1F4F8823BC
:104F500021F00E949531F801F6CFE7E2F5E0849167
:104F60008F010F5F1F4F882339F30E949531F8019D
:104F7000F6CF84918F010F5F1F4F882321F00E948D
:104F80009531F801F6CFF11003C060E073E002C084
:104F90006CEF72E089E195E00E94F9888AE00E9456
:104FA0009531EBEDF3E284918F010F5F1F4F882362
:104FB00021F00E949531F801F6CFECE0F5E0849104
:104FC0008F010F5F1F4F882321F00E949531F80158
:104FD000F6CFC0905F07D0906007E0906107F09037
:104FE000620720E030E0A901C701B6010E946CBD54
:104FF00018166CF0E7E0F5E084918F010F5F1F4F0A
:10500000882309F461C20E949531F801F5CF42E08E
:10501000C701B6010E94F5348AE00E94953154C25E
:1050200089E40E94BE30882321F00E942C30162F84
:1050300001C01FEF8AE40E94BE30882321F00E9445
:105040002C30062F01C00FEF8AE50E948F30F82E1A
:10505000811105C081E50E948F30D82E01C0D12C6E
:1050600017FD02C007FF03C0EBE5FFE005C0F1102C
:105070001AC0D11018C0F8CF84918F010F5F1F4F55
:10508000882321F00E949531F801F6CFE5E6F5E09E
:1050900084918F010F5F1F4F882309F415C20E946E
:1050A0009531F801F5CF153018F0EBE5FFE006C0BB
:1050B0000530D8F716C00E949531F80184918F0110
:1050C0000F5F1F4F8111F7CFE6E4F5E084918F0168
:1050D0000F5F1F4F882309F4F7C10E949531F80133
:1050E000F5CFE12E110FFF08002E000C110BE4D7B5
:1050F000DD2099F025E02E9DF0012F9DF00D11246B
:10510000E00FF11FEE0FFF1FEE0FFF1FEA52F74FE8
:10511000208131814281538103C020E030E0A90128
:10512000A5E0AE9DF001AF9DF00D11240E0F1F1FE5
:10513000000F111F000F111F0A52174F0E9446BB8C
:10514000D8016D937D938D939C9313970E9445791D
:10515000BBC158EAC52E58E0D52E62E3E62E62E1C7
:10516000F62E73E5272E72E1372E00E010E0F101F4
:10517000E355F241FFA3EEA3D1018D911D018823D8
:1051800009F48BC0F7014080518062807380F80180
:10519000EE58FD4F2081318142815381F801E25860
:1051A000FD4F60817181828193810E9446BB20E026
:1051B00030E040E05FE30E9441B79B01AC01C301D6
:1051C000B2010E946CBD181644F4F801EE5AF34E79
:1051D00085909590A590B49003C0812C912C54019A
:1051E000F801EA5BFD4E2081318142815381C30188
:1051F000B2010E9445BB9B01AC01C501B4010E94F4
:1052000045BB4B015C0120E030E040EA51EC0E94DC
:105210006CBD87FD29C020E030E040EA51E4C501C3
:10522000B4010E94DCB61816FCF0D6012D913D9118
:105230004D915C91C501B4010E9445BB9B01AC013D
:10524000C301B2010E9446BBF70160837183828370
:105250009383D6018D929D92AD92BC9213978EA1AD
:105260009FA10E94E03119C0EBE5FFE084918F011E
:105270000F5F1F4F882321F00E949531F801F6CF70
:10528000E5E8F5E084918F010F5F1F4F882309F453
:105290001BC10E949531F801F5CFB4E0CB0ED11CB3
:1052A0000C5F1F4FE4E0EE0EF11C0C30110509F00D
:1052B0005ECF0E9486380E944E3B06C10E942CA7FA
:1052C00003C10E9492A500C183E529D7882311F06C
:1052D000E4D601C081E091E089270E94AD94F4C03A
:1052E000EBEDF3E284918F010F5F1F4F882321F0D4
:1052F0000E949531F801F6CFEDEBF5E084918F0136
:105300000F5F1F4F882321F00E949531F801F6CFDF
:105310008AE505D7882309F439C0CED66B017C0114
:1053200020E030E040EA51EC0E946CBD87FD21C0D6
:1053300020E030E040EA51E4C701B6010E94DCB64B
:105340001816BCF0C0924212D0924312E09244125E
:10535000F09245120E946A64609142127091431269
:10536000809144129091451242E00E94F5340C94D1
:10537000A91FE6EAF5E084918F010F5F1F4F882394
:1053800011F40C94A91FD1D7F801F5CF4091421226
:1053900050914312609144127091451283EA95E056
:1053A0000E94A7880C94A91FEBE5FFE084918F0170
:1053B0000F5F1F4F882319F0B8D7F801F7CFE7EC3C
:1053C000F5E084918F010F5F1F4F882309F47CC0A3
:1053D000ACD7F801F6CF81E08093210283E59FD618
:1053E000811103C00E9413756FC057D681116CC024
:1053F000F9CFE090B006F090B1061E2D80915212C8
:1054000085FF12C0B701772780E296E00E94C4882A
:1054100089E28BD78AE089D742E352E161E076E006
:105420008CE096E00E94C03780913112181741F04D
:1054300083E575D6182F882321F02FD6182F01C0A9
:1054400011E086E49BD6882311F036D603C060E0D5
:1054500070E0CB0120E030E040E752E40E9422BC43
:10546000AB01BC01212F8E2D0E941B9980915212FD
:1054700085FF2AC042E352E163EE75E08DEE95E0D0
:105480000E94C037E6EDF5E084918F010F5F1F4F5A
:105490008823D1F04AD7F801F7CFEBEDF3E28491FE
:1054A0008F010F5F1F4F882319F03FD7F801F7CF07
:1054B0006091790C70917A0C8DE296E00E94F988E7
:1054C00082E233D78AE031D71092710C1092700CBF
:1054D0000E94F474B6C34091200550912105452BDC
:1054E00039F4AF01415051095093210540932005F3
:1054F00040E050E00C94C61380E0DFD40E945C389A
:1055000083E50DD6882309F447C0C7D521E0482F8D
:10551000BE016F5F7F4FCE0146960E94DA646B0139
:105520007C019B01AC010E94F2BD811130C02CEACC
:1055300035EC47E257E36E897F89888D998D0E940B
:1055400046BBAB01BC0188E292E00E948A882CEA4B
:1055500035EC47E257E369817A818B819C810E9417
:1055600046BBAB01BC0183E292E00E948A882CEA30
:1055700035EC47E257E3C701B6010E9446BBAB01D9
:10558000BC018EE192E00E948A888AE0CED60E9419
:1055900038380E944E3B98CF81E0B8CF1092300748
:1055A000109231071092320710923307109236078B
:1055B000109237071092380710923907109252074D
:1055C00010925307109254071092550710925607E5
:1055D00010925707109258071092590710924207DD
:1055E00010924307109244071092450710923A0711
:1055F00010923B0710923C0710923D0710925A07F9
:1056000010925B0710925C0710925D07109246079C
:1056100010924707109248071092490710923E07D0
:1056200010923F0710924007109241070C94951A70
:1056300023D5E82E80E5A2D5882339F10DD58B013D
:1056400077FD42CF902FECE5F2E080E38E0F2491BE
:10565000921721F031968E13FACF1AC0EBE5FFE0D6
:1056600084918F010F5F1F4F882319F05ED6F801D8
:10567000F7CFECE8F2E084918F010F5F1F4F882392
:1056800009F422CF52D6F801F6CF0DE010E0DACFC0
:1056900084E474D5882349F061E0802F0E94F95A90
:1056A0006E2D802F0E94CA5A0FCF61E0802F0E947A
:1056B000F95A6E2D802F0E94CA5AF12CB701802F03
:1056C0000E94355B0930110509F0FECEF0929E076D
:1056D000E0929D07F9CEF0D4F09022052F2D30E016
:1056E000220F331F89010E5F174F0E948ABCD80119
:1056F0006D937C938F2D0E94CC5DDED420E030E052
:105700004AEA52E40E94DCB618161CF00E94E89F98
:1057100002C00E940E640E94C74281E08093000292
:105720001092710C1092700C1AA61BA61CA61DA636
:105730001EA61FA618AA19AA1EA21EAA5CE35AAF8B
:105740008CE18EAF96E423969FAF2397C12CD12C8A
:10575000B0E8EB2E1FEBF12E812C912C540100911F
:10576000220510E0F801EE0FFF1FEE5FF74F60819A
:105770007181072E000C880B990B0E94E2B6762EE1
:10578000672E582E492E262F372F482F592FB60116
:10579000C7010E94DCB68823E9F0000F111F000F3B
:1057A000111FF801ED50F84F208131814281538162
:1057B000672D762D852D942D0E94DCB6881F8827B5
:1057C000881F8EA3CAA8CC2049F0882339F0809185
:1057D00000027ACE7C2C6D2C5E2C4F2C0E94345C07
:1057E0006B017C01DC01CB012EA53FA548A959A97D
:1057F000821B930BA40BB50BB7FD36C0D701C601B6
:1058000088519C4FAF4FBF4F8EA79FA7A8ABB9AB96
:105810000E94603CE4E2F3E084918F010F5F1F4F30
:10582000882319F082D5F801F7CF81149104A104DF
:10583000B104B1F0D501C4018854944FAF4FBF4FAC
:10584000BC01CD016C197D098E099F0928EE33E05A
:1058500040E050E00E94E8BACA01B901FCD602C09B
:105860008FE363D58AE061D50E94A96753D5E091A3
:10587000220594E0E99FF0011124ED50F84F2080BB
:105880003180028113819101A801672D762D852D2C
:10589000942D0E9445BB9F7781149104A104B1040B
:1058A00049F420E030E040E85FE30E94DCB687FF87
:1058B0000BC008C020E030E040E450E40E946CBD22
:1058C000181614F446015701AEA1AA2399F12AA58E
:1058D0003BA54CA55DA5211531054105510541F0BC
:1058E000D701C601821B930BA40BB50BB7FD22C0D9
:1058F0009101A8016EA97AAD8EAD23969FAD239735
:105900000E9445BB20E030E040EC5FE30E94DCB643
:1059100087FD5DCFD701C601805A9541AF4FBF4F7C
:105920008AA79BA7ACA7BDA72EAA3AAE0EAF239617
:105930001FAF239780910002882309F448CF811478
:105940009104A104B10429F4C72CD62CE52CF42C25
:1059500006CF98EBC91A9BE0D90AE108F108C818EC
:10596000D908EA08FB08F7FE32CFEECFA5D30E9494
:105970008ABC6739710514F066E970E0709301081C
:10598000609300080E94825D97D320E030E040EAF7
:1059900050E40E946CBD181614F40E940E6481E05D
:1059A000809300021092710C1092700C8091311251
:1059B000809322051AA61BA61CA61DA61EA61FA61E
:1059C00018AA19AA1EA21EAAACE3AAAFBCE1BEAFD8
:1059D000E6E42396EFAF2397C12CD12C60E8E62EA6
:1059E0007FEBF72E812C912C54016091000870916F
:1059F0000108072E000C880B990B0E94E2B6162FA7
:105A0000072F782E692E262F372F482F592FB601B2
:105A1000C7010E94DCB68823D1F02091FB073091AA
:105A2000FC074091FD075091FE07612F702F872DD5
:105A3000962D0E94DCB6881F8827881F8EA3CAA8CF
:105A4000CC2049F0882339F0809100023DCD1C2DF7
:105A50000D2D7E2C6F2C0E94345C6B017C01DC01CF
:105A6000CB012EA53FA548A959A9821B930BA40BD6
:105A7000B50BB7FD37C0D701C60188519C4FAF4F5A
:105A8000BF4F8EA79FA7A8ABB9AB0E94603CE8E2CE
:105A9000F3E084912F019FEF491A590A882319F0E6
:105AA00044D4F201F6CF81149104A104B104B1F001
:105AB000D501C4018854944FAF4FBF4FBC01CD01F5
:105AC0006C197D098E099F0928EE33E040E050E013
:105AD0000E94E8BACA01B901BED502C08FE325D43D
