:100000000C9474120C94A5120C94A5120C94A512C5
:100010000C94A5120C94A5120C94A5120C94A51284
:100020000C94A5120C94A5120C94A5120C94A51274
:100030000C94A5120C94A5120C94A5120C94A51264
:100040000C94A5120C942E450C94A5120C94A51298
:100050000C94A5120C94A5120C94768A0C94E88743
:100060000C94A5120C94B7380C94A5120C94A512FC
:100070000C94A5120C94A5120C94A5120C94A51224
:100080000C94A5120C94A5120C94A5120C94A51214
:100090000C94A5120C94A5120C94A5120C94A51204
:1000A0000C94A5120C94A5120C94A5120C94A512F4
:1000B0000C94A5120C94A5120C94A5120C94A512E4
:1000C0000C94A5120C94A5120C94A5120C94A512D4
:1000D0000C94A5120C94A5120C94A5120C94A512C4
:1000E0000C94A512ED38F438083915391F3939390F
:1000F0002439393929392E3939393639AF5AB25A72
:10010000A15AA55AAB5AE95AB65ABA5AC05AC45A51
:10011000C85ACE5AD25AD65AE95ADC5AE05AE45A48
:10012000C85BCD5BD25BDC5BE65B5F5CF05BF85B86
:10013000005C0A5C145C1E5C2D5C375C5F5C415C9F
:100140004B5C555C228B278B518B568B368B428BAD
:100150000C8B084AD73B3BCE016E84BCBFFDC12F40
:100160003D6C74319ABD56833DDA3D00C77F11BEA8
:10017000D9E4BB4C3E916BAAAABE000000803F05AB
:10018000A84CCDB2D44EB93836A9020C50B99186DC
:1001900088083CA6AAAA2ABE000000803F004E4163
:1001A0004E494E495459494E46CDCCCC3D0AD723F1
:1001B0003C17B7D13877CC2B329595E6241FB14F39
:1001C0000A000020410000C84200401C4620BCBE7E
:1001D0004CCA1B0E5AAEC59D743C3C3C2067636FF5
:1001E00064655F4732380A00203A203E2028686F55
:1001F0006D655F616C6C207C7C20686F6D655A2931
:10020000203E2066696E616C0A0020206375727260
:10021000656E745F706F736974696F6E3D00203A2C
:10022000203E20686F6D65580A0020206375727249
:10023000656E745F706F736974696F6E3D00203A0C
:10024000203E20686F6D65590A0020206375727228
:10025000656E745F706F736974696F6E3D00526193
:10026000697365205A20286265666F726520686F21
:100270006D696E672920746F20003E20656E64737F
:10028000746F70732E656E61626C6528747275652B
:10029000290A003E3E3E2067636F64655F4732383F
:1002A0000A00205A3A200020593A20004265642072
:1002B000583A20004D65736820706F696E74206332
:1002C000616E6E6F74206265207265736F6C766507
:1002D000640A005072696E742074696D653A20007A
:1002E00050726F7465637465642050696E0A0043D0
:1002F00061703A454D455247454E43595F50415212
:100300005345523A310A004361703A434153455FC5
:100310004C494748545F4252494748544E4553530D
:100320003A300A004361703A544F47474C455F4C9E
:1003300049474854533A300A004361703A534F4694
:1003400054574152455F504F5745523A300A004387
:1003500061703A4C4556454C494E475F44415441C3
:100360003A310A004361703A5A5F50524F42453A5F
:10037000310A004361703A4155544F4C4556454C43
:100380003A310A004361703A5052494E545F4A4F25
:10039000423A310A004361703A50524F4752455336
:1003A000533A300A004361703A4155544F52455018
:1003B0004F52545F54454D503A310A004361703AF0
:1003C000454550524F4D3A310A004649524D57412A
:1003D00052455F4E414D453A4D61726C696E203118
:1003E0002E312E342E352E312028476974687562DF
:1003F0002920534F555243455F434F44455F555263
:100400004C3A68747470733A2F2F67697468756218
:100410002E636F6D2F4D61726C696E4669726D77D8
:100420006172652F4D61726C696E2050524F544F4E
:10043000434F4C5F56455253494F4E3A312E302070
:100440004D414348494E455F545950453A33442045
:100450005072696E74657220455854525544455225
:100460005F434F554E543A3220555549443A6365DF
:100470006465326132662D343161322D343734385F
:100480002D396231322D6335356336326633363776
:1004900066660A002F2F20007A5F6D696E3A200091
:1004A000795F6D696E3A2000785F6D696E3A200061
:1004B0005265706F7274696E6720656E6473746FD5
:1004C00070207374617475730A0053657474696E77
:1004D000672054726176656C20416363656C657258
:1004E0006174696F6E3A200053657474696E672099
:1004F0005265747261637420416363656C657261F7
:1005000074696F6E3A200053657474696E67205089
:1005100072696E7420416363656C65726174696FA2
:100520006E3A200053657474696E67205072696E6C
:100530007420616E642054726176656C204163633F
:10054000656C65726174696F6E3A2000486F7465FE
:100550006E64206F6666736574733A000001363707
:100560002603FF3C3D380EFF2E303E12FFFF0C08E5
:1005700009FFFFFF1A1C18FFFF24221EFFFF08447B
:100580000AFF4307FF45FFFFFFFFFFFF20643A001C
:1005900020693A0020703A0020643A0020693A004D
:1005A00020703A0043290A0061626C656420286D5E
:1005B000696E2074656D702000436F6C64206578EF
:1005C0007472756465732061726520004B6420004D
:1005D00023646566696E65202044454641554C5448
:1005E0005F004B69200023646566696E65202044C6
:1005F000454641554C545F004B70200023646566AE
:10060000696E65202044454641554C545F00504971
:1006100044204175746F74756E652066696E6973E8
:10062000686564212050757420746865206C61735E
:1006300074204B702C204B6920616E64204B642029
:10064000636F6E7374616E74732066726F6D206277
:10065000656C6F7720696E746F20436F6E66696793
:1006600075726174696F6E2E680A005049442041AA
:1006700075746F74756E65206661696C65642120A0
:1006800074696D656F75740A005049442041757432
:100690006F74756E65206661696C656421205465B0
:1006A0006D706572617475726520746F6F20686912
:1006B00067680A00204B643A2000204B693A20000A
:1006C000204B703A20000A20436C617373696320E9
:1006D000504944200A002054753A2000204B753AB6
:1006E0002000206D61783A2000206D696E3A20006C
:1006F00020643A200020626961733A20004F6666E8
:100700000A00466164652048656967687420004294
:100710006564204C6576656C696E6720004661698A
:100720006C656420746F20656E61626C6520426543
:1007300064204C6576656C696E670A004D65736868
:1007400020706F696E742063616E6E6F74206265D5
:10075000207265736F6C7665640A004D3432312007
:10076000696E636F727265637420706172616D652A
:100770007465722075736167650A00546F6F206637
:1007800061722066726F6D207265666572656E6358
:100790006520706F696E740A003A20007A5F6D6997
:1007A0006E3A20202D3230207A5F6D61783A202019
:1007B0003230005A204F666673657420004E6F20F9
:1007C00063617365206C696768740A003C3C3C2077
:1007D00067636F64655F540A00203A2041465445C0
:1007E000520A00202063757272656E745F706F73B9
:1007F0006974696F6E3D00203A204245464F52456C
:100800000A00202063757272656E745F706F736981
:1008100074696F6E3D003E3E3E2067636F64655FA6
:10082000542800556E6B6E6F776E20636F6D6D612F
:100830006E643A2022004B494C4C45442E20002542
:1008400069730025696D2025697300256968202575
:10085000696D202569730025696420256968202554
:10086000696D202569730025697920256964202533
:1008700069682025696D20256973002C20002C20D3
:1008800000203A2073796E635F706C616E5F706FE9
:10089000736974696F6E0A00202063757272656EE9
:1008A000745F706F736974696F6E3D00656E71750A
:1008B000657565696E672022004E6F204C696E6514
:1008C000204E756D62657220776974682063686573
:1008D000636B73756D2C204C617374204C696E656D
:1008E0003A20005072696E7465722073746F707074
:1008F00065642064756520746F206572726F727311
:100900002E2046697820746865206572726F7220A7
:10091000616E6420757365204D39393920746F20FC
:10092000726573746172742E202854656D706572DF
:1009300061747572652069732072657365742E2009
:1009400053657420697420616674657220726573E2
:1009500074617274696E67290A004E6F204368657E
:10096000636B73756D2077697468206C696E6520A0
:100970006E756D6265722C204C617374204C696ECB
:10098000653A2000636865636B73756D206D6973EC
:100990006D617463682C204C617374204C696E65C2
:1009A0003A20004C696E65204E756D626572206953
:1009B00073206E6F74204C617374204C696E6520D7
:1009C0004E756D6265722B312C204C617374204C16
:1009D000696E653A20004D3131300020496E7661F4
:1009E0006C6964206578747275646572200000001B
:1009F000000000000000000040C0000066430080CE
:100A00008943000052430A20736F66745F656E6409
:100A100073746F705F6D6178203D20000A20736FE2
:100A200066745F656E6473746F705F6D696E203D90
:100A300020000A20706F736974696F6E5F73686954
:100A40006674203D200020617869733A0A20686F3F
:100A50006D655F6F6666736574203D2000466F723A
:100A600020003C3C3C20646F5F626C6F636B696E7E
:100A7000675F6D6F76655F746F0A003E3E3E20646F
:100A80006F5F626C6F636B696E675F6D6F76655FDA
:100A9000746F00203A2073657475705F666F725FC3
:100AA000656E6473746F705F6F725F70726F626592
:100AB0005F6D6F76650A00202063757272656E74D3
:100AC0005F706F736974696F6E3D00203A20636CCC
:100AD00065616E5F75705F61667465725F656E6497
:100AE00073746F705F6F725F70726F62655F6D6F4E
:100AF00076650A00202063757272656E745F706F90
:100B0000736974696F6E3D006465706C6F793A202B
:100B100000203A207365745F70726F62655F646570
:100B2000706C6F7965640A00202063757272656E5F
:100B3000745F706F736974696F6E3D007265736581
:100B4000745F6265645F6C6576656C0A002028647A
:100B50006F6E65290A004578747261706F6C6174FC
:100B600065205B0042696C696E656172204C657638
:100B7000656C696E6720477269643A0A0053756252
:100B800064697669646564207769746820434154B8
:100B90004D554C4C20524F4D204C6576656C696E1E
:100BA0006720477269643A0A00202863616C6375A4
:100BB0006C6174656429210A0020213D20004545AF
:100BC00050524F4D20435243206D69736D617463E1
:100BD00068202D202873746F726564292000290A0B
:100BE000002062797465733B206372632000207378
:100BF000746F7265642073657474696E67732072B4
:100C00006574726965766564202800204D61726C98
:100C1000696E3D563339290A0028454550524F4DDB
:100C20003D00454550524F4D2076657273696F6E99
:100C3000206D69736D61746368200048617264633C
:100C40006F6465642044656661756C7420536574D7
:100C500074696E6773204C6F616465640A00FA0002
:100C60000000FA00000032000000DC050000000077
:100C70007A4400007A440000A0400000C84200000E
:100C8000A0420000A0420000484400004C43202045
:100C90004D383531205A005A2D50726F6265204F01
:100CA000666673657420286D6D293A0A0020440039
:100CB00020490020204D33303420500020440020B3
:100CC000490020204D33303120500020440020497D
:100CD0000020500020204D33303120450050494441
:100CE0002073657474696E67733A0A00205A002095
:100CF000204D3432302053004175746F20426564BA
:100D0000204C6576656C696E673A0A0020590020B0
:100D1000580020204D323138205400486F74656EE1
:100D200064206F6666736574733A0A00205A002067
:100D3000590020204D323036205800486F6D652014
:100D40006F66667365743A0A00204500205A0020D9
:100D5000590020580020420020540020204D3230FD
:100D600035205300416476616E6365643A20533CDC
:100D70006D696E5F66656564726174653E20543CA2
:100D80006D696E5F74726176656C5F6665656472CD
:100D90006174653E20423C6D696E5F7365676D6589
:100DA0006E745F74696D655F6D733E20583C6D6154
:100DB000785F78795F6A65726B3E205A3C6D617826
:100DC0005F7A5F6A65726B3E20453C6D61785F6556
:100DD0005F6A65726B3E0A0020540020520020209A
:100DE0004D323034205000416363656C657261742C
:100DF000696F6E2028756E6974732F7332293A20DB
:100E0000503C7072696E745F616363656C3E205222
:100E10003C726574726163745F616363656C3E20EC
:100E2000543C74726176656C5F616363656C3E0A05
:100E300000204500205A0020590020204D3230313A
:100E40002058004D6178696D756D20416363656C54
:100E500065726174696F6E2028756E6974732F7383
:100E600032293A0A00204500205A0020590020204B
:100E70004D3230332058004D6178696D756D2066B4
:100E800065656472617465732028756E6974732F6B
:100E900073293A0A00204500205A002059002020DA
:100EA0004D3932205800537465707320706572207C
:100EB000756E69743A0A0020204D3230302044307B
:100EC0000A0020204D3230302054312044002020B0
:100ED0004D3230302044002044697361626C656497
:100EE0000A0046696C616D656E742073657474697F
:100EF0006E67733A002020473231202020203B20AB
:100F0000556E69747320696E206D6D0A0024F4D4E7
:100F10003050C38E20C2A24017828B7011127A917A
:100F20000D816CD90AA861E108C758660761514371
:100F3000061E4B5D05C145A7041A411104093D98E1
:100F400003713931034036DB0265339102D43054EA
:100F500002802E1D02632CEE01752AC501B028A067
:100F600001102781018F2564012B244B01E02234DD
:100F700001AC211F018D200D01801FFC00841EED9E
:100F800000971DDF00B81CD200E61BC600201BBC6A
:100F900000641AB200B219A8000A19A0006A1899D0
:100FA00000D117910040178B00B516840031167ED2
:100FB00000B31579003A157300C7146F0058146A0E
:100FC00000EE1366008813630025135E00C7125BF2
:100FD000006C12570015125400C111510070114FCE
:100FE0000021114B00D61049008D104700461044D7
:100FF0000002104200C00F4000800F3E00420F3C34
:1010000000060F3B00CB0E3800930E37005C0E3508
:1010100000270E3400F30D3200C10D3100900D3069
:1010200000600D2E00320D2D00050D2C00D90C2B6B
:1010300000AE0C2900850C29005C0C2700350C271C
:10104000000E0C2600E80B2400C40B2400A00B2388
:10105000007D0B23005A0B2100390B2100180B20B7
:1010600000F80A1F00D90A1E00BB0A1E009D0A1DB7
:1010700000800A1D00630A1C00470A1B002C0A1B83
:1010800000110A1A00F7091A00DD091900C409192C
:1010900000AB091900920917007B091800630917B2
:1010A000004C09160036091600200916000A091519
:1010B00000F5081500E0081400CC081400B8081466
:1010C00000A4081400900813007D0812006B081398
:1010D00000580812004608120034081100230811B5
:1010E000001208110001081100F0071000E00710BD
:1010F00000D0071000C0071000B0070F00A10710B4
:101100000091070E0083070F0074070F0065070E9C
:101110000057070E0049070E003B070D002E070E73
:101120000020070D0013070D0006070D00F9060C3F
:1011300000ED060D00E0060C00D4060C00C8060CFD
:1011400000BC060C00B0060C00A4060B0099060CAF
:10115000008D060B0082060B0077060B006C060B59
:101160000061060A0057060B004C060A0042060AF8
:101170000038060A002E060A0024060A001A060A8B
:10118000001006090007060A00FD050900F405091C
:1011900000EB050900E2050900D9050900D00509A1
:1011A00000C7050900BE050900B5050800AD050822
:1011B00000A50509009C050800940508008C050899
:1011C00000840508007C050800740508006C05070C
:1011D00000650508005D050700560508004E050777
:1011E00000470507004005080038050700310507DE
:1011F000002A050700230507001C05060016050741
:10120000000F0507000805060002050700FB04069D
:1012100000F5040700EE040600E8040600E20407F7
:1012200000DB040600D5040600CF040600C904064E
:1012300000C3040600BD040600B7040600B104059F
:1012400000AC040600A6040600A00405009B0406EA
:101250000095040500900406008A04050085040535
:1012600000800406007A040500750405007004057A
:10127000006B04050066040500610405005C0405BC
:101280000057040500520405004D040500480405FC
:1012900000430405003E0404003A0405003504053B
:1012A00000300404002C0405002704040023040576
:1012B000001E0404001A04040016040500110404AE
:1012C000000D0404000904050004040400000404E3
:1012D00000FC030400F8030400F4030400F003041A
:1012E00000EC030400E8030400E4030400E003044A
:1012F00000DC030400D8030400D4030400D003047A
:1013000000CC030400C8030300C503030024F40455
:10131000D9201BC40C5C0E9804C4095F02650771D8
:1013200001F405F900FB04B30048048700C1036918
:10133000005803550003034500BE023A0084023101
:101340000053022A002902250004022000E4011CA7
:1013500000C8011900AF011700980114008401139F
:1013600000710110006101100051010E0043010DD8
:101370000036010B002B010B0020010B00150109A9
:10138000000C01090003010800FB000800F300083D
:1013900000EB000700E4000600DE000600D80006AF
:1013A00000D2000600CC000500C7000500C2000501
:1013B00000BD000400B9000400B5000400B1000441
:1013C00000AD000400A9000400A5000300A2000372
:1013D000009F0004009B000300980003009500029A
:1013E0000093000300900003008D0002008B0003B7
:1013F00000880002008600020084000300810002D1
:10140000007F0002007D0002007B000200790002E4
:1014100000770001007600020074000200720001F3
:1014200000710002006F0002006D0001006C0002FC
:10143000006A000100690002006700010066000107
:10144000006500010064000200620001006100010B
:1014500000600001005F0002005D0001005C00010F
:10146000005B0001005A0001005900010058000112
:101470000057000100560001005500010054000112
:101480000053000000530001005200010051000110
:1014900000500001004F0001004E0000004E00010E
:1014A000004D0001004C0001004B0000004B00010A
:1014B000004A000100490001004800000048000106
:1014C0000047000100460000004600010045000002
:1014D00000450001004400010043000000430001FA
:1014E00000420000004200010041000000410001F4
:1014F00000400001003F0000003F0001003E0000EE
:10150000003E0001003D0000003D0001003C0000E5
:10151000003C0000003C0001003B0000003B0001DB
:10152000003A0000003A00010039000000390001D3
:1015300000380000003800000038000100370000CB
:1015400000370001003600000036000000360001C0
:1015500000350000003500000035000100340000B7
:1015600000340000003400010033000000330000AC
:1015700000330001003200000032000000320001A0
:101580000031000000310000003100010030000097
:101590000030000000300001002F0000002F00008C
:1015A000002F0000002F0001002E0000002E000080
:1015B000002E0001002D0000002D0000002D000075
:1015C000002D0001002C0000002C0000002C000069
:1015D000002C0001002B0000002B0000002B00005D
:1015E000002B0001002A0000002A0000002A000051
:1015F000002A000100290000002900000029000045
:101600000029000000290001002800000028000037
:10161000002800000028000000280001002700002A
:10162000002700000027000000270000002700011D
:101630000026000000260000002600000026000012
:101640000026000100250000002500000025000004
:1016500000250000002500000025000100240000F6
:1016600000240000002400000024000000240001E9
:1016700000230000002300000023000000230000DE
:1016800000230000002300000023000100220000CE
:1016900000220000002200000022000000220000C2
:1016A00000220001002100000021000000210000B4
:1016B00000210000002100000021000000210001A5
:1016C000002000000020000000200000002000009A
:1016D0000020000000200000002000000020000189
:1016E000001F0000001F0000001F0000001F00007E
:1016F000001F0000001F0000001F0001001E00006E
:10170000001E0000001E0000001E00000020746F7C
:101710006F206C6F6E6720657874727573696F6E79
:101720002070726576656E7465640A0020636F6C64
:101730006420657874727573696F6E207072657657
:10174000656E7465640A00627573793A207061751C
:1017500073656420666F7220696E7075740A00622A
:101760007573793A2070617573656420666F7220B5
:10177000757365720A00627573793A2070726F63CF
:10178000657373696E670A004B494C4C45442E20C3
:10179000004B494C4C20636175736564206279206D
:1017A000746F6F206D75636820696E61637469760C
:1017B000652074696D65202D2063757272656E7485
:1017C00020636F6D6D616E643A20005072696E74B3
:1017D00065722068616C7465642E206B696C6C287E
:1017E000292063616C6C6564210A00000000000020
:1017F000000000000000003C3C3C207365745F6109
:101800007869735F69735F61745F686F6D652800E5
:10181000203A200A00202063757272656E745F7032
:101820006F736974696F6E3D005D203D20003E203E
:10183000686F6D655F6F66667365745B003E207AE6
:1018400070726F62655F7A6F6666736574203D20A3
:10185000002A2A2A205A20484F4D454420574954EF
:10186000482050524F424520285A5F4D494E5F5004
:10187000524F42455F555345535F5A5F4D494E5F46
:10188000454E4453544F505F50494E29202A2A2A2E
:101890000A003E3E3E207365745F617869735F693C
:1018A000735F61745F686F6D6528000000204200FF
:1018B00000204200002041000000005761726E6964
:1018C0006E673A20486F6D696E672042756D7020B3
:1018D00044697669736F72203C20310A0002020469
:1018E0000000664300808943000055433C3C3C2097
:1018F000686F6D65617869732800203A203E204149
:1019000046544552207365745F617869735F6973EB
:101910005F61745F686F6D650A0020206375727285
:10192000656E745F706F736974696F6E3D00486FA8
:101930006D65203220536C6F773A0A004D6F7665E3
:1019400020417761793A0A00486F6D652031204661
:101950006173743A0A00FFFFFF3E3E3E20686F6DE0
:101960006561786973280000002100240027002A9F
:10197000002D003000330001010000040107010ABE
:101980000100002200250028002B002E0031003429
:101990000002010000050108010B010000200023E6
:1019A00000260029002C002F003200000100000357
:1019B00001060109010505050507050808080802D3
:1019C0000202020A0A0808040404040101010101D8
:1019D0000101010303030303030303040707070CC7
:1019E0000C0C0C0C0C0C0C0202020206060606067D
:1019F0000606060B0B0B0B0B0B0B0B01021020202A
:101A00000808102040102040800201020108040252
:101A100001010204081020408080402010080402C8
:101A20000180040201804020100804020108040221
:101A30000101020408102040800102040810204027
:101A40008000000A0B02090C0D0E080703040100B8
:101A50000000000000000000000000000000000086
:101A60000000000000000000000000000012111043
:101A70000000000000000000000000000000000066
:101A8000000000000000004B494C4C45442E200053
:101A9000202D20496E76616C6964206578747275BA
:101AA000646572206E756D62657220210A00457250
:101AB000726F723A002020506C616E6E65724275D2
:101AC0006666657242797465733A200020467265D5
:101AD00065204D656D6F72793A2000436F6D7069B6
:101AE0006C65643A204E6F762031352032303138C3
:101AF0000A00207C20417574686F723A20286E6F4E
:101B00006E652C2064656661756C7420636F6E660B
:101B10006967290A00323031372D30372D303420B3
:101B200031323A303000204C61737420557064615A
:101B30007465643A2000312E312E342E352E310A50
:101B4000004D61726C696E0020536F66747761722C
:101B5000652052657365740A002057617463686478
:101B60006F672052657365740A002042726F776E4A
:101B7000206F75742052657365740A00204578746F
:101B800065726E616C2052657365740A00506F77E0
:101B9000657255700A0073746172740A00205A3AB3
:101BA0000020593A0020583A00656E6473746F70D3
:101BB00073206869743A20003C3C3C20646F5F6885
:101BC0006F6D696E675F6D6F766528002C20002C45
:101BD00020003E3E3E20646F5F686F6D696E675FF8
:101BE0006D6F7665280047322F473320626164208D
:101BF000706172616D65746572730A0041424C20B8
:101C000041646A7573746D656E74205A002028658E
:101C10006E61626C6564290A0020286469736162E0
:101C20006C6564290A0042494C494E4541520041C5
:101C300075746F20426564204C6576656C696E67CB
:101C40003A2000204E6F7A7A6C65290A00202620FF
:101C500041626F76650020262053616D65205A2011
:101C600061730020262042656C6F77002D4261630E
:101C70006B002028526967687400205A3A00205986
:101C80003A0050726F6265204F6666736574205823
:101C90003A004649585F4D4F554E5445445F5052A7
:101CA0004F42450A0050726F62653A2000436F72DE
:101CB000650A004D616368696E6520547970653A04
:101CC000200020706F736974696F6E206F757420C7
:101CD0006F662072616E67652E0A003F50726F62F8
:101CE0006520003C3C3C2067636F64655F47323988
:101CF0000A0020636F72726563746564205A3A004B
:101D000047323920756E636F727265637465642043
:101D10005A3A00203A203E2070726F62696E672046
:101D2000636F6D706C6574650A0020206375727254
:101D3000656E745F706F736974696F6E3D00527584
:101D40006E6E696E6720696E204452592D52554E51
:101D5000206D6F64650A00473239204175746F2029
:101D6000426564204C6576656C696E670A0028429E
:101D70002961636B00284629726F6E74002852290E
:101D80006967687400284C29656674003F285629E5
:101D90006572626F7365206C6576656C206973206F
:101DA000696D706C61757369626C652028302D34C3
:101DB000292E0A00426164205A2076616C75650AFA
:101DC000004E6F2062696C696E656172206772698E
:101DD000640A00203A203E3E3E2067636F64655FE0
:101DE0004732390A00202063757272656E745F7025
:101DF0006F736974696F6E3D004C4556454C494E92
:101E00004700434F4D4D554E49434154494F4E00B5
:101E100044525952554E004552524F525300494E6A
:101E2000464F004543484F00202F002040002042ED
:101E3000403A0020403A006F6B0020573A0020578C
:101E40003A00231E1E1E171E101E021EF91D6F666D
:101E5000660044454255473A004D31313320530026
:101E6000205A3A0020423A0020436F756E74204198
:101E70003A0020453A00205A3A0020593A00583A90
:101E800000205A00205900580020204D61783A2047
:101E900000205A00205900580020204D696E3A2039
:101EA000004F6E20004F666600536F667420656EAB
:101EB0006473746F70733A200020746F6F206C6FBE
:101EC0006E6720657874727573696F6E20707265C5
:101ED00076656E7465640A0020636F6C64206578B3
:101EE00074727573696F6E2070726576656E746555
:101EF000640A006265640A002C2073797374656D4E
:101F00002073746F70706564212048656174657218
:101F10005F49443A200048656174696E67206661D4
:101F2000696C65640048656174696E672066616903
:101F30006C65640048656174696E67206661696CF0
:101F400065640048656174696E67206661696C65E7
:101F5000640070012C0190012701B0012201C00131
:101F60001D01F00118011002130130020E01600280
:101F7000090190020401C002FF000003FA004003BF
:101F8000F5008003F000D003EB002004E6007004AD
:101F9000E100E004DC004005D700C005D2004006A7
:101FA000CD00D006C8008007C3003008BE00F0088E
:101FB000B900C009B400B00AAF00B00BAA00D00C41
:101FC000A500000EA000500F9B00C01096005012FC
:101FD000910000148C00C0158700B0178200B01962
:101FE0007D00D01B7800001E730040206E00902200
:101FF0006900F024640040275F0090295A00E02B1C
:102000005500102E500020304B0010324600E033B7
:10201000410090353C001037370070383200A0394D
:102020002D00B03A2800A03B2300603C1E00103D6C
:102030001900903D1400103E0F00703E0A00C03E93
:102040000500003F0000403FFBFF803FF6FFC03F20
:10205000F1FF544845524D414C2052554E41574195
:102060005900546865726D616C2052756E617761BC
:1020700079004572723A204D494E54454D502042E8
:102080004544004572723A204D494E54454D50002A
:102090004D494E54454D50207472696767657265AD
:1020A00064004572723A204D415854454D502042CB
:1020B0004544004572723A204D415854454D5000F8
:1020C0004D415854454D502074726967676572657B
:1020D00064005374616E6461726420446576696162
:1020E00074696F6E3A20002052616E67653A200075
:1020F000204D61783A2000204D696E3A20004D65F0
:10210000616E3A200046696E69736865642100203B
:1021100072616E67653A2000206D61783A20002078
:102120006D696E3A2000207369676D613A20002066
:102130006D65616E3A20003A207A3A2000206F6681
:102140002000205A00205900205800476F696E6710
:1021500020746F3A00436C6F636B776973650A0094
:10216000436F756E7465722D0020446972656374E7
:10217000696F6E3A2000202020616E676C653A20FE
:10218000005374617274696E67207261646975735B
:102190003A2000506F736974696F6E696E672074BE
:1021A00068652070726F62652E2E2E0A003F4E7594
:1021B0006D626572206F66206C65677320696E20A2
:1021C0006D6F76656D656E74206E6F7420706C61D6
:1021D000757369626C652028302D3135292E0A000F
:1021E000590058003F53616D706C652073697A65C2
:1021F000206E6F7420706C61757369626C65202845
:10220000342D3530292E0A004D3438205A2D507285
:102210006F6265205265706561746162696C697492
:102220007920546573740A003F2856296572626FDD
:102230007365206C6576656C20697320696D706CC0
:1022400061757369626C652028302D34292E0A006F
:102250006D0046696C616D656E7420757365643AD6
:10226000200053746174733A20002C204C6F6E6709
:10227000657374206A6F623A2000546F74616C2039
:1022800074696D653A200053746174733A20002CB0
:10229000204661696C65643A20002C2046696E69AD
:1022A000736865643A20005072696E74733A200056
:1022B00053746174733A20000000A0400000A040F5
:1022C000000000402044697363726570616E637939
:1022D0003A00326E642050726F6265205A3A0020D4
:1022E0003A203C3C3C2072756E5F7A5F70726F6280
:1022F000650A00202063757272656E745F706F737B
:102300006974696F6E3D003173742050726F62653D
:10231000205A3A00203A203E3E3E2072756E5F7A87
:102320005F70726F62650A00202063757272656E5D
:10233000745F706F736974696F6E3D003C3C3C2044
:1023400070726F62655F70740A00205A3A20002034
:10235000593A200042656420583A2000203A200A69
:1023600000202063757272656E745F706F7369749C
:10237000696F6E3D0073746F77290A002C20002C62
:1023800020003E3E3E2070726F62655F70742800D0
:10239000203A203C3C3C20646F5F70726F62655F46
:1023A0006D6F76650A00202063757272656E745FCA
:1023B000706F736974696F6E3D00203A203E3E3E37
:1023C00020646F5F70726F62655F6D6F76650A0083
:1023D000202063757272656E745F706F73697469C3
:1023E0006F6E3D00646F5F70726F62655F726169EE
:1023F000736528002066697273740A005A005900D8
:102400005800486F6D6520006563686F3A0041634E
:10241000746976652045787472756465723A200037
:10242000203A204D6F7665206261636B0A002020A0
:1024300064657374696E6174696F6E3D00203A2043
:1024400053796E6320416674657220546F6F6C63BC
:1024500068616E67650A00202063757272656E742C
:102460005F706F736974696F6E3D00207D0A002C88
:1024700020004F666673657420546F6F6C20585946
:10248000206279207B20004E6F206D6F7665206F73
:102490006E20746F6F6C6368616E67650A004572C9
:1024A000726F722077726974696E6720746F20454D
:1024B0004550524F4D210A00290A00206279746567
:1024C000733B20637263200053657474696E677395
:1024D0002053746F726564202800526573656E64C2
:1024E0003A20006F6B000CAF11241FBECFEFD1E27A
:1024F000DEBFCDBF00E00CBF14E0A0E0B2E0E0E141
:10250000F7E701E00BBF02C007900D92A63FB107AD
:10251000D9F722E1A6EFB4E001C01D92A53BB207B6
:10252000E1F712E1C4E7D2E100E006C0219701091A
:10253000802FFE010E9458BBC337D10780E00807F7
:10254000A9F70E946BAB0C9486BB0C9400002F92F1
:102550003F924F925F926F927F928F929F92AF9233
:10256000BF92CF92DF92EF92FF920F931F93CF9380
:10257000DF93CDB7DEB7C655D1090FB6F894DEBFED
:102580000FBECDBF0091180D20E6029F80011124DF
:10259000045E1A4F8091F00E80FF1AC0E8E0F4E26A
:1025A00084917F013FEFE31AF30A811102C07801A1
:1025B00004C00E945731F701F3CFD7018D917D01FF
:1025C000882319F00E945731F8CF8AE00E945731D2
:1025D00081E090E09093800C80937F0C1092150521
:1025E000109214058FE38093AA061092A906109208
:1025F000A806109210051092110510921205109263
:102600001305F80180810F5F1F4F8032D1F38E34A4
:10261000B1F4818190ED980F9A3020F08D3211F055
:102620008B3269F43296DF0131962C9120532A3097
:10263000D0F3CD01FC01019620812032D9F3F09333
:10264000890CE093880C7F01BFEFEB1AFB0A108125
:102650006AE270E0C7010E9466BB009731F0FC019E
:10266000319780818032E1F311821D3429F01435D5
:1026700019F0173409F0CCC0F70180812FEFE21A6E
:10268000F20A8032C9F380538A3008F0C1C0109337
:10269000AA062091A8063091A9064AE03196429FE9
:1026A000C001439F900D1124DF0111972C91022E40
:1026B000000C330B20533109280F391F80818053C0
:1026C0008A3060F33093A9062093A806CF01319693
:1026D000DC014C914032D1F31D34D1F42E3131055F
:1026E00091F03CF42731310571F02C31310581F442
:1026F0000AC02537310564F02737310524F0203A28
:10270000E3E03E0729F4909315058093140580C0FB
:1027100010921505109214050091880C61E070E08C
:10272000FD0131968C91882309F472C08132A1F4A5
:102730001D3491F42032310579F4F0931505E093BE
:10274000140563E270E0CF010E9466BB009709F4B4
:102750005FC0DC011C925CC09FEBD92ED80E49E112
:10276000C42ECD14C0F1AF01FA0190814F5F5F4FCD
:102770009032D1F340ED490F4A3040F043ED490F1C
:10278000423020F09B3211F00C944529AF01AD2C62
:10279000B12C7501A3E0F594E794AA95E1F7C70180
:1027A000805F9A4F7C018D2D8770DB0102C0AA0FDC
:1027B000BB1F8A95E2F7CD01D7019C91892B8C93A1
:1027C0004115510511F0401B01C040E0D501AA5050
:1027D000BB4F4C930AC08091140590911505892B2D
:1027E00021F4B0931505A0931405808181548A319A
:1027F00010F4DF0195CFDF0131969C9190539A3010
:10280000D0F3CD01FC01019640814032D9F3F1CFE4
:102810008091AA068D3409F4CEC4843511F40C9449
:10282000CD28873411F00C9424292091A8063091EA
:10283000A9062C31310509F44BC09CF42430310534
:102840003CF422303105DCF537FF2DC00C943E29D5
:102850002430310511F00C943E290E94C65D0C9481
:102860003E292A32310509F4BBC354F42D31310518
:1028700009F4FAC12E31310509F4FAC10C943E294C
:102880002B35310509F47CC22C35310509F47FC2A2
:102890002A35310511F00C943E2910921B05109237
:1028A0002A0D0C943E2980915402882311F40C9433
:1028B0003E290E940A5E0E9440590C943E2981E004
:1028C0002230310509F080E00E94AC5E0C943E2974
:1028D0008091F00E85FF0EC0E3E9F2E084918F0154
:1028E0000F5F1F4F882321F00E945731F801F6CF68
:1028F0000E94DB5C0E949C9080E00E941F2FC09091
:10290000590DCAA221E040E050E0BA0180E00E94E7
:1029100023A20E946B378091F00E85FF0CC0EAE77E
:10292000F2E084918F010F5F1F4F882321F00E94F6
:102930005731F801F6CF11E010933F0288E50E946D
:102940005130382E89E50E945130082F8AE50E94C7
:102950005130282E311004C0011104C0182705C0C1
:10296000011102C010E001C0182F0E945B2F11114D
:1029700005C0311003C0002309F43FC120E030E05E
:1029800040EA50E46091EC0E7091ED0E8091EE0EF5
:102990009091EF0E0E9469B86B017C0160934B0F20
:1029A00070934C0F80934D0F90934E0F2091D80E43
:1029B0003091D90E4091DA0E5091DB0E0E948FBA01
:1029C0001816E4F48091F00E85FF09C0B701A60146
:1029D0008EE592E00E94974C8AE00E94573119825E
:1029E0001A821B821C829E012F5F3F4F4BE45FE0E7
:1029F00064ED7EE080ED9EE00E94AC35111106C0D2
:102A0000332009F4D2C0002309F4E5C01092D40E9B
:102A10001092D50E1092D60E1092D70E1092D00EA4
:102A20001092D10E1092D20E1092D30E0E949537B2
:102A3000E6E5F9E1D490DBA2E0EEF8E1C590D590AF
:102A4000E590F490E4EEF8E185909590A590B4902F
:102A5000A5019401C701B6010E948FBA18162CF483
:102A6000A7019601C501B40104C0A5019401C701E5
:102A7000B6010E9445B96E8F7F8F88A399A38BEA18
:102A8000682E88E1782EF301659175918591949176
:102A90002FEA422E28E1522EF201259135914591DF
:102AA00054910E94FFB387FF02C0F30101C0F201FD
:102AB00045905590659074902E8D3F8D48A159A1F9
:102AC000CA01B9010E9464B420E030E040E85FE34D
:102AD0000E9469B80E94D4BA9B01AC01C301B20143
:102AE0000E9464B46A8F7B8F8C8F9D8FE7E5F9E13C
:102AF00024912E8F20E030E040EC5FE3C501B4016B
:102B00000E9464B42B013C013E8D632F330F770B81
:102B1000880B990B0E9405B49B01AC01C301B20163
:102B20000E9464B469837A838B839C8320E030E0C5
:102B300040EC5FE3C701B6010E9464B46B017C0105
:102B40004BA1642F440F770B880B990B0E9405B49F
:102B50009B01AC01C701B6010E9464B46E8B7F8BF0
:102B6000888F998F9E01265E3F4F48ED5EE0BE0143
:102B70006F5F7F4FCE0146960E94AC351092CF0E0C
:102B80001092D40E1092D50E1092D60E1092D70E2F
:102B90001092D00E1092D10E1092D20E1092D30E2F
:102BA000111105C0011103C014C0002331F181E0EF
:102BB00090E00E9403528091F00E85FF08C040ED26
:102BC0005EE06EE372E08AE492E00E94CF3611117B
:102BD00002C0332091F080E090E00E940352809187
:102BE000F00E85FF08C040ED5EE06EE172E08AE223
:102BF00092E00E94CF36111102C0222081F082E0C3
:102C000090E00E9403528091F00E85FF08C040EDD5
:102C10005EE068EE71E08AE092E00E94CF360E94AA
:102C200095378091280780933F020E94473721E023
:102C300040E050E0BA018AA10E94A16B0E94C26CE0
:102C40008091F00E85FD02C00C943E29E9EDF1E083
:102C500084918F010F5F1F4F882311F40C943E293C
:102C60000E945731F801F4CF0E9484650C943E29EC
:102C7000C090D00ED090D10EE090D20EF090D30E36
:102C800088E50E948030811109C020E030E040E9F1
:102C900051E4C701B6010E9469B802C00E941E300B
:102CA0006E8B7F8B888F998FC090D40ED090D50E6D
:102CB000E090D60EF090D70E89E50E948030811109
:102CC00009C020E030E040E052E4C701B6010E94B4
:102CD00069B802C00E941E306B017C0169837A834F
:102CE0008B839C834090E80E5090E90E6090EA0E32
:102CF0007090EB0E2091E40E3091E50E4091E60EBF
:102D00005091E70E6E897F89888D998D0E9468B8F1
:102D10004B015C0124EF3DEF4FE851E40E948FBA74
:102D200087FF02C00C943E2922E430E046E653E4DB
:102D3000C501B4010E94FFB3181614F40C943E2987
:102D4000A3019201C701B6010E9468B86B017C0122
:102D500024EF3DEF4FEF51E40E948FBA87FF02C08E
:102D60000C943E2921E230E849E853E4C701B6015A
:102D70000E94FFB3181614F40C943E290C945629A3
:102D800081E080931B0580932A0D0C943E2985E4F5
:102D90000E9480308E8F811102C00E949C90109200
:102DA000260D1092270D1092280D1092290DCE8C11
:102DB000CC2009F448C01092A4061092A5061092E7
:102DC000A6061092A7061092310D1092320D1092A5
:102DD000330D1092340D10924D0D10924E0D109235
:102DE0004F0D1092500D1092510D1092520D1092E5
:102DF000530D1092540D10923D0D10923E0D1092F5
:102E00003F0D1092400D1092350D1092360D10921C
:102E1000370D1092380D1092550D1092560D1092DC
:102E2000570D1092580D1092410D1092420D1092B4
:102E3000430D1092440D1092390D10923A0D1092DC
:102E40003B0D10923C0D23EE32E03CA32BA3A0EDF2
:102E50002A2EAEE03A2EB3E5AB2EBFE0BB2E00E04B
:102E600010E01AA2ABA1BCA18D91BCA3ABA30E94A0
:102E70008030882309F466C0D1012D913D914D9198
:102E80005C912BA73CA74DA75EA70E941E306B014B
:102E90007C010330110599F58090590DB4E08B9EAB
:102EA00040011124F401E456F94FF8A7EFA3408044
:102EB00051806280738020E030E0A901C301B2013B
:102EC0000E94FFB38823D9F073016201F7FAF094EE
:102ED000F7F8F094F401EF5AF24FC082D182E28207
:102EE000F382F401E35CF24FC082D182E282F3828A
:102EF000AFA1B8A51D921D921D921C921397F101CE
:102F0000C082D182E282F38203301105D9F02BA571
:102F10003CA54DA55EA5C701B6010E9468B89B01FE
:102F2000AC01D5016D917D918D919C910E9469B804
:102F3000F5016083718382839383C8010E94A2316B
:102F4000F1E0FAA30F5F1F4F24E0220E311C34E0A2
:102F5000A30EB11C0430110509F084CFCAA0CC2007
:102F600019F00E94953738C0DE8CDD20A9F1C090A1
:102F7000DC0ED090DD0EE090DE0EF090DF0E2091A2
:102F80007307309174074091750750917607C70118
:102F9000B6010E9464B40E949ABA6093140F7093B1
:102FA000150F8093160F9093170FC701B6010E945B
:102FB000ADB92FB7F8946093B30D7093B40D8093AF
:102FC000B50D9093B60D2FBF1092040F1092050F00
:102FD0001092060F1092070F0E94C26C0C943E29AB
:102FE00080915402882311F40C943E2989E40E94B4
:102FF0008030182F882321F00E94EE2FF62E01C07A
:10300000F12C8AE40E948030082F882331F00E943E
:10301000EE2FE62E111104C00BC0E12C1123C1F0DC
:1030200024E02F1510F00C94B02BE4EBF2E004C078
:1030300034E03E15D0F30CC084918F010F5F1F4F19
:10304000882311F40C943E290E945731F801F4CFE3
:103050000E945B2F112341F1209124073091250715
:103060004F2D4203B001439F700D11248091200722
:1030700090912107680F791F072E000C880B990B80
:103080000E9405B42091E40E3091E50E4091E60EC9
:103090005091E70E0E9469B86093430F7093440FFC
:1030A0008093450F9093460F002341F1209126070E
:1030B000309127075E2D5203B001539F700D1124EC
:1030C0002091220730912307620F731F072E000CF7
:1030D000880B990B0E9405B42091E80E3091E90EFF
:1030E0004091EA0E5091EB0E0E9469B86093470F31
:1030F0007093480F8093490F90934A0F80E50E9488
:1031000051308823A1F10E940F30882381F11123CF
:10311000B1F020E030E040E951E46091430F70915C
:10312000440F8091450F9091460F0E9468B86093BC
:10313000430F7093440F8093450F9093460F0023E5
:10314000B1F020E030E040E052E46091470F709130
:10315000480F8091490F90914A0F0E9468B8609380
:10316000470F7093480F8093490F90934A0F86E45E
:103170000E9480308823D9F00E941E306B017C01B0
:1031800020E030E0A9010E948FBA181684F420E0F4
:1031900030E040E752E4C701B6010E9445B96093B0
:1031A00075027093760280937702909378020E9462
:1031B00040590C943E298091A8069091A9068F361B
:1031C000910509F417C50CF0E2C08534910509F4A6
:1031D000A3C40CF084C08B33910509F4D1C20CF068
:1031E00055C08231910509F438C5D4F497FF02C067
:1031F0000C943E29823091050CF4ACC1419711F03A
:103200000C943E295F988A989FB7F89480910801A2
:103210008E7F809308019FBF129847980C943E2997
:103220008A32910509F4B0C1B4F44F9711F00C94AF
:103230003E298AE19FE00E94A98F6E8B7F8B888F49
:10324000998FBE016F5F7F4FCE0146960E948C30F2
:10325000E8E0F4E283C18033910509F4A3C1CA9781
:1032600011F00C943E2910929C0610929D0610922B
:103270009E0610929F061092A0061092A106109230
:10328000A2061092A3060CE013E0BAC280349105A6
:1032900009F480C37CF48D33910509F4B9C10CF4B1
:1032A000D5C18E33910509F49AC1CF9709F47EC137
:1032B0000C943E298234910509F40DC30CF433C3F8
:1032C0008334910509F400C38434910511F00C9402
:1032D0003E29109229070E945C9E0C943E2983355A
:1032E000910509F4B5C45CF58C34910509F44DC41D
:1032F0009CF48734910509F421C40CF41BC4883470
:10330000910509F434C48B34910511F00C943E29D5
:103310000E94AC9A0C943E298E34910509F453C452
:103320000CF44DC48135910509F48EC482359105A4
:1033300011F00C943E2910921A050C943E298936FE
:10334000910509F45BC49CF48535910509F4B8C472
:103350000CF483C48C35910509F4CDC488369105ED
:1033600011F00C943E290E9422730C943E298B3656
:10337000910509F457C40CF451C48D36910509F434
:1033800049C48E36910509F422C40C943E298C3D23
:10339000910509F4D1C70CF05EC08B39910509F491
:1033A00035C44CF58637910509F4C7C58CF48237CE
:1033B000910509F42AC58337910509F42CC5813795
:1033C000910511F00C943E290E94166E0C943E2932
:1033D0008837910509F44EC60CF4E6C58937910586
:1033E00009F44FC68C38910511F00C943E290E94C7
:1033F000FD6D0C943E298C3C910509F4B3C6DCF4B8
:10340000883C910509F443C64CF48E3B910511F0BC
:103410000C943E290E94EF6F0C943E29893C910543
:1034200009F49CC68B3C910511F00C943E290E9436
:103430007B6C0C943E298E3C910509F46AC70CF410
:10344000FDC6833D910509F467C78A3D910509F4DE
:1034500066C70C943E298239A1E09A0711F40C94B6
:103460004B26E4F58F32E1E09E0711F40C945B23C8
:10347000BCF4823E910509F485C734F48D3D910575
:1034800009F467C70C943E298D3221E0920709F4B4
:10349000A3C78E32914011F40C9407230C943E295B
:1034A000833641E0940711F40C94B4283CF4803343
:1034B000914011F40C948A220C943E298039B1E099
:1034C0009B0711F40C9448268139914011F00C941B
:1034D0003E2981E00E94EE360C943E29853FF1E0C2
:1034E0009F0711F40C943C28ECF4853A31E09307E3
:1034F00011F40C94EE263CF4843A914011F40C94AF
:103500004F260C943E298C3AA1E09A0711F40C94B2
:103510008727843F914011F00C943E290E945C9EC5
:103520000C943E29873FE1E09E0711F40C94422859
:1035300014F40C943F28833523E0920711F40C9483
:103540004F28873E934011F00C943E290E94D66B81
:103550000C943E290E9432970C943E2984918F014D
:103560000F5F1F4F882321F00E945731F801F6CFDB
:10357000BE016F5F7F4F83ED92E00E94104D8AE0A5
:103580000E9457310C943E2983E50E9480308111BE
:103590000C94A82984E40E94803081110C94A829FD
:1035A0000C943E290E94CF910C943E298CE40E94F9
:1035B000513081111092930C82E50E94513081119B
:1035C0001092920C81E40E945130882311F40C94E3
:1035D0003E291092920C1092930C0C943E298CE48C
:1035E0000E94513081111092330282E50E945130C5
:1035F00081111092320281E40E945130882311F42B
:103600000C943E2910923302109232020C943E29FF
:103610008CE40E945130882319F081E080933302BA
:1036200082E50E945130882319F081E080933202B4
:1036300081E40E945130882311F40C943E2981E0EA
:1036400080933302809332020C943E2920E030E0D4
:10365000A90160915B0D70915C0D80915D0D909161
:103660005E0D0E94FFB3882381F081E080935A0DA4
:103670000FE213E0D8018D918D01882319F00E948B
:103680005731F8CF8AE00E9457311092A406109269
:10369000A5061092A6061092A7061092310D109260
:1036A000320D1092330D1092340D10924D0D109278
:1036B0004E0D10924F0D1092500D10922B0D109236
:1036C0002C0D10922D0D10922E0D1092510D109266
:1036D000520D1092530D1092540D81E080934402CC
:1036E0001092450D1092460D1092470D1092480D04
:1036F0001092350D1092360D1092370D1092380D34
:1037000010929C0610929D0610929E0610929F06A3
:1037100010923D0D10923E0D10923F0D1092400DF3
:103720001092550D1092560D1092570D1092580D83
:10373000809345021092490D10924A0D10924B0D44
:1037400010924C0D1092390D10923A0D10923B0DC3
:1037500010923C0D1092A0061092A1061092A206A3
:103760001092A3061092410D1092420D1092430D3B
:103770001092440D1092300D10922F0D0C943E2992
:1037800010925A0D10929C0610929D0610929E0661
:1037900010929F061092A0061092A1061092A20607
:1037A0001092A3060EE313E0F80181918F018823A4
:1037B00011F10E945731F8CF0AE217E080E20E942F
:1037C0005731F80161917191819191918F0142E09E
:1037D0000E94C8348CE20E945731D80114966D9132
:1037E0007D918D919C91179742E00E94C834B7E07B
:1037F00002331B0719F78AE00E9457310C943E29C7
:10380000D8018D918D01882319F00E945731F8CF8E
:103810008AE00E945731FCE98F2EF6E09F2E05E4E6
:103820001DE0C12CD12C76016FEEA62E64E0B62EE1
:10383000F50181915F01882319F00E945731F8CF7B
:10384000C701B6010E94ED32EDE1AE2EE4E0BE2EDE
:10385000D5018D915D01882319F00E945731F8CF71
:10386000F801608171818281938142E00E94C834B5
:103870008AE00E945731F80180819181A281B38151
:10388000F40181939193A193B1934F01D8011D92BB
:103890001D921D921D928D01CA94CD28CE28CF284D
:1038A00029F0C12CD12C7601C394BECF1092300DDB
:1038B00010922F0D10922B0D10922C0D10922D0D99
:1038C00010922E0D0C943E2981E0809329070E94CE
:1038D0005C9E0C943E298091290781110BC00EE457
:1038E00013E0F80181918F01882309F484CF0E94AD
:1038F0005731F7CF813019F00BE613E00BC004EA23
:1039000013E0D8018D918D01882309F474CF0E94B2
:103910005731F7CFF80181918F01882309F46BCFDC
:103920000E945731F7CF85E40E945130882361F01F
:103930000E941E300E94ADB96093090270930A0282
:1039400080930B0290930C0281E40E9451308823F3
:1039500061F00E941E300E94ADB960930502709321
:103960000602809307029093080282E50E9451307C
:10397000882361F00E941E300E94ADB9609301025D
:103980007093020280930302909304020E945C9E53
:103990000C943E2980912907882319F002EC13E04A
:1039A00060C080913302811103C007EE13E04FC065
:1039B000809132028823C9F30CEF13E0D8018D9176
:1039C0008D01882319F00E945731F8CF8FE00E94B3
:1039D0000E5B892B19F002EE14E00DC00FEC14E021
:1039E000F80181918F01882319F00E945731F8CF97
:1039F00000E014E008C0D8018D918D018823C1F347
:103A00000E945731F8CFF80181918F01882319F076
:103A10000E945731F8CF82E00E940E5B892B19F08B
:103A200002EE14E00BC00FEC14E0D8018D918D0173
:103A3000882309F4E0CE0E945731F7CFF801819135
:103A40008F01882309F4D7CE0E945731F7CFD801D0
:103A50008D918D01882311F40C943E290E945731D9
:103A6000F6CFF80181918F01882319F00E94573118
:103A7000F8CF8AE00E94573105E014E0D8018D911B
:103A80008D01882319F00E945731F8CF8AE00E94F7
:103A900057316091090270910A0280910B02909156
:103AA0000C020E94ED328AE00E94573102E114E0DC
:103AB000F80181918F01882319F00E945731F8CFC6
:103AC0008AE00E9457316091050270910602809150
:103AD0000702909108020E94ED328AE00E9457315D
:103AE0000FE114E0D8018D918D01882319F00E9417
:103AF0005731F8CF8AE00E945731609101027091EE
:103B0000020280910302909104020E94ED328AE049
:103B10000E9457310C943E291092490C10924A0C85
:103B200010924B0C10924C0C1092870C1092860C39
:103B30000C943E29109234020C943E2981E080932B
:103B400034021092490C10924A0C10924B0C1092B5
:103B50004C0C80E293E0A0E0B0E0809325029093CB
:103B60002602A0932702B09328020C943E2980E2FB
:103B700093E0A0E0B0E08093250290932602A0930A
:103B80002702B09328020C943E2980911A0F90913D
:103B90001B0F019711F00C943E2982E090E0909366
:103BA0001B0F80931A0F0E94DC876093240F709381
:103BB000250F8093260F9093270F0C943E290E9487
:103BC00044980C943E290E94A6900C943E298EE4C1
:103BD0000E948030882311F40C943E290E94EE2F1D
:103BE0006093E30F7093E40F8093E50F9093E60FDB
:103BF0000C943E290E94406E0C943E290E9406734C
:103C00001092800C10927F0C0C94DD2B0E94D36ECE
:103C10000C943E290E946C710C943E290E94B26E55
:103C20000C943E2980E50E948030811106C01092DC
:103C30009A0D1092990D0C943E290E94EE2F672B3D
:103C400011F00C943E29F3CF0E94D96D0C943E29BB
:103C500081E080931A050C943E2983E50E94803010
:103C60008823A1F00E941E3020E030E04AE754E4AF
:103C70000E9464B40E94B2B960932E0270932F0226
:103C800080933002909331020C943E2988E50E9483
:103C9000513081110C94FB2989E50E94513081112A
:103CA0000C94FB298AE50E94513081110C94FB2968
:103CB00085E40E94513081110C94FB290C94212A37
:103CC00083E50E945130882311F40C943E290E9410
:103CD0001E3020E030E04AE754E40E9464B40E94C1
:103CE000B2B960938E0C70938F0C8093900C90936C
:103CF000910C0C943E2943EEC42E42E0D42E57E69C
:103D0000E52E57E0F52E10E0F60181916F010E943B
:103D10005130882309F46EC0133009F063C00E944B
:103D20001E304B015C0120E030E040EA51E40E948B
:103D3000FFB387FF4EC0A501940160917307709196
:103D4000740780917507909176070E9445B92B0101
:103D50003C019B01AC0160916D0D70916E0D8091E5
:103D60006F0D9091700D0E9464B460936D0D70930F
:103D70006E0D80936F0D9093700DA3019201609171
:103D8000890D70918A0D80918B0D90918C0D0E9400
:103D900064B46093890D70938A0D80938B0D90931A
:103DA0008C0D609153077091540780915507909145
:103DB00056070E9403B4A30192010E9464B40E94BA
:103DC000B2B960935307709354078093550790934B
:103DD00056078092730790927407A0927507B0926D
:103DE000760708C00E941E30D7016D937D938D9396
:103DF0009C9313971F5FB4E0EB0EF11C143009F095
:103E000083CF0E94C24E0C943E290E949C900E9437
:103E1000C26C0C943E29EAECF3E084918F010F5FB1
:103E20001F4F882321F00E945731F801F6CFECEBA9
:103E3000F3E084918F010F5F1F4F882321F00E94D0
:103E40005731F801F6CFE5EAF3E084918F010F5F77
:103E50001F4F882321F00E945731F801F6CFE5E982
:103E6000F3E084918F010F5F1F4F882321F00E94A0
:103E70005731F801F6CFE4E8F3E084918F010F5F4A
:103E80001F4F882321F00E945731F801F6CFE3E756
:103E9000F3E084918F010F5F1F4F882321F00E9470
:103EA0005731F801F6CFE4E6F3E084918F010F5F1C
:103EB0001F4F882321F00E945731F801F6CFEFE41D
:103EC000F3E084918F010F5F1F4F882321F00E9440
:103ED0005731F801F6CFE9E3F3E084918F010F5FEA
:103EE0001F4F882321F00E945731F801F6CFE4E2FA
:103EF000F3E084918F010F5F1F4F882321F00E9410
:103F00005731F801F6CFE7E0F3E084918F010F5FBE
:103F10001F4F882321F00E945731F801F6CFEFEEB2
:103F2000F2E084918F010F5F1F4F882311F40C94EE
:103F30003E290E945731F801F4CF85E40E945130A8
:103F4000882381F00E940F30882361F0E8E0F4E2DA
:103F500084918F010F5F1F4F882321F00E945731FA
:103F6000F801F6CF81E40E945130882381F00E944D
:103F70000F30882361F0E4E9F4E084918F010F5F52
:103F80001F4F882321F00E945731F801F6CF00918E
:103F9000140510911505F80181918F01882309F40A
:103FA0002ACC0E945731F7CFE0EBF4E084918F01E7
:103FB0000F5F1F4F882321F00E945731F801F6CF81
:103FC000E8EAF4E084918F010F5F1F4F882321F00E
:103FD0000E945731F801F6CF659903C00DEE12E04B
:103FE00002C002EF12E0D8018D918D01882319F0F3
:103FF0000E945731F8CF8AE00E945731E0EAF4E09E
:1040000084918F010F5F1F4F882321F00E94573149
:10401000F801F6CF8091030181FD03C00DEE12E09F
:1040200002C002EF12E0F80181918F01882319F09C
:104030000E945731F8CF8AE00E945731E8E9F4E056
:1040400084918F010F5F1F4F882321F00E94573109
:10405000F801F6CF4B9B03C00DEE12E002C002EF59
:1040600012E0D8018D918D01882309F4C4CB0E9400
:104070005731F7CF81E080933F02809328070C945B
:104080003E2910923F02109228070C943E2988EC9A
:1040900090E00E94B13281110C943E2984E40E9488
:1040A0005130882309F456C00E941E3011E020E0F0
:1040B00030E0A9010E94FFB3811101C010E010930C
:1040C0004207112309F446C00091160510E00E9432
:1040D0001E30000F111F000F111FF801E35FFD4F8D
:1040E000608371838283938320E030E0A901609133
:1040F0000D0270910E0280910F02909110020E94A9
:10410000FFB381110CC080E090E0A0E4B0E48093A4
:104110000D0290930E02A0930F02B093100220E0C4
:1041200030E0A90160911102709112028091130296
:10413000909114020E94FFB381110CC080E090E0C6
:10414000A0E4B0E48093110290931202A0931302B2
:10415000B09314020E94BF580C943E290E949D6C9B
:104160000C943E2983E50E9451308823D9F00E94A7
:104170001E30AB01BC014093750D5093760D6093DA
:10418000770D7093780D4093710D5093720D60937D
:10419000730D7093740D84E295E00E94974C8AE051
:1041A0000E94573180E50E945130882399F00E9487
:1041B0001E30AB01BC014093750D5093760D60939A
:1041C000770D7093780D87E095E00E94974C8AE018
:1041D0000E94573182E50E945130882399F00E9455
:1041E0001E30AB01BC014093790D50937A0D609362
:1041F0007B0D70937C0D88EE94E00E94974C8AE0D2
:104200000E94573184E50E945130882311F40C94A8
:104210003E290E941E30AB01BC014093710D5093AA
:10422000720D6093730D7093740D8AEC94E00E948C
:10423000974C8AE00E9457310C943E2983E50E94F6
:104240005130882351F00E941E306093950D709379
:10425000960D8093970D9093980D84E50E945130B0
:10426000882351F00E941E306093910D7093920D3F
:104270008093930D9093940D82E40E945130882393
:1042800051F00E94DE2F60938D0D70938E0D809300
:104290008F0D9093900D88E50E945130882351F046
:1042A0000E941E306093610D7093620D8093630DC8
:1042B0009093640D89E50E945130882351F00E944B
:1042C0001E306093650D7093660D8093670D90931B
:1042D000680D8AE50E945130882351F00E941E30FB
:1042E0006093690D70936A0D80936B0D90936C0DC4
:1042F00085E40E945130882309F4C0C70E941E3013
:1043000060936D0D70936E0D80936F0D9093700D93
:10431000B5C70E94816DB2C70E94E56BAFC78AED39
:1043200090E00E94B1328111A9C7109116051123A6
:1043300009F4A4C70C94262A83E50E9480308823C0
:1043400009F49CC70E94EE2F70932C0260932B02FD
:1043500095C78DED90E00E94B13281118FC783E542
:104360000E948030882309F489C70091160510E067
:104370000E94EE2F000F111FF801E85BFD4F7183C3
:1043800060837CC780E50E945130882309F476C79A
:104390000E94EE2FF62EC62ED72E83E50E94803087
:1043A000882321F00E94EE2F8B0102C00FEF1FEF38
:1043B000C8010196039708F061C7D7FC5FC7ECE519
:1043C000F5E080E38E0F9491F91609F457C7319602
:1043D0008E13F9CF0C94B62B85E40E9480308111A6
:1043E00010C080E50E945130882391F00E941E3059
:1043F0006093590270935A0280935B0290935C021F
:1044000007C00E94FE2F823060F3EEEAFAE171C02D
:1044100089E40E945130882381F00E941E302CEAEA
:1044200035EC47E25EE30E9464B4609355027093FA
:104430005602809357029093580284E40E945130B0
:10444000882381F00E941E302CEA35EC47E25EE3BF
:104450000E9445B960935D0270935E0280935F0293
:1044600090936002E8E0F4E284918F010F5F1F4FA8
:10447000882321F00E945731F801F6CF409159026C
:1044800050915A0260915B0270915C0284E995E060
:104490000E94974C2CEA35EC47E25EE360915502AE
:1044A0007091560280915702909158020E9445B92E
:1044B000AB01BC0180E995E00E947A4C2CEA35EC16
:1044C00047E25EE360915D0270915E0280915F025F
:1044D000909160020E9464B4AB01BC018CE895E04D
:1044E0000E947A4C8AE00E945731C8C60E94573118
:1044F000F80184918F010F5F1F4F8111F7CF05E302
:1045000014E0F80181918F01882309F474C90E9495
:104510005731F7CF80E50E945130882351F00E9437
:104520001E306093690270936A0280936B029093CD
:104530006C0289E40E945130882381F00E941E3071
:104540002CEA35EC47E25EE30E9464B460936502B6
:1045500070936602809367029093680284E40E94DD
:104560005130882381F00E941E302CEA35EC47E25E
:104570005EE30E9445B9609361027093620280938A
:10458000630290936402E8E0F4E284918F010F5F8C
:104590001F4F882321F00E945731F801F6CF409138
:1045A000690250916A0260916B0270916C0280EA1C
:1045B00095E00E94974C2CEA35EC47E25EE360916F
:1045C00065027091660280916702909168020E9474
:1045D00045B9AB01BC018CE995E00E947A4C2CEA0C
:1045E00035EC47E25EE36091610270916202809176
:1045F0006302909164020E9464B4AB01BC0188E93B
:1046000095E00E947A4C8AE00E94573137C683E5D4
:104610000E945130182F882371F00E941E300E9492
:10462000ADB9709347026093460221E0672B09F011
:1046300020E02093600D80E50E945130882359F0DE
:104640002091460230914702232B11F00E940F3037
:104650008093600D13C6111111C6E8E0F4E2849155
:104660008F010F5F1F4F882321F00E945731F801FF
:10467000F6CF8091600D811103C06CEF72E002C033
:104680006FEE72E089EB95E00E94104D609146025A
:104690007091470288EA95E00E94DB4CE4EAF5E07D
:1046A00084918F010F5F1F4F882309F4E7C50E9493
:1046B0005731F801F5CF85E40E948030882321F03E
:1046C0000E94EE2F1B0102C0212C312C83E40E949A
:1046D0008030882339F00E94EE2F61967FAF6EAF55
:1046E000619706C025E030E061963FAF2EAF61973D
:1046F00085E50E94513026968FAF2697882329F0B2
:104700000E940F3026968FAF269737FC07C0C12C2A
:10471000D12C16E1E12E13E4F12E06C0C12CD12CD0
:10472000BCE8EB2EB2E4FB2E83E50E9480308823A8
:1047300021F00E941E306B017C0132E0231631040F
:1047400010F4209216051092800C10927F0C0E949B
:10475000DC872B013C01C1010196039718F406E4A4
:1047600014E00EC009E514E0D8018D918D01882375
:1047700019F00E945731F8CF8AE00E9457317EC568
:10478000F80181918F01882319F00E945731F8CFE9
:104790008AE00E9457310E94CB898FE7FFEF2F16E6
:1047A0003F0619F48093CB0D04C0F101E453F24F9E
:1047B0008083C701B6010E94ADB9072E000C880B9B
:1047C000990B0E9405B46FAB78AF89AF9AAF81E0C7
:1047D000809300022B964CAE5DAE6EAE7FAE2B97F3
:1047E00065964CAE5DAE6EAE7FAE65971BAE20E4B7
:1047F0002CAF3CE13DAF46E44EAF1FAE21961FAE5D
:10480000219722961FAE229723961FAE23971BAAAD
:104810001CAA1DAA1EAA1FA618AA19AA1AAAC12C48
:10482000D12C7601FFE78F2E912CA12CB12C8FE794
:1048300090E0A0E0B0E08FA398A7A9A7BAA72F9611
:104840001CAE1DAE1EAE1FAE2F9791E027969FAFF8
:1048500027971CA61BA61E8E1AA200E010E0D1010D
:10486000A453B24F6796BFAFAEAF6797C101880F31
:10487000991F880F991FFC01E954F24F2596FFAF4D
:10488000EEAF259780910002882309F4FAC10E94B7
:10489000DC876BA37CA38DA39EA38091CA0D882384
:1048A00009F4D0C00E94FF8DFFEF2F163F0659F488
:1048B0002091BF0D2E8F3091C00D3AA30091C10DF4
:1048C0001091C20D15C02596AEADBFAD2597BC9118
:1048D000BE8F2596EEADFFAD2597F181FAA3259603
:1048E000AEADBFAD259712960C91129713961C9101
:1048F0002E8D3AA1A8016FAD21967FAD219722960A
:104900008FAD229723969FAD23970E94FFB387FF19
:104910000CC0BE8DBFAFEAA12196EFAF21972296C2
:104920000FAF229723961FAF23972E8D3AA1A80190
:104930006BAD7CAD8DAD9EAD0E948FBA181634F470
:10494000FE8DFBAF2AA12CAF0DAF1EAF27963FAD5A
:1049500027972FA9332309F455C038AD49AD5AAD77
:104960006E8D7AA1C8010E948FBA18160CF06AC029
:104970004BA15CA16DA17EA1441955096609770977
:10498000DB01CA0188589341A109B109B7FD5AC09A
:104990008FA198A5A9A5BAA588199909AA09BB0943
:1049A000B595A79597958795EFEF2E163E0619F4C6
:1049B0008093CB0D05C06796EEADFFAD6797808302
:1049C0002F964CAF5DAF6EAF7FAF2F97FFA9FFAFB4
:1049D00028AD21962FAF219739AD22963FAF229770
:1049E0004AAD23964FAF23978BA19CA1ADA1BEA149
:1049F0002B968CAF9DAFAEAFBFAF2B9727961FAE58
:104A0000279720C038AD49AD5AAD6E8D7AA1C80147
:104A10000E94FFB387FF16C08BA19CA1ADA1BEA1D0
:104A20002B962CAD3DAD4EAD5FAD2B97821B930BFE
:104A3000A40BB50BAC01BD01485853416109710984
:104A400077FF3EC520E030E040EA51E46FA978AD41
:104A500089AD9AAD0E9469B89B01AC016E8D7AA1B7
:104A6000C8010E948FBA18166CF4E9E8F6E0849148
:104A70008F010F5F1F4F882309F400C40E94573134
:104A8000F801F5CF80E398EFAFEFBFEF65962CAD5F
:104A90003DAD4EAD5FAD6597821B930BA40BB50B7F
:104AA0002BA13CA14DA15EA1820F931FA41FB51F96
:104AB000B7FD0FC00E94016F8AE00E9457318BA1A1
:104AC0009CA1ADA1BEA165968CAF9DAFAEAFBFAFAF
:104AD00065978BA19CA1ADA1BEA1880F991FAA1FAC
:104AE000BB1F2B962CAD3DAD4EAD5FAD2B97821B02
:104AF000930BA40BB50B84199509A609B709813846
:104B00009F44A241B10568F0EBE6F6E084918F0185
:104B10000F5F1F4F882309F4B1C30E945731F8017A
:104B2000F5CF4BA55CA561968EAD9FAD61978417BF
:104B300095070CF0A7CEEEE0F6E084918F010F5FB1
:104B40001F4F882321F00E945731F801F6CF9FEFC5
:104B50002916390619F00FEF13E002C000E013E048
:104B6000B8018CEF95E00E94104DB701A60188EFC7
:104B700095E00E94974C8AE00E945731B80186EE7A
:104B800095E00E94104D4FA558A969A97AA982EE17
:104B900095E00E94974C8AE00E945731B80180ED61
:104BA00095E00E94104D4BA95CA96DA97EA98CECE3
:104BB00095E00E94974C8AE00E9457312696AFAD4F
:104BC0002697AA2309F45AC32320209469F5C0929A
:104BD0006902D0926A02E0926B02F0926C022CEAB7
:104BE00035EC47E25EE36FA578A989A99AA90E94EE
:104BF00064B4609365027093660280936702909339
:104C000068022CEA35EC47E25EE36BA97CA98DA92A
:104C10009EA90E9445B960936102709362028093DD
:104C20006302909364022AC3C0925902D0925A023E
:104C3000E0925B02F0925C022CEA35EC47E25EE324
:104C40006FA578A989A99AA90E9464B460935502B6
:104C50007093560280935702909358022CEA35ECD9
:104C600047E25EE36BA97CA98DA99EA90E9445B984
:104C700060935D0270935E0280935F029093600286
:104C8000FDC2809100028111F9C20E94CB89F6C257
:104C90000E949C90F3C280E00E94EE36EFC286E54F
:104CA0000E945130882351F080912407909125076C
:104CB000892B21F00E94A3380E948F3883E50E943F
:104CC0005130182F882319F00E940F30182F83E5D8
:104CD0000E945130882319F0812F0E941F2F8AE5EE
:104CE0000E945130882321F00E941E300E94D72E4E
:104CF000F0905F0D111103C0E8E0F4E218C0F1106C
:104D0000FBCF0EEA1AE1F8018491882329F00F5FA6
:104D10001F4F0E945731F7CF0DE117E0F801849142
:104D2000882351F30F5F1F4F0E945731F7CF8491B3
:104D30008F010F5F1F4F882321F00E945731F80128
:104D4000F6CFF11003C068E073E002C064E073E0E6
:104D50008FE097E00E94104D8AE00E945731E8E012
:104D6000F4E284918F010F5F1F4F882321F00E948E
:104D70005731F801F6CFE2E0F7E084918F010F5F41
:104D80001F4F882321F00E945731F801F6CFC090C1
:104D90005B0DD0905C0DE0905D0DF0905E0D20E01D
:104DA00030E0A901C701B6010E948FBA18166CF055
:104DB000EDEFF6E084918F010F5F1F4F882309F418
:104DC0005DC20E945731F801F5CF42E0C701B6013C
:104DD0000E94C8348AE00E94573150C289E40E9480
:104DE0008030882321F00E94EE2F162F01C01FEF84
:104DF0008AE40E948030882321F00E94EE2F062F43
:104E000001C00FEF8AE50E945130F82E811105C0D4
:104E100081E50E945130D82E01C0D12C17FD02C06F
:104E200007FF03C0EEEAFAE105C0F1101AC0D11085
:104E300018C0F8CF84918F010F5F1F4F882321F096
:104E40000E945731F801F6CFEBE5F7E084918F012E
:104E50000F5F1F4F882309F411C20E945731F801D8
:104E6000F5CF153018F0EEEAFAE106C00530D8F7B4
:104E700016C00E945731F80184918F010F5F1F4FB8
:104E80008111F7CFECE3F7E084918F010F5F1F4FA3
:104E9000882309F4F3C10E945731F801F5CFE12EC0
:104EA000110FFF08002E000C110B0E941E30DD2098
:104EB00099F025E02E9DF0012F9DF00D1124E00FBB
:104EC000F11FEE0FFF1FEE0FFF1FE559F14F20817D
:104ED00031814281538103C020E030E0A901A5E087
:104EE000AE9DF001AF9DF00D11240E0F1F1F000F9E
:104EF000111F000F111F0559114F0E9469B8D801E9
:104F00006D937D938D939C93139701D6B7C18CEECF
:104F1000C82E8CE0D82E90EDE92E9EE0F92E21EFE0
:104F2000222E2EE0322E00E010E0F101E15FFE4083
:104F3000FF8FEE8FD1018D911D01882309F48BC065
:104F4000F7014080518062807380F801E358FD4F83
:104F50002081318142815381F801E757FD4F608103
:104F60007181828193810E9469B820E030E040E045
:104F70005FE30E9464B49B01AC01C301B2010E94D3
:104F80008FBA181644F4F801E551F84E85909590C3
:104F9000A590B49003C0812C912C5401F801EC51E0
:104FA000F14F2081318142815381C301B2010E94BE
:104FB00068B89B01AC01C501B4010E9468B84B01FF
:104FC0005C0120E030E040EA51EC0E948FBA87FD9E
:104FD00029C020E030E040EA51E4C501B4010E945C
:104FE000FFB31816FCF0D6012D913D914D915C91C7
:104FF000C501B4010E9468B89B01AC01C301B201B4
:105000000E9469B8F7016083718382839383D6011C
:105010008D929D92AD92BC9213978E8D9F8D0E9422
:10502000A23119C0EEEAFAE184918F010F5F1F4FA0
:10503000882321F00E945731F801F6CFEBE7F7E023
:1050400084918F010F5F1F4F882309F417C10E94BD
:105050005731F801F5CFB4E0CB0ED11C0C5F1F4FD8
:10506000E4E0EE0EF11C0C30110509F05ECF0E9459
:1050700095370E94C26C02C10E94903FFFC00E94FF
:10508000F63DFCC083E50E945130882311F0C7D75C
:1050900001C081E091E089270E948839EFC0E8E0F3
:1050A000F4E284918F010F5F1F4F882321F00E944B
:1050B0005731F801F6CFE3EBF7E084918F010F5FF2
:1050C0001F4F882321F00E945731F801F6CF8AE55F
:1050D000E8D7882309F43AC0B1D76B017C0120E0FE
:1050E00030E040EA51EC0E948FBA87FD21C020E0F9
:1050F00030E040EA51E4C701B6010E94FFB3181640
:10510000BCF0C092E00ED092E10EE092E20EF0927E
:10511000E30E0E94099B6091E00E7091E10E809178
:10512000E20E9091E30E42E00E94C8340C94FB1B07
:10513000ECE9F7E084918F010F5F1F4F882311F492
:105140000C94FB1B0E945731F801F4CF4091E00E04
:105150005091E10E6091E20E7091E30E89E997E0C3
:105160000E94974C0C94FB1BEEEAFAE184918F01AC
:105170000F5F1F4F882321F00E945731F801F6CFAF
:10518000EDEBF7E084918F010F5F1F4F882309F447
:1051900075C00E945731F801F5CFE090A806F09055
:1051A000A9061E2D8091F00E85FF14C0B701772748
:1051B00086E198E00E94DB4C89E20E9457318AE048
:1051C0000E94573140ED5EE067EF77E082E098E0C3
:1051D0000E94CF368091590D181741F083E561D7B1
:1051E000182F882321F01BD7182F01C011E086E467
:1051F00087D7882311F022D703C060E070E0CB018D
:1052000020E030E040E752E40E9445B9AB01BC0128
:10521000212F8E2D0E94A16B8091F00E85FF2EC054
:1052200040ED5EE069ED77E083EE97E00E94CF36D7
:10523000ECECF7E084918F010F5F1F4F8823F1F0B2
:105240000E945731F801F6CFE8E0F4E284918F0133
:105250000F5F1F4F882321F00E945731F801F6CFCE
:105260006091880C7091890C83E298E00E94104D47
:1052700082E20E9457318AE00E9457311092800CDE
:1052800010927F0C0E944FA998C240911405509132
:105290001505452B39F4AF014150510950931505BF
:1052A0004093140540E050E00C94C71380E0C7D54C
:1052B0000E946B3783E5F5D6882309F447C0AFD643
:1052C00021E0482FBE016F5F7F4FCE0146960E94BE
:1052D000799B6B017C019B01AC010E9415BB811184
:1052E00030C02CEA35EC47E257E36E897F89888D20
:1052F000998D0E9469B8AB01BC018CEA92E00E94D2
:105300007A4C2CEA35EC47E257E369817A818B814C
:105310009C810E9469B8AB01BC0187EA92E00E94BF
:105320007A4C2CEA35EC47E257E3C701B6010E94FC
:1053300069B8AB01BC0182EA92E00E947A4C8AE033
:10534000B6D70E9447370E94C26C98CF81E0B8CF91
:1053500055D6E82E80E5D4D6882339F13FD68B0187
:1053600077FD8CCF902FECE5F5E080E38E0F249154
:10537000921721F031968E13FACF1AC0EEEAFAE1B5
:1053800084918F010F5F1F4F882319F090D7F80188
:10539000F7CFE0EEF2E084918F010F5F1F4F88237B
:1053A00009F46CCF84D7F801F6CF0DE010E0DACF26
:1053B00084E4A6D6882349F061E0802F0E94655BD3
:1053C0006E2D802F0E94365B59CF61E0802F0E94A6
:1053D000655B6E2D802F0E94365BF12CB701802F0C
:1053E0000E94A15B0930110509F048CFF0929A0D97
:1053F000E092990D43CF0E949C9088E552D6882375
:1054000019F05F9A1092E80C89E54BD6882319F0C1
:105410008A9A1092E90C8AE544D6882351F09FB706
:10542000F894809108018160809308019FBF1092D9
:10543000EA0C85E436D6882309F420CF0E94F7537E
:105440001DCF0E949C900E94FA5318CF88E558D631
:10545000882359F0F3D5B4E01B9FF0011124E65DD9
:10546000F84F608371838283938389E549D68823CB
:1054700079F00091160510E0E1D5000F111F000F23
:10548000111FF801EE5CF84F608371838283938370
:10549000E8E0F4E284918F010F5F1F4F882319F039
:1054A00006D7F801F7CFECE4F5E084918F010F5FA8
:1054B0001F4F882311F40C94DC1BF9D6F801F5CFAB
:1054C0004BA55CA5141615060CF01BC12F964CAC11
:1054D0005DAC6EAC7FAC2F97480E591E6A1E7B1ECA
:1054E0002F962CAD3DAD4EAD5FAD2F97281B390BE0
:1054F0004A0B5B0BCA01B901A50194010E94FCB7DC
:10550000A30192010E942DB88FA098A4A9A4BAA4C7
:10551000820E931EA41EB51E34E183169104A104CD
:10552000B1040CF14CEE84169104A104B1043CF4D6
:1055300050E885169104A104B1041CF105C05BEE8E
:10554000852E912CA12CB12C8FA298A6A9A6BAA623
:105550008EEF90E0A0E0B0E088199909AA09BB0994
:105560004C015D0112C024E130E040E050E02FA387
:1055700038A749A75AA744E1842E912CA12CB12C1D
:1055800004C08FA298A6A9A6BAA64FA158A569A53E
:105590007AA585EF96E00E94B44CB501A40180EF96
:1055A00096E00E94B44C4BAD5CAD6DAD7EAD89EE26
:1055B00096E00E94974C4FAD21965FAD21972296C1
:1055C0006FAD229723967FAD239782EE96E00E94DF
:1055D000974C4BA55CA5433051050CF492C0C50116
:1055E000B4010E9405B420E030E040E850E40E949D
:1055F00064B46B017C012BAD3CAD4DAD5EAD6FADC8
:1056000021967FAD219722968FAD229723969FAD4D
:1056100023970E9468B82BED3FE049E450E40E94D4
:1056200064B420E030E040E05FE30E9464B49B019A
:10563000AC01C701B6010E9445B96B017C01C301F1
:10564000B2010E9405B42FE632E143E85AE30E941A
:1056500064B42B013C01B701A6018CED96E00E94D9
:10566000974CB301A20186ED96E00E94974C2AE97F
:1056700039E949E15FE3C701B6010E9464B46B01F7
:105680007C019B01AC010E9469B8A30192010E94B8
:1056900045B96FA778AB89AB9AABA3019201C7015B
:1056A000B6010E9464B420E030E040E05EE30E9476
:1056B00064B46BAB7CAB8DAB9EABE6ECF6E0849157
:1056C0003F015FEF651A750A882319F0F0D5F301E1
:1056D000F6CFB701A60180EC96E00E94974C4FA54B
:1056E00058A969A97AA98AEB96E00E94974C4BA920
:1056F0005CA96DA97EA984EB96E00E94974C8AE094
:10570000D6D58FA198A5A9A5BAA5880D991DAA1DC2
:10571000BB1DB595A79597958795EFEF2E163E067D
:1057200019F48093CB0D05C06796EEADFFAD67977A
:1057300080832BA53CA52F5F3F4F3CA72BA73FA9FC
:105740003BAF48AD4CAF59AD5DAF8AAD8EAF4BA00E
:105750005CA06DA07EA091E027969FAF279772C9AD
:1057600001110C941818A7D30C942C180E949C902B
:1057700060E08F2D0E94655B0F3FFFEF1F0759F41C
:105780008F2D0E940E5B31E020E0892B09F030E084
:10579000032F122F05C00130110561F000E010E069
:1057A0008F2D0E940E5B8017910709F467CD0E9430
:1057B0003A54F6CF01E010E0F3CFCA5ADF4F0FB6EC
:1057C000F894DEBF0FBECDBFDF91CF911F910F9137
:1057D000FF90EF90DF90CF90BF90AF909F908F9011
:1057E0007F906F905F904F903F902F9008958F9291
:1057F0009F92AF92BF92CF92DF92EF92FF920F9360
:105800001F93CF93DF93D82FC62F882329F086309C
:10581000B9F513E084E002C011E080E09FEF9C0F37
:10582000953028F5D0E0219705E0FE01089FE00DB6
:10583000F11D1124EE0FFF1FEE0FFF1FE559F14F71
:1058400060817181828193819B01AC010E9469B862
:10585000019FC00DD11D1124CC0FDD1FCC0FDD1F0A
:10586000C559D14F288139814A815B813EC06C2F57
:105870008F5FBDDF6B017C016C2F81E0810F40C029
:10588000662331F0663009F047C013E064E002C0DF
:1058900011E060E08FEF8D0F853050F58D2F90E097
:1058A000019725E0289FE001299FD00D1124FE01DA
:1058B000E60FF11DEE0FFF1FEE0FFF1FE559F14F31
:1058C00060817181828193819B01AC010E9469B8E2
:1058D000FE01E10FF11DEE0FFF1FEE0FFF1FE55957
:1058E000F14F20813181428153810E9468B828C0E4
:1058F0006F5F8D2F7CDF6B017C0161E0610F8D2F6D
:1059000076DF4B015C01A7019601C701B6010E9439
:1059100069B8A5019401E9CF90E0019725E0289F9F
:10592000F001299FF00D1124E60FF11DEE0FFF1F6E
:10593000EE0FFF1FE959F14F6081718182819381E0
:10594000DF91CF911F910F91FF90EF90DF90CF905B
:10595000BF90AF909F908F9008952DE0829FC001DF
:105960001124FC01E60FF11DEE0FFF1FEE0FFF1FCC
:10597000E951F04F6081718182819381089525E022
:10598000829FC0011124FC01E60FF11DEE0FFF1FE5
:10599000EE0FFF1FE559F14F608171818281938184
:1059A00008958FB7F8949091E20F2091E10F291795
:1059B00059F0E92FF0E0EF59F04F208130E09F5F80
:1059C0009F779093E20F02C02FEF3FEF8FBFC90187
:1059D00008958F929F92AF92BF92CF92EF92FF92D3
:1059E0000F931F93CF93DF93CDB7DEB760970FB6BA
:1059F000F894DEBF0FBECDBFC090590DE0EDFEE0C4
:105A000084859585A685B785408551856285738592
:105A1000048115812681378180809180A280B380A6
:105A200089829A82AB82BC820D831E832F83388742
:105A300049875A876B877C878D879E87AF87B88B0E
:105A40009E01235F3F4FAE01475F5F4FBE016B5F1B
:105A50007F4FCE0101960E949181E0907502F090F7
:105A6000760200917702109178029E01235F3F4FEA
:105A7000AE01475F5F4FBE016B5F7F4FCE01019666
:105A80000E945C7360960FB6F894DEBF0FBECDBF68
:105A9000DF91CF911F910F91FF90EF90CF90BF902A
:105AA000AF909F908F900895FF920F931F93CF9385
:105AB000DF93FC0120812B3319F1D091190DD430E3
:105AC000F8F4F62EBC01C091AF060C2F10E0F0E602
:105AD000CF9FC0011124845E9A4F0E9471BBF801D0
