:100000000C9471120C94A2120C94A2120C94A212D1
:100010000C94A2120C94A2120C94A2120C94A21290
:100020000C94A2120C94A2120C94A2120C94A21280
:100030000C94A2120C94A2120C94A2120C94A21270
:100040000C94A2120C94A4420C94A2120C94A2122E
:100050000C94A2120C94A2120C94B65A0C946D58E3
:100060000C94A2120C94443B0C94A2120C94A21275
:100070000C94A2120C94A2120C94A2120C94A21230
:100080000C94FFB20C94A2120C94A2120C94A21223
:100090000C94A2120C94A2120C94A2120C94A21210
:1000A0000C94A2120C94A2120C94D2B20C94A21230
:1000B0000C94A2120C94A2120C94A2120C94A5B24D
:1000C0000C94A2120C94A2120C94A2120C94A212E0
:1000D0000C94A2120C94A2120C94A2120C94A212D0
:1000E0000C94A2127A3B813B953BA23BAC3BC63BB6
:1000F000B13BC63BB63BBB3BC63BC33B6F567256A0
:10010000615665566B56A95676567A568056845671
:1001100088568E5692569656A9569C56A056A45668
:1001200089578E5793579D57A7572058B157B9579E
:10013000C157CB57D557DF57EE57F85720580258BD
:100140000C581658625B675B915B965B765B825BD3
:100150004C5B084AD73B3BCE016E84BCBFFDC12F30
:100160003D6C74319ABD56833DDA3D00C77F11BEA8
:10017000D9E4BB4C3E916BAAAABE000000803F05AB
:10018000A84CCDB2D44EB93836A9020C50B99186DC
:1001900088083CA6AAAA2ABE000000803F004E4163
:1001A0004E494E495459494E46CDCCCC3D0AD723F1
:1001B0003C17B7D13877CC2B329595E6241FB14F39
:1001C0000A000020410000C84200401C4620BCBE7E
:1001D0004CCA1B0E5AAEC59D744C4556454C494EF3
:1001E0004700434F4D4D554E49434154494F4E00F2
:1001F00044525952554E004552524F525300494EA7
:10020000464F004543484F0047322F473320626135
:100210006420706172616D65746572730A003C3CA4
:100220003C2067636F64655F4732380A00203A20DC
:100230003E2028686F6D655F616C6C207C7C206857
:100240006F6D655A29203E2066696E616C0A002038
:100250002063757272656E745F706F736974696F15
:100260006E3D00203A203E20686F6D65580A0020E0
:100270002063757272656E745F706F736974696FF5
:100280006E3D00203A203E20686F6D65590A0020BF
:100290002063757272656E745F706F736974696FD5
:1002A0006E3D005261697365205A20286265666F51
:1002B000726520686F6D696E672920746F20003E3B
:1002C00020656E6473746F70732E656E61626C6509
:1002D0002874727565290A003E3E3E2067636F648C
:1002E000655F4732380A004D65736820706F696E2C
:1002F000742063616E6E6F74206265207265736F27
:100300006C7665640A000302FE01F701F001E20168
:10031000D9016F66660044454255473A004D313178
:10032000332053006F6B0020573A0020573A0043A8
:1003300061703A454D455247454E43595F504152D1
:100340005345523A310A004361703A434153455F85
:100350004C494748545F4252494748544E455353CD
:100360003A300A004361703A544F47474C455F4C5E
:1003700049474854533A300A004361703A534F4654
:1003800054574152455F504F5745523A300A004347
:1003900061703A4C4556454C494E475F4441544183
:1003A0003A310A004361703A5A5F50524F42453A1F
:1003B000310A004361703A4155544F4C4556454C03
:1003C0003A310A004361703A5052494E545F4A4FE5
:1003D000423A310A004361703A50524F47524553F6
:1003E000533A300A004361703A4155544F524550D8
:1003F0004F52545F54454D503A310A004361703AB0
:10040000454550524F4D3A310A004649524D5741E9
:1004100052455F4E414D453A4D61726C696E2031D7
:100420002E312E342E362E36202847697468756298
:100430002920534F555243455F434F44455F555222
:100440004C3A68747470733A2F2F676974687562D8
:100450002E636F6D2F4D61726C696E4669726D7798
:100460006172652F4D61726C696E2050524F544F0E
:10047000434F4C5F56455253494F4E3A312E302030
:100480004D414348494E455F545950453A33442005
:100490005072696E746572204558545255444552E5
:1004A0005F434F554E543A3220555549443A63659F
:1004B0006465326132662D343161322D343734381F
:1004C0002D396231322D6335356336326633363736
:1004D00066660A007A5F6D696E3A2000795F6D6921
:1004E0006E3A2000785F6D696E3A20005265706F39
:1004F0007274696E6720656E6473746F70207374B4
:10050000617475730A00205A002059005800202099
:100510004D61783A2000205A0020590058002020D0
:100520004D696E3A20004F6E20004F666600536F93
:10053000667420656E6473746F70733A2000486F40
:1005400074656E64206F6666736574733A000001AB
:1005500036372603FF3C3D380EFF2E303E12FFFF9C
:100560000C0809FFFFFF1A1C18FFFF24221EFFFFC3
:1005700008440AFF4307FF45FFFFFFFFFFFF206F0F
:100580007574206F662072616E67650A005365722C
:10059000766F20003A200020536572766F2000208D
:1005A000643A0020693A0020703A0020653A002041
:1005B000643A0020693A0020703A0043290A006139
:1005C000626C656420286D696E2074656D70200012
:1005D000436F6C6420657874727564657320617212
:1005E0006520004B64200023646566696E652020E9
:1005F00044454641554C545F004B692000236465D7
:1006000066696E65202044454641554C545F004B59
:1006100070200023646566696E652020444546416C
:10062000554C545F00504944204175746F74756E89
:10063000652066696E697368656421205075742051
:10064000746865206C617374204B702C204B69209A
:10065000616E64204B6420636F6E7374616E74739B
:100660002066726F6D2062656C6F7720696E746FA3
:1006700020436F6E66696775726174696F6E2E686C
:100680000A00504944204175746F74756E65206688
:1006900061696C6564212074696D656F75740A0009
:1006A000504944204175746F74756E6520666169A8
:1006B0006C6564212054656D706572617475726536
:1006C00020746F6F20686967680A00204B643A20C5
:1006D00000204B693A2000204B703A20000A20434A
:1006E0006C617373696320504944200A00543A20B6
:1006F00000413A20002054753A2000204B753A20E2
:1007000000206D61783A2000206D696E3A2000204B
:10071000643A200020626961733A20004E6F2063C2
:10072000617365206C696768740A003C3C3C206713
:10073000636F64655F540A00203A20414654455275
:100740000A00202063757272656E745F706F736942
:1007500074696F6E3D00203A204245464F52450A6B
:1007600000202063757272656E745F706F736974B8
:10077000696F6E3D003E3E3E2067636F64655F5467
:100780002800556E6B6E6F776E20636F6D6D616EB6
:10079000643A2022004B494C4C45442E20002C202A
:1007A000002C2000203A2073796E635F706C616EBC
:1007B0005F706F736974696F6E0A002020637572D1
:1007C00072656E745F706F736974696F6E3D0065FA
:1007D0006E7175657565696E672022004E6F204CDD
:1007E000696E65204E756D62657220776974682048
:1007F000636865636B73756D2C204C617374204C5A
:10080000696E653A20005072696E74657220737467
:100810006F707065642064756520746F20657272F6
:100820006F72732E20466978207468652065727235
:100830006F7220616E6420757365204D39393920DF
:10084000746F20726573746172742E202854656D04
:100850007065726174757265206973207265736565
:10086000742E20536574206974206166746572204B
:1008700072657374617274696E67290A004E6F2025
:10088000436865636B73756D2077697468206C6964
:100890006E65206E756D6265722C204C61737420DC
:1008A0004C696E653A2000636865636B73756D20F3
:1008B0006D69736D617463682C204C617374204C96
:1008C000696E653A20004C696E65204E756D6265F3
:1008D00072206973206E6F74204C617374204C69B0
:1008E0006E65204E756D6265722B312C204C6173E4
:1008F00074204C696E653A20004D3131300020493A
:100900006E76616C696420657874727564657220B6
:10091000000000000000000000000040C000005285
:100920004300808943000052430A20736F66745F5E
:10093000656E6473746F705F6D6178203D20000A8E
:1009400020736F66745F656E6473746F705F6D693A
:100950006E203D20000A20706F736974696F6E5FAE
:100960007368696674203D200020617869733A0AD3
:1009700020686F6D655F6F6666736574203D20004B
:10098000466F7220003C3C3C20646F5F626C6F637A
:100990006B696E675F6D6F76655F746F0A003E3ED0
:1009A0003E20646F5F626C6F636B696E675F6D6F33
:1009B00076655F746F00203A2073657475705F66AA
:1009C0006F725F656E6473746F705F6F725F707269
:1009D0006F62655F6D6F76650A00202063757272C5
:1009E000656E745F706F736974696F6E3D00203A55
:1009F00020636C65616E5F75705F61667465725FC0
:100A0000656E6473746F705F6F725F70726F626532
:100A10005F6D6F76650A00202063757272656E7473
:100A20005F706F736974696F6E3D006465706C6FA1
:100A3000793A2000203A207365745F70726F6265A6
:100A40005F6465706C6F7965640A0020206375725D
:100A500072656E745F706F736974696F6E3D00725A
:100A6000657365745F6265645F6C6576656C0A00CA
:100A70002028646F6E65290A004578747261706F72
:100A80006C617465205B0042696C696E65617220FF
:100A90004C6576656C696E6720477269643A0A0036
:100AA0005375626469766964656420776974682047
:100AB0004341544D554C4C20524F4D204C6576656A
:100AC0006C696E6720477269643A0A0024F4D43076
:100AD00050C38E20C2A24017828B7011127A910DE2
:100AE000816CD90AA861E108C758660761514306BD
:100AF0001E4B5D05C145A7041A411104093D980329
:100B0000713931034036DB0265339102D43054022F
:100B1000802E1D02632CEE01752AC501B028A001AC
:100B2000102781018F2564012B244B01E022340121
:100B3000AC211F018D200D01801FFC00841EED00E3
:100B4000971DDF00B81CD200E61BC600201BBC00AE
:100B5000641AB200B219A8000A19A0006A18990014
:100B6000D117910040178B00B516840031167E0016
:100B7000B31579003A157300C7146F0058146A0052
:100B8000EE1366008813630025135E00C7125B0036
:100B90006C12570015125400C111510070114F0012
:100BA00021114B00D61049008D104700461044001B
:100BB00002104200C00F4000800F3E00420F3C0078
:100BC000060F3B00CB0E3800930E37005C0E35004D
:100BD000270E3400F30D3200C10D3100900D3000AE
:100BE000600D2E00320D2D00050D2C00D90C2B00B0
:100BF000AE0C2900850C29005C0C2700350C270061
:100C00000E0C2600E80B2400C40B2400A00B2300CC
:100C10007D0B23005A0B2100390B2100180B2000FB
:100C2000F80A1F00D90A1E00BB0A1E009D0A1D00FB
:100C3000800A1D00630A1C00470A1B002C0A1B00C7
:100C4000110A1A00F7091A00DD091900C409190070
:100C5000AB091900920917007B09180063091700F6
:100C60004C09160036091600200916000A0915005D
:100C7000F5081500E0081400CC081400B8081400AA
:100C8000A4081400900813007D0812006B081300DC
:100C900058081200460812003408110023081100F9
:100CA0001208110001081100F0071000E007100001
:100CB000D0071000C0071000B0070F00A1071000F8
:100CC00091070E0083070F0074070F0065070E00E1
:100CD00057070E0049070E003B070D002E070E00B8
:100CE00020070D0013070D0006070D00F9060C0084
:100CF000ED060D00E0060C00D4060C00C8060C0042
:100D0000BC060C00B0060C00A4060B0099060C00F3
:100D10008D060B0082060B0077060B006C060B009D
:100D200061060A0057060B004C060A0042060A003C
:100D300038060A002E060A0024060A001A060A00CF
:100D40001006090007060A00FD050900F405090060
:100D5000EB050900E2050900D9050900D0050900E5
:100D6000C7050900BE050900B5050800AD05080066
:100D7000A50509009C050800940508008C050800DD
:100D8000840508007C050800740508006C05070050
:100D9000650508005D050700560508004E050700BB
:100DA0004705070040050800380507003105070022
:100DB0002A050700230507001C0506001605070085
:100DC0000F0507000805060002050700FB040600E2
:100DD000F5040700EE040600E8040600E20407003C
:100DE000DB040600D5040600CF040600C904060093
:100DF000C3040600BD040600B7040600B1040500E4
:100E0000AC040600A6040600A00405009B0406002E
:100E100095040500900406008A0405008504050079
:100E2000800406007A0405007504050070040500BE
:100E30006B04050066040500610405005C04050000
:100E400057040500520405004D0405004804050040
:100E5000430405003E0404003A040500350405007F
:100E6000300404002C0405002704040023040500BA
:100E70001E0404001A0404001604050011040400F2
:100E80000D04040009040500040404000004040027
:100E9000FC030400F8030400F4030400F00304005E
:100EA000EC030400E8030400E4030400E00304008E
:100EB000DC030400D8030400D4030400D0030400BE
:100EC000CC030400C8030300C503030024F404D9C1
:100ED000201BC40C5C0E9804C4095F0265077101F5
:100EE000F405F900FB04B30048048700C10369005E
:100EF0005803550003034500BE023A008402310046
:100F000053022A002902250004022000E4011C00EB
:100F1000C8011900AF0117009801140084011300E3
:100F2000710110006101100051010E0043010D001C
:100F300036010B002B010B0020010B0015010900ED
:100F40000C01090003010800FB000800F300080081
:100F5000EB000700E4000600DE000600D8000600F3
:100F6000D2000600CC000500C7000500C200050045
:100F7000BD000400B9000400B5000400B100040085
:100F8000AD000400A9000400A5000300A2000300B6
:100F90009F0004009B0003009800030095000200DE
:100FA00093000300900003008D0002008B000300FB
:100FB0008800020086000200840003008100020015
:100FC0007F0002007D0002007B0002007900020029
:100FD0007700010076000200740002007200010038
:100FE000710002006F0002006D0001006C00020041
:100FF0006A0001006900020067000100660001004C
:10100000650001006400020062000100610001004F
:10101000600001005F0002005D0001005C00010053
:101020005B0001005A000100590001005800010056
:101030005700010056000100550001005400010056
:101040005300000053000100520001005100010054
:10105000500001004F0001004E0000004E00010052
:101060004D0001004C0001004B0000004B0001004E
:101070004A0001004900010048000000480001004A
:101080004700010046000000460001004500000046
:10109000450001004400010043000000430001003E
:1010A0004200000042000100410000004100010038
:1010B000400001003F0000003F0001003E00000032
:1010C0003E0001003D0000003D0001003C0000002A
:1010D0003C0000003C0001003B0000003B00010020
:1010E0003A0000003A000100390000003900010018
:1010F0003800000038000000380001003700000010
:101100003700010036000000360000003600010004
:1011100035000000350000003500010034000000FB
:1011200034000000340001003300000033000000F0
:1011300033000100320000003200000032000100E4
:1011400031000000310000003100010030000000DB
:1011500030000000300001002F0000002F000000D0
:101160002F0000002F0001002E0000002E000000C4
:101170002E0001002D0000002D0000002D000000B9
:101180002D0001002C0000002C0000002C000000AD
:101190002C0001002B0000002B0000002B000000A1
:1011A0002B0001002A0000002A0000002A00000095
:1011B0002A00010029000000290000002900000089
:1011C000290000002900010028000000280000007C
:1011D000280000002800000028000100270000006F
:1011E0002700000027000000270000002700010062
:1011F0002600000026000000260000002600000057
:101200002600010025000000250000002500000048
:10121000250000002500000025000100240000003A
:10122000240000002400000024000000240001002D
:101230002300000023000000230000002300000022
:101240002300000023000000230001002200000012
:101250002200000022000000220000002200000006
:1012600022000100210000002100000021000000F8
:1012700021000000210000002100000021000100E9
:1012800020000000200000002000000020000000DE
:1012900020000000200000002000000020000100CD
:1012A0001F0000001F0000001F0000001F000000C2
:1012B0001F0000001F0000001F0001001E000000B2
:1012C0001E0000001E0000001E0000006265640A8F
:1012D000002C2073797374656D2073746F70706562
:1012E0006421204865617465725F49443A20004872
:1012F000656174696E67206661696C656400486544
:101300006174696E67206661696C65640048656137
:1013100074696E67206661696C6564004865617414
:10132000696E67206661696C6564003C3C3C2064C2
:101330006F5F686F6D696E675F6D6F766528002CF3
:1013400020002C20003E3E3E20646F5F686F6D6978
:101350006E675F6D6F7665280041424C2041646A7C
:101360007573746D656E74205A002028656E616215
:101370006C6564290A00202864697361626C656485
:10138000290A0042494C494E454152004175746F4B
:1013900020426564204C6576656C696E673A200072
:1013A000204E6F7A7A6C65290A0020262041626FF0
:1013B00076650020262053616D65205A20617300F8
:1013C00020262042656C6F77002D4261636B002000
:1013D00028526967687400205A3A0020593A005030
:1013E000726F6265204F666673657420583A0046D6
:1013F00049585F4D4F554E5445445F50524F4245FA
:101400000A0050726F62653A2000436F72650A00ED
:101410004D616368696E6520547970653A200020DB
:10142000706F736974696F6E206F7574206F6620BA
:1014300072616E67652E0A003F50726F6265200010
:101440003C3C3C2067636F64655F4732390A00208B
:10145000636F72726563746564205A3A004732396B
:1014600020756E636F72726563746564205A3A000A
:10147000203A203E2070726F62696E6720636F6D44
:10148000706C6574650A00202063757272656E74F5
:101490005F706F736974696F6E3D0052756E6E692F
:1014A0006E6720696E204452592D52554E206D6F43
:1014B00064650A00473239204175746F20426564C3
:1014C000204C6576656C696E670A00284229616365
:1014D0006B00284629726F6E74002852296967686C
:1014E0007400284C29656674003F2856296572628D
:1014F0006F7365206C6576656C20697320696D700B
:101500006C61757369626C652028302D34292E0A50
:1015100000426164205A2076616C75650A004E6F46
:101520002062696C696E65617220677269640A0085
:10153000203A203E3E3E2067636F64655F47323944
:101540000A00202063757272656E745F706F736934
:1015500074696F6E3D00205A3A200020593A2000ED
:1015600042656420583A200070012C019001270147
:10157000B0012201C0011D01F00118011002130188
:1015800030020E016002090190020401C002FF0056
:101590000003FA004003F5008003F000D003EB00E5
:1015A0002004E6007004E100E004DC004005D70000
:1015B000C005D2004006CD00D006C8008007C30099
:1015C0003008BE00F008B900C009B400B00AAF008E
:1015D000B00BAA00D00CA500000EA000500F9B007D
:1015E000C01096005012910000148C00C0158700A6
:1015F000B0178200B0197D00D01B7800001E730068
:1016000040206E0090226900F024640040275F00B3
:1016100090295A00E02B5500102E500020304B002E
:1016200010324600E033410090353C00103737005F
:1016300070383200A0392D00B03A2800A03B2300BA
:10164000603C1E00103D1900903D1400103E0F003C
:10165000703E0A00C03E0500003F0000403FFBFF17
:10166000803FF6FFC03FF1FF4572723A204D494E70
:1016700054454D5020424544004572723A204D4930
:101680004E54454D50004D494E54454D50207472B6
:1016900069676765726564004572723A204D41580A
:1016A00054454D5020424544004572723A204D4108
:1016B0005854454D50004D415854454D502074727A
:1016C00069676765726564000000210024002700D7
:1016D0002A002D0030003300010100000401070141
:1016E0000A0100002200250028002B002E003100F6
:1016F000340002010000050108010B0100000A0B83
:1017000002090C0D0E080703040100000000000090
:1017100000000000000000000000000000000000C9
:101720000000000000000000121110000000000086
:1017300000000000000000000000000000000000A9
:101740000000290A002062797465733B206372638C
:10175000200053657474696E67732053746F7265EB
:1017600064202800202863616C63756C6174656473
:1017700029210A0020213D2000454550524F4D208F
:10178000435243206D69736D61746368202D202876
:1017900073746F726564292000290A0020627974CD
:1017A00065733B2063726320002073746F726564FD
:1017B0002073657474696E677320726574726965ED
:1017C000766564202800204D61726C696E3D563349
:1017D00039290A0028454550524F4D3D0045455096
:1017E000524F4D2076657273696F6E206D69736D0F
:1017F00061746368200020746F6F206C6F6E6720C7
:10180000657874727573696F6E2070726576656E37
:101810007465640A0020636F6C6420657874727567
:1018200073696F6E2070726576656E7465640A0008
:101830004B494C4C45442E2000202D20496E7661AA
:101840006C6964206578747275646572206E756D5C
:1018500062657220210A004572726F723A000000C0
:1018600020002300260029002C002F003200000158
:101870000000030106010901050505050705080823
:101880000808020202020A0A08080404040401010A
:10189000010101010101030303030303030304071F
:1018A00007070C0C0C0C0C0C0C0C020202020606B6
:1018B0000606060606060B0B0B0B0B0B0B0B0102A9
:1018C0001020200808102040102040800201020152
:1018D000080402010102040810204080804020100A
:1018E0000804020180040201804020100804020163
:1018F00008040201010204081020408001020408CB
:10190000102040802020506C616E6E6572427566BA
:1019100066657242797465733A2000204672656587
:10192000204D656D6F72793A2000436F6D70696C60
:1019300065643A2053657020313320323031390AE2
:1019400000207C20417574686F723A20286E6F6E9B
:10195000652C2064656661756C7420636F6E6669C2
:1019600067290A00323031372D30372D303420319D
:10197000323A303000204C617374205570646174C9
:1019800065643A2000312E312E342E362E360A0070
:101990004D61726C696E0020536F66747761726579
:1019A0002052657365740A00205761746368646F20
:1019B000672052657365740A002042726F776E204B
:1019C0006F75742052657365740A002045787465DC
:1019D000726E616C2052657365740A00506F776592
:1019E0007255700A0073746172740A00205A3A00CA
:1019F00020593A0020583A00656E6473746F707312
:101A0000206869743A20002569730025696D2025D6
:101A10006973002569682025696D20256973002593
:101A20006964202569682025696D20256973002572
:101A3000697920256964202569682025696D20253C
:101A40006973005072696E742074696D653A200084
:101A500050726F7465637465642050696E0A005338
:101A600074616E6461726420446576696174696F43
:101A70006E3A20002052616E67653A2000204D6169
:101A8000783A2000204D696E3A20004D65616E3A2B
:101A9000200046696E697368656421002072616E7A
:101AA00067653A2000206D61783A2000206D696EEC
:101AB0003A2000207369676D613A2000206D6561EE
:101AC0006E3A20003A207A3A2000206F66200020EB
:101AD0005A00205900205800476F696E6720746FC4
:101AE0003A00436C6F636B776973650A00436F75E7
:101AF0006E7465722D0020446972656374696F6E3F
:101B00003A2000202020616E676C653A20005374F3
:101B1000617274696E67207261646975733A20003E
:101B2000506F736974696F6E696E672074686520A1
:101B300070726F62652E2E2E0A003F4E756D6265C3
:101B400072206F66206C65677320696E206D6F76FA
:101B5000656D656E74206E6F7420706C617573694D
:101B6000626C652028302D3135292E0A0059005825
:101B7000003F53616D706C652073697A65206E6FEC
:101B80007420706C61757369626C652028342D3522
:101B900030292E0A004D3438205A2D50726F62655C
:101BA000205265706561746162696C697479205452
:101BB0006573740A003F2856296572626F73652049
:101BC0006C6576656C20697320696D706C617573E6
:101BD00069626C652028302D34292E0A00202F00E0
:101BE0002040002042403A0020403A00416374699E
:101BF00076652045787472756465723A2000203AE3
:101C0000204D6F7665206261636B0A002020646559
:101C10007374696E6174696F6E3D00203A20537968
:101C20006E6320416674657220546F6F6C636861E7
:101C30006E67650A00202063757272656E745F704E
:101C40006F736974696F6E3D00207D0A002C20005F
:101C50004F666673657420546F6F6C20585920620C
:101C600079207B20004E6F206D6F7665206F6E208F
:101C7000746F6F6C6368616E67650A004572726F9E
:101C8000722077726974696E6720746F20454550C1
:101C9000524F4D210A0048617264636F646564208D
:101CA00044656661756C742053657474696E6773FE
:101CB000204C6F616465640A00DC050000DC0500EF
:101CC0000032000000DC05000000007A4400007AC9
:101CD00044000048420000C8420000A0420000A0AA
:101CE000420000484400004C4320204D383531204C
:101CF0005A005A2D50726F6265204F666673657484
:101D000020286D6D293A0A00204400204900202037
:101D10004D33303420500020440020490020204D15
:101D2000333031204531205000204400204900202C
:101D3000204D3330312045302050002044002049D0
:101D40000020500020204D333031204500504944C0
:101D50002073657474696E67733A0A00205A002014
:101D6000204D3432302053004175746F2042656439
:101D7000204C6576656C696E673A0A002059002030
:101D8000580020204D323138205400486F74656E61
:101D900064206F6666736574733A0A00205A0020E7
:101DA000590020204D323036205800486F6D652094
:101DB0006F66667365743A0A00204500205A002059
:101DC000590020580020420020540020204D32307D
:101DD00035205300416476616E6365643A20533C5C
:101DE0006D696E5F66656564726174653E20543C22
:101DF0006D696E5F74726176656C5F66656564724D
:101E00006174653E20423C6D696E5F7365676D6508
:101E10006E745F74696D655F6D733E20583C6D61D3
:101E2000785F78795F6A65726B3E205A3C6D6178A5
:101E30005F7A5F6A65726B3E20453C6D61785F65D5
:101E40005F6A65726B3E0A00205400205200202019
:101E50004D323034205000416363656C65726174AB
:101E6000696F6E2028756E6974732F7332293A205A
:101E7000503C7072696E745F616363656C3E2052A2
:101E80003C726574726163745F616363656C3E206C
:101E9000543C74726176656C5F616363656C3E0A85
:101EA00000204500205A0020590020204D323031BA
:101EB0002058004D6178696D756D20416363656CD4
:101EC00065726174696F6E2028756E6974732F7303
:101ED00032293A0A00204500205A002059002020CB
:101EE0004D3230332058004D6178696D756D206634
:101EF00065656472617465732028756E6974732FEB
:101F000073293A0A00204500205A00205900202059
:101F10004D393220580053746570732070657220FB
:101F2000756E69743A0A0020204D323030204430FA
:101F30000A0020204D32303020543120440020202F
:101F40004D3230302044002044697361626C656416
:101F50000A0046696C616D656E74207365747469FE
:101F60006E67733A002020473231202020203B202A
:101F7000556E69747320696E206D6D0A0062757309
:101F8000793A2070617573656420666F7220696E9E
:101F90007075740A00627573793A207061757365A3
:101FA0006420666F7220757365720A0062757379BA
:101FB0003A2070726F63657373696E670A00005E22
:101FC000BCE2613FDD83C29C7E20A3FD1F41009DDA
:101FD00023BE46DB65F88C11AF32CA57E9744B4912
:101FE0004C4C45442E20004B494C4C20636175738A
:101FF000656420627920746F6F206D756368206955
:102000006E6163746976652074696D65202D206347
:10201000757272656E7420636F6D6D616E643A20C7
:10202000005072696E7465722068616C7465642E0C
:10203000206B696C6C28292063616C6C6564210AD3
:10204000000000000000000000000000003C3C3CDC
:10205000207365745F617869735F69735F61745F32
:10206000686F6D652800203A200A00202063757291
:1020700072656E745F706F736974696F6E3D005D39
:10208000203D20003E20686F6D655F6F666673655A
:10209000745B003E207A70726F62655F7A6F66666D
:1020A000736574203D20002A2A2A205A20484F4D6B
:1020B000454420574954482050524F424520285A01
:1020C0005F4D494E5F50524F42455F555345535FF8
:1020D0005A5F4D494E5F454E4453544F505F5049EF
:1020E0004E29202A2A2A0A003E3E3E207365745F4C
:1020F000617869735F69735F61745F686F6D65288C
:1021000000000020420000204200002041000000AA
:10211000005761726E696E673A20486F6D696E672D
:102120002042756D702044697669736F72203C207F
:10213000310A00020204000052430080894300007B
:1021400055433C3C3C20686F6D656178697328009D
:10215000203A203E204146544552207365745F6109
:102160007869735F69735F61745F686F6D650A009A
:10217000202063757272656E745F706F7369746925
:102180006F6E3D00486F6D65203220536C6F773A5B
:102190000A004D6F766520417761793A0A00486FF1
:1021A0006D65203120466173743A0A00FFFFFF3EDF
:1021B0003E3E20686F6D65617869732800205A3A49
:1021C0000020423A0020436F756E7420413A00208F
:1021D000453A00205A3A0020593A00583A002F2F29
:1021E000200053657474696E672054726176656C63
:1021F00020416363656C65726174696F6E3A20009B
:1022000053657474696E67205265747261637420DB
:10221000416363656C65726174696F6E3A20005347
:10222000657474696E67205072696E7420416363CF
:10223000656C65726174696F6E3A200053657474E1
:10224000696E67205072696E7420616E64205472EA
:102250006176656C20416363656C65726174696F5A
:102260006E3A20004F66660A004661646520486544
:10227000696768742000426564204C6576656C6906
:102280006E6720004661696C656420746F20656E1E
:1022900061626C6520426564204C6576656C696E90
:1022A000670A004D65736820706F696E7420636102
:1022B0006E6E6F74206265207265736F6C766564F4
:1022C0000A004D34323120696E636F727265637437
:1022D00020706172616D65746572207573616765E8
:1022E0000A00546F6F206661722066726F6D2072F3
:1022F00065666572656E636520706F696E740A004D
:102300003A20007A5F6D696E3A20202D3230207AB3
:102310005F6D61783A20203230005A204F66667334
:1023200065742000203A203C3C3C20646F5F707252
:102330006F62655F6D6F76650A002020637572724B
:10234000656E745F706F736974696F6E3D00203ADB
:10235000203E3E3E20646F5F70726F62655F6D6FFE
:1023600076650A00202063757272656E745F706F07
:10237000736974696F6E3D00646F5F70726F626540
:102380005F726169736528002066697273740A0060
:102390005A0059005800486F6D6520006563686FEA
:1023A0003A00544845524D414C2052554E415741F8
:1023B0005900546865726D616C2052756E61776169
:1023C0007900526573656E643A20006F6B0020746B
:1023D0006F6F206C6F6E6720657874727573696FAC
:1023E0006E2070726576656E7465640A0020636F96
:1023F0006C6420657874727573696F6E2070726595
:1024000076656E7465640A000000A0400000A0407C
:10241000000000402044697363726570616E6379E7
:102420003A00326E642050726F6265205A3A002082
:102430003A203C3C3C2072756E5F7A5F70726F622E
:10244000650A00202063757272656E745F706F7329
:102450006974696F6E3D003173742050726F6265EC
:10246000205A3A00203A203E3E3E2072756E5F7A36
:102470005F70726F62650A00202063757272656E0C
:10248000745F706F736974696F6E3D003C3C3C20F3
:1024900070726F62655F70740A00205A3A200020E3
:1024A000593A200042656420583A2000203A200A18
:1024B00000202063757272656E745F706F7369744B
:1024C000696F6E3D0073746F77290A002C20002C11
:1024D00020003E3E3E2070726F62655F707428007F
:1024E00053BF11241FBECFEFD1E2DEBFCDBF00E04E
:1024F0000CBF14E0A0E0B2E0E0E6FAE901E00BBFB7
:1025000002C007900D92A63EB107D9F723E1A6EECF
:10251000B4E001C01D92A837B207E1F712E1C1E7AC
:10252000D2E100E006C021970109802FFE010E9440
:1025300006CDC037D10780E00807A9F70E94A5BAE9
:102540000C942ECD0C9400002F923F924F925F92EC
:102550006F927F928F929F92AF92BF92CF92DF92B3
:10256000EF92FF920F931F93CF93DF93CDB7DEB718
:10257000C557D1090FB6F894DEBF0FBECDBF00918D
:10258000D00D20E6029F80011124045F1A4F809134
:10259000060F80FF1AC0ECE9F3E284917F013FEF60
:1025A000E31AF30A811102C0780104C00E94E433E7
:1025B000F701F3CFD7018D917D01882319F00E9497
:1025C000E433F8CF8AE00E94E43381E090E0909316
:1025D000330E8093320E10920505109204058FE39E
:1025E00080938F0610928E0610928D061092000531
:1025F000109201051092020510920305F8018081E6
:102600000F5F1F4F8032D1F38E34B1F4818190ED92
:10261000980F9A3020F08D3211F08B3269F4329697
:10262000DF0131962C9120532A30D0F3CD01FC01EB
:10263000019620812032D9F3F0933A0EE093390EBF
:102640007F01BFEFEB1AFB0A10816AE270E0C7015D
:102650000E940ECD009731F0FC01319780818032CD
:10266000E1F311821D3429F0143519F0173409F003
:10267000CDC0F70180812FEFE21AF20A8032C9F350
:1026800080538A3008F0C2C010938F0620918D06C7
:1026900030918E064AE03196429FC001439F900DD3
:1026A0001124DF0111972C91022E000C330B2053C3
:1026B0003109280F391F808180538A3060F33093AD
:1026C0008E0620938D06DF0131968C918032D9F3EE
:1026D0001D34D1F42E31310591F03CF42731310510
:1026E00071F02C31310581F40AC02537310564F0D1
:1026F0002737310524F0203A43E0340729F4B0931A
:102700000505A093040582C01092050510920405EA
:102710000091390E61E070E0CD0101964C914423A7
:1027200009F474C0413299F41D3489F42032310522
:1027300071F4909305058093040563E270E00E94B4
:102740000ECD009709F462C0DC011C925FC05FEB04
:10275000D52ED40EE9E1ED15C0F1FC01BE2FAF2F4F
:1027600051915032D9F38B2F9A2FE0EDE50FEA30DB
:1027700040F0E3EDE50FE23020F05B3211F00C9415
:102780007C2BDC01AD2CB12C750143E0F594E79472
:102790004A95E1F7A70140505B4F7A014D2D4770F4
:1027A000FB0102C0EE0FFF1F4A95E2F7AF01F701F0
:1027B0005081452B4083109711F0A01B01C0A0E071
:1027C000F501EA51FB4FA0830AC0409104055091E6
:1027D0000505452B21F4B0930505A0930405DC0104
:1027E0004C9141544A3110F4DC0196CFFC01DF01D9
:1027F00031969C9190539A30D0F3AD01CA014F5F4E
:102800005F4FDC01EC91E032C9F3EECF80918F068F
:102810008D3411F40C94B11C843511F40C94FC2902
:10282000873411F00C945B2B80918D0690918E066D
:102830008C31910509F4C0C57CF4843091053CF4D9
:1028400082309105CCF597FF2BC00C94752B049723
:1028500009F475C50C94752B8A32910509F494C757
:1028600064F48D31910509F4AAC64E9711F00C94C9
:10287000752B0E94094A0C94752B8B35910509F430
:10288000A2C68C35910509F4A5C68A35910511F0CB
:102890000C94752B10920B0510920C0D0C94752B4B
:1028A00080910602882311F40C94752B0E94294D07
:1028B0000E94C7A80C94752B20910602222311F4C4
:1028C0000C94752B11E0029709F010E00E94294D3D
:1028D00082E50E94CD33882309F426C10E946B3320
:1028E0006B017C014090E60E5090E70E6090E80E80
:1028F0007090E90E8090EA0E9090EB0EA090EC0E96
:10290000B090ED0E89A29AA2ABA2BCA28090E20D7B
:102910009090E30DA090E40DB090E50D8DA29EA2E5
:10292000AFA2B8A68090E60D9090E70DA090E80DBC
:10293000B090E90D89A69AA6ABA6BCA620E030E02F
:10294000A9010E94A1C5882309F4DFC4A301920153
:102950006DA17EA18FA198A50E94A1C581110BC078
:1029600029A13AA14BA15CA1C501B4010E94A1C556
:10297000882309F4CAC420E030E0A901C701B601E8
:102980000E94A1C5881F8827881F181307C0812CA3
:10299000912C90E8A92E9FE3B92E06C0812C912C92
:1029A00080E8A82E8FEBB82E89AE9AAEABAEBCAE47
:1029B000A30192016DA17EA18FA198A50E940ACAD0
:1029C0006DAB7EAB8FAB98AF29A13AA14BA15CA1B7
:1029D00069A57AA58BA59CA50E940ACA69AB7AABAA
:1029E0008BAB9CAB2DA93EA94FA958ADCA01B9012B
:1029F0000E9406C64B015C0129A93AA94BA95CA912
:102A0000CA01B9010E9406C69B01AC01C501B4010F
:102A10000E940BCA0E9476CC6DA77EA78FA798ABA9
:102A200020E030E040E05FE30E9406C64B015C011D
:102A3000A7019601C701B6010E9406C66B017C0181
:102A4000A5019401C501B4010E9406C69B01AC0119
:102A5000C701B6010E940ACA0E9476CC9B01AC0154
:102A600069AD7AAD8BAD9CAD0E9406C64B015C0191
:102A70002DA13EA14FA158A5C301B2010E940BCACE
:102A800020E030E040E05FE30E9406C66B017C017D
:102A900069A97AA98BA99CA990582DA53EA54FA5F7
:102AA00058A90E94E7CA9B01AC01C501B4010E946C
:102AB00006C69B01AC01C701B6010E940BCAA30167
:102AC00092010E940ACA6B017C0129A53AA54BA577
:102AD0005CA569A17AA18BA19CA10E940BCA20E0F0
:102AE00030E040E05FE30E9406C62B013C012DA5CB
:102AF0003EA54FA558A96DA97EA98FA998AD0E94A2
:102B0000E7CA9B01AC01C501B4010E9406C69B0146
:102B1000AC01C301B2010E940BCA29A13AA14BA189
:102B20005CA10E940ACA14C089E40E94CD338823A4
:102B300029F00E946B336B017C0103C0C12CD12CA6
:102B400076018AE40E94CD338823D9F00E946B334A
:102B500069A77AA78BA79CA720E030E0A901C7014D
:102B6000B6010E94A1C581111AC020E030E0A90180
:102B700069A57AA58BA59CA50E94A1C581110FC04E
:102B8000C4C320E030E0A901C701B6010E94A1C57D
:102B9000882309F4BAC319A61AA61BA61CA6A70166
:102BA0009601505829A33AA34BA35CA389A59AA5E3
:102BB000ABA5BCA5B0588DA39EA3AFA3B8A7CA016F
:102BC000B9010E9406C64B015C012DA13EA14FA197
:102BD00058A5CA01B9010E9406C69B01AC01C501F6
:102BE000B4010E940BCA0E9476CC2D966CAF7DAFCB
:102BF0008EAF9FAF2D978090E60E9090E70EA0903D
:102C0000E80EB090E90E8DA69EA6AFA6B8AAA701C1
:102C10009601C501B4010E940BCA69AF7AAF8BAFB0
:102C20009CAFA090EA0EB090EB0EC090EC0ED0904E
:102C3000ED0EADAABEAACFAAD8AE29A53AA54BA53E
:102C40005CA5C601B5010E940BCA21966CAF7DAF91
:102C50008EAF9FAF21978090E20D9090E30DA090F2
:102C6000E40DB090E50D25968CAE9DAEAEAEBFAE38
:102C7000259729AD3AAD4BAD5CADC501B4010E94BD
:102C80000ACA6B017C018090E60D9090E70DA09040
:102C9000E80DB090E90D29968CAE9DAEAEAEBFAEFC
:102CA000299721962CAD3DAD4EAD5FAD2197C50165
:102CB000B4010E940ACA4B015C012091EE0E3091D2
:102CC000EF0E4091F00E5091F10E65962CAF3DAF96
:102CD0004EAF5FAF65976091EA0D7091EB0D8091FB
:102CE000EC0D9091ED0D0E940ACA69AB7AAB8BABEB
:102CF0009CAB8091EE0D9091EF0DA091F00DB091F5
:102D0000F10D61968CAF9DAFAEAFBFAF61972091D3
:102D1000F20E3091F30E4091F40E5091F50E69963B
:102D20002CAF3DAF4EAF5FAF6997A701960169A188
:102D30007AA18BA19CA10E9406C62B013C01A50192
:102D400094016DA17EA18FA198A50E9406C69B014A
:102D5000AC01C301B2010E940BCA2B013C01A501C9
:102D6000940169A17AA18BA19CA10E9406C64B0186
:102D70005C01A70196016DA17EA18FA198A50E947B
:102D800006C69B01AC01C501B4010E940ACAA30199
:102D900092010E947ECA6B017C0120E030E0A90113
:102DA0000E94A1C587FF0AC02BED3FE049EC50E42B
:102DB000C701B6010E940BCA6B017C01112351F0BF
:102DC0002BED3FE049EC50E4C701B6010E940ACA6E
:102DD0006B017C0120E030E0A901C701B6010E942F
:102DE000A1C5811124C025962CAD3DAD4EAD5FAD82
:102DF00025976DA57EA58FA598A90E94A1C58111D3
:102E000016C029962CAD3DAD4EAD5FAD29976DA98D
:102E10007EA98FA998AD0E94A1C5811108C00BEDB4
:102E2000C02E0FE0D02E09ECE02E00E4F02E2D96FF
:102E30002CAD3DAD4EAD5FAD2D97C701B6010E94E3
:102E400006C69B01AC010E9406C64B015C0129A984
:102E50003AA94BA95CA9CA01B9010E9406C69B0107
:102E6000AC01C501B4010E940BCA0E9476CC4B0193
:102E70005C012FE632E143E85AE30E94A1C587FDD9
:102E800040C2C501B4010E9480CB0E9454CB7EABEE
:102E90006DAB672B21F421E030E03EAB2DAB8DA86C
:102EA0009EA8B40180E090E00E94A5C54B015C01A2
:102EB0009B01AC01C701B6010E94E7CA6DA77EA7BE
:102EC0008FA798ABA501940169A97AA98BA99CA9A0
:102ED0000E94E7CA2D966CAF7DAF8EAF9FAF2D9746
:102EE00069962CAD3DAD4EAD5FAD699761966CAD09
:102EF0007DAD8EAD9FAD61970E940ACAA501940178
:102F00000E94E7CA61966CAF7DAF8EAF9FAF6197AD
:102F10002DA53EA54FA558A9CA01B9010E9406C614
:102F200020E030E040E05FE30E9406C69B01AC0178
:102F300060E070E080E89FE30E940ACA69AB7AAB68
:102F40008BAB9CAB6596ACACBDACCEACDFAC659747
:102F5000A98EBA8ECB8EDC8E69968CAC9DACAEAC55
:102F6000BFAC69978D8E9E8EAF8EB8A260918D0298
:102F700070918E02072E000C880B990B0E94A7C53A
:102F800020919F023091A0024091A1025091A20293
:102F90000E9406C62AE037ED43E25CE30E9406C6C3
:102FA00025966CAF7DAF8EAF9FAF25970E9461587D
:102FB0009B01AC0128533F4F4F4F5F4F29962CAFD9
:102FC0003DAF4EAF5FAF299749A05AA06BA07CA040
:102FD00022242394312C19E1D12E8DA89EA82814E7
:102FE000390409F43BC10E94DA3F0E946158DC01B8
:102FF000CB0129968CAC9DACAEACBFAC299788199F
:103000009909AA09BB09B7FD10C00E9461589B012C
:10301000AC0128533F4F4F4F5F4F29962CAF3DAF28
:103020004EAF5FAF29970E94AA98DA94DD20E9F1AC
:1030300029A93AA94BA95CA96DA17EA18FA198A548
:103040000E9406C64B015C012DA53EA54FA558A9BF
:10305000B201C3010E9406C6A50194010E940BCAD9
:103060007B018C0129A93AA94BA95CA9B201C30132
:103070000E9406C64B015C012DA53EA54FA558A98F
:103080006DA17EA18FA198A50E9406C69B01AC01EF
:10309000C501B4010E940ACA2B013C01C701D80135
:1030A0008DA39EA3AFA3B8A74FC0B10180E090E06D
:1030B0000E94A5C52DA53EA54FA558A90E9406C6EC
:1030C0004B015C010E94E4CA6B017C01C501B401A3
:1030D0000E946CCC4B015C01A701960169A17AA109
:1030E0008BA19CA10E9406C62B013C01A501940165
:1030F00069A57AA58BA59CA50E9406C69B01AC017B
:10310000C301B2010E940BCA2B013C01A50194012D
:1031100069A17AA18BA19CA10E9406C64B015C010A
:10312000A701960169A57AA58BA59CA50E9406C654
:103130009B01AC01C501B4010E940ACA6DA37EA324
:103140008FA398A7A9E1DA2E9201A30169AD7AAD08
:103150008BAD9CAD0E940BCA698B7A8B8B8B9C8B41
:103160002DA13EA14FA158A521966CAD7DAD8EAD90
:103170009FAD21970E940BCA6D8B7E8B8F8B988F92
:103180002D962CAD3DAD4EAD5FAD2D97698D7A8DF1
:103190008B8D9C8D0E940BCA698F7A8F8B8F9C8F31
:1031A00061962CAD3DAD4EAD5FAD61976D8D7E8D61
:1031B0008F8D98A10E940BCA6D8F7E8F8F8F98A3E1
:1031C00080918C02882321F0CE0141960E94868C4A
:1031D000C0903F0D89899A89AB89BC8989839A837C
:1031E000AB83BC838D899E89AF89B88D8D839E8387
:1031F000AF83B887898D9A8DAB8DBC8D89879A876F
:10320000AB87BC878D8D9E8DAF8DB8A18D879E8736
:10321000AF87B88B9E012F5E3F4FAE01475F5F4F78
:10322000BE016B5F7F4FCE0101960E94DF7625962F
:10323000ECACFDAC0EAD1FAD25979E01235E3F4F5C
:10324000AE01475F5F4FBE016B5F7F4FCE010196BE
:103250000E9497683FEF231A330ABFCEC0903F0DFC
:103260008091E20D9091E30DA091E40DB091E50DF8
:1032700089839A83AB83BC838091E60D9091E70D9F
:10328000A091E80DB091E90D8D839E83AF83B8873F
:103290008091EA0D9091EB0DA091EC0DB091ED0DA8
:1032A00089879A87AB87BC878091EE0D9091EF0D4F
:1032B000A091F00DB091F10D8D879E87AF87B88BEF
:1032C0009E012F5E3F4FAE01475F5F4FBE016B5FB8
:1032D0007F4FCE0101960E94DF762596ECACFDACC7
:1032E0000EAD1FAD25972EEE3DE0AE01475F5F4F5F
:1032F000BE016B5F7F4FCE0101960E9497680E94CE
:10330000B2320E94D9330C94752BE7E5F8E1849131
:103310008F010F5F1F4F882321F00E94E433F801D3
:10332000F6CFE8E0F2E084918F010F5F1F4F882312
:1033300011F40C94752B0E94E433F801F4CF80E56E
:103340000E94CD33882329F00E942B336B017C012E
:1033500003C0C12CD12C760183E50E94CD33882394
:1033600061F00E946B3320E030E04AE754E40E94B1
:1033700006C60E9454CB6B017C010E9442420E940F
:10338000D9338091DE0D9091DF0DA091E00DB091C9
:10339000E10DC80ED91EEA1EFB1E0E946158DC0119
:1033A000CB018C199D09AE09BF09B7FD02C00C9471
:1033B000752B0E94AA98F1CF0E9412888091060F67
:1033C00085FF0EC0E8EDF2E084918F010F5F1F4F83
:1033D000882321F00E94E433F801F6CF0E94434B8A
:1033E0000E94424280E00E946C32D0903F0D21E06A
:1033F00040E050E0BA0180E00E94218B0E94BC3A7C
:103400008091060F85FF0CC0EFEBF2E084918F01F5
:103410000F5F1F4F882321F00E94E433F801F6CF9D
:1034200011E010934D0288E50E949E33F82E89E545
:103430000E949E33082F8AE50E949E33E82EF110E9
:1034400004C0011104C0182705C0011102C010E01A
:1034500001C0182F0E94A832111105C0F11003C03D
:10346000002309F475C020E030E040EA50E46091A8
:10347000020F7091030F8091040F9091050F0E942D
:103480000BCA4B015C016093EA0D7093EB0D8093C6
:10349000EC0D9093ED0D2091EE0E3091EF0E4091DA
:1034A000F00E5091F10E0E9431CC1816E4F4809188
:1034B000060F85FF09C0B501A40183EA92E00E94CE
:1034C00066B38AE00E94E43319821A821B821C824E
:1034D0009E012F5F3F4F4AEE5DE06AEE7EE086EE92
:1034E0009EE00E94FD38111104C0FF2049F0002326
:1034F000E9F00E942E4C111105C0011103C014C047
:10350000002331F181E090E00E946C968091060FDB
:1035100085FF08C046EE5EE063E872E08FE892E067
:103520000E94203A111102C0FF2091F080E090E04B
:103530000E946C968091060F85FF08C046EE5EE003
:1035400063E672E08FE692E00E94203A111102C019
:10355000EE2081F082E090E00E946C968091060F50
:1035600085FF08C046EE5EE06DE272E08FE492E017
:103570000E94203A0E94E63A8091160E80934D02F6
:103580000E94983A21E040E050E0BA018D2D0E945F
:103590005E9E0E947FA18091060F85FD02C00C9463
:1035A000752BEEE1F2E084918F010F5F1F4F8823AE
:1035B00011F40C94752B0E94E433F801F4CF0E94AF
:1035C00069500C94752B81E080930B0580930C0D52
:1035D0000C94752B85E40E94CD3389A381110C9442
:1035E0008C2B0E94424223EF32E03AA729A7E2ED5A
:1035F0002E2EEDE03E2EF6EEAF2EFEE0BF2E00E0CA
:1036000010E01DA2A9A5BAA58D91BAA7A9A70E94ED
:10361000CD33882309F46AC0D5012D913D914D9198
:103620005C912DA73EA74FA758AB0E946B336B014F
:103630007C0103301105B9F58091F20D882399F1D1
:1036400080903F0DB4E08B9E40011124F401E95EAF
:10365000F24F408051806280738020E030E0A90109
:10366000C301B2010E94A1C58823E9F020E030E047
:10367000A901C701B6010E94A1C5811114C073013F
:103680006201F7FAF094F7F8F094F401E15EF24F7A
:10369000C082D182E282F382F401E95CF24FC082FF
:1036A000D182E282F382F501C082D182E282F3828A
:1036B00003301105D9F02DA53EA54FA558A9C70186
:1036C000B6010E940ACA9B01AC01D1016D917D91A6
:1036D0008D919C910E940BCAF1016083718382835A
:1036E0009383C8010E942F34F1E0FDA30F5F1F4FA9
:1036F00024E0220E311C34E0A30EB11C043011056D
:1037000009F080CF8DA0882019F00E94E63A38C0D9
:1037100099A09920A9F1C090F20ED090F30EE090FC
:10372000F40EF090F50E20916B1330916C134091D4
:103730006D1350916E13C701B6010E9406C60E9418
:103740003CCC60932A0F70932B0F80932C0F909397
:103750002D0FC701B6010E944FCB2FB7F89460938D
:10376000290C70932A0C80932B0C90932C0C2FBF58
:1037700010921A0F10921B0F10921C0F10921D0F17
:103780000E947FA10C94752B80910602882311F46E
:103790000C94752B89E40E94CD33182F882321F0D7
:1037A0000E943B33F62E01C0F12C8AE40E94CD33F7
:1037B000082F882331F00E943B33E62E111104C0FC
:1037C0000CC0E12C1123D1F074E0A72EAF1410F03F
:1037D0000C944D30E7EEF2E005C064E0B62EBE1466
:1037E000C8F30CC084918F010F5F1F4F882311F421
:1037F0000C94752B0E94E433F801F4CF0E94A83298
:10380000112341F12091080D3091090D4F2D4203F4
:10381000B001439F700D11248091040D9091050D0E
:10382000680F791F072E000C880B990B0E94A7C503
:103830002091FA0E3091FB0E4091FC0E5091FD0E3E
:103840000E940BCA6093E20D7093E30D8093E40D28
:103850009093E50D002341F120910A0D30910B0D5D
:103860005E2D5203B001539F700D11242091060D5F
:103870003091070D620F731F072E000C880B990BF8
:103880000E94A7C52091FE0E3091FF0E4091000FBF
:103890005091010F0E940BCA6093E60D7093E70DE3
:1038A0008093E80D9093E90D80E50E949E33882374
:1038B000A1F10E945C33882381F11123B1F020E053
:1038C00030E040EA51E46091E20D7091E30D8091A7
:1038D000E40D9091E50D0E940ACA6093E20D709389
:1038E000E30D8093E40D9093E50D0023B1F020E00B
:1038F00030E040E052E46091E60D7091E70D809178
:10390000E80D9091E90D0E940ACA6093E60D70934C
:10391000E70D8093E80D9093E90D86E40E94CD3386
:103920008823D9F00E946B336B017C0120E030E0EA
:10393000A9010E9431CC181684F420E030E040E761
:1039400052E4C701B6010E94E7CA60939F027093D8
:10395000A0028093A1029093A2020E94C7A80C9497
:10396000752B80918D0690918E068737910509F40D
:103970001CC50CF0AEC08035910509F46EC20CF088
:1039800053C08933910509F460C27CF582319105F9
:1039900009F4CBC3D4F497FF02C00C94752B82308A
:1039A00091050CF455C1419711F00C94752B5F985B
:1039B0008A989FB7F894809108018E7F80930801C0
:1039C0009FBF129847980C94752B8A32910509F481
:1039D00043C18033910509F443C14F9711F00C9412
:1039E000752B0E94F0820C94752B8D33910509F490
:1039F0003BC13CF48B33910509F414C20CF421C291
:103A000087C18F33910509F47FC10CF479C18034EB
:103A1000910509F41EC28134910511F00C94752BA7
:103A20000E944B840C94752B8A36910509F470C35F
:103A300024F58435910509F478C354F48235910551
:103A400009F46AC30CF06CC30E94E37B0C94752BE1
:103A50008C35910509F488C334F48535910509F452
:103A600068C30C94752B8836910509F4FAC1893620
:103A7000910509F4D4C20C94752B8F36910509F485
:103A80003BC27CF48D36910509F411C30CF021C2C0
:103A90008B36910511F00C94752B0E94077C0C94C9
:103AA000752B8237910509F4E8C334F48137910509
:103AB00009F46BC20C94752B8337910509F4E3C3A9
:103AC0008637910511F00C94752B0E9446A10C9439
:103AD000752B8831A1E09A0709F4C6C60CF04AC0DC
:103AE0008B3C910509F4DCC4FCF48B39910509F495
:103AF000B3C264F48937910509F4C4C40CF4BBC49F
:103B00008C38910509F46DC20C94752B883C910595
:103B100009F4BEC4893C910509F4BEC48E3B9105ED
:103B200011F00C94752BDFC2833D910509F4A7C5F4
:103B300064F48D3C910509F4D6C40CF4D0C48E3CD9
:103B4000910509F43DC50C94752B8C3D910509F444
:103B50003BC634F48A3D910509F429C60C94752BB3
:103B60008D3D910509F43DC6823E910509F452C68A
:103B70000C94752B843AE1E09E0711F40C94B5295E
:103B8000ACF5803321E0920709F4E0C77CF48E3273
:103B900041E0940711F40C94232614F00C9477263A
:103BA0008D32914009F41BC70C94752B8039B1E01C
:103BB0009B0711F40C94AE294CF48336914011F01C
:103BC0000C94752BE7E5F8E10C94D529813921E0B7
:103BD000920711F40C94B1298239914011F00C94A0
:103BE000752B80E00E943F3A0C94752B853F41E095
:103BF000940711F40C94BE29ACF48C3AA1E09A0716
:103C000011F40C94B829843FB1E09B0711F40C9493
:103C1000BB29853A914011F00C94752B0E94009FAE
:103C20000C94752B873FF1E09F0711F40C94C42985
:103C300014F40C94C129833533E0930711F40C94E8
:103C4000D229873E934011F40C94EC290C94752BE7
:103C50000E945E490C94752B0E9486820C94752BF1
:103C60000E94257D0C94752B8CE40E949E33882342
:103C700019F081E080936B0282E50E949E338823D5
:103C800019F081E080936A0281E40E949E338823C8
:103C900029F081E080936B0280936A02109269029E
:103CA0000EE013E0D8018D918D01882321F10E944F
:103CB000E433F8CF8091060F882309F459C146E018
:103CC000C42E43E0D42EE12CF12C20E08091060F8D
:103CD00090E00E2C02C0959587950A94E2F780FD3E
:103CE0002FC1FFEFEF1AFF0A32E0C30ED11C46E0EE
:103CF000E416F10459F78AE00E94E4330C94752B22
:103D00000E94F7840C94752B0E94DF840C94752B11
:103D100020E030E0A9016091450D7091460D809141
:103D2000470D9091480D0E94A1C5882381F081E044
:103D30008093400D01E213E0F80181918F01882307
:103D400019F00E94E433F8CF8AE00E94E433109225
:103D5000110D1092120D1092130D1092140D10925D
:103D60002F0D1092300D1092310D1092320D1092D5
:103D7000330D1092340D1092350D1092360D1092B5
:103D80000D0D10920E0D10920F0D1092100D10923D
:103D90001F0D1092200D1092210D1092220D81E026
:103DA00080932F021092170D1092180D1092190D7A
:103DB00010921A0D1092270D1092280D1092290DB5
:103DC00010922A0D1092370D1092380D1092390D65
:103DD00010923A0D1092230D1092240D1092250D81
:103DE0001092260D8093300210921B0D10921C0D24
:103DF00010921D0D10921E0D10922B0D10922C0D75
:103E000010922D0D10922E0D10923B0D10923C0D24
:103E100010923D0D10923E0D1092160D1092150D40
:103E20000C94752B1092400D1092F20D00E313E0EC
:103E3000D8018D918D01882309F45DCF0E94E43370
:103E4000F7CF0E941D850C94752B0E9477850C94EA
:103E5000752B0E9487840C94752B0E947F8A0C948A
:103E6000752B88E690E00E943E3581110C94752BED
:103E70008091060F83FF02C00C94752B83E50E948E
:103E8000CD33882311F10E946B3310910605212F49
:103E900030E0220F331FF901E652F34F7F010E94F9
:103EA0004FCBD7016D937C93812F0E94045D0E94BC
:103EB0006B3320E030E04AEA52E40E94A1C51816B4
:103EC00014F00E9469A30E946B330E9415B40C94F5
:103ED000752B8EE40E94CD33882311F40C94752B3E
:103EE0000E943B3360935710709358108093591081
:103EF00090935A100C94752B83E50E94CD33882340
:103F000019F00E944B3301C080E08093060FECE96A
:103F1000F3E284918F010F5F1F4F882321F00E94ED
:103F2000E433F801F6CFE6E1F3E084918F010F5F0F
:103F30001F4F882309F4BECE0E94E433F801F5CF69
:103F4000BB24B394B20E222319F08CE20E94E43316
:103F5000F60125913491F901849189010F5F1F4F7A
:103F6000882321F00E94E4339801F5CF2B2DB9CEA0
:103F7000E2E1F3E084918F010F5F1F4F882309F482
:103F8000BACE0E94E433F801F5CF83E50E94CD3329
:103F9000882369F00E944B33809379028D3310F4AB
:103FA0000C94752B8CE3809379020C94752BECE9BF
:103FB000F3E284918F010F5F1F4F882321F00E944D
:103FC000E433F801F6CF4091790250E060E070E010
:103FD0008DE193E00E942CB38AE00E94E4330C94BC
:103FE000752B8091060F83FF02C00C94752B83E51F
:103FF0000E94CD33882311F40C94752B0E946B33EF
:104000000E944FCB6739710514F066E970E0709338
:10401000D90C6093D80C0E94BA5C0C94752B89E67D
:1040200090E00E943E35811111C0E4E2F3E08491FA
:104030008F010F5F1F4F882321F00E94E433F801A6
:10404000F6CF0E94377C8AE00E94E4331092330E50
:104050001092320E0C947A3083E50E94CD3388237F
:1040600011F40C94752B0E944B338093380E8D33D2
:1040700018F08CE38093380E0E9461586B017C012C
:104080002091380E30E0A8EEB3E00E94FBC9DC01BD
:10409000CB018C0D9D1DAE1DBF1D8093340E9093E2
:1040A000350EA093360EB093370E0C94752B8DE61B
:1040B00090E00E943E3581110C94752B8091060F83
:1040C00083FF02C00C94752B83E50E94CD3389A732
:1040D00081110C94D62B82E50E94CD3381110C9472
:1040E000D62B0C94752B8091060F83FF02C00C9485
:1040F000752B83E50E94CD3389A781110C941D2D6A
:1041000082E50E94CD3381110C941D2D0C94752BEA
:104110000E94167C0C94752B10920A050C94752B3A
:1041200081E080930A050C94752B0E9411A30C94D6
:10413000752B83E50E949E33882311F40C94752B14
:104140000E946B3320E030E04AE754E40E9406C648
:104150000E9454CB60933B0E70933C0E80933D0EB7
:1041600090933E0E0C94752BA3EFCA2EA2E0DA2E8C
:10417000BFE5EB2EB3E1FB2E10E0D6018D916D0172
:104180000E949E33882309F46DC0133009F063C088
:104190000E946B334B015C0120E030E040EA51E4C7
:1041A0000E94A1C587FF4EC0A501940160916B13C9
:1041B00070916C1380916D1390916E130E94E7CAF9
:1041C0002B013C019B01AC016091570D7091580D82
:1041D0008091590D90915A0D0E9406C66093570D1B
:1041E0007093580D8093590D90935A0DA30192012D
:1041F0006091730D7091740D8091750D9091760D95
:104200000E9406C66093730D7093740D8093750DB4
:104210009093760D60914B1370914C1380914D13D8
:1042200090914E130E94A5C5A30192010E9406C65B
:104230000E9454CB60934B1370934C1380934D1397
:1042400090934E1380926B1390926C13A0926D1307
:10425000B0926E1307C00E946B33F70160837183C5
:10426000828393831F5FF4E0EF0EF11C143009F09A
:1042700084CF0E947CB50C94752B0E9442420E9410
:104280007FA10C94752BEAE0F4E084918F010F5F1D
:104290001F4F882321F00E94E433F801F6CFECEFA2
:1042A000F3E084918F010F5F1F4F882321F00E945C
:1042B000E433F801F6CFE5EEF3E084918F010F5F70
:1042C0001F4F882321F00E94E433F801F6CFE5ED7B
:1042D000F3E084918F010F5F1F4F882321F00E942C
:1042E000E433F801F6CFE4ECF3E084918F010F5F43
:1042F0001F4F882321F00E94E433F801F6CFE3EB4F
:10430000F3E084918F010F5F1F4F882321F00E94FB
:10431000E433F801F6CFE4EAF3E084918F010F5F14
:104320001F4F882321F00E94E433F801F6CFEFE815
:10433000F3E084918F010F5F1F4F882321F00E94CB
:10434000E433F801F6CFE9E7F3E084918F010F5FE2
:104350001F4F882321F00E94E433F801F6CFE4E6F2
:10436000F3E084918F010F5F1F4F882321F00E949B
:10437000E433F801F6CFE7E4F3E084918F010F5FB7
:104380001F4F882321F00E94E433F801F6CFEFE2BB
:10439000F3E084918F010F5F1F4F882311F40C9479
:1043A000752B0E94E433F801F4CFECEEF4E0849135
:1043B0008F010F5F1F4F882321F00E94E433F80123
:1043C000F6CFE4EEF4E084918F010F5F1F4F882356
:1043D00021F00E94E433F801F6CF659903C007EF9E
:1043E00012E002C00CEF12E0D8018D918D018823FC
:1043F00019F00E94E433F8CF8AE00E94E433ECED38
:10440000F4E084918F010F5F1F4F882321F00E94F9
:10441000E433F801F6CF8091030181FD03C007EF7B
:1044200012E002C00CEF12E0F80181918F018823A5
:1044300019F00E94E433F8CF8AE00E94E433E4EDFF
:10444000F4E084918F010F5F1F4F882321F00E94B9
:10445000E433F801F6CF4B9B03C007EF12E002C034
:104460000CEF12E0D8018D918D01882309F443CC23
:104470000E94E433F7CF81E080934D028093160EC3
:104480000C94752B10924D021092160E0C94752BF5
:104490000E94DDA00C94752B0E94B8A00C94752B83
:1044A000E7E6EE2EEDE0FE2E03EF12E0F4E0DF2E65
:1044B000D00EF80181918F010E949E33882341F034
:1044C0000E946B33D7016D937D938D939C931397CB
:1044D000B4E0EB0EF11CD012ECCF0C94752B0E94C3
:1044E0004FA00C94752B83E50E949E33882351F0D6
:1044F0000E946B3360937F0D7093800D8093810DCC
:104500009093820D84E50E949E33882351F00E948F
:104510006B3360937B0D70937C0D80937D0D909336
:104520007E0D82E40E949E33882351F00E942B333B
:104530006093770D7093780D8093790D90937A0D39
:1045400088E50E949E33882351F00E946B3360936C
:104550004B0D70934C0D80934D0D90934E0D89E54E
:104560000E949E33882351F00E946B3360934F0D5D
:104570007093500D8093510D9093520D8AE50E94D7
:104580009E33882351F00E946B336093530D7093D8
:10459000540D8093550D9093560D85E40E949E33E3
:1045A000882311F40C94752B0E946B336093570D84
:1045B0007093580D8093590D90935A0D0C94752B50
:1045C00085E40E949E33882351F00E946B336093F0
:1045D000110E7093120E8093130E9093140E8AE5B1
:1045E0000E949E33882351F00E946B3360930D0E1E
:1045F00070930E0E80930F0E9093100E56EEC52EF4
:104600005EE0D52E64EAE62E6DE0F62E03EF12E0B2
:1046100073E0772E700EF80181918F010E949E3316
:104620008823F9F00E946B334B015C01D7012D9177
:104630003D914D915C910E940ACA9B01AC01F6012B
:1046400060817181828193810E940BCAD6016D9332
:104650007D938D939C931397F70180829182A28220
:10466000B382F4E0CF0ED11C24E0E20EF11C7012F4
:10467000D2CF0E94E63A0E947FA10C94752BECE900
:10468000F3E284918F010F5F1F4F882321F00E9476
:10469000E433F801F6CF83E50E949E33882321F0AE
:1046A0000E945C3380938C02EEE2F5E084918F01EE
:1046B0000F5F1F4F882321F00E94E433F801F6CFEB
:1046C00080918C02811103C0EAE2F5E002C0E6E2CB
:1046D000F5E084918F010F5F1F4F882321F00E9426
:1046E000E433F801F6CFEEE1F5E084918F010F5F3E
:1046F0001F4F882321F00E94E433F801F6CF409148
:104700005C0250915D0260915E0270915F028CE1EB
:1047100095E00E9466B34091600250916102609101
:1047200062027091630289E195E00E9466B3409154
:10473000640250916502609166027091670286E1A1
:1047400095E00E9466B3EEE0F5E084918F010F5F83
:104750001F4F882321F00E94E433F801F6CF4091E7
:1047600050025091510260915202709153028CE0BC
:1047700095E00E9466B340915402509155026091B9
:1047800056027091570289E095E00E9466B340910D
:1047900058025091590260915A0270915B0286E072
:1047A00095E00E9466B38AE00E94E4339EC78AEDDA
:1047B00090E00E943E35811198C7109106051123A3
:1047C00009F493C70C94512E83E50E94CD338823BE
:1047D00009F48BC70E943B3370938E0260938D0265
:1047E00084C78DED90E00E943E3581117EC783E540
:1047F0000E94CD33882309F478C70091060510E0A4
:104800000E943B33000F111FF801E95CFD4F7183DB
:1048100060836BC780E50E949E33882309F465C7D7
:104820000E943B33F62EC62ED72E83E50E94CD3351
:10483000882321F00E943B338B0102C00FEF1FEF52
:10484000C8010196039708F050C7D7FC4EC7EEE4A5
:10485000F5E080E38E0F9491F91609F446C731967E
:104860008E13F9CF0C94533080E50E949E33882339
:1048700009F43BC70E943B336B017C018B01672B22
:1048800009F08FC083E50E949E338823C1F00E9407
:104890003B336B017C0160E070E08DE99FE00E949A
:1048A0006DA787FD22C7B6018DE99FE00E941CB26B
:1048B0006CE271E080E090E00E94295816C7ECE9B4
:1048C000F3E284917F012FEFE21AF20A882321F0AC
:1048D0000E94E433F701F5CF60E070E087E995E0EE
:1048E0000E94AAB380919F0F28E532E06901C81A9F
:1048F000D10887FDD394CC0CDD1CCC0CDD1C0D2C19
:10490000000CEE08FF0880919E0F28E830E0490176
:10491000881A910887FD9394880C991C880C991C1F
:10492000092C000CAA08BB0880919D0F8F3FB9F09D
:1049300090E0FC01EE0FFF1F8E0F9F1FFC01E05D5A
:10494000F04F01811281B3E0000F111FBA95E1F71A
:1049500084E0169507958A95E1F70E5F1F4F980141
:104960002F5F3F4FC901330FAA0BBB0B9C01AD0159
:10497000281939094A095B09A4EBB0E00E94EBC988
:10498000A7019601281939094A095B090E94CFC974
:10499000B90184E995E00E94AAB38AE00E94E43359
:1049A000A4C6E7E5F8E184918F010F5F1F4F8823CC
:1049B00021F00E94E433F801F6CFB6018DE895E0CE
:1049C0000E94AAB3EEE7F5E084918F010F5F1F4FBD
:1049D000882309F48AC60E94E433F801F5CF85E400
:1049E0000E94CD33882339F00E944B33082F823048
:1049F00008F094C001C000E080E50E949E33882347
:104A000061F00E946B3334E0039FF0011124E15FF9
:104A1000FD4F608371838283938389E40E949E3378
:104A20008823A9F00E946B3344E0049F9001112475
:104A3000D901A95FBD4F7D012CEA35EC47E25EE369
:104A40000E9406C6F701608371838283938384E4A6
:104A50000E949E338823B1F00E946B33F4E00F9FD5
:104A600090011124A901495E5D4F7A012CEA35ECD1
:104A700047E25EE30E94E7CAD7016D937D938D9371
:104A80009C931397ECE9F3E284917F01BFEFEB1A5B
:104A9000FB0A882321F00E94E433F701F5CF10E0F0
:104AA000B8018BEA95E00E94AAB3000F111F000F16
:104AB000111FF801E15FFD4F4081518162817381D7
:104AC00087EA95E00E9466B3F801E95FFD4F2CEAA2
:104AD00035EC47E25EE360817181828193810E94BF
:104AE000E7CAAB01BC0183EA95E00E9449B3F80133
:104AF000E95EFD4F2CEA35EC47E25EE360817181AF
:104B0000828193810E9406C6AB01BC018FE995E0CA
:104B10000E9449B38AE00E94E433E7C5E7E5F8E183
:104B200084918F010F5F1F4F811103C000E413E0D8
:104B300004C00E94E433F801F3CFF80181918F01A2
:104B4000882309F4D8C80E94E433F7CF80E50E9497
:104B50009E33882351F00E946B3360932702709339
:104B600028028093290290932A0289E40E949E33AE
:104B7000882381F00E946B332CEA35EC47E25EE338
:104B80000E9406C66093230270932402809325023C
:104B90009093260284E40E949E33882381F00E9431
:104BA0006B332CEA35EC47E25EE30E94E7CA609380
:104BB0001F02709320028093210290932202ECE95D
:104BC000F3E284918F010F5F1F4F882321F00E9431
:104BD000E433F801F6CF409127025091280260910A
:104BE000290270912A0287EB95E00E9466B32CEAB5
:104BF00035EC47E25EE360912302709124028091DC
:104C00002502909126020E94E7CAAB01BC0183EB0A
:104C100095E00E9449B32CEA35EC47E25EE36091EF
:104C20001F027091200280912102909122020E9425
:104C300006C6AB01BC018FEA95E00E9449B38AE049
:104C40000E94E43352C583E50E949E33182F8823C7
:104C500071F00E946B330E944FCB709336026093C9
:104C6000350221E0672B09F020E020934A0D80E512
:104C70000E949E33882359F02091350230913602EC
:104C8000232B11F00E945C3380934A0D2EC5111125
:104C90002CC5ECE9F3E284918F010F5F1F4F88234D
:104CA00021F00E94E433F801F6CF80914A0D811182
:104CB00003C066E073E002C069EF72E080ED95E04A
:104CC0000E94DFB360913502709136028FEB95E060
:104CD0000E94AAB3EBEBF5E084918F010F5F1F4FA9
:104CE000882309F402C50E94E433F801F5CF85E476
:104CF0000E94CD33882321F00E943B331B0102C068
:104D0000212C312C83E40E94CD33882339F00E947A
:104D10003B33E0967FAF6EAFE09706C025E030E012
:104D2000E0963FAF2EAFE09785E50E949E33AA96AE
:104D30008FAFAA97882329F00E945C33AA968FAF81
:104D4000AA9737FC07C0812C912C66E1A62E63E45C
:104D5000B62E06C0812C912C5CE8A52E52E4B52E0F
:104D600083E50E94CD33882321F00E946B334B01F1
:104D70005C0132E02316310410F4209206051092F3
:104D8000330E1092320E0E9461586B017C01C101FA
:104D90000196039718F401E513E00EC004E613E052
:104DA000D8018D918D01882319F00E94E433F8CF4A
:104DB0008AE00E94E43399C4F80181918F0188232D
:104DC00019F00E94E433F8CF8AE00E94E4330E9495
:104DD0005B5D8FE7FFEF2F163F0619F48093DF0C22
:104DE00004C0F101E052F34F8083C501B4010E9479
:104DF0004FCB072E000C880B990B0E94A7C56DAFF7
:104E000022967FAF229726968FAF269762969FAF06
:104E1000629781E080930002AE96CCAEDDAEEEAE3E
:104E2000FFAEAE97E496CCAEDDAEEEAEFFAEE4974D
:104E300066961FAE669720E42A962FAF2A973CE12C
:104E40002E963FAF2E9746E46A964FAF6A976B96C1
:104E50001FAE6B976C961FAE6C976D961FAE6D97DD
:104E60006E961FAE6E9719AE1AAE1BAE1CAE19AA87
:104E70001AAA1BAA1CAA412C512C32013FE7832EEF
:104E8000912CA12CB12C8FE790E0A0E0B0E08DA791
:104E90009EA7AFA7B8ABA7961CAE1DAE1EAE1FAEA9
:104EA000A79791E06F969FAF6F971EAA1DAA19A2B0
:104EB0001DA200E010E0D101A052B34FE696BFAFB3
:104EC000AEAFE697C101880F991F880F991FFC01AB
:104ED000EB53F34FA996FFAFEEAFA9978091000275
:104EE000882309F434C20E94615869A77AA78BA766
:104EF0009CA78091DE0C882309F4FEC00E949A5D75
:104F0000FFEF2F163F0659F42091D30C29A33091BF
:104F1000D40C3DA30091D50C1091D60C15C0A996C8
:104F2000AEADBFADA997BC91B9A3A996EEADFFAD4B
:104F3000A997F181FDA3A996AEADBFADA997129631
:104F40000C91129713961C9129A13DA1A8016B9673
:104F50006FAD6B976C967FAD6C976D968FAD6D97BF
:104F60006E969FAD6E970E94A1C587FF0EC0B9A136
:104F70006B96BFAF6B97EDA16C96EFAF6C976D968C
:104F80000FAF6D976E961FAF6E9729A13DA1A80137
:104F900066966FAD66972A967FAD2A972E968FAD4F
:104FA0002E976A969FAD6A970E9431CC181674F4BA
:104FB000F9A16696FFAF66972DA12A962FAF2A9783
:104FC0002E960FAF2E976A961FAF6A976F963FADDA
:104FD0006F972DAD332309F463C022963FAD22971E
:104FE00026964FAD269762965FAD629769A17DA127
:104FF000C8010E9431CC18160CF07EC049A55AA5F4
:105000006BA57CA54C195D096E097F09DB01CA01FE
:1050100088589341A109B109B7FD6EC08DA59EA521
:10502000AFA5B8A988199909AA09BB09B595A7958B
:1050300097958795EFEF2E163E0619F48093DF0CB7
:1050400005C0E696EEADFFADE6978083A7964CAF20
:105050005DAF6EAF7FAFA797FDAD6B96FFAF6B9760
:1050600022962FAD22976C962FAF6C9726963FAD68
:1050700026976D963FAF6D9762964FAD62976E968D
:105080004FAF6E9789A59AA5ABA5BCA5AE968CAF80
:105090009DAFAEAFBFAFAE976F961FAE6F972CC0F0
:1050A00022963FAD229726964FAD269762965FAD2A
:1050B000629769A17DA1C8010E94A1C587FF1CC09C
:1050C00029A53AA54BA55CA5AE968CAD9DADAEAD20
:1050D000BFADAE97281B390B4A0B5B0BA3962CAFC9
:1050E0003DAF4EAF5FAFA397DA01C9018858934136
:1050F000A109B109B7FF2AC620E030E040EA51E437
:105100006DAD22967FAD229726968FAD269762963B
:105110009FAD62970E940BCA9B01AC0169A17DA162
:10512000C8010E9431CC18166CF4E0EAF6E08491D4
:105130008F010F5F1F4F882309F4D7C20E94E43309
:10514000F801F5CF80E398EFAFEFBFEFE4962CAD19
:105150003DAD4EAD5FADE497821B930BA40BB50B39
:1051600029A53AA54BA55CA5820F931FA41FB51FC7
:10517000B7FD0FC00E94377C8AE00E94E43389A506
:105180009AA5ABA5BCA5E4968CAF9DAFAEAFBFAF63
:10519000E49789A59AA5ABA5BCA5880F991FAA1F5E
:1051A000BB1FAE962CAD3DAD4EAD5FADAE97821B35
:1051B000930BA40BB50B8C199D09AE09BF0981385F
:1051C0009F44A241B10568F0E2E8F6E084918F01C6
:1051D0000F5F1F4F882309F488C20E94E433F8014F
:1051E000F5CF4DA95EA9E0968EAD9FADE0978417EF
:1051F00095070CF073CEE5E2F6E084918F010F5F26
:105200001F4F882321F00E94E433F801F6CF9FEF6F
:105210002916390619F007E314E002C00AE013E08A
:10522000B80183E196E00E94DFB3B301A2018FE0F1
:1052300096E00E9466B38AE00E94E433B8018DEFE5
:1052400095E00E94DFB349A95AA96BA97CA989EF0F
:1052500095E00E9466B38AE00E94E433B80187EECD
:1052600095E00E94DFB349AD5AAD6BAD7CAD83EEE6
:1052700095E00E9466B38AE00E94E433AA968FAC60
:10528000AA97882009F431C22FEF2216320669F559
:1052900040922702509228026092290270922A02BC
:1052A0002CEA35EC47E25EE369A97AA98BA99CA9AF
:1052B0000E9406C660932302709324028093250205
:1052C000909326022CEA35EC47E25EE369AD7AADB5
:1052D0008BAD9CAD0E94E7CA60931F0270932002C1
:1052E000809321029093220200C28101000F111FBE
:1052F000000F111FF801E15FFD4F40825182628271
:105300007382A801495F5D4F7A012CEA35EC47E2D0
:105310005EE369A97AA98BA99CA90E9406C6D70158
:105320006D937D938D939C931397095E1D4F2CEA8B
:1053300035EC47E25EE369AD7AAD8BAD9CAD0E9482
:10534000E7CAF8016083718382839383CEC1809121
:1053500000028111CAC10E945B5DC7C10E94424226
:10536000C4C181E00E943F3AC0C10E94A39FBDC159
:105370000E943EA2BAC10E94E963B7C10E94075EC3
:10538000B4C10E949294B1C183E50E949E338823E8
:1053900019F00E945C3301C081E091E089270E94EE
:1053A000CF8FA3C10E94939EA0C184918F010F5FF4
:1053B0001F4F882321F00E94E433F801F6CFECE17F
:1053C000F7E084918F010F5F1F4F882309F48DC18F
:1053D0000E94E433F801F5CF81E08093060283E573
:1053E0000E949E33811103C00E941EB17EC10E94A3
:1053F0005C3381117AC1F8CF80913F0D80938C0688
:10540000E0908D06F0908E061E2D8091060F85FF90
:1054100014C0B701772785E797E00E94AAB389E215
:105420000E94E4338AE00E94E43346EE5EE066E5E3
:1054300077E081E697E00E94203A80913F0D1817AF
:1054400051F083E50E949E33182F882329F00E9493
:105450005C33182F01C011E086E40E94CD3388230D
:1054600019F00E946B3303C060E070E0CB0120E0D4
:1054700030E040E752E40E94E7CAAB01BC01212FB3
:105480008E2D0E945E9E8091060F85FF14C046EE11
:105490005EE068E377E082E497E00E94203AEBE286
:1054A000F7E084918F010F5F1F4F882321F00E9446
:1054B000E433F801F6CF00918D0611E080918C065F
:1054C000081301C010E0C090EE0ED090EF0EE090F7
:1054D000F00EF090F10E8091A20D882309F481C0A6
:1054E000013009F07EC0112309F47BC00E944242C2
:1054F00020E030E040E050E4C701B6010E940BCA52
:105500006093EA0D7093EB0D8093EC0D9093ED0D8D
:105510000E94C7A80E9442420E9429860E94D93355
:105520000E94615880906D0290906E02092C000CD0
:10553000AA08BB084090DE0D5090DF0D6090E00D92
:105540007090E10D840C951CA61CB71CDC01CB01EE
:1055500088199909AA09BB09B7FF03C00E94AA9834
:10556000DFCFC092EA0DD092EB0DE092EC0DF092FD
:10557000ED0D0E94C7A80E944242C090110ED0902B
:10558000120EE090130EF090140E2091AC0D30919D
:10559000AD0D4091AE0D5091AF0DC701B6010E9407
:1055A0000ACA9B01AC016091EE0E7091EF0E8091E2
:1055B000F00E9091F10E0E940BCA6093EE0E709364
:1055C000EF0E8093F00E9093F10EC092AC0DD0923E
:1055D000AD0DE092AE0DF092AF0D0E94E63A0E9442
:1055E0007FA18091A20D882309F47FC001117DC0A5
:1055F000112309F47AC00E9442420E9412880E943C
:10560000D9330E9461586B017C0180916D029091A9
:105610006E02BC01990F880B990B0091DE0D109161
:10562000DF0D2091E00D3091E10D060F171F281FAF
:10563000391F46015701801A910AA20AB30AB7FE20
:1056400003C00E94AA98DDCF0E942958C0900D0E79
:10565000D0900E0EE0900F0EF090100E2091AC0D39
:105660003091AD0D4091AE0D5091AF0DC701B60117
:105670000E940ACA9B01AC016091EE0E7091EF0E80
:105680008091F00E9091F10E0E940BCA6093EE0E85
:105690007093EF0E8093F00E9093F10EC092AC0DCC
:1056A000D092AD0DE092AE0DF092AF0D0E94E63AB1
:1056B0000E947FA11AC0ECE9F3E284918F010F5F91
:1056C0001F4F882321F00E94E433F801F6CF609148
:1056D000390E70913A0E82E897E00E94DFB382E2C1
:1056E0000E94E4338AE00E94E4331092330E109259
:1056F000320E0E94FFB0FEC4E0910405F091050552
:10570000EF2B31F4FC013197F0930505E09304058C
:10571000A0E0B0E00C94C2131092110D1092120D83
:105720001092130D1092140D10922F0D1092300D37
:105730001092310D1092320D1092330D1092340DE3
:105740001092350D1092360D10921F0D1092200DF3
:105750001092210D1092220D1092370D1092380DDB
:105760001092390D10923A0D1092270D1092280DBB
:105770001092290D10922A0D1092230D1092240DD3
:105780001092250D1092260D10923B0D10923C0D9B
:1057900010923D0D10923E0D10922B0D10922C0D7B
:1057A00010922D0D10922E0D0C94F31A94D7109187
:1057B0000605212F30E0220F331FA9014652534F17
:1057C0007A010E944FCBD7016D937C93812F0E9469
:1057D000045D81D720E030E04AEA52E40E94A1C58E
:1057E00018161CF00E9469A302C00E945DB80E94B6
:1057F00015B481E0809300021092330E1092320EA5
:105800001DA21EA21FA218A61DA61EA61FA618AA8C
:1058100019A21DAA5CE359AB8CE189AF96E49DAF58
:10582000C12CD12C20E8E22E3FEBF32E812C912CC1
:1058300054010091060510E0F801EE0FFF1FE6523B
:10584000F34F60817181072E000C880B990B0E9429
:10585000A7C5762E672E582E492E262F372F482F74
:10586000592FB601C7010E94A1C58823E9F0000F96
:10587000111F000F111FF801EB53F34F20813181ED
:1058800042815381672D762D852D942D0E94A1C5CF
:10589000881F8827881F89A3C9A4CC2049F08823A2
:1058A00039F08091000221CF7C2C6D2C5E2C4F2C86
:1058B0000E9461586B017C01DC01CB012DA53EA546
:1058C0004FA558A9821B930BA40BB50BB7FD37C08E
:1058D000D701C60188519C4FAF4FBF4F8DA79EA7E0
:1058E000AFA7B8AB0E94377CE7E2F3E084918F0169
:1058F0000F5F1F4F882319F067D7F801F7CF811486
:105900009104A104B104B9F0D501C4018854944FA5
:10591000AF4FBF4FBC01CD016C197D098E099F09A6
:1059200028EE33E040E050E00E94ADC9CA01B90161
:105930000E947A3502C08FE347D78AE045D70E949C
:10594000AA9837D7E091060594E0E99FF001112469
:10595000EB53F34F20803180028113819101A80124
:10596000672D762D852D942D0E940ACA9F7781146C
:105970009104A104B10449F420E030E040E85FE381
:105980000E94A1C587FF0BC008C020E030E040E4C2
:1059900050E40E9431CC181614F446015701A9A115
:1059A000AA2379F12DA13EA14FA158A521153105BA
:1059B0004105510541F0D701C601821B930BA40B91
:1059C000B50BB7FD1EC09101A8016DA979A989ADDC
:1059D0009DAD0E940ACA20E030E040EC5FE30E94E7
:1059E000A1C587FD5ECFD701C601805A9541AF4F53
:1059F000BF4F8DA39EA3AFA3B8A72DAA39AA09AF05
:105A00001DAF80910002882309F44BCF81149104CB
:105A1000A104B10429F4C72CD62CE52CF42C09CF11
:105A200098EBC91A9BE0D90AE108F108C818D9080F
:105A3000EA08FB08F7FE35CFEECF4DD60E944FCBDC
:105A40006739710514F066E970E07093D90C6093C2
:105A5000D80C0E94BA5C3FD620E030E040EA50E427
:105A60000E9431CC181614F40E945DB881E0809336
:105A700000021092330E1092320E80913F0D8093EF
:105A800006051DA21EA21FA218A61DA61EA61FA6C1
:105A900018AA19A21DAAACE3A9ABBCE1B9AFE6E410
:105AA000EDAFC12CD12C10E8E12E0FEBF02E812CA4
:105AB000912C54016091D80C7091D90C072E000CD8
:105AC000880B990B0E94A7C5162F072F782E692ED9
:105AD000262F372F482F592FB601C7010E94A1C585
